:020000040000FA
:06000000020A100201CA11
:03002B000209AE19
:030033000207A31E
:030043000208822E
:03004B0002071F8A
:0300530002011C8B
:03005B0002072E6B
:0300630002073A57
:03006B0002078900
:1000830002016601010503010300030003000300ED
:100093000300030003000300030005000A0014002B
:1000A30028004F009E0000006D0F6D0F6D0F6D0F48
:1000B3002F0E290E6D0F2E1D000000006A1C00007C
:1000C30000000C0000000C00010000C31000000041
:1000D300000000531100000000000000009B05FF1A
:1000E30001010100F40D000000440EE80364006404
:1000F30000B801020200080000050107011E020505
:100103001E020A0C03B80B02606D010332000234B5
:1001130012020A01E002020605C0E074F21203D6DD
:10012300E5A7FAE5A1FBEA5B541060081216A55394
:10013300A1EF802AEAA2E0C0D0EBA2E092F012097C
:1001430088158182F05017906198E0FA90115AE077
:10015300C39AA2D265D0335002EAF053A1FE7F01C5
:1001630002048DC0E074F21203D69061A4E0FA7524
:100173009B00E5915A540860087591F71216E780C1
:100183002AE5915A541060087591EF1216ED801B01
:10019300EAA2E0C0D0E591A2E092F01209881581AD
:1001A30082F05007E0C2E0F012180D9061A3E0FA6C
:1001B300E5E95A5404600E1217E375E9FB90619365
:1001C300E0A2E640F28097C0E074F21203D6906199
:1001D300A5E0FAE5BF5A5404600653BFFB12182585
:1001E300020161C3E498F8E499F91202278026C357
:1001F300E49AFAE49BFBE920E7E9120227E498F882
:10020300E499F922C3E498F8E499F9120227E498EF
:10021300F8E499F9C3E49AFAE49BFB22EB20E7CFD5
:10022300E920E7E0B90010BB0008E88AF084F8AAE7
:10023300F022E4FBC8FA22EB70227B10C833C8C952
:1002430033C9335007C39AC3DBF280069A50012A9D
:10025300DBEAC833F4C8C933F4C9FA2275F008E4F9
:10026300C833C8C933C933C99AC99B5004C92AC9F9
:100273003BD5F0ECFBC833F4C8E4C9FA22080808FC
:10028300EAC0E0EBC0E086F0E7A4FA180986F0E7DD
:10029300A42AFA180986F0E7A42AFA180986F0E7CF
:1002A300A42AFA1986F0E7A4FBE5F02AFA190886CE
:1002B300F0E7A42BFBE5F03AFA190886F0E7A42B44
:1002C300FBE5F03AFA18180986F0E7A4C5F02BFB12
:1002D300E43AFA1908E7C5F0C6A426F6E5F03BFBB5
:1002E300E43AFA1886F0E7A4F6E5F00826F6E43BCC
:1002F30008F6E43A08F6D0E0FBD0E0FA22E4CFC0F7
:10030300E0E4CEC0E0E4CDC0E0E4CCC0E075F02092
:10031300C3E633F608E633F608E633F608E633F6C3
:10032300181818EC33FCED33FDEE33FEEF33FFC347
:10033300EC9709ED9709EE9709EF97191919400FF3
:10034300FFEC97FC09ED97FD09EE97FE191906D509
:10035300F0BEECF709EDF709EEF709EFF7191919F4
:10036300D0E0FCD0E0FDD0E0FED0E0FF222510C5B8
:1003730082C0E0E51134FFC583C0E0E510C3958278
:1003830024F8F8E4C5A8858311858210C5A8E8CEB2
:10039300F0A3E520F0A37808E608F0A3DEFAEFF077
:1003A300A3E58124FAF8E608F0A3E608F0A3E6083B
:1003B300F0A30808E608F0A3E608F0A31581158169
:1003C300D0E0FED0E0F8158115811581E8C0E0EE9C
:1003D300C0E022C0D02510C582C0E0E51134FFC5BE
:1003E30083C0E0E510C3958224F310AF0885831121
:1003F3008582108008858311858210D2AFC8F0A34F
:10040300E9F0A3EAF0A3EBF0A37908E709F0A3D896
:10041300FAECF0A3EDF0A3EEF0A3EFF0A3D0E0F03D
:10042300A3D0E0F0A3D0E0F0A3E520F0A3E5F0F043
:10043300A322120A5AB90003020477E49004007855
:1004430036790F8002F0A3D8FCD9FA901235AA822C
:10045300AB83900086789779018015E493A3AC82EF
:10046300AD838A828B83F0A3AA82AB838C828D8334
:10047300D8E9D9E77582117583CB74021205297502
:10048300828375831A74001205298511838510826E
:10049300E0C0E0A3E0F9A3E0FAA3E0FBA37808E05F
:1004A300F608A3DFFAE0FCA3E0FDA3E0FEA3E0FF70
:1004B300A3E0C0E0A3E0C0E0A3E0F5D0A3E0F52013
:1004C300A3E0A3F5F0E4C5A8858311858210C5A830
:1004D300D082D083D0E0F8D0E032D083D082ECC099
:1004E300E0EDC0E0E493A3FCE493A3FDED4C600DC9
:1004F3001205B9EC24FFFCED34FFFD80EFE493A378
:10050300FCE493A3FDED4C600D1206CAEC24FFFC42
:10051300ED34FFFD80EFD0E0FDD0E0FCE493A3C019
:10052300E0E493C0E022C0F0F5F0E59F5407C0E09B
:10053300E59F54F845F0D0F0F59FE473859FF053A1
:10054300F0F8D0E045F0F59F22D083D082E59F54A8
:1005530007C0E0E493C0E0740193C0E074029354D5
:1005630007C0F0F5F0E59F54F845F0D0F0F59F2271
:10057300D083D082E9C0E0E493A3C386F0C5F095AD
:10058300F0F908E493A386F0C5F095F0700BE493BB
:10059300A3C3994005E9048002A3E475F002A425EE
:1005A30082F582E5F03583F583D0E0F9E493A3C0C7
:1005B300E0E493C0E022C0E0C3E49396087401939F
:1005C3009618400FE49366700808740193661870D8
:1005D300007019A3A3C3E49396087401939618A318
:1005E300A3400DD0E0D0E0D0E0020519A3A3A3A35C
:1005F300A3A3D0E022851183851082E0A3FEE0A3AC
:10060300F5207808E0A3F608DFFAE0A3FFE0A3C033
:10061300E0E0A3C0E0E0A3C0E0E0A3C0E0E0A3C04B
:10062300E0E4C5A8858210858311C5A8D083D08254
:1006330002053FD083D082C5F0E493A3C5F0C395F0
:10064300F0F5F0E493A3C395F04005E5F0048001D1
:10065300E475F002A42582F582E5F03583F583E4A1
:1006630093A3C0E0E493C0E0227404800474028086
:1006730000CCC0E0EDC0E0E510C39CCCAD1150014F
:100683001D10AF068C108D1180068C108D11D2AF0A
:10069300120768D0E0FDD0E0FC2274028000CCC0D9
:1006A300E0EDC0E0E510C39CCCAD1150011D10AFCF
:1006B300068C108D1180068C108D11D2AF12074657
:1006C300D0E0FDD0E0FC22C0E0C0F088F0E4936607
:1006D30070080874019366187000A8F0A3A3700B48
:1006E300D0F0D0E0D0E0D0E0020519A3A3D0F0D041
:1006F300E022D083D082CCC0E0E493A3600612074B
:10070300A91470FAE493A360061208991470FAD03E
:10071300E0FCE493A3C0E0E493C0E022C0E074F201
:100723001203D61215E57F0102048DC0E074F212A4
:1007330003D61215EB80EFC0E074F21203D6121544
:10074300F180E3CAC0E0E493A3C582CCC582C5832C
:10075300CDC583F0A3C582CCC582C583CDC583DA5D
:10076300E5D0E0CA22CAC0E0E0A3C582CCC582C5F9
:1007730083CDC583F0A3C582CCC582C583CDC58394
:10078300DAE6D0E0CA22C0E074F21203D6E589A209
:10079300E050031215B5758900C2C57F0102048DAF
:1007A300758B00C2E832C0E0E493A3D39C5010E4FD
:1007B30093A3C39C400AD0E0D0E0D0E0020712A389
:1007C300A3A3D0E02270090808082260161818189D
:1007D300C6C333C608C633C608C633C608C633C63F
:1007E300D5E0EA227404800A74038006740280024E
:1007F3007401C0E0F404120802D0E0120A4D22256D
:1008030010F58210AF08F510400215118008F5109D
:1008130040021511D2AF85118322BB0102E722C02A
:1008230082C08389828A83BB0003E08002E493D081
:1008330083D08222C0D0251010AF08F510500205D6
:10084300118008F51050020511D2AFD0D0226016E6
:10085300080808C6C313C618C613C618C613C61895
:10086300C613C6D5E0EA22C3E0C696F608A3E0C6DF
:1008730096F608A3E0C696F608A3E0C696F622C04D
:10088300E074F21203D6C2C0E5D1A2E450031216FB
:100893001B7F0102048DC0E0E493A36C7009D0E0D8
:1008A300D0E0D0E0020712A3A3D0E022251010AFBE
:1008B30008F510400215118008F51040021511D2F9
:1008C300AF22E066701008A3E066700A08A3E06632
:1008D300700408A3E06622C3E09608A3E09608A389
:1008E300E09608A3E096A2D265D03322C3E096F047
:1008F30008A3E096F008A3E096F008A3E096F022A0
:10090300E657F60809E657F60809E657F60809E632
:1009130057F622E026F608A3E036F608A3E036F6FB
:1009230008A3E036F622E627F60809E637F60809B3
:10093300E637F60809E637F622E647F60809E647FA
:10094300F60809E647F60809E647F622E026F00826
:10095300A3E036F008A3E036F008A3E036F022E087
:1009630056F008A3E056F008A3E056F008A3E056BB
:10097300F022E056F608A3E056F608A3E056F60880
:10098300A3E056F622C0E0E8C0E0E58124FCF8E6E7
:10099300A2E7D0E0F8D0E022700422600D18C6C3AD
:1009A30033C608C633C6D5E0F41822C0E074F21289
:1009B30003D6C2C71217297F0102048DE4C396F63A
:1009C30008E496F608E496F608E496F622C3E7965A
:1009D3000809E7960809E7960809E79622600D08D3
:1009E300C6A2E713C618C613C6D5E0F322C6F4C6DB
:1009F30008C6F4C608C6F4C608C6F4C622C3E09601
:100A030008A3E09608A3E09608A3E0962275D00019
:100A130075814075100075110400020435600C08DF
:100A2300C6C313C618C613C6D5E0F422E6F008A35E
:100A3300E6F008A3E6F008A3E6F022E0F608A3E058
:100A4300F608A3E0F608A3E0F622CAC0E0E6F0A3A6
:100A530008DAFAD0E0FA2274F855C74401F5C779E9
:100A630001222510F582E43511F5832212054CF994
:100A7300A40112054C2CA50112054C4BA50112052E
:100A83004C6DA50112054C7FA50112054CB2A501C1
:100A930012054C28A60112054CD1A60112054C974C
:100AA300A70112054CE3A70112054C22A801120568
:100AB3004C3FA80112054C79A80112054CB4A801BA
:100AC30012054CCFA80112054CF9A80112054C34AC
:100AD300A90112054C74A90112054CD1A9011205F3
:100AE3004C72AA0112054C0DAB0112054CA3AB01CC
:100AF30012054CCFAC0112054C48AD0112054C8DCB
:100B0300AD0112054CFCAD0112054C70AF0112058D
:100B13004C8CAF0112054CEEAF0112054C8EB001A7
:100B230012054CD0B00112054C6DB10112054C29D0
:100B3300B20112054C8BB20112054CFAB201120537
:100B43004C4DB30112054C86B30112054C5AB40146
:100B530012054C93B50112054CEAB50112054C334D
:100B6300B60112054C5BB60112054CDCB601120549
:100B73004C5AB70112054CC3B70112054CD4B70147
:100B830012054C59B80112054CFEB80112054C4030
:100B9300B90112054CC6B90112054CF9B901120588
:100BA3004C3ABA0112054CB6BB0112054C6CBD019F
:100BB30012054C54BE0112054C36C00112054C40BF
:100BC300C00112054C4AC00112054C54C001120564
:100BD3004C5EC00112054C68C00112054C72C00185
:100BE30012054C96C00112054CBAC00112054C13F4
:100BF300C10112054C6AC10112054C88C1011205DD
:100C03004C0DC20112054C49C20112054C89C201A7
:100C130012054C251F0012054C711F0012054C21B3
:100C2300210012054C5F210012054CF8210012052A
:100C33004C2C220012054C70220012054C88230014
:100C430012054CFD230012054CB7260012054CA5D6
:100C5300270012054C4A280012054C5F2900120593
:100C63004C892C0012054C162D0012054C532D00F7
:100C730012054C192E0012054CB62E0012054C001D
:100C83002F0012054C2D2F0012054C4F2F0012057B
:100C93004C65310012054C26320012054C86320099
:100CA30012054CE9320012054CB2330012054CE731
:100CB300330012054C3B340012054C70340012050E
:100CC3004CC0340012054C1B350012054C9F3500F7
:100CD30012054CCD360012054C88370012054CAC7A
:100CE300380012054C383A0012054CC83A00120578
:100CF3004C913B0012054C1A3C0012054C613C0020
:100D030012054CD73D0012054CEB3D0012054C0873
:100D13003E0012054C323E0012054C3E3E001205C9
:100D23004C5C3E0012054C233F0012054C4D3F0026
:100D330012054C5A3F0012054C6C3F0012054CBC87
:100D43003F0012054C06400012054C2541001205D8
:100D53004CBE410012054CA2420012054C9E4300BA
:100D630012054C31440012054CC1440012054CD805
:100D7300440012054CFC440012054C1A45001205B0
:100D83004C5E450012054CB8450012054CE0460088
:100D930012054CFE470012054C5D480012054C1528
:100DA300490012054C3B490012054C2E4A0012051E
:100DB3004C4D4A0012054CC94A0012054C314B00F8
:100DC30012054C5D4B0012054CA84B0012054CDC80
:100DD3004B0012054C4D4C0012054CA84C0012055B
:100DE3004CEAE30212054C35E40212054C084E00AE
:100DF30012054C534E0012054CAE4E0012054CFF2B
:100E03004E0012054C1A4F0012054C504F001205AC
:100E13004C714F0012054C7B4F0012054C90500053
:100E230012054CAE500012054C1E510012054C31F8
:100E3300510012054C3F510012054CE051001205C0
:100E43004CB4520012054CCF530012054C4B5400C6
:100E530012054C55540012054CC8540012054CDFC2
:100E6300540012054C21550012054C5F5500120524
:100E73004C8E550012054CC5550012054CE3550028
:100E830012054C07560012054C48560012054C3308
:100E9300570012054C79570012054CA45700120550
:100EA3004C11580012054C38580012054C7D58005F
:100EB30012054C8B580012054CE4580012054C21C6
:100EC300590012054C68590012054C995900120536
:100ED3004CBC590012054CC7590012054CE559008A
:100EE30012054CA15A0012054CAB5A0012054CEAEC
:100EF3005A0012054C005B0012054C095B001205F9
:100F03004C4D5B0012054C615B0012054C4C5C00C0
:100F130012054C5F5C0012054C745C0012054C1CFE
:100F23005D0012054C685D0012054C1E5E00120543
:100F33004C295E0012054C775F0012054CA35F003D
:100F430012054CE45F0012054CFE5F0012054C35A0
:100F5300600012054C98620012054C2063001205D4
:100F63004CA0630012054CE3650012054CF36500C9
:100F730012054CF6650012054C02660012054C166C
:100F8300660012054C35660012054C6866001205B2
:100F93004C2D670012054C94670012054CF867004E
:100FA30012054C82680012054C33690012054C5A35
:100FB300690012054CEA690012054CF66900120536
:100FC3004C256A0012054C476A0012054C6E6A00F4
:100FD30012054CD36A0012054C866C0012054C892D
:100FE3006C0012054CF36C0012054CE66D00120503
:100FF3004CCB6E0012054C566F0012054C997000D5
:1010030012054C5C710012054C95710012054CC61B
:10101300710012054CCF710012054CB3720012051A
:101023004C43730012054CE1730012054CA174008C
:1010330012054C1A750012054C49750012054C86B1
:10104300750012054CC7750012054CD575001205C5
:101053004C51760012054C87760012054CCE760073
:1010630012054CEF780012054CF47A0012054CD0AF
:101073007D0012054CFE7D0012054C207E001205FA
:101083004C897E0012054CC57E0012054C007F0082
:1010930012054C3D7F0012054C84D60212054C9D6F
:1010A300D60212054CEAD60212054C34D7021205B9
:1010B3004CD7D70212054CE6D40212054C2CD602AB
:1010C30012054C4CA50212054CCBA50212054CD6B9
:1010D300A50212054CFDA50212054C11A60212052C
:1010E3004C86A60212054CB6A60212054CA5A70211
:1010F30012054C50A80212054CA6A80212054CE199
:10110300A80212054C16A90212054C6EA90212057B
:101113004C9BA90212054CF2A90212054C68CF029E
:1011230012054C7FCF0212054C1AD00212054CC98E
:10113300D00212054CF8D00212054CFBC002120576
:101143004C76C10212054C81C10212054CA6C102A4
:1011530012054C478C0212054CE38C0212054C1607
:101163008D0212054C518D0212054C758D0212052C
:101173004C958D0212054CFE8D0212054C3C8E02DD
:1011830012054C928F0212054CB38F0212054CD4F8
:101193008F0212054C29900212054CCA90021205C7
:1011A3004C01910212054C64920212054C1C9302ED
:1011B30012054C37940212054C63940212054C6DD0
:1011C300940212054CB3940212054C5C950212056D
:1011D3004CB49E0112054C44960212054C4D9602E6
:1011E30012054CA3960212054CCE960212054C33FF
:1011F300970212054CA6970212054CEC97021205B2
:101203004C51980212054CD5980212054C3B990299
:1012130012054C7A990212054C8C990212054C9EC8
:10122300990212054CBD990212054CD1A401120575
:101233004C3FE00212054C87E40212054C1FD30217
:1012430012054C7ED30212054CA7D30212054CAAF9
:10125300D40212054CA5C40112054C89C50112051F
:101263004CC5C50112054C85C70112054CC7C70102
:1012730012054C65C90112054CACC90112054C8815
:10128300CA0112054C13CB0112054CB0CB01120558
:101293004C09CC0112054C49CC0112054CEFCD0190
:1012A30012054C96CF0112054CDCD10112054CEA14
:1012B300D10112054C47D20112054C9CD2011205F3
:1012C3004CE7D50112054CE77F0012054C9FB8028D
:1012D30012054CB7B80212054C53B90212054C94CF
:1012E300B90212054CB1B90212054CD4B902120568
:1012F3004C0ABA0212054C41BA0212054C68BB02F1
:1013030012054CEBDC0212054C5BDD0212054C7836
:10131300DD0212054CBDDD0212054CECDD021205A7
:101323004C01DE0212054C42BE0212054CB7BE024E
:1013330012054C8BBF0212054C2CC00212054CB295
:10134300C00212054C00800212054C4F80021205A8
:101353004CF0800212054CA6810212054CBB81029F
:1013630012054C05820212054C18820212054C5DCF
:10137300820212054CBA820212054CCE8202120579
:101383004C9D840212054C1A850212054C528502AB
:1013930012054CFF860212054C0E870212054C58AB
:1013A300870212054C8C870212054CE58702120551
:1013B3004C00880212054C78880212054C128A02EE
:1013C30012054C3D8A0212054C668A0212054CC670
:1013D3008A0212054CE38A0212054CE68A021205C0
:1013E3004C038B0212054C758B0212054CA68B0223
:1013F30012054C0E8C0212054C388C0212054C60FF
:10140300E30212054C6CE30212054CB4E30212052D
:101413004C29D60112054C54D60112054C0BD701A9
:1014230012054C68D70112054CC4D70112054C10A4
:10143300D80112054C78D80112054C0DD9011205BB
:101443004C83D90112054CBFD90112054CF0DD01C3
:1014530012054C9ADF0112054CC3DF0112054C89BA
:10146300E00112054C73E10112054C78E30112050A
:101473004CA4E30112054CB8E40112054CC6E60185
:1014830012054C86E70112054C06E80112054C15BE
:10149300E80112054CA5E80112054C0FE9011205FC
:1014A3004CDCE90112054C07EA0112054CC1EA01C3
:1014B30012054C12EB0112054C7CEB0112054C8E0C
:1014C300EC0112054C20ED0112054C6BED011205E8
:1014D3004CE0EE0112054C7FEF0112054C14F001B4
:1014E30012054C69F00112054CD7F00112054C3E70
:1014F300F20112054C51F40112054CE7F4011205F7
:101503004CB5F50112054CD9E20212054C18E30261
:1015130012054C1DE30212054C49E30212054C511E
:10152300C60212054CB9C60212054C66C702120563
:101533004CCCC70212054C3DC80212054CC7CB0266
:1015430012054C4CD90212054C91D90212054C4597
:10155300DA0212054C4DD10212054C5BD102120581
:101563004CE7FF0112054C4AFF0112054C5AFF01DB
:1015730012054C75FF0112054CDDFF0112054CBB32
:10158300DB0212054CE2DB0212054C6BDC02120596
:101593004CD2DC0212054CDD9D0312054C1BDE020E
:1015A30012054C3DDE0212054CADDE0212054CCC99
:1015B300DE0212054C0EDF0212054C2CAA021205A4
:1015C3004C3AAA0212054CBAAA0212054CA6AB0267
:1015D30012054C40AE0212054CEED70212054C29FF
:1015E300D80212054C4DD80212054CABD802120595
:1015F3004C0DD90212054C13A00212054C92A00205
:1016030012054C40A10212054CB1A10212054CB9BE
:10161300A20212054C3AA40212054C99A402120527
:101623004CEFA40212054CF8A40212054C07A502C4
:1016330012054C1AA50212054C30A50212054C39AD
:10164300A50212054C9A9A0212054CEB9A02120556
:101653004C759D0212054CAD9D0212054CD29D02A4
:1016630012054CEB9D0212054C049E0212054C39E7
:101673009F0212054CD49F0212054C4ECD02120557
:101683004C91CD0212054CA2CD0212054CD5CD02D0
:1016930012054C0CCE0212054C41CE0212054CB978
:1016A300CE0212054CF6CE0212054CB5C30212054A
:1016B3004CDDC30212054C1AC40212054C2CC402A1
:1016C30012054C48C40212054CB0C40212054CB9B1
:1016D300C40212054C1AC50212054C3EC50212057E
:1016E3004C05C60212054C12C60212054C23C60253
:1016F30012054C7B7F0012054CC87F0012054C3746
:10170300B20212054C2DB30212054C3AB302120574
:101713004C57B30212054C6EB30212054C83B3024D
:1017230012054C07B40212054CDAB40212054C47F9
:10173300B50212054C90B50212054CA0B502120574
:101743004C37E20212054C5CE20212054C85E202C0
:1017530012054CADE20212054CC9C80212054CE257
:10176300C80212054CEEC80212054C02C90212054A
:101773004C26C90212054C32C90212054C41C9025A
:1017830012054C54C90212054C87C90212054CC1FB
:10179300C90212054CF3C90212054C42CA021205D2
:1017A3004C8ECA0212054CA6CA0212054CB0CA02DC
:1017B30012054CC1CA0212054C06CB0212054C3F5E
:1017C300E40212054C08F70112054C34F701120527
:1017D3004C50F70112054C63F70112054C79F701E0
:1017E30012054CE2F70112054C15F80112054C7B6A
:1017F300FB0112054CA2FC0112054CD2FC0112059F
:101803004C39FD0112054C25FE0112054C4DFE011C
:1018130012054C62FE0112054C72FE0112054CB317
:10182300FE0112054C08FF0112054C1EFF011205B3
:101833004C84DA0212054C9FDA0212054CC8DA0214
:1018430012054CE2DA0212054C07DB0212054C26A4
:10185300DB0212054C3FDB0212054C6EDB02120564
:101863004C89DB0212054CCDE40212054CA5AE02F5
:1018730012054CACAE0212054CB9AF0212054CEB8B
:10188300AF0212054C11B00212054C44B00212050E
:101893004C56B00212054C91B00212054C01B10234
:1018A30012054C3EB10212054C8BB10212054CB924
:1018B300B10212054CD9B10212054C32DF021205F6
:1018C3004C44DF0212054C3CE00212054C40E1029D
:1018D30012054C96E10212054CD4E10212054C1597
:1018E300E20212054C80BB0212054C9CBB0212059E
:1018F3004CE5BB0212054C01BC0212054C32BC0282
:1019030012054C59BC0212054C46BD0212054C503F
:10191300BD0212054C5DBD0212054C16BE02120536
:101923004C2ABE0212054C33BE0212054CAFB5025F
:1019330012054C9AB80212054C0DE50212054C3CF7
:10194300E50212054CE19D0112054C9A9D01120519
:101953004C699D0112054C499D0112054CE79C0100
:1019630012054C949C0112054CE69B0112054CD6C2
:10197300980112054CA2980112054C7998011205A1
:101983004C55980112054C9F970112054C4897013D
:1019930012054CB8950112054CB5950112054C750D
:1019A300940112054C55940112054CAB9301120599
:1019B3004C23920112054CEA910112054CB3A40188
:1019C30012054CE9A30112054C4AA30112054CBBB5
:1019D300910112054CB8910112054CA89101120511
:1019E3004C9A910112054CFBA10112054C8B9101FC
:1019F30012054C6A900112054CEE8F0112054CBB87
:101A03008F0112054C749A0212054C909F01120526
:101A13004C638F0112054C368F0112054C508C011B
:101A230012054C768B0112054C0C8B0112054CCC24
:101A33008A0112054CC08A0112054C2D8A01120538
:101A43004C84890112054C31870112054C15840120
:101A530012054CDF830112054C77820112054C2AD3
:101A6300820112054C6B810112054CC480011205E1
:101A73004C63800112054C9D800112054C82950236
:101A830000000080FBE47387000100C312240002FE
:101A9300009D12250002009F1226000200A11227BA
:101AA300000200A31228000100A51229000100A6CC
:101AB3001284000400A71286000100AB122A000161
:101AC30000AC122B000100AD122C000100AF122D4F
:101AD300000800970E2E000100B0122F000100B184
:101AE3001230000100B21231000100B312320001C2
:101AF300009F0E33000100A00E34000100B4123524
:101B0300000100B51236000100A10E83000200C1DE
:101B13001262001000AA0E66001000BB0E630001E3
:101B230000BA0E64000100960E65000100AE124378
:101B3300000100B61244000200B71245000100B9CB
:101B43001246000200BA1247000800A20E48000124
:101B530000BC1249000100BD124A000200BE124B34
:101B6300000100C01204000100C412A1000100C65C
:101B73001237000100C5120000000000000001360A
:101B83003601010001020100010301000104010605
:101B93000605020000070100340801000F090401D3
:101BA300010D0100FF0E08000017020000190100DB
:101BB300FF1A0100011B0100051C0100081D0200A2
:101BC300001F010001200100012102000023010088
:101BD3000F24020000260100012701030828020048
:101BE300FF2A0100072B0102402C0100002D0100F8
:101BF300012E0100012F0100FF30010B1C310800F1
:101C0300003A010008030271023001600211027000
:101C1300020102020202028002100261023A004142
:101C2300006302730272026202430200021302386B
:101C3300000002000204021202000200020002007D
:101C43000204020402370037003C02440200023956
:101C53000000020002650200023502810200020553
:101C630002820283020002010371030103010301E3
:101C73000301030103220302030103100300030012
:101C830003000300030003000300034203000324D3
:101C930003060300030003040312032503230325A0
:101CA30003230304030403000300030003440300AA
:101CB30003000323030003650321003503810300AD
:101CC3000305030003000300030101710101010186
:101CD30001110101013101010101018001100161C3
:101CE300013B0014006301730172016201430100AF
:101CF30001130106013D0135000401120100010039
:101D0300010001000104010401330133013C0144DA
:101D13000132013600000100016501000135008137
:101D230001000105018201830100010300710030FC
:101D33000160001100700031022003500480001084
:101D4300006100000014006300730072006200432E
:101D53000000001300060000000000040012000051
:101D63000000000000000004000400370037003CBE
:101D73000244000000000000000000650000003580
:101D83000081000000050000008300000036000110
:101D930000060000000F000000000000000000002B
:101DA30000000003FFFF00000403FFFF0000FFFF2C
:101DB3000FF4010005C4040320000100000B000020
:101DC30000000000000003010100B91402002914FF
:101DD30003002F140400351405003B1406004714B8
:101DE30011005F141400651415005914FFFF00005F
:101DF300030003000400080010001F003E007B00E6
:101E0300F600EC01D703AF075D0FB91E713D00006B
:101E1300890EB90E8F0E950EB30EA70EA10EBF0E2F
:101E2300C50ECB0ED70E9B0E830E7D0ED5C5C5B545
:101E3300A5A595858575756565555545453535253F
:101E43002515050A790C02490C055B0C074F0C0C90
:101E5300370C0D430CFF00009C36063A703DD94009
:101E63004344AD47174B814EEA5100160F00000B58
:101E7300150B020002220F320000065677777777A0
:101E83007777777777777777777777000102030428
:101E930005060708090A0B0C0D0E0F6D0F7F0F8542
:101EA3000F530E8B0F4D0E590EE50F03100910EB58
:101EB3000FF70FF10F00011916181616152303005B
:101EC300303017181921301B1D1F303030161819E8
:101ED30020231A1C1E3000383C3E363B3B352B4337
:101EE3002C0C0E020B040B0A0708000F00034948D1
:101EF300424D1817250502D90F910F970FA30F9D78
:101F03000FAD0ED10EFD0FDD0EE30E0005150D090D
:101F130010080400BE040A0E000400040C10080498
:101F2300050FC082C083E99004B7F0E490046CF01D
:101F33001218BB9004BBE4F0A3F09004B8F0A3F034
:101F4300120DAB1218C190043CE4F0A3F09004CB43
:101F5300E07002A3E060099004CB1240ED121A88EE
:101F6300901F24E493FA790212191B023C5A74F26B
:101F7300120370EAFEEBFF74805FF9E47001E9700D
:101F830063EEA2E0507B900471E0640F700B790064
:101F9300120C1FE9600312211774016EFAEFFB02A2
:101FA30021030BEB75F003A42446F8E5F0341EF986
:101FB30088828983E493FA74FF6A602185088285A5
:101FC3000983E06A70DCAA08AB0988828983A3E4E9
:101FD30093C0E0740193F583D082121A88AA08ABE8
:101FE300091211E39004B7E0F91211EF8A088B0983
:101FF300EA7001EB60047B0080A9EEFA74806F80C5
:102003009D542070030220CF750A007C027D007A64
:102013002012210C7C0079047A007B00120CAF8A19
:10202300088B09800D740188828983F0850C0885EB
:102033000D09E5087002E509606D7C007904AA08C2
:10204300AB09120CAF8A0C8B0D750A01E508240449
:102053001244A224FFF0A3E034FF1242567002A3FD
:10206300E070C9E5082409F8E5093400F985088218
:10207300850983A3A3A3A3A3A3A3A3A3A3E06401A9
:1020830070A3850882850983A3A3A3A3A3A3E05414
:10209300047092740688828983F07AB785088285F2
:1020A30009831221E78085120C7F7C0079017A0075
:1020B3007B00120CAFEA7001EB7009E50A70057A38
:1020C30020123F1874206EFAEF021FA174025FF909
:1020D300E47001E9600A120DA5EEFA740202200110
:1020E30074045FF9E47001E9601212424C124185F5
:1020F300790112279BEEFA74046F80CD7A007B007E
:10210300022D44EAFCEBFD7A017B009004B7E0F971
:102113001212E52290129D123E02120C3122C0824D
:10212300C08374EA1208AF851082851183AA82AB3B
:1021330083794B1218F17408120A657402F074095A
:10214300120A65AA82AB8379501218F17413120A2A
:102153006512458412190F7416023C5774F4120366
:1021630070EAFEEBFF7508018E828F83A3A3A3A3FE
:10217300A3A3E0544060098E828F831249CB80036E
:10218300120D0F74FE6A700374FF6B60308E828FC2
:10219300831240ED123F66120D7BE98E828F8360BE
:1021A300061221E0E480051221E07401123160FA85
:1021B300A3E0FB121915E9F509700580127509CD25
:1021C300AA098E828F831221E7E96003750800A9AB
:1021D30008EEFAEFFB120C8BA909023221E0240D61
:1021E30012389522E0240C1221F2F9120C2B22F85A
:1021F30012389AE02274F6120370E9FEEAFF7A0FAE
:102203007B001211DDEA7001EB6019740C8A828B7A
:1022130083F0EEA3A3F0EF8A828B83A3F0124194A1
:1022230079008002791002417BC082C083900471DF
:10223300E0640F7018EA7001EB601290046CE0FC2C
:1022430074086C600574046C7003122106023C5A16
:10225300F508EF3400F5092212426D640222850865
:102263008285098312378290045DE0682274F0123C
:10227300037074FD1208AF8A0A8B0BEA2402123131
:10228300378A088B09EA7001EB700302237A850A07
:1022930082850B83A3AE82AF83E064F16014E064B4
:1022A300CD600FE0641A600AE064E96005E064E170
:1022B300701E7900120C8BE96016850882850983EC
:1022C300A3A3A3A3A3A3E04420F0A3E0F002235F0E
:1022D3008E828F83E0C0E07402120A65D0E012445C
:1022E300BD1247D7122C19123F1285108285118314
:1022F300AA82AB837005120BAD8003120D638E822D
:102303008F83E064F16055E064CD6050E0641A604F
:102313004BE064E16046E064F060417402120A65D8
:10232300E0FC74B76C6035850882850983123DFE35
:10233300750C01780C1207F3ECF50C780C1207F30B
:10234300E50A240CF582E50B12268A122C45FCA320
:10235300E0FD8A828B83122C5F120837E50824097B
:10236300F582E50912225B70037406F0850E8285FF
:102373000F83E0F9120C91120C7F9012A112211A13
:10238300740302427574F5120370EAFEEBFF750ADB
:1023930000EE240912268E1223EC7003750A011233
:1023A30022617003A3E0697006E50AD2E1F50A8EA3
:1023B300828F83A3A3E0FAE50A6011EA7006E50AB7
:1023C300D2E5801EE50AD2E6F50A8003EA6015EE3F
:1023D300241DF582EF34001223F264016006E50A3E
:1023E300C2E0F50AA90A02457F12437E640222F580
:1023F30083123281F9120D69E92274F012037074A9
:10240300DB1208AFEAFEEBFFEE240412268EE06037
:102413001090129FE07002A3E0600690129F1221B9
:102423001AEE240212267C7406120A65AC82AD836E
:10243300850882850983122C3BFAA3E0FB120CEB7F
:10244300EE241BF582EF1235987413120A651241BC
:10245300857406120A65AA82AB83120C3DE98510C6
:1024630082851183F0740C120A65E0601E741D12DC
:102473000A65E0FD7407120A65E0FC123DF8790174
:102483001219BDE960030226778014900454E060BA
:102493000E851082851183E0A2E14003022677EEC8
:1024A3002412F50AEF3400F50BEE242A122253EE20
:1024B300242C122687122958E0687003A3E0697060
:1024C3001D750C00780C1207F3780C1207F3EE2439
:1024D3002E123F0FF912269B122C5F120837740934
:1024E300120A65E0FA90045AE06A600302267774E0
:1024F3000C120A65E070030225C012269B123DFEF2
:10250300120DC97401120A65123F667401120A653D
:10251300E07002A3E070030226777407120A65E0F5
:10252300F8850E82850F83E028F8A3E03400F97460
:102533000D28F582E439F583E0FA7401120A65E0A7
:1025430024031226B26A601DEAF0908050780812C4
:102553000A3E7401120A651240ED1247D3A3E50A3D
:10256300F0A3E50BF079047407120A65E0FA850E0F
:1025730082850F83E02AFCA3E034008C82F583A3D9
:10258300AA82AB83121A7D8A088B098C0A8D0B747D
:1025930001120A651226AB780C120A3E780C7908F0
:1025A3001209D05003022677908048780812091642
:1025B3007401120A651226AB7808120A2F90046C74
:1025C300E0FA74046A600874096A60030226778576
:1025D3001082851183E0A2E55055EE242E123F0FA1
:1025E300C0E07403120A65D0E0F0EE242F123F0F0F
:1025F300C0E07404120A65D0E0F0EE2430123F0FFD
:10260300C0E07405120A65D0E0F0EE242412268798
:1026130012066C7407120A65AC82AD83740A120A3F
:1026230065AA82AB83120BB374041208378045A2E8
:10263300E650417423120A6512327DFA74046A70FB
:1026430018741D120A65E0640270297406120A6583
:10265300AA82AB83120D57801B74076A7016741D10
:10266300120A65E06404700C7406120A65AA82AB50
:1026730083120D517425024275F50EEF3400F50FE8
:1026830022EE240BF582EF1241A822F508EF340065
:10269300F509850882F58322850882850983123628
:1026A300C9850A82850B8322124395A3A3A322F82B
:1026B3001221F32274F612037074F71208AF8A081A
:1026C3008B0990046CE0FA74036A600D74016A600C
:1026D3000874096A60030227968508828B83A3AE78
:1026E30082AF83E0600302277B7C007D007A027B5C
:1026F300001218C7E508240212449612359B900471
:102703005D12418579531218F7790012279B9004C3
:102713006CE06409600990046A123DFE120DC374F3
:102723000112411C740490046CF07401120A65AA2E
:1027330082AB83794A1218F17401120A65AC82AD37
:10274300837A627B041218DF90045D1236C57A0324
:102753007B001218C79004601236C57A047B0012FE
:1027630018C7900457E0A2E35004D2F08002C2F0ED
:102773001241021221178018FC7D007A037B10128C
:1027830018C78E828F83E0F912279BE490046CF0C4
:10279300120C67740902417890046A123E02120B0C
:1027A300BF22C082C08390043CE07002A3E070416A
:1027B30090046CE01206F5000301C72705D627062F
:1027C300E527F427900444E07002A3E060769004C8
:1027D30044806B900440E07002A3E0606790044083
:1027E300805C900442E07002A3E060589004428051
:1027F3004D90043CE07002A3E06009122EAEFC741D
:10280300016C702379009004B8800909EA1246BB71
:10281300EB12268A1234367001EB70EF9004B81273
:102823003DFE120BB9801D74026C7005120D998068
:10283300139004CDE07002A3E060099004CD124030
:10284300ED121A88023C5A74F412037074FB1208D6
:10285300AF8A088B091229477001EF7003022942DE
:1028630074028E828F8312458579501218F1850880
:1028730082850983A3858208858309E06003022991
:102883003090046A1249D9700374FF69602F74FE93
:1028930068700374FF696025851082851183E06881
:1028A3007003A3E069601674EA85088285098312C0
:1028B3002C717A6A7B0479501218F7807085108224
:1028C3008511831229581241857A5D7B047953124D
:1028D30018F190045D1241807A607B04794B1218E1
:1028E300F17A5F7B0479E11218F1900471E0C394EB
:1028F3000F502290045FE0C0E07402120A65D0E03A
:10290300F07404120A657401F07402120A65AA8253
:10291300AB83121909750A00780A1207F3780A12B1
:1029230007F39012C9E0F9122C5612083785088272
:10293300850983122C30F0740390046C12418B745C
:102943000502321E7A0F7B001211DD8A0A8B0BAE51
:102953000AAF0BEE2212378290046A2274F012033C
:102963007074ED1208AF8A828B83A3122C1FEA24A2
:1029730008FEEB1247ED8E828F83122C45FAA3E0FB
:10298300FB120C6D851082851183E070688E828F37
:1029930083E0C3940B405E850882850983A3A3A3C8
:1029A300A3A3A3A3A3E06402704B90046CE0FAE535
:1029B300082409F50EE50912267F74026A603B7448
:1029C300066A603690043CE07002A3E06007122EB2
:1029D300AE6401605574086A600574046A70167405
:1029E30002120A65E0F97407120A65AC82AD83121C
:1029F3003DF8120C73741302427590043CE07002AC
:102A0300A3E07026750A00780A1207F3780A120702
:102A1300F3122C1012268A122C3BFCA3E0FD85082E
:102A230082850983122C5F1208379004B81249B8C3
:102A33009004B8E0F50AA3E0F50B80378E828F830C
:102A4300E0F8A3122C3B687003A3E06970198E822F
:102A53008F83A3A3E0FAE508240DF582E509123F6D
:102A6300126A7003022AEB8E0A8F0BEE1246BBEF3B
:102A73001249B5EE7001EF70C37A187B0012124948
:102A83008A0C8B0DAE0CAF0DEE7001EF70030229B3
:102A9300F89004B8E07002A3E070059004B8800ACF
:102AA300E50A1246BBE50B12268A1249EC8E828F89
:102AB300831241ADEE240C12268774FFF0E48E825C
:102AC3008F83A3A3A3A3A3123B7DA3A3A3A3122C2E
:102AD30068E4F0A3F0E508240B1244A2122C0612BA
:102AE3004256C4122C06A3F07401120A65122C3547
:102AF300A3F07402120A65122C35F0E508240DF5D3
:102B030082E509122C2DA3F0124A1212429B240DC6
:102B1300FAEF3400FB7402120A65E06401600E747C
:102B230007120A65AC82AD831218DF80097C087D29
:102B33000079FF1211CB7412120A65E0C0E0EE2493
:102B430015122687D0E0F09012C9E0C0E0122C10D5
:102B5300123F12FAD0E0C39A40030229F8122C194B
:102B630012268AA3E05480F9E47001E97009900DFC
:102B7300EBE070030229F8EE2406F8EF1244A5FCFB
:102B8300EE240CFAEF3400FB7406120A65E0700EB3
:102B9300EC70567404120A65E070060229F8EC60C2
:102BA300147405120A65E0C0E08A828B83E0FCD0CE
:102BB300E0C39C50258508828509831245971246F8
:102BC300B5122C10123F12C0E0122684D0E0F0742C
:102BD30005120A65E08A828B83F07406120A65E0A7
:102BE3006007740188828983F07404120A65E070B7
:102BF300030229F874018E828F83A3A3A3A3A3F0F6
:102C03000229F8540F8E828F83A3A3A322E50824FD
:102C130010F582E50922E508240B80F5A3A3122C05
:102C23002522E0F508A3E0F509221241A8122D4F51
:102C3300A322122D4F024C38E0F9850E82850F83B3
:102C4300E022E0F98A828B83A3A3A3A3A3A3A3A374
:102C5300A3E02290046A1236C9900460123E021265
:102C63000D21740222A3F0EE24161241A522F07A5C
:102C73005D7B047953122C7C221218F77A607B0453
:102C8300794B1218F72274F212037074F81208AF1A
:102C93008A0A8B0B8C0C8D0D890885108285118314
:102CA300AC82AD837583807582327408120768F530
:102CB30009AC0AAD0B851082851183AA82AB8312FE
:102CC30047DF70037509019004B880158E828F83E6
:102CD300E0650C7004A3E0650D6024EE2416122653
:102CE300871249B8EE7001EF6020E50960DEAC0A97
:102CF300AD0BEE240DFAEF3400FB1247DF60DC8EE0
:102D0300828F83A3A3E0650870D1EEFAEFFB74080A
:102D1300022D4174F71203709004B8E0FAA3E08027
:102D23000CEA24161249B212124FEEFAEFFBEA70C4
:102D330001EB70ED9004B8E4F0A3F00235481208FB
:102D4300377F060205F8A3122D4FF022E0024A2135
:102D530074F2120370EAFEEBFF890B8C0C8D0D8E5F
:102D6300828F83E08C828D83123B7DAE82AF83E0C2
:102D7300123C1312315FC4123C13122E0FE05403A2
:102D83008C828D8312315DA2E2E492E08C828D838A
:102D930012315C131313541F123C13A312315CA2A0
:102DA300E7E492E08C828D83A3A3A3A3122E0F8E5C
:102DB300088F09750A0078081207EB7C087D00E587
:102DC3000C2407124790120837EE2408FEEF340054
:102DD300FF8E088F0978081207EB7C037D00E50C52
:102DE300240F124790120837E50C2412F8E50D342E
:102DF30000F9E50BC3940F400A8E828F83A3A3A32C
:102E0300E08001E488828983F0022D44A3A3123376
:102E130087A30EAF832274F412037074F91208AF00
:102E2300EAFEEBFF90043CE07002A3E06010122E78
:102E3300AE64027009EEFAEFFB120D938068900402
:102E43006AE06E7003A3E06F705C74016960097AD5
:102E53007E7B041247DF704E7A007B029004B7E05A
:102E6300F91212F1EA7001EB703C90046D780812CC
:102E73000A3E8510828511837808120A2F90047305
:102E8300E0C0E07404120A65D0E0F07405120A652C
:102E93007401F07406120A657402124585120B8FD1
:102EA300E96092120B95740702321E90043C1238AB
:102EB300A6E02274F71203708A828B83A3AE82AFDB
:102EC30083E0F9120BD78E828F83E0FA74EB6A608A
:102ED3000574E16A7002E4F012211775080178089D
:102EE3001207F38E828F83E0F50878081207F379CF
:102EF30000122C56120837120C7F02354874F61252
:102F030003709004BAE0701F7C0079017A007B00A3
:102F1300120CAFEA7001EB600E8A828B83E07002C1
:102F2300A3E06003120C2502417BC082C0831233ED
:102F33008B401079FF120CA9E9FA901F1FE493C389
:102F43009A5004790180027900023C5A74F012030A
:102F53007074FF1208AFE9851082851183F08A0A25
:102F63008B0B750900EA24081231378A0C8B0DAEDE
:102F73000CAF0D750801EE7001EF6003023013858D
:102F83000A82850B83A3A3A3A3A3A3123150850AAB
:102F930082850B83123DFE120C9D8A0C8B0DAE0CA9
:102FA300AF0DEE7001EF700302312D8E828F83A37C
:102FB300A3A3A3E4F0A3F0E50A240BFAE50B12475D
:102FC300F9C0E0122684D0E0F0120D81EE240CF556
:102FD30082EF123F63750901EE2406F8EF12339A6C
:102FE300E0547FF0A3E054FC123563E05404600323
:102FF30002309E9012A5E0F50A750B007407780A5B
:1030030012099B8A828B83E0450AF0A3E0450BF00B
:10301300EE2406FAEF1244991236C574805CF50A61
:1030230074035DF50B7407780A120A20EE2404F585
:103033000CEF3400F50DEE240912267C85108285F1
:103043001183E0605F7402850E82850F8312316005
:10305300240D1226B2A2E2500F90045812359B851C
:103063000C82850D83124185E50A70030230FC74DE
:103073007F5CFC74FC5DFD74FF250AF50A74FF3464
:1030830000F50B7407780A12099BE50A4CF8E50B67
:103093004DF98A828B83124185805EE04480F0A3E0
:1030A300E0023012E50A7005750800804CEC5420EC
:1030B30060151211D78A0A747F550AF8745F288540
:1030C3000C82850D83801BEC5410600E1211D78A7D
:1030D3000A740F550AF8740180E4850C82850D8308
:1030E3007401F0A3E4F07404850E82850F83123318
:1030F300A37001EB700312314374016509702E85CF
:103103000C82850D83123150EEFAEFFB120CA3E90A
:10311300601BEE240C1226871234367001EB600319
:1031230012124FEEFAEFFB12124F750800A9087442
:1031330001024275F50EEB124A03E0F9120CB522B7
:103143007A207B009004B7E0F912120D221236C9DF
:10315300850E82850F83E0F922A3A3A3A3123387ED
:10316300E02274F4120370750800120CB58A0A8BFE
:103173000BAE0AAF0BEE7001EF700302321A8E82B0
:103183008F83A3A3A3A3A3A3A3A3A3E064066003C2
:1031930002321A120CC78E828F83A3A3A3A3A3A305
:1031A300A3E05408F9E47001E960698E828F831209
:1031B30035587A007B00120C97EA7001EB7055903A
:1031C300046A1236C58E828F83123DFE1219217C4A
:1031D300007D007A007B0080258E828F8312354D1F
:1031E3007004A3E064FF602C90046A1236C51216C3
:1031F3004BE9641A601E7C007D00EEFAEFFB120CB3
:10320300978A088B09AE08AF09EE7001EF70CA798F
:1032130000121927750801A90880031208377F04D3
:103223000205F874F71203708A828B83E5827002B9
:10323300E58370099004BB80068A828B83A3A31263
:1032430034367001EB602C8A828B83A3A3A3A3A3E0
:10325300A3A3E05408F9E47001E960DDEC7001ED2B
:1032630060158A828B8312327D6C7003A3E06D70CC
:10327300C880047A007B0002354812328122124052
:10328300F5E02274F21203708A088B09890AECFEB6
:10329300EDFF7A0E7B00121249EA7001EB603EE407
:1032A3008A828B83A3A3A3A3A3A3A3A31232E3E5DD
:1032B3000A123563A3A31249E88A828B83A3A3A3CB
:1032C300A3E4F01232E31235611247D7EA240CF576
:1032D30082EB124BD6123562A3A3F0A3F0022D4466
:1032E3001249E0024C3A74F5120370EAFEEBFF89CF
:1032F3000A8C088D09EE7001EF605C7401650A7039
:10330300147901120CA9E9FA901F21E493C39A508E
:103313000F7911806C7404650A703612338B40F197
:103323008E828F83A3A3A3A3A3A3A3A3A3E50A12BC
:1033330033871247D38E828F83A3A3E4F0A3F09045
:1033430004BBE07002A3E09004BB602412359B80B1
:103353000A7402650A60C979C18026E82402080854
:10336300E912339A12346B7001E970EF8A828B830E
:10337300EEF0A3EF1233A37001EB70031231437924
:103383000002457FF0024A217904120CA9E9FA9060
:103393001F23E493C39A223400F9E8FAE902356A59
:1033A300F07A207B009004B7E0F91212F1EA22C010
:1033B30082C083E9FC79009004BB801D8A828B83E1
:1033C300A3A3A3A3A3A3A3A3A3E06C600574FF6CAF
:1033D3007001098A828B83A3A31234367001EB70C8
:1033E300DB023C5A74F71203708A828B83E5827086
:1033F30002E58370099004BB80068A828B83A3A3B2
:103403001234367001EB60248A828B83A3A3A3A3B7
:10341300A3A3A3A3A3E06970E1EC60148A828B8366
:10342300E0240D1246D4A2E240D080047A007B004F
:10343300023548123E02EA22C082C0839004BB8058
:10344300068A828B83A3A31234367001EB60128A3F
:10345300828B83A3A3A3A3A3A3A3A3E06970E280A6
:10346300047A007B00023C5A123782E82274F1127C
:1034730003708A0A8B0B8C0C8D0D7508007509007F
:10348300EA7001EB602E9004BB80068E828F83A3CB
:10349300A31249B8EE7001EF601AAC0CAD0DEEFA51
:1034A300EFFB850A82850B83121A88E9640170DBBE
:1034B3008E088F09AA08AB097F070205F874F71273
:1034C30003709004BB12359B7C007D008007E8FCF1
:1034D300E9FD12359BE87001E9603AE82402F582C0
:1034E300E912268AEA687002EB6970E2123DFE90E7
:1034F30004BB1249B8E86E7002E96F70099004BB0F
:10350300EAF0A3EB800EEAF8EBF98C828D83A3A398
:10351300E8F0A3E9F002354874F7120370EAFEEB12
:10352300FFEE7001EF6016120CC1123570EA7001E4
:10353300EB600312124FEEFAEFFB12124F02354803
:10354300741F1208377F010205F8123E028A828B2C
:1035530083E064FF22123281FCA3E0FD22A3A3A334
:1035630012356722F08001FB8A828B83228E828F41
:1035730083E0241C1221F2FAA3E0FB12124F8E8285
:103583008F831249C2EE240C1241A5123E0222EA95
:10359300240BF582EB1241A81237822274F0120336
:1035A3007074FC1208AFEAFEEBFF120C85E96005AC
:1035B30079110236BDEE2402F50EEF1249FF1243D4
:1035C3007A6006EE2412124BD3EE2413123F0F70CF
:1035D30003741EF0EE2411F8EF1242957019900E49
:1035E30096E0600D900454E0700D8E828F83E0703E
:1035F30006E488828983F0EE2414080808EF124455
:10360300A5700F900449E088828983F0900449E013
:1036130004F0EE12428B8E828F83E06401701712E6
:10362300268412327D6402700D850A82850B83E045
:103633004440F0A3E0F0851082851183AC82AD8312
:10364300EEFAEFFB120CDF8A088B09850E82850FD9
:10365300831236C5EA7001EB605C8E828F83E0C013
:10366300E07401120A65D0E0F07402120A6512498F
:10367300EC7401120A6585820C85830D780C1207A0
:10368300EF850A82850B83120670EE240E123F0F1C
:10369300F50A780A1207F37405120A65E0F9120CA9
:1036A300D97405120837E9FE74106E700BAA08ABC3
:1036B3000912124F80027E10EEF974040242751251
:1036C30041A51236C922E002355BC082C08374DE95
:1036D3001208AF8A828B83A3A3A3A312359B740E14
:1036E300120A65E8F0A3E9123779740C120A65121D
:1036F3003772240DF582EB123F12C0E0741A120ADE
:1037030065D0E0F01235927420120A6512377224E4
:1037130015F582EB123F12C0E07408120A65D0E07F
:10372300F0EA241C1235957412120A65124185744D
:10373300FF851082851183F07401120A6574FFF00E
:103743007402120A6574FFF090805012066C7404C0
:10375300120A65AC82AD837407120A65AA82AB8331
:10376300120BB3740412083779007422023C57E831
:10377300F0A3E9F0EA22123567A3A312378222E00D
:10378300F8A3E0F92274F012037074EE1208AF7418
:1037930010120A65123F668C088D09890B74221278
:1037A3000A65E0F50C7423120A651249B8742512F0
:1037B3000A65E0F50EA3E0F50F750A107A1E7B008B
:1037C3001212497402120A651249D1120A65E07095
:1037D30002A3E0700302388A851082851183AA82CE
:1037E300AB837950123E23120A651238A0A3124903
:1037F300D1120A65E0240B1238917402F0120A65A3
:103803001238A07402F0120A651240ED1247D77401
:1038130002120A651244AEE50BF07402120A65E067
:10382300240C123891E50CF07410120A65123E2C28
:10383300120A65E0241C123891123F667408120ABA
:10384300651249EC740A120A65E50CF0850E82854F
:103853000F83C082C083740D120A65AC82AD83D01E
:1038630083D0827403120768F97402120A65AA826C
:10387300AB83120C8BE964017005750A0080087430
:1038830002120A651249BEA90A741202427512385D
:103893009522F812389A22A3E0124CA2221238A6DB
:1038A300A3A322124399024C3A74F0120370EAFE66
:1038B300EBFF8C088D0974088E828F83122C68E0CD
:1038C300600874108E828F83A3F0EE2417123F0FCB
:1038D30060098E828F83A3E02408F0123F0C6005F9
:1038E300750E0E8003750E008E828F83A3E0C0E0F9
:1038F300EE240D122687D0E0FAE02A250E8C828D65
:1039030083F0123F0C6013900455E0F912122BE977
:10391300FA850882850983E02AF085088285098370
:10392300E0FAC394754003023A007B001212498AFD
:103933000C8B0DEA7001EB7003023A06EEFAEFFB13
:10394300120CE5EA850C82850D83123F67EE240293
:10395300F8123A0D123A1FF0EE24040808123A0D39
:10396300A3A3123A1FA3A312419D123A18F0EE2407
:1039730014122687123A18A3F0750808EE241612BB
:103983003F0F6010EE24181236C2E50C24081247CC
:1039930086750810EE2417123F0F600DEE241A12DD
:1039A30036C2E50C25081247861226841247A51253
:1039B30007EBEE240D123F0FFC7D008E828F83A355
:1039C300E0F8E50C28F8E50D3400F9E50E28FAE4F3
:1039D30039124799120837123F0C6027EE240D1253
:1039E3003F0FFD8E828F83A3E0FCAA0CAB0D790001
:1039F3001219BDE9600DAA0CAB0D12124F750C0024
:103A0300750D00AA0CAB0D024278EF1244A9850C88
:103A130082850D8322123A26A3A3A322123A3112DE
:103A23003A2622E0850C82850D83A3A3A322A3A3B8
:103A330012425BA32274F61203708A828B83E0FC2A
:103A430090045A123AC17402780812099BE5084C93
:103A5300FCAD09EA2412123ABB7406780812099BDA
:103A6300E5084CFCE5094DFDEA2411123ABB740943
:103A7300780812099BE5094DFDEA2416123ABB7436
:103A83000B780812099BE5094DFDEA2417123ABB8E
:103A9300740C780812099BE5094DFD8A828B83A378
:103AA300A3A3A3A3A3123AC1740A780812099BEC37
:103AB300FAE5094DFB02417BF582EB1241A8E0F5E3
:103AC300087509002274F41203708A088B09ECFE4E
:103AD300EDFFE98E828F83F0123D85C0E0EE241165
:103AE300122687D0E0123D7FC0E0EE241212268713
:103AF300D0E0123B7DA882A983123D4A6010E508FD
:103B03002408FAE5093400FBEE2413123B828E826B
:103B13008F83A3A3A3A3A3A3A3A3E0601588828990
:103B230083E0FAE5082AFAE5093400FBEE241512CE
:103B33003B8288828983E0FA8A0AE508250A123DD6
:103B43003B8C828D8312429B24171222538E828FC9
:103B530083E0C39A850882850983124C2CE06017A1
:103B6300850882850983E024F2F0123D638508828B
:103B7300850983E0C39AF0023221123387A322120C
:103B830041A5EAF0A3EB12425BE02408F02274F4AF
:103B93001203708A088B09EA123C0AF0EA131354E1
:103BA3003F123C13A3A3A3F0EAC41313123C0AA3CA
:103BB300A3F0E48C828D83A3A3A3A3A3F08A0A8B2F
:103BC3000B7409780A120A20E50A123C01F0EC246E
:103BD30018F582ED124BD68A0A8B0B740B780A12F6
:103BE3000A20E50A123BFCF0740C7808120A20E55F
:103BF30008123BFCA3F0023221123C01A322540120
:103C03008C828D83024C3954038C828D83A3A3222F
:103C1300540F8C828D8322C082C083790090045418
:103C23001245A2A3A3A3E0600FEC70268A828B83C4
:103C3300A3A3E0701D09801AEC60178A828B83A30B
:103C4300A3A3A3A3A3A3A3A312490C7003A3E06B91
:103C530070E38003120837D083D08202053F74F1EA
:103C63001203708A088B09890EECFEEDFF123D8565
:103C7300C0E0EE2411122687D0E0123D7FC0E0EEB3
:103C83002412122687D0E0123B7D85820A85830B9E
:103C9300123D4A6010E5082408F8E5093400F9EEFE
:103CA3002413123D528E828F83A3A3A3A3A3A3A3A2
:103CB300A3E06017850A82850B83E0F8E50828F8FE
:103CC300E5093400F9EE2415123D52EEFAEFFB122A
:103CD3000CF7E9FA705D850A82850B83E0FB8B0C98
:103CE300E508250C123D3B8E828F83A3A3A3A3A3D8
:103CF300A3E070188C828D83124185E50EC39BC0AF
:103D0300E0EE2417122687D0E0F08027123D63856A
:103D13000A82850B83E0FCE50EC39C24F2C39AFD63
:103D2300EE2417122687EDF0AA08AB0979011219C0
:103D3300BDE9FAEAF90234BBF8E5093400F9EE24E7
:103D43001DFCEF3400FD227408124C30A3E0221254
:103D530041A5E8F0A3E9F0850A82850B83023B8C39
:103D6300E8240EF8E93400F98C828D83E8F0A3E9A6
:103D7300F0900455E0F912122BE9FA2212427D0267
:103D83002C518A828B83123E02120CF185088285A4
:103D93000983A3A3123DC4E0F9EA8E828F83A3A310
:103DA300A3A3A3A3A3A3A3123DD0123DC4A3A3E043
:103DB300F9EAF8EE240B1241A5E8123DD0A3A3E0E3
:103DC30022E0FA850882850983A3A3A322F0A3E94D
:103DD30012428122C082C0837AC07B0479E2121826
:103DE300F17AC07B04023C5AC082C08390045D1206
:103DF3003DFE023C5A850E82850F83123E0222E06D
:103E0300FAA3E0FB22C082C08374FE1208AF8510C0
:103E130082851183AA82AB83794B123E23023C57DE
:103E23001218F1851082851183123E02740222C09A
:103E330082C083794A1218F1023C5A74F612037055
:103E43009004C8E0FE04F0EEF9120CB5EA7001EB41
:103E530070EEEE60EBF902417B74F0120370EAFE40
:103E6300EBFF8C0E8D0F89087410120A65E0F50DB7
:103E73007411120A65E0F50C750900120DC98A0A5E
:103E83008B0BA80AA90BE87001E97013E50C7058B5
:103E9300A908AC0EAD0FEEFAEFFB120DCF8067E56C
:103EA30008601AE82402F582E9123F12FAE5082AAB
:103EB300FAE4340013EA13F070037401F0E50C60C4
:103EC30045E50D701088828983E0600214F0E49068
:103ED30004CFF080319004CFE004F0FA9012A6E012
:103EE3006A70237509018003E4601BE509601712FA
:103EF3000D0FEA6E7002EB6F700CEEFAEFFB7901B7
:103F0300120BD1123F16024278EE2411F582EF1202
:103F1300426D227A017B009004B7E0F91212EB2282
:103F2300C082C08374016A7001EB70077A01123199
:103F330045801490129D123F66EA7001EB600512F2
:103F430021068003123F16023C5AC082C08390129E
:103F53009F123F66023C5AC082C0839012A180F137
:103F63001241A8EAF0A3EBF02274F612037075086D
:103F73004975090478081207EF7C6E7D007A217B6E
:103F8300001212AF7402120837E9F508120AA5E904
:103F93004208900434E07002A3E0600C90043412F1
:103FA30040ED121A88E94208121951E94208121524
:103FB30013E94208A90802417B74F6120370121830
:103FC300C175084975090478081207EF75086E75FD
:103FD300090078081207EF7C007D007A217B00122C
:103FE30012BB7404120837120AAB900436E0700255
:103FF300A3E060099004361240ED121A8812194B9F
:1040030002417B74F612037074FF1208AF7E0075D1
:10401300084975090478081207EF7C6E7D007A2140
:104023007B001212AF7402120837E960030240CD1D
:1040330078081207EF75086E8E0978081207EF7C6F
:10404300007D007A217B001212C17404120837E943
:10405300707890045DE064FE7004A3E064FF606A1E
:104063000E90046CE0FA74086A600574046A705672
:10407300EE12411C7A747B0479431218F77A717B30
:104083000479471218F77A627B04794A122C7C7AF6
:104093006A7B0479501218F77A5D7B0479531218FE
:1040A300F77A727B0479541218F77A5F7B0479E10B
:1040B3001218F7900457E0A2E35004D2F08002C232
:1040C300F012410280041218C11E120AB190043882
:1040D300E07002A3E060099004381240ED121A88E0
:1040E3001211D1EEF974010241781240F12212400B
:1040F300F5221240F922E0F8A3E0F583888222A298
:10410300F0E492E012411079521218F722851082DE
:10411300851183F0AA82AB832212411079421218CF
:10412300F72274F6120370E9FEA2E05026750849DF
:1041330075090478081207EF75086E750900780889
:104143001207EF7C007D007A217B001212BB7404FE
:10415300120837EEA2E35003120AB7EEA2E250139D
:1041630090043AE07002A3E0600990043A1240ED33
:10417300121A8880031208377F020205F8124A1CBC
:10418300A3A3E8F0A3E9F022F012419022EEFAEFA4
:10419300FB9004B7E0F91211E922F0EE2413124167
:1041A300A522F582EF3400F58322A3A3A3A3A3A33F
:1041B300A3A3A374FEF0A374FFF02274F41203709C
:1041C3008A088B097A007B04123F1A12424C12416F
:1041D30085740990046CF0120D038A0A8B0BAC0AE8
:1041E300AD0BE5082413F582E50912268A123DFE7C
:1041F3001247DF6401704F1229477001EF60477463
:10420300028E828F83F0E508241DF8E509124C9E87
:10421300123DFE8A828B83A31245A7E0FBEC8E82BC
:104223008F83A3A3F0A3EB124256F8A3E0F5838890
:1042330082A3A3A3122D4F12425FFAA3E0FB794A94
:104243001218F712419002322190043E12378290E5
:1042530012A12212425BE022F0024A0DA3F0E5080C
:104263002415F582E50912426D223400F583E0221C
:1042730074021208377F080205F812428122F08582
:104283000882850983024C3B240FF50AEF3400F5BD
:104293000B221244A9640122E8F0A3E9F0EE227490
:1042A300F412037074F31208AFEAFEEBFF7C0D7D8A
:1042B300007900851082851183AA82AB831211CB0A
:1042C300EE124388F854206008740C120A657401D6
:1042D300F0E854806008740B120A657401F0E85426
:1042E30040600A740A120A657401F0800A740A12A3
:1042F3000A65E064017005EE24138003EE241512B1
:1043030036C27402120A65AA82AB831218DFEE2446
:104313000B12268E124427124185740A120A65E095
:104323006401703412436D703C120D0F8A0A8B0BBB
:10433300A80AA90B850882850983E0687003A3E0B6
:10434300697022120D03EAFCEBFD7402120A65AADE
:1043530082AB831247DF600D851082851183AA82A9
:10436300AB83120BCB740D02321E8E828F83A3A3F9
:10437300A3A3A3A3A3A3A312437E22E0FAA3E0FB78
:10438300120D7BE922241DF582EF1241A8124395F9
:10439300E022124399221240F9A32274F612037009
:1043A30074F31208AF8A088B09ECFEEDFF7C0D7DD8
:1043B300007900851082851183AA82AB83124B5743
:1043C300A3A3A3A3A3A3A3A3A312442712429B12B1
:1043D3004388FAA2E55008740B120A657401F0EAE7
:1043E300A2E75008740A120A657401F0EAA2E6EE25
:1043F30050042413800224151236C27402120A6573
:10440300AA82AB831218DF850882850983A3A3E000
:10441300C0E0740C120A65D0E0124585120BC57416
:104423000D0241781237828510828511832274F739
:1044330012037074E11208AFEAFEEBFF8E828F83E2
:104443001245B0EA2406F8EB1244A5A2E050415409
:10445300FEF0A3E01244B58A828B831244AE124766
:10446300A0E0241CFAA3E0124499123DFE120CFDB5
:10447300E9701D741D120A6512327D640470118582
:104483001082851183AC82AD83EEFAEFFB120D5DD2
:10449300023543FAE50912449D22340002356AF8D5
:1044A300E5091244A922124CA2E022E0241B12388F
:1044B30095221244BDAC82AD8322F002442AE9FA6C
:1044C300790074046A600A740A6A600574036A7086
:1044D300010902053F74F612037074208A828B83EC
:1044E300F07401A3A3F0120B83EA7001EB6007746D
:1044F300018A828B83F002417BC082C08374019066
:1045030004BDF0E9A2E350037403F0E9A2E150040F
:10451300E0D2E2F0023C5A74F612037079007C0098
:104523008A088B097808120573F8FF074D454B4538
:104533004B454B454B45444548454D4541450C800E
:10454300097C0480050C80F67C089004BDE05C6067
:1045530003098003EC60010902417B74F6120370C6
:104563008A828B83E0700EA31234367001EB6005F0
:104573001219F380047A007B0002417B7F0302055A
:10458300F8E41245892212458D22F08510828511A7
:10459300830241171236C98E828F83A3024C3712CE
:1045A30045A7A322E0FC8A828B83A3A3221237822E
:1045B300E8FAE9FB2274F012037074F31208AF7483
:1045C30003120A651246B58A0E8B0F890B741D12EE
:1045D3000A65E0F50A7E01EE120A65740AF0E970D5
:1045E30007E50AC333240AF0851082851183AA8262
:1045F300AB83120D6F8A088B09EA7001EB7003021B
:1046030046AE1249AF74091247C6450A1247BD1296
:104613000A651247B3E50B70307A008026EAC3338C
:10462300F8E433F9741E120A65E028F8A3E039F9B7
:10463300888289831246CA88828983122D49A30EF0
:10464300AF830AEAC3950A40D4E5082417F582E547
:10465300091246C0E508241AF582E509123F63747E
:1046630005120A65AC82AD83AA0EAB0F120AC9E923
:104673006021E5081246BBE5091249F27405120AE6
:1046830065A882A983E5082418F582E50912268A1C
:10469300124185850882850983A3A3E50EF0A3E56E
:1046A3000FF0AA08AB09120B7DE9FEEEF9740D02B7
:1046B3004275ECF0A3EDF0222416F582221241A8F4
:1046C3007401F0120D0322122D4FF0A3AE82AF83BB
:1046D30022FEA3E03400FF8E828F83E02274F01267
:1046E300037074FE1208AF851082851183123F6632
:1046F30089098C0E8D0F7412120A65E0F508900E6D
:1047030008E07002A3E06078E508C333FEE433FFFA
:10471300740E2EFAE43FFB1211DD8A0C8B0DEA7046
:1047230001EB605C74D48A828B831247AEF8A312C8
:1047330047A01241838A828B83A3A3A3A3E509F035
:10474300AC0EAD0FEA2405FAEB124789E50C240DF4
:10475300F582E50D12268AE508F07413120A651234
:1047630047A51207EBEEFCEFFDE50C240E12479074
:10477300120837AA0CAB0D900E081240ED121A88DE
:10478300024273FAE50D3400FB1218DF22FAE50D3D
:10479300340012479922FB1211BF740322E0F9027D
:1047A300356B122C25750A007808221244BDE022CD
:1047B3001249A51247E43400FF22F0A3AE82AF836F
:1047C3007403228E828F83F0A3E50BC43354E0225B
:1047D300A3A3A3A3E508F0A3E509F0221218D9E9DE
:1047E300221218DFEE2408FEEF223400FF85108228
:1047F3008511830244B812449DE02274F6120370BB
:10480300EAFEEBFF9004BE801388828983E06E701A
:1048130003A3E06F603B88828983A3A312346B7088
:1048230001E970E57A047B001212498A088B09A812
:1048330008A909E87001E96018888289831249ECA4
:104843009004BE124857A3A3123F669004BE1241C0
:104853008502417B123E02024A0D74F41203707EFC
:10486300009004BE80070E88828983A3A312346B51
:104873007001E970F1EEC333FAE433FB12490370BC
:1048830001EB60767F009004BE80228882898312C8
:1048930036C5EFC333FAE433FBE5082AF582E509AD
:1048A3003BF5831246B50F88828983A3A312346B29
:1048B3007001E970D69004B212490C7003A3E06B47
:1048C300780870161207EFEEF50A780A1207F37CE0
:1048D3007E7D047900120D8D80141207EFEEF50A28
:1048E300780A1207F37C7E7D047900120D87740326
:1048F300120837AA08AB0912124F120B9502322184
:104903001212498A088B09EA22123E0290045DE0E2
:104913006A22C082C08380128A828B83A3A312354A
:104923009B9004BE12418512124F9004BE1234367E
:104933007001EB70E3023C5A74F612037090046A40
:104943001249B89004C91229581241857AC97B04C7
:1049530079501218F79004C91249A1120DD5900489
:10496300C91249B8900E0AE07002A3E0602D7A06DE
:104973007B001211DDEA7001EB602074D58A828B13
:1049830083F0E4A3A3F074018A828B83123560124F
:1049930049E8900E0A1240ED121A8802417B12492F
:1049A300A522E0FCA3E0FDEEFAEFFB22EA240BF5DF
:1049B30082EB1241A8E0FEA3E0FF221249C222E0EB
:1049C300FAA3E0FB12124F22123281023E03EAF0F5
:1049D300A3EBF074022212378274FF6822A312350C
:1049E30067A3A3A322A3A3A3A3EEF0A3EFF0221232
:1049F30041A87401F02208E93400F922124A032283
:104A03003400F50F850E82F58322888289832285FF
:104A13000E82850F83124A1C22E0F8A3E0F98E82EE
:104A23008F8322F0EE240F1241A52274F712037034
:104A33007E008008EE124B9B120DBD0E901F22E4E8
:104A430093FAEEC39A40ED02354874F7120370EA05
:104A5300FEEBFF780079008003124B2B124ABC5007
:104A630042E8FAE9FBEA75F017A4FA85F00875F055
:104A730017EBA42508124AAD6E7003A3E06F70D93B
:104A83008A828B83A3A3A3A3A3A3A3A3A3A3E06C5F
:104A93007003A3E06D601074FF6C700374FF6D709E
:104AA300B880047A007B00023548FBEA2480FAEBE5
:104AB3003411FB8A828B83E022901F22E493FAC392
:104AC300E89AE994002274F61203707CFF7DFF7A62
:104AD300FE7BFF124BC67001E970467A007B0080B3
:104AE30032EAFCEBFDEC75F017A4FCAEF075F017A1
:104AF300EDA42EFDEC2480FCED3411FDEC240FF528
:104B030082ED123F127004ECF8EDF9EA24010AEB8E
:104B13003400FB901F22E493FCC3EA9CEB94004017
:104B2300C0E8FAE9FB02417BE824010249F974F782
:104B3300120370EAFEEBFFEE7001EF600E124B51B1
:104B43001241B68E828F83A31241AD0235487C1782
:104B53007D0079001211CB024A2174F7120370EA27
:104B6300FEEBFF7508008021E508124B9B8A828BC0
:104B730083A3A3A3A3A3A3A3A3A3A3E06E7003A3ED
:104B8300E06F6003120DBD0508901F22E493FAE560
:104B930008C39A40D302354875F017A42480FAE578
:104BA300F03411FB2274F6120370124BC67001E944
:104BB300600AE8240DFAE93400FB80047A007B00E4
:104BC30002417B120DB18A088B09A808A909E822C2
:104BD300F582EF1241A8E4F02274F01203708A0EFA
:104BE3008B0F8C0A8D0B8908124C1F7001EF602903
:104BF300124B51E50EF0A3E50F124C2CA3A3A3A374
:104C0300E50AF0A3E50B124A26E50870027401F0E9
:104C1300EE240E122687124C40024278120DB78AF8
:104C23000C8B0DAE0CAF0DEE22124C3022F08E82A7
:104C33008F838002A3A3A3A3A3A3A3A3227401F03E
:104C4300EE240D1241A57402F02274F51203708A4A
:104C5300088B09ECFEEDFF750A00800DEE6C700207
:104C6300EF6D6003120DBD050A901F22E493FAE570
:104C73000AC39A5021E50A124B9BEA240A124C9C60
:104C83001236C5E5086C7003E5096D70CF8882891B
:104C9300831249EC80D102457FF8EB124CA22234F7
:104CA30000F9024A0DC082C08374F81208AF851060
:104CB30082851183AC82AD8375838075822A7408E3
:104CC300120768851082851183AC82AD831247DF9A
:104CD300640170047900800279017408023C57F57D
:104CE30082EB12692FA2E222E0F508750900750A2A
:104CF30000750B002274091208377F040205F812AD
:104D0300692FA2E5221273DBE822EE2412FAEF34B4
:104D130000FB120F49E9227905120F55740222E0B4
:104D2300FAA3E0F9EA2274021208377F060205F8B3
:104D330012103F9005471273DB7A147B0022340074
:104D4300025FDEE024FFF8A3E034FFF922888289C2
:104D53008322125601120837024D8A12572EE4F0AD
:104D630022E08E828F83124D6D22F0124D7222EE5D
:104D730024FF1EEF34FFFF22A3A3E0FCA3E0FD22E8
:104D8300EEFAEFFB12102D7F080205F87AD07B04B0
:104D9300121201740222A2AFE492E0FAC2AF9004AD
:104DA300D7E004F0EAA2E092AF22AA82AB83121802
:104DB300DF8E828F83A3A31253B1E022120837023E
:104DC3005860EE240EF582EF12572E22EE240DF5D5
:104DD30082EF12692F640122E0FEA3E0FFEE227F3F
:104DE300070205F8FAEF3400FB79E1120FD3221220
:104DF3004DF622125961A3A3A3A3A322EE2412FC0E
:104E0300EF3400FD22C082C083800A7AD07B041273
:104E130011FB1211E39004D0E07002A3E070EC9058
:104E230004D2E07002A3E0600C7AD27B041211FB7F
:104E33001211E380EA9004D0E4F0A3F09004D6F0DA
:104E43009004D7F09004D88003F0A3E0F00254D884
:104E530074F41203708908E924D9F582E4341EF549
:104E630083E493FEFA7B001211DDEA7001EB600F1D
:104E7300126719E48A828B83A3A3A3A3F080297A00
:104E8300027B001211DDEA7001EB6018E50824C310
:104E9300F582E4341EF583E4938A828B83F0741ADB
:104EA300A31251D67A007B00024CFDC00874062978
:104EB300FBEAA2E0501EEB75F00A84AAF0EA601444
:104EC300740A2BC39AFBEAC394054004740A2BFBB0
:104ED300740B2BFBE9C39413400478148002780607
:104EE300E82BFB8B0874092508F8E43400F97A0AE7
:104EF3007B0012021FE8F9D00802053FC082C0837D
:104F03009004F4E05402600A121933E96004790151
:104F1300800279000254D8C082C0839004F4E05424
:104F23000260199004D6E0700F9004D9E07002A3D8
:104F3300E06009124F445004790180027900025461
:104F4300D89004D9E024101253C9A2E722C082C02A
:104F5300839004D8E0C0E090803CE0FCD0E0C39CA8
:104F630050051211DD80047A007B000254D8C08200
:104F7300C0831211E30254D874F6120370EAFEEBF5
:104F8300FF8E828F83A3A3A3A3A3E012063600039D
:104F930070509D4FEF4F70500050900527E0640F05
:104FA3006013120F13E9700DEEFAEFFB90125E120D
:104FB30053AD121A8890054FE08E828F83A3A3A36B
:104FC300A3A3A3F074148E828F83F0EEFCEFFD7A1B
:104FD300D27B041211F5A2AFE492E0FAC2AF9004BF
:104FE300D8124DA47920120F01025B3E120F0DE976
:104FF3006007740D12508580F0741580C98E828FFE
:1050030083A3A3A3A3E060658E828F83A3A3A3A33B
:1050130014F0EE2402EF34000A0AFB8A828B831217
:105023004D08FCE9FD8C828D83E0F508EE2405F83C
:10503300EF12507AE508126CE6A882A9838A828B64
:1050430083126729E50860258E828F83A3A3A3A318
:10505300A3E0C3940A5016EE240512507E240A8E50
:10506300828F83F088828983E004024FCDEEFAEFCA
:10507300FB1211E3024FEC1265A122F8EF1265A1B6
:10508300E0228E828F8312544512192D22C082C0D2
:10509300839004DBE07002A3E0600B9004DB125307
:1050A300AD121A88800279000254D874F712037083
:1050B300EAFEEBFFEE240D124DC87401F0EE242F2F
:1050C300125117C0E0124DC5D0E0F0EE243012515A
:1050D30017C0E0EE2412124DC8D0E01265C4C0E040
:1050E300EE2413124DC8D0E0F0EE242B124DC8125B
:1050F3000670EE2422FCEF3400FDEE242D1251172E
:10510300F91256FF120837E97007EEFAEFFB120E99
:1051130047025860F582EF12692F22C082C08312C2
:105123000F13E960047920800279010254D8C08208
:10513300C083EA126253E0D2E0024E4FC082C083C2
:1051430012624C124DD570111251CB400C8A828BD6
:1051530083A3E0F9120F07806CEA12623BEB125152
:105163001AA2E650128A828B83A3E0F9901260128E
:1051730053AD121A88804E12624C124DD57009122B
:1051830051CB5004743080368A828B83A3E0641B36
:105193007004742280288A828B83A3E0700F1262CA
:1051A3004C12511A24CEF582E4341E800D12624C47
:1051B30012511A24C3F582E4341EF583E4938A82E0
:1051C3008B831251D60254D8EA12623BEB12692F39
:1051D300A2E322F09004F1E0F91211E922C082C0A7
:1051E300839004D9E07002A3E06043E97006125291
:1051F300A3E4801A741B6970389004D9E0240DFA73
:10520300A3E0124D41E0640570E41252A3E9125287
:10521300AC120E359004D9E0240E124F4A500312FB
:1052230069D99004D9E4F0A3F07910120F01025464
:10523300D874E96970499004D912658FE09004D954
:105243006036E0240E18181812529FA2E29004D977
:10525300E0400F241108080812529F14F012188B13
:1052630080CC240F0812529FC2E71252AC90125CFA
:105273001253AD121A88809C1252A674E9808F745F
:105283001C6970869004D91258079012661253ADA8
:10529300121A889004D9E4F0A3F080921253CA2220
:1052A3009004D9E01253B2A322F09004D912580B00
:1052B3002274F4120370750A00750B00A2AFE49216
:1052C300E0FEC2AF9004D9E07002A3E06008EEA252
:1052D300E092AF02538D9012641253AD121A88E913
:1052E3004410FA9004D0801285080A85090BE5085A
:1052F30024FBF582E50934FFF5831253A0E508701A
:1053030002E50960C91253955A6A70DC780A1207DC
:10531300EFAC08AD09124D8F1208379004D9E50898
:10532300F0A3E509F0124F4440639004D7E014F072
:10533300EEA2E092AF9004D9E0240E1818A3E03453
:1053430000F9E8FEE9FF8E828F83E0FA1253BAF97F
:10535300120DF9E99004D4F0A3E4126268E0A2E725
:1053630050189004D9E024121253A812178F9004F6
:10537300D9E024131253A81217839004D91253C2ED
:10538300A2E1B3E492E0F9121873024CFD9004D643
:10539300809BE50812631BE50912692F22E0F508DB
:1053A300A3E0F509221253C9F9221253B122E0F8FE
:1053B300A3E0F5838882229004D9125A8DE022E07B
:1053C300240F1253C922F812659BE02274F71203CB
:1053D30070EAFEEBFF120F37EE12623BEF1251D071
:1053E300400A124DCF700590803A800390803BE0D5
:1053F300F9EEFCEFFD7AD07B04121207E9602FEE81
:10540300FAEFFB9012621253AD121A88EE240EF5D6
:1054130082EF124CE54008124D99120E418014EEB2
:10542300FAEFFB90125A1253AD121A88800574F1E9
:105433001254390258608E828F83A3125445120E80
:105443003522F0EEFAEFFB22C082C083120E410236
:1054530054D874F7120370EAFEEBFF75080090044A
:10546300F4E05402700EEE242FF582EF124CE55057
:10547300037508E89004F4E05460700DEE242F12D5
:105483005117A2E150037508E88E828F83A3A3A36B
:10549300A3E0C3947540037508E8EE242D12511759
:1054A300701AEE242A12511770127508F5120F376D
:1054B300A908EEFAEFFB120F07025860E50870ED3A
:1054C300120E2380F4C082C083740D8A828B83F012
:1054D30012192D8000D083D08202053FC082C08381
:1054E300E48A828B83F0A3F0EA242F124CE2401863
:1054F3009004D7E0C0E090803AE0FCD0E0C39C4049
:105503001879F1120F0780CD9004D6E0C0E09080A7
:105513003AE0FCD0E0C39C50E81251D780E874F421
:10552300120370E9FFEA240EF582E4341FF583E4E5
:1055330093244AFE8F0A250AFAE43400FB1211DD94
:10554300EA7001EB600FEF8A828B83A3A3A3A3F01E
:1055530012671980047A007B00024CFDC082C0836D
:10556300E49004EFF09004F0F09004E31255867495
:10557300029004E5F09004EC12558674019004EE59
:10558300024E4F7401F0A3740FF022C082C08374E3
:10559300F11208AF7402851082851183F074011231
:1055A3000A65E9F060047AFF7BFF7402120A65EA78
:1055B300F0A3EB1271BF740F80027411120837024B
:1055C30054D8C082C08374FE1208AF740A85108257
:1055D300851183F07401120A651271BE740280DCB6
:1055E30074F0120370126F4A120A3E7808790C1293
:1055F300028078081207E77AE67B04024D55121001
:105603003374042274F412037074CE1208AF90053D
:1056130027E0640F6007742E125F6880237ADD7BB6
:1056230004124D3312022788088909750A00750B85
:105633000078081207E77ADD7B0412560112083757
:105643007432024CFA74F7120370EAFEEBFF7A002D
:1056530012571A6007E0640360027AE8EE24171217
:105663005117C3940B4028E0C3941D5022EA7021C4
:10567300EE2417124DE7EE242212570512571A7023
:1056830026EE24191273D1900536126729802B7ADE
:10569300E8EA8E828F83A3F074178E828F83F0EEF5
:1056A300FA120F1902586090053674FEF0A374FFC6
:1056B300F0EE24191257101218DF9004EFE04401A2
:1056C300C0E0124DC5D0E0125723740212637C244C
:1056D300241263682422124DC8120670EE2419FCAA
:1056E300EF3400FD79831A1A1256FD120837E97058
:1056F300B3EEFAEFFB120E4780AAEFFB120F4F74C3
:105703000222FAEF3400FB7950120FD322FCEF345C
:1057130000FD7A2D7B0522EE242112692C640222DE
:10572300F0EE240D12572B22F582EF3400F583227D
:10573300C082C08374F71208AF9004F0E070327433
:1057430001F0F912183D851082851183AA82AB837B
:10575300120F3D90053C1206709004EFE04401FBEC
:105763007402120A65AC82AD837A03124D1A1208D1
:105773003774090255BF74F7120370125945700448
:1057830074EBA3F09004F0E0A2E25003C2E2F0E075
:10579300A2E150051259568005742A126EC00258B0
:1057A3006074F712037074FE1208AF125865125A30
:1057B30075851082851183125A97E0F50870178555
:1057C3001082851183AA82AB837953120FD3EE24FF
:1057D30012FAEF127120851082851183125807A9DE
:1057E30008120E719004F0E0A2E1500A8E828F83BA
:1057F300A3E0F9120E77E49004EFF09004F0F07454
:1058030002024DBF12580B22E0FAA3E0FB2274F709
:10581300120370EAFEEBFF74EB8E828F83A3F0908A
:1058230004F0E0A2E1500579EB120E77EEFAEFFBFC
:10583300120EA7802874F7120370125865E49004BF
:10584300EFF09004F0F07AFF7BFF8E828F83A3E06A
:10585300F9120E718007EEFAEFFB120F9D7F010222
:1058630005F8EAFEEBFF79011218437ADD7B041297
:10587300103F7AE67B0412103F2274F7120370EA9A
:10588300FEEBFF120EA180CE74F7120370EAFEEB5B
:10589300FF79011218438E828F83A3A3A3A3E06031
:1058A300047A0080027AEB1258D65003C2E2F0E089
:1058B300A2E150051259568011A2E0500D742A8EB0
:1058C300828F83F074EBA3126EC4EEFAEFFB120E19
:1058D30059808AEA8E828F83A3F09004F0E0A2E2DB
:1058E3002274F7120370EAFEEBFF9004F0E0D2E1BA
:1058F300F0790112183DEE240B124DC8120670EE1A
:105903002402EF3400FF0E0E7401C0E0120F43E9CE
:10591300FAD0E0FBEEFCEFFD124D1A024DBF74F717
:10592300120370125945700474EBA3F09004F0E075
:10593300A2E25003C2E2F0E0A2E150031259560280
:105943005860EAFEEBFF79011218438E828F83E0E1
:10595300642022C2E1125961E0F9120E7722F08E1F
:10596300828F83A32274F7120370EAFEEBFF79019F
:105973001218437ADD7B0412731EE060047A008000
:10598300027AEB1258D65003C2E2F0E0A2E15003D0
:105993001259560258CD74F7120370EAFEEBFF79E1
:1059A3000112184374EB1258D75003C2E2F0E0A27D
:1059B300E1500312595602586074F71203701259DA
:1059C300D202585974F71203701259D2025860EA7E
:1059D300FEEBFF7ADD7B0412103FEEFAEFFB120EB3
:1059E300CB2274F712037074EF1208AFEAFEEBFFD9
:1059F300EE24121257101218CDE9605C7409851059
:105A030082851183F07401120A6574EFF0125A75DE
:105A1300F87402120A65E8125A97A3A3E0C0E0746F
:105A230004120A65D0E0126268A3A3A3A3E064088A
:105A330070158E828F83A3A3125A86E0C0E074058B
:105A4300120A65D0E080067405120A65E41265CC7B
:105A53007406120A65125A607411024DBFAA82AB12
:105A630083120F67851082851183AA82AB83121973
:105A73002D221263851273DB88828983E0FCA3E005
:105A8300F9EC22125A8DA3A3A322125A9122127265
:105A9300A8A3A322F0A3E91262481272A422C0822F
:105AA300C083120FA90254D8C082C0839005117419
:105AB30013F0A3741EF09005137404F0A3741FF085
:105AC30090126A74CCF0A3741CF090126C7408F0FA
:105AD300A3741CF09004FD746BF0A3740EF0900497
:105AE300F4E04401024E4CC082C083EAFCEBFDEAC1
:105AF30024161269527902120F250254D8C082C0AB
:105B03008379060269F074F61203709004F2E07070
:105B130002A3E06003125B439004F2E4F0A3F0906D
