:020000040000FA
:06000000020A0B0201C917
:03002B000209A91E
:0300330002075869
:030043000208555B
:03004B000206D4D6
:0300530002011B8C
:03005B000206E3B7
:030063000206EFA3
:03006B0002073E4B
:10008300020165010101010503010F10FEFF0300D9
:100093000300030003000300030003000300030045
:1000A30005000A00140028004F009E0000006C1198
:1000B3006C116C116C112E1028106C111B1E00009A
:1000C3000000411F000000000C0000000C000100B4
:1000D30000BC120000000000004C130000000000F0
:1000E300000000D105FF01020017120000008A1270
:1000F30064000202000800000501071E02051E023B
:100103000A03B80B606D01FFFF020206060606062E
:100113000014141414140006C0E074F21203D5E59D
:10012300A7FAE5A1FBEA5B5410600812190A53A170
:10013300EF802AEAA2E0C0D0EBA2E092F012095DC0
:10014300158182F05017906198E0FA90159FE0C3F3
:100153009AA2D265D0335002EAF053A1FE7F010286
:10016300048CC0E074F21203D59061A4E0FA759B8D
:1001730000E5915A540860087591F712194C802ACA
:10018300E5915A541060087591EF121952801BEAD9
:10019300A2E0C0D0E591A2E092F012095D15818240
:1001A300F05007E0C2E0F0121A729061A3E0FAE5A2
:1001B300E95A5404600E121A4875E9FB906193E002
:1001C300A2E640F28097C0E074F21203D59061A5D5
:1001D300E0FAE5BF5A5404600653BFFB121A8A02C1
:1001E3000160C3E498F8E499F91202268026C3E477
:1001F3009AFAE49BFBE920E7E9120226E498F8E483
:1002030099F922C3E498F8E499F9120226E498F8DC
:10021300E499F9C3E49AFAE49BFB22EB20E7CFE9E4
:1002230020E7E0B90010BB0008E88AF084F8AAF0E0
:1002330022E4FBC8FA22EB70227B10C833C8C9330F
:10024300C9335007C39AC3DBF280069A50012ADBF5
:10025300EAC833F4C8C933F4C9FA2275F008E4C80C
:1002630033C8C933C933C99AC99B5004C92AC93B86
:10027300D5F0ECFBC833F4C8E4C9FA22080808EA4D
:10028300C0E0EBC0E086F0E7A4FA180986F0E7A423
:100293002AFA180986F0E7A42AFA180986F0E7A4CF
:1002A3002AFA1986F0E7A4FBE5F02AFA190886F082
:1002B300E7A42BFBE5F03AFA190886F0E7A42BFB39
:1002C300E5F03AFA18180986F0E7A4C5F02BFBE429
:1002D3003AFA1908E7C5F0C6A426F6E5F03BFBE4B5
:1002E3003AFA1886F0E7A4F6E5F00826F6E43B08A8
:1002F300F6E43A08F6D0E0FBD0E0FA22E4CFC0E01F
:10030300E4CEC0E0E4CDC0E0E4CCC0E075F020C3AF
:10031300E633F608E633F608E633F608E633F6186E
:100323001818EC33FCED33FDEE33FEEF33FFC3EC73
:100333009709ED9709EE9709EF97191919400FFFE0
:10034300EC97FC09ED97FD09EE97FE191906D5F018
:10035300BEECF709EDF709EEF709EFF7191919D014
:10036300E0FCD0E0FDD0E0FED0E0FF222510C58206
:10037300C0E0E51134FFC583C0E0E510C3958224D6
:10038300F8F8E4C5A8858311858210C5A8E8CEF0E6
:10039300A3E520F0A37808E608F0A3DEFAEFF0A3C4
:1003A300E58124FAF8E608F0A3E608F0A3E608F0EE
:1003B300A30808E608F0A3E608F0A315811581D089
:1003C300E0FED0E0F8158115811581E8C0E0EEC0AC
:1003D300E022C0D02510C582C0E0E51134FFC583FB
:1003E300C0E0E510C3958224F310AF08858311851F
:1003F30082108008858311858210D2AFC8F0A3E9EB
:10040300F0A3EAF0A3EBF0A37908E709F0A3D8FA85
:10041300ECF0A3EDF0A3EEF0A3EFF0A3D0E0F0A394
:10042300D0E0F0A3D0E0F0A3E520F0A3E5F0F0A343
:1004330022120A55B90003020476E4900400781DE1
:1004430079178002F0A3D8FCD9FA901A1CAA82ABC0
:1004530083900086789679018015E493A3AC82ADEE
:10046300838A828B83F0A3AA82AB838C828D83D809
:10047300E9D9E775829775839B740312079C75828C
:100483002A75831D740012079C851183851082E0F1
:10049300C0E0A3E0F9A3E0FAA3E0FBA37808E0F649
:1004A30008A3DFFAE0FCA3E0FDA3E0FEA3E0FFA3C3
:1004B300E0C0E0A3E0C0E0A3E0F5D0A3E0F520A313
:1004C300E0A3F5F0E4C5A8858311858210C5A8D003
:1004D30082D083D0E0F8D0E032D083D082ECC0E089
:1004E300EDC0E0E493A3FCE493A3FDED4C600D1297
:1004F300056EEC24FFFCED34FFFD80EFE493A3FCD9
:10050300E493A3FDED4C600D12067FEC24FFFCED9C
:1005130034FFFD80EFD0E0FDD0E0FCE493A3C0E026
:10052300E493C0E022D083D082E9C0E0E493A3C384
:1005330086F0C5F095F0F908E493A386F0C5F0952D
:10054300F0700BE493A3C3994005E9048002A3E48C
:1005530075F002A42582F582E5F03583F583D0E0BA
:10056300F9E493A3C0E0E493C0E022C0E0C3E493C2
:1005730096087401939618400FE493667008087404
:100583000193661870007019A3A3C3E493960874CB
:1005930001939618A3A3400DD0E0D0E0D0E002056C
:1005A30018A3A3A3A3A3A3D0E0228511838510825C
:1005B300E0A3FEE0A3F5207808E0A3F608DFFAE065
:1005C300A3FFE0A3C0E0E0A3C0E0E0A3C0E0E0A39A
:1005D300C0E0E0A3C0E0E4C5A8858210858311C50F
:1005E300A8D083D0820207A2D083D082C5F0E4933F
:1005F300A3C5F0C395F0F5F0E493A3C395F04005CC
:10060300E5F0048001E475F002A42582F582E5F0AB
:100613003583F583E493A3C0E0E493C0E02274043C
:10062300800474028000CCC0E0EDC0E0E510C39C00
:10063300CCAD1150011D10AF068C108D1180068CAE
:10064300108D11D2AF12071DD0E0FDD0E0FC227453
:10065300028000CCC0E0EDC0E0E510C39CCCAD113E
:1006630050011D10AF068C108D1180068C108D115A
:10067300D2AF1206FBD0E0FDD0E0FC22C0E0C0F018
:1006830088F0E4936670080874019366187000A8F4
:10069300F0A3A3700BD0F0D0E0D0E0D0E0020518B7
:1006A300A3A3D0F0D0E022D083D082CCC0E0E493E7
:1006B300A3600612075E1470FAE493A3600612089F
:1006C300821470FAD0E0FCE493A3C0E0E493C0E0AA
:1006D30022C0E074F21203D512184A7F0102048C7F
:1006E300C0E074F21203D512185080EFC0E074F228
:1006F3001203D512185680E3CAC0E0E493A3C5825F
:10070300CCC582C583CDC583F0A3C582CCC582C5C4
:1007130083CDC583DAE5D0E0CA22CAC0E0E0A3C531
:1007230082CCC582C583CDC583F0A3C582CCC582E7
:10073300C583CDC583DAE6D0E0CA22C0E074F212E5
:1007430003D5E58AA2E6500312181A758A00C2C5BA
:100753007F0102048C758B00C2E832C0E0E493A3EE
:10076300D39C5010E493A3C39C400AD0E0D0E0D0C4
:10077300E00206C7A3A3A3D0E02270090808082259
:100783006016181818C6C333C608C633C608C6335E
:10079300C608C633C6D5E0EA22C09FF59FE473D0EE
:1007A3009F22D083D082C09FE493C0E0740193C0A2
:1007B300E0740293F59F222510F58210AF08F5101F
:1007C300400215118008F51040021511D2AF8511B2
:1007D30083227404800A7403800674028002740105
:1007E300C0E0F4041207BAD0E0120A4822C0D025B0
:1007F3001010AF08F510500205118008F5105002D3
:100803000511D2AFD0D022BB0102E722C082C08340
:1008130089828A83BB0003E08002E493D083D08281
:10082300226016080808C6C313C618C613C618C61E
:1008330013C618C613C6D5E0EA22C3E0C696F60867
:10084300A3E0C696F608A3E0C696F608A3E0C6960C
:10085300F622C0E074F21203D5C2C0E5D1A2E4507F
:10086300031218807F0102048C251010AF08F510C5
:10087300400215118008F51040021511D2AF22C0B5
:10088300E0E493A36C7009D0E0D0E0D0E00206C7A7
:10089300A3A3D0E022C3E7960809E7960809E796E1
:1008A3000809E796A2D265D03322C3E09608A3E0F5
:1008B3009608A3E09608A3E096A2D265D03322E07F
:1008C30066701008A3E066700A08A3E06670040867
:1008D300A3E06622C3E096F008A3E096F008A3E045
:1008E30096F008A3E096F022E657F60809E657F6D5
:1008F3000809E657F60809E657F622E026F008A3AA
:10090300E036F008A3E036F008A3E036F022E02654
:10091300F608A3E036F608A3E036F608A3E036F6B9
:1009230022E627F60809E637F60809E637F6080946
:10093300E637F622E056F608A3E056F608A3E0569B
:10094300F608A3E056F622E056F008A3E056F008B6
:10095300A3E056F008A3E056F022C0E0E8C0E0E5CB
:100963008124FCF8E6A2E7D0E0F8D0E0227004226C
:10097300600D18C6C333C608C633C6D5E0F41822C3
:10098300E647F60809E647F60809E647F60809E6E2
:1009930047F622E046F008A3E046F008A3E046F05D
:1009A30008A3E046F022C0E074F21203D5C2C712D6
:1009B300198E7F0102048CE4C396F608E496F608C8
:1009C300E496F608E496F622C6F4C608C6F4C6080A
:1009D300C6F4C608C6F4C622C3E7960809E7960814
:1009E30009E7960809E79622C3E09608A3E096086C
:1009F300A3E09608A3E09622600D08C6A2E713C6FB
:100A030018C613C6D5E0F32275D000758140751062
:100A13000075110400020434600C08C6C313C61821
:100A2300C613C6D5E0F422E6F008A3E6F008A3E671
:100A3300F008A3E6F022E0F608A3E0F608A3E0F648
:100A430008A3E0F622CAC0E0E6F0A308DAFAD0E091
:100A5300FA2274F855C74401F5C77901222510F528
:100A630082E43511F583221207A5A283011207A59B
:100A7300F283011207A5AC84011207A53185011287
:100A830007A5B785011207A59886011207A5C58694
:100A9300011207A51487011207A53C87011207A5B8
:100AA3006C88011207A59288011207A5A488011278
:100AB30007A5AE88011207A55889011207A5C489A5
:100AC300011207A58B8A011207A5938A011207A5B4
:100AD300838B011207A5FC8B011207A5508C011211
:100AE30007A5C58C011207A5638E011207A5778E92
:100AF300011207A5D98E011207A55E8F011207A562
:100B0300B48F011207A5CE90011207A5C09101125F
:100B130007A52D92011207A5A992011207A50B9310
:100B2300011207A54393011207A51E94011207A5FD
:100B33002695011207A58395011207A5CC950112ED
:100B430007A5F495011207A57D96011207A5139732
:100B5300011207A57997011207A59E97011207A510
:100B63001798011207A5AB98011207A53F99011227
:100B730007A56399011207A5879A011207A59A9AF7
:100B8300011207A50B9B011207A5209B011207A5C4
:100B9300A39B011207A5E29B011207A51D9C01124D
:100BA30007A53E9D011207A5F59E011207A5FF9E0D
:100BB300011207A5099F011207A5139F011207A59B
:100BC3001D9F011207A5379F011207A5419F01121F
:100BD30007A54B9F011207A5559F011207A5769FF5
:100BE300011207A5849F011207A5A89F011207A55B
:100BF300CC9F011207A525A0011207A56AA0011227
:100C030007A588A0011207A5FFA0011207A549A106
:100C1300011207A57FA1011207A5FEA1011207A5D5
:100C23005FA2011207A591A3011207A55EA40112F9
:100C330007A546A5011207A5E1A7011207A552A919
:100C4300011207A509AB011207A54FAB011207A5B6
:100C530051AC011207A59AAC011207A550AD0112C0
:100C630007A5EFAD011207A517AE011207A5EAAE5E
:100C7300011207A50AB1011207A53CB1011207A58C
:100C8300A1B1011207A59CB2011207A5DFB201129F
:100C930007A52BB3011207A58AB3011207A5D8B480
:100CA300011207A524B5011207A52EB6011207A547
:100CB300D8B8011207A5FCB8011207A5C7BA0112DB
:100CC30007A51EBB011207A51ABC011207A575BC17
:100CD300011207A5AFBC011207A5DABC011207A5D3
:100CE300B8BD011207A5FCBD011207A538BE01124C
:100CF30007A5C9BE011207A5CCBE011207A537BFC0
:100D0300011207A57221001207A5C421001207A52D
:100D1300AB23001207A54824001207A57C24001268
:100D230007A5A425001207A54C28001207A5AD2886
:100D3300001207A5502F001207A50A32001207A5BB
:100D4300F632001207A5C233001207A514350012AC
:100D530007A51936001207A53839001207A50B3B62
:100D6300001207A56B3B001207A5493C001207A51B
:100D7300743C001207A5143D001207A5013E0012A2
:100D830007A5E33E001207A5B33F001207A5E03F06
:100D9300001207A50240001207A56342001207A52F
:100DA3001443001207A56B43001207A5D543001295
:100DB30007A5A144001207A5D644001207A52A459A
:100DC300001207A55A45001207A59845001207A56A
:100DD300E645001207A5EB45001207A5424600129F
:100DE30007A56A46001207A56A47001207A5EB4745
:100DF300001207A5DC49001207A5994A001207A5AE
:100E03001C4C001207A5C04D001207A5614E00122D
:100E130007A5454F001207A5CE4F001207A5155091
:100E2300001207A57F51001207A59351001207A5D1
:100E3300A051001207A5CA51001207A5D6510012EE
:100E430007A5F451001207A5FE53001207A5B954D4
:100E5300001207A5FD54001207A5A355001207A50C
:100E63008E56001207A53E57001207A57A580012A6
:100E730007A56359001207A50E5A001207A5A75A22
:100E8300001207A5BE5A001207A5E25A001207A5D1
:100E9300EC5A001207A5F85A001207A5165B0012B8
:100EA30007A55A5B001207A5C85B001207A5335CB0
:100EB300001207A58C5C001207A5F45C001207A5BD
:100EC300065E001207A5B85E001207A59F5F001219
:100ED30007A5FD5F001207A58560001207A57461D1
:100EE300001207A5A361001207A50A62001207A555
:100EF300E462001207A50A63001207A5B463001297
:100F030007A5E063001207A56764001207A5DC6468
:100F1300001207A51665001207A54265001207A572
:100F23007765001207A50066001207A5296600125F
:100F330007A59D66001207A51267001207A5A8FF63
:100F4300011207A5F3FF011207A51AC0011207A595
:100F530048C0011207A506C1011207A5ECC1011281
:100F630007A5F3C2011207A57EC4011207A5F3C4A6
:100F7300011207A5A2C5011207A59FC6011207A565
:100F83000AC7011207A55DC7011207A5B1C7011260
:100F930007A5BBC7011207A501C8011207A564C8AD
:100FA300011207A5FCC8011207A571C9011207A503
:100FB3005DCA011207A5D8CA011207A5F2CA011218
:100FC30007A521CB011207A54ECB011207A5E5CB3F
:100FD300011207A5F5CB011207A548CC011207A5FD
:100FE30054CC011207A560CC011207A569CC0112EC
:100FF30007A5B4CC011207A50FCD011207A560CD3B
:10100300011207A57BCD011207A5B1CD011207A5DA
:10101300D2CD011207A5DCCD011207A5F1CE011235
:1010230007A50FCF011207A581CF011207A594CF02
:10103300011207A5A2CF011207A543D0011207A5EC
:1010430017D1011207A538D2011207A5B4D2011294
:1010530007A5BED2011207A531D3011207A548D3B4
:10106300011207A58AD3011207A5C8D3011207A548
:10107300F7D3011207A52ED4011207A54CD40112F0
:1010830007A570D4011207A5B1D4011207A5A0D5F5
:10109300011207A5E6D5011207A511D6011207A56E
:1010A30084D6011207A5ABD6011207A5F0D601120B
:1010B30007A5FED6011207A557D7011207A594D796
:1010C300011207A5DBD7011207A50CD8011207A54A
:1010D3002FD8011207A53AD8011207A558D8011233
:1010E30007A514D9011207A51ED9011207A563D9B3
:1010F300011207A5A7D9011207A5BBD9011207A59C
:10110300A6DA011207A5B9DA011207A5CEDA011290
:1011130007A576DB011207A5C2DB011207A578DC60
:10112300011207A583DC011207A5D1DD011207A572
:10113300FDDD011207A53EDE011207A558DE0112EF
:1011430007A5C9DE011207A555DF011207A58CDF2C
:10115300011207A5EFE1011207A577E2011207A526
:10116300F7E2011207A53AE5011207A54AE50112C4
:1011730007A54DE5011207A559E5011207A56DE580
:10118300011207A58CE5011207A5BFE5011207A50A
:1011930084E6011207A5EBE6011207A54FE701124A
:1011A30007A5D9E7011207A58AE8011207A5B8E840
:1011B300011207A54EE9011207A57DE9011207A552
:1011C3009FE9011207A5C6E9011207A52BEA01123F
:1011D30007A5DEEB011207A5E1EB011207A54BEC16
:1011E300011207A53EED011207A525EE011207A581
:1011F300B0EE011207A5F3EF011207A5B6F0011235
:1012030007A5EFF0011207A520F1011207A529F1A7
:10121300011207A50DF2011207A59DF2011207A500
:101223003BF3011207A5FBF3011207A574F40112A6
:1012330007A5A3F4011207A5E0F4011207A5FECD4B
:10124300021207A50CCE021207A588CE021207A52B
:10125300BECE021207A505CF021207A526D10212A0
:1012630007A52BD3021207A507D6021207A535D669
:10127300021207A557D6021207A5C0D6021207A568
:10128300FCD6021207A537D7021207A574D702129C
:1012930007A597AE031207A5B0AE031207A5FDAECF
:1012A300031207A547AF031207A5EAAF031207A569
:1012B300F9AC031207A53FAE031207A50080031282
:1012C30007A57F80031207A58A80031207A5B180B3
:1012D300031207A5C580031207A53A81031207A5C8
:1012E3006A81031207A55982031207A50483031217
:1012F30007A55A83031207A59583031207A5CA837B
:10130300031207A52284031207A54F84031207A51E
:10131300A684031207A580A7031207A5A3810112C0
:1013230007A532A8031207A5E1A8031207A510A970
:10133300031207A5E798031207A56299031207A5ED
:101343006D99031207A59299031207A5F4DF021200
:1013530007A590E0021207A5C3E0021207A5FEE06D
:10136300021207A522E1021207A542E1021207A514
:10137300ABE1021207A5E9E1021207A5818301127D
:1013830007A560E3021207A581E3021207A5D6E3CE
:10139300021207A577E4021207A5AEE4021207A51D
:1013A30011E6021207A5C9E6021207A5E4E7021235
:1013B30007A506F0021207A510F0021207A556F0C2
:1013C300021207A5FFF0021207A525F1021207A5D5
:1013D300E7F1021207A5F0F1021207A546F2021285
:1013E30007A571F2021207A5D6F2021207A549F367
:1013F300021207A58FF3021207A5F4F3021207A541
:1014030016F4021207A59AF4021207A500F50212B8
:1014130007A53FF5021207A551F5021207A563F5CB
:10142300021207A582F5021207A527F6021207A5E5
:1014330061F6021207A57EB8031207A532AB0312A9
:1014430007A591AB031207A5BAAB031207A5BDAC61
:10145300031207A57ABC021207A55EBD021207A5F7
:101463009ABD021207A55ABF021207A59CBF02121A
:1014730007A53AC1021207A581C1021207A55DC2E1
:10148300021207A5E8C2021207A585C3021207A527
:10149300DEC3021207A51EC4021207A5C4C50212A9
:1014A30007A56BC7021207A5B1C9021207A5BFC9D9
:1014B300021207A51CCA021207A571CA021207A5C8
:1014C300BCCD021207A5DE7F001207A5F47F001230
:1014D30007A52693031207A53E93031207A5DA93E4
:1014E300031207A51B94031207A53894031207A53B
:1014F3005B94031207A59194031207A5C8940312E2
:1015030007A5EF95031207A56CBB031207A505B545
:10151300031207A575B5031207A592B5031207A514
:10152300D7B5031207A506B6031207A51BB6031208
:1015330007A521F5011207A570F5011207A548F6C5
:10154300011207A5D1F6011207A51BF7011207A582
:101553006CF7011207A5C9F7011207A5DDF7011200
:1015630007A505F8011207A50AF9011207A576F9DF
:10157300011207A595F9011207A5D6F9011207A5CE
:101583000BFA011207A564FA011207A582FA0112E8
:1015930007A5FFFA011207A58FFC011207A5B1FCED
:1015A300011207A5E6FC011207A50EFD011207A50E
:1015B30013FD011207A56BFD011207A50AFE011217
:1015C30007A52FFE011207A552FE011207A555FE1E
:1015D300011207A5C4FE011207A5E1FE011207A52A
:1015E300FEFE011207A501FF011207A511BB03129D
:1015F30007A529BB031207A510E8021207A560E897
:10160300021207A524EA021207A5F0EB021207A5AE
:1016130038EC021207A523ED021207A5B7EE02125A
:1016230007A5D9EE021207A53DEF021207A5D2EFD7
:10163300021207A517A1021207A541A1021207A5CD
:10164300BAA1021207A512A2021207A593A20212BF
:1016530007A5EFA2021207A531A3021207A5A3A3B0
:10166300021207A538A4021207A5AEA4021207A509
:10167300E8A4021207A519A9021207A5C3AA021218
:1016830007A5E9AA021207A5A7AB021207A5AAABF1
:10169300021207A594AC021207A5DAAD021207A540
:1016A30089AE021207A53FB1021207A5D1B10212FA
:1016B30007A5FEB2021207A538B6021207A548B65F
:1016C300021207A5D4B7021207A500B8021207A594
:1016D30024B9021207A5BFB9021207A533BB021230
:1016E30007A5D9BB021207A54C67001207A5076817
:1016F300001207A58768001207A59668001207A5C0
:101703002669001207A59069001207A5606A0012F6
:1017130007A58B6A001207A53C6B001207A58D6B0A
:10172300001207A5076C001207A5D46E001207A5C7
:10173300666F001207A5B16F001207A53071001282
:1017430007A5D971001207A56E72001207A5C3720F
:10175300001207A53173001207A59874001207A59C
:101763008E76001207A5EE77001207A58678001281
:1017730007A55479001207A59FBC031207A5A2BCB5
:10178300031207A5A6A0031207A50EA1031207A51E
:10179300BBA1031207A521A2031207A592A203125C
:1017A30007A5489C031207A55FB1031207A5A4B1BF
:1017B300031207A558B2031207A565A9031207A5CB
:1017C30073A9031207A5A7BC031207A50BFF0112F8
:1017D30007A51BFF011207A536FF011207A59EFFF0
:1017E300011207A535B6031207A55CB6031207A5B8
:1017F300E5B6031207A54CB7031207A5DD9D031237
:1018030007A565B7031207A587B7031207A5F9B79D
:10181300031207A518B8031207A55AB8031207A5A0
:10182300E084031207A5EE84031207A56E85031255
:1018330007A55A86031207A5F488031207A501B06A
:10184300031207A53CB0031207A560B0031207A556
:10185300BEB0031207A520B1031207A5A57A001293
:1018630007A5247B001207A5D27B001207A5437CA2
:10187300001207A54B7D001207A5CC7E001207A519
:101883002B7F001207A5817F001207A58A7F001214
:1018930007A5997F001207A5AC7F001207A5C27F99
:1018A300001207A5CB7F001207A587F6021207A532
:1018B300D8F6021207A562F9021207A59AF90212D5
:1018C30007A5BFF9021207A5D8F9021207A5F1F976
:1018D300021207A526FB021207A5C1FB021207A5E8
:1018E30066A5031207A5A9A5031207A5BAA50312A6
:1018F30007A5EDA5031207A524A6031207A559A65C
:10190300031207A5D1A6031207A50EA7031207A565
:101913000A9E031207A5329E031207A56F9E0312A8
:1019230007A5819E031207A59D9E031207A5059F88
:10193300031207A50E9F031207A56F9F031207A5A6
:10194300939F031207A55AA0031207A567A00312CA
:1019530007A578A0031207A592FF021207A5DFFFD0
:10196300021207A55989031207A54F8A031207A577
:101973005C8A031207A5798A031207A5908A0312CA
:1019830007A5A58A031207A5298B031207A5FC8BBC
:10199300031207A5698C031207A5B28C031207A5CE
:1019A300C28C031207A576BA031207A59BBA0312CA
:1019B30007A5C4BA031207A5ECBA031207A51EA311
:1019C300031207A537A3031207A543A3031207A511
:1019D30057A3031207A57BA3031207A587A303122B
:1019E30007A596A3031207A5A9A3031207A5DCA3C2
:1019F300031207A516A4031207A548A4031207A5FB
:101A030097A4031207A5E3A4031207A5FBA40312DB
:101A130007A505A5031207A516A5031207A55BA530
:101A2300031207A5BCBB031207A5B2D7021207A571
:101A3300DED7021207A5FAD7021207A50DD80212A4
:101A430007A523D8021207A58CD8021207A5BFD871
:101A5300021207A525DC021207A54CDD021207A519
:101A63007CDD021207A5E3DD021207A5CFDE021219
:101A730007A5F7DE021207A50CDF021207A51CDF7C
:101A8300021207A55DDF021207A5B2DF021207A546
:101A9300C8DF021207A5CEB3031207A5E9B30312E9
:101AA30007A512B4031207A52CB4031207A551B45A
:101AB300031207A570B4031207A589B4031207A57F
:101AC300B8B4031207A5D3B4031207A504BC0312C9
:101AD30007A500FC021207A507FC021207A514FDC7
:101AE300021207A546FD021207A56CFD021207A507
:101AF3009FFD021207A5B1FD021207A5ECFD02121C
:101B030007A55CFE021207A599FE021207A5E6FED1
:101B1300021207A514FF021207A534FF021207A53C
:101B230097B2031207A5D0B2031207A5CBB30312D2
:101B330007A57FB9031207A5D5B9031207A513BAE1
:101B4300031207A554BA031207A50796031207A5A4
:101B53002796031207A57596031207A5E3960312AA
:101B630007A5D897031207A57998031207A58D989F
:101B7300031207A5D18C031207A5F08C031207A546
:101B8300398D031207A5558D031207A58D8D0312F9
:101B930007A59A8D031207A5B78D031207A5A48E77
:101BA300031207A5DB8E031207A5948F031207A563
:101BB3009F8F031207A5B18F031207A5BA8F0312D4
:101BC30007A5C48F031207A52D90031207A5189329
:101BD300031207A544BC031207A573BC031207A590
:101BE3001E81011207A5B880011207A58A80011280
:101BF30007A57880011207A5E2A0021207A5C4A0D9
:101C0300021207A5DE9F021207A5439F021207A532
:101C13000A9E021207A5C29B021207A5469B021247
:101C230007A5E197021207A5AD97021207A56697CC
:101C3300021207A53B97021207A58C96021207A56D
:101C43003F96021207A5B194021207A5AE940212A1
:101C530007A5C993021207A59593021207A5D0926F
:101C6300021207A54183011207A50683011207A5E6
:101C7300DF82011207A50091021207A5B390021299
:101C830007A58490021207A58190021207A5C482BA
:101C9300011207A57490021207A53E90021207A530
:101CA3003090021207A5098F021207A53FE3021223
:101CB30007A54182011207A5898E021207A54F8E3F
:101CC300021207A5F38D021207A5C98D021207A5FB
:101CD300EC8A021207A5D58A021207A5358A0212D9
:101CE30007A56C89021207A5B386021207A5DF8335
:101CF300021207A5A083021207A53F82021207A5BD
:101D0300F281021207A52D81021207A5008102129A
:101D130007A56780021207A50080021207A53A8073
:101D2300021207A597A70300000080FBE4730001DC
:101D33003636010100010201000103010001040123
:101D4300060605020000070100340801000F09041C
:101D530001010D0100FF0E08000017020000190128
:101D630000FF1A0100011B0100051C0100081D02F0
:101D730000001F01000120010001210200002301D6
:101D8300000F240200002601000127010308280296
:101D930000FF2A0100072B0102402C0100002D0146
:101DA30000012E0100012F0100FF30010B1C31083F
:101DB30000003A0100080101710101010101110153
:101DC30001013101010101018001100161013B00A9
:101DD30014006301730172016201430100011301E5
:101DE30006013D013500040112010001000100015B
:101DF300000104010401330133013C0144013201B8
:101E03003600000100016501000135008101000178
:101E130005018201830100010300710030016000AC
:101E23001100700031022003500480001000610093
:101E3300000014006300730072006200430000009E
:101E43001300060000000000040012000000000060
:101E53000000000004000400370037003C02440087
:101E63000000000000000000650000003500810054
:101E73000000050000008300000003047104020455
:101E83006004110470040204020401040204100437
:101E930061040004140463047304720462044304BD
:101EA30000041304060400040004040412040004E0
:101EB300000400040004510464000004000400044E
:101EC3004404000400040004000465040004350411
:101ED3008104640005040004830400040302710206
:101EE300300160021102700201020202020280024A
:101EF300100261023A00410063027302720262023D
:101F0300430200021302380000020002040212021C
:101F1300000200020002000204020402370037003C
:101F23003C02440200023900000200026502000282
:101F330035028102000205028202830200020103CC
:101F430071030103010301030103010322030203DC
:101F53000103100300030003000300030003000355
:101F630000034203000324030603000300030403E6
:101F7300120325032303250323030403040300039C
:101F8300000300034403000300032303000365036A
:101F9300210035038103000305030003000300034D
:101FA30036000100060000000F00000000000000E2
:101FB30000000000000003FFFF00000403FFFF0018
:101FC30000FFFF0FF4010005C4040320000100001B
:101FD3000B000000000000000003010000241713A1
:101FE300009A160100241702005216030058160423
:101FF300005E16050064160600701611008E161496
:1020030000941615008216FFFF000001340D0664CC
:102013000D085E0D0B700D10B60C023A0D05520D36
:1020230007400D0C220D0D2E0DFF000003000300D1
:102033000400080010001F003E007B00F600EC01C6
:10204300D703AF075D0FB91E713D00008810B810AC
:102053008E109410B210A610A010BE10C410CA1097
:10206300D6109A1082107C10D5C5C5B5A5A5958547
:102073008575756565555545453535252515059C86
:1020830036063A703DD9404344AD47174B814EEA7B
:102093005100160F00000B150B020002220F320035
:1020A3000006000102030405060708090A0B0C0DCC
:1020B3000E0F56777777777777777777777777779F
:1020C30077776C117E11841152108A114C105810BD
:1020D300DE11FC110212E411F011EA118C0F860FCC
:1020E300C20FC80FBC0F740F303017181921301BE3
:1020F3001D1F30303016181920231A1C1E30000300
:102103004948424D18172505020C0E020B040B0A11
:102113000708000F00383C3E363B3B352B432C0071
:1021230001191618161615230300D21190119611D2
:10213300A2119C11AC10D010F611DC10E2100005B6
:10214300150D09100804980F9E0F920FCE0F000073
:1021530000000000A40FB60F00BE040A150004001F
:102163000E00030928010809000C0405080F08C024
:1021730082C083E99004CCF0E4900481F0121B2028
:102183009004DFE4F0A3F09004CDF0A3F0120EFC72
:10219300120A88120C1A121B26900441E4F0A3F0D1
:1021A3009004EFE07002A3E060099004EF1253D7AC
:1021B300121D2F902170E493FA7902121BAA025088
:1021C3000E74F212036FEAFEEBFF74805FF9E470A2
:1021D30001E9706DEE54207003022316750A007C2A
:1021E300027D007A201223A07C0079047A007B0010
:1021F300120DB88A088B09807F0CEC75F003A4A933
:10220300F0240EF582E93420F583E49364FF602A19
:10221300E493FA8508828B83E06A70DDAA08EC7583
:10222300F003A4240FF582E93420F583E493C0E09E
:10223300740193F583D082121D2FAA08AB091213E0
:10224300DC9004CCE0F91213E88A088B09EA7001E8
:10225300EB60047C0080A3EEFA74806FFB02239290
:102263007401850882850983A3A3A3A3A3A3A3A3BE
:10227300A3F0850C08850D09E5087002E509606E79
:102283007C007904AA08AB09120DB88A0C8B0D7572
:102293000A01E508240412639B24FFF0A3E034FF42
:1022A30012425E7002A3E070C9850882850983A388
:1022B300A3A3A3A3A3A3A3A3A3E0640170A285087C
:1022C30082850983A3A3A3A3A3A3E05404709174F9
:1022D30006850882850983A3A3A3A3A3A3A3A3A31A
:1022E300F07AB785088285098312243D8084120D14
:1022F300887C0079017A007B00120DB8EA7001EB4B
:102303007009E50A70057A2012239574206EFAEF9E
:1023130002225FEE54106007120C4A741080EEEE36
:1023230054406007120C9E744080E2EE54806007B4
:10233300120B78748080D674015FF9E47001E96050
:102343001A9004F1E07002A3E060099004F11253C3
:10235300D7121D2FEEFA740102225E74025FF9E4B4
:102363007001E9600A120EF6EEFA740202225E743C
:10237300045FF9E47001E960121257111255817973
:10238300011232ECEEFA740402225E7A007B000240
:1023930025807B009004CCE0F91214F0227B00909E
:1023A30004CCE0F91214EA2274F412036FEAFEEB90
:1023B300FF7508018E828F83A3A3A3A3A3A3E05475
:1023C300406005122840801590046CE0A2E1500A99
:1023D3007900122840120C268003120E3074FE6A14
:1023E300700374FF6B602C1253D3125C02120E9CA9
:1023F300E98E828F836006122436E4800512243628
:102403007401123EDCFAA3E0FB121BA4E9F5097088
:102413000580127509CDAA098E828F8312243DE9A6
:102423006003750800A908EEFAEFFB120D94A909E1
:10243300024F2EE0240D122F2F22E0240C1260668F
:10244300F9120D162274F612036FE9FEEAFF7A0FF2
:102453007B001213D6EA7001EB6019740C8A828B2D
:1024630083F0EEA3A3F0EF8A828B83A3F012559A35
:102473007900800279100253CE74F212036FEAFEE0
:10248300EBFF8C088D09890A740E120A60E0F50CC3
:10249300A3E0F50D850C82F583E4F0A31259F3E074
:1024A300F9120E7EE96020122591701B8E828F83B4
:1024B300A3A3A3A3A3A3A3A3A3125F6A850C8285EB
:1024C3000D831255818003750A00EE241D122585A4
:1024D3001205EB01097725EE24082511251A257726
:1024E300253B2577254E2567257025780C1207DDBA
:1024F300AC08AD09EEFAEFFB120C3274021207F0CE
:10250300E9F50A806FEEFAEFFB120C388066EEFAFB
:10251300EFFB120EB480E9EE241712282A6402702E
:1025230053E50A700A1262CE7003A3E0697045EEA8
:10253300FAEFFB120E6C803CEE241712282A640279
:102543007032EEFAEFFB120E5480299004F3E07020
:1025530002A3E0601FEEFAEFFB9004F31253D712CD
:102563001D2F8010EEFAEFFB120EC08007EEFAEF7C
:10257300FB120ECCA90A800574031207F07F060232
:1025830005AD12424912258C22125A05E0228E8291
:102593008F83A3A3A3A3A3A3A3A3A3125959640241
:1025A3002274F412036F74DE12086C8A088B098A92
:1025B300828B83A3A3E0F91243047001EF7003023B
:1025C30026AA850882850983A3E064F16033850820
:1025D30082850983A3E064CD60278508828509830A
:1025E300A3E0641A601B850882850983A3E064E97C
:1025F300600F850882850983A3E064E160030227F5
:10260300378E828F83A3A3A3A3A3A3A3E05408F9C4
:10261300E47001E970030226B274058E828F83A3EE
:10262300A3A3A3A3A3A3A3A3F09004F7E07002A31F
:10263300E060099004F71253D7121D2F9004F9E0BC
:102643007002A3E0603290046CE0A2E1502A8E8213
:102653008F8312447CA3A3A3A3A3A3A31249C48877
:10266300828983125A8E120F20EA7001EB6009905F
:1026730004F91253D7121D2F8E828F83A3A3A3A312
:10268300A3A3A3A3A3E06402701074068E828F83B6
:10269300A3A3A3A3A3A3A3A3A3F08508828509836C
:1026A300A3A3E0F9120D9A120D887422024F2B791D
:1026B30000120D94E9607D90046CE0A2E150621277
:1026C300605B7002A3E060598E828F83125A8E740E
:1026D30003120A6012606B850882850983A3E06494
:1026E300E9701B1228311207E1850882850983A34B
:1026F300E0F50A780A1207E1123F861207F0740C1C
:10270300120A60123907122EB51255817900740E20
:10271300120A601249C4740C120A60125A8E120C07
:102723002C8E828F83A3A3A3A3A3A3E04420F0A3AF
:10273300E002262B850882850983A3E0C0E07402AA
:10274300120A60D0E0124E59126204EE240B1228D2
:102753002A851082851183AA82AB837005120B9C94
:102763008003120E78850882850983A3E064F160F3
:1027730053850882850983A3E064CD604785088279
:10278300850983A3E0641A603B850882850983A3D6
:10279300E064E1602F850882850983A3E064F0602B
:1027A300237402120A60E064B76019122831120719
:1027B300E17403120A60E0F50A780A1207E1123F96
:1027C300861207F090046CE0A2E1400302267B8EA0
:1027D300828F83A3A3A3A3A3A3A3A3A3E0640270F1
:1027E3002A8E828F83A3A3A3A3A3A3E05404601B15
:1027F300122840120E9CE9700D1253D374FFF0A3FC
:10280300F0740502268F740302268F8508828509DA
:1028130083A3E064E9600302267BEEFAEFFB120E6A
:10282300D202267BEE2411F582EF124765228E82B7
:102833008F83E0F8125A7D750A01780A228E828FFF
:102843008312258CFAA3E0FB2274F712036FEAFECE
:10285300EBFF75080012259170037508011262CE13
:102863007003A3E0697006E508D2E1F508E5088E78
:10287300828F83A3A36011E07006E508D2E5801977
:10288300E508D2E6F5088003E06010EE241D124946
:10289300D064016006E508C2E0F508E508A2E1405E
:1028A30004D2E7F508A90802473D74F012036F74D8
:1028B300D212086C851082851183125C027408128F
:1028C3000A60125686740A120A60E4F0A3F0740CCC
:1028D300120A60AC82AD83851082851183122F0B9F
:1028E300851082851183122ED4120E0C85108285D9
:1028F3001183125A92F8A3E0F97419120A6012555F
:1029030081740C120A60AA82AB83120D287402121E
:102913000A60E9F07412120A60E060267423120A56
:1029230060E0FD740D120A60E0FC8510828511835E
:10293300E0F8122ED47901121BFEE96003022EA9DE
:102943008013900469E0600D7402120A60E0A2E152
:102953004003022EA9851082851183E0242C1242A4
:1029630038F8A3E0F990047FE0687003A3E069708E
:102973003575080078081207E178081207E1740238
:10298300120A60122F1FF97402120A60E0242A123D
:102993002EDB7402120A60E02412FAA3E03400FB77
:1029A300123FA11207F0740F120A60E0FA90046F4D
:1029B300E06A6003022EA97412120A60E070030237
:1029C3002A99851082851183E0242A124238FCA3B8
:1029D300E0FD122EF8FAA3E0FB120F207406120A90
:1029E30060125C027406120A60E07002A3E07003D6
:1029F300022EA9740D120A60E0F8851082851183F6
:102A0300122EB5A3A3E028F8A3E03400F9740D282F
:102A1300F582E439F583E0FA7406120A60122ED0C7
:102A2300E06A601E7406120A60A31233A0EAF090F3
:102A330080717808120A397406120A60122F05127F
:102A43000A2A7904740D120A60E0FA122EBEE02AF3
:102A5300FCA3E034008C82F583A3AA82AB83121318
:102A6300CA8A088B098C0A8D0B7406120A60122E0F
:102A7300D0A3780C120A39780C79081209DB5003B9
:102A8300022EA990806178081209117406120A6057
:102A9300122F05120A2A90046CE0A2E15003022BC4
:102AA3005B900481E064046008E064096003022E23
:102AB300A97402120A60E0A2E55047122F19C0E080
:102AC3007403120A60D0E0122F47C0E07404120AA4
:102AD30060D0E0122F3EC0E07405120A60D0E0120D
:102AE3002F261206217407120A60AC82AD8374107C
:102AF300120A60AA82AB83120BA274041207F002BB
:102B03002EA9A2E64003022EA97429120A60125AC2
:102B130099701C7423120A60E064026003022EA9F8
:102B2300740C120A60AA82AB83120E6C022EA97473
:102B330029120A60122EAE6003022EA97423120A10
:102B430060E064046003022EA9740C120A60AA8276
:102B5300AB83120E60022EA9741D120A60E0602E70
:102B6300851082851183E02402124238FAA3E0F52E
:102B7300838A82A3A3A3A3A3A3E014125729A3A325
:102B8300A3E0C0E0741D120A60D0E0F07009740283
:102B9300120A60E0C2E7F0900481E064046005E09B
:102BA300640970507415120A601262DB7003A3E0AB
:102BB3006960197415120A6012259E600F74111250
:102BC3000A60E0540364016003022EA9740E120A22
:102BD30060E07003022ABE7429120A60125A9970C7
:102BE30003022B167429120A60122EAE6003022E02
:102BF300A9022B3F7E007402120A60E05461700345
:102C0300022D00E0A2E0506E122EF8FCA3E0FD744A
:102C13000C120A60AA82AB83120CA4E9704F120E45
:102C23003CE9FE7402120A60E0A2E7504985108273
:102C3300851183E02412122EDB740C120A60AA821F
:102C4300AB83120CAAE960187415120A601263832D
:102C5300120A60123C41120A607404F0A3E4801566
:102C63007402120A60E0C2E5F07E00800974021269
:102C73000A60E0549FF07402120A60E0A2E5504437
:102C8300122F19C0E07403120A60D0E0122F47C05C
:102C9300E07404120A60D0E0122F3EC0E074051203
:102CA3000A60D0E0122F261206217407120A60ACC4
:102CB30082AD837410120A60AA82AB83120BA274D2
:102CC300041207F07402120A60E0A2E64003022D28
:102CD300DA7408120A608582088583097808120766
:102CE300DDEEF97402120A60122F10120A60AA8232
:102CF300AB83120D1C74021207F0022DD8740E124E
:102D03000A60E0640170387429120A60122588642D
:102D130005702C7408120A60858208858309780877
:102D23001207DD79007402120A60122F10120A6072
:102D3300AA82AB83120D1C74021207F0022EA9742F
:102D43001D120A60E0701879007415120A601249A6
:102D5300C47417120A60125A8E120C44022EA9125E
:102D63000D8EE96003022EA97415120A60126383A3
:102D7300120A601255818E0878081207E174251231
:102D83000A60AC82AD837416120A60125A8E7411F3
:102D9300120A60E0F9120CE674011207F0E96016FA
:102DA300740A120A607420F0A3E4124E50122EC962
:102DB300122588543FF079007417120A601249C42F
:102DC3007415120A601249C86008740A120A601264
:102DD300582D120E3CE9FE7408120A60E064FE707E
:102DE30004A3E064FF70027E007402120A60E0A292
:102DF300E74003022EA9EE7003022EA985108285F7
:102E03001183122EEF124D6C7001EB7003022EA989
:102E1300122EBE124D9A1207D97403120A60122E93
:102E2300EFFC7D00123EC81207F0900469E07008C1
:102E33007412120A60E0601A7423120A60E0FD74CF
:102E43000D120A60124D836009AA0CAB0D12144EC9
:102E53008054740E120A60E0C0E0742B120A60D032
:102E6300E0F0742C120A60E4F0A3F0742B120A60F1
:102E730085820885830978081207DD740C120A60BD
:102E8300120625EEF50878081207E17405120A60A8
:102E9300122F0B740D120A601253C1120DFA74052E
:102EA3001207F0E970A3742E024BF0125A07E06484
:102EB3000722E0FAA3E0F5838A8222851082851136
:102EC30083E0122EC922F8125A07A3A32212573401
:102ED30022122ECA12516F22122EDF22FAA3E034DD
:102EE30000FB8A828B83E0FCA3E0FD22122EF322F7
:102EF300124C02E022851082851183E024121260B5
:102F03006622124BFE780822122EF3F922E02412D5
:102F1300122EDF740E22851082851183E0242E1277
:102F2300606622124E542424122F2F22122F332292
:102F3300F8A3E03400F98882898322124E542430A6
:102F430012606622124E54242F1260662274F0120D
:102F5300036F74EA12086C8A0E8B0F123C1B7509FF
:102F630001850E82850F83A3E0F50CE50E2402FC98
:102F7300E50F123C307408120A60125686740A1266
:102F83000A607402F07413120A60E4F0901A1EE0EF
:102F93007010EE7001EF700AE50C70067509C3023C
:102FA300313D900481E0640860067509C20231393D
:102FB300850E82850F83A3A3A3A3A3A3A3A3A3A384
:102FC300E0A2E1500EA2E3500575080480117508D4
:102FD30003800CA2E350057508028003750801EE17
:102FE3007001EF607E8E828F83A3A3A3A3E06404AA
:102FF300600D8E828F83A3A3A3A3E06403700C747C
:10300300046508602C7403650860268E828F83A391
:10301300A3A3A3E06402600D8E828F83A3A3A3A363
:10302300E064017024740265086006740165087029
:103033000B12637F120A6012558180278E828F8361
:10304300A3A3A3A3E06402600D8E828F83A3A3A333
:10305300A3E064017006125BBA121D2F1231FC7ECD
:10306300007F007408120A60E064FE7004A3E06449
:10307300FF703CE50C60179004BEE06402700F9093
:103083001A25126383120A60E8F0A3E98020850EF3
:1030930082850F83A3A3A3A3A3A3A3A3A3A3E05402
:1030A30002F9120C507408120A60EAF0A3EBF074F0
:1030B30008120A60E064FE7004A3E064FF70057503
:1030C30009C78072E50CF50A780A1207E1850E82BA
:1030D300850F83A3A3A3A3A3A3A3A3A3A3E0F9128D
:1030E30031F17409120A60125A8E120BC074011264
:1030F30007F0E97041A9081231F17408120A60124D
:1031030032E58A0A8B0BAE0AAF0BEE7001EF601E3D
:103113007402650C700D8E828F83A3A3A3A3A3E017
:10312300D2E3F0740A120A60E4F0F5098008740827
:10313300120A60125686E50C700F85108285118382
:10314300AA82AB83121B8C8010FCA9088510828590
:103153001183AA82AB83120E5AE9FAEE7001EF6073
:1031630053E50C60208E828F83A3A3A3A3A3E0D295
:10317300E6F07402650C700D8E828F83A3A3A3A364
:10318300A3E0D2E5F0850E82850F83A3A3A3A3A3B7
:10319300A3A3A3A3A3E0A2E6500D8E828F83A3A3D0
:1031A300A3A3A3E0D2E7F08E828F83A3A3A3A3A359
:1031B300A3E004F0E5097003EA602EFC7D007A01C8
:1031C3007B10121B2CEE7001EF60031231FC7408AC
:1031D300120A60E064FE7004A3E064FF600B7408ED
:1031E300120A60125BBE121D2F7416024BF0E50E1D
:1031F3002402FCE50F3400FD22E50E2402FAE50F5C
:103203003400FB120AB82274F712036F74F7120822
:103213006CEAFEEBFF900481E06403600DE064015F
:103223006008E0640960030232E08E828F83A3E0CA
:1032330060030232BC7C007D007A027B00121B2CEF
:10324300EE2402FAEF125662125F6A90047212556C
:10325300817953121B8679001232EC900481E06469
:1032630009600990047F125A8E120F1A74011253C7
:10327300F57404900481F07401120A60AA82AB838E
:10328300794A121B807401120A60AC82AD837A778B
:103293007B04121B4479007401120A60AC82AD8373
:1032A3009004751232E590046CE0A2E35004D2F06E
:1032B3008002C2F01253DB80218E828F83A3AE8201
:1032C300AF83FC7D007A037B10121B2C8E828F83CD
:1032D300E0F91232ECE4900481F0120D6A740902F1
:1032E300473A12516F120A9A2290047F12516F12B9
:1032F3000BBA22C082C083900441E07002A3E07045
:1033030041900481E01206AA000301183305273314
:103313000636334533900449E07002A3E0607B90A6
:1033230004498070900445E07002A3E0606C90044F
:10333300458061900447E07002A3E0605D9004471C
:103343008052900441E07002A3E0600512391370CB
:103353002379009004CD800909EA125DF7EB124945
:10336300B11245257001EB70EF9004CD125A8E1205
:103373000BA880269004421233A0A3A3A3E0640207
:103383007005120EEA80139004F5E07002A3E0606A
:10339300099004F51253D7121D2F02500E125737FE
:1033A300227A0F7B001213D68A0A8B0BAE0AAF0B5D
:1033B300EE22A3123DEEA322124A9390047F2274BD
:1033C300F412036F74EB12086C8A828B83A3A3A39A
:1033D300A37808120A3978081209CB900482780876
:1033E30012094A7D7F7E7F7C00750801750900758F
:1033F3000A00750B00EC780812077D9004827808A8
:1034030012093790807178081208C2602A7F0090F1
:1034130004CD801288828983A3A3E06C70010F120C
:103423005DF6E91249B11245937001E970E6EFC305
:103433009D5004EFFDECFE0CECC3941B40AB8A8261
:103443008B83A3A3A3A3C082C08390807178081247
:103453000A39D083D08278081208C2605BEA124727
:10346300E2FAE9FB8A828B837808120A3990048294
:103473007808120A2A8A828B837808120A398510FF
:10348300828511837808120A2A7404120A6074016F
:10349300F0900488E0C0E07405120A60D0E0F07494
:1034A30007120A60123611806590047F125A8E1239
:1034B3000BDE90047F125C029004CD1245937001E1
:1034C300E9602688828983125A8E90047FE06A70AD
:1034D30003A3E06B700A88828983A3A3E06E60C9AB
:1034E300125DF6E91249B180D2EE900474F0120D28
:1034F30058E9601AE4900481F090044BE07002A351
:10350300E0600B79C490044B1253D7121D2F024F66
:103513002974F412036F74EB12086C8A828B83A3F1
:10352300A3A3A3A3A3A3A3A3124593FAE9FB7C003C
:10353300750801750900750A00750B00EC7808120F
:10354300077D9004827808120937908071780812F9
:1035530008C26037901A24E0C0E08C08EA2508F519
:1035630082EB12282DFDD0E0C39D501F7508017515
:103573000900750A00750B00EC780812077D7808BE
:103583001209CB900482780812094A0CECC3941BED
:10359300409E9080717808120A397583047582827F
:1035A30078081208C260419004827808120A3985AB
:1035B30010828511837808120A2A7404120A60742F
:1035C30001F07407120A607401F0900488E0C0E00F
:1035D3007405120A60D0E0F07407120A6012361103
:1035E3007406900481F08023E4900481F0FCFD7A5A
:1035F300047B10121B2C90044BE07002A3E0600BC1
:1036030079C490044B1253D7121D2F024F29E41291
:103613005C10121B982274F212036F74ED12086C83
:10362300EAFEEBFF8E828F83A31238F78510828523
:103633001183AC82AD838E828F83A3A3A3A3A3A3A1
:10364300A312422E125A87120D7C85108285118394
:10365300E0706A8E828F83A3A3A3A3A3A3A3A3E093
:10366300C3940B4058850882850983A3A3A3A3A30E
:10367300A3A3A3E064027045900481E06402604266
:10368300E06406603D900441E07002A3E06005122F
:103693003913605E900481E064086005E06404709F
:1036A3001C7402120A60E0F97407120A60AC82AD5E
:1036B30083850882850983125A85120D8274130249
:1036C300257D900441E07002A3E07026750A00781E
:1036D3000A1207E1780A1207E11238E51249B1121A
:1036E300391CFCA3E0FD850882850983123FA512DE
:1036F30007F09004CD124C169004CDE0F50AA3E038
:10370300F50B80378E828F83E0F8A312391C687023
:1037130003A3E06970198E828F83A3A3E0FAE508FF
:10372300240DF582E50912282D6A70030237B28E43
:103733000A8F0BEE125DF7EF124C13EE7001EF7070
:10374300C37A187B001214488A0C8B0DAE0CAF0D94
:10375300EE7001EF70030236C09004CDE07002A357
:10376300E070059004CD800AE50A125DF7E50B12BF
:1037730049B11262048E828F8312567DEE240C129D
:1037830049AE74FFF0E48E828F83A3A3A3A3A31295
:103793004486A3A3A312392FE4F0A3F0E508240B76
:1037A30012639B1238DB12425EC41238DBA3F0743F
:1037B30001120A60123901A3F07402120A6012396D
:1037C30001F0E508240DF582E5091249B11233B67B
:1037D300A3125587A3A3A3123907125581740212AA
:1037E3000A60E0640160117407120A60AC82AD8361
:1037F300EE240D1238EE80117C087D0079FFEE2453
:103803000DFAEF3400FB1213C47412120A60E0C005
:10381300E0EE24151249AED0E0F0901AB0E0C0E01B
:103823001238E512282DFAD0E0C39A40030236C0BD
:10383300125E9DE5091249B1A3E05480F9E47001D9
:10384300E9700990120EE070030236C07404120A84
:1038530060123DE0A3A3700EE0704E7406120A607E
:10386300E070060236C0E060157405120A60E0C01D
:10387300E0EE240C12282AFAD0E0C39A502B8508D4
:10388300828509831263AE12557F1238E512282D03
:10389300C0E01249ABD0E0F07405120A60E0C0E06A
:1038A300EE240C1249AED0E0F07406120A60E06018
:1038B3000D74018E828F83A3A3A3A3A3A3F0740427
:1038C300120A60E070030236C074018E828F83A3F4
:1038D300A3A3A3A3F00236C0540F8E828F83A3A3A6
:1038E300A322E5082410F582E50922FAEF3400FB50
:1038F300121B4422A3A3E0F508A3E0F50922123D1D
:10390300E40243D012390B22E0F8A3E0F9025C2E63
:10391300900441123F7F640122E0F9850882850902
:1039230083A3A3A3A3A3A3A3A3A3E022A3F0EE24AF
:10393300161242492274F412036F74C912086C9070
:103943000481E06408606D900492E0F824A4F58299
:10395300E4341AF583E0F508900463F0E824AAF54B
:1039630082E4341AF583E0F509900461F0750AFFE7
:10397300750BFFE508780A120970E50AF4F8E50B00
:10398300F4F93395E0FA90048AE8FCE9FDEAFE12C3
:103993003AE8750AFF750BFFE509C39508780A1223
:1039A3000970E50AF4FCE50BF4FD3395E0FE9004A1
:1039B3008E123AE8E41253E97904121B86900492BA
:1039C300E07009741E120A6074018006741E120AE4
:1039D30060E4F0740F851082851183F0901A23122E
:1039E3005C0C7946121B867401120A60E4F0901A8B
:1039F30092E0C0E07402120A60D0E0F090046FE03D
:103A0300C0E07403120A60D0E0F07404120A60E4A8
:103A1300F07405120A60E4F07407120A60E4F0908F
:103A23000492E0C3940F500CE0C0E07406120A60E5
:103A3300D0E080077406120A60740FF07C937D0453
:103A43007408120A60AA82AB83121B447C037D00B4
:103A530079FF7410120A60AA82AB831213C4900414
:103A6300CBE0C0E07413120A60D0E01254B3120A20
:103A7300601254A2120E48900486E0C0E0741C1237
:103A83000A60D0E0F0900487E0C0E0741D120A6081
:103A9300D0E0F0900474E0C0E0741A120A60D0E041
:103AA300F090047F125F6A7418120A6012558174D1
:103AB30020120A60E4F0900489E0C0E0741F120A47
:103AC30060D0E0F07434120A60E4F07429120A60E2
:103AD300E4123AF37414120A60AA82AB83121B9E97
:103AE3007437024F2BECF0A3EDF0A3EEF0A3F0221A
:103AF300F07A727B047953123AFE22121B867A758E
:103B03007B04794B121B8622C082C0838A828B83FB
:103B1300A3E06007E4900481F0804A740890048174
:103B2300F0900492E0701F90044BE07002A3E060F9
:103B33000B790090044B1253D7121D2F90047F1260
:103B430049C47A05801A7900120BB49004721249A1
:103B5300C47A067B00121B2C9004751249C47A04A4
:103B63007B00121B2C02500E74F412036F74EA12C2
:103B7300086C8A088B09123C1BEE7001EF7003027C
:103B83003C168E828F83A3A3A3A3E0640160278ED8
:103B9300828F83A3A3A3A3E06402601A8E828F8320
:103BA300A3A3A3A3E06403600D8E828F83A3A3A3C7
:103BB300A3E06404705DE5082402FCE509123C30CF
:103BC30012637F120A60123C41120A607401F0749E
:103BD30013120A60125C0B121B928908AC087D0059
:103BE3007A077B00121B2C8E828F83A3A3A3A3A32C
:103BF300E0C2E0F074018E828F83A3A3A3A3A3A3E7
:103C0300A3A3A3F074028E828F83A3A3A3A3A3A36E
:103C1300A3A3F07416024F2BEA24020A0AEB340022
:103C2300FB120AAC8A0A8B0BAE0AAF0B223400FDDF
:103C3300851082851183AA82AB83121B4422E8F08C
:103C4300A3E9F0740A2274F712036F9004CDE0FA2B
:103C5300A3E0800CEA2416124C1012144EEEFAEF75
:103C6300FBEA7001EB70ED9004CDE4F0A3F00247A2
:103C73003D74F412036F8A088B09EA2413F582EB6F
:103C830012282D6403700DEA240BFAEB3400FB12A7
:103C93000AAC800DE064027075EA125E9FEB12635A
:103CA300A78A0A8B0BAE0AAF0BEE7001EF605F853C
:103CB3000882850983A3E0700DE48E828F83A3A31A
:103CC300A3A3A3A3804764F1600C850882850983BD
:103CD300A3E064E1701F8E828F83A3A3A3A3A3A396
:103CE300E064017010125BBA121D2FE508240BFA71
:103CF300E5091232038E828F83A3A3A3A3A3A3E0B8
:103D0300600C8E828F83A3A3A3A3A3A314F0024FFB
:103D13002E74F212036F8A0C8B0DECFEEDFF890BF0
:103D23008A828B83125DFC8A828B83123DE8EEF8D4
:103D3300EFF9A30EAF838A828B83A3A3E0C454F06D
:103D4300FA88828983E04A123DF7123DEE123DF272
:103D5300E0333354FCFA8E828F83E04A123DF2A3A0
:103D6300E033333354F8FA8E828F83E04AF008EF5E
:103D7300F9A30EAF83850C828B83A3A3A3A3A3A371
:103D8300E0A2E0E492E013135480FA88828983E08E
:103D93004AF0E50C2407F508EB3400F509750A0031
:103DA30078081207D97C08124D631207F0125F805E
:103DB300E50C240FF508E50D3400F5097808120722
:103DC300D97C03124D631207F0E50BC3940F400A2D
:103DD300123EB91249B1123DE0F0022580123DE4D2
:103DE30022E00238DDA3123DEEF022E0025C2E1247
:103DF3003DF7A322F0850C828B83A3A3A32274F245
:103E030012036FEAFEEBFF890B8C0C8D0D8E828FF4
:103E130083E08C828D8312448BAE82AF83E0124F9A
:103E2300BE123EDBC4124FBE123ECEE054038C8260
:103E33008D83123ED9A2E2E492E08C828D83123EFE
:103E4300D8131313541F124FBE123ED7A2E7E492A6
:103E5300E08C828D83A3A3A3A3123ECE8E088F0989
:103E6300750A0078081207D97C087D00E50C240741
:103E7300123EC21207F0125F808E088F0978081273
:103E830007D97C037D00E50C240F123EC21207F014
:103E9300E50BC3940F40148E828F83A3A3A3E0C0CA
:103EA300E0123EB91249B1D0E08007123EB912497F
:103EB300B1E4F0022580E50C2412F582E50D22FA27
:103EC300E50D3400FB1213B8740322A3A312448B31
:103ED3000EAF8322A3A3A3A3A3F08E828F83E0223A
:103EE30074F412036F74F912086CEAFEEBFF90048A
:103EF30041E07002A3E06010123F7864027009EEA3
:103F0300FAEFFB120EE4806890047FE06E7003A367
:103F1300E06F705C74016960097A937B04125C063C
:103F2300704E7A007B029004CCE0F91214F6EA702A
:103F330001EB703C9004827808120A39851082855F
:103F430011837808120A2A900488E0C0E0740412EE
:103F53000A60D0E0F07405120A607401F07406126E
:103F63000A607402125C0C120B66E96092120B6C0D
:103F73007407024F2B900441123F7F22124C02A37D
:103F8300A3E022E508240CF582E5091247DC8A82C6
:103F93008B83A3A3A3A3A3A3A3A3A3122EE98A8220
:103FA3008B8312516F120E42740222E0F902500EFB
:103FB30074F612036F9004DEE0701F7C0079017ABF
:103FC300007B00120DB8EA7001EB600E8A828B83CE
:103FD300E07002A3E06003120D100253CEC082C052
:103FE3008312446D401079FF120DB2E9FA90216CEF
:103FF300E493C39A500479018002790002500E744D
:10400300F112036F8A0A8B0B890E7509008A828B62
:1040130083A3A3A3A3A3A3A3A3E0F9120DBE8A0CB6
:104023008B0DAE0CAF0D750801EE7001EF6003024E
:1040330040D8850A82850B83A3A3A3A3A3A3124914
:10404300C4850A82850B83A3A3A3A3A3A3A3A3E08D
:10405300F9850A82850B83125A8E120DA68A0C8B60
:104063000DAE0CAF0DEE7001EF70030242158E82A0
:104073008F83A3A3A3A3E4F0A3F0E50A240BFAE53B
:104083000B125662E0C0E01249ABD0E0F0120EA86A
:10409300EE240C125BFB750901EE2406F8EF1263A4
:1040A3009E547FF0A3E054FC12425E54046003026A
:1040B300415C901A8BE0F50A750B007407780A12BD
:1040C30009708E828F83A3A3A3A3A3A3E0450AF061
:1040D300A3E0450BF08E828F83A3A3A3A3A3A3E046
:1040E3005480F50AA3E05403F50B7407780A120A07
:1040F3001BE50E607774028E828F83A3A3A3A312A2
:104103003ED7240D124238A2E2500990046D1242A8
:104113002C12557FE50A70030241E3EE2406F8EF03
:104123003400F9E8FAE9FB8A828B83E0547FFCA32D
:10413300E054FCFD74FF250AF50A74FF3400F50B07
:104143007407780A120970E50A4CF8E50B4DF98AF1
:10415300828B831255810241E38E828F83A3A3A3B3
:10416300A3A3A3E04480F0A3E00240D7E50A7005CF
:10417300750800806B8E828F83A3A3A3A3A3A3E000
:10418300542060171213D08A0A747F550AF8745F9B
:10419300288E828F83A3A3A3A380278E828F83A3DA
:1041A300A3A3A3A3A3E05410600E1213D08A0A742E
:1041B3000F550AF8740180D88E828F83A3A3A3A31B
:1041C3007401F0A3E4F074048E828F83A3A3A3A3EA
:1041D300A3A3A3A3A31244927001EB700312421F83
:1041E30074016509702F8E828F83A3A3A3A3125C2E
:1041F30023F9EEFAEFFB120DACE96019EE240C1271
:10420300282A7002A3E0600312423CEEFAEFFB128D
:10421300144E750800A9087F070205AD7A207B00BC
:104223009004CCE0F912140C22E0F8A3E0F98E829A
:104233008F83A3A32212606622EE240C124249123A
:10424300425522EE240FF582EF124250223400F53C
:104253008322E0FAA3E0FB12144E22125730E0222D
:1042630074F412036F7508001243047001EF7003B6
:104273000242FF8E828F83A3A3A3A3A3A3A3A3A31B
:10428300E064067077120DDC8E828F83A3A3A3A351
:10429300A3A3A3E05408F9E47001E9605C8E828F64
:1042A300831247487A007B00120DA0EA7001EB707D
:1042B3004812430A121BB67C007D007A007B008003
:1042C300228E828F831247427004A3E064FF602929
:1042D30012430A1218B0E9641A601E7C007D00EED6
:1042E300FAEFFB120DA08A088B09AE08AF09EE7036
:1042F30001EF70CD7900121BBC750801A908024FAC
:104303002E120DBE0233AB90047F125C2912516F43
:104313002274F712036F8A828B83E5827002E5832E
:1043230070099004DF80068A828B83A3A31245253C
:104333007001EB602C8A828B83A3A3A3A3A3A3A303
:10434300E05408F9E47001E960DDEC7001ED6015FB
:104353008A828B831225886C7003A3E06D70C880FA
:10436300047A007B0002473D74F212036F8A088BC4
:1043730009890AECFEEDFF7A0E7B00121448EA70FD
:1043830001EB603EE48A828B83A3A3A3A3A3A3A32D
:10439300A31243C8E50A125C88A3A31262008A82AF
:1043A3008B83A3A3A3A3E4F01243C8125C86126514
:1043B300F8EA240CF582EB1249BB125C87A3A3F045
:1043C300A3F00225801263788002A3A3A3A3A3A36F
:1043D300A32274F512036FEAFEEBFF890A8C088DA2
:1043E30009EE7001EF60597401650A7014790112C6
:1043F3000DB2E9FA902171E493C39A500F791180B9
:10440300647404650A703312446D40F18E828F83A5
:10441300A3A3A3A3A3A3A3A3A3E50A12448612659C
:10442300F68E828F83A3A3E4F0A3F09004DFE07001
:1044330002A3E09004DF601C800A7402650A60CC6A
:1044430079C1802112447CE07002A3E088828983D1
:10445300A3A370F0EEF0A3EF1244927001EB70038C
:1044630012421F79007F030205AD7904120DB2E9F0
:10447300FA90216EE493C39A22124A938882898325
:10448300A3A32212448BA322F08E828F83A322F054
:104493007A207B009004CCE0F91214F6EA22C08261
:1044A300C083E9FC79009004DF801D8A828B83A39B
:1044B300A3A3A3A3A3A3A3A3E06C600574FF6C70E1
:1044C30001098A828B83A3A31245257001EB70DB5C
:1044D30002500E74F712036F8A828B83E582700297
:1044E300E58370099004DF80068A828B83A3A3127D
:1044F30045257001EB60248A828B83A3A3A3A3A326
:10450300A3A3A3A3E06970E1EC60148A828B83E028
:10451300240D125EAFA2E240D080047A007B000239
:10452300473D12516FEA22C082C0839004DF8006A8
:104533008A828B83A3A31245257001EB60128A82C2
:104543008B83A3A3A3A3A3A3A3A3E06970E2800423
:104553007A007B0002500EC082C0839004DF800685
:1045630088828983A3A31245937001E9601B888223
:104573008983E0FCA3E0F5838C82E06A7003A3E007
:104583006B70DDE8FAE9FB80047A007B0002500ED1
:10459300124A93E82274F112036F8A0A8B0B8C0C74
:1045A3008D0D750800750900EA7001EB602E90040B
:1045B300DF80068E828F83A3A3124C16EE7001EF69
:1045C300601AAC0CAD0DEEFAEFFB850A82850B8306
:1045D300121D2FE9640170DB8E088F09AA08AB094D
:1045E30002421A79000207A274F712036F9004DFE4
:1045F300125F6A7C007D00800DE8FCE9FD888289FA
:1046030083A3A3125F6AE87001E96030EA6870026D
:10461300EB6970E59004DF125A8EE86A7002E96B69
:1046230088828983A3A37008125F6A9004DF8009DC
:10463300125F6A8C828D83A3A312558102473D7456
:10464300F712036FEAFEEBFFEE7001EF6016120D37
:10465300D612474E7002A3E0600312423CEEFAEF1B
:10466300FB12144E02473D74F712036F8A828B8349
:104673001247489004DF125F6A7508007E0080339A
:1046830088828983A3A3A3A3A3A3A3A3A3E064050D
:1046930070180E88828983E0FFA3E0F5838F82E0A0
:1046A3006C7003A3E06D7002050888828983A3A35D
:1046B300125F6AE87001E970C7902165E493FCE535
:1046C30008C39C500B902166E493FCEEC39C400FFF
:1046D3008A828B83A3A3A3A37401F0A3E480129023
:1046E300046D125F6A8A828B83A3A3A3A3E8F0A35A
:1046F300E9F074058A828B83A3A3A3A3A3A3A312C4
:104703006373A3A3A3E0F0A3E04408125C881247F9
:10471300427004A3E064FF601590047F1249C48AC9
:10472300828B83125A8E121BB0E9641A70057901C9
:10473300121BBC8005741F1207F07F010205AD1226
:10474300258C64FF2212258C022EEA12605F12422E
:10475300568E828F83124255EE240CF582EF124758
:104763006522124250E02274F712036F74E11208BB
:104773006CEA2413F582EB12282DC0E07411120A9F
:1047830060D0E0124A887409120A60124A81124703
:10479300E2FCE9FD8C828D83125F6A740B120A605E
:1047A300124A812414F582EB12282DC0E0741212F0
:1047B3000A60D0E0F0EA240E1247D58C828D831272
:1047C30049C4851082851183AA82AB83120CAA0285
:1047D3004738F582EB1247DC22124250E0F92224DB
:1047E30004F8EB3400F9E82274F412036F74FC123A
:1047F300086CEAFEEBFF120D8EE9600579110249A0
:10480300A68E828F8312595360031249B5EE241387
:1048130012282A7003741EF012282764017019905D
:1048230012DCE0600D900469E0700D8E828F83E0EE
:104833007006EE24111249B8EE241412282A7015BA
:1048430090045EE0C0E0EE24141249AED0E0F09094
:10485300045EE004F090046CE0A2E150468E828F87
:1048630083125953603D8E828F83E06008EE240BE0
:104873001249D0602EEE240F12282A54406017EEFE
:10488300241312282A6401700DEE240F12282A54CF
:10489300FB125830800DEEFAEFFB120DE8E97003BE
:1048A3000247FF8E828F83E064017015EE240B12A2
:1048B30025856402700BEE240F12282A44401258F7
:1048C30030EE240F12282A5440705490046CE0A256
:1048D300E1504C75080078081207E1EE2406FCEF5E
:1048E3003400FD8E828F83125A8CEE2412F582EFF0
:1048F3001247D8120CE674011207F0E96006124958
:10490300B512582A79008E828F83A3A3A3A31249D9
:10491300C48E828F83A3A31249C8600312582A85C9
:104923001082851183AC82AD83EEFAEFFB120E0089
:104933008A088B098E828F83A3A31249C4EA70016C
:10494300EB605C8E828F83E0C0E07401120A60D05A
:10495300E0F07402120A601262047401120A6085A4
:10496300820A85830B780A1207DDEE240F1249AE03
:10497300120625EE240E12282AF50A780A1207E1F8
:104983007405120A60E0F9120DFA74051207F0E9D2
:10499300FE74106E700BAA08AB0912144E80027ECF
:1049A30010EEF97404024F2BEE240BF582EF124242
:1049B3004C22EE2412F582EF12424CE4F022124212
:1049C30049122EE92212516F120C2CE9221242498C
:1049D30012258CF9120E7EE922C082C08374DE1286
:1049E300086C8A828B83A3A3A3A3125F6A740E123B
:1049F3000A60E8F0A3E9124A88740C120A60124AAA
:104A030081240DF582EB12282DC0E0741A120A607E
:104A1300D0E0F0125F617420120A60124A812415FB
:104A2300F582EB12282DC0E07408120A60D0E0F082
:104A3300EA241C125F647412120A6012558174FF17
:104A4300851082851183F07401120A6074FFF0747B
:104A530002120A6074FFF09080711206217404122E
:104A63000A60AC82AD837407120A60AA82AB831218
:104A73000BA274041207F07900742202500BE8F0C1
:104A8300A3E9F0EA22F08A828B83124A9122A3A33C
:104A9300E0F8A3E0F92274F012036F74EE12086CCD
:104AA3007410120A60125C028C0E8D0F890D742231
:104AB300120A60E0F50C7423120A60124C16750892
:104AC300107A1E7B001214487402120A60125C02F0
:104AD3007402120A60E07002A3E07003024BE875EF
:104AE3000900AA0EAB0F1253B47001E96023888248
:104AF3008983A3A3A3A3E06401600D88828983A3B0
:104B0300A3A3A3E064037009EE5440700474044F3C
:104B1300FF74045FF9E47001E9600375090185100E
:104B230082851183AA82AB8379501251BB120A602A
:104B3300124BF8A3125C027402120A60E0240B12F7
:104B430024397402F0120A60124BF87402F0120A4C
:104B5300601253D7E50EF0A3E50FF07402120A605A
:104B6300E0241B122439E50DF07402120A60E024DC
:104B73000C122439E50CF07410120A601251C4129D
:104B83000A60E0241C122439125C027408120A60C1
:104B9300126204740A120A60E50CF07425120A60AA
:104BA3001253D7C082C083740D120A60AC82AD83E6
:104BB300D083D082740312071DA9097402120A60FC
:104BC300AA82AB83120D94E964017011E5096008B0
:104BD300A90C120DBE120DE27508008008740212B2
:104BE3000A60124242A9087412800274021207F08A
:104BF3007F080205AD124BFE0243D0124C0222E0A5
:104C0300F8A3E0F58388820243D0EA240BF582EB14
:104C130012424CE0FEA3E0FF2274F012036FEAFE9F
:104C2300EBFF8C088D0974088E828F8312392FE075
:104C3300600874108E828F83A3F0EE241712282A43
:104C430060098E828F83A3E02408F0122827600571
:104C5300750E0E8003750E008E828F83A3E0C0E075
:104C6300EE240D1249AED0E0FAE02A250E8C828D97
:104C730083F01228276005124F332AF085088285B6
:104C83000983E0C394754003024D56E0124D6C70E6
:104C930001EB7003024D5CEEFAEFFB120E06EA85A0
:104CA3000C82850D83125865EE2402F8124D78129A
:104CB3004DA7F0EE24040808124D78A3A3124DA7C4
:104CC300A3A3F0EE2413124D90F0EE2414124D9092
:104CD300A3F0750808EE241612282A6013EE241890
:104CE3001249C1E50C2408FAE50D1238F0750810D5
:104CF300EE241712282A6010EE241A1249C1E50C7B
:104D03002508FAE50D1238F01249AB124D9A120735
:104D1300D9EE240D12282AFC7D008E828F83A3E016
:104D2300F8E50C28F8E50D3400F9E50E28FAE43926
:104D3300124D681207F0122827601EEE240D122868
:104D43002AFD8E828F83A3124D83600DAA0CAB0DB7
:104D530012144E750C00750D00AA0CAB0D024BF32B
:104D63007D00EEFAEFFB023EC8FA7B001214488A7C
:104D73000C8B0DEA22EF1263A2850C82850D832230
:104D8300E0FCAA0CAB0D7900121BFEE9221242498A
:104D9300124DAEA3A3A322E0F508A3E0F509750A1B
:104DA30000780822124DB9124DAE22E0850C82859F
:104DB3000D83A3A3A322A3A3125730A32274F61235
:104DC300036F8A828B83E0FC90046F124E49740256
:104DD3007808120970E5084CFCAD09EA2412124E5A
:104DE3004374067808120970E5084CFCE5094DFD8B
:104DF300EA2411124E4374097808120970E5094D2B
:104E0300FDEA2416124E43740B7808120970E50963
:104E13004DFDEA2417124E43740C7808120970E50D
:104E2300094DFD8A828B83A3A3A3A3A3A3124E4997
:104E3300740A7808120970ECFAE5094DFB0253CEA7
:104E4300F582EB12424CE0F50875090022124E542C
:104E530022124E59E022F08510828511832274F4C8
:104E630012036F8A088B09ECFEEDFFE98E828F83B4
:104E7300F012512DC0E0EE24111249AED0E01251D0
:104E830027C0E0EE24121249AED0E012511960039C
:104E93001251018E828F83A3A3A3A3A3A3A3A3E091
:104EA30060248E828F83A3A882A983E0FAE5082A6F
:104EB300FAE5093400FBEE24151249AEEAF0A3EB40
:104EC30012425E2408F08E828F83A3E0FA8A0AE5F9
:104ED30008250AF8E5093400F9EE241D12581B12BF
:104EE3003EDCC39AC0E0EE24171249AED0E012664E
:104EF30084E06030EE2417F508EF3400F5098508E7
:104F030082F583E024F2F0EE241DF8EF12639E2471
:104F13000EFAA3E03400FB88828983125C02124FED
:104F230033C39AF0800574151207F07F040205ADB0
:104F330090046AE0F9121BF8E9FA8508828509836F
:104F4300E02274F412036F8A088B09EA124FC5F04A
:104F5300EA1313543F124FBEA3A3A3F0EAC41313DF
:104F6300124FC5A3A3F0E48C828D83A3A3A3A3A3B1
:104F7300F08A0A8B0B7409780A120A1BE50A124F8E
:104F8300B5F0EC2418F582ED1249BB8A0A8B0B7439
:104F93000B780A120A1BE50A124FB0F0740C78085A
:104FA300120A1BE508124FB0A3F0024F2E124FB5A1
:104FB300A32254018C828D830243CE540F8C828DA5
:104FC300832254038C828D83A3A322C082C083795E
:104FD300008A828B83A3A3A3A3A3A3E090046960A5
:104FE3000FE070228A828B83A3A3E07019098016D5
:104FF300E060138A828B83125A85900472E06A7090
:1050030003A3E06B70E780031207F0D083D0820222
:1050130007A274F312036F8A088B09890CECFEED67
:10502300FF12512DC0E0EE24111249AED0E012510F
:1050330027C0E0EE24121249AED0E01251196003EA
:105043001251018E828F83A3A3A3A3A3A3A3A3E0DF
:10505300601B8E828F83A31250EFEE24151249AE8C
:10506300125581850A82850B83E02408F0EEFAEF5E
:10507300FB120E18E970728E828F83A3A3A3A3A3DE
:105083001233B57025E0FC8C0AE508250AFAE50918
:105093003400FBEE241D125BFBE50CC39CC0E0EE69
:1050A30024171249AED0E0F0803F1250EF740E285F
:1050B300F8E439F9EE241D1249AE12558190046AC1
:1050C300E0F9121BF8E9FA850A82850B83E0FCE517
:1050D3000CC39C24F2C39AFDEE24171249AEEDF0E3
:1050E300AA08AB097901121BFE025BEF85820A85D0
:1050F300830BE0F8E50828F8E5093400F922E50810
:105103002408F8E5093400F9EE241312581F124459
:105113008BE02408F022F074088E828F83A312663A
:1051230088A3E02212558BA3E0228A828B8312513B
:105133006F120E12850882850983A3A3125173E0AF
:10514300F9EA8E828F83A3A3A3A3A3A3A3A3A3F0AC
:10515300A3E9125839125173A3A3E0F9EAF8EE2434
:105163000B12581F12558BE022124250E0022847BF
:10517300E0FA850882850983A3A3A322C082C083A2
:105183007AE47B0479E2121B807AE47B0402500EFA
:10519300C082C083900472125A8E02500EC082C025
:1051A3008374FE12086C851082851183AA82AB83F7
:1051B300794B1251BB02500B121B80851082851153
:1051C3008312516F740222C082C083794A121B80FA
:1051D30002500E74F612036F9004ECE0FE04F0EE3E
:1051E300F9120DBEEA7001EB70EEEE60EBF90253BB
:1051F300CE74F012036F74FE12086C851082851151
:1052030083ECF0A3EDF08A0C8B0D89087413120A5A
:1052130060E0F50F750900750E0085108285118316
:10522300E0FC120F208A0A8B0BAE0AAF0BEE700163
:10523300EF7018E50F6003025362A9088510828599
:1052430011831253C1120F2C0253B1E5086020EEF3
:10525300240212282AF885080AE50A28F8E434000B
:1052630013E813F0700974018E828F83A3A3F0E512
:105273000F700302534B9004F7E07002A3E0600940
:105283009004F71253D7121D2F7412120A60E070A4
:10529300588E828F83E070030253B114F06402606E
:1052A300030253B1750E0190046CE0A2E1400302C6
:1052B300537DAA0CAB0D1253B47001E97003025372
:1052C3007DE50E600D88828983A3A3A3A3A3E0C217
:1052D300E0F0E50970030253B188828983A3A3A395
:1052E300A3A3E0D2E0F002538190046CE0A2E1506A
:1052F300439004F9E07002A3E0600DEEFAEFFB9037
:1053030004F91253D7121D2F8E828F83E0C39404A6
:105313005003E004F0E06403700A750901AA0CABC2
:105323000D120CF8E48E828F83A3F0E5096003026B
:1053330052AA807A9004FBE004F0FA901A8CE06A97
:10534300706C7509010252AA901AB0E0C0E08E8217
:105353008F83A3A3E0FAD0E0C39A50520252A774FA
:1053630001650F7049E508604590046CE0A2E150C7
:105373003DAA0CAB0D120CF88034E50960309004A3
:105383006CE0A2E15012AA0CAB0D120AA0E960086E
:10539300AA0CAB0D79008013120E30EA650C700372
:1053A300EB650D7009AA0CAB0D7901120BD2024B00
:1053B300EE120AA68A0A8B0BA80AA90BE822122E60
:1053C300E9AA0CAB0D22740D1207F07F020205ADA2
:1053D3008E828F83125A0122A2F0E492E01253E9E3
:1053E3007952121B8622851082851183F0AA82AB23
:1053F30083221253E97942121B862274F412036F3B
:1054030074EC12086C7401120A60AC82AD831254FE
:10541300F09080717808120A3975830475828A784E
:10542300081208C260097405120A607401800674C8
:1054330005120A60E4F09080717808120A397583C6
:105443000475828E78081208C260097407120A6014
:10545300740180067407120A60E41254B3120A60DE
:105463001254A27407120A60E0700B7405120A60EA
:10547300E07003E480027401851082851183F0904B
:105483001A1FE0901A1EFAE05AFA851082851183DA
:10549300E05A1253EF7941121B867414024F2BAA60
:1054A30082AB83120D767ACF7B047945121B862259
:1054B3001254E574012274F712036F74ED12086C31
:1054C300E9FE9004CB125A9F1254F07412120A6030
:1054D300EE1254E58510828511831254A2741302CF
:1054E300473AF0901A23E0F97CCF7D0422901A23E7
:1054F300E0F97ACF7B04120D7C2274F412036F8AD5
:10550300088B09901A25E064FE7004A3E064FF7021
:10551300617A161233A67001EF605774018E828F81
:1055230083125587E060047402800274018E828FB7
:1055330083A3F0E508241DF582E5091259428E8202
:105543008F83A3A3A3A3A3A3A3A3A312571BFCA368
:10555300E0FDEE24020A0A1238EFEE24131249AEDC
:10556300E4125591125E9DE5091249B1125BF412E2
:105573005581024F2E124A938E828F83A3A3E8F0A4
:10558300A3E9F02212558B2212583DA3A322F01255
:10559300559622EEFAEFFB9004CCE0F91213E222C7
:1055A30074F212036F74FD12086C8A088B09890C5C
:1055B3008C0D7401120A6074041258747001EF7038
:1055C3000302564FEE125E9FEF125F6774078882E5
:1055D3008983F0A3A882A983E5082408FAE50912C0
:1055E30056621256728A828B83125671850882859F
:1055F3000983A3A3A3A3A3A3A3A3A3A3E08882894B
:10560300831239307401F0EE24181249AE1265F892
:10561300125855EE241312566A7403650C6006740F
:1056230001650C700712565A7404800412565AE42A
:10563300F0901A251255787401650D7006EE241149
:105643001249B8EEFAEFFB120B5A80027910901A46
:105653002512568602257B1242467440F0A322345B
:1056630000FB8A828B8322F582EF12586D22A3E01E
:1056730088828983F0A308A98322A3A3A3A3A3A356
:10568300A3A3A374FEF0A374FFF02274F412036FB8
:105693008A088B097A007B0412239712571112553B
:1056A300817409900481F0120E248A0A8B0BAC0AD0
:1056B300AD0BE5082413F582E5091249B1125A8EA0
:1056C300125C06640170441233A47001EF603C74F1
:1056D300028E828F83F0E508241DF8E509122F3628
:1056E300125A8E8A828B83125CEAE0FBEC8E828FE5
:1056F30083A3A3F0A3EB125729123DEE12571BFA13
:10570300A3E0FB794A121B86125596024F2E900492
:1057130043124A93901A8922A3F0E5082415F582CF
:10572300E5091247652212573012573422F0022F2F
:1057330039E0F8A3125A08A3A3A32274F412036F47
:1057430074FD12086C8A088B097401120A607402D2
:105753001258747001EF7003025814EE125E9FEF3B
:10576300125F67740488828983F0E4A3125835E0DA
:1057730064017008742088828983A3F08508828578
:105783000983A3A3A3A3A3E0640170098882898387
:10579300A3E0D2E6F0850882850983A3A3A3A3A38C
:1057A300A3E06401700A88828983A3E0D2E78008BA
:1057B300EE24131249AE7401125835A3E06401704C
:1057C3000AEE241612584724188008EE241712589C
:1057D30047241A12581B12512764017009EE240F33
:1057E30012566AA3E4F0850882850983125955602D
:1057F3000BEE240F12282A440412583012585585F0
:105803000882850983125578EEFAEFFB120B5A8052
:105813000279107403024F2B12581F22F582EF12E4
:105823004250E8F0A3E922124246E04420F0A3E00C
:10583300F0221258392212583D22F0850882850938
:10584300830243D012586A850882850983124A91DC
:10585300EE22EE241712586A120E24EE241A124274
:1058630049EAF0A3EBF022F582EF1242507401F003
:105873002212638E0233AB74F612036F74F31208B1
:105883006CEAFEEBFF7C0D7D0079008510828511AB
:1058930083AA82AB831213C412593CF854206008C4
:1058A300740C120A607401F0E854806008740B12DF
:1058B3000A607401F0E85440600A740A120A6074C2
:1058C30001F0800A740A120A60E064017005EE2494
:1058D300138003EE24151249C17402120A60AA82CE
:1058E300AB83121B441249AB1259ED123C41120A0D
:1058F30060E064017033125948703B120E308A081D
:105903008B09A808A909EE240B12282A687003A39F
:10591300E0697022120E24EAFCEBFD7402120A60A5
:10592300AA82AB83125C06600D851082851183AA5F
:1059330082AB83120BCC0253C9EE241DF582EF1206
:1059430059FEA3E0228E828F83A3A3A3A3A3A3A3C1
:10595300A3A312595922E0FAA3E0FB120E9CE922F9
:1059630074F612036F74F312086C8A088B09ECFE49
:10597300EDFF7C0D7D007900851082851183AA825D
:10598300AB8312653CA3A3A3A3A3A3A3A3A312590D
:10599300EDE8F0A3E91259F3A3E0FAA2E550087485
:1059A3000B120A607401F0EAA2E75008740A120AA3
:1059B300607401F0EAA2E6EE500424138002241579
:1059C3001249C17402120A60AA82AB83121B448576
:1059D3000882850983A3A3E0C0E0740C120A60D097
:1059E300E0125C0C120BC60253C9124A93024E5AC0
:1059F300F0EE241DF582EF1259FE22124250125A84
:105A03000522E0F8A3E0F58388822274F712036F7E
:105A130074E112086CEAFEEBFF8E828F83123F7BE8
:105A2300A2E050538E828F83125A7D8A828B83A386
:105A3300A3A3A3A3A3E054FEF0A3E0125A9F8A8278
:105A43008B83125A92F98A828B83E0241CFAA3E097
:105A5300125662125A8E120E1EE9701B741D120A20
:105A630060125A997011851082851183AC82AD83BF
:105A7300EEFAEFFB120E72024738A3E0F9E8FAE9F7
:105A8300FB22A3A3A3A3A3A3A3A3A312516F22E067
:105A9300241B1260662212258C640422124E59AC18
:105AA30082AD8322E9FA790074046A600A740A6A8F
:105AB300600574036A7001090207A274F612036F8A
:105AC30074208A828B83F07401A3A3F0120B60EA23
:105AD3007001EB600774018A828B83F00253CEC09E
:105AE30082C083901A24023FAEC082C083E9901A19
:105AF30024F002500EC082C08374019004E1F0E9E7
:105B0300A2E350037403F0E9A2E15004E0D2E2F00F
:105B130002500E74F612036F79007C008A088B0919
