:020000040000FA
:06000000020A020201BC2D
:03002B000209A027
:030033000207952C
:030043000208743C
:03004B0002071198
:0300530002010E99
:03005B0002072079
:0300630002072C65
:03006B0002077B0E
:1000830002015801010503010300030003000300FB
:100093000300030003000300030005000A0014002B
:1000A30028004F009E000000F30EF30EF30EF30E34
:1000B300B50DAF0DF30E4A1B00000000AC1B000092
:1000C30000000C0000000C000100004910000000BB
:1000D300000000D91000000000000000009B05FF95
:1000E30001010100DF0D0000002F0EE8036400642E
:1000F30000B8010202000800000501071E02051EE8
:1001030003B80B0134120202020605C0E074F212B6
:1001130003C8E5A7FAE5A1FBEA5B541060081215D2
:10012300EF53A1EF802AEAA2E0C0D0EBA2E092F065
:1001330012097A158182F05017906198E0FA9011B4
:1001430042E0C39AA2D265D0335002EAF053A1FE33
:100153007F0102047FC0E074F21203C89061A4E03F
:10016300FA759B00E5915A540860087591F71216C9
:1001730031802AE5915A541060087591EF121637B1
:10018300801BEAA2E0C0D0E591A2E092F012097AC6
:10019300158182F05007E0C2E0F01217579061A377
:1001A300E0FAE5E95A5404600E12172D75E9FB9045
:1001B3006193E0A2E640F28097C0E074F21203C8B4
:1001C3009061A5E0FAE5BF5A5404600653BFFB12E1
:1001D300176F020153C3E498F8E499F912021980E6
:1001E30026C3E49AFAE49BFBE920E7E9120219E447
:1001F30098F8E499F922C3E498F8E499F9120219FA
:10020300E498F8E499F9C3E49AFAE49BFB22EB201F
:10021300E7CFE920E7E0B90010BB0008E88AF084E3
:10022300F8AAF022E4FBC8FA22EB70227B10C83351
:10023300C8C933C9335007C39AC3DBF280069A5047
:10024300012ADBEAC833F4C8C933F4C9FA2275F0CA
:1002530008E4C833C8C933C933C99AC99B5004C910
:100263002AC93BD5F0ECFBC833F4C8E4C9FA220829
:100273000808EAC0E0EBC0E086F0E7A4FA180986B4
:10028300F0E7A42AFA180986F0E7A42AFA180986DF
:10029300F0E7A42AFA1986F0E7A4FBE5F02AFA1995
:1002A3000886F0E7A42BFBE5F03AFA190886F0E795
:1002B300A42BFBE5F03AFA18180986F0E7A4C5F079
:1002C3002BFBE43AFA1908E7C5F0C6A426F6E5F0D5
:1002D3003BFBE43AFA1886F0E7A4F6E5F00826F6C5
:1002E300E43B08F6E43A08F6D0E0FBD0E0FA22E477
:1002F300CFC0E0E4CEC0E0E4CDC0E0E4CCC0E07524
:10030300F020C3E633F608E633F608E633F608E6EC
:1003130033F6181818EC33FCED33FDEE33FEEF33F0
:10032300FFC3EC9709ED9709EE9709EF9719191990
:10033300400FFFEC97FC09ED97FD09EE97FE1919A5
:1003430006D5F0BEECF709EDF709EEF709EFF7195B
:100353001919D0E0FCD0E0FDD0E0FED0E0FF22256B
:1003630010C582C0E0E51134FFC583C0E0E510C3CA
:10037300958224F8F8E4C5A8858311858210C5A861
:10038300E8CEF0A3E520F0A37808E608F0A3DEFAB0
:10039300EFF0A3E58124FAF8E608F0A3E608F0A35A
:1003A300E608F0A30808E608F0A3E608F0A3158121
:1003B3001581D0E0FED0E0F8158115811581E8C0E4
:1003C300E0EEC0E022C0D02510C582C0E0E51134C4
:1003D300FFC583C0E0E510C3958224F310AF088501
:1003E30083118582108008858311858210D2AFC85E
:1003F300F0A3E9F0A3EAF0A3EBF0A37908E709F08F
:10040300A3D8FAECF0A3EDF0A3EEF0A3EFF0A3D0A2
:10041300E0F0A3D0E0F0A3D0E0F0A3E520F0A3E563
:10042300F0F0A322120A4CB90003020469E4900419
:1004330000783379118002F0A3D8FCD9FA901432F2
:10044300AA82AB83900086788979018015E493A30F
:10045300AC82AD838A828B83F0A3AA82AB838C8226
:100463008D83D8E9D9E77582FC7583C474021205BC
:100473001B7582F7758319740012051B851183851B
:100483001082E0C0E0A3E0F9A3E0FAA3E0FBA378C5
:1004930008E0F608A3DFFAE0FCA3E0FDA3E0FEA377
:1004A300E0FFA3E0C0E0A3E0C0E0A3E0F5D0A3E059
:1004B300F520A3E0A3F5F0E4C5A885831185821098
:1004C300C5A8D082D083D0E0F8D0E032D083D082E8
:1004D300ECC0E0EDC0E0E493A3FCE493A3FDED4C9A
:1004E300600D1205ABEC24FFFCED34FFFD80EFE45F
:1004F30093A3FCE493A3FDED4C600D1206BCEC2426
:10050300FFFCED34FFFD80EFD0E0FDD0E0FCE49391
:10051300A3C0E0E493C0E022C0F0F5F0E59F5407E8
:10052300C0E0E59F54F845F0D0F0F59FE473859F54
:10053300F053F0F8D0E045F0F59F22D083D082E568
:100543009F5407C0E0E493C0E0740193C0E07402D9
:10055300935407C0F0F5F0E59F54F845F0D0F0F55B
:100563009F22D083D082E9C0E0E493A3C386F0C581
:10057300F095F0F908E493A386F0C5F095F0700BBD
:10058300E493A3C3994005E9048002A3E475F00250
:10059300A42582F582E5F03583F583D0E0F9E49371
:1005A300A3C0E0E493C0E022C0E0C3E493960874E0
:1005B30001939618400FE4936670080874019366DC
:1005C3001870007019A3A3C3E4939608740193965B
:1005D30018A3A3400DD0E0D0E0D0E002050BA3A305
:1005E300A3A3A3A3D0E022851183851082E0A3FEF9
:1005F300E0A3F5207808E0A3F608DFFAE0A3FFE024
:10060300A3C0E0E0A3C0E0E0A3C0E0E0A3C0E0E05B
:10061300A3C0E0E4C5A8858210858311C5A8D08353
:10062300D082020531D083D082C5F0E493A3C5F014
:10063300C395F0F5F0E493A3C395F04005E5F0040A
:100643008001E475F002A42582F582E5F03583F597
:1006530083E493A3C0E0E493C0E0227404800474B1
:10066300028000CCC0E0EDC0E0E510C39CCCAD112E
:1006730050011D10AF068C108D1180068C108D114A
:10068300D2AF12075AD0E0FDD0E0FC227402800002
:10069300CCC0E0EDC0E0E510C39CCCAD1150011D12
:1006A30010AF068C108D1180068C108D11D2AF12F5
:1006B3000738D0E0FDD0E0FC22C0E0C0F088F0E4D1
:1006C300936670080874019366187000A8F0A3A3DA
:1006D300700BD0F0D0E0D0E0D0E002050BA3A3D0A4
:1006E300F0D0E022D083D082CCC0E0E493A36006B4
:1006F30012079B1470FAE493A3600612088B14701C
:10070300FAD0E0FCE493A3C0E0E493C0E022C0E0AD
:1007130074F21203C812152F7F0102047FC0E07424
:10072300F21203C812153580EFC0E074F21203C849
:1007330012153B80E3CAC0E0E493A3C582CCC58213
:10074300C583CDC583F0A3C582CCC582C583CDC582
:1007530083DAE5D0E0CA22CAC0E0E0A3C582CCC5F3
:1007630082C583CDC583F0A3C582CCC582C583CDA5
:10077300C583DAE6D0E0CA22C0E074F21203C8E50A
:100783008AA2E650031214FF758A00C2C57F0102D4
:10079300047F758B00C2E832C0E0E493A3D39C507E
:1007A30010E493A3C39C400AD0E0D0E0D0E002075A
:1007B30004A3A3A3D0E02270090808082260161836
:1007C3001818C6C333C608C633C608C633C608C618
:1007D30033C6D5E0EA227404800A740380067402E7
:1007E30080027401C0E0F4041207F4D0E0120A3F5F
:1007F300222510F58210AF08F5104002151180086C
:10080300F51040021511D2AF85118322BB0102E717
:1008130022C082C08389828A83BB0003E08002E412
:1008230093D083D08222C0D0251010AF08F510508A
:100833000205118008F51050020511D2AFD0D02265
:100843006016080808C6C313C618C613C618C6130D
:10085300C618C613C6D5E0EA22C3E0C696F608A3B7
:10086300E0C696F608A3E0C696F608A3E0C696F699
:1008730022C0E074F21203C8C2C0E5D1A2E450035F
:100883001215657F0102047FC0E0E493A36C700935
:10089300D0E0D0E0D0E0020704A3A3D0E0222510EB
:1008A30010AF08F510400215118008F5104002152D
:1008B30011D2AF22E066701008A3E066700A08A3A5
:1008C300E066700408A3E06622C3E09608A3E096FE
:1008D30008A3E09608A3E096A2D265D03322C3E032
:1008E30096F008A3E096F008A3E096F008A3E0963C
:1008F300F022E657F60809E657F60809E657F60820
:1009030009E657F622E026F608A3E036F608A3E048
:1009130036F608A3E036F622E627F60809E637F6A8
:100923000809E637F60809E637F622E647F6080926
:10093300E647F60809E647F60809E647F622E02601
:10094300F008A3E036F008A3E036F008A3E036F0A1
:1009530022E056F008A3E056F008A3E056F008A3FF
:10096300E056F022E056F608A3E056F608A3E05658
:10097300F608A3E056F622C0E0E8C0E0E58124FCD7
:10098300F8E6A2E7D0E0F8D0E022700422600D1868
:10099300C6C333C608C633C6D5E0F41822C0E07414
:1009A300F21203C8C2C71216737F0102047FE4C3A5
:1009B30096F608E496F608E496F608E496F622C35B
:1009C300E7960809E7960809E7960809E79622607B
:1009D3000D08C6A2E713C618C613C6D5E0F322C690
:1009E300F4C608C6F4C608C6F4C608C6F4C622C3CD
:1009F300E09608A3E09608A3E09608A3E096227584
:100A0300D000758140751000751104000204276041
:100A13000C08C6C313C618C613C6D5E0F422E6F005
:100A230008A3E6F008A3E6F008A3E6F022E0F60840
:100A3300A3E0F608A3E0F608A3E0F622CAC0E0E6C6
:100A4300F0A308DAFAD0E0FA2274F855C74401F5A6
:100A5300C77901222510F582E43511F583221205A9
:100A63003E7DA40112053EA7A40112053EE2A401A6
:100A730012053E22A50112053E7FA50112053E2067
:100A8300A60112053EBBA60112053E51A7011205A0
:100A93003E7DA80112053EF6A80112053E3BA901C1
:100AA30012053EAAA90112053E1EAB0112053E3AEC
:100AB300AB0112053E9CAB0112053E3CAC01120595
:100AC3003E7EAC0112053E1BAD0112053ED7AD01C2
:100AD30012053E39AE0112053EA8AE0112053EFBDA
:100AE300AE0112053E34AF0112053E08B0011205F6
:100AF3003E28B10112053E7FB10112053EC8B10186
:100B030012053EF0B10112053E71B20112053EEF2E
:100B1300B20112053E58B30112053E69B301120535
:100B23003EEEB30112053E93B40112053ED5B40166
:100B330012053E5BB50112053E8EB50112053ECF8F
:100B4300B50112053E4BB70112053E01B90112056D
:100B53003EE9B90112053ECBBB0112053ED5BB01EF
:100B630012053EDFBB0112053EE9BB0112053EF350
:100B7300BB0112053EFDBB0112053E07BC01120578
:100B83003E2BBC0112053E4FBC0112053EA8BC0121
:100B930012053EFFBC0112053E1DBD0112053EA21A
:100BA300BD0112053EDEBD0112053E1EBE0112054A
:100BB3003EA81D0012053EF41D0012053EA41F00B1
:100BC30012053EE21F0012053E7B200012053EAFD8
:100BD300200012053EF3200012053E0B22001205F1
:100BE3003E80220012053E3A250012053E282600CB
:100BF30012053ECD260012053EE2270012053E0CEB
:100C03002B0012053E992B0012053ED62B00120530
:100C13003E9C2C0012053E392D0012053E832D000B
:100C230012053EB02D0012053ED22D0012053EE8FE
:100C33002F0012053EA9300012053E0931001205AE
:100C43003E6C310012053E35320012053E6A320019
:100C530012053EBE320012053EF3320012053E433A
:100C6300330012053E9E330012053E223400120566
:100C73003E50350012053E0B360012053E2F37005D
:100C830012053EBB380012053E4B390012053E14D7
:100C93003A0012053E9D3A0012053EE43A00120561
:100CA3003E5A3C0012053E6E3C0012053E8B3C0052
:100CB30012053EB53C0012053EC13C0012053EDF65
:100CC3003C0012053EA63D0012053ED03D00120534
:100CD3003EDD3D0012053E6D3E0012053E513F00D4
:100CE30012053E4D400012053EE0400012053E70E5
:100CF300410012053E87410012053EAB410012053B
:100D03003EC9410012053E0D420012053E674200F6
:100D130012053E8F430012053EAD440012053E0C02
:100D2300450012053EC4450012053EEA4500120582
:100D33003EDD460012053EFC460012053E784700A4
:100D430012053EE0470012053E0C480012053E57CF
:100D5300480012053E8B480012053EFC4800120570
:100D63003E57490012053E63DC0212053EAEDC022B
:100D730012053EB74A0012053E024B0012053E5DC6
:100D83004B0012053EAE4B0012053EC94B00120547
:100D93003EFF4B0012053E204C0012053E2A4C003C
:100DA30012053E3F4D0012053E5D4D0012053ECD3E
:100DB3004D0012053EE04D0012053EEE4D001205BA
:100DC3003E8F4E0012053E634F0012053E7E5000DB
:100DD30012053EFA500012053E04510012053E77FB
:100DE300510012053E8E510012053ED051001205EE
:100DF3003E0E520012053E3D520012053E74520053
:100E030012053E92520012053EB6520012053EF7FD
:100E1300520012053EE2530012053E28540012050B
:100E23003E53540012053EC0540012053EE75400E1
:100E330012053E2C550012053E3A550012053E930D
:100E4300550012053ED0550012053E1756001205F7
:100E53003E48560012053E6B560012053E7656007C
:100E630012053E94560012053E50570012053E5A95
:100E7300570012053E99570012053EAF5700120561
:100E83003EB8570012053EFC570012053E105800AD
:100E930012053EFB580012053E0E590012053E2373
:100EA300590012053ECB590012053E175A00120590
:100EB3003ECD5A0012053ED85A0012053E265C006C
:100EC30012053E525C0012053E935C0012053EADD6
:100ED3005C0012053EE45C0012053E475F0012050C
:100EE3003ECF5F0012053E4F600012053E92620046
:100EF30012053EA2620012053EA5620012053EB134
:100F0300620012053EC5620012053EE4620012054E
:100F13003E17630012053EDC630012053E43640086
:100F230012053EA7640012053E31650012053EE23C
:100F3300650012053E09660012053E99660012051A
:100F43003EA5660012053ED4660012053EF6660015
:100F530012053E1D670012053E82670012053E35ED
:100F6300690012053E38690012053EA269001205A8
:100F73003E956A0012053E7A6B0012053E056C0031
:100F830012053E486D0012053E0B6E0012053E44ED
:100F93006E0012053E756E0012053E7E6E00120550
:100FA3003E626F0012053EF26F0012053E90700024
:100FB30012053E50710012053EC9710012053EF83C
:100FC300710012053E35720012053E9DF2011205B5
:100FD3003EABF20112053E27F30112053E5DF3011C
:100FE30012053EA4F30112053EC5F50112053ECAE2
:100FF300F70112053EA6FA0112053ED4FA011205C5
:101003003EF6FA0112053E5FFB0112053E9BFB0112
:1010130012053ED6FB0112053E13FC0112053E806C
:10102300CE0212053E99CE0212053EE6CE0212050D
:101033003E30CF0212053ED3CF0212053EE2CC0270
:1010430012053E28CE0212053E47A10212053EC6F6
:10105300A10212053ED1A10212053EF8A10212051A
:101063003E0CA20212053E81A20212053EB1A2026B
:1010730012053EA0A30212053E4BA40212053EA197
:10108300A40212053EDCA40212053E11A5021205BC
:101093003E69A50212053E96A50212053EEDA50284
:1010A30012053EED7D0012053E047E0012053E9FB3
:1010B3007E0012053E4E7F0012053E7D7F00120525
:1010C3003EE6BA0212053E61BB0212053E6CBB024C
:1010D30012053E91BB0212053E42880212053EDE16
:1010E300880212053E11890212053E4C890212053F
:1010F3003E70890212053E90890212053EF989026B
:1011030012053E378A0212053E8D8B0212053EAE52
:101113008B0212053ECF8B0212053E248C02120570
:101123003EC58C0212053EFC8C0212053E5F8E0208
:1011330012053E178F0212053E32900212053E5EE3
:10114300900212053E68900212053EAE900212050F
:101153003E57910212053E7D910212053E3F9202D7
:1011630012053E48920212053E9E920212053EC9A6
:10117300920212053E2E930212053EA1930212051E
:101183003EE7930212053ED6A10112053ED094021A
:1011930012053E36950212053E75950212053E87ED
:1011A300950212053E99950212053EB89502120565
:1011B3003E6F960212053E3DD80212053E00DD0247
:1011C30012053E1BCB0212053E7ACB0212053EA34B
:1011D300CB0212053EA6CC0212053E62A401120503
:1011E3003E1EC10112053E5AC10112053E1AC3013A
:1011F30012053E5CC30112053EFAC40112053E41CD
:10120300C50112053E1DC60112053EA8C601120501
:101213003E45C70112053E9EC70112053EDEC701CA
:1012230012053E84C90112053E2BCB0112053E7106
:10123300CD0112053E7FCD0112053EDCCD01120525
:101243003E31CE0112053E7CD10112053EE3FF0182
:1012530012053E43B50212053E5BB50212053EF789
:10126300B50212053E38B60212053E55B602120506
:101273003E78B60212053EAEB60212053EE5B60250
:1012830012053E0CB80212053EB7D30212053E27E3
:10129300D40212053E44D40212053E89D40212053B
:1012A3003EB8D40212053ECDD40212053E7672003A
:1012B30012053EC5720012053E61730012053EEA37
:1012C300730012053E34740012053E91740012053A
:1012D3003EA5740012053E74760012053EF37600B7
:1012E30012053E1D770012053EC0780012053EDD53
:1012F300780012053E1E790012053E53790012054F
:101303003EAC790012053EC7790012053E3F7A00D4
:1013130012053ED97B0012053E017C0012053E2AD0
:101323007C0012053E8A7C0012053EA77C00120554
:101333003EAA7C0012053EAD7C0012053E1F7D00D7
:1013430012053E507D0012053EB77D0012053EEAB0
:101353007D0012053E6DDB0212053E79DB021205AC
:101363003EC1DB0212053EBED10112053EE9D101A9
:1013730012053EA0D20112053EFDD20112053E59CF
:10138300D30112053EA5D30112053E0DD40112056A
:101393003EA2D40112053E18D50112053E54D501D3
:1013A30012053E85D90112053E2FDB0112053E5879
:1013B300DB0112053E1EDC0112053E08DD011205AC
:1013C3003E0DDF0112053E39DF0112053E4DE001FE
:1013D30012053E5BE20112053E1BE30112053E9B33
:1013E300E30112053EAAE30112053E3AE4011205A8
:1013F3003EA4E40112053E71E50112053E9CE501A0
:1014030012053E56E60112053EA7E60112053E11FE
:10141300E70112053E23E80112053EB5E801120576
:101423003E00E90112053E75EA0112053E14EB0187
:1014330012053EA9EB0112053EFEEB0112053E6CBF
:10144300EC0112053ED3ED0112053EE6EF01120554
:101453003E7CF00112053E4AF10112053EBCDD025D
:1014630012053EC5DD0212053E3CC00212053EA434
:10147300C00212053E51C10212053EB7C102120558
:101483003E28C20212053EADC50212053E48D102F6
:1014930012053E8DD10212053E41D20212053E4E87
:1014A300C90212053E5CC90212053ECADD021205DD
:1014B3003E35DA0212053E45DA0212053E60DA02D3
:1014C30012053EC8DA0212053EE7D40212053E0EAB
:1014D300D50212053E97D50212053EFED50212052E
:1014E3003EDD9D0312053E17D60212053E39D60294
:1014F30012053EABD60212053ECAD60212053E0CB9
:10150300D70212053E27A60212053E35A602120592
:101513003EB5A60212053EA1A70212053E3BAA0252
:1015230012053EEACF0212053E25D00212053E49BE
:10153300D00212053EA7D00212053E09D1021205C0
:101543003E0E9C0212053E8D9C0212053E3B9D02FF
:1015530012053EAC9D0212053EB49E0212053E35B5
:10156300A00212053E94A00212053EEAA002120553
:101573003EF3A00212053E02A10212053E15A1028E
:1015830012053E2BA10212053E34A10212053E951F
:10159300960212053EE6960212053E709902120566
:1015A3003EA8990212053ECD990212053EE6990224
:1015B30012053EFF990212053E349B0212053ECFEF
:1015C3009B0212053E34C70212053E77C70212057D
:1015D3003E88C70212053EBBC70212053EF2C70290
:1015E30012053E27C80212053E9FC80212053EDCC3
:1015F300C80212053EA0BD0212053EC8BD02120577
:101603003E05BE0212053E17BE0212053E33BE0260
:1016130012053E9BBE0212053EA4BE0212053E0504
:10162300BF0212053E29BF0212053EF0BF0212059A
:101633003EFDBF0212053E0EC00212053EF7DB025D
:1016430012053E44DC0212053EDBAE0212053ED11A
:10165300AF0212053EDEAF0212053EFBAF021205DA
:101663003E12B00212053E27B00212053EABB00295
:1016730012053E7EB10212053EEBB10212053E3465
:10168300B20212053E44B20212053ED2DA0212053C
:101693003EF7DA0212053E20DB0212053E48DB026A
:1016A30012053EB4C20212053ECDC20212053ED956
:1016B300C20212053EEDC20212053E11C30212051B
:1016C3003E1DC30212053E2CC30212053E3FC30258
:1016D30012053E72C30212053EACC30212053EDE82
:1016E300C30212053E2DC40212053E79C40212053F
:1016F3003E91C40212053E9BC40212053EACC402D5
:1017030012053EF1C40212053EB8DC0212053E008A
:10171300800212053E2C800212053E48800212050B
:101723003E5B800212053E71800212053EDA8002A2
:1017330012053E0D810212053E73840212053E9A84
:10174300850212053ECA850212053E318602120544
:101753003E1D870212053E45870212053E5A870247
:1017630012053E6A870212053EAB870212053E0050
:10177300880212053E16880212053E80D202120527
:101783003E9BD20212053EC4D20212053EDED202B5
:1017930012053E03D30212053E22D30212053E3B3D
:1017A300D30212053E6AD30212053E85D302120507
:1017B3003E46DD0212053E51FC0112053E58FC0176
:1017C30012053E65FD0112053E97FD0112053EBD62
:1017D300FD0112053EF0FD0112053E02FE01120558
:1017E3003E3DFE0112053EADFE0112053EEAFE013D
:1017F30012053E37FF0112053E65FF0112053E85C6
:10180300FF0112053E30D70212053E42D7021205F0
:101813003E3AD80212053E3ED90212053E94D90241
:1018230012053ED2D90212053E13DA0212053EA07A
:10183300AA0212053E0EAB0212053E36AC02120599
:101843003ED7AC0212053EB4AD0212053E0FAE0206
:1018530012053E7DAE0212053E24B80212053E403B
:10186300B80212053E89B80212053EA5B802120558
:101873003ED6B80212053EFDB80212053EEAB90291
:1018830012053EF4B90212053E01BA0212053EBA30
:10189300BA0212053ECEBA0212053ED7BA021205AB
:1018A3003E53B20212053E3EB50212053E86DD02EC
:1018B30012053ED27F0012053EAEA10112053E90F5
:1018C300A10112053ECAA00112053E2BA00112057B
:1018D3003EDC9E0112053E719C0112053EE99B010F
:1018E30012053EC5980112053E91980112053E6806
:1018F300980112053E44980112053E939701120583
:101903003E3C970112053EAC950112053EA9950197
:1019130012053E75940112053E55940112053EAB26
:10192300930112053E23920112053EEA910112052D
:101933003E00A40112053E3AA30112053E91A20105
:1019430012053EBB910112053EB8910112053EA856
:10195300910112053E9A910112053E1BA201120547
:101963003E8B910112053E6A900112053EEE8F01F6
:1019730012053EBB8F0112053E3AC00112053EE837
:10198300A10112053E638F0112053E368F01120538
:101993003E508C0112053E768B0112053E0C8B01E5
:1019A30012053ECC8A0112053EC08A0112053E2D66
:1019B3008A0112053E84890112053E318701120511
:1019C3003E15840112053EDF830112053E77820135
:1019D30012053E2A820112053E6B810112053EC4A7
:1019E300800112053E63800112053E9D80011205B0
:1019F3003E4C940200000080FBE473000136360184
:101A030001000102010001030100010401060605B2
:101A1300020000070100340801000F090401010D51
:101A23000100FF0E08000017020000190100FF1A51
:101A33000100011B0100051C0100081D0200001F1D
:101A430001000120010001210200002301000F24F5
:101A53000200002601000127010308280200FF2AD3
:101A63000100072B0102402C0100002D0100012E73
:101A73000100012F0100FF30010B1C310800003A67
:101A8300010008010171010101010111010101318D
:101A930001010101018001100161013B0014006398
:101AA3000173017201620143010001130106013D4B
:101AB30001350004011201000100010001000104CD
:101AC300010401330133013C0144013201360000BA
:101AD300010001650100013500810100010501825A
:101AE30001830100010302710230016002110270DF
:101AF300020102020202028002100261023A004164
:101B0300006302730272026202430200021302388C
:101B1300000002000204021202000200020002009E
:101B23000204020402370037003C02440200023977
:101B33000000020002650200023502810200020574
:101B4300028202830200020300710030016000116F
:101B53000070003102200350048000100061000077
:101B6300001400630073007200620043000000135E
:101B73000006000000000004001200000000000046
:101B830000000004000400370037003C024400005A
:101B93000000000000000065000000350081000027
:101BA300000500000083000000010371030103012D
:101BB30003010301030103220302030103100300D2
:101BC30003000300030003000300030003420300B8
:101BD3000324030603000300030403120325032362
:101BE3000325032303040304030003000300034446
:101BF300030003000323030003650321003503816E
:101C0300030003050300030003000336000100067D
:101C13000000000F000000000000000000000000B2
:101C23000003FFFF00000403FFFF0000FFFF0FF4AA
:101C3300010005C4040320000100000B00000000A4
:101C430000000000030101000F1402007F130300D2
:101C5300851304008B130500911306009D131100D7
:101C6300B5131400BB131500AF13FFFF00000300EF
:101C730003000400080010001F003E007B00F60074
:101C8300EC01D703AF075D0FB91E713D00000F0EC6
:101C93003F0E150E1B0E390E2D0E270E450E4B0E45
:101CA300510E5D0E210E090E030ED5C5C5B5A5A5B2
:101CB30095858575756565555545453535252515D1
:101CC300050A170C02E70B05F90B07ED0B0CD50BF7
:101CD3000DE10BFF00009C36063A703DD9404344AA
:101CE300AD47174B814EEA5100160F00000B150B41
:101CF300020002220F320000065677777777777754
:101D0300777777777777777777000102030405068C
:101D13000708090A0B0C0D0E0FF30E050F0B0FD955
:101D23000D110FD30DDF0D6B0F890F8F0F710F7D0A
:101D33000F770F00034948424D181725050200018C
:101D430019161816161523030030301718192130E9
:101D53001B1D1F300C0E020B040B0A0708000F306B
:101D63003016181920231A1C1E3000383C3E363B0F
:101D73003B352B432C330E570E830F630E690E5FD7
:101D83000F170F1D0F290F230F0005150D0910083D
:101D93000400000000000000BE040A04000E00045A
:101DA30005080F040CC082C083E99004B7F0E490E7
:101DB300046CF01218059004BBE4F0A3F09004B88F
:101DC300F0A3F0120D3112180B90043CE4F0A3F0D1
:101DD3009004CBE07002A3E060099004CB123DEFC6
:101DE3001219FC901DA5E493FA790212188F023A96
:101DF300DD74F2120362EAFEEBFF74805FF9E470B4
:101E030001E97063EEA2E0507B900471E0640F700F
:101E13000B7900120BBDE96003121F9A74016EFA6D
:101E2300EFFB021F860BEB75F003A424C4F8E5F067
:101E3300341CF988828983E493FA74FF6A602185EC
:101E43000882850983E06A70DCAA08AB0988828965
:101E530083A3E493C0E0740193F583D0821219FC49
:101E6300AA08AB091211699004B7E0F91211758A37
:101E7300088B09EA7001EB60047B0080A9EEFA7419
:101E8300806F809D54207003021F52750A007C02EC
:101E93007D007A20121F8F7C0079047A007B001268
:101EA3000C4D8A088B09800D740188828983F08523
:101EB3000C08850D09E5087002E509606D7C007961
:101EC30004AA08AB09120C4D8A0C8B0D750A01E5A7
:101ED30008240412415124FFF0A3E034FF123F050C
:101EE3007002A3E070C9E5082409F8E5093400F994
:101EF300850882850983A3A3A3A3A3A3A3A3A3A361
:101F0300E0640170A3850882850983A3A3A3A3A327
:101F1300A3E054047092740688828983F07AB785AB
:101F2300088285098312206A8085120C1D7C007942
:101F3300017A007B00120C4DEA7001EB7009E50A8F
:101F430070057A20123D9B74206EFAEF021E2474F2
:101F5300025FF9E47001E9600A120D2BEEFA7402D4
:101F6300021E8474045FF9E47001E96012123EFBFF
:101F7300123E34790112261EEEFA74046F80CD7A74
:101F8300007B00022BC7EAFCEBFD7A017B00900487
:101F9300B7E0F912126B2290149A123C85120BCF00
:101FA30022C082C08374EA1208A18510828511833E
:101FB300AA82AB83794B1218657408120A5774020C
:101FC300F07409120A57AA82AB8379501218657408
:101FD30013120A571242331218837416023ADA7430
:101FE300F4120362EAFEEBFF7508018E828F83A36E
:101FF300A3A3A3A3A3E0544060098E828F83124658
:102003007A8003120CAD74FE6A700374FF6B603048
:102013008E828F83123DEF123DE9120D01E98E820C
:102023008F836006122063E480051220637401121B
:102033002FE3FAA3E0FB121889E9F5097005801272
:102043007509CDAA098E828F8312206AE960037510
:102053000800A908EEFAEFFB120C29A9090230A423
:10206300E0240D12371822E0240C122075F9120B0C
:10207300C922F812371DE02274F6120362E9FEEA60
:10208300FF7A0F7B00121163EA7001EB6019740C85
:102093008A828B83F0EEA3A3F0EF8A828B83A3F073
:1020A300123E43790080027910023E2AC082C08327
:1020B300900471E0640F7018EA7001EB60129004F1
:1020C3006CE0FC74086C600574046C7003121F8967
:1020D300023ADDF508EF3400F50922123F1C6402D1
:1020E3002285088285098312360590045DE0682203
:1020F30074F012036274FD1208A18A0A8B0BEA249E
:1021030002122FBA8A088B09EA7001EB70030221CD
:10211300FD850A82850B83A3AE82AF83E064F16001
:1021230014E064CD600FE0641A600AE064E96005BE
:10213300E064E1701E7900120C29E96016850882BB
:10214300850983A3A3A3A3A3A3E04420F0A3E0F002
:102153000221E28E828F83E0C0E07402120A57D01C
:10216300E012416C124486122A9C123D958510821E
:10217300851183AA82AB837005120B4B8003120C6B
:10218300E98E828F83E064F16055E064CD6050E0B6
:10219300641A604BE064E16046E064F060417402FD
:1021A300120A57E0FC74B76C603585088285098391
:1021B300123C81750C01780C1207E5ECF50C780CD8
:1021C3001207E5E50A240CF582E50B12250D122A08
:1021D300C8FCA3E0FD8A828B83122AE2120829E558
:1021E300082409F582E5091220DE70037406F085E0
:1021F3000E82850F83E0F9120C2F120C1D90149E92
:10220300121F9D7403023F2474F5120362EAFEEB6E
:10221300FF750A00EE240912251112226F7003754F
:102223000A011220E47003A3E0697006E50AD2E113
:10223300F50A8E828F83A3A3E0FAE50A6011EA70A0
:1022430006E50AD2E5801EE50AD2E6F50A8003EA2E
:102253006015EE241DF582EF3400122275640160CF
:1022630006E50AC2E0F50AA90A02422E12402D64CD
:102273000222F583123104F9120CEFE92274F012F1
:10228300036274DB1208A1EAFEEBFFEE24041225BD
:1022930011E0601090149CE07002A3E060069014BB
:1022A3009C121F9DEE24021224FF7406120A57ACDF
:1022B30082AD83850882850983122ABEFAA3E0FBD7
:1022C300120C89EE241BF582EF12341B7413120ACD
:1022D30057123E347406120A57AA82AB83120BDBE1
:1022E300E9851082851183F0740C120A57E0601E91
:1022F300741D120A57E0FD7407120A57E0FC123CE2
:102303007B79011218BFE960030224FA8014900458
:1023130054E0600E851082851183E0A2E140030240
:1023230024FAEE2412F50AEF3400F50BEE242A12F8
:1023330020D6EE242C12250A1227DBE0687003A3B3
:10234300E069701D750C00780C1207E5780C120714
:10235300E5EE242E123D92F912251E122AE21208EE
:10236300297409120A57E0FA90045AE06A600302DA
:1023730024FA740C120A57E0700302244312251E38
:10238300123C81120D4F7401120A57123DE9740178
:10239300120A57E07002A3E070030224FA740712D2
:1023A3000A57E0F8850E82850F83E028F8A3E0340E
:1023B30000F9740D28F582E439F583E0FA7401120B
:1023C3000A57E024031225356A601DEAF090805411
:1023D3007808120A307401120A57123DEF12448230
:1023E300A3E50AF0A3E50BF079047407120A57E09A
:1023F300FA850E82850F83E02AFCA3E034008C82E9
:10240300F583A3AA82AB831211578A088B098C0A1E
:102413008D0B7401120A5712252E780C120A30788C
:102423000C79081209C250030224FA90804C7808F0
:102433001209087401120A5712252E7808120A216C
:1024430090046CE0FA74046A600874096A60030219
:1024530024FA851082851183E0A2E55055EE242EDF
:10246300123D92C0E07403120A57D0E0F0EE242F1D
:10247300123D92C0E07404120A57D0E0F0EE24300B
:10248300123D92C0E07405120A57D0E0F0EE242406
:1024930012250A12065E7407120A57AC82AD8374C2
:1024A3000A120A57AA82AB83120B51740412082929
:1024B3008045A2E650417423120A57123100FA7480
:1024C300046A7018741D120A57E0640270297406B6
:1024D300120A57AA82AB83120CDD801B74076A7041
:1024E30016741D120A57E06404700C7406120A571E
:1024F300AA82AB83120CD77425023F24F50EEF3466
:1025030000F50F22EE240BF582EF123E5722F50859
:10251300EF3400F509850882F58322850882850951
:102523008312354C850A82850B8322124044A3A370
:10253300A322F81220762274F612036274F71208AB
:10254300A18A088B0990046CE0FA74036A600D7425
:10255300016A600874096A60030226198508828B80
:1025630083A3AE82AF83E060030225FE7C007D007F
:102573007A027B00121811E5082402124145123435
:102583001E90045D123E34795312186B79001226A3
:102593001E90046CE06409600990046A123C811285
:1025A3000D497401123E1E740490046CF074011200
:1025B3000A57AA82AB83794A1218657401120A5723
:1025C300AC82AD837A627B0412182990045D1235C4
:1025D300487A037B001218119004601235487A047C
:1025E3007B00121811900457E0A2E35004D2F0804C
:1025F30002C2F0123E04121F9A8018FC7D007A0377
:102603007B101218118E828F83E0F912261EE4903C
:10261300046CF0120C057409023E2790046A123C04
:1026230085120B5D22C082C08390043CE07002A33C
:10263300E0704190046CE01206E70003014A2605AE
:1026430059260668267726900444E07002A3E060CA
:1026530076900444806B900440E07002A3E06067CE
:10266300900440805C900442E07002A3E0605890C4
:102673000442804D90043CE07002A3E06009122DF7
:1026830031FC74016C702379009004B8800909EA65
:1026930012436AEB12250D1232B97001EB70EF9001
:1026A30004B8123C81120B57801D74026C70051222
:1026B3000D1F80139004CDE07002A3E06009900425
:1026C300CD123DEF1219FC023ADD74F41203627469
:1026D300FB1208A18A088B091227CA7001EF700345
:1026E3000227C574028E828F8312423479501218E6
:1026F30065850882850983A3858208858309E0604F
:10270300030227B390046A124688700374FF69605A
:102713002F74FE68700374FF69602585108285112C
:1027230083E0687003A3E069601674EA8508828514
:102733000983122AF47A6A7B04795012186B807029
:102743008510828511831227DB123E347A5D7B0468
:10275300795312186590045D123E2F7A607B0479D9
:102763004B1218657A5F7B0479E112186590047146
:10277300E0C3940F502290045FE0C0E07402120A99
:1027830057D0E0F07404120A577401F07402120A6D
:1027930057AA82AB8312187D750A00780A1207E5DF
:1027A300780A1207E59014B8E0F9122AD912082919
:1027B300850882850983122AB3F0740390046C128E
:1027C3003E3A74050230A17A0F7B001211638A0A24
:1027D3008B0BAE0AAF0BEE2212360590046A2274FD
:1027E300F012036274ED1208A18A828B83A3122A6A
:1027F300A2EA2408FEEB12449C8E828F83122AC81D
:10280300FAA3E0FB120C0B851082851183E070683C
:102813008E828F83E0C3940B405E85088285098393
:10282300A3A3A3A3A3A3A3A3E06402704B90046C8C
:10283300E0FAE5082409F50EE50912250274026A97
:10284300603B74066A603690043CE07002A3E0606B
:1028530007122D316401605574086A600574046AB7
:1028630070167402120A57E0F97407120A57AC8201
:10287300AD83123C7B120C117413023F2490043C71
:10288300E07002A3E07026750A00780A1207E57863
:102893000A1207E5122A9312250D122ABEFCA3E0A1
:1028A300FD850882850983122AE21208299004B85B
:1028B3001246679004B8E0F50AA3E0F50B80378E63
:1028C300828F83E0F8A3122ABE687003A3E06970C5
:1028D300198E828F83A3A3E0FAE508240DF582E520
:1028E30009123D956A700302296E8E0A8F0BEE1250
:1028F300436AEF124664EE7001EF70C37A187B00EF
:102903001211CF8A0C8B0DAE0CAF0DEE7001EF7070
:102913000302287B9004B8E07002A3E070059004E2
:10292300B8800AE50A12436AE50B12250D12469B8D
:102933008E828F83123E5CEE240C12250A74FFF004
:10294300E48E828F83A3A3A3A3A3123A00A3A3A31A
:10295300A3122AEBE4F0A3F0E508240B1241511271
:102963002A89123F05C4122A89A3F07401120A5757
:10297300122AB8A3F07402120A57122AB8F0E50813
:10298300240DF582E509122AB0A3F01246C1123FC5
:102993004A240DFAEF3400FB7402120A57E0640173
:1029A300600E7407120A57AC82AD8312182980098E
:1029B3007C087D0079FF1211517412120A57E0C08E
:1029C300E0EE241512250AD0E0F09014B8E0C0E040
:1029D300122A93123D95FAD0E0C39A400302287B52
:1029E300122A9C12250DA3E05480F9E47001E970CA
:1029F30009900DD6E0700302287BEE2406F8EF124F
:102A03004154FCEE240CFAEF3400FB7406120A570F
:102A1300E0700EEC70567404120A57E07006022838
:102A23007BEC60147405120A57E0C0E08A828B8342
:102A3300E0FCD0E0C39C50258508828509831242BF
:102A430046124364122A93123D95C0E0122507D023
:102A5300E0F07405120A57E08A828B83F074061241
:102A63000A57E06007740188828983F07404120AAC
:102A730057E0700302287B74018E828F83A3A3A384
:102A8300A3A3F002287B540F8E828F83A3A3A322D8
:102A9300E5082410F582E50922E508240B80F5A357
:102AA300A3122AA822E0F508A3E0F50922123E5753
:102AB300122BD2A322122BD20248E7E0F9850E8211
:102AC300850F83E022E0F98A828B83A3A3A3A3A3C8
:102AD300A3A3A3A3E02290046A12354C90046012CE
:102AE3003C85120CBF740222A3F0EE2416123E544E
:102AF30022F07A5D7B047953122AFF2212186B7A33
:102B0300607B04794B12186B2274F212036274F81F
:102B13001208A18A0A8B0B8C0C8D0D8908851082F3
:102B2300851183AC82AD837583807582227408120C
:102B3300075AF509AC0AAD0B851082851183AA8269
:102B4300AB8312448E70037509019004B880158E0F
:102B5300828F83E0650C7004A3E0650D6024EE248E
:102B63001612250A124667EE7001EF6020E5096030
:102B7300DEAC0AAD0BEE240DFAEF3400FB12448EEB
:102B830060DC8E828F83A3A3E0650870D1EEFAEF39
:102B9300FB7408022BC474F71203629004B8E0FAC2
:102BA300A3E0800CEA24161246611211D5EEFAEF67
:102BB300FBEA7001EB70ED9004B8E4F0A3F002338C
:102BC300CB1208297F060205EAA3122BD2F022E0DA
:102BD3000246D074F2120362EAFEEBFF890B8C0CFF
:102BE3008D0D8E828F83E08C828D83123A00AE82AC
:102BF300AF83E0123A96122FE2C4123A96122C9245
:102C0300E054038C828D83122FE0A2E2E492E08CE5
:102C1300828D83122FDF131313541F123A96A312BC
:102C23002FDFA2E7E492E08C828D83A3A3A3A312F8
:102C33002C928E088F09750A0078081207DD7C082C
:102C43007D00E50C240712443F120829EE2408FEF8
:102C5300EF3400FF8E088F0978081207DD7C037DAF
:102C630000E50C240F12443F120829E50C2412F846
:102C7300E50D3400F9E50BC3940F400A8E828F8370
:102C8300A3A3A3E08001E488828983F0022BC7A376
:102C9300A312320AA30EAF832274F412036274F9EF
:102CA3001208A1EAFEEBFF90043CE07002A3E0608F
:102CB30010122D3164027009EEFAEFFB120D198028
:102CC3006890046AE06E7003A3E06F705C7401693E
:102CD30060097A7E7B0412448E704E7A007B0290E8
:102CE30004B7E0F9121277EA7001EB703C90046DBF
:102CF3007808120A308510828511837808120A2118
:102D0300900473E0C0E07404120A57D0E0F0740535
:102D1300120A577401F07406120A577402124234ED
:102D2300120B2DE96092120B3374070230A1900449
:102D33003C123729E02274F71203628A828B83A341
:102D4300AE82AF83E0F9120B758E828F83E0FA7443
:102D5300EB6A600574E16A7002E4F0121F9A750869
:102D63000178081207E58E828F83E0F50878081250
:102D730007E57900122AD9120829120C1D0233CB58
:102D830074F61203629004BAE0701F7C0079017A32
:102D9300007B00120C4DEA7001EB600E8A828B837C
:102DA300E07002A3E06003120BC3023E2AC082C09C
:102DB3008312320E401079FF120C47E9FA901DA7D7
:102DC300E493C39A5004790180027900023ADD74D6
:102DD300F012036274FF1208A1E985108285118342
:102DE300F08A0A8B0B750900EA2408122FBA8A0CA1
:102DF3008B0DAE0CAF0D750801EE7001EF60030291
:102E03002E96850A82850B83A3A3A3A3A3A3122FC4
:102E1300D3850A82850B83123C81120C3B8A0C8B6F
:102E23000DAE0CAF0DEE7001EF7003022FB08E826A
:102E33008F83A3A3A3A3E4F0A3F0E50A240BFAE58D
:102E43000B1244A8C0E0122507D0E0F0120D07EEE4
:102E5300240CF582EF123DE6750901EE2406F8EF26
:102E630012321DE0547FF0A3E054FC1233E6E05429
:102E7300046003022F219014A2E0F50A750B00747D
:102E830007780A12098D8A828B83E0450AF0A3E052
:102E9300450BF0EE2406FAEF1241481235487480D0
:102EA3005CF50A74035DF50B7407780A120A12EED7
:102EB3002404F50CEF3400F50DEE24091224FF85EC
:102EC3001082851183E0605F7402850E82850F8313
:102ED300122FE3240D122535A2E2500F900458124D
:102EE300341E850C82850D83123E34E50A7003027D
:102EF3002F7F747F5CFC74FC5DFD74FF250AF50A6B
:102F030074FF3400F50B7407780A12098DE50A4C37
:102F1300F8E50B4DF98A828B83123E34805EE044E0
:102F230080F0A3E0022E95E50A7005750800804C39
:102F3300EC5420601512115D8A0A747F550AF874E7
:102F43005F28850C82850D83801BEC5410600E1264
:102F5300115D8A0A740F550AF8740180E4850C82A6
:102F6300850D837401F0A3E4F07404850E82850F4C
:102F7300831232267001EB7003122FC674016509A8
:102F8300702E850C82850D83122FD3EEFAEFFB1280
:102F93000C41E9601BEE240C12250A1232B97001B0
:102FA300EB60031211D5EEFAEFFB1211D575080091
:102FB300A9087401023F24F50EEB1246B2E0F912A0
:102FC3000C53227A207B009004B7E0F9121193226C
:102FD30012354C850E82850F83E0F922A3A3A3A3A8
:102FE30012320AE02274F4120362750800120C53C1
:102FF3008A0A8B0BAE0AAF0BEE7001EF700302303F
:103003009D8E828F83A3A3A3A3A3A3A3A3A3E064FF
:1030130006600302309D120C658E828F83A3A3A3E7
:10302300A3A3A3A3E05408F9E47001E960698E82C5
:103033008F831233DB7A007B00120C35EA7001EBCD
:10304300705590046A1235488E828F83123C811228
:1030530018957C007D007A007B0080258E828F830B
:103063001233D07004A3E064FF602C90046A12351D
:1030730048121595E9641A601E7C007D00EEFAEF94
:10308300FB120C358A088B09AE08AF09EE7001EF0D
:1030930070CA790012189B750801A90880031208E9
:1030A300297F040205EA74F71203628A828B83E59F
:1030B300827002E58370099004BB80068A828B8349
:1030C300A3A31232B97001EB602C8A828B83A3A372
:1030D300A3A3A3A3A3E05408F9E47001E960DDEC22
:1030E3007001ED60158A828B831231006C7003A32B
:1030F300E06D70C880047A007B000233CB12310488
:1031030022123DF7E02274F21203628A088B0989C6
:103113000AECFEEDFF7A0E7B001211CFEA7001EB91
:10312300603EE48A828B83A3A3A3A3A3A3A3A312D6
:103133003166E50A1233E6A3A31246978A828B838C
:10314300A3A3A3A3E4F01231661233E4124486EA84
:10315300240CF582EB1248851233E5A3A3F0A3F008
:10316300022BC712468F0248E974F5120362EAFE86
:10317300EBFF890A8C088D09EE7001EF605C740126
:10318300650A70147901120C47E9FA901DA4E493BF
:10319300C39A500F7911806C7404650A7036123229
:1031A3000E40F18E828F83A3A3A3A3A3A3A3A3A300
:1031B300E50A12320A1244828E828F83A3A3E4F0BB
:1031C300A3F09004BBE07002A3E09004BB60241260
:1031D300341E800A7402650A60C979C18026E82416
:1031E300020808E912321D1232EE7001E970EF8A0B
:1031F300828B83EEF0A3EF1232267001EB70031281
:103203002FC6790002422EF00246D07904120C47F1
:10321300E9FA901DA3E493C39A223400F9E8FAE98A
:103223000233EDF07A207B009004B7E0F9121277B5
:10323300EA22C082C083E9FC79009004BB801D8A26
:10324300828B83A3A3A3A3A3A3A3A3A3E06C60057F
:1032530074FF6C7001098A828B83A3A31232B97045
:1032630001EB70DB023ADD74F71203628A828B830F
:10327300E5827002E58370099004BB80068A828B25
:1032830083A3A31232B97001EB60248A828B83A3D8
:10329300A3A3A3A3A3A3A3A3E06970E1EC60148A8F
:1032A300828B83E0240D124383A2E240D080047A10
:1032B300007B000233CB123C85EA22C082C083909C
:1032C30004BB80068A828B83A3A31232B97001EBFD
:1032D30060128A828B83A3A3A3A3A3A3A3A3E069FE
:1032E30070E280047A007B00023ADD123605E822A0
:1032F30074F11203628A0A8B0B8C0C8D0D75080016
:10330300750900EA7001EB602E9004BB80068E8283
:103313008F83A3A3124667EE7001EF601AAC0CAD66
:103323000DEEFAEFFB850A82850B831219FCE96423
:103333000170DB8E088F09AA08AB097F070205EA33
:1033430074F71203629004BB12341E7C007D00806C
:1033530007E8FCE9FD12341EE87001E9603AE8244D
:1033630002F582E912250DEA687002EB6970E21238
:103373003C819004BB124667E86E7002E96F7009E6
:103383009004BBEAF0A3EB800EEAF8EBF98C828D94
:1033930083A3A3E8F0A3E9F00233CB74F71203622B
:1033A300EAFEEBFFEE7001EF6016120C5F1233F3CF
:1033B300EA7001EB60031211D5EEFAEFFB1211D59F
:1033C3000233CB741F1208297F010205EA123C85E0
:1033D3008A828B83E064FF22123104FCA3E0FD2286
:1033E300A3A3A31233EA22F08001FB8A828B8322F8
:1033F3008E828F83E0241C122075FAA3E0FB121146
:10340300D58E828F83124671EE240C123E54123CE9
:103413008522EA240BF582EB123E571236052274FD
:10342300F012036274FC1208A1EAFEEBFF120C23F4
:10343300E960057911023540EE2402F50EEF1246DC
:10344300AE1240296006EE2412124882EE241312B3
:103453003D927003741EF0EE2411F8EF123F447096
:1034630019900E81E0600D900454E0700D8E828FF0
:1034730083E07006E488828983F0EE241408080848
:10348300EF124154700F900449E088828983F090D1
:103493000449E004F0EE123F3A8E828F83E0640128
:1034A30070171225071231006402700D850A828598
:1034B3000B83E04440F0A3E0F0851082851183ACD8
:1034C30082AD83EEFAEFFB120C7D8A088B09850E21
:1034D30082850F83123548EA7001EB605C8E828F20
:1034E30083E0C0E07401120A57D0E0F07402120ABC
:1034F3005712469B7401120A5785820C85830D78F7
:103503000C1207E1850A82850B83120662EE240EF4
:10351300123D92F50A780A1207E57405120A57E07C
:10352300F9120C777405120829E9FE74106E700BFA
:10353300AA08AB091211D580027E10EEF9740402B9
:103543003F24123E5412354C22E00233DEC082C0C7
:103553008374DE1208A18A828B83A3A3A3A31234EC
:103563001E740E120A57E8F0A3E91235FC740C120C
:103573000A571235F5240DF582EB123D95C0E07420
:103583001A120A57D0E0F01234157420120A571297
:1035930035F52415F582EB123D95C0E07408120A47
:1035A30057D0E0F0EA241C1234187412120A57128E
:1035B3003E3474FF851082851183F07401120A571B
:1035C30074FFF07402120A5774FFF09080541206CD
:1035D3005E7404120A57AC82AD837407120A57AAA9
:1035E30082AB83120B5174041208297900742202EE
:1035F3003ADAE8F0A3E9F0EA221233EAA3A3123697
:103603000522E0F8A3E0F92274F012036274EE12CB
:1036130008A17410120A57123DE98C088D09890B11
:103623007422120A57E0F50C7423120A57124667E4
:103633007425120A57E0F50EA3E0F50F750A107A08
:103643001E7B001211CF7402120A57124680120A0F
:1036530057E07002A3E0700302370D8510828511D5
:1036630083AA82AB837950123CA6120A57123723DE
:10367300A3124680120A57E0240B1237147402F087
:10368300120A571237237402F0120A57123DEF122F
:1036930044867402120A5712415DE50BF07402125C
:1036A3000A57E0240C123714E50CF07410120A5771
:1036B300123CAF120A57E0241C123714123DE9746E
:1036C30008120A5712469B740A120A57E50CF08532
:1036D3000E82850F83C082C083740D120A57AC8299
:1036E300AD83D083D082740312075AF97402120A8D
:1036F30057AA82AB83120C29E964017005750A008D
:1037030080087402120A5712466DA90A7412023F06
:103713002412371822F812371D22A3E0124951222E
:10372300123729A3A3221240480248E974F0120376
:1037330062EAFEEBFF8C088D0974088E828F831278
:103743002AEBE0600874108E828F83A3F0EE2417B7
:10375300123D9260098E828F83A3E02408F0123D0C
:103763008F6005750E0E8003750E008E828F83A306
:10377300E0C0E0EE240D12250AD0E0FAE02A250E7F
:103783008C828D83F0123D8F6013900455E0F91203
:1037930018B9E9FA850882850983E02AF085088249
:1037A300850983E0FAC3947540030238837B0012D2
:1037B30011CF8A0C8B0DEA7001EB7003023889EE8E
:1037C300FAEFFB120C83EA850C82850D83123DEA26
:1037D300EE2402F81238901238A2F0EE24040808FE
:1037E300123890A3A31238A2A3A3123E4C12389B03
:1037F300F0EE241412250A12389BA3F0750808EE84
:103803002416123D926010EE2418123545E50C245F
:1038130008124435750810EE2417123D92600DEE20
:10382300241A123545E50C250812443512250712D2
:1038330044541207DDEE240D123D92FC7D008E826E
:103843008F83A3E0F8E50C28F8E50D3400F9E50EC5
:1038530028FAE439124448120829123D8F6027EEF2
:10386300240D123D92FD8E828F83A3E0FCAA0CAB44
:103873000D79001218BFE9600DAA0CAB0D1211D51A
:10388300750C00750D00AA0CAB0D023F27EF12411A
:1038930058850C82850D83221238A9A3A3A3221273
:1038A30038B41238A922E0850C82850D83A3A3A323
:1038B30022A3A3123F0AA32274F61203628A828B05
:1038C30083E0FC90045A1239447402780812098D7B
:1038D300E5084CFCAD09EA241212393E7406780857
:1038E30012098DE5084CFCE5094DFDEA2411123956
:1038F3003E7409780812098DE5094DFDEA24161274
:10390300393E740B780812098DE5094DFDEA241739
:1039130012393E740C780812098DE5094DFD8A822F
:103923008B83A3A3A3A3A3A3123944740A78081215
:10393300098DECFAE5094DFB023E2AF582EB123EB6
:1039430057E0F5087509002274F41203628A088BA4
:1039530009ECFEEDFFE98E828F83F0123C08C0E094
:10396300EE241112250AD0E0123C02C0E0EE24122C
:1039730012250AD0E0123A00A882A983123BCD6037
:1039830010E5082408FAE5093400FBEE2413123A83
:10399300058E828F83A3A3A3A3A3A3A3A3E0601590
:1039A30088828983E0FAE5082AFAE5093400FBEE08
:1039B3002415123A0588828983E0FA8A0AE50825E4
:1039C3000A123BBE8C828D83123F4A24171220D6E3
:1039D3008E828F83E0C39A8508828509831248DB30
:1039E300E06017850882850983E024F2F0123BE644
:1039F300850882850983E0C39AF00230A412320A53
:103A0300A322123E54EAF0A3EB123F0AE02408F08B
:103A13002274F41203628A088B09EA123A8DF0EADF
:103A23001313543F123A96A3A3A3F0EAC413131239
:103A33003A8DA3A3F0E48C828D83A3A3A3A3A3F065
:103A43008A0A8B0B7409780A120A12E50A123A845D
:103A5300F0EC2418F582ED1248858A0A8B0B740B5F
:103A6300780A120A12E50A123A7FF0740C780812E7
:103A73000A12E508123A7FA3F00230A4123A84A393
:103A83002254018C828D830248E854038C828D83F7
:103A9300A3A322540F8C828D8322C082C08379001A
:103AA300900454124251A3A3A3E0600FEC70268A42
:103AB300828B83A3A3E0701D09801AEC60178A82AE
:103AC3008B83A3A3A3A3A3A3A3A3A31245BB7003A5
:103AD300A3E06B70E38003120829D083D082020530
:103AE3003174F11203628A088B09890EECFEEDFF33
:103AF300123C08C0E0EE241112250AD0E0123C0269
:103B0300C0E0EE241212250AD0E0123A0085820AA0
:103B130085830B123BCD6010E5082408F8E50934D2
:103B230000F9EE2413123BD58E828F83A3A3A3A3A4
:103B3300A3A3A3A3E06017850A82850B83E0F8E5BE
:103B43000828F8E5093400F9EE2415123BD5EEFAFE
:103B5300EFFB120C95E9FA705D850A82850B83E011
:103B6300FB8B0CE508250C123BBE8E828F83A3A32F
:103B7300A3A3A3A3E070188C828D83123E34E50EB9
:103B8300C39BC0E0EE241712250AD0E0F080271271
:103B93003BE6850A82850B83E0FCE50EC39C24F299
:103BA300C39AFDEE241712250AEDF0AA08AB097992
:103BB300011218BFE9FAEAF902333EF8E5093400C5
:103BC300F9EE241DFCEF3400FD2274081248DFA334
:103BD300E022123E54E8F0A3E9F0850A82850B83C4
:103BE300023A0FE8240EF8E93400F98C828D83E859
:103BF300F0A3E9F0900455E0F91218B9E9FA22129A
:103C03003F2C022AD48A828B83123C85120C8F8527
:103C13000882850983A3A3123C47E0F9EA8E828FC9
:103C230083A3A3A3A3A3A3A3A3A3123C53123C471D
:103C3300A3A3E0F9EAF8EE240B123E54E8123C5336
:103C4300A3A3E022E0FA850882850983A3A3A32224
:103C5300F0A3E9123F3022C082C0837AC07B04798B
:103C6300E21218657AC07B04023ADDC082C08390F9
:103C7300045D123C81023ADD850E82850F83123C7E
:103C83008522E0FAA3E0FB22C082C08374FE1208FF
:103C9300A1851082851183AA82AB83794B123CA63E
:103CA300023ADA121865851082851183123C8574F5
:103CB3000222C082C083794A121865023ADD74F683
:103CC3001203629004C8E0FE04F0EEF9120C53EA0A
:103CD3007001EB70EEEE60EBF9023E2A74F0120312
:103CE30062EAFEEBFF8C0E8D0F89087410120A57DF
:103CF300E0F50D7411120A57E0F50C750900120D69
:103D03004F8A0A8B0BA80AA90BE87001E97013E527
:103D13000C7058A908AC0EAD0FEEFAEFFB120D555F
:103D23008067E508601AE82402F582E9123D95FAF6
:103D3300E5082AFAE4340013EA13F070037401F07F
:103D4300E50C6045E50D701088828983E0600214FC
:103D5300F0E49004CFF080319004CFE004F0FA90C7
:103D630014A3E06A70237509018003E4601BE5096D
:103D73006017120CADEA6E7002EB6F700CEEFAEF87
:103D8300FB7901120B6F123D99023F27EE2411F5C7
:103D930082EF123F1C227A017B009004B7E0F912F4
:103DA300127122C082C08374016A7001EB70077ABA
:103DB30001122FC8801490149A123DE9EA7001EBA6
:103DC3006005121F898003123D99023ADDC082C04B
:103DD3008390149C123DE9023ADDC082C0839014A3
:103DE3009E80F1123E57EAF0A3EBF022123DF3223C
:103DF300123DF722123DFB22E0F8A3E0F58388820F
:103E030022A2F0E492E0123E12795212186B22853C
:103E13001082851183F0AA82AB8322123E1279426B
:103E230012186B221208297F020205EA1246CBA35D
:103E3300A3E8F0A3E9F022F0123E3F22EEFAEFFBF3
:103E43009004B7E0F912116F22F0EE2413123E54DE
:103E530022F582EF3400F58322A3A3A3A3A3A3A394
:103E6300A3A374FEF0A374FFF02274F41203628A16
:103E7300088B097A007B04123D9D123EFB123E34EF
:103E8300740990046CF0120CA18A0A8B0BAC0AAD76
:103E93000BE5082413F582E50912250D123C811266
:103EA300448E6401704F1227CA7001EF6047740299
:103EB3008E828F83F0E508241DF8E50912494D121F
:103EC3003C818A828B83A3124256E0FBEC8E828F65
:103ED30083A3A3F0A3EB123F05F8A3E0F583888245
:103EE300A3A3A3122BD2123F0EFAA3E0FB794A122B
:103EF300186B123E3F0230A490043E123605901414
:103F03009E22123F0AE022F00246BCA3F0E50824F9
:103F130015F582E509123F1C223400F583E0227473
:103F2300021208297F080205EA123F3022F08508B1
:103F3300828509830248EA240FF50AEF3400F50B62
:103F430022124158640122E8F0A3E9F0EE2274F44E
:103F530012036274F31208A1EAFEEBFF7C0D7D00ED
:103F63007900851082851183AA82AB83121151EEE9
:103F7300124037F854206008740C120A577401F089
:103F8300E854806008740B120A577401F0E8544037
:103F9300600A740A120A577401F0800A740A120A3A
:103FA30057E064017005EE24138003EE24151235E7
:103FB300457402120A57AA82AB83121829EE240B06
:103FC3001225111240D6123E34740A120A57E064C5
:103FD30001703412401C703C120CAD8A0A8B0BA882
:103FE3000AA90B850882850983E0687003A3E06949
:103FF3007022120CA1EAFCEBFD7402120A57AA828A
:10400300AB8312448E600D851082851183AA82AB27
:1040130083120B69740D0230A18E828F83A3A3A335
:10402300A3A3A3A3A3A312402D22E0FAA3E0FB12B0
:104033000D01E922241DF582EF123E57124044E0A0
:104043002212404822123DFBA32274F6120362742B
:10405300F31208A18A088B09ECFEEDFF7C0D7D00AD
:104063007900851082851183AA82AB83124806A347
:10407300A3A3A3A3A3A3A3A31240D6123F4A124010
:1040830037FAA2E55008740B120A577401F0EAA23A
:10409300E75008740A120A577401F0EAA2E6EE50D8
:1040A300042413800224151235457402120A57AAF8
:1040B30082AB83121829850882850983A3A3E0C0F4
:1040C300E0740C120A57D0E0124234120B63740DE1
:1040D300023E271236058510828511832274F7125A
:1040E300036274E11208A1EAFEEBFF8E828F831252
:1040F300425FEA2406F8EB124154A2E0504154FE19
:10410300F0A3E01241648A828B8312415D12444F13
:10411300E0241CFAA3E0124148123C81120C9BE9F3
:10412300701D741D120A571231006404701185103A
:1041330082851183AC82AD83EEFAEFFB120CE302AE
:1041430033C6FAE50912414C2234000233EDF8E597
:104153000912415822124951E022E0241B12371858
:104163002212416CAC82AD8322F00240D9E9FA7984
:104173000074046A600A740A6A600574036A700151
:104183000902053174F612036274208A828B83F06C
:104193007401A3A3F0120B21EA7001EB6007740111
:1041A3008A828B83F0023E2AC082C083740190040A
:1041B300BDF0E9A2E350037403F0E9A2E15004E087
:1041C300D2E2F0023ADD74F612036279007C008ACF
:1041D300088B097808120565F8FF07FC41FA41FAD4
:1041E30041FA41FA41F341F741FC41F0410C8009A6
:1041F3007C0480050C80F67C089004BDE05C6003C1
:10420300098003EC600109023E2A74F61203628AF4
:10421300828B83E0700EA31232B97001EB6005123A
:10422300196780047A007B00023E2A7F030205EAB5
:10423300E41242382212423C22F085108285118317
:10424300023E1912354C8E828F83A30248E6124236
:1042530056A322E0FC8A828B83A3A322123605E8AD
:10426300FAE9FB2274F012036274F31208A17403D7
:10427300120A571243648A0E8B0F890B741D120A9C
:1042830057E0F50A7E01EE120A57740AF0E9700747
:10429300E50AC333240AF0851082851183AA82AB11
:1042A30083120CF58A088B09EA7001EB7003024351
:1042B3005D12465E7409124475450A12446C120A73
:1042C30057124462E50B70307A008026EAC333F854
:1042D300E433F9741E120A57E028F8A3E039F98889
:1042E30082898312437988828983122BCCA30EAFF0
:1042F300830AEAC3950A40D4E5082417F582E50941
:1043030012436FE508241AF582E509123DE67405A8
:10431300120A57AC82AD83AA0EAB0F120A67E9608B
:1043230021E50812436AE5091246A17405120A57EA
:10433300A882A983E5082418F582E50912250D1240
:104343003E34850882850983A3A3E50EF0A3E50F18
:10435300F0AA08AB09120B1BE9FEEEF9740D023F3C
:1043630024ECF0A3EDF0222416F58222123E5774BA
:1043730001F0120CA122122BD2F0A3AE82AF832242
:10438300FEA3E03400FF8E828F83E02274F01203D9
:104393006274FE1208A1851082851183123DE9899A
:1043A300098C0E8D0F7412120A57E0F508900DF365
:1043B300E07002A3E06078E508C333FEE433FF74E2
:1043C3000E2EFAE43FFB1211638A0C8B0DEA700187
:1043D300EB605C74D48A828B8312445DF8A312442D
:1043E3004F123E328A828B83A3A3A3A3E509F0ACC9
:1043F3000EAD0FEA2405FAEB124438E50C240DF553
:1044030082E50D12250DE508F07413120A571244C4
:10441300541207DDEEFCEFFDE50C240E12443F12AF
:104423000829AA0CAB0D900DF3123DEF1219FC02F3
:104433003F22FAE50D3400FB12182922FAE50D3468
:104443000012444822FB121145740322E0F902339F
:10445300EE122AA8750A0078082212416CE0221293
:1044630046541244933400FF22F0A3AE82AF837408
:1044730003228E828F83F0A3E50BC43354E022A37F
:10448300A3A3A3E508F0A3E509F022121823E92268
:10449300121829EE2408FEEF223400FF85108285CE
:1044A300118302416712414CE02274F6120362EA5F
:1044B300FEEBFF9004BE801388828983E06E700355
:1044C300A3E06F603B88828983A3A31232EE70015D
:1044D300E970E57A047B001211CF8A088B09A808DA
:1044E300A909E87001E960188882898312469B90C4
:1044F30004BE124506A3A3123DE99004BE123E3446
:10450300023E2A123C850246BC74F41203627E000A
:104513009004BE80070E88828983A3A31232EE70B3
:1045230001E970F1EEC333FAE433FB1245B27001D3
:10453300EB60767F009004BE8022888289831235E7
:1045430048EFC333FAE433FBE5082AF582E5093B78
:10455300F5831243640F88828983A3A31232EE701A
:1045630001E970D69004B21245BB7003A3E06B78E7
:104573000870161207E1EEF50A780A1207E57C7E49
:104583007D047900120D1380141207E1EEF50A7809
:104593000A1207E57C7E7D047900120D0D74031267
:1045A3000829AA08AB091211D5120B330230A41241
:1045B30011CF8A088B09EA22123C8590045DE06AD8
:1045C30022C082C08380128A828B83A3A312341EEB
:1045D3009004BE123E341211D59004BE1232B9704B
:1045E30001EB70E3023ADD74F612036290046A127F
:1045F30046679004C91227DB123E347AC97B0479DB
:104603005012186B9004C9124650120D5B9004C9E6
:10461300124667900DF5E07002A3E0602D7A067BE9
:1046230000121163EA7001EB602074D58A828B83D8
:10463300F0E4A3A3F074018A828B831233E312465E
:1046430097900DF5123DEF1219FC023E2A124654C3
:1046530022E0FCA3E0FDEEFAEFFB22EA240BF58255
:10466300EB123E57E0FEA3E0FF2212467122E0FA6E
:10467300A3E0FB1211D522123104023C86EAF0A317
:10468300EBF074022212360574FF6822A31233EA98
:10469300A3A3A322A3A3A3A3EEF0A3EFF022123EAE
:1046A300577401F02208E93400F9221246B2223489
:1046B30000F50F850E82F583228882898322850E79
:1046C30082850F831246CB22E0F8A3E0F98E828F16
:1046D3008322F0EE240F123E542274F71203627EFB
:1046E300008008EE12484A120D430E901DA6E49373
:1046F300FAEEC39A40ED0233CB74F7120362EAFE7B
:10470300EBFF7800790080031247DA12476B5042BF
:10471300E8FAE9FBEA75F017A4FA85F00875F017D3
:10472300EBA4250812475C6E7003A3E06F70D98A6F
:10473300828B83A3A3A3A3A3A3A3A3A3A3E06C70CC
:1047430003A3E06D601074FF6C700374FF6D70B8A9
:1047530080047A007B000233CBFBEA2468FAEB3453
:1047630011FB8A828B83E022901DA6E493FAC3E8AF
:104773009AE994002274F61203627CFF7DFF7AFEAD
:104783007BFF1248757001E970467A007B00803226
:10479300EAFCEBFDEC75F017A4FCAEF075F017ED39
:1047A300A42EFDEC2468FCED3411FDEC240FF582FE
:1047B300ED123D957004ECF8EDF9EA24010AEB34AF
:1047C30000FB901DA6E493FCC3EA9CEB940040C05D
:1047D300E8FAE9FB023E2AE824010246A874F7122C
:1047E3000362EAFEEBFFEE7001EF600E1248001267
:1047F3003E658E828F83A3123E5C0233CB7C177D92
:104803000079001211510246D074F7120362EAFED6
:10481300EBFF7508008021E50812484A8A828B83E2
:10482300A3A3A3A3A3A3A3A3A3A3E06E7003A3E0E3
:104833006F6003120D430508901DA6E493FAE50883
:10484300C39A40D30233CB75F017A42468FAE5F07A
:104853003411FB2274F61203621248757001E96089
:104863000AE8240DFAE93400FB80047A007B000295
:104873003E2A120D378A088B09A808A909E822F5F0
:1048830082EF123E57E4F02274F01203628A0E8B19
:104893000F8C0A8D0B89081248CE7001EF60291224
:1048A3004800E50EF0A3E50F1248DBA3A3A3A3E59D
:1048B3000AF0A3E50B1246D5E50870027401F0EE89
:1048C300240E12250A1248EF023F27120D3D8A0CCF
:1048D3008B0DAE0CAF0DEE221248DF22F08E828FCD
:1048E300838002A3A3A3A3A3A3A3A3227401F0EE33
:1048F300240D123E547402F02274F51203628A08E6
:104903008B09ECFEEDFF750A00800DEE6C7002EF73
:104913006D6003120D43050A901DA6E493FAE50AA0
:10492300C39A5021E50A12484AEA240A12494B1253
:104933003548E5086C7003E5096D70CF888289837B
:1049430012469B80D102422EF8EB124951223400C9
:10495300F90246BCC082C08374F81208A185108294
:10496300851183AC82AD837583807582327408129E
:10497300075A851082851183AC82AD8312448E64FD
:104983000170047900800279017408023ADAF58231
:10499300EB1265DEA2E222E0F508750900750A0054
:1049A300750B002274091208297F040205EA1265B7
:1049B300DEA2E52212708AE822EE2412FAEF340016
:1049C300FB120ECFE9227905120EDB740222E0FA04
:1049D300A3E0F9EA2274021208297F060205EA120B
:1049E3000FC590054712708A7A147B0022340002A7
:1049F3005C8DE024FFF8A3E034FFF92288828983E9
:104A0300221252B0120829024A391253DDE4F0226D
:104A1300E08E828F83124A1C22F0124A2122EE2456
:104A2300FF1EEF34FFFF22A3A3E0FCA3E0FD22EE71
:104A3300FAEFFB120FB37F080205EA7AD07B041268
:104A430019F1740222A2AFE492E0FAC2AF9004D744
:104A5300E004F0EAA2E092AF22AA82AB8312182903
:104A63008E828F83A3A3125060E02212082902557D
:104A73000FEE240EF582EF1253DD22EE240DF582A4
:104A8300EF1265DE640122E0FEA3E0FFEE227F0762
:104A93000205EAFAEF3400FB79E1120F5922124AB8
:104AA300A522125610A3A3A3A3A322EE2412FCEF64
:104AB3003400FD22C082C083800A7AD07B041211A5
:104AC300811211699004D0E07002A3E070EC9004AD
:104AD300D2E07002A3E0600C7AD27B04121181123F
:104AE300116980EA9004D0E4F0A3F09004D6F0902A
:104AF30004D7F09004D88003F0A3E0F00251877448
:104B0300F41203628908E9246DF582E4341DF58308
:104B1300E493FEFA7B00121163EA7001EB600F125B
:104B230063C8E48A828B83A3A3A3A3F080297A02B8
:104B33007B00121163EA7001EB6018E508244CF561
:104B430082E4341DF583E4938A828B83F0741AA381
:104B5300124E857A007B000249ACC008740629FB1B
:104B6300EAA2E0501EEB75F00A84AAF0EA6014741E
:104B73000A2BC39AFBEAC394054004740A2BFB7403
:104B83000B2BFBE9C394134004781480027806E8E6
:104B93002BFB8B0874092508F8E43400F97A0A7BA7
:104BA30000120211E8F9D008020531C082C08390D7
:104BB30004F4E05402600A1218A7E9600479018042
:104BC300027900025187C082C0839004F4E054024A
:104BD30060199004D6E0700F9004D9E07002A3E04E
:104BE3006009124BF3500479018002790002518766
:104BF3009004D9E02410125078A2E722C082C08327
:104C03009004D8E0C0E0908041E0FCD0E0C39C5029
:104C13000512116380047A007B00025187C082C0B1
:104C23008312116902518774F6120362EAFEEBFFE5
:104C33008E828F83A3A3A3A3A3E012062800031FDE
:104C43004D4C4C9E4C1F4DAF4C900527E0640F60BC
:104C530013120E99E9700DEEFAEFFB90145B1250EC
:104C63005C1219FC90054FE08E828F83A3A3A3A34C
:104C7300A3A3F074148E828F83F0EEFCEFFD7AD23F
:104C83007B0412117BA2AFE492E0FAC2AF9004D886
:104C9300124A537920120E870257ED120E93E960E0
:104CA30007740D124D3480F0741580C98E828F8382
:104CB300A3A3A3A3E060658E828F83A3A3A3A314FE
:104CC300F0EE2402EF34000A0AFB8A828B83124936
:104CD300B7FCE9FD8C828D83E0F508EE2405F8EF3F
:104CE300124D29E508126995A882A9838A828B83CC
:104CF3001263D8E50860258E828F83A3A3A3A3A3A1
:104D0300E0C3940A5016EE2405124D2D240A8E8218
:104D13008F83F088828983E004024C7CEEFAEFFBF8
:104D2300121169024C9B12625022F8EF126250E09A
:104D3300228E828F831250F41218A122C082C08364
:104D43009004DBE07002A3E0600B9004DB12505C84
:104D53001219FC8002790002518774F7120362EA88
:104D6300FEEBFFEE240D124A777401F0EE242F12AE
:104D73004DC6C0E0124A74D0E0F0EE2430124DC6A6
:104D8300C0E0EE2412124A77D0E0126273C0E0EE64
:104D93002413124A77D0E0F0EE242B124A7712063E
:104DA30062EE2422FCEF3400FDEE242D124DC6F9F1
:104DB3001253AE120829E97007EEFAEFFB120DCD7C
:104DC30002550FF582EF1265DE22C082C083120EF8
:104DD30099E96004792080027901025187C082C079
:104DE30083EA125F02E0D2E0024AFEC082C083126D
:104DF3005EFB124A847011124E7A400C8A828B83B6
:104E0300A3E0F9120E8D806CEA125EEAEB124DC933
:104E1300A2E650128A828B83A3E0F990145D1250AC
:104E23005C1219FC804E125EFB124A847009124E0A
:104E33007A5004743080368A828B83A3E0641B70BB
:104E430004742280288A828B83A3E0700F125EFB96
:104E5300124DC92462F582E4341D800D125EFB12EB
:104E63004DC9244CF582E4341DF583E4938A828B87
:104E730083124E85025187EA125EEAEB1265DEA2C7
:104E8300E322F09004F1E0F912116F22C082C08393
:104E93009004D9E07002A3E06043E97006124F5218
:104EA300E4801A741B6970389004D9E0240DFAA3C6
:104EB300E01249F0E0640570E4124F52E9124F5BCF
:104EC300120DBB9004D9E0240E124BF95003126665
:104ED300889004D9E4F0A3F07910120E8702518769
:104EE30074E96970499004D912623EE09004D96074
:104EF30036E0240E181818124F4EA2E29004D9E09F
:104F0300400F2411080808124F4E14F01217D580D1
:104F1300CC240F08124F4EC2E7124F5B9014591264
:104F2300505C1219FC809C124F5574E9808F741CDD
:104F33006970869004D91254B690146312505C12AF
:104F430019FC9004D9E4F0A3F080921250792290D6
:104F530004D9E0125061A322F09004D91254BA226A
:104F630074F4120362750A00750B00A2AFE492E0B9
:104F7300FEC2AF9004D9E07002A3E06008EEA2E0A5
:104F830092AF02503C90146112505C1219FCE94438
:104F930010FA9004D0801285080A85090BE50824CD
:104FA300FBF582E50934FFF58312504FE5087002E3
:104FB300E50960C91250445A6A70DC780A1207E1A5
:104FC300AC08AD09124A3E1208299004D9E508F04D
:104FD300A3E509F0124BF340639004D7E014F0EE1D
:104FE300A2E092AF9004D9E0240E1818A3E0340095
:104FF300F9E8FEE9FF8E828F83E0FA125069F91215
:105003000D7FE99004D4F0A3E4125F17E0A2E75008
:10501300189004D9E024121250571216D99004D9CB
:10502300E024131250571216CD9004D9125071A2D6
:10503300E1B3E492E0F91217BD0249AC9004D680C3
:105043009BE508125FCAE5091265DE22E0F508A3B5
:10505300E0F50922125078F92212506022E0F8A3F9
:10506300E0F5838882229004D912573CE022E024A1
:105073000F12507822F812624AE02274F712036288
:10508300EAFEEBFF120EBDEE125EEAEF124E7F4018
:105093000A124A7E700590803F8003908040E0F9B9
:1050A300EEFCEFFD7AD07B0412118DE9602FEEFA4E
:1050B300EFFB90145F12505C1219FCEE240EF58284
:1050C300EF1249944008124A48120DC78014EEFAB1
:1050D300EFFB90145712505C1219FC800574F11207
:1050E30050E802550F8E828F83A31250F4120DBB2A
:1050F30022F0EEFAEFFB22C082C083120DC70251E9
:105103008774F7120362EAFEEBFF7508009004F45C
:10511300E05402700EEE242FF582EF1249945003EF
:105123007508E89004F4E05460700DEE242F124DDE
:10513300C6A2E150037508E88E828F83A3A3A3A3BD
:10514300E0C3947540037508E8EE242D124DC67034
:105153001AEE242A124DC670127508F5120EBDA957
:1051630008EEFAEFFB120E8D02550FE50870ED12F3
:105173000DA980F4C082C083740D8A828B83F012E0
:1051830018A18000D083D082020531C082C083E49D
:105193008A828B83F0A3F0EA242F1249914018905E
:1051A30004D7E0C0E090803FE0FCD0E0C39C40180F
:1051B30079F1120E8D80CD9004D6E0C0E090803F4F
:1051C300E0FCD0E0C39C50E8124E8680E874F412F1
:1051D3000362E9FFEA248CF582E4341DF583E4934A
:1051E300244AFE8F0A250AFAE43400FB121163EA0B
:1051F3007001EB600FEF8A828B83A3A3A3A3F0124A
:1052030063C880047A007B000249ACC082C083E497
:105213009004EFF09004F0F09004E312523574021E
:105223009004E5F09004EC12523574019004EE0200
:105233004AFE7487F0A3740EF022C082C08374F117
:105243001208A17402851082851183F07401120A79
:1052530057E9F060047AFF7BFF7402120A57EAF001
:10526300A3EB126E6E740F8002741112082902519F
:1052730087C082C08374FE1208A1740A85108285D8
:105283001183F07401120A57126E6D740280DC747C
:10529300F0120362126BF9120A307808790C1202C9
:1052A3007278081207D97AE67B04024A04120FB90E
:1052B30074042274F412036274CE1208A1900527B9
:1052C300E0640F6007742E125C1780237ADD7B0481
:1052D3001249E212021988088909750A00750B0040
:1052E30078081207D97ADD7B041252B012082974A8
:1052F300320249A974F7120362EAFEEBFF7A001245
:1053030053C96007E0640360027AE8EE2417124D84
:10531300C6C3940B4028E0C3941D5022EA7021EECB
:105323002417124A96EE24221253B41253C970263C
:10533300EE24191270809005361263D8802B7AE818
:10534300EA8E828F83A3F074178E828F83F0EEFA36
:10535300120E9F02550F90053674FEF0A374FFF0F2
:10536300EE24191253BF1218299004EFE04401C030
:10537300E0124A74D0E01253D2740212602B242438
:105383001260172422124A77120662EE2419FCEFE8
:105393003400FD79831A1A1253AC120829E970B349
:1053A300EEFAEFFB120DCD80AAEFFB120ED57402BD
:1053B30022FAEF3400FB7950120F5922FCEF34002C
:1053C300FD7A2D7B0522EE24211265DB640222F097
:1053D300EE240D1253DA22F582EF3400F58322C056
:1053E30082C08374F71208A19004F0E07032740154
:1053F300F0F9121787851082851183AA82AB831275
:105403000EC390053C1206629004EFE04401FB7466
:1054130002120A57AC82AD837A031249C9120829D2
:10542300740902526E74F71203621255F470047415
:10543300EBA3F09004F0E0A2E25003C2E2F0E0A29A
:10544300E150051256058005742A126B6F02550F41
:1054530074F712036274FE1208A112551412572432
:10546300851082851183125746E0F5087017851061
:1054730082851183AA82AB837953120F59EE2412CA
:10548300FAEF126DCF8510828511831254B6A908E5
:10549300120DF79004F0E0A2E1500A8E828F83A3ED
:1054A300E0F9120DFDE49004EFF09004F0F07402C3
:1054B300024A6E1254BA22E0FAA3E0FB2274F712F6
:1054C3000362EAFEEBFF74EB8E828F83A3F09004FA
:1054D300F0E0A2E1500579EB120DFDEEFAEFFB12BD
:1054E3000E2D802874F7120362125514E49004EF12
:1054F300F09004F0F07AFF7BFF8E828F83A3E0F9B4
:10550300120DF78007EEFAEFFB120F237F0102055E
:10551300EAEAFEEBFF790112178D7ADD7B04120FA5
:10552300C57AE67B04120FC52274F7120362EAFE02
:10553300EBFF120E2780CE74F7120362EAFEEBFF35
:10554300790112178D8E828F83A3A3A3A3E0600436
:105553007A0080027AEB1255855003C2E2F0E0A292
:10556300E150051256058011A2E0500D742A8E8277
:105573008F83F074EBA3126B73EEFAEFFB120DDF64
:10558300808AEA8E828F83A3F09004F0E0A2E22265
:1055930074F7120362EAFEEBFF9004F0E0D2E1F04D
:1055A3007901121787EE240B124A77120662EE2452
:1055B30002EF3400FF0E0E7401C0E0120EC9E9FAC7
:1055C300D0E0FBEEFCEFFD1249C9024A6E74F712FC
:1055D30003621255F4700474EBA3F09004F0E0A29C
:1055E300E25003C2E2F0E0A2E15003125605025575
:1055F3000FEAFEEBFF790112178D8E828F83E06431
:105603002022C2E1125610E0F9120DFD22F08E8223
:105613008F83A32274F7120362EAFEEBFF79011270
:10562300178D7ADD7B04126FCDE060047A0080026F
:105633007AEB1255855003C2E2F0E0A2E150031267
:10564300560502557C74F7120362EAFEEBFF7901FB
:1056530012178D74EB1255865003C2E2F0E0A2E1FB
:10566300500312560502550F74F712036212568146
:1056730002550874F712036212568102550FEAFEAF
:10568300EBFF7ADD7B04120FC5EEFAEFFB120E512E
:105693002274F712036274EF1208A1EAFEEBFFEE25
:1056A30024121253BF121817E9605C740985108223
:1056B300851183F07401120A5774EFF0125724F81E
:1056C3007402120A57E8125746A3A3E0C0E0740419
:1056D300120A57D0E0125F17A3A3A3A3E0640870D4
:1056E300158E828F83A3A3125735E0C0E074051291
:1056F3000A57D0E080067405120A57E412627B74DD
:1057030006120A5712570F7411024A6EAA82AB830C
:10571300120EED851082851183AA82AB831218A124
:105723002212603412708A88828983E0FCA3E0F934
:10573300EC2212573CA3A3A32212574022126F5705
:10574300A3A322F0A3E9125EF7126F5322C082C013
:1057530083120F2F025187C082C083900511749169
:10576300F0A3741CF09005137478F0A3741DF090EB
:1057730014677486F0A3741AF090146974E8F0A3A4
:10578300741AF09004FD74F1F0A3740DF09004F416
:10579300E04401024AFBC082C083EAFCEBFDEA2439
:1057A300161266017902120EAB025187C082C083C2
:1057B300790602669F74F61203629004F2E07002A7
:1057C300A3E060031257F29004F2E4F0A3F0900414
:1057D300F6F080031211699004F1E0F9121175EAF1
:1057E3007001EB70EF80031208297F020205EA9033
:1057F30004F21254BA1211692274F7120362E9FA1D
:105803007B009004F1E0F912119302550F74F41226
:10581300036274F11208A18A828B83E02457F58214
:10582300E4341DF583E493851082851183F0640BC2
:10583300700DE98A828B83A3F0120F110258F6E0F0
:1058430070030258F6640C60030258EE7403120AE4
:1058530057125C11EA242EF582EB124DC9C0E07495
:1058630002120A57D0E0126265A3A3A3A378081219
:105873000A307405120A571262828A828B83A3A3A9
:10588300A3A3A3A3A3124A2A7409120A57ECF0A3F1
:10589300ED125F4150047C008011EA2411F582EB84
:1058A300124DC9FC900549E0C39CFC740B120A57C6
:1058B300ECF0EA2414F582EB124DC9C0E0740C122B
:1058C3000A57D0E0F0EA2415F582EB124DC9C0E087
:1058D300740D120A57D0E0F0EA2416F582EB124D4C
:1058E300C9C0E0740E120A57D0E0F07401120A57CF
:1058F300126E6D740F0249A9C082C0839004F6E052
:105903007004790180027900025187C082C08390BC
:1059130004F6E06403700479018002790002518780
:1059230074F61203629004F61259BA2465F582E9FB
:105933003414F583125C88E0C2E7F0C333FCE82C2F
:10594300F582E9124A7AA3E493FEC333FCE433FD00
:10595300EC2465F582ED3414F583E07002A3E06076
:1059630005EE9004F6F08A828B83E0C333FCE433C4
:10597300FDE82CF582E93DF583E493F508C4540F63
:10598300C333240BF582E43405F5831249B7700160
:10599300E97005120EFF801C740F5508C333FCE831
:1059A3002CF582E91259C693C0E0740193F583D0B4
:1059B300821219FC0257EDE0C333F8E433F9E8220D
:1059C300F582EB1253DDE42274F212036274FE12C9
:1059D30008A1890C8A088B09125A82FA125AA170FB
:1059E30001EF60238E828F83E50CF0E4A3F0F50AC8
:1059F30078081207DD125A8F24020A0A125AB012CB
:105A03000829125A108003125ABA0249D8EEFAEF43
:105A1300FB024E8674F012036274FE1208A1890C15
:105A23008C088D09125A82F50EEA60067405250E5C
:105A3300F50EAA0E125AA17001EF603B8E828F837E
:105A4300E50CF0E4A3F0EE250EF8EF3400F98E82B6
:105A53008F831263D6E48E828F83A3A3A3A3F0F56F
:105A63000A78081207DD125A8F2417FA125AB01255
:105A73000829125A108003125ABA7402024A07E91B
:105A83002436F582E4341DF583E49322E50C2441A6
:105A9300F582E4341DF583E493FC7D00EE227B0064
:105AA3001211638A0A8B0BAE0AAF0BEE22EF34009E
:105AB300FB121145740322851082851183E50CF0D6
:105AC300791AAA82AB83120E8D22C082C083E99019
:105AD30004F1024AFE74F412036274FE1208A1EA8E
:105AE300FEEBFFEE542070318040A2AFE492E0FA67
:105AF300C2AF9004D8E014124A558508828B8312F2
:105B03005C02AA08120E9F851082851183E064153A
:105B13006007AA08AB091211697AD27B04121181BA
