:020000040000FA
:060000000212120207A526
:03002B0002270C9D
:03003300020D219A
:0300430002105355
:03004B00020F1091
:030053000206F7AB
:03005B00020F1F72
:03006300020F2B5E
:03006B00020CF094
:03007B00020D0A69
:10008300020741010101010503010F10FEFF0300F7
:100093000300030003000300030003000300030045
:1000A30005000A00140028004F009E000000311BC9
:1000B300311B311B311BE719E119311B1F2A0000CA
:1000C30000005B29000000000C0000000C00010A86
:1000D300D007D007F804FF0101003D11000000988C
:1000E30011E80364006400B8010202000020000567
:1000F3000207011E02051E020A03B80B02803E011D
:10010300033200020136BF010A01E0020206303168
:100113003233343536373839414243444546002873
:100123006E756C6C20706F696E74657229003F3F49
:100133003F000000803FF9021550B743BA5100E772
:10014300DB2E0000A04010000000080000000A00A1
:100153000000121231604612125E603DE9687008B9
:10016300F618F618F618F622748067F71201890953
:100173000909748067F72212125E601D1212317032
:1001830005191919801A1210AB701F1210C0C37011
:1001930003E66733191919400718181822080808C5
:1001A30074FFF618F618F618F6221210C06017122C
:1001B3001285702192F012128F7019501720F014CB
:1001C300080808090909E7F61819E7F61819E7F600
:1001D3001819E7F62212128F60E6E869701F080803
:1001E300E62480F608E436F618547FB47F0CE65410
:1001F300806007F6E418F618F622181822E9C6CC30
:1002030008C6CD08C6CE08C6CFC0E0E8C0E0EAC045
:10021300E0EBC0E009E9F809E7FA09E7FBE6F918BA
:10022300E6F8C3EC98ED99EE9AEBC2E7F5F0EFC26E
:10023300E795F0500E600CEBCFFBEACEFAE9CDF96F
:10024300E8CCF8EAA2E7D2E7FAEB33FB13F5F0EEDA
:10025300A2E7D2E7FEEF33FFC5F013A2E730E601D2
:10026300B313C5F0C3C0E0C0F07F00C39BFB605B6A
:100273009418600C401AD0E023F9D0E0F802035838
:100283008AF0E9486003D2F0E4AFF0FAF9F8803B72
:10029300EB30E40D89F0EA6003D2F0E4AFF0F9CA81
:1002A300F8EB30E30D88F0EF6002D2F0AFF0E4CA70
:1002B300C9F8EB54076014FBC3EA13FAE913F9E82E
:1002C30013F8EF135002D2E0FFDBEDD0E0C0E030D3
:1002D300E739C3E49FFFF5F0EC98FC42F0ED99FD9C
:1002E30042F0EE9AFE42F0D0E0F9D0E0F8E5F0609B
:1002F3007AE923F9EE20E742D8028067C3EF33FFA0
:10030300EC33FCED33FDEE33FE80EAEC28FCED39F3
:10031300FDEE3AFED0E023F9D0E0F84002801BC3A3
:10032300EE13FEED13FDEC13FCEF135002D2E0FFCE
:1003330008B800067F7F74FF802EEF3350178CF0D0
:1003430020F00260100CBC000C0DBD00080EBE00B6
:100353000408E860DFE933E813FFEE2313FE4F4D93
:100363004C8008E95480FFE4FEFDFCEE33EF33F4E8
:100373007004FCFD7E80D0E0FBD0E0FAD0E0F8D042
:10038300E0CFC618CEC618CDC618CCC6F9221212B5
:100393005E700418181822121231700D74FFF618CB
:1003A30019F61819F61819F622E7548066F6121290
:1003B3008F700F12128570F014F608F608F608F61F
:1003C30080D1121285700CF608F608768008E64490
:1003D3007F80EC1210C3700C1210AE60BFE6548025
:1003E300F6E480BB1210AE700519191980A5E869EF
:1003F300700C763F18768018F618F6E8F922E6CDE9
:10040300C0E018ECC0E0E633CD33CDD313F6E719E3
:10041300FCE7191933CC33C3947F400ECD9D502490
:1004230008E65480F6E418F6800FF4043D145014E3
:1004330008E6447FF6187680E418F618F6D0E0FC58
:10044300D0E0FD22CCD313CCFD18E4C6CBC0E0181A
:10045300E4C6CAC0E00808ED08C633E613F618E49C
:1004630033C675F003C3CA97CA09CB97CB199C400F
:10047300047D08802EBD000302053A16B6FF05066B
:1004830006081618C3CA33CACB33CB33CA27CA09E3
:10049300CB37CB193CC37D08803E187D0820E75C31
:1004A300C633C6CA33CACB33CB33DDF1D5F0EB3019
:1004B300E77BCA97CA09CB974ACB199C406F4B700D
:1004C30025E620E0218066187D08C3CA97CA09CBB8
:1004D30097CB199CD3C633C6CA33CACB33CB33505D
:1004E300C9DDE7D5F0E1D3E4C636C608C636C6088B
:1004F300C636C608C636C61818188031C3CA97CA86
:1005030009CB97CB199CB34097C633C6CA33CACB22
:1005130033CB33DD34D5F02EC6A2E0C640C8CA279C
:10052300CA09CB37194A70BECB3CB480B90808E678
:100533003308E633601F181818D0E0FAD0E0FBD078
:10054300E0FCD0E0FD22187D08CA27CA09CB37CBCF
:10055300193CD3808013F618E4B67F11F618B6FF62
:100563000EF618C60470D20808768080CAF618F60C
:1005730018F680C50012125E604F1212316012E746
:10058300548066F61210AB7011121285703B090984
:1005930009F4F618F618F618F6221210C0701512A0
:1005A300128F08080860EAE6447FF618768018E49C
:1005B300F618F62212128F60161212857012E4F6E4
:1005C30008F608F608E65480F609090918181822EF
:1005D300EAC0E0EBC0E0ECC0E0EDC0E0E687F0A4E9
:1005E300FBACF008E687F0A42CFCE435F0FA18091C
:1005F300E687F0A42C4B60027401CA35F0FCE433A7
:10060300FB09E687F0D2F7A42CCB35F0FC1908E6FA
:1006130087F0A42BCC35F0FBE433FD0819E687F013
:10062300D2E7A42C4ACB35F0CD3400FC09E687F0A1
:10063300D2E7A42DCC35F0FDE433FA0918E687F0B0
:10064300D2F7A42CCD35F0CA3400FC08E687F0D2EB
:10065300E7D2F7A42ACC35F07A7E20E70B0ACB3316
:10066300CBCD33CDCC33CC33CB3350147004ED30FE
:10067300E00ED2F1E4CD3DCDCC3CCC3B5005DA05C8
:10068300C2F1EB547FC63308E63392F0FBE733093C
:10069300E733C39A502D2B70190C0D4C4D70151860
:1006A30006E608C333700D20F10AA2F013F6E4182E
:1006B300800B4024E4F630F002768018F618F61822
:1006C300F68024D33B14501074FFA2F013F618766F
:1006D30080E418F618F6800FA2F013F618E6330339
:1006E300F618ECF618EDF6D0E0FDD0E0FCD0E0FB18
:1006F300D0E0FA22C0E074F2120AB8E5A7FAE5A145
:10070300FBEA5B5410600812225753A1EF802AEAD8
:10071300A2E0C0D0EBA2E092F0121160158182F04A
:100723005017906198E0FA9014A2E0C39AA2D265A0
:10073300D0335002EAF053A1FE7F01020B6FC0E0F9
:1007430074F2120AB89061A4E0FA759B00E5915A1D
:10075300540860087591F7122299802AE5915A543A
:100763001060087591EF12229F801BEAA2E0C0D0AF
:10077300E591A2E092F0121160158182F05007E03A
:10078300C2E0F01223BF9061A3E0FAE5E95A5404F2
:10079300600E12239575E9FB906193E0A2E640F2A7
:1007A3008097C0E074F2120AB89061A5E0FAE5BF41
:1007B3005A5404600653BFFB1223D702073CC3E419
:1007C30098F8E499F91208028026C3E49AFAE49BA4
:1007D300FBE920E7E9120802E498F8E499F922C357
:1007E300E498F8E499F9120802E498F8E499F9C353
:1007F300E49AFAE49BFB22EB20E7CFE920E7E0B998
:100803000010BB0008E88AF084F8AAF022E4FBC8D1
:10081300FA22EB70227B10C833C8C933C93350079F
:10082300C39AC3DBF280069A50012ADBEAC833F489
:10083300C8C933F4C9FA2275F008E4C833C8C93308
:10084300C933C99AC99B5004C92AC93BD5F0ECFBEB
:10085300C833F4C8E4C9FA2212089B20F01430E725
:100863002B74FFFCFBFA747F8022E4FCFBFA748098
:10087300801AB48008BC00F2BB00EF800F50EBF984
:10088300E4C39AFAE49BFBE49CFCE499C6CC18C647
:10089300CB18C6CA18C6F922E4C9C608CAC608CB0B
:1008A300C6D3330308CCC63392F0C3947F402E944F
:1008B300184019C9B90704CACBCC225025C309CAA9
:1008C30033CACB33CBCC33CC33D9F422F4600DC948
:1008D300CCC313CB13CBCA13CAD9F6CC22E4FCFB8B
:1008E300FA2214FCFBFA22080808EAC0E0EBC0E095
:1008F30086F0E7A4FA180986F0E7A42AFA1809860D
:10090300F0E7A42AFA180986F0E7A42AFA1986F070
:10091300E7A4FBE5F02AFA190886F0E7A42BFBE528
:10092300F03AFA190886F0E7A42BFBE5F03AFA1837
:10093300180986F0E7A4C5F02BFBE43AFA1908E797
:10094300C5F0C6A426F6E5F03BFBE43AFA1886F0B8
:10095300E7A4F6E5F00826F6E43B08F6E43A08F6E1
:10096300D0E0FBD0E0FA22080808E630E7111211C4
:1009730013120982080808C64480C61818182218DA
:100983001818E9799EC608CAC608CBC608CCC6C3E0
:1009930070207996CACBCC7019798ECBCC70137931
:1009A30086CC700EF9802ACA33CACB33CBCC33CC76
:1009B300331930E7F2CCCBCA3350147004EA30E079
:1009C3000DE4CA3ACACB3BCBCC3CCC500209C3E9B9
:1009D30013C6CC182313C6CB18C6CA18C6F922E40B
:1009E300CFC0E0E4CEC0E0E4CDC0E0E4CCC0E0752D
:1009F300F020C3E633F608E633F608E633F608E6F6
:100A030033F6181818EC33FCED33FDEE33FEEF33F9
:100A1300FFC3EC9709ED9709EE9709EF9719191999
:100A2300400FFFEC97FC09ED97FD09EE97FE1919AE
:100A330006D5F0BEECF709EDF709EEF709EFF71964
:100A43001919D0E0FCD0E0FDD0E0FED0E0FF222574
:100A530018C582C0E0E51934FFC583C0E0E518C3BB
:100A6300958224F8F8E4C5A8858319858218C5A85A
:100A7300E8CEF0A3E520F0A37808E608F0A3DEFAB9
:100A8300EFF0A3E58124FAF8E608F0A3E608F0A363
:100A9300E608F0A30808E608F0A3E608F0A315812A
:100AA3001581D0E0FED0E0F8158115811581E8C0ED
:100AB300E0EEC0E022C0D02518C582C0E0E51934BD
:100AC300FFC583C0E0E518C3958224F310AF088502
:100AD30083198582188008858319858218D2AFC847
:100AE300F0A3E9F0A3EAF0A3EBF0A37908E709F098
:100AF300A3D8FAECF0A3EDF0A3EEF0A3EFF0A3D0AC
:100B0300E0F0A3D0E0F0A3D0E0F0A3E520F0A3E56C
:100B1300F0F0A32212127AB90003020B59E49003F6
:100B230001782E79188002F0A3D8FCD9FA901A2EF6
:100B3300AA82AB8390008678D079018015E493A3D1
:100B4300AC82AD838A828B83F0A3AA82AB838C822F
:100B53008D83D8E9D9E77582257583D77403120C81
:100B6300A67582077583277400120CA685198385E1
:100B73001882E0C0E0A3E0F9A3E0FAA3E0FBA378C6
:100B830008E0F608A3DFFAE0FCA3E0FDA3E0FEA380
:100B9300E0FFA3E0C0E0A3E0C0E0A3E0F5D0A3E062
:100BA300F520A3E0A3F5F0E4C5A885831985821891
:100BB300C5A8D082D083D0E0F8D0E03212125E60B4
:100BC3001C121231601712128F70071212857001F6
:100BD300D322C0D01212857006D0D0B322C32233E1
:100BE300D0D0501430E0F6C3E7960809E796080919
:100BF300E7960809E796B32220E0D5E6970809E6C9
:100C0300970809E6970809E697B32212125E601B5C
:100C1300121231601612128F7007121285600CB314
:100C230022C0D01212857005D0D022C32233D0D077
:100C3300501330E0EBC3E7960809E7960809E796F7
:100C43000809E7962220E0E4E6970809E6970809F1
:100C5300E6970809E69722D083D082ECC0E0EDC086
:100C6300E0E493A3FCE493A3FDED4C600D120D7E31
:100C7300EC24FFFCED34FFFD80EFE493A3FCE4934D
:100C8300A3FDED4C600D120EBBEC24FFFCED34FF15
:100C9300FD80EFD0E0FDD0E0FCE493A3C0E0E4935B
:100CA300C0E022C0F0F5F0E59F5407C0E0E59F5493
:100CB300F845F0D0F0F59FE473859FF053F0F8D03A
:100CC300E045F0F59F22D083D082E59F5407C0E032
:100CD300E493C0E0740193C0E07402935407C0F03E
:100CE300F5F0E59F54F845F0D0F0F59F22C0E0748D
:100CF300F2120AB8E589A2E1500312213D75890079
:100D0300C2C57F01020B6FC0E074F2120AB8E58A14
:100D1300A2E2500312213D758A00C2EB80E4C0E0D9
:100D230074F2120AB8E58BA2E0500312213D758BD1
:100D330000C2E880CDD083D082E9C0E0E493A3C3AE
:100D430086F0C5F095F0F908E493A386F0C5F09515
:100D5300F0700BE493A3C3994005E9048002A3E474
:100D630075F002A42582F582E5F03583F583D0E0A2
:100D7300F9E493A3C0E0E493C0E022C0E0C3E493AA
:100D830096087401939618400FE4936670080874EC
:100D93000193661870007019A3A3C3E493960874B3
:100DA30001939618A3A3400DD0E0D0E0D0E0020C4D
:100DB30096A3A3A3A3A3A3D0E022851983851882B6
:100DC300E0A3FEE0A3F5207808E0A3F608DFFAE04D
:100DD300A3FFE0A3C0E0E0A3C0E0E0A3C0E0E0A382
:100DE300C0E0E0A3C0E0E4C5A8858218858319C5E7
:100DF300A8D083D082020CBCD083D082C5F0E49308
:100E0300A3C5F0C395F0F5F0E493A3C395F04005B3
:100E1300E5F0048001E475F002A42582F582E5F093
:100E23003583F583E493A3C0E0E493C0E022740424
:100E3300800474028000CCC0E0EDC0E0E518C39CE0
:100E4300CCAD1950011D10AF068C188D1980068C7E
:100E5300188D19D2AF120F59D0E0FDD0E0FC2274E7
:100E6300028000CCC0E0EDC0E0E518C39CCCAD1916
:100E730050011D10AF068C188D1980068C188D1922
:100E8300D2AF120F37D0E0FDD0E0FC2212125E6029
:100E930025121231602012128F7003021285080886
:100EA30008E76670101819E766700A1819E7667084
:100EB300041819E76622F422C0E0C0F088F0E49336
:100EC3006670080874019366187000A8F0A3A370F5
:100ED3000BD0F0D0E0D0E0D0E0020C96A3A3D0F08A
:100EE300D0E022D083D082CCC0E0E493A36006128A
:100EF3000F7A1470FAE493A360061210801470FA48
:100F0300D0E0FCE493A3C0E0E493C0E022C0E0742B
:100F1300F2120AB81221977F01020B6FC0E074F23C
:100F2300120AB812219D80EFC0E074F2120AB812BF
:100F330021A380E3CAC0E0E493A3C582CCC582C5E4
:100F430083CDC583F0A3C582CCC582C583CDC583BC
:100F5300DAE5D0E0CA22CAC0E0E0A3C582CCC582EC
:100F6300C583CDC583F0A3C582CCC582C583CDC55A
:100F730083DAE6D0E0CA22C0E0E493A3D39C501006
:100F8300E493A3C39C400AD0E0D0E0D0E0020F0377
:100F9300A3A3A3D0E022700908080822601618183A
:100FA30018C6C333C608C633C608C633C608C63315
:100FB300C6D5E0EA222518F58210AF08F5184002DD
:100FC30015198008F51840021519D2AF8519832227
:100FD3007404800A74038006740280027401C0E002
:100FE300F404120FB8D0E012126D22BB0102E72203
:100FF300C082C08389828A83BB0003E08002E493BA
:10100300D083D08222C0D0251810AF08F518500223
:1010130005198008F51850020519D2AFD0D0226007
:1010230016080808C6C313C618C613C618C613C6BF
:1010330018C613C6D5E0EA22C3E0C696F608A3E0B5
:10104300C696F608A3E0C696F608A3E0C696F6226F
:10105300C0E074F2120AB8C2C0E5D1A2E450031290
:1010630021CD7F01020B6F251810AF08F518400240
:1010730015198008F51840021519D2AF22C0E0E413
:1010830093A36C7009D0E0D0E0D0E0020F03A3A3D8
:10109300D0E022C3E7960809E7960809E79608090E
:1010A300E796A2D265D03322181818E608460870CE
:1010B3000AE608C3337005E633F422082219191926
:1010C300E7094709700AE709C3337005E733F422D8
:1010D3000922C3E09608A3E09608A3E09608A3E0DC
:1010E30096A2D265D03322E066701008A3E0667042
:1010F3000A08A3E066700408A3E06622C3E096F042
:1011030008A3E096F008A3E096F008A3E096F02287
:10111300181818E4C396F608E496F608E496F60859
:10112300E496F622E026F608A3E036F608A3E036B6
:10113300F608A3E036F622E026F008A3E036F0082E
:10114300A3E036F008A3E036F022E627F60809E626
:1011530037F60809E637F60809E637F622C0E0E86D
:10116300C0E0E58124FCF8E6A2E7D0E0F8D0E02275
:10117300E657F60809E657F60809E657F60809E6BA
:1011830057F622E056F608A3E056F608A3E056F613
:1011930008A3E056F622E056F008A3E056F008A3B1
:1011A300E056F008A3E056F022700422600D18C642
:1011B300C333C608C633C6D5E0F41822E647F6089B
:1011C30009E647F60809E647F60809E647F6226006
:1011D3000D08C6A2E713C618C613C6D5E0F322C688
:1011E300F4C608C6F4C608C6F4C608C6F4C622C3C5
:1011F300E7960809E7960809E7960809E79622C3E0
:10120300E09608A3E09608A3E09608A3E09622756B
:10121300D00075814075180175190300020B176022
:101223000C08C6C313C618C613C6D5E0F422E709D3
:101233004709C3134709336002E733F422E6F00892
:10124300A3E6F008A3E6F008A3E6F022E0F608A37D
:10125300E0F608A3E0F608A3E0F622E6084608C392
:10126300134608336002E633F422CAC0E0E6F0A373
:1012730008DAFAD0E0FA2274F855C74401F5C779C1
:101283000122E7C33319471947194722E6C3331825
:101293004618461846222518F582E43519F58322A7
:1012A300120CC9283000120CC9633000120CC9A3F8
:1012B3003000120CC9C43000120CC9113100120CD9
:1012C300C9EB3100120CC99C3200120CC92C33003B
:1012D300120CC91C3400120CC95F3400120CC984EF
:1012E3003400120CC9DA3400120CC9FF3400120C9A
:1012F300C9243600120CC9983600120CC9BB36003B
:10130300120CC9DE3600120CC9063700120CC918BC
:101313003700120CC9223700120CC9A63700120C71
:10132300C9153800120CC9BE3800120CC9C63800E2
:10133300120CC9303900120CC9723900120CC9825F
:101343003900120CC96A3A00120CC9F53A00120CA2
:10135300C9553B00120CC9213C00120CC9983C0032
:10136300120CC9D53C00120CC9343D00120CC981C2
:101373003E00120CC99D3E00120CC9FF3E00120C28
:10138300C99C3F00120CC9E33F00120CC97E400008
:10139300120CC92B4100120CC9694100120CC9D9A6
:1013A3004100120CC9244200120CC95D4200120C08
:1013B300C98D4300120CC9E04400120CC941450019
:1013C300120CC98A4500120CC9B24500120CC9356A
:1013D3004600120CC9B54600120CC92F4700120C67
:1013E300C9544700120CC9654700120CC9DB4700FA
:1013F300120CC97F4800120CC9C14800120CC9570E
:101403004900120CC97E4900120CC9A64A00120CED
:10141300C9B94A00120CC9124B00120CC9534B0034
:10142300120CC9CC4C00120CC9624E00120CC988B4
:101433004E00120CC9394F00120CC9924F00120C06
:10144300C97E5000120CC9815200120CC98B520084
:10145300120CC9955200120CC99F5200120CC9A953
:101463005200120CC9C35200120CC9CD5200120C07
:10147300C9D75200120CC9E15200120CC902530021
:10148300120CC9505300120CC95A5300120CC97ED6
:101493005300120CC9A25300120CC9FF5300120CC3
:1014A300C94A5400120CC9685400120CC9D854001C
:1014B300120CC9155500120CC95C5500120CC9C495
:1014C3005500120CC9685600120CC9355800120C8D
:1014D300C9585800120CC92A5900120CC950590096
:1014E300120CC9305A00120CC9C85C00120CC92A6C
:1014F3005E00120CC9F15F00120CC9436000120CAC
:10150300C93C6100120CC9896100120CC9F4610065
:10151300120CC9FE6100120CC9BA6300120CC9E9AE
:101523006400120CC9496500120CC9FF6500120C56
:10153300C9E76600120CC9A46800120CC9C368008D
:10154300120CC91F6900120CC9F76900120CC91CDF
:101553006A00120CC96D6A00120CC94F6B00120CA1
:10156300C9876B00120CC9C76B00120CC92A6C0027
:10157300120CC9466D00120CC9A66D00120CC98C61
:101583006E00120CC9947000120CC9B07000120CDA
:10159300C9557200120CC99B7200120CC9797300F1
:1015A300120CC9D37300120CC91B7400120CC98B23
:1015B3007400120CC9197500120CC99D7500120C28
:1015C300C9097600120CC98A8001120CC9DC80019A
:1015D300120CC9168301120CC9628301120CC9349F
:1015E3008401120CC9AB8401120CC9EE8501120CE3
:1015F300C93B8801120CC9628901120CC9C9910146
:10160300120CC9469201120CC9C69401120CC9B23C
:101613009501120CC9579601120CC9749701120C4B
:10162300C9A59801120CC9989901120CC9AF9C0164
:10163300120CC9B19E01120CC9119F01120CC9C72A
:101643009F01120CC978A001120CC9A3A001120CAE
:10165300C944A101120CC928A201120CC903A30198
:10166300120CC9A1A301120CC9CEA301120CC9F01B
:10167300A301120CC9E3A501120CC9C3A601120CE4
:10168300C910A701120CC971A701120CC933A80113
:10169300120CC968A801120CC9B6A801120CC9E63C
:1016A300A801120CC924A901120CC97CA901120CAE
:1016B300C981A901120CC9DCA901120CC904AA0130
:1016C300120CC923AB01120CC98FAB01120CC9F95F
:1016D300AB01120CC985AC01120CC99CAF01120CF1
:1016E300C968B001120CC9D8B101120CC92CB401DC
:1016F300120CC9D4B401120CC989B501120CC91753
:10170300B701120CC9B4B701120CC9FCB701120C12
:10171300C998B901120CC9ACB901120CC9B9B90104
:10172300120CC9D4B901120CC9E0B901120CC9FEDB
:10173300B901120CC9B5BB01120CC9EEBB01120CE5
:10174300C9FBBB01120CC904BC01120CC963BC0167
:10175300120CC9B9BC01120CC9C4BD01120CC920B9
:10176300BE01120CC913BF01120CC957BF01120CE1
:10177300C9DABF01120CC9DBC001120CC999C1013E
:10178300120CC938C301120CC90DC401120CC9AE25
:10179300C401120CC93EC501120CC955C501120C76
:1017A300C98EC501120CC998C501120CC9A4C50183
:1017B300120CC9C2C501120CC906C601120CC957C5
:1017C300C601120CC978C601120CC992C601120CCB
:1017D300C90AC701120CC94BC801120CC995C8012B
:1017E300120CC988C901120CC9A4C901120CC9077A
:1017F300CA01120CC95CCA01120CC91ACB01120C22
:10180300C929CC01120CC9D5CC01120CC9ACCD012C
:10181300120CC918CE01120CC9ACCE01120CC97C32
:10182300CF01120CC9ABCF01120CC90AD001120CA3
:10183300C9B8D001120CC9DED001120CC956D101AE
:10184300120CC97BD101120CC99ED101120CC9D94A
:10185300D101120CC9B7D301120CC99AD401120CCD
:10186300C952D501120CC9E7D601120CC93BD701E5
:10187300120CC97ED701120CC9EDD701120CC96134
:10188300D801120CC9BAD801120CC9E0D801120C44
:10189300C91BD901120CC947D901120CC992D9012C
:1018A300120CC9EBD901120CC967DA01120CC94534
:1018B300DB01120CC9D7DC01120CC944DD01120C87
:1018C300C96DDD01120CC9D3DD01120CC92ADE0179
:1018D300120CC963DE01120CC9B8DE01120CC9DD9A
:1018E300DE01120CC923DF01120CC940DF01120C07
:1018F300C9EADF01120CC97AF403120CC9C5F40357
:10190300120CC96C8002120CC9A08002120CC97699
:101913008102120CC94A8202120CC9758302120C8D
:10192300C9F98402120CC9778502120CC93E8602DA
:10193300120CC95F8702120CC9D18702120CC9337A
:101943008802120CC9818802120CC98B8802120CFE
:10195300C9C98802120CC9328902120CC9D1890281
:10196300120CC94F8A02120CC9048B02120CC976DD
:101973008B02120CC99C8B02120CC9CC8B02120C69
:10198300C9F98B02120CC99F8C02120CC9AF8C02CD
:10199300120CC9028D02120CC90E8D02120CC91A47
:1019A3008D02120CC9238D02120CC9848D02120CF4
:1019B300C9E48D02120CC9358E02120CC9508E0275
:1019C300120CC9808E02120CC9A18E02120CC9AD71
:1019D3008E02120CC9EE8F02120CC90C9002120C6B
:1019E300C9759002120CC9889002120CC99F90020B
:1019F300120CC9329102120CC9319202120CC92D78
:101A03009302120CC9AF9302120CC9B99302120CC0
:101A1300C91C9402120CC92D9402120CC9709402B1
:101A2300120CC9B79402120CC9ED9402120CC9230B
:101A33009502120CC9419502120CC9659502120C4C
:101A4300C9A69502120CC9999602120CC9DF960217
:101A5300120CC91A9702120CC9799702120CC9A168
:101A63009702120CC9DA9702120CC9E89702120CFA
:101A7300C9499802120CC9869802120CC9C8980267
:101A8300120CC9F99802120CC92D9902120CC9380B
:101A93009902120CC9569902120CC91E9A02120C11
:101AA300C9289A02120CC9679A02120CC97D9A02BC
:101AB300120CC9E79A02120CC9FB9A02120CC9F361
:101AC3009B02120CC9069C02120CC91B9C02120C2D
:101AD300C9BB9C02120CC91F9D02120CC9E29D02D4
:101AE300120CC9ED9D02120CC90C9F02120CC928DD
:101AF3009F02120CC9809F02120CC9B79F02120CDD
:101B0300C9D19F02120CC945A002120CC9D6A0026A
:101B1300120CC91EA102120CC939A302120CC9A3CB
:101B2300A302120CC90EA402120CC967A602120C5E
:101B3300C977A602120CC97AA602120CC986A6029C
:101B4300120CC99AA602120CC9A2A602120CC9D77A
:101B5300A602120CC985A702120CC9F5A702120C22
:101B6300C959A802120CC9F2A802120CC98CA90205
:101B7300120CC9BAA902120CC94AAA02120CC956FC
:101B8300AA02120CC985AA02120CC9A7AA02120C36
:101B9300C9CEAA02120CC934AB02120CC99EAC0204
:101BA300120CC9A1AC02120CC918AD02120CC90463
:101BB300AE02120CC9DCAE02120CC966AF02120CE3
:101BC300C99BB002120CC94DB102120CC986B102F5
:101BD300120CC9B7B102120CC9C0B102120CC9ACC4
:101BE300B202120CC928B302120CC9B8B302120C08
:101BF300C982B402120CC906B502120CC93CB50263
:101C0300120CC985B502120CC9C02C00120CC96D87
:101C13007600120CC9E07600120CC9167700120C7C
:101C2300C96D7700120CC9257900120CC9097B0014
:101C3300120CC9FC7D00120CC92A7E00120CC94E7D
:101C43007E00120CC9BD7E00120CC9F17E00120C7D
:101C5300C92E7F00120CC96A7F00120CC9AB7F002A
:101C6300120CC946F003120CC90ACC03120CC9D3D7
:101C7300CC03120CC9D6CC03120CC9043000120CCD
:101C8300C975CD03120CC9ABCD03120CC9AECD037C
:101C9300120CC9B1CD03120CC9CFCD03120CC984E8
:101CA300CE03120CC990FE02120CC9ABFE02120C39
:101CB300C9F6FE02120CC940FF02120CC9E3FF026F
:101CC300120CC9D0E203120CC916E403120CC9208A
:101CD300F403120CC96FE403120CC988E403120C59
:101CE300C9C8E403120CC977E503120CC9A6E503BE
:101CF300120CC967CF03120CC9E2CF03120CC9ED52
:101D0300CF03120CC912D003120CC9AEAF03120CCD
:101D1300C9F4AF03120CC964B003120CC98CB0032D
:101D2300120CC94EB103120CC957B103120CC9AD41
:101D3300B103120CC9D8B103120CC937B203120C88
:101D4300C9D6B203120CC912B303120CC96CB30384
:101D5300120CC9C3B303120CC9F1B303120CC9703B
:101D6300B403120CC9BDB403120CC9FCB403120CA6
:101D7300C930B503120CC942B503120CC954B503DB
:101D8300120CC973B503120CC932B603120CC9DAAB
:101D93009D03120CC97DDB03120CC9E1DB03120C9A
:101DA300C905DC03120CC90BDD03120CC9E5D8020B
:101DB300120CC9CDD902120CC909DA02120CC9BA24
:101DC300DB02120CC9FCDB02120CC9B0DD02120CDF
:101DD300C9F7DD02120CC9D4DE02120CC95FDF029F
:101DE300120CC9F6DF02120CC94AE002120CC98AAE
:101DF300E002120CC947E202120CC9B5E302120C4D
:101E0300C9C7E502120CC9D5E502120CC939E602AD
:101E1300120CC98DE602120CC982E902120CC986A2
:101E2300F503120CC99CF503120CC9D4BD03120CA3
:101E3300C9ECBD03120CC994BE03120CC9D5BE0371
:101E4300120CC9F2BE03120CC915BF03120CC95CF4
:101E5300BF03120CC995BF03120CC9C9BF03120CEF
:101E6300C957C103120CC953EE03120CC9C0EE03C8
:101E7300120CC9DDEE03120CC922EF03120CC92E9A
:101E8300EF03120CC938EF03120CC9BBFF01120C8C
:101E9300C9008003120CC94C8003120CC95481037E
:101EA300120CC9FA8103120CC90F8203120CC9590F
:101EB3008203120CC9AA8203120CC9BD8203120C3D
:101EC300C9008303120CC9148303120CC9F98403D8
:101ED300120CC90F8603120CC94A8603120CC94A95
:101EE3008803120CC9628803120CC9AC8803120C54
:101EF300C9E08803120CC9398903120CC95289033A
:101F0300120CC96F8903120CC9D38903120CC97E41
:101F13008B03120CC9A08B03120CC9D58B03120CB3
:101F2300C9008C03120CC9108C03120CC91C8C033E
:101F3300120CC91F8C03120CC9898C03120CC940E3
:101F43008D03120CC9748D03120CC97E8D03120C00
:101F5300C99B8D03120CC9FD8D03120CC91A8E0384
:101F6300120CC9828E03120CC9BD8E03120CC9CC8C
:101F73008E03120CC9D68E03120CC952EF03120C36
:101F8300C963EF03120CC9F4EF03120CC924E00177
:101F9300120CC952E001120CC9C1E101120CC94F64
:101FA300E201120CC9CBE201120CC92EE301120C9F
:101FB300C970E301120CC9E7E301120CC992E401F1
:101FC300120CC914E501120CC950E501120CC90C1D
:101FD300E901120CC9D9EA01120CC9A3EB01120CD5
:101FE300C9C7EB01120CC9B2ED01120CC924F001EF
:101FF300120CC9B1F001120CC9C2F101120CC929AA
:10200300F501120CC939F501120CC9A3F601120C22
:10201300C91EF701120CC938F801120CC9B8F9012D
:10202300120CC9258F03120CC9E48F03120CC95873
:102033009003120CC9DC9003120CC9339103120CE8
:10204300C9329203120CC98F9203120CC9A49503CF
:10205300120CC9369603120CC99B9603120CC93A8B
:102063009803120CC9F59803120CC9619903120C59
:10207300C9F59A03120CC9929B03120CC9929C03D3
:10208300120CC95FF203120CC961F203120CC9747A
:10209300F203120CC982DD03120CC9CFDD03120C4B
:1020A300C97EDE03120CC9E4DE03120CC998D70300
:1020B300120CC9F1D703120CC9C0F303120CC9CC1B
:1020C300F303120CC956E703120CC990E703120C71
:1020D300C954E803120CC962DF03120CC970DF0391
:1020E300120CC9E97F00120CC9FEF003120CC90ED1
:1020F300F103120CC92CF103120CC994F103120C55
:10210300C908EB03120CC92FEB03120CC9B8EB037C
:10211300120CC91FEC03120CC9DD9E03120CC92358
:10212300E103120CC94BE103120CC9CAE103120CFF
:10213300C9F4E103120CC937E203120CC990E2039C
:10214300120CC938EC03120CC94DEC03120CC976FE
:10215300EC03120CC9ECEC03120CC908ED03120CCE
:10216300C91DED03120CC92DED03120CC99AC80346
:10217300120CC9A8C803120CC928C903120CC9EF51
:10218300C903120CC9A5CB03120CC9F8E503120C41
:10219300C933E603120CC957E603120CC9B5E603AB
:1021A300120CC917E703120CC95AFA01120CC9D948
:1021B300FA01120CC989FB01120CC9FAFB01120CBA
:1021C300C9FBFC01120CC9A5FE01120CC904FF01D5
:1021D300120CC95EFF01120CC967FF01120CC9760C
:1021E300FF01120CC989FF01120CC99FFF01120CD8
:1021F300C9A8FF01120CC9CDF902120CC91EFA02BB
:10220300120CC932FC02120CC96AFC02120CC98FEF
:10221300FC02120CC9A8FC02120CC9C1FC02120C6C
:10222300C9C2FD02120CC951FE02120CC962D903C4
:10223300120CC9A5D903120CC9B6D903120CC9E9EA
:10224300D903120CC91FDA03120CC955DA03120C95
:10225300C9CEDA03120CC90BDB03120CC921D2035A
:10226300120CC949D203120CC986D203120CC998A5
:10227300D203120CC9B4D203120CC91CD303120C1F
:10228300C925D303120CC986D303120CC9AAD303DD
:10229300120CC971D403120CC97ED403120CC98F5A
:1022A300D403120CC954F303120CC9A1F303120C87
:1022B300C976C103120CC9D1C203120CC9DEC20311
:1022C300120CC9F4C203120CC911C303120CC9289E
:1022D300C303120CC93DC303120CC9C1C303120CBF
:1022E300C9A0C403120CC9E9C403120CC9F9C4037D
:1022F300120CC99EF103120CC9C3F103120CC9ECF1
:10230300F103120CC914F203120CC9BDD403120C4D
:10231300C9D6D403120CC9E2D403120CC9F6D403F0
:10232300120CC91AD503120CC926D503120CC935D0
:10233300D503120CC948D503120CC99BD503120C43
:10234300C9D5D503120CC905D603120CC954D6033B
:10235300120CC9A2D603120CC9BAD603120CC9C4F3
:10236300D603120CC9D5D603120CC91AD703120C03
:10237300C9CFF403120CC976A703120CC9A2A70391
:10238300120CC9BEA703120CC9D1A703120CC9E7CB
:10239300A703120CC951A803120CC984A803120C79
:1023A300C9E9AB03120CC912AD03120CC942AD0348
:1023B300120CC9ABAD03120CC98FAE03120CC9B713
:1023C300AE03120CC9CCAE03120CC9DCAE03120C63
:1023D300C91DAF03120CC972AF03120CC982AF033C
:1023E300120CC9D1E903120CC9ECE903120CC9158B
:1023F300EA03120CC92FEA03120CC954EA03120CA4
:10240300C973EA03120CC98CEA03120CC9BBEA03B1
:10241300120CC9D6EA03120CC917F503120CC9082A
:10242300C503120CC90FC503120CC91CC603120C39
:10243300C94EC603120CC974C603120CC9A7C6033E
:10244300120CC9B9C603120CC9F4C603120CC96431
:10245300C703120CC9A1C703120CC9EEC703120CA0
:10246300C91CC803120CC93CC803120CC999E80360
:10247300120CC9BBE803120CC9CEE903120CC953F1
:10248300ED03120CC9B1ED03120CC9F0ED03120CEC
:10249300C931EE03120CC9009F03120CC90A9F0332
:1024A300120CC9489F03120CC939A103120CC9A20B
:1024B300A103120CC988A203120CC9CAA203120CED
:1024C300C9FBA203120CC983A303120CC969A50398
:1024D300120CC956A603120CC9F1A603120CC9307B
:1024E300A703120CC95BB603120CC97AB603120C0C
:1024F300C9C3B603120CC9DFB603120CC910B70364
:10250300120CC927B703120CC934B703120CC951F3
:10251300B703120CC93EB803120CC975B803120CE9
:10252300C97FB803120CC98CB903120CC997B9033C
:10253300120CC9A9B903120CC9B2B903120CC9BC54
:10254300B903120CC925BA03120CC9B8BD03120C86
:10255300C957F503120CC9A6F503120CC9C7F20338
:10256300120CC9F0F203120CC9CBE902120CC9A375
:10257300EE02120CC9AE2C00120CC98C2C00120CEA
:10258300C96D2C00120CC93A2C00120CC9B3D80225
:10259300120CC995D802120CC9BCD702120CC9205F
:1025A300D702120CC9E92F00120CC9AE2F00120C6E
:1025B300C9B4D502120CC95CD302120CC9642F0032
:1025C300120CC9472F00120CC98ED202120CC9C3B8
:1025D300D102120CC98ED102120CC95BD102120CAA
:1025E300C93CD102120CC9DCD002120CC98ED00234
:1025F300120CC9D2CF02120CC99ACC02120CC972A6
:10260300CC02120CC917CC02120CC9F4CB02120C67
:10261300C92FCB02120CC9D7CA02120CC941C90275
:10262300120CC93EC902120CC93FC802120CC91FC1
:10263300C802120CC96FC702120CC9F1C502120CF1
:10264300C9B8C502120CC9082F00120CC9BC2E0050
:10265300120CC9EA2D00120CC989C502120CC986D5
:10266300C502120CC978C502120CC964C502120C4A
:10267300C9502D00120CC951C502120CC95BC4020A
:10268300120CC9EBC302120CC9B1C302120CC92844
:10269300CD03120CC9DF2C00120CC959C302120C52
:1026A300C928C302120CC940C002120CC9FEBF02E2
:1026B300120CC9F2BF02120CC965BF02120CC9B3D6
:1026C300BE02120CC952BC02120CC9BCB902120CD4
:1026D300C986B902120CC91DB802120CC9C9B702C6
:1026E300120CC90DB702120CC9E0B602120CC932A2
:1026F300B602120CC905B602120CC9CBB502120CF4
:10270300C95B760000000080FBC2C732E473870018
:102713000100B21A240002008C1A250002008E1A4E
:1027230026000200901A27000200921A28000100D6
:10273300941A29000100951A84000400961A860051
:1027430001009A1A2A0001009B1A2B0001009C1A0F
:102753002C0001009E1A2D000800ED112E0001002F
:102763009F1A2F000100A01A30000100A11A3100A6
:102773000100A21A32000100F51133000100F61125
:1027830034000100A31A36000100F7118300020090
:10279300B01A6200100000126300010010126400FE
:1027A3000100EA11650001009D1A6D000100AF1AD6
:1027B3006E000200EB1143000100A41A4400020062
:1027C300A51A45000100A71A46000200A81A4700EF
:1027D3000800F81148000100AA1A49000100AB1AC9
:1027E3004A000200AC1A4B000100AE1A04000100BB
:1027F300B31AA1000100B51A37000100B41A000092
:102803000000000000013636010100010201000151
:10281300030100010401060605020000070100345C
:102823000801000F090401010D0100FF0E0800005B
:1028330017020000190100FF1A0100011B0100FE2D
:102843001C0100081D0200001F01000120010001FE
:10285300210200002301000F2402000026010001D1
:1028630027010008280200FF2A0100072B0102406C
:102873002C0100002D0100012E0100012F0100FF9A
:1028830030010B1C310800003A0100083B01000F26
:102893002F01000003027102300160021102700275
:1028A3000102020202028002100261023A004100A8
:1028B30063027302720262024302000213023800CF
:1028C30000020002040212020002000200020002DF
:1028D30004020402370037003C02440200023900BC
:1028E30000020002650200023502810200020502B5
:1028F3008202830200020101710101010101110140
:1029030001013101010101018001100161013B005D
:102913001400630173017201620143010001130199
:1029230006013D013500040112010001000100010F
:10293300000104010401330133013C01440132016C
:10294300360000010001650100013500810100012D
:1029530005018201830100010103710301030103E6
:102963000103010301032203020301031003000314
:1029730000030003000300030003000342030003FA
:1029830024030603000300030403120325032303A4
:102993002503230304030403000300030003440388
:1029A30000030003230300036503210035038103B0
:1029B300000305030003000300030304710402047E
:1029C30060041104700402040204010402041004EC
:1029D3006104000414046304730472046204430472
:1029E3000004130406040004000404041204000495
:1029F3000004000400045104640000040004000403
:102A030044040004000400040004650400043504C5
:102A130081046400050400048304000403007100BE
:102A23003001600011007000310220035004800067
:102A33001000610000001400630073007200620064
:102A43004300000013000600000000000400120011
:102A530000000000000000000400040037003700FD
:102A63003C0244000000000000000000650000007C
:102A730035008100000005000000830000003600DF
:102A83000100060000000F0000000000000000002D
:102A93000000000003FFFF00000403FFFF0000FF2E
:102AA300FF0FF4010005C4040320000100000B0024
:102AB3000000000000000003010F00004720130086
:102AC300E11F010047200200AB1F0300B11F0400F8
:102AD300B71F0500BD1F0600C91FFFFF000001034C
:102AE300160639160833160B4B16108B15020916EA
:102AF300052716070F160CEB150DF715FF0000033E
:102B03000003000400080010001F003E007B00F6D5
:102B130000EC01D703AF075D0FB91E713D00004103
:102B23001A711A471A4D1A6B1A5F1A591A771A7DB6
:102B33001A831A8F1A531A3B1A351A03EAF5E5D585
:102B4300D5C5B5A595958585757565655555454572
:102B5300353525251515059C36063A703DD9404374
:102B630044AD47174B814EEA5100160F00000B1579
:102B73000B020002220F32000006000102030405CB
:102B8300060708090A0B0C0D0E0F311B431B491BCB
:102B93000B1A4F1B051A111A45193F197B19811975
:102BA30075192D19A91BC71BCD1BAF1BBB1BB51B50
:102BB3000C0E020B040B0A0708000F0003494842DE
:102BC3004D181725050200011916181616152303AB
:102BD30000303017181921301B1D1F3000383C3EC0
:102BE300363B3B352B432C303016181920231A1C47
:102BF3001E309D1B551B5B1B671B611B651A891AC6
:102C0300C11B951A9B1A511957194B19871900059E
:102C1300150D091008045D196F1900BE040A0E0092
:102C230015000400010309280C0F100C0A09000405
:102C3300000C040810080574F6120A5274FF1210EF
:102C43006AE4851882851983F0858208858309786B
:102C530008120FDB7508017509007808120FDB12E3
:102C6300448F1210087401024F3174F6120A528C09
:102C7300088D097808120FDB75080B7509007808B1
:102C8300120FDB12448F024F3174F6120A528C0872
:102C93008D097808120FDB75080B75090078081287
:102CA3000FDB12449A124385024F31C082C0838ADC
:102CB300828B83E0D2E7F0121F4B024F7CC082C0AD
:102CC3008379001258FB90032E12612CC3EA9CEB0C
:102CD3009D5006123444600109024F7C74F7120AB6
:102CE30052EA125FE2EB126385122F3DAEF075F0EC
:102CF3000BEDA42EFD900330E02CFEA3E03DFFEA94
:102D03002403FCEB3400FD740169600574026970EF
:102D1300278A828B83A31259058E828F83A312493C
:102D230051740269701DECFAEDFB121C7BE9701300
:102D3300E48E828F83F0800BEE2403FAEF3400FBE2
:102D43001225A5EEFAEFFB122575023EFA74F21274
:102D53000A528A088B09EA240BF50CEB1265EA790F
:102D6300008A828B83E0606F890A890B805EE50AA3
:102D730075F00BA4FAACF075F00BE50B1231D670BD
:102D830048AE82AF8385088285098312706312324D
:102D930090A312638B124F01E5082403FCE5093469
:102DA30000FDEE24030A0A0AEF3400FB1225A58571
:102DB3000C82850D83E50AF0A3E50B12544412251A
:102DC30075790190032E12688D122DDD1231CEE537
:102DD3000A9AE50B9B409702487AE50A2401F50A13
:102DE300E50B3400F50B2274F1120A52EAFEEBFFF5
:102DF300740F121299124487750E01850882F583A8
:102E0300A385820C85830DEE240BF8EF3400F9ECD7
:102E13007001ED6030EC125FE2ED1249477901EE8B
:102E2300FAEFFB122695E5087002E5097003022EFE
:102E3300B5850C82850D831265EF7902AA08AB096B
:102E4300122695806DEE2403F50AEF122DE5E508B1
:102E53007002E5096033125FE0E509124947E508AE
:102E63002403FAE50934001231C6700CEEFAEFFBC5
:102E7300122671E9F50E80B9AA0AAB0B1231C7709D
:102E8300317903EEFAEFFB80B78E828F83A3E06480
:102E9300FE7004A3E064FF700A0A0A0AAB0B123146
:102EA300C7700CEEFAEFFB122671E9F50E8003757D
:102EB3000E00A90E7F07020DBD74F7120A5290038C
:102EC3002E124951EA7001EB6031EA75F00BA4FA56
:102ED300ACF075F00BEBA42CFBEAFEEBFF121DA18B
:102EE300900330124951900330E07002A3E0601266
:102EF300EEFCEFFD7900121D178007900330E4F01C
:102F0300A3F0023EFA74F6120A527508007509001E
:102F13007808120FDB90032E122F3DAAF075F00BE9
:102F2300EDA42AFD7A237B00121E077402121008F7
:102F3300E9FE60031225C30242151263B4EC75F077
:102F43000BA4FC2274F7120A527E007F00800AEE63
:102F5300FAEFFB122587124100122FA240F1023E25
:102F6300FA74F7120A527E007F008016EEF8EFF92A
:102F7300122F8DFCA3E039FDEEFAEFFB12257B1235
:102F83004100122FA240E5023EFAE875F00BA4F8C7
:102F9300AAF075F00BE9A42AF9900330E0282290F7
:102FA300032E12527DC3EE98EF992274F7120A5240
:102FB3007E007F008028EEF8EFF9E875F00BA4F8A7
:102FC300AAF075F00BE912328BA2E7500EC2E7F0BC
:102FD300AC82AD83EEFAEFFB122581124100122F72
:102FE300A240D3023EFAC082C083EC7001ED6005BB
:102FF30012249180097C087D007900121D17024F6D
:103003007C74F6120A527900EA7001EB60147C00BA
:103013008C08126B3E600479017C080CECC39408A5
:1030230040EE024F3474F7120A5274F312106AEC32
:10303300FEEDFFE4851882851983F074011212995D
:103043001244D81212BB7403121299AC82AD83EEF0
:10305300FAEFFB1225A5EEFAEFFB121C7B023EF5FD
:1030630074F7120A5274F312106AECFEEDFFE48552
:103073001882851983F0EAFCEBFD7403121299128E
:10308300450D740112129912638B124F0274FE687C
:10309300700374FF696004790180027900023EF5D0
:1030A30074F7120A52EAFEEBFF1230F1701012307D
:1030B300FC64FFFC8A828B83E05CF0122575024777
:1030C300D674F7120A52EAFEEBFF7508008E828F60
:1030D30083E060171230F170121230FCFC8A828B8D
:1030E30083E05C7006E04CF01225750247D6121C93
:1030F30009E9F5087401650822EE124CB812527DF5
:10310300122F8DFAA3E039FB8E828F83E02274F0B5
:10311300120A528A088B09EA2403FEEB3400FF7C6F
:10312300007D000A0A0AFB1225A5E508240BF50C0D
:10313300E5091265EA7900850882850983A38582FA
:103143000A85830BE064FE7004A3E064FF60658975
:103153000889098054E50875F00BA4FAACF075F002
:103163000BE5091231D6603E850A82850B83127204
:1031730042A3E06C7003A3E06D702BEA2403F50E09
:10318300EB3400F50F1231C3700BAC0EAD0FEEFA3A
:10319300EFFB1225A5850C82850D831264BF79018F
:1031A30090032E124487124F081231CEE5089AE598
:1031B300099B40A18005740D1210087F08020DBD04
:1031C3000A0A0AFB121C7BE964012290032E12599E
:1031D3000FC322A42CFB900330E02AFAA3E03BFBAD
:1031E3008A828B83E0540F2274EF120A528A828BF5
:1031F30083A385820E85830F1265EFEA240BF508FE
:10320300EB124F108508821265ED751000EA240356
:10321300F50CEB3400F50D1231C37065750A0075BA
:103223000B008055E50A75F00BA4F8AAF075F00BB6
:10323300E50B12328B540F603DAE82AF83EE240355
:10324300FCEF3400FDAA0CAB0D12248BE964017072
:10325300258E828F83A3124CC8850E82850F83E847
:10326300F0A3E9123290E50AF0A3E50BF075100123
:1032730090032E12688D122DDD90032E1243784099
:10328300A3A9107F09020DBD12331AE02212329452
:1032930022F08508828509832274F3120A52EAFE1A
:1032A300EBFF8E828F83A385820A85830B1265EFE2
:1032B300EE2403F508EF124F107C007D000A0A0A82
:1032C300FB1225A5EEFAEFFB121C09E9F50C7401BC
:1032D300650C703EEE125FE2EF12332475F00BA41F
:1032E300F8AAF075F00BE912331AA3125905850AEF
:1032F30082850B83124951E82403FEE93400FFEE73
:10330300FAEF1231C6700BEEFCEFFDAA08AB0912FF
:1033130025A5A90C023F97122F99F8A3E03902586B
:1033230016124CBD12527DE82274EE120A5274E654
:1033330012106AEAFEEBFFEE240BF50AEF122DE5FD
:10334300850A821265ED750E017508007509007511
:103353001000751100E4851882851983F0EE2403AB
:10336300FCEF3400FD7403121299AA82AB83122579
:10337300A58E828F83A385820C85830D8518828514
:103383001983AA82AB831212C1E964017034740BEE
:10339300121299124CC8850A82850B83124F02744C
:1033A30001121299124CC8850C82850D83E0687056
:1033B30003A3E06960558518828519838582088592
:1033C3008309740D121299E41264B0F8A3E0F9743E
:1033D3000E121299124F02740D121299AA82AB8324
:1033E3001212BBE96401700B740D121299858210DD
:1033F3008583117810120FDBAC08AD09EEFAEFFBF1
:103403001226537402121008E9F50EEEFAEFFB12BE
:1034130012B5A90E741A026181C082C08378007943
:10342300008003123D2B1231CEE89AE99B500DE840
:10343300FAE9FB12344470EB790080027901024F00
:103443007CEA75F00BA4FAACF075F00BEBA42CFB43
:103453009003301273CAF583E0540F22C082C083F5
:10346300902C23123E95EC75F012A4FCAAF075F093
:1034730012EDA42AFD79FF7ACC7B14121D17024F9B
:103483007C74F6120A527E007F007C007D0080343B
:103493008C088D09E50875F012A4F508ABF075F0FA
:1034A30012E509A42BF509E50824D0F582E50934D2
:1034B30014F583E0FBC3994008EAC39B4003124120
:1034C30000123B26123961C3EC9508ED950940C003
:1034D300EEFAEFFB024F34C082C08378007900809C
:1034E30003123D2B902C2312407550091238A2640D
:1034F300FF70EE80047A007B00024F7C74F0120AA6
:103503005274F312106A8A0A8B0BECFEEDFF890CDE
:10351300EE7001EF6011EEFAEFFB12130F8A088BC6
:1035230009EA7001EB70501212E58A088B09EA7000
:1035330001EB60437401851882851983F012129997
:10354300E50AF0A3E50BF0EEFCEFFD74031212990C
:10355300123691740B121299124CC8124EFAE4856A
:103563000882850983A3A3A3A3A3A31263ACAA0A16
:10357300AB0B121885800BE5087002E50970030296
:1035830036097A00E50C6007C3940550027A048576
:1035930008828509831264DEA3A3A3E50CF0EA8500
:1035A3000882850983A3A3A3A3A3F07402850882D9
:1035B300850983A3A3A3A3A3A3A3A3F074018508ED
:1035C30082850983A3A3A3A3A3A3A3A312361DA345
:1035D300A3A3F0E5082410F582E509126385E4F05E
:1035E30012361DF0125FE0E509126385E4F0908066
:1035F30059780C12124FE508240CF582E509126381
:1036030085780C1212401238034005E4901A31F009
:1036130012175FAA08AB090231B9A3124E43026322
:103623009E74F2120A5274F312106A8A088B09EC20
:10363300FEEDFF750A00EEFAEFFB12130F8A0C8BF7
:103643000DA80CA90DE87001E9603E88828983E02A
:1036530065087004A3E06509602F88828983A3A3AA
:10366300A3A3E0C3940550211264BB74018518829F
:10367300851983F01212991264BFEEFCEFFD7403F7
:10368300121299123691750A01A90A024875124558
:10369300141212CD2274F6120A521236FC7002E58D
:1036A300836010A3A3A3A3E06009C3940550047926
:1036B3000180027900024F3474F6120A521236FC6A
:1036C3007002E5836010A3A3A3A3E06009C394037E
:1036D3005004790180027900024F3474F6120A52C1
:1036E3001236FC7002E583600BA3A3A3A3E070046E
:1036F300790180027900024F341213098A828B8385
:10370300E58222C082C083EAFCEBFD7A007B0012D3
:103713001315024F7CC082C0837C007D0080F0744F
:10372300F2120A5274F312106A8A0C8B0D8C0A8DF2
:103733000B7E007F008021123C1012129912379ADF
:1037430060137403121299AC82AD83AA0CAB0D12F1
:10375300248BE97035124100902C23124110503014
:10376300123ADA60F0E50C7002E50D70CA74FF6579
:103773000A700474FF650B60DC850882850983E0A9
:10378300650A7004A3E0650B70CBAA08AB0980043B
:103793007A007B00024875E8F0A3E912453812125B
:1037A300C7E92274F4120A5274F312106A750800FE
:1037B30012130F8A0A8B0BAE0AAF0BEE7001EF6088
:1037C3002A7401851882851983124E7CF8A3E0F9C7
:1037D300740B1212991245301212AF7C127D0079CC
:1037E300FFEEFAEFFB121D1775080112380350099B
:1037F3007401901A31F012175FA908740D024F8AF1
:103803007A0479001212DF902C23124116EA98EB06
:10381300992274F7120A52E9FE74FE6A700374FF68
:103823006B780079007005804D123D2B902C23128C
:103833003D1E5042E8FCE9FDEC75F012A4FCAFF02C
:1038430075F012EDA42FFDEC24CCFCED3414FD8CAB
:10385300828D83A3A3A3A3E064FF60CD8C828D83B9
:10386300E06A7003A3E06B70C08008EC6005C3944A
:1038730005401C123D2B902C23124075501A123810
:10388300A2FCEE70E674016C600574036C70E48A4C
:10389300828B8312590580047AFE7BFF023EFAE88D
:1038A300FAE9FBEA75F012A4FAACF075F012EBA496
:1038B3002C123B4522121321024F7CC082C0837914
:1038C3000180F274F0120A528A0A8B0B7A0479018E
:1038D3001212DF8A0CEA7001EB6040EAC333FAEBA1
:1038E30033FB121DA18A088B09AE08AF09EE7001E4
:1038F300EF60237AFE7BFF12132774FE6A70037452
:10390300FF6B601B850882850983124951E50824F2
:1039130002124F0C80E1750C0080047E007F00854D
:103923000A82850B83E50C1254440231BE74F612ED
:103933000A527508007509007808120FDB12396105
:10394300740378081211AC123ACE7B00121E07746E
:1039530002121008E9FE6003121339024215902C7B
:103963002312396822E493F508740193F50922744C
:10397300F6120A5274FE12106A124248024F15746C
:10398300F4120A5274DF12106A7E008518828519B8
:10399300838582088583097808120FDB7508028EF8
:1039A300097808120FDB7C007D0012438312100894
:1039B300E96003023A58123A5F124CC2C3EA98EB29
:1039C300995003023A588077740F1212998582082E
:1039D3008583097808120FDB7508087509007808D4
:1039E300120FDB7403780A1211AC7402250AFCE48B
:1039F300350BFD124383121008E970427402121250
:103A0300997401F07411121299124CC8740D1212A8
:103A130099124F027402121299AA82AB831212C72F
:103A2300E9601B7413121299E0F97405121299AC30
:103A330082AD83740F1212991259051212EB0E8E76
:103A43008285820A750B00124CC2C3E50A98E49979
:103A530050030239CBEEF97421024F8A902C23E4F0
:103A630093FA740193FB2274F6120A5274FE121035
:103A73006A851882851983E4F0A3F0FE8033123A35
:103A8300DA602B7808120FDB7508087509007808CF
:103A9300120FDB740412129912448774037808120C
:103AA30011AC123ACE12449212100812447712410A
:103AB30005FF902C2312411040C485188285198379
:103AC3008582088583097808024F1574022508FC4E
:103AD300E43509FD7A2222EEF8EFF9E875F012A435
:103AE300F8AAF075F012E9123BF5A3A3A3A3E064CF
:103AF300FF2274F7120A527C007D00800419123BE6
:103B030026123B1D500D123B2FC3940550F0E97054
:103B1300EC80047A007B00023EFA123A5FC3EC9A0F
:103B2300ED9B22EC24010CED3400FD22ECFAEDFBBD
:103B3300EA75F012A4FAAEF075F012EBA42E123B64
:103B43004522FBEA24CCFAEB3414FB8A828B8302F2
:103B53006D3B74F3120A5274F312106A750A0075FE
:103B63000B008052E50C1263728E828F83126537CD
:103B7300E0687003A3E06960257401121299E0689C
:103B83007003A3E0696017EE2402FCEF3400FD74B8
:103B930003121299AA82AB8312248BE96007EEFA0F
:103BA300EFFB121891050C902C2DE493FAE50CC34E
:103BB3009A40B1122DDD123C08E50A98E50B9950A5
:103BC3002CE50A75F012A4F8AAF075F012E50B12B1
:103BD3003BF5E064FF7004A3E064FF60D6123C1081
:103BE30012129912379A60CB750C0080BA740D02C9
:103BF3003F94A42AF9E824CCF508E93414F509859F
:103C03000882F58322902C23E41241172274018544
:103C13001882851983124E4312527D740B2274F657
:103C2300120A5212421A123E95EC8508F0A4CCAA4D
:103C3300F08509F0A42AFA8508F0EDA42AFD79FF9E
:103C43007AE37B19121D179003337469F0A374137D
:103C5300F09003357463F0A37413F0900337748DFD
:103C6300F0A37413F0900339749FF0A37413F090CE
:103C7300033B74A5F0A37413F090033D74ABF0A35E
:103C83007413F090033F74B1F0A37413F0E4900342
:103C930032F0024F34C082C083780079008003126F
:103CA3003D2B1240725024E8FAE9FBEA75F00EA4AA
:103CB300FAACF075F00EEBA42CFBEA24E3F582EBEF
:103CC30012472770DAAA82AB8380047A007B000252
:103CD3004F7C74F7120A527A007B007800790080D7
:103CE3002FE8FCE9FDEC75F00EA4FCAEF075F00EC8
:103CF300EDA42EFDEC24E3F582ED124727600EA31D
:103D0300A3A3A3A3E0FCEA2CFAEB3400FB123D2BA4
:103D1300902C25123D1E40C9023EFAE493FC740127
:103D230093FDC3E89CE99D22E8240108E93400F9E6
:103D33002274EC120A5289108A088B098C0D8D0C9F
:103D4300741412129912688D7E007F001213C9AA8F
:103D530008AB091213CF8A0E8B0F8508828509835E
:103D6300A3A3A3A3A3A3A3A3E064017007750801FE
:103D73008E0980058E08850D0974FE650E70047426
:103D8300FF650F7003023E788E0D8002050D850DD1
:103D930012902C251270845071E50D75F00EA42439
:103DA300E3FEE5F01241D3651070E1A3E06508700E
:103DB300DB8E828F83A3A3E0650E7004A3E0650FFF
:103DC30070CA8E828F83A3A3A3A3E0650970BD7518
:103DD3000D00E50DC3950C4003023E78E50DC3339A
:103DE300F8E433F9E50A28F508E50B39F509850800
:103DF30082126E84121375E9700C8508828509831B
:103E0300126E86121381050D80C812135D8A128B00
:103E130013AE12AF13EE7001EF605A8E828F83E5FB
:103E230010F0A3E508124EE6A3E50EF0A3E50F128A
:103E33004EE6A3A3A3E509F0902C35E493C3950CB8
:103E43005004E493F50C8E828F83A3A3A3A3A3E56D
:103E53000CF0850A08850B09750A007808120FD73C
:103E6300E50CC333FCE433FDEE2406FAEF34001211
:103E730064D7121008EEFAEFFB7F0C020DBDC0826F
:103E8300C083123E9279FF121D177901024F7C9075
:103E93002C21E493FC740193FD2274F7120A52EA75
:103EA3007001EB60498A828B83A3A3A3A3A3A3E539
:103EB300827002E58360377E0080010E8A828B83E5
:103EC300A3A3A3A3A3E0FFEEC39F5022EEC333F843
:103ED300E433F9EA28F582EB39F583A3A3A3A3A37B
:103EE300A3E06C7003A3E06D70D1790180027900C7
:103EF3008005740D1210087F01020DBD74F3120AC0
:103F030052EA2405F8EB3400F9E8FEE9FFEA700110
:103F1300EB606F8E828F83E06073EA240608EB34D4
:103F230000F9E0F50B750A00800B8E828F83E01495
:103F3300F0605A050AE50AC3950B5046E50AC333F8
:103F4300F508E433F509EA2508F508EB3509F50921
:103F530074062508F508E43509F509850882F58313
:103F6300E06C7003A3E06D60C1850882850983E07E
:103F7300F508A3E01264B9E824020808E93400F95B
:103F830080B18E828F83E0600479018002790080A2
:103F9300031210087F05020DBD74F7120A52EA706E
:103FA30001EB6037127230C0E0902C35E493FED001
:103FB300E0C39E502688828983E0C333FEE433FF47
:103FC300EA2EF582EB3FF583A3A3A3A3A3A3ECF00F
:103FD300A3ED126D4104F0790180027900023EFAEB
:103FE30074F2120A5289088C0912411F7005126873
:103FF3008980031240F874FE650A700474FF650B30
:1040030070067A007B008064780079008018740160
:10401300650C700F8C828D83E0650A7004A3E065E4
:104023000B6049123D2B12407250D71244BC8A8256
:104033008B83E0650870ECA3E0F50CEA2402FCEB4B
:104043003400FD8E828F83E0640160C2E50C70D37F
:104053008C828D83E0650A7004A3E0650B70C48ACB
:10406300828B83A3A3A3A3E0650970B702487A9068
:104073002C25123A62C3E89AE99B2274F2120A527F
:10408300EA2408F8EB124E73640170051268898004
:10409300031240F874FE650A700474FF650B6052E6
:1040A3007E007F008047EEF8EFF9E875F00EA4F884
:1040B300AAF075F00EE9A42AF9E824E3FAE9341921
:1040C300FB850882850983E06401701B8A828B83E8
:1040D300A3E0640170148A828B83A3A3E0650A7052
:1040E30004A3E0650B700312136F12410012410D1C
:1040F30040B402487A1213B78A0A8B0B2212410585
:10410300FF22EE24010EEF340022902C25124116DB
:10411300022FA9E493F8740193F9C322EA2408F85F
:10412300EB1265D6E064012274F3120A52890C8AF9
:104133000A8B0B7508007509007E007F00801B1237
:104143004454650C7011AC0AAD0BAA82AB831213F5
:1041530075E96003124F0812410012410D40E0AAB5
:1041630008AB09023F9774F1120A52890D8A0A8B30
:104173000B8C0E750C007508007509008005050C85
:10418300124F08902C25123C0BE50898E50999502D
:1041930038E50875F00EA4F8AAF075F00EE509A449
:1041A3002AF9E824E3FEE91241D3650D70D2AC0A83
:1041B300AD0BEEFAEFFB121375E960C4E50CC39582
:1041C3000E40BBEEFAEFFB80047A007B00022EB7B1
:1041D3003419FF02310B74F6120A5275080075097F
:1041E300007808120FDB12421A124431E9A42AF9AB
:1041F30075832C758221E49328FCA3E49339FD7A1B
:10420300417B00121E077402121008E9FE600312BC
:1042130013A5EEF9024F34902C21123968902C2506
:104223002274F6120A5274FE12106A124248120FD6
:10423300DB7508027509007808120FDB7C007D002E
:104243007A41024F29851882851983E4F0A3124429
:10425300B085820885830978082274F4120A52749F
:10426300E712106A7E007F00851882851983858294
:10427300088583097808120FDB7508028E09780810
:10428300120FDB7C007D007A41124385121008E98E
:1042930060030243678E0A8E0B80587402121299D0
:1042A300AC82AD83740D1212991259051213BD74A9
:1042B3000A121299E06039741112129985820885E5
:1042C30083097808120FDB7412121299E0FD74113E
:1042D300121299E0FC7404121299AA82AB83740D32
:1042E300121299E0F91213697402121008124100B4
:1042F300122DDD8518828519831243785066740B5D
:104303001212998582088583097808120FDB902C95
:1043130021120E62902C21124370E8850AF0A4C882
:10432300AAF0850BF0A42AFA850AF0124446124338
:1043330085121008E970B9740A121299E4F0740C2A
:10434300121299E0700302429E740A1212997401C8
:10435300F0740D121299124CC87402121299124F72
:10436300020242BAEEFAEFFB7419024F8AE493F8A1
:10437300740193F92212527DC3E50A98E50B992241
:104383007A227B00121E1974042274F5120A5274E5
:10439300F012106A851882851983E4F0A3F0FE8079
:1043A3005A12445464FF6050858208858309750A54
:1043B300007808120FD7123E927405121299AA823E
:1043C300AB831264D8121008740212129985820802
:1043D3008583097808120FDB902C21120E62740476
:1043E300121299124487902C21124431124446121E
:1043F3004492121008124477124105FF12410D40F6
:10440300A085188285198385820885830978081217
:104413000FDB7508027509007808120FDB7C007D3D
:10442300007A411244921210087410024703124397
:1044330070E88508F0A4C8AAF08509F0A42AFA85D3
:1044430008F022E9A42AF9740228FCE439FD7A4130
:1044530022124459E022EEF8EFF9E875F00EA4F8C1
:10446300AAF075F00EE9A42AF9E824E3F582E93409
:1044730019F58322851882851983E02401F0A3E0CE
:104483003400F022E0F508A3E0F5092212449A7BF8
:1044930000121E13740422EA75F00BA4FAACF07533
:1044A300F00BEBA42CFBEAFCEBFD7A23221244B4C1
:1044B30022F085188285198322E8FAE9FBEA75F070
:1044C3000EA4FAACF075F00EEBA42CFBEA24E3FA8D
:1044D300EB3419FB22EAF0A3EB12453822C082C069
:1044E3008374F312106A1246A16402700E124526F9
:1044F3001212991245301212BB800CEAFCEBFD74C8
:104503000312129912450D024F711245141212C172
:1045130022AA82AB831225A5851882851983AA82D4
:10452300AB83228A828B8312527D740122E8F0A32B
:10453300E91245382212453C221244B480E074F754
:10454300120A5274F312106AECFEEDFF740485181C
:1045530082851983F0740B121299EAF0A3EB1237D8
:104563009EF508601D74038E828F83A3A3A3A3A368
:10457300A3A3A3F0121299AC82AD83EEFAEFFB1260
:104583002491A908023EF5C082C08374F312106A15
:104593007404851882851983F0740B1212991244DE
:1045A300D81212C77401024F7312590F740D22747B
:1045B300F6120A5274F312106A900332E0706E74AA
:1045C30004851882851983F090037112452A12120B
:1045D30099124F02121711EAFCEBFD7403121299A0
:1045E30012369112171D8A088B09A808A9097401AC
:1045F300121299E0687003A3E069602B74FE68707F
:104603000374FF6960217401121299124F0274033B
:10461300121299AA82AB83121723851882851983F4
:10462300AA82AB831212CD7401900332F0740D028F
:104633004F31C082C08374F312106A1246A1FC7416
:10464300026C701E124526121299E8F0A3E912615A
:10465300EC7048851882851983AA82AB831212CD28
:10466300803974036C7011EAFCEBFD740312129928
:1046730012450DE9702580DB74016C70128A828B00
:1046830083124CC8740B121299E8F0A3E9800B74DF
:104693000B12129974FEF0A374FFF0024F717404AD
:1046A300851882851983F08A828B83A3A3A3A3022F
:1046B3006D3B74F5120A5278007900880888097CEA
:1046C300007D008003123B26902C25E493FE7401A9
:1046D30093FFC3EC9EED9F5021ECFEED12470B6060
:1046E300E4AE08AF0974012EF508E43FF509EA6E5C
:1046F3007002EB6F70CFA882A983E8FAE9FB80030D
:104703001210087F03020DBDFFEE75F00EA4FE85A7
:10471300F00A75F00EEFA4250AFFEE24E3F582EF0D
:10472300124727223419F583E064FF22C082C08335
:104733009003467421F0A37416F0900348741BF0A1
:10474300A37416F090034C744DF0A37414F0024F4D
:104753007CC082C08390034A7415F0A37416F002E0
:104763004F7C74F7120A52EAFEEBFF900380E0FAE3
:1047730074086A601974046A60148E828F83E0641B
:10478300017046124CB3125A23E06406703B8E82CA
:104793008F83A3A3124CC874FE68700374FF69600F
:1047A30028900371E0687003A3E069700BEE241591
:1047B300F582EF126B44600AEEFA1216D5E9F5089A
:1047C300800AEEFA1216DB80F47508C2EEFAEFFBEC
:1047D300121DA7A908023EFA74F2120A528A088B24
:1047E300098A828B83A385820A85830B8A828B83C2
:1047F300E0F8850A82850B83E028FAE43400FB1293
:104803001DA18A0C8B0DAE0CAF0DEE7001EF605C39
:10481300850882850983E0FC7D007900121D178ECF
:10482300828F83A3A31265EF1217178E828F83A340
:10483300A3A3A3124951850882850983E0F8EE28D2
:10484300F8EF3400F9124CB3125260C0E012637FE8
:10485300D0E0F0121729EE240E126382E9124E3FC4
:10486300E0C0E0EE2411126382D0E0F0EEFAEFFB39
:104873008005740D1210087F06020DBD74F4120A30
:104883005274EB12106A8A088B098C0A8D0B900301
:10489300817808121240E9900387124B47121240A5
:1048A3007405121299E9F074041212997401F074E8
:1048B30007121299E4F07402900380024F8774F494
:1048C300120A5274EB12106AEAFEEBFF900342E005
:1048D3007002A3E070677A077B00121DA190034268
:1048E300124951900342E07002A3E0604C900342EE
:1048F30012612C8F838E827407120F598E828F83DD
:10490300780812124F85188285198378081212408D
:104913008E828F83A3A3A3A3E0C0E0740512129930
:10492300D0E0126D38C0E07404121299D0E0F07434
:1049330007121299124A9180067910800279017444
:1049430015024F8A124CBD12590F88828983EAF0EF
:10495300A3EBF022C082C083900342E07002A3E085
:104963006010900342125905121DA7900342E4F010
:10497300A3F0121645121831024F7C74F3120A5237
:1049830074EB12106AECFEEDFF7422121299780890
:1049930012124F7426121299E0FC7427121299E036
:1049A300FD7428121299E0F50C740F6C7005740FE6
:1049B3006D6012901AA2E06402700579C1024A8CFC
:1049C300ECC39D40F69003817808121240E99003EE
:1049D30087F0EC900385F0ED900386F0E50C9003EF
:1049E30088F074FF6A700374FF6B701F901AB0E055
:1049F30064FF7004A3E064FF7005121D23800C9014
:104A03001AB0124E38E8F0A3E9800790037EEAF06B
:104A1300A3EBF0EE7001EF6017EEFAEFFB1218F163
:104A2300E96401700BEEFCEFFD7A927B0312249193
:104A3300900371E4F0A3F0900374F0A3F09003915A
:104A4300F0901AA2E06402700A740F900385F0904C
:104A53000386F07405900380F07404121299E4F055
:104A6300900381780812124F85188285198378087C
:104A7300121240900387E0C0E07405121299D0E04F
:104A8300F07407121299124A917415023F94E412BA
:104A93004A962212453C12250F229003CCE0F912CC
:104AA3001E4F22C082C083900341E07003121FDBBC
:104AB300121411024F7CC082C083900341E070073F
:104AC300E4901A30F080317401901A30F090034171
:104AD300E064FF60237C41E0C394415002E0FCECBE
:104AE300FAE0C39AF0EC75F0E8A4CCAAF075F003F1
:104AF300A42AFD7A80124B077A307B1A794112245B
:104B0300F7024F7C7B009003CCE0F9121E43227422
:104B1300F4120A5274EB12106A8A088B098C0A8DFC
:104B23000B7401900380124B47121240740512124A
:104B330099E9F074041212997403F074071212992C
:104B4300E4024F871244B0780822124A9674152261
:104B530074F4120A5274FC12106AE98518828519DA
:104B630083F0EAFEEBFF90037E12612C12163F8A5C
:104B73000A8B0BEA7001EB700579CA024CA5EA2493
:104B830009F508EB124F10850882F583E064FE7087
:104B930004A3E064FF700579C3024CA590037E1261
:104BA3005905121897E50A240CF582E50B124E30CD
:104BB300124E5574021212997402F0740112129972
:104BC300AA82AB8312179B8A0A8B0BAE0AAF0BEE3A
:104BD3007001EF7003024C9C124CB3124CC8740664
:104BE30088828983F0A3A882A98390036BE08882DB
:104BF3008983F012581C2413124CAA1263A4744024
:104C0300F0A3E41252768E828F83A3A3E8F0A3E984
:104C1300126895E9FE6003024C9E7409900380F0CC
:104C2300AA08AB09794B124E2A124CC8900374128E
:104C33004F02900373E0FA851882851983E06A6056
:104C43000CE090037312527279E11224F7901A90D8
:104C5300124CC8901A92E0687003A3E069601A903E
:104C63000344124F02901A92125905121741901AD7
:104C73009212612C7A01124B077A007B04124A9D2F
:104C8300901A92124487740278081211ACAC08ADE2
:104C930009FA7B04124B0980027E10E4901132F072
:104CA300EEF97404024F8AF582EF124CBD740122AF
:104CB300EE124CB822240BF582EF3400F5832285E3
:104CC300188285198312527D2274F1120A5274E2FA
:104CD30012106A851882851983ECF0A3EDF0EAFEC1
:104CE300EBFF742D121299E0F50E900380E0FA7435
:104CF300046A600574086A700579C2024E22851839
:104D030082851983E0FCEEFA12163F8A088B09EAC2
:104D13007001EB700579CA024E22EA2409F50AEB09
:104D230012686FE064FE7004A3E064FF700579C34A
:104D3300024E22740390038012527279501224F7A8
:104D4300AA0AAB0B794B1224F785188285198312B3
:104D53004E38124F02E5082402F50CE50912687972
:104D6300900373124E4D900374124F02E50E90039D
:104D73006B124E5574CE550E4480C0E0741212125D
:104D830099D0E0F0E508240CF582E509124E30F0E5
:104D9300740F1212997402124E4D7407121299E88D
:104DA300F0A3E9124E827410121299E8F0A3E912EB
:104DB30064B0C0E07405121299D0E0F0741B1212B3
:104DC30099E4124E3FA3A3E0900386F07A867B0317
:104DD3007954124E2AA3A3A3E0900385F07A857B2E
:104DE3000379471224F7900385E0C3940F5024748A
:104DF30005121299E0C0E07402121299D0E0F07427
:104E0300041212997401F07402121299AA82AB83EC
:104E130012251B7405121299AA82AB831224FD7406
:104E23001E121008022EB71224F70232951255BE35
:104E3300049003912212527D90037E22124E43224C
:104E4300F0850882850983A3A322125268F8A3E0A0
:104E5300F922F0EEFCEFFD7A927B0312249122C03B
:104E630082C083EB900388F012162D024F7CF8EF7B
:104E73001250768882F583E022124EEAA3E02212D2
:104E83004EF5024E5074F7120A5274F812106AEA81
:104E9300FEEBFF7900900380E0640870418518827F
:104EA30085198374FD1265F1121711740212129998
:104EB3001249517405121299E4124EE6E0C0E074EF
:104EC30004121299D0E0124EF1C0E0740612129946
:104ED300D0E0F0740712129912527112177D740800
:104EE300023EF7124EEA22F08E828F83A322F00253
:104EF300310B1244B4E022850882850983A3A3E819
:104F0300F0A3E9F022E5082401F508E5093400F5EA
:104F13000922120FDB7508027509007808120FDBEE
:104F23007C007D007A22124492121008740212103F
:104F3300087F02020DBDC082C08390035274D7F074
:104F4300A37414F09003F874D7F0A37417F09003CC
:104F5300567407F0A37415F090035874D7F0A37434
:104F630014F090035A740DF0A37415F0800B740BB6
:104F73001212991245AC121008D083D082020CBCD5
:104F830074078003124B4D1210087F04020DBD7489
:104F9300F0120A528A828B831266E1EE7001EF707F
:104FA30003025073EA2402F8EB125076900312E0E6
:104FB3007002A3E0601388828983E0F9EEFAEFFBC5
:104FC300900312125A2312270FEE2406F8EF34002F
:104FD300F9880A890BEE2409080808EF3400F988D8
:104FE3000C890D8882F583E06402704B850A828503
:104FF3000B83E054026052850882850983E064E9EB
:105003006047EE240A08EF127235700A901AA4E082
:105013000488828983F0E014F07404850C82850D82
:1050230083F0901AA5126399E8F0A3E912724A700B
:1050330001EB7003126D1D850C82850D83E0FA74FC
:10504300026A600574066A7027850A82850B83E00D
:10505300A2E0501C850882850983E0F9EEFAEFFB94
:10506300122605850A82850B83E054FEF0A3E0F047
:105073000231BE3400F9880889092274EC120A52FD
:1050830074DD12106AEAFEEBFF8C128D1374371273
:105093001299780C12124F7510007405121299AC04
:1050A30082AD831225B7EE240BF508EF124F10746F
:1050B30005121299E0A2E55019751001AC82AD8377
:1050C300850882850983125905122611E9600302B6
:1050D30052197405121299E0A2E6502274061212B4
:1050E30099E0540370187405121299E0540CFA7481
:1050F3000C6A600A74086A600575110180037511F2
:10510300007405121299E05403FA74026A7013AC26
:1051130082AD838508828509831259051225990278
:105123005219EE2406F50AEF122DE574016A703761
:10513300E511600312524F7405121299A882A983D4
:105143007403121299E8F0A3E91252768518828546
:105153001983125260C0E07402121299D0E0125205
:10516300721226E3025219EA60030252199003688D
:10517300E06401700C850A82850B83E070030252A0
:105183001974221212997402125276741A12129915
:10519300124F02E5116008740512129912524F74EE
:1051A30005121299E0540C64047073EE240FF58217
:1051B300EF126B44C0E07417121299D0E0F0900321
:1051C30014E07002A3E0604E1217178A088B09A837
:1051D30008A909741A121299E0687003A3E06970B0
:1051E30035780C120FD3E510F5087808120FDF7825
:1051F30012120FDBA911740C121299AC82AD8374D5
:1052030021121299AA82AB83900314125A231227F4
:105213000F74071210087423121008023E7C780CD6
:10522300120FD37812120FDB90037E120E35A910E2
:105233007422121299AC82AD83740D121299AA8250
:10524300AB831225F9740812100880CAAC82AD83AF
:1052530085088285098312590F1225B122E8F0A32C
:10526300E912526822F0850A82850B83E022E41258
:1052730045382212329412527D22E0024E50C082EF
:10528300C083121F09024F7CC082C083121F0F020A
:105293004F7CC082C083121F15024F7CC082C08323
:1052A300121F1B024F7C74F7120A527409121299CF
:1052B300E0F5087808120FDF121F277401023EF78A
:1052C300C082C083121F33024F7CC082C083121F6F
:1052D30039024F7CC082C083121F3F024F7C74F798
:1052E300120A52EAFEEBFF7401697010790012157D
:1052F300497C1E7900EEFAEFFB1214C5023EFA74E4
:10530300F4120A5274F912106A8A088B098C0A8DF6
:105313000B7413121299125905901156E07002A3DF
:10532300E06027E9851882851983F07401121299C8
:105333007808121240EAF8EBF97405121299124533
:1053430030901156125A2312270F024F83C082C086
:1053530083121F6F024F7C74F7120A52901A33E0C4
:10536300F97F00800B125597540D64017001190FDA
:105373001255545003E970ED023EFA74F7120A52C3
:10538300901A34E0F97F00800B125597548D648195
:105393007001190F1255545003E970ED023EFA746F
:1053A300F3120A52890CE975F006A4F8A9F0740CFB
:1053B30028F508E439F509EA2508FAE43509FB126A
:1053C3001DA18A0A8B0BAE0AAF0BEE7001EF6025AD
:1053D300AC08AD097900121D17124CB3E50CF0EEC1
:1053E3002508F8EF3509F98E828F83A3A3A3A3A31E
:1053F300A3A3124F00EEFAEFFB023F9774F6120AD3
:1054030052EAFEEBFF1214A1901A32E0FAE9C39AB2
:10541300400990034E1259051214A7EE2402F8EF27
:10542300125076900350E088828983F0900350E015
:10543300041254441214AD850882850983E00242A4
:1054430016F0EEFAEFFB22C082C083790090034E80
:105453008001091259058A828B83E5827002E583F4
:1054630070F0024F7C74F7120A52EAFEEBFFEE7003
:1054730001EF605E90034EE07002A3E0605490037E
:105483004E125CB67A007B00800FAA82AB83125C5B
:10549300B6E5827002E5836039EE65827003EF65DD
:1054A3008370E78E828F83124CC890034E12612C57
:1054B300EE6C7002EF6D700590034E80048A828B50
:1054C30083124F02EEFAEFFB1226B3EEFAEFFB1252
:1054D3001DA7023EFAC082C08390034EE0F8A3E00A
:1054E3008003ECF8EDF9E87001E96009126128EC3A
:1054F3007001ED70ED8A828B83E4F0A3F0E8700114
:10550300E9600688828983800390034E1249510221
:105513004F7C74F7120A5290034E80048A828B8365
:105523001265E57001EB60227F0080010F12555474
:1055330050EAEF75F006A4FCADF0EA2CFCEB3DFD60
:1055430074101255AB6970E480047A007B00023E4C
:10555300FA1255B8FCEFC39C2274F7120A52780072
:105563008001081255B4FDE8C39D5025E875F00687
:10557300A4FEAFF0EA2EFEEB3FFFEE2410F582EF20
:10558300126B446970DCEE2411F582EF126B444C0C
:10559300F0023EFAEF75F006A4FCADF0EA2CFCEB4A
:1055A3003DFD74111255AB222CF582E43DF583E0E9
:1055B300221255B822EA240BF582EB3400F583E07E
:1055C3002274F6120A521215C17A008010EA12658B
:1055D3003212565512653DF012580EF00A902C2BDC
:1055E30012707D40E87A00801E8A087509007403F2
:1055F30078081211AC126B3388828983125655A333
:10560300A3A3A3A3A3F00A902C3812707D40DA7AE7
:1056130000801A8A08750900740378081211ACE532
:1056230008246EF582E50934191265ED0A12707AC1
:1056330040E1902C27E49390035CF0125644024F10
:10564300347CE87D037A107B009003CCE0F9121ED2
:10565300492212565922A374FEF0A374FFF0E48882
:10566300828983A32274F0120A5274F512106A8A93
:10567300088B09890A8C0BE9A2E050147508FC75A4
:1056830009FFA2E15005D2E4025732D2E3025732B6
:105693001215A38A0C8B0DA80CA90D900371E06859
:1056A3007003A3E06970057900025809AC0A790216
:1056B300AA08AB0912159DE960EDE50AF50C780C13
:1056C300120FDF79027CFE7DFFAA08AB09125E246C
:1056D300121008E96003025807E50AC2E5F50A90CB
:1056E30003BEE0704CE50AA2E64046740312129929
:1056F300AC82AD83AA08AB091212A3E9702D12592B
:1057030015F8EBF9EA7001EB6027E82402FEE934AF
:1057130000FF0A0AFB121C7BE96016EEFCEFFD7426
:1057230003121299AA82AB83122491E50AD2E5F5FA
:105733000A900351E0F50C900371E0F50EA3E0F538
:105743000F780E120FDB7D017C00900351E0F9AA64
:105753000EAB0F1215557402121008E9FA9003519B
:10576300E004F0EA6003025807E50AA2E550047A70
:105773000E80027A06740112129912689C8A0E8BAB
:105783000FAE0EAF0FEE7001EF607512581C124C86
:10579300B412452A88828983F07478550A12580E08
:1057A300A3A3E50C126B48E508F0E5098882898319
:1057B300A3A3A3A3F0E488828983A3A3A3A3A3F051
:1057C300E50AA2E550147403121299AC82AD83E882
:1057D3002406FAE93400FB1224918E828F83A3A35B
:1057E30074FD1265F1E50B600EC3941E5009EE249F
:1057F30013126382E50BF0EEFAEFFB1213E7800658
:105803007910800279C7740B0231BBA3125813229B
:10581300F08001F98882898322EE2417124CBA742E
:1058230001F0121711EE241A124CBAEAF0A3EBF0AE
:10583300EE22C082C0839011F7E06401901AA37036
:1058430006E0FC79018004E0FC79037A007B001216
:1058530014C5024F7C74F4120A528A088B09E9FEBC
:105863001217B3E960067AFF7BFF8078901AA2E0F3
:105873006402706379001258EAEA7001EB60421225
:105883007230FC74016C7022900370E08A828B8307
:10589300A3A3A3A3F08A828B83A3A312590574FE47
:1058A3006A700374FF6B6010803A74036C601A743F
:1058B300046C70047AFE80B088828983E06402708D
:1058C300089003BDE06402700E1259157001EB607D
:1058D30006AA08AB09800DAA08AB09900352125A15
:1058E3002312270F024F8DAA08AB091258F2221276
:1058F30015A3EEF912159722EA240BF582EB340077
:10590300F58312590F22850E82850F83E0FAA3E0F7
:10591300FB2212591D121873EA2290037EE0FCA3A6
:10592300E0FDAA08AB092274F7120A52EAFEEBFF64
:105933001212F7E9700AEEFAEFFB121303E960069D
:10594300EEFAEFFB80047AFE7BFF023EFA74F2125A
:105953000A528A088B098C0A8D0BE9FE7F00121705
:10596300B3E979006003025A19AA08AB091273BBA1
:105973007002E5836017A3A3A3A3A3E0FA74026AEA
:10598300704F9003BDE064027003025A17AA08AB7C
:1059930009900358125A2312270F1213098A0C8BEA
:1059A3000DA80CA90DE87001E96069E82405F582EA
:1059B300E9126B44A2E0505C750C01A2E1501C7922
:1059C30001AC08AD09AA0AAB0B1214F5E9700F80FC
:1059D3004374036A703E750C028003D2E1F09003B6
:1059E30071E0650A7004A3E0650B700E7C1EEEF98E
:1059F300AA08AB091214C50F801AA90CAC08AD098B
:105A0300AA0AAB0B1214F5E9700A0FEEF9AA08AB58
:105A130009121549EFF902487AEEFAEFFB900354A5
:105A2300125A2722E0F8A3E0F58388822274E81251
:105A33000A5274F012106A8A148B158C088D09743B
:105A430028121299E0F510A3E0F5119003FEE0701F
:105A530002A3E060121273C17002E5836009A3E040
:105A630070057900025C95E514241DF516E51534DF
:105A730000F517851682125CB4A3E0F50A888289C3
:105A830083125E04FA88828983A3A3A3A3E0F9EABD
:105A9300FEE9FFAA08AB0912154FE9FA125CBCE054
:105AA3002AF50B530A78E514240BF50EE51534009B
:105AB300F50F7808120FDB7D00125CA7121008E9BE
:105AC300FA74036A609CEA70407418550A70030202
:105AD3005BB3E50AD2E0F50AA2E45004D2E1F50A89
:105AE300E50AF50D780D120FDF125C9A121008E922
:105AF300701785108285118374FFF0A3F0850E82E1
:105B0300850F83125905121F2D851082851183E09D
