:020000040000FA
:060000000212120207A526
:03002B00022706A3
:03003300020D219A
:0300430002105355
:03004B00020F1091
:030053000206F7AB
:03005B00020F1F72
:03006300020F2B5E
:03006B00020CF094
:03007B00020D0A69
:10008300020741010101010503010F10FEFF0300F7
:100093000300030003000300030003000300030045
:1000A30005000A00140028004F009E000000311BC9
:1000B300311B311B311BE719E119311B192A0000D0
:1000C30000005529000000000C0000000C00010A8C
:1000D300D007D007F804FF0101003D11000000988C
:1000E30011E80364006400B8010202000020000567
:1000F3000207011E02051E020A03B80B02803E011D
:10010300033200020136BF010A01E0020206303168
:100113003233343536373839414243444546002873
:100123006E756C6C20706F696E74657229003F3F49
:100133003F000000803FF9021550B743BA5100E772
:10014300DB2E0000A04010000000080000000A00A1
:100153000000121231604612125E603DE9687008B9
:10016300F618F618F618F622748067F71201890953
:100173000909748067F72212125E601D1212317032
:1001830005191919801A1210AB701F1210C0C37011
:1001930003E66733191919400718181822080808C5
:1001A30074FFF618F618F618F6221210C06017122C
:1001B3001285702192F012128F7019501720F014CB
:1001C300080808090909E7F61819E7F61819E7F600
:1001D3001819E7F62212128F60E6E869701F080803
:1001E300E62480F608E436F618547FB47F0CE65410
:1001F300806007F6E418F618F622181822E9C6CC30
:1002030008C6CD08C6CE08C6CFC0E0E8C0E0EAC045
:10021300E0EBC0E009E9F809E7FA09E7FBE6F918BA
:10022300E6F8C3EC98ED99EE9AEBC2E7F5F0EFC26E
:10023300E795F0500E600CEBCFFBEACEFAE9CDF96F
:10024300E8CCF8EAA2E7D2E7FAEB33FB13F5F0EEDA
:10025300A2E7D2E7FEEF33FFC5F013A2E730E601D2
:10026300B313C5F0C3C0E0C0F07F00C39BFB605B6A
:100273009418600C401AD0E023F9D0E0F802035838
:100283008AF0E9486003D2F0E4AFF0FAF9F8803B72
:10029300EB30E40D89F0EA6003D2F0E4AFF0F9CA81
:1002A300F8EB30E30D88F0EF6002D2F0AFF0E4CA70
:1002B300C9F8EB54076014FBC3EA13FAE913F9E82E
:1002C30013F8EF135002D2E0FFDBEDD0E0C0E030D3
:1002D300E739C3E49FFFF5F0EC98FC42F0ED99FD9C
:1002E30042F0EE9AFE42F0D0E0F9D0E0F8E5F0609B
:1002F3007AE923F9EE20E742D8028067C3EF33FFA0
:10030300EC33FCED33FDEE33FE80EAEC28FCED39F3
:10031300FDEE3AFED0E023F9D0E0F84002801BC3A3
:10032300EE13FEED13FDEC13FCEF135002D2E0FFCE
:1003330008B800067F7F74FF802EEF3350178CF0D0
:1003430020F00260100CBC000C0DBD00080EBE00B6
:100353000408E860DFE933E813FFEE2313FE4F4D93
:100363004C8008E95480FFE4FEFDFCEE33EF33F4E8
:100373007004FCFD7E80D0E0FBD0E0FAD0E0F8D042
:10038300E0CFC618CEC618CDC618CCC6F9221212B5
:100393005E700418181822121231700D74FFF618CB
:1003A30019F61819F61819F622E7548066F6121290
:1003B3008F700F12128570F014F608F608F608F61F
:1003C30080D1121285700CF608F608768008E64490
:1003D3007F80EC1210C3700C1210AE60BFE6548025
:1003E300F6E480BB1210AE700519191980A5E869EF
:1003F300700C763F18768018F618F6E8F922E6CDE9
:10040300C0E018ECC0E0E633CD33CDD313F6E719E3
:10041300FCE7191933CC33C3947F400ECD9D502490
:1004230008E65480F6E418F6800FF4043D145014E3
:1004330008E6447FF6187680E418F618F6D0E0FC58
:10044300D0E0FD22CCD313CCFD18E4C6CBC0E0181A
:10045300E4C6CAC0E00808ED08C633E613F618E49C
:1004630033C675F003C3CA97CA09CB97CB199C400F
:10047300047D08802EBD000302053A16B6FF05066B
:1004830006081618C3CA33CACB33CB33CA27CA09E3
:10049300CB37CB193CC37D08803E187D0820E75C31
:1004A300C633C6CA33CACB33CB33DDF1D5F0EB3019
:1004B300E77BCA97CA09CB974ACB199C406F4B700D
:1004C30025E620E0218066187D08C3CA97CA09CBB8
:1004D30097CB199CD3C633C6CA33CACB33CB33505D
:1004E300C9DDE7D5F0E1D3E4C636C608C636C6088B
:1004F300C636C608C636C61818188031C3CA97CA86
:1005030009CB97CB199CB34097C633C6CA33CACB22
:1005130033CB33DD34D5F02EC6A2E0C640C8CA279C
:10052300CA09CB37194A70BECB3CB480B90808E678
:100533003308E633601F181818D0E0FAD0E0FBD078
:10054300E0FCD0E0FD22187D08CA27CA09CB37CBCF
:10055300193CD3808013F618E4B67F11F618B6FF62
:100563000EF618C60470D20808768080CAF618F60C
:1005730018F680C50012125E604F1212316012E746
:10058300548066F61210AB7011121285703B090984
:1005930009F4F618F618F618F6221210C0701512A0
:1005A300128F08080860EAE6447FF618768018E49C
:1005B300F618F62212128F60161212857012E4F6E4
:1005C30008F608F608E65480F609090918181822EF
:1005D300EAC0E0EBC0E0ECC0E0EDC0E0E687F0A4E9
:1005E300FBACF008E687F0A42CFCE435F0FA18091C
:1005F300E687F0A42C4B60027401CA35F0FCE433A7
:10060300FB09E687F0D2F7A42CCB35F0FC1908E6FA
:1006130087F0A42BCC35F0FBE433FD0819E687F013
:10062300D2E7A42C4ACB35F0CD3400FC09E687F0A1
:10063300D2E7A42DCC35F0FDE433FA0918E687F0B0
:10064300D2F7A42CCD35F0CA3400FC08E687F0D2EB
:10065300E7D2F7A42ACC35F07A7E20E70B0ACB3316
:10066300CBCD33CDCC33CC33CB3350147004ED30FE
:10067300E00ED2F1E4CD3DCDCC3CCC3B5005DA05C8
:10068300C2F1EB547FC63308E63392F0FBE733093C
:10069300E733C39A502D2B70190C0D4C4D70151860
:1006A30006E608C333700D20F10AA2F013F6E4182E
:1006B300800B4024E4F630F002768018F618F61822
:1006C300F68024D33B14501074FFA2F013F618766F
:1006D30080E418F618F6800FA2F013F618E6330339
:1006E300F618ECF618EDF6D0E0FDD0E0FCD0E0FB18
:1006F300D0E0FA22C0E074F2120AB8E5A7FAE5A145
:10070300FBEA5B5410600812225153A1EF802AEADE
:10071300A2E0C0D0EBA2E092F0121160158182F04A
:100723005017906198E0FA9014A2E0C39AA2D265A0
:10073300D0335002EAF053A1FE7F01020B6FC0E0F9
:1007430074F2120AB89061A4E0FA759B00E5915A1D
:10075300540860087591F7122293802AE5915A5440
:100763001060087591EF122299801BEAA2E0C0D0B5
:10077300E591A2E092F0121160158182F05007E03A
:10078300C2E0F01223B99061A3E0FAE5E95A5404F8
:10079300600E12238F75E9FB906193E0A2E640F2AD
:1007A3008097C0E074F2120AB89061A5E0FAE5BF41
:1007B3005A5404600653BFFB1223D102073CC3E41F
:1007C30098F8E499F91208028026C3E49AFAE49BA4
:1007D300FBE920E7E9120802E498F8E499F922C357
:1007E300E498F8E499F9120802E498F8E499F9C353
:1007F300E49AFAE49BFB22EB20E7CFE920E7E0B998
:100803000010BB0008E88AF084F8AAF022E4FBC8D1
:10081300FA22EB70227B10C833C8C933C93350079F
:10082300C39AC3DBF280069A50012ADBEAC833F489
:10083300C8C933F4C9FA2275F008E4C833C8C93308
:10084300C933C99AC99B5004C92AC93BD5F0ECFBEB
:10085300C833F4C8E4C9FA2212089B20F01430E725
:100863002B74FFFCFBFA747F8022E4FCFBFA748098
:10087300801AB48008BC00F2BB00EF800F50EBF984
:10088300E4C39AFAE49BFBE49CFCE499C6CC18C647
:10089300CB18C6CA18C6F922E4C9C608CAC608CB0B
:1008A300C6D3330308CCC63392F0C3947F402E944F
:1008B300184019C9B90704CACBCC225025C309CAA9
:1008C30033CACB33CBCC33CC33D9F422F4600DC948
:1008D300CCC313CB13CBCA13CAD9F6CC22E4FCFB8B
:1008E300FA2214FCFBFA22080808EAC0E0EBC0E095
:1008F30086F0E7A4FA180986F0E7A42AFA1809860D
:10090300F0E7A42AFA180986F0E7A42AFA1986F070
:10091300E7A4FBE5F02AFA190886F0E7A42BFBE528
:10092300F03AFA190886F0E7A42BFBE5F03AFA1837
:10093300180986F0E7A4C5F02BFBE43AFA1908E797
:10094300C5F0C6A426F6E5F03BFBE43AFA1886F0B8
:10095300E7A4F6E5F00826F6E43B08F6E43A08F6E1
:10096300D0E0FBD0E0FA22080808E630E7111211C4
:1009730013120982080808C64480C61818182218DA
:100983001818E9799EC608CAC608CBC608CCC6C3E0
:1009930070207996CACBCC7019798ECBCC70137931
:1009A30086CC700EF9802ACA33CACB33CBCC33CC76
:1009B300331930E7F2CCCBCA3350147004EA30E079
:1009C3000DE4CA3ACACB3BCBCC3CCC500209C3E9B9
:1009D30013C6CC182313C6CB18C6CA18C6F922E40B
:1009E300CFC0E0E4CEC0E0E4CDC0E0E4CCC0E0752D
:1009F300F020C3E633F608E633F608E633F608E6F6
:100A030033F6181818EC33FCED33FDEE33FEEF33F9
:100A1300FFC3EC9709ED9709EE9709EF9719191999
:100A2300400FFFEC97FC09ED97FD09EE97FE1919AE
:100A330006D5F0BEECF709EDF709EEF709EFF71964
:100A43001919D0E0FCD0E0FDD0E0FED0E0FF222574
:100A530018C582C0E0E51934FFC583C0E0E518C3BB
:100A6300958224F8F8E4C5A8858319858218C5A85A
:100A7300E8CEF0A3E520F0A37808E608F0A3DEFAB9
:100A8300EFF0A3E58124FAF8E608F0A3E608F0A363
:100A9300E608F0A30808E608F0A3E608F0A315812A
:100AA3001581D0E0FED0E0F8158115811581E8C0ED
:100AB300E0EEC0E022C0D02518C582C0E0E51934BD
:100AC300FFC583C0E0E518C3958224F310AF088502
:100AD30083198582188008858319858218D2AFC847
:100AE300F0A3E9F0A3EAF0A3EBF0A37908E709F098
:100AF300A3D8FAECF0A3EDF0A3EEF0A3EFF0A3D0AC
:100B0300E0F0A3D0E0F0A3D0E0F0A3E520F0A3E56C
:100B1300F0F0A32212127AB90003020B59E49003F6
:100B230001782E79188002F0A3D8FCD9FA901A2EF6
:100B3300AA82AB8390008678D079018015E493A3D1
:100B4300AC82AD838A828B83F0A3AA82AB838C822F
:100B53008D83D8E9D9E77582007583D77403120CA6
:100B6300A67582017583277400120CA685198385E7
:100B73001882E0C0E0A3E0F9A3E0FAA3E0FBA378C6
:100B830008E0F608A3DFFAE0FCA3E0FDA3E0FEA380
:100B9300E0FFA3E0C0E0A3E0C0E0A3E0F5D0A3E062
:100BA300F520A3E0A3F5F0E4C5A885831985821891
:100BB300C5A8D082D083D0E0F8D0E03212125E60B4
:100BC3001C121231601712128F70071212857001F6
:100BD300D322C0D01212857006D0D0B322C32233E1
:100BE300D0D0501430E0F6C3E7960809E796080919
:100BF300E7960809E796B32220E0D5E6970809E6C9
:100C0300970809E6970809E697B32212125E601B5C
:100C1300121231601612128F7007121285600CB314
:100C230022C0D01212857005D0D022C32233D0D077
:100C3300501330E0EBC3E7960809E7960809E796F7
:100C43000809E7962220E0E4E6970809E6970809F1
:100C5300E6970809E69722D083D082ECC0E0EDC086
:100C6300E0E493A3FCE493A3FDED4C600D120D7E31
:100C7300EC24FFFCED34FFFD80EFE493A3FCE4934D
:100C8300A3FDED4C600D120EBBEC24FFFCED34FF15
:100C9300FD80EFD0E0FDD0E0FCE493A3C0E0E4935B
:100CA300C0E022C0F0F5F0E59F5407C0E0E59F5493
:100CB300F845F0D0F0F59FE473859FF053F0F8D03A
:100CC300E045F0F59F22D083D082E59F5407C0E032
:100CD300E493C0E0740193C0E07402935407C0F03E
:100CE300F5F0E59F54F845F0D0F0F59F22C0E0748D
:100CF300F2120AB8E589A2E150031221377589007F
:100D0300C2C57F01020B6FC0E074F2120AB8E58A14
:100D1300A2E25003122137758A00C2EB80E4C0E0DF
:100D230074F2120AB8E58BA2E05003122137758BD7
:100D330000C2E880CDD083D082E9C0E0E493A3C3AE
:100D430086F0C5F095F0F908E493A386F0C5F09515
:100D5300F0700BE493A3C3994005E9048002A3E474
:100D630075F002A42582F582E5F03583F583D0E0A2
:100D7300F9E493A3C0E0E493C0E022C0E0C3E493AA
:100D830096087401939618400FE4936670080874EC
:100D93000193661870007019A3A3C3E493960874B3
:100DA30001939618A3A3400DD0E0D0E0D0E0020C4D
:100DB30096A3A3A3A3A3A3D0E022851983851882B6
:100DC300E0A3FEE0A3F5207808E0A3F608DFFAE04D
:100DD300A3FFE0A3C0E0E0A3C0E0E0A3C0E0E0A382
:100DE300C0E0E0A3C0E0E4C5A8858218858319C5E7
:100DF300A8D083D082020CBCD083D082C5F0E49308
:100E0300A3C5F0C395F0F5F0E493A3C395F04005B3
:100E1300E5F0048001E475F002A42582F582E5F093
:100E23003583F583E493A3C0E0E493C0E022740424
:100E3300800474028000CCC0E0EDC0E0E518C39CE0
:100E4300CCAD1950011D10AF068C188D1980068C7E
:100E5300188D19D2AF120F59D0E0FDD0E0FC2274E7
:100E6300028000CCC0E0EDC0E0E518C39CCCAD1916
:100E730050011D10AF068C188D1980068C188D1922
:100E8300D2AF120F37D0E0FDD0E0FC2212125E6029
:100E930025121231602012128F7003021285080886
:100EA30008E76670101819E766700A1819E7667084
:100EB300041819E76622F422C0E0C0F088F0E49336
:100EC3006670080874019366187000A8F0A3A370F5
:100ED3000BD0F0D0E0D0E0D0E0020C96A3A3D0F08A
:100EE300D0E022D083D082CCC0E0E493A36006128A
:100EF3000F7A1470FAE493A360061210801470FA48
:100F0300D0E0FCE493A3C0E0E493C0E022C0E0742B
:100F1300F2120AB81221917F01020B6FC0E074F242
:100F2300120AB812219780EFC0E074F2120AB812C5
:100F3300219D80E3CAC0E0E493A3C582CCC582C5EA
:100F430083CDC583F0A3C582CCC582C583CDC583BC
:100F5300DAE5D0E0CA22CAC0E0E0A3C582CCC582EC
:100F6300C583CDC583F0A3C582CCC582C583CDC55A
:100F730083DAE6D0E0CA22C0E0E493A3D39C501006
:100F8300E493A3C39C400AD0E0D0E0D0E0020F0377
:100F9300A3A3A3D0E022700908080822601618183A
:100FA30018C6C333C608C633C608C633C608C63315
:100FB300C6D5E0EA222518F58210AF08F5184002DD
:100FC30015198008F51840021519D2AF8519832227
:100FD3007404800A74038006740280027401C0E002
:100FE300F404120FB8D0E012126D22BB0102E72203
:100FF300C082C08389828A83BB0003E08002E493BA
:10100300D083D08222C0D0251810AF08F518500223
:1010130005198008F51850020519D2AFD0D0226007
:1010230016080808C6C313C618C613C618C613C6BF
:1010330018C613C6D5E0EA22C3E0C696F608A3E0B5
:10104300C696F608A3E0C696F608A3E0C696F6226F
:10105300C0E074F2120AB8C2C0E5D1A2E450031290
:1010630021C77F01020B6F251810AF08F518400246
:1010730015198008F51840021519D2AF22C0E0E413
:1010830093A36C7009D0E0D0E0D0E0020F03A3A3D8
:10109300D0E022C3E7960809E7960809E79608090E
:1010A300E796A2D265D03322181818E608460870CE
:1010B3000AE608C3337005E633F422082219191926
:1010C300E7094709700AE709C3337005E733F422D8
:1010D3000922C3E09608A3E09608A3E09608A3E0DC
:1010E30096A2D265D03322E066701008A3E0667042
:1010F3000A08A3E066700408A3E06622C3E096F042
:1011030008A3E096F008A3E096F008A3E096F02287
:10111300181818E4C396F608E496F608E496F60859
:10112300E496F622E026F608A3E036F608A3E036B6
:10113300F608A3E036F622E026F008A3E036F0082E
:10114300A3E036F008A3E036F022E627F60809E626
:1011530037F60809E637F60809E637F622C0E0E86D
:10116300C0E0E58124FCF8E6A2E7D0E0F8D0E02275
:10117300E657F60809E657F60809E657F60809E6BA
:1011830057F622E056F608A3E056F608A3E056F613
:1011930008A3E056F622E056F008A3E056F008A3B1
:1011A300E056F008A3E056F022700422600D18C642
:1011B300C333C608C633C6D5E0F41822E647F6089B
:1011C30009E647F60809E647F60809E647F6226006
:1011D3000D08C6A2E713C618C613C6D5E0F322C688
:1011E300F4C608C6F4C608C6F4C608C6F4C622C3C5
:1011F300E7960809E7960809E7960809E79622C3E0
:10120300E09608A3E09608A3E09608A3E09622756B
:10121300D00075814075180175190300020B176022
:101223000C08C6C313C618C613C6D5E0F422E709D3
:101233004709C3134709336002E733F422E6F00892
:10124300A3E6F008A3E6F008A3E6F022E0F608A37D
:10125300E0F608A3E0F608A3E0F622E6084608C392
:10126300134608336002E633F422CAC0E0E6F0A373
:1012730008DAFAD0E0FA2274F855C74401F5C779C1
:101283000122E7C33319471947194722E6C3331825
:101293004618461846222518F582E43519F58322A7
:1012A300120CC9223000120CC95D3000120CC99D0A
:1012B3003000120CC9BE3000120CC90B3100120CE5
:1012C300C9E53100120CC9963200120CC92633004D
:1012D300120CC9163400120CC9593400120CC97E01
:1012E3003400120CC9D43400120CC9F93400120CA6
:1012F300C91E3600120CC9923600120CC9B536004D
:10130300120CC9D83600120CC9003700120CC912CE
:101313003700120CC91C3700120CC9A03700120C7D
:10132300C90F3800120CC9B83800120CC9C03800F4
:10133300120CC92A3900120CC96C3900120CC97C71
:101343003900120CC9643A00120CC9EF3A00120CAE
:10135300C94F3B00120CC91B3C00120CC9923C0044
:10136300120CC9CF3C00120CC92E3D00120CC97BD4
:101373003E00120CC9973E00120CC9F93E00120C34
:10138300C9963F00120CC9DD3F00120CC97840001A
:10139300120CC9254100120CC9634100120CC9D3B8
:1013A3004100120CC91E4200120CC9574200120C14
:1013B300C9874300120CC9DA4400120CC93B45002B
:1013C300120CC9844500120CC9AC4500120CC92F7C
:1013D3004600120CC9AF4600120CC9294700120C73
:1013E300C94E4700120CC95F4700120CC9D547000C
:1013F300120CC9794800120CC9BB4800120CC95120
:101403004900120CC9784900120CC9A04A00120CF9
:10141300C9B34A00120CC90C4B00120CC94D4B0046
:10142300120CC9C64C00120CC95C4E00120CC982C6
:101433004E00120CC9334F00120CC98C4F00120C12
:10144300C9785000120CC97B5200120CC985520096
:10145300120CC98F5200120CC9995200120CC9A365
:101463005200120CC9BD5200120CC9C75200120C13
:10147300C9D15200120CC9DB5200120CC9FC520034
:10148300120CC94A5300120CC9545300120CC978E8
:101493005300120CC99C5300120CC9F95300120CCF
:1014A300C9445400120CC9625400120CC9D254002E
:1014B300120CC90F5500120CC9565500120CC9BEA7
:1014C3005500120CC9625600120CC92F5800120C99
:1014D300C9525800120CC9245900120CC94A5900A8
:1014E300120CC92A5A00120CC9C25C00120CC9247E
:1014F3005E00120CC9EB5F00120CC93D6000120CB8
:10150300C9366100120CC9836100120CC9EE610077
:10151300120CC9F86100120CC9B46300120CC9E3C0
:101523006400120CC9436500120CC9F96500120C62
:10153300C9E16600120CC99E6800120CC9BD68009F
:10154300120CC9196900120CC9F16900120CC916F1
:101553006A00120CC9676A00120CC9496B00120CAD
:10156300C9816B00120CC9C16B00120CC9246C0039
:10157300120CC9406D00120CC9A06D00120CC98673
:101583006E00120CC98E7000120CC9AA7000120CE6
:10159300C94F7200120CC9957200120CC973730003
:1015A300120CC9CD7300120CC9157400120CC98535
:1015B3007400120CC9137500120CC9977500120C34
:1015C300C9037600120CC97E8001120CC9D08001B8
:1015D300120CC90A8301120CC9568301120CC928C3
:1015E3008401120CC99F8401120CC9E28501120CFB
:1015F300C92F8801120CC9568901120CC9BD91016A
:10160300120CC93A9201120CC9BA9401120CC9A660
:101613009501120CC94B9601120CC9689701120C63
:10162300C9999801120CC98C9901120CC9A39C0188
:10163300120CC9A59E01120CC9059F01120CC9BB4E
:101643009F01120CC96CA001120CC997A001120CC6
:10165300C938A101120CC91CA201120CC9F7A201BD
:10166300120CC995A301120CC9C2A301120CC9E43F
:10167300A301120CC9D7A501120CC9B7A601120CFC
:10168300C904A701120CC965A701120CC927A80137
:10169300120CC95CA801120CC9AAA801120CC9DA60
:1016A300A801120CC918A901120CC970A901120CC6
:1016B300C975A901120CC9D0A901120CC9F8A90155
:1016C300120CC917AB01120CC983AB01120CC9ED83
:1016D300AB01120CC979AC01120CC990AF01120C09
:1016E300C95CB001120CC9CCB101120CC920B40100
:1016F300120CC9C8B401120CC97DB501120CC90B77
:10170300B701120CC9A8B701120CC9F0B701120C2A
:10171300C98CB901120CC9A0B901120CC9ADB90128
:10172300120CC9C8B901120CC9D4B901120CC9F2FF
:10173300B901120CC9A9BB01120CC9E2BB01120CFD
:10174300C9EFBB01120CC9F8BB01120CC957BC018C
:10175300120CC9ADBC01120CC9B8BD01120CC914DD
:10176300BE01120CC907BF01120CC94BBF01120CF9
:10177300C9CEBF01120CC9CFC001120CC98DC10162
:10178300120CC92CC301120CC901C401120CC9A249
:10179300C401120CC932C501120CC949C501120C8E
:1017A300C982C501120CC98CC501120CC998C501A7
:1017B300120CC9B6C501120CC9FAC501120CC94BEA
:1017C300C601120CC96CC601120CC986C601120CE3
:1017D300C9FEC601120CC93FC801120CC989C80150
:1017E300120CC97CC901120CC998C901120CC9FB9E
:1017F300C901120CC950CA01120CC90ECB01120C3B
:10180300C91DCC01120CC9C9CC01120CC9A0CD0150
:10181300120CC90CCE01120CC9A0CE01120CC97056
:10182300CF01120CC99FCF01120CC9FECF01120CBC
:10183300C9ACD001120CC9D2D001120CC94AD101D2
:10184300120CC96FD101120CC992D101120CC9CD6E
:10185300D101120CC9ABD301120CC98ED401120CE5
:10186300C946D501120CC9DBD601120CC92FD70109
:10187300120CC972D701120CC9E1D701120CC95558
:10188300D801120CC9AED801120CC9D4D801120C5C
:10189300C90FD901120CC93BD901120CC986D90150
:1018A300120CC9DFD901120CC95BDA01120CC93958
:1018B300DB01120CC9CBDC01120CC938DD01120C9F
:1018C300C961DD01120CC9C7DD01120CC91EDE019D
:1018D300120CC957DE01120CC9ACDE01120CC9D1BE
:1018E300DE01120CC917DF01120CC934DF01120C1F
:1018F300C9DEDF01120CC9F5F303120CC940F4036E
:10190300120CC96C8002120CC9A08002120CC97699
:101913008102120CC94A8202120CC9758302120C8D
:10192300C9F98402120CC9778502120CC93E8602DA
:10193300120CC95F8702120CC9D18702120CC9337A
:101943008802120CC9818802120CC98B8802120CFE
:10195300C9C98802120CC9328902120CC9D1890281
:10196300120CC94F8A02120CC9048B02120CC976DD
:101973008B02120CC99C8B02120CC9CC8B02120C69
:10198300C9F98B02120CC99F8C02120CC9AF8C02CD
:10199300120CC9028D02120CC90E8D02120CC91A47
:1019A3008D02120CC9238D02120CC9848D02120CF4
:1019B300C9E48D02120CC9358E02120CC9508E0275
:1019C300120CC9808E02120CC9A18E02120CC9AD71
:1019D3008E02120CC9EE8F02120CC90C9002120C6B
:1019E300C9759002120CC9889002120CC99F90020B
:1019F300120CC9329102120CC9319202120CC92D78
:101A03009302120CC9AF9302120CC9B99302120CC0
:101A1300C91C9402120CC92D9402120CC9709402B1
:101A2300120CC9B79402120CC9ED9402120CC9230B
:101A33009502120CC9419502120CC9659502120C4C
:101A4300C9A69502120CC9999602120CC9DF960217
:101A5300120CC91A9702120CC9799702120CC9A168
:101A63009702120CC9DA9702120CC9E89702120CFA
:101A7300C9499802120CC9869802120CC9C8980267
:101A8300120CC9F99802120CC92D9902120CC9380B
:101A93009902120CC9569902120CC91E9A02120C11
:101AA300C9289A02120CC9679A02120CC97D9A02BC
:101AB300120CC9E79A02120CC9FB9A02120CC9F361
:101AC3009B02120CC9069C02120CC91B9C02120C2D
:101AD300C9BB9C02120CC91F9D02120CC9E29D02D4
:101AE300120CC9ED9D02120CC90C9F02120CC928DD
:101AF3009F02120CC9809F02120CC9B79F02120CDD
:101B0300C9D19F02120CC945A002120CC9D6A0026A
:101B1300120CC91EA102120CC939A302120CC9A3CB
:101B2300A302120CC90EA402120CC967A602120C5E
:101B3300C977A602120CC97AA602120CC986A6029C
:101B4300120CC99AA602120CC9A2A602120CC9D77A
:101B5300A602120CC985A702120CC9F5A702120C22
:101B6300C959A802120CC9F2A802120CC98CA90205
:101B7300120CC9BAA902120CC94AAA02120CC956FC
:101B8300AA02120CC985AA02120CC9A7AA02120C36
:101B9300C9CEAA02120CC934AB02120CC99EAC0204
:101BA300120CC9A1AC02120CC918AD02120CC90463
:101BB300AE02120CC9DCAE02120CC966AF02120CE3
:101BC300C99BB002120CC94DB102120CC986B102F5
:101BD300120CC9B7B102120CC9C0B102120CC9ACC4
:101BE300B202120CC928B302120CC9B8B302120C08
:101BF300C982B402120CC906B502120CC93CB50263
:101C0300120CC9BA2C00120CC9557600120CC96704
:101C13007600120CC9DA7600120CC9107700120C88
:101C2300C9677700120CC91F7900120CC9037B0026
:101C3300120CC9F67D00120CC9247E00120CC9488F
:101C43007E00120CC9B77E00120CC9EB7E00120C89
:101C5300C9287F00120CC9647F00120CC9A57F003C
:101C6300120CC921F003120CC90ACC03120CC9D3FC
:101C7300CC03120CC9D6CC03120CC9FE2F00120CD4
:101C8300C975CD03120CC9ABCD03120CC9AECD037C
:101C9300120CC9B1CD03120CC9CFCD03120CC984E8
:101CA300CE03120CC990FE02120CC9ABFE02120C39
:101CB300C9F6FE02120CC940FF02120CC9E3FF026F
:101CC300120CC9ABE203120CC9F1E303120CC99B5A
:101CD300F303120CC94AE403120CC963E403120CA4
:101CE300C9A3E403120CC952E503120CC981E5032D
:101CF300120CC942CF03120CC9BDCF03120CC9C8C1
:101D0300CF03120CC9EDCF03120CC9AEAF03120CF3
:101D1300C9F4AF03120CC964B003120CC98CB0032D
:101D2300120CC94EB103120CC957B103120CC9AD41
:101D3300B103120CC9D8B103120CC937B203120C88
:101D4300C9D6B203120CC912B303120CC96CB30384
:101D5300120CC9C3B303120CC9F1B303120CC9703B
:101D6300B403120CC9BDB403120CC9FCB403120CA6
:101D7300C930B503120CC942B503120CC954B503DB
:101D8300120CC973B503120CC932B603120CC9DAAB
:101D93009D03120CC958DB03120CC9BCDB03120CE4
:101DA300C9E0DB03120CC9E6DC03120CC9E5D80257
:101DB300120CC9CDD902120CC909DA02120CC9BA24
:101DC300DB02120CC9FCDB02120CC9B0DD02120CDF
:101DD300C9F7DD02120CC9D4DE02120CC95FDF029F
:101DE300120CC9F6DF02120CC94AE002120CC98AAE
:101DF300E002120CC947E202120CC9B5E302120C4D
:101E0300C9C7E502120CC9D5E502120CC939E602AD
:101E1300120CC98DE602120CC982E902120CC9FE2A
:101E2300F403120CC914F503120CC9D4BD03120C2C
:101E3300C9ECBD03120CC994BE03120CC9D5BE0371
:101E4300120CC9F2BE03120CC915BF03120CC95CF4
:101E5300BF03120CC995BF03120CC9C9BF03120CEF
:101E6300C957C103120CC92EEE03120CC99BEE0312
:101E7300120CC9B8EE03120CC9FDEE03120CC9090A
:101E8300EF03120CC913EF03120CC94AF403120C2B
:101E9300C9008003120CC94C8003120CC95481037E
:101EA300120CC9FA8103120CC90F8203120CC9590F
:101EB3008203120CC9AA8203120CC9BD8203120C3D
:101EC300C9008303120CC9148303120CC9F98403D8
:101ED300120CC90F8603120CC94A8603120CC94A95
:101EE3008803120CC9628803120CC9AC8803120C54
:101EF300C9E08803120CC9398903120CC95289033A
:101F0300120CC96F8903120CC9D38903120CC97E41
:101F13008B03120CC9A08B03120CC9D58B03120CB3
:101F2300C9008C03120CC9108C03120CC91C8C033E
:101F3300120CC91F8C03120CC9898C03120CC940E3
:101F43008D03120CC9748D03120CC97E8D03120C00
:101F5300C99B8D03120CC9FD8D03120CC91A8E0384
:101F6300120CC9828E03120CC9BD8E03120CC9CC8C
:101F73008E03120CC9D68E03120CC92DEF03120C5B
:101F8300C93EEF03120CC9CFEF03120CC918E001CD
:101F9300120CC946E001120CC9B5E101120CC94388
:101FA300E201120CC9BFE201120CC922E301120CB7
:101FB300C964E301120CC9DBE301120CC986E40115
:101FC300120CC908E501120CC944E501120CC90041
:101FD300E901120CC9CDEA01120CC997EB01120CED
:101FE300C9BBEB01120CC9A6ED01120CC918F00113
:101FF300120CC9A5F001120CC9B6F101120CC91DCE
:10200300F501120CC92DF501120CC997F601120C3A
:10201300C912F701120CC92CF801120CC9ACF90151
:10202300120CC9258F03120CC9E48F03120CC95873
:102033009003120CC9DC9003120CC9339103120CE8
:10204300C9329203120CC98F9203120CC9A49503CF
:10205300120CC9369603120CC99B9603120CC93A8B
:102063009803120CC9F59803120CC9619903120C59
:10207300C9F59A03120CC9929B03120CC9929C03D3
:10208300120CC93AF203120CC93CF203120CC94FE9
:10209300F203120CC95DDD03120CC9AADD03120C95
:1020A300C959DE03120CC9BFDE03120CC973D7036F
:1020B300120CC9CCD703120CC93CF503120CC9315D
:1020C300E703120CC96BE703120CC92FE803120CC8
:1020D300C93DDF03120CC94BDF03120CC9E37F00B8
:1020E300120CC9D9F003120CC9E9F003120CC90789
:1020F300F103120CC96FF103120CC9E3EA03120CCA
:10210300C90AEB03120CC993EB03120CC9FAEB03D4
:10211300120CC9DD9E03120CC9FEE003120CC92682
:10212300E103120CC9A5E103120CC9CFE103120CA0
:10213300C912E203120CC96BE203120CC913EC03BC
:10214300120CC928EC03120CC951EC03120CC9C7B9
:10215300EC03120CC9E3EC03120CC9F8EC03120CE8
:10216300C908ED03120CC99AC803120CC9A8C80305
:10217300120CC928C903120CC9EFC903120CC9A553
:10218300CB03120CC9D3E503120CC90EE603120CE0
:10219300C932E603120CC990E603120CC9F2E60336
:1021A300120CC94EFA01120CC9CDFA01120CC97DE9
:1021B300FB01120CC9EEFB01120CC9EFFC01120C5E
:1021C300C999FE01120CC9F8FE01120CC952FF0194
:1021D300120CC95BFF01120CC96AFF01120CC97D05
:1021E300FF01120CC993FF01120CC99CFF01120CD1
:1021F300C9CDF902120CC91EFA02120CC932FC0233
:10220300120CC96AFC02120CC98FFC02120CC9A879
:10221300FC02120CC9C1FC02120CC9C2FD02120C51
:10222300C951FE02120CC93DD903120CC980D9034E
:10223300120CC991D903120CC9C4D903120CC9FADF
:10224300D903120CC930DA03120CC9A9DA03120C30
:10225300C9E6DA03120CC9FCD103120CC924D20358
:10226300120CC961D203120CC973D203120CC98FA9
:10227300D203120CC9F7D203120CC900D303120CF8
:10228300C961D303120CC985D303120CC94CD403FF
:10229300120CC959D403120CC96AD403120CC92FE6
:1022A300F303120CC97CF303120CC976C103120C9D
:1022B300C9D1C203120CC9DEC203120CC9F4C20392
:1022C300120CC911C303120CC928C303120CC93D54
:1022D300C303120CC9C1C303120CC9A0C403120C5B
:1022E300C9E9C403120CC9F9C403120CC979F10377
:1022F300120CC99EF103120CC9C7F103120CC9EFEA
:10230300F103120CC998D403120CC9B1D403120CF3
:10231300C9BDD403120CC9D1D403120CC9F5D4031B
:10232300120CC901D503120CC910D503120CC92311
:10233300D503120CC976D503120CC9B0D503120C00
:10234300C9E0D503120CC92FD603120CC97DD603DD
:10235300120CC995D603120CC99FD603120CC9B02F
:10236300D603120CC9F5D603120CC9AFFF01120C28
:10237300C976A703120CC9A2A703120CC9BEA703EF
:10238300120CC9D1A703120CC9E7A703120CC95138
:10239300A803120CC984A803120CC9E9AB03120CDD
:1023A300C912AD03120CC942AD03120CC9ABAD0384
:1023B300120CC98FAE03120CC9B7AE03120CC9CCF1
:1023C300AE03120CC9DCAE03120CC91DAF03120C11
:1023D300C972AF03120CC982AF03120CC9ACE90373
:1023E300120CC9C7E903120CC9F0E903120CC90A9C
:1023F300EA03120CC92FEA03120CC94EEA03120CAA
:10240300C967EA03120CC996EA03120CC9B1EA03BD
:10241300120CC98FF403120CC908C503120CC90F9F
:10242300C503120CC91CC603120CC94EC603120CF9
:10243300C974C603120CC9A7C603120CC9B9C603D3
:10244300120CC9F4C603120CC964C703120CC9A148
:10245300C703120CC9EEC703120CC91CC803120C24
:10246300C93CC803120CC974E803120CC996E803EB
:10247300120CC9A9E903120CC92EED03120CC98C65
:10248300ED03120CC9CBED03120CC90CEE03120CB5
:10249300C9009F03120CC90A9F03120CC9489F036A
:1024A300120CC939A103120CC9A2A103120CC988C9
:1024B300A203120CC9CAA203120CC9FBA203120C79
:1024C300C983A303120CC969A503120CC956A60339
:1024D300120CC9F1A603120CC930A703120CC95B75
:1024E300B603120CC97AB603120CC9C3B603120C95
:1024F300C9DFB603120CC910B703120CC927B703FF
:10250300120CC934B703120CC951B703120CC93EDC
:10251300B803120CC975B803120CC97FB803120CA7
:10252300C98CB903120CC997B903120CC9A9B90311
:10253300120CC9B2B903120CC9BCB903120CC925D8
:10254300BA03120CC9B8BD03120CC9CFF403120CA1
:10255300C91EF503120CC9A2F203120CC9CBF20374
:10256300120CC9CBE902120CC9A3EE02120CC9A8C2
:102573002C00120CC9862C00120CC9672C00120CFB
:10258300C9342C00120CC9B3D802120CC995D80255
:10259300120CC9BCD702120CC920D702120CC9E312
:1025A3002F00120CC9A82F00120CC9B4D502120CAB
:1025B300C95CD302120CC95E2F00120CC9412F0053
:1025C300120CC98ED202120CC9C3D102120CC98ECD
:1025D300D102120CC95BD102120CC93CD102120CFC
:1025E300C9DCD002120CC98ED002120CC9D2CF02A0
:1025F300120CC99ACC02120CC972CC02120CC91764
:10260300CC02120CC9F4CB02120CC92FCB02120C50
:10261300C9D7CA02120CC941C902120CC93EC90268
:10262300120CC93FC802120CC91FC802120CC96F91
:10263300C702120CC9F1C502120CC9B8C502120CAB
:10264300C9022F00120CC9B62E00120CC9E42D00CA
:10265300120CC989C502120CC986C502120CC978AD
:10266300C502120CC964C502120CC94A2D00120C12
:10267300C951C502120CC95BC402120CC9EBC302D7
:10268300120CC9B1C302120CC928CD03120CC9D94B
:102693002C00120CC959C302120CC928C302120C14
:1026A300C940C002120CC9FEBF02120CC9F2BF021C
:1026B300120CC965BF02120CC9B3BE02120CC95277
:1026C300BC02120CC9BCB902120CC986B902120CA5
:1026D300C91DB802120CC9C9B702120CC90DB70241
:1026E300120CC9E0B602120CC932B602120CC905AB
:1026F300B602120CC9CBB502120CC985B502000093
:102703000080FBC2C732E47387000100B21A2400C1
:1027130002008C1A250002008E1A26000200901A6D
:1027230027000200921A28000100941A29000100D0
:10273300951A84000400961A860001009A1A2A004A
:1027430001009B1A2B0001009C1A2C0001009E1A09
:102753002D000800ED112E0001009F1A2F0001002B
:10276300A01A30000100A11A31000100A21A3200A0
:102773000100F51133000100F61134000100A31A22
:1027830036000100F71183000200B01A6200100046
:10279300001263000100101264000100EA116500D9
:1027A30001009D1A6D000100AF1A6E000200EB11CB
:1027B30043000100A41A44000200A51A45000100C9
:1027C300A71A46000200A81A47000800F81148009B
:1027D3000100AA1A49000100AB1A4A000200AC1A10
:1027E3004B000100AE1A04000100B31AA10001005E
:1027F300B51A37000100B41A000000000000000100
:102803003636010100010201000103010001040148
:10281300060605020000070100340801000F090441
:1028230001010D0100FF0E0800001702000019014D
:1028330000FF1A0100011B0100FE1C0100081D021C
:1028430000001F01000120010001210200002301FB
:10285300000F2402000026010001270100082802BE
:1028630000FF2A0100072B0102402C0100002D016B
:1028730000012E0100012F0100FF30010B1C310864
:1028830000003A0100083B01000F2F010000030282
:10289300710230016002110270020102020202029F
:1028A3008002100261023A00410063027302720265
:1028B3006202430200021302380000020002040213
:1028C30012020002000200020002040204023700A6
:1028D30037003C0244020002390000020002650294
:1028E3000002350281020002050282028302000215
:1028F3000101710101010101110101013101010115
:1029030001018001100161013B00140063017301A7
:102913007201620143010001130106013D0135000B
:10292300040112010001000100010001040104017E
:10293300330133013C01440132013600000100013F
:102943006501000135008101000105018201830158
:1029530000010103710301030103010301030103E7
:102963002203020301031003000300030003000317
:1029730000030003000342030003240306030003D0
:102983000003040312032503230325032303040382
:1029930004030003000300034403000300032303B1
:1029A30000036503210035038103000305030003CE
:1029B300000300030304710402046004110470049F
:1029C3000204020401040204100461040004140458
:1029D30063047304720462044304000413040604CE
:1029E30000040004040412040004000400040004AE
:1029F30051046400000400040004440400040004BF
:102A03000004000465040004350481046400050423
:102A1300000483040004030071003001600011000E
:102A23007000310220035004800010006100000098
:102A3300140063007300720062004300000013007F
:102A43000600000000000400120000000000000067
:102A5300000004000400370037003C02440000007B
:102A63000000000000006500000035008100000048
:102A7300050000008300000036000100060000008E
:102A83000F0000000000000000000000000003FF32
:102A9300FF00000403FFFF0000FFFF0FF401000528
:102AA300C4040320000100000B000000000000002C
:102AB3000003010F000047201300E11F010047201E
:102AC3000200AB1F0300B11F0400B71F0500BD1FA9
:102AD3000600C91FFFFF000001031606391608335D
:102AE300160B4B16108B15020916052716070F1622
:102AF3000CEB150DF715FF0000030003000400089D
:102B03000010001F003E007B00F600EC01D703AF6E
:102B1300075D0FB91E713D0000411A711A471A4D26
:102B23001A6B1A5F1A591A771A7D1A831A8F1A5356
:102B33001A3B1A351A03EAF5E5D5D5C5B5A595951A
:102B430085857575656555554545353525251515B2
:102B5300059C36063A703DD9404344AD47174B8137
:102B63004EEA5100160F00000B150B020002220F54
:102B730032000006000102030405060708090A0BD8
:102B83000C0D0E0F311B431B491B0B1A4F1B051A50
:102B9300111A45193F197B19811975192D19A91B8B
:102BA300C71BCD1BAF1BBB1BB51B0C0E020B040BB2
:102BB3000A0708000F00034948424D18172505026C
:102BC30000011916181616152303003030171819AB
:102BD30021301B1D1F3000383C3E363B3B352B4319
:102BE3002C303016181920231A1C1E309D1B551B20
:102BF3005B1B671B611B651A891AC11B951A9B1AFC
:102C0300511957194B1987190005150D0910080497
:102C13005D196F1900BE040A0E00150004000103BC
:102C230009280C0F100C0A090004000C04081008F2
:102C33000574F6120A5274FF12106AE4851882852D
:102C43001983F08582088583097808120FDB7508DC
:102C5300017509007808120FDB12448912100874F9
:102C630001024F2B74F6120A528C088D0978081250
:102C73000FDB75080B7509007808120FDB12448906
:102C8300024F2B74F6120A528C088D097808120F22
:102C9300DB75080B7509007808120FDB12449412D8
:102CA300437F024F2BC082C0838A828B83E0D2E7AB
:102CB300F0121F4B024F76C082C08379001258F581
:102CC30090032E126126C3EA9CEB9D500612343EFC
:102CD300600109024F7674F7120A52EA125FDCEBC5
:102CE30012637F122F37AEF075F00BEDA42EFD901B
:102CF3000330E02CFEA3E03DFFEA2403FCEB3400A9
:102D0300FD740169600574026970278A828B83A34D
:102D13001258FF8E828F83A312494B740269701D70
:102D2300ECFAEDFB121C7BE97013E48E828F83F0C7
:102D3300800BEE2403FAEF3400FB12259FEEFAEF2B
:102D4300FB12256F023EF474F2120A528A088B09B1
:102D5300EA240BF50CEB1265E479008A828B83E09D
:102D6300606F890A890B805EE50A75F00BA4FAACE3
:102D7300F075F00BE50B1231D07048AE82AF83854E
:102D8300088285098312705D12328AA31263851249
:102D93004EFBE5082403FCE5093400FDEE24030A99
:102DA3000A0AEF3400FB12259F850C82850D83E50B
:102DB3000AF0A3E50B12543E12256F790190032EFE
:102DC300126887122DD71231C8E50A9AE50B9B408A
:102DD30097024874E50A2401F50AE50B3400F50B64
:102DE3002274F1120A52EAFEEBFF740F12129912C7
:102DF3004481750E01850882F583A385820C858342
:102E03000DEE240BF8EF3400F9EC7001ED6030ECBB
:102E1300125FDCED1249417901EEFAEFFB12268FC6
:102E2300E5087002E5097003022EAF850C82850D5B
:102E3300831265E97902AA08AB0912268F806DEE29
:102E43002403F50AEF122DDFE5087002E50960336C
:102E5300125FDAE509124941E5082403FAE509346A
:102E6300001231C0700CEEFAEFFB12266BE9F50E7F
:102E730080B9AA0AAB0B1231C170317903EEFAEFB4
:102E8300FB80B78E828F83A3E064FE7004A3E064AB
:102E9300FF700A0A0A0AAB0B1231C1700CEEFAEF8B
:102EA300FB12266BE9F50E8003750E00A90E7F0752
:102EB300020DBD74F7120A5290032E12494BEA70A9
:102EC30001EB6031EA75F00BA4FAACF075F00BEB93
:102ED300A42CFBEAFEEBFF121DA190033012494B19
:102EE300900330E07002A3E06012EEFCEFFD790086
:102EF300121D178007900330E4F0A3F0023EF47430
:102F0300F6120A527508007509007808120FDB9053
:102F1300032E122F37AAF075F00BEDA42AFD7A23A6
:102F23007B00121E077402121008E9FE60031225CB
:102F3300BD02420F1263AEEC75F00BA4FC2274F7D2
:102F4300120A527E007F00800AEEFAEFFB122581FF
:102F53001240FA122F9C40F1023EF474F7120A5207
:102F63007E007F008016EEF8EFF9122F87FCA3E0B6
:102F730039FDEEFAEFFB1225751240FA122F9C4031
:102F8300E5023EF4E875F00BA4F8AAF075F00BE93E
:102F9300A42AF9900330E0282290032E125277C31B
:102FA300EE98EF992274F7120A527E007F00802870
:102FB300EEF8EFF9E875F00BA4F8AAF075F00BE959
:102FC300123285A2E7500EC2E7F0AC82AD83EEFA6F
:102FD300EFFB12257B1240FA122F9C40D3023EF4E2
:102FE300C082C083EC7001ED600512248B80097CE4
:102FF300087D007900121D17024F7674F6120A52EB
:103003007900EA7001EB60147C008C08126B386065
:103013000479017C080CECC3940840EE024F2E7433
:10302300F7120A5274F312106AECFEEDFFE48518EE
:1030330082851983F074011212991244D21212BBC1
:103043007403121299AC82AD83EEFAEFFB12259F43
:10305300EEFAEFFB121C7B023EEF74F7120A527476
:10306300F312106AECFEEDFFE4851882851983F0F4
:10307300EAFCEBFD74031212991245077401121254
:1030830099126385124EFC74FE68700374FF6960C5
:1030930004790180027900023EEF74F7120A52EAC2
:1030A300FEEBFF1230EB70101230F664FFFC8A82E5
:1030B3008B83E05CF012256F0247D074F7120A523B
:1030C300EAFEEBFF7508008E828F83E060171230F3
:1030D300EB70121230F6FC8A828B83E05C7006E0A0
:1030E3004CF012256F0247D0121C03E9F508740156
:1030F300650822EE124CB2125277122F87FAA3E020
:1031030039FB8E828F83E02274F0120A528A088B75
:1031130009EA2403FEEB3400FF7C007D000A0A0A5F
:10312300FB12259FE508240BF50CE5091265E479EC
:1031330000850882850983A385820A85830BE06461
:10314300FE7004A3E064FF6065890889098054E583
:103153000875F00BA4FAACF075F00BE5091231D049
:10316300603E850A82850B8312723CA3E06C700378
:10317300A3E06D702BEA2403F50EEB3400F50F1278
:1031830031BD700BAC0EAD0FEEFAEFFB12259F8530
:103193000C82850D831264B9790190032E12448148
:1031A300124F021231C8E5089AE5099B40A1800538
:1031B300740D1210087F08020DBD0A0A0AFB121CC7
:1031C3007BE964012290032E125909C322A42CFB2C
:1031D300900330E02AFAA3E03BFB8A828B83E0541E
:1031E3000F2274EF120A528A828B83A385820E8583
:1031F300830F1265E9EA240BF508EB124F0A8508E1
:10320300821265E7751000EA2403F50CEB3400F530
:103213000D1231BD7065750A00750B008055E50A06
:1032230075F00BA4F8AAF075F00BE50B1232855478
:103233000F603DAE82AF83EE2403FCEF3400FDAAA2
:103243000CAB0D122485E9640170258E828F83A354
:10325300124CC2850E82850F83E8F0A3E912328AED
:10326300E50AF0A3E50BF075100190032E126887B1
:10327300122DD790032E12437240A3A9107F090287
:103283000DBD123314E02212328E22F0850882859E
:1032930009832274F3120A52EAFEEBFF8E828F83B4
:1032A300A385820A85830B1265E9EE2403F508EFF3
:1032B300124F0A7C007D000A0A0AFB12259FEEFAD0
:1032C300EFFB121C03E9F50C7401650C703EEE1262
:1032D3005FDCEF12331E75F00BA4F8AAF075F00B48
:1032E300E9123314A31258FF850A82850B8312490E
:1032F3004BE82403FEE93400FFEEFAEF1231C0700D
:103303000BEEFCEFFDAA08AB0912259FA90C023FA7
:1033130091122F93F8A3E039025810124CB71252AE
:1033230077E82274EE120A5274E612106AEAFEEB90
:10333300FFEE240BF50AEF122DDF850A821265E7F3
:10334300750E01750800750900751000751100E40C
:10335300851882851983F0EE2403FCEF3400FD7495
:1033630003121299AA82AB8312259F8E828F83A3A5
:1033730085820C85830D851882851983AA82AB8388
:103383001212C1E964017034740B121299124CC207
:10339300850A82850B83124EFC7401121299124C1A
:1033A300C2850C82850D83E0687003A3E0696055D4
:1033B300851882851983858208858309740D121205
:1033C30099E41264AAF8A3E0F9740E121299124E4A
:1033D300FC740D121299AA82AB831212BBE9640129
:1033E300700B740D12129985821085831178101257
:1033F3000FDBAC08AD09EEFAEFFB12264D74021297
:103403001008E9F50EEEFAEFFB1212B5A90E741AC5
:1034130002617BC082C083780079008003123D255E
:103423001231C8E89AE99B500DE8FAE9FB12343EE1
:1034330070EB790080027901024F76EA75F00BA4F4
:10344300FAACF075F00BEBA42CFB9003301273C4B1
:10345300F583E0540F22C082C083902C1D123E8F4F
:10346300EC75F012A4FCAAF075F012EDA42AFD7914
:10347300FF7ACC7B14121D17024F7674F6120A5290
:103483007E007F007C007D0080348C088D09E50878
:1034930075F012A4F508ABF075F012E509A42BF54D
:1034A30009E50824D0F582E5093414F583E0FBC36C
:1034B300994008EAC39B40031240FA123B20123999
:1034C3005BC3EC9508ED950940C0EEFAEFFB024FA4
:1034D3002EC082C083780079008003123D25902C92
:1034E3001D12406F500912389C64FF70EE80047AFD
:1034F300007B00024F7674F0120A5274F312106AC2
:103503008A0A8B0BECFEEDFF890CEE7001EF601164
:10351300EEFAEFFB12130F8A088B09EA7001EB70C6
:10352300501212E58A088B09EA7001EB60437401BB
:10353300851882851983F0121299E50AF0A3E50B29
:10354300F0EEFCEFFD740312129912368B740B121A
:103553001299124CC2124EF4E4850882850983A3A2
:10356300A3A3A3A3A31263A6AA0AAB0B1218858075
:103573000BE5087002E50970030236037A00E50CD7
:103583006007C3940550027A048508828509831273
:1035930064D8A3A3A3E50CF0EA850882850983A375
:1035A300A3A3A3A3F07402850882850983A3A3A31D
:1035B300A3A3A3A3A3F07401850882850983A3A30E
:1035C300A3A3A3A3A3A3123617A3A3A3F0E50824DD
:1035D30010F582E50912637FE4F0123617F0125FEB
:1035E300DAE50912637FE4F0908051780C12124FF0
:1035F300E508240CF582E50912637F780C1212406A
:103603001237FD4005E4901A31F012175FAA08AB98
:10361300090231B3A3124E3D02639874F2120A52A7
:1036230074F312106A8A088B09ECFEEDFF750A0029
:10363300EEFAEFFB12130F8A0C8B0DA80CA90DE801
:103643007001E9603E88828983E065087004A3E025
:103653006509602F88828983A3A3A3A3E0C394058C
:1036630050211264B57401851882851983F01212F2
:10367300991264B9EEFCEFFD740312129912368BA2
:10368300750A01A90A02486F12450E1212CD22745F
:10369300F6120A521236F67002E5836010A3A3A352
:1036A300A3E06009C3940550047901800279000204
:1036B3004F2E74F6120A521236F67002E58360102A
:1036C300A3A3A3A3E06009C3940350047901800278
:1036D3007900024F2E74F6120A521236F67002E582
:1036E30083600BA3A3A3A3E0700479018002790094
:1036F300024F2E1213098A828B83E58222C082C075
:1037030083EAFCEBFD7A007B00121315024F76C0AF
:1037130082C0837C007D0080F074F2120A5274F33D
:1037230012106A8A0C8B0D8C0A8D0B7E007F008031
:1037330021123C0A12129912379460137403121265
:1037430099AC82AD83AA0CAB0D122485E9703512B6
:1037530040FA902C1D12410A5030123AD460F0E521
:103763000C7002E50D70CA74FF650A700474FF657E
:103773000B60DC850882850983E0650A7004A3E099
:10378300650B70CBAA08AB0980047A007B00024862
:103793006FE8F0A3E91245321212C7E92274F4125A
:1037A3000A5274F312106A75080012130F8A0A8BF7
:1037B3000BAE0AAF0BEE7001EF602A74018518821D
:1037C300851983124E76F8A3E0F9740B121299123D
:1037D300452A1212AF7C127D0079FFEEFAEFFB123D
:1037E3001D177508011237FD50097401901A31F045
:1037F30012175FA908740D024F847A04790012121C
:10380300DF902C1D124110EA98EB992274F7120AEB
:1038130052E9FE74FE6A700374FF6B7800790070DE
:1038230005804D123D25902C1D123D185042E8FC99
:10383300E9FDEC75F012A4FCAFF075F012EDA42FC6
:10384300FDEC24CCFCED3414FD8C828D83A3A3A367
:10385300A3E064FF60CD8C828D83E06A7003A3E0F4
:103863006B70C08008EC6005C39405401C123D25B5
:10387300902C1D12406F501A12389CFCEE70E674A7
:10388300016C600574036C70E48A828B831258FFA9
:1038930080047AFE7BFF023EF4E8FAE9FBEA75F066
:1038A30012A4FAACF075F012EBA42C123B3F2212D7
:1038B3001321024F76C082C083790180F274F01223
:1038C3000A528A0A8B0B7A0479011212DF8A0CEAF4
:1038D3007001EB6040EAC333FAEB33FB121DA18A9C
:1038E300088B09AE08AF09EE7001EF60237AFE7B07
:1038F300FF12132774FE6A700374FF6B601B850845
:103903008285098312494BE5082402124F0680E1A0
:10391300750C0080047E007F00850A82850B83E599
:103923000C12543E0231B874F6120A52750800752F
:1039330009007808120FDB12395B7403780812113F
:10394300AC123AC87B00121E077402121008E9FE7B
:10395300600312133902420F902C1D12396222E4C4
:1039630093F508740193F5092274F6120A5274FE52
:1039730012106A124242024F0F74F4120A5274DF99
:1039830012106A7E008518828519838582088583D3
:10399300097808120FDB7508028E097808120FDB0D
:1039A3007C007D0012437D121008E96003023A5245
:1039B300123A59124CBCC3EA98EB995003023A529B
:1039C3008077740F1212998582088583097808120B
:1039D3000FDB7508087509007808120FDB7403788C
:1039E3000A1211AC7402250AFCE4350BFD12437D67
:1039F300121008E9704274021212997401F07411E2
:103A0300121299124CC2740D121299124EFC7402C6
:103A1300121299AA82AB831212C7E9601B741312A4
:103A23001299E0F97405121299AC82AD83740F12E6
:103A330012991258FF1212EB0E8E8285820A750BB1
:103A430000124CBCC3E50A98E49950030239C5EE51
:103A5300F97421024F84902C1DE493FA740193FBB3
:103A63002274F6120A5274FE12106A85188285199E
:103A730083E4F0A3F0FE8033123AD4602B7808126B
:103A83000FDB7508087509007808120FDB74041240
:103A93001299124481740378081211AC123AC812B5
:103AA300448C1210081244711240FFFF902C1D1217
:103AB300410A40C485188285198385820885830954
:103AC3007808024F0F74022508FCE43509FD7A22B9
:103AD30022EEF8EFF9E875F012A4F8AAF075F012E7
:103AE300E9123BEFA3A3A3A3E064FF2274F7120A36
:103AF300527C007D00800419123B20123B17500DAD
:103B0300123B29C3940550F0E970EC80047A007BE2
:103B130000023EF4123A59C3EC9AED9B22EC2401C5
:103B23000CED3400FD22ECFAEDFBEA75F012A4FA79
:103B3300AEF075F012EBA42E123B3F22FBEA24CC2D
:103B4300FAEB3414FB8A828B83026D3574F3120A09
:103B53005274F312106A750A00750B008052E50C5B
:103B630012636C8E828F83126531E0687003A3E069
:103B73006960257401121299E0687003A3E069601B
:103B830017EE2402FCEF3400FD7403121299AA828B
:103B9300AB83122485E96007EEFAEFFB1218910557
:103BA3000C902C27E493FAE50CC39A40B1122DD75D
:103BB300123C02E50A98E50B99502CE50A75F012C0
:103BC300A4F8AAF075F012E50B123BEFE064FF7066
:103BD30004A3E064FF60D6123C0A121299123794D0
:103BE30060CB750C0080BA740D023F8EA42AF9E8ED
:103BF30024CCF508E93414F509850882F58322906D
:103C03002C1DE41241112274018518828519831237
:103C13004E3D125277740B2274F6120A521242145A
:103C2300123E8FEC8508F0A4CCAAF08509F0A42AF3
:103C3300FA8508F0EDA42AFD79FF7AE37B19121DBA
:103C4300179003337469F0A37413F090033574630E
:103C5300F0A37413F0900337748DF0A37413F090F2
:103C63000339749FF0A37413F090033B74A5F0A37E
:103C73007413F090033D74ABF0A37413F090033FFF
:103C830074B1F0A37413F0E4900332F0024F2EC02A
:103C930082C083780079008003123D2512406C5066
:103CA30024E8FAE9FBEA75F00EA4FAACF075F00E1D
:103CB300EBA42CFBEA24E3F582EB12472170DAAA8A
:103CC30082AB8380047A007B00024F7674F7120A7A
:103CD300527A007B0078007900802FE8FCE9FDEC44
:103CE30075F00EA4FCAEF075F00EEDA42EFDEC24E1
:103CF300E3F582ED124721600EA3A3A3A3A3E0FC87
:103D0300EA2CFAEB3400FB123D25902C1F123D18D0
:103D130040C9023EF4E493FC740193FDC3E89CE9BB
:103D23009D22E8240108E93400F92274EC120A52B6
:103D330089108A088B098C0D8D0C74141212991238
:103D430068877E007F001213C9AA08AB091213CF3C
:103D53008A0E8B0F850882850983A3A3A3A3A3A33C
:103D6300A3A3E0640170077508018E0980058E081E
:103D7300850D0974FE650E700474FF650F700302F0
:103D83003E728E0D8002050D850D12902C1F127050
:103D93007E5071E50D75F00EA424E3FEE5F01241AB
:103DA300CD651070E1A3E0650870DB8E828F83A37D
:103DB300A3E0650E7004A3E0650F70CA8E828F8343
:103DC300A3A3A3A3E0650970BD750D00E50DC3951D
:103DD3000C4003023E72E50DC333F8E433F9E50A00
:103DE30028F508E50B39F509850882126E7E121352
:103DF30075E9700C850882850983126E8012138120
:103E0300050D80C812135D8A128B13AE12AF13EE29
:103E13007001EF605A8E828F83E510F0A3E50812DC
:103E23004EE0A3E50EF0A3E50F124EE0A3A3A3E536
:103E330009F0902C2FE493C3950C5004E493F50CF4
:103E43008E828F83A3A3A3A3A3E50CF0850A088521
:103E53000B09750A007808120FD7E50CC333FCE48D
:103E630033FDEE2406FAEF34001264D1121008EE8B
:103E7300FAEFFB7F0C020DBDC082C083123E8C792A
:103E8300FF121D177901024F76902C1BE493FC74EB
:103E93000193FD2274F7120A52EA7001EB60498A1A
:103EA300828B83A3A3A3A3A3A3E5827002E583600C
:103EB300377E0080010E8A828B83A3A3A3A3A3E092
:103EC300FFEEC39F5022EEC333F8E433F9EA28F53B
:103ED30082EB39F583A3A3A3A3A3A3E06C7003A38D
:103EE300E06D70D17901800279008005740D1210A4
:103EF300087F01020DBD74F3120A52EA2405F8EBA0
:103F03003400F9E8FEE9FFEA7001EB606F8E828FFF
:103F130083E06073EA240608EB3400F9E0F50B75DF
:103F23000A00800B8E828F83E014F0605A050AE545
:103F33000AC3950B5046E50AC333F508E433F50984
:103F4300EA2508F508EB3509F50974062508F5088F
:103F5300E43509F509850882F583E06C7003A3E075
:103F63006D60C1850882850983E0F508A3E01264CA
:103F7300B3E824020808E93400F980B18E828F8304
:103F8300E0600479018002790080031210087F0544
:103F9300020DBD74F7120A52EA7001EB6037127218
:103FA3002AC0E0902C2FE493FED0E0C39E502688D5
:103FB300828983E0C333FEE433FFEA2EF582EB3FCD
:103FC300F583A3A3A3A3A3A3ECF0A3ED126D3B047A
:103FD300F0790180027900023EF474F2120A5289E8
:103FE300088C09124119700512688380031240F28C
:103FF30074FE650A700474FF650B70067A007B001B
:1040030080647800790080187401650C700F8C82CD
:104013008D83E0650A7004A3E0650B6049123D25BA
:1040230012406C50D71244B68A828B83E0650870C5
:10403300ECA3E0F50CEA2402FCEB3400FD8E828F46
:1040430083E0640160C2E50C70D38C828D83E065EC
:104053000A7004A3E0650B70C48A828B83A3A3A3B5
:10406300A3E0650970B7024874902C1F123A5CC331
:10407300E89AE99B2274F2120A52EA2408F8EB1236
:104083004E6D6401700512688380031240F274FE62
:10409300650A700474FF650B60527E007F008047E1
:1040A300EEF8EFF9E875F00EA4F8AAF075F00EE952
:1040B300A42AF9E824E3FAE93419FB85088285097F
:1040C30083E06401701B8A828B83A3E06401701414
:1040D3008A828B83A3A3E0650A7004A3E0650B7057
:1040E3000312136F1240FA12410740B402487412CC
:1040F30013B78A0A8B0B221240FFFF22EE24010E14
:10410300EF340022902C1F124110022FA3E493F8E6
:10411300740193F9C322EA2408F8EB1265D0E06432
:10412300012274F3120A52890C8A0A8B0B75080058
:104133007509007E007F00801B12444E650C7011D0
:10414300AC0AAD0BAA82AB83121375E96003124F5D
:10415300021240FA12410740E0AA08AB09023F915C
:1041630074F1120A52890D8A0A8B0B8C0E750C009E
:104173007508007509008005050C124F02902C1F6D
:10418300123C05E50898E509995038E50875F00EE5
:10419300A4F8AAF075F00EE509A42AF9E824E3FED1
:1041A300E91241CD650D70D2AC0AAD0BEEFAEFFB0F
:1041B300121375E960C4E50CC3950E40BBEEFAEF2C
:1041C300FB80047A007B00022EB13419FF02310513
:1041D30074F6120A527508007509007808120FDB8D
:1041E30012421412442BE9A42AF975832C75821BFD
:1041F300E49328FCA3E49339FD7A417B00121E0764
:104203007402121008E9FE60031213A5EEF9024FBF
:104213002E902C1B123962902C1F2274F6120A5214
:1042230074FE12106A124242120FDB7508027509FE
:10423300007808120FDB7C007D007A41024F238552
:104243001882851983E4F0A31244AA858208858322
:104253000978082274F4120A5274E712106A7E0075
:104263007F008518828519838582088583097808EC
:10427300120FDB7508028E097808120FDB7C007DB4
:10428300007A4112437F121008E960030243618EF2
:104293000A8E0B80587402121299AC82AD83740D8E
:1042A3001212991258FF1213BD740A121299E06088
:1042B3003974111212998582088583097808120FBF
:1042C300DB7412121299E0FD7411121299E0FC745E
:1042D30004121299AA82AB83740D121299E0F91297
:1042E300136974021210081240FA122DD78518822E
:1042F3008519831243725066740B121299858208D2
:104303008583097808120FDB902C1B120E62902C08
:104313001B12436AE8850AF0A4C8AAF0850BF0A42F
:104323002AFA850AF012444012437F121008E970FA
:10433300B9740A121299E4F0740C121299E0700322
:10434300024298740A1212997401F0740D121299B0
:10435300124CC27402121299124EFC0242B4EEFACB
:10436300EFFB7419024F84E493F8740193F922125A
:104373005277C3E50A98E50B99227A227B00121E35
:104383001974042274F5120A5274F012106A851813
:1043930082851983E4F0A3F0FE805A12444E64FF31
:1043A3006050858208858309750A007808120FD743
:1043B300123E8C7405121299AA82AB831264D21234
:1043C30010087402121299858208858309780812ED
:1043D3000FDB902C1B120E6274041212991244818B
:1043E300902C1B12442B12444012448C12100812BE
:1043F30044711240FFFF12410740A08518828519BE
:10440300838582088583097808120FDB7508027596
:1044130009007808120FDB7C007D007A4112448C7E
:1044230012100874100246FD12436AE88508F0A4CE
:10443300C8AAF08509F0A42AFA8508F022E9A42A7B
:10444300F9740228FCE439FD7A4122124453E02234
:10445300EEF8EFF9E875F00EA4F8AAF075F00EE99E
:10446300A42AF9E824E3F582E93419F583228518AF
:1044730082851983E02401F0A3E03400F022E0F503
:1044830008A3E0F509221244947B00121E1374045E
:1044930022EA75F00BA4FAACF075F00BEBA42CFB3D
:1044A300EAFCEBFD7A23221244AE22F085188285C2
:1044B300198322E8FAE9FBEA75F00EA4FAACF07569
:1044C300F00EEBA42CFBEA24E3FAEB3419FB22EA0B
:1044D300F0A3EB12453222C082C08374F312106A38
:1044E30012469B6402700E12452012129912452A3D
:1044F3001212BB800CEAFCEBFD74031212991245F5
:1045030007024F6B12450E1212C122AA82AB83120D
:10451300259F851882851983AA82AB83228A828B81
:1045230083125277740122E8F0A3E9124532221272
:104533004536221244AE80E074F7120A5274F31225
:10454300106AECFEEDFF7404851882851983F074FC
:104553000B121299EAF0A3EB123798F508601D7459
:10456300038E828F83A3A3A3A3A3A3A3A3F01212F7
:1045730099AC82AD83EEFAEFFB12248BA908023EBD
:10458300EFC082C08374F312106A740485188285A5
:104593001983F0740B1212991244D21212C77401C8
:1045A300024F6D125909740D2274F6120A5274F3F4
:1045B30012106A900332E0706E74048518828519B4
:1045C30083F0900371124524121299124EFC1217B4
:1045D30011EAFCEBFD740312129912368B12171DAC
:1045E3008A088B09A808A9097401121299E0687056
:1045F30003A3E069602B74FE68700374FF69602194
:104603007401121299124EFC7403121299AA82AB0E
:1046130083121723851882851983AA82AB8312120A
:10462300CD7401900332F0740D024F2BC082C0830E
:1046330074F312106A12469BFC74026C701E1245CE
:1046430020121299E8F0A3E91261E67048851882F6
:10465300851983AA82AB831212CD803974036C70DF
:1046630011EAFCEBFD7403121299124507E9702558
:1046730080DB74016C70128A828B83124CC2740BC0
:10468300121299E8F0A3E9800B740B12129974FECD
:10469300F0A374FFF0024F6B7404851882851983AD
:1046A300F08A828B83A3A3A3A3026D3574F5120A48
:1046B3005278007900880888097C007D0080031205
:1046C3003B20902C1FE493FE740193FFC3EC9EEDFB
:1046D3009F5021ECFEED12470560E4AE08AF09746C
:1046E300012EF508E43FF509EA6E7002EB6F70CF17
:1046F300A882A983E8FAE9FB80031210087F03026A
:104703000DBDFFEE75F00EA4FE85F00A75F00EEFF9
:10471300A4250AFFEE24E3F582EF12472122341980
:10472300F583E064FF22C082C0839003467421F0C6
:10473300A37416F0900348741BF0A37416F090034F
:104743004C744DF0A37414F0024F76C082C0839072
:10475300034A7415F0A37416F0024F7674F7120A25
:1047630052EAFEEBFF900380E0FA74086A60197462
:10477300046A60148E828F83E064017046124CAD2C
:10478300125A1DE06406703B8E828F83A3A3124CE2
:10479300C274FE68700374FF696028900371E06857
:1047A3007003A3E069700BEE2415F582EF126B3EE4
:1047B300600AEEFA1216D5E9F508800AEEFA121627
:1047C300DB80F47508C2EEFAEFFB121DA7A90802FD
:1047D3003EF474F2120A528A088B098A828B83A3ED
:1047E30085820A85830B8A828B83E0F8850A82851A
:1047F3000B83E028FAE43400FB121DA18A0C8B0D15
:10480300AE0CAF0DEE7001EF605C85088285098305
:10481300E0FC7D007900121D178E828F83A3A31203
:1048230065E91217178E828F83A3A3A3A312494BA3
:10483300850882850983E0F8EE28F8EF3400F91241
:104843004CAD12525AC0E0126379D0E0F01217292E
:10485300EE240E12637CE9124E39E0C0E0EE24111F
:1048630012637CD0E0F0EEFAEFFB8005740D1210BA
:10487300087F06020DBD74F4120A5274EB12106A1B
:104883008A088B098C0A8D0B9003817808121240D9
:10489300E9900387124B411212407405121299E9F1
:1048A300F074041212997401F07407121299E4F06F
:1048B3007402900380024F8174F4120A5274EB1253
:1048C300106AEAFEEBFF900342E07002A3E0706718
:1048D3007A077B00121DA190034212494B900342B9
:1048E300E07002A3E0604C9003421261268F838E36
:1048F300827407120F598E828F83780812124F85A4
:10490300188285198378081212408E828F83A3A39D
:10491300A3A3E0C0E07405121299D0E0126D32C077
:10492300E07404121299D0E0F07407121299124A3B
:104933008B80067910800279017415024F84124C22
:10494300B712590988828983EAF0A3EBF022C08267
:10495300C083900342E07002A3E060109003421210
:1049630058FF121DA7900342E4F0A3F0121645125C
:104973001831024F7674F3120A5274EB12106AEC78
:10498300FEEDFF7422121299780812124F74261248
:104993001299E0FC7427121299E0FD7428121299FF
:1049A300E0F50C740F6C7005740F6D6012901AA211
:1049B300E06402700579C1024A86ECC39D40F6901B
:1049C30003817808121240E9900387F0EC90038585
:1049D300F0ED900386F0E50C900388F074FF6A70A5
:1049E3000374FF6B701F901AB0E064FF7004A3E0C0
:1049F30064FF7005121D23800C901AB0124E32E82A
:104A0300F0A3E9800790037EEAF0A3EBF0EE7001D8
:104A1300EF6017EEFAEFFB1218F1E96401700BEE89
:104A2300FCEFFD7A927B0312248B900371E4F0A3D5
:104A3300F0900374F0A3F0900391F0901AA2E06455
:104A430002700A740F900385F0900386F07405904A
:104A53000380F07404121299E4F090038178081231
:104A6300124F8518828519837808121240900387A4
:104A7300E0C0E07405121299D0E0F07407121299A5
:104A8300124A8B7415023F8EE4124A902212453665
:104A9300122509229003CCE0F9121E4F22C082C0D6
:104AA30083900341E07003121FDB121411024F764F
:104AB300C082C083900341E07007E4901A30F08015
:104AC300317401901A30F0900341E064FF60237C5D
:104AD30041E0C394415002E0FCECFAE0C39AF0ECED
:104AE30075F0E8A4CCAAF075F003A42AFD7A80122D
:104AF3004B017A307B1A79411224F1024F767B0005
:104B03009003CCE0F9121E432274F4120A5274EBA0
:104B130012106A8A088B098C0A8D0B74019003802A
:104B2300124B411212407405121299E9F0740412E7
:104B330012997403F07407121299E4024F8112441C
:104B4300AA780822124A9074152274F4120A527435
:104B5300FC12106AE9851882851983F0EAFEEBFFDF
:104B630090037E12612612163F8A0A8B0BEA7001AC
:104B7300EB700579CA024C9FEA2409F508EB124F42
:104B83000A850882F583E064FE7004A3E064FF7085
:104B93000579C3024C9F90037E1258FF121897E5C4
:104BA3000A240CF582E50B124E2A124E4F740212A0
:104BB30012997402F07401121299AA82AB8312172C
:104BC3009B8A0A8B0BAE0AAF0BEE7001EF700302E8
:104BD3004C96124CAD124CC2740688828983F0A3A2
:104BE300A882A98390036BE088828983F012581608
:104BF3002413124CA412639E7440F0A3E412527067
:104C03008E828F83A3A3E8F0A3E912688FE9FE6085
:104C130003024C987409900380F0AA08AB09794BFE
:104C2300124E24124CC2900374124EFC900373E094
:104C3300FA851882851983E06A600CE09003731289
:104C4300526C79E11224F1901A90124CC2901A928C
:104C5300E0687003A3E069601A900344124EFC906D
:104C63001A921258FF121741901A921261267A0172
:104C7300124B017A007B04124A97901A92124481D4
:104C8300740278081211ACAC08AD09FA7B04124B1C
:104C93000380027E10E4901132F0EEF97404024FA7
:104CA30084F582EF124CB7740122EE124CB2222427
:104CB3000BF582EF3400F583228518828519831260
:104CC30052772274F1120A5274E212106A85188222
:104CD300851983ECF0A3EDF0EAFEEBFF742D1212BD
:104CE30099E0F50E900380E0FA74046A6005740895
:104CF3006A700579C2024E1C851882851983E0FC0F
:104D0300EEFA12163F8A088B09EA7001EB700579F7
:104D1300CA024E1CEA2409F50AEB126869E064FE34
:104D23007004A3E064FF700579C3024E1C74039002
:104D3300038012526C79501224F1AA0AAB0B794BFF
:104D43001224F1851882851983124E32124EFCE526
:104D5300082402F50CE509126873900373124E4799
:104D6300900374124EFCE50E90036B124E4F74CEFB
:104D7300550E4480C0E07412121299D0E0F0E50899
:104D8300240CF582E509124E2AF0740F121299745D
:104D930002124E477407121299E8F0A3E9124E7CEF
:104DA3007410121299E8F0A3E91264AAC0E0740522
:104DB300121299D0E0F0741B121299E4124E39A327
:104DC300A3E0900386F07A867B037954124E24A3E2
:104DD300A3A3E0900385F07A857B0379471224F13E
:104DE300900385E0C3940F50247405121299E0C018
:104DF300E07402121299D0E0F07404121299740153
:104E0300F07402121299AA82AB831225157405124B
:104E13001299AA82AB831224F7741E121008022E71
:104E2300B11224F102328F1255B804900391221269
:104E3300527790037E22124E3D22F0850882850927
:104E430083A3A322125262F8A3E0F922F0EEFCEF4F
:104E5300FD7A927B0312248B22C082C083EB9003E2
:104E630088F012162D024F76F8EF1250708882F5F3
:104E730083E022124EE4A3E022124EEF024E4A7464
:104E8300F7120A5274F812106AEAFEEBFF790090E7
:104E93000380E06408704185188285198374FD12CC
:104EA30065EB121711740212129912494B74051211
:104EB3001299E4124EE0E0C0E07404121299D0E0BB
:104EC300124EEBC0E07406121299D0E0F074071290
:104ED300129912526B12177D7408023EF1124EE4BE
:104EE30022F08E828F83A322F00231051244AEE0BA
:104EF30022850882850983A3A3E8F0A3E9F022E5CC
:104F0300082401F508E5093400F50922120FDB75C1
:104F130008027509007808120FDB7C007D007A22F5
:104F230012448C12100874021210087F02020DBD85
:104F3300C082C08390035274D7F0A37414F090031B
:104F4300F874D7F0A37417F09003567407F0A374A2
:104F530015F090035874D7F0A37414F090035A74A7
:104F63000DF0A37415F0800B740B1212991245A661
:104F7300121008D083D082020CBC74078003124B3A
:104F8300471210087F04020DBD74F0120A528A8280
:104F93008B831266DBEE7001EF700302506DEA241F
:104FA30002F8EB125070900312E07002A3E060135A
:104FB30088828983E0F9EEFAEFFB900312125A1DFF
:104FC300122709EE2406F8EF3400F9880A890BEE5C
:104FD3002409080808EF3400F9880C890D8882F544
:104FE30083E06402704B850A82850B83E054026080
:104FF30052850882850983E064E96047EE240A0844
:10500300EF12722F700A901AA4E00488828983F049
:10501300E014F07404850C82850D83F0901AA512B8
:105023006393E8F0A3E91272447001EB7003126D0D
:1050330017850C82850D83E0FA74026A6005740695
:105043006A7027850A82850B83E0A2E0501C8508DD
:1050530082850983E0F9EEFAEFFB1225FF850A82C8
:10506300850B83E054FEF0A3E0F00231B83400F97D
:10507300880889092274EC120A5274DD12106AEA54
:10508300FEEBFF8C128D137437121299780C1212E7
:105093004F7510007405121299AC82AD831225B1BD
:1050A300EE240BF508EF124F0A7405121299E0A2D1
:1050B300E55019751001AC82AD838508828509839B
:1050C3001258FF12260BE9600302521374051212E1
:1050D30099E0A2E650227406121299E05403701864
:1050E3007405121299E0540CFA740C6A600A74087D
:1050F3006A60057511018003751100740512129918
:10510300E05403FA74026A7013AC82AD838508829B
:105113008509831258FF122593025213EE2406F5D4
:105123000AEF122DDF74016A7037E5116003125222
:10513300497405121299A882A9837403121299E87B
:10514300F0A3E912527085188285198312525AC04E
:10515300E07402121299D0E012526C1226DD025250
:1051630013EA6003025213900368E06401700C8534
:105173000A82850B83E07003025213742212129980
:105183007402125270741A121299124EFCE51160D5
:105193000874051212991252497405121299E054B7
:1051A3000C64047073EE240FF582EF126B3EC0E0C3
:1051B3007417121299D0E0F0900314E07002A3E088
:1051C300604E1217178A088B09A808A909741A12C6
:1051D3001299E0687003A3E0697035780C120FD35D
:1051E300E510F5087808120FDF7812120FDBA9110A
:1051F300740C121299AC82AD837421121299AA8293
:10520300AB83900314125A1D122709740712100856
:105213007423121008023E76780C120FD378121200
:105223000FDB90037E120E35A9107422121299AC73
:1052330082AD83740D121299AA82AB831225F37483
:105243000812100880CAAC82AD8385088285098361
:105253001259091225AB22E8F0A3E912526222F097
:10526300850A82850B83E022E41245322212328EB4
:1052730012527722E0024E4AC082C083121F0902F3
:105283004F76C082C083121F0F024F76C082C08345
:10529300121F15024F76C082C083121F1B024F7666
:1052A30074F7120A527409121299E0F50878081279
:1052B3000FDF121F277401023EF1C082C083121F49
:1052C30033024F76C082C083121F39024F76C082E9
:1052D300C083121F3F024F7674F7120A52EAFEEBA5
:1052E300FF740169701079001215497C1E7900EE74
:1052F300FAEFFB1214C5023EF474F4120A5274F965
:1053030012106A8A088B098C0A8D0B741312129976
:105313001258FF901156E07002A3E06027E9851848
:1053230082851983F074011212997808121240EAE7
:10533300F8EBF9740512129912452A901156125A74
:105343001D122709024F7DC082C083121F6F024FB7
:105353007674F7120A52901A33E0F97F00800B1229
:105363005591540D64017001190F12554E5003E904
:1053730070ED023EF474F7120A52901A34E0F97F8A
:1053830000800B125591548D64817001190F1255D1
:105393004E5003E970ED023EF474F3120A52890C85
:1053A300E975F006A4F8A9F0740C28F508E439F5BA
:1053B30009EA2508FAE43509FB121DA18A0A8B0BB9
:1053C300AE0AAF0BEE7001EF6025AC08AD097900B2
:1053D300121D17124CADE50CF0EE2508F8EF350958
:1053E300F98E828F83A3A3A3A3A3A3A3124EFAEEE2
:1053F300FAEFFB023F9174F6120A52EAFEEBFF1238
:1054030014A1901A32E0FAE9C39A400990034E12AC
:1054130058FF1214A7EE2402F8EF125070900350B5
:10542300E088828983F0900350E00412543E121402
:10543300AD850882850983E0024210F0EEFAEFFBA6
:1054430022C082C083790090034E8001091258FF65
:105453008A828B83E5827002E58370F0024F767453
:10546300F7120A52EAFEEBFFEE7001EF605E900363
:105473004EE07002A3E0605490034E125CB07A00D9
:105483007B00800FAA82AB83125CB0E5827002E5D9
:10549300836039EE65827003EF658370E78E828FD8
:1054A30083124CC290034E126126EE6C7002EF6DB4
:1054B300700590034E80048A828B83124EFCEEFAB1
:1054C300EFFB1226ADEEFAEFFB121DA7023EF4C06E
:1054D30082C08390034EE0F8A3E08003ECF8EDF97B
:1054E300E87001E96009126122EC7001ED70ED8A48
:1054F300828B83E4F0A3F0E87001E9600688828977
:1055030083800390034E12494B024F7674F7120ABD
:105513005290034E80048A828B831265DF7001EB05
:1055230060227F0080010F12554E50EAEF75F0069E
:10553300A4FCADF0EA2CFCEB3DFD74101255A569FB
:1055430070E480047A007B00023EF41255B2FCEF53
:10555300C39C2274F7120A5278008001081255AED8
:10556300FDE8C39D5025E875F006A4FEAFF0EA2ED2
:10557300FEEB3FFFEE2410F582EF126B3E6970DC09
:10558300EE2411F582EF126B3E4CF0023EF4EF7500
:10559300F006A4FCADF0EA2CFCEB3DFD74111255B2
:1055A300A5222CF582E43DF583E0221255B222EACE
:1055B300240BF582EB3400F583E02274F6120A52D1
:1055C3001215C17A008010EA12652C12564F12652B
:1055D30037F0125808F00A902C2512707740E87AB9
:1055E30000801E8A08750900740378081211AC1232
:1055F3006B2D8882898312564FA3A3A3A3A3A3F081
:105603000A902C3212707740DA7A00801A8A087571
:105613000900740378081211ACE508246EF582E5DD
:105623000934191265E70A12707440E1902C21E4E1
:105633009390035CF012563E024F2E7CE87D037A72
:10564300107B009003CCE0F9121E4922125653221C
:10565300A374FEF0A374FFF0E488828983A3227409
:10566300F0120A5274F512106A8A088B09890A8C9F
:105673000BE9A2E050147508FC7509FFA2E150057F
:10568300D2E402572CD2E302572C1215A38A0C8BB7
:105693000DA80CA90D900371E0687003A3E0697075
:1056A300057900025803AC0A7902AA08AB0912155E
:1056B3009DE960EDE50AF50C780C120FDF79027CA9
:1056C300FE7DFFAA08AB09125E1E121008E96003F3
:1056D300025801E50AC2E5F50A9003BEE0704CE505
:1056E3000AA2E640467403121299AC82AD83AA085B
:1056F300AB091212A3E9702D12590FF8EBF9EA70F6
:1057030001EB6027E82402FEE93400FF0A0AFB12DA
:105713001C7BE96016EEFCEFFD7403121299AA825A
:10572300AB8312248BE50AD2E5F50A900351E0F529
:105733000C900371E0F50EA3E0F50F780E120FDB6A
:105743007D017C00900351E0F9AA0EAB0F121555B1
:105753007402121008E9FA900351E004F0EA6003BE
:10576300025801E50AA2E550047A0E80027A067413
:10577300011212991268968A0E8B0FAE0EAF0FEEBE
:105783007001EF6075125816124CAE1245248882D0
:105793008983F07478550A125808A3A3E50C126B99
:1057A30042E508F0E50988828983A3A3A3A3F0E473
:1057B30088828983A3A3A3A3A3F0E50AA2E55014D7
:1057C3007403121299AC82AD83E82406FAE934001B
:1057D300FB12248B8E828F83A3A374FD1265EBE5EA
:1057E3000B600EC3941E5009EE241312637CE50B69
:1057F300F0EEFAEFFB1213E780067910800279C707
:10580300740B0231B5A312580D22F08001F988827E
:10581300898322EE2417124CB47401F0121711EE8F
:10582300241A124CB4EAF0A3EBF0EE22C082C08338
:105833009011F7E06401901AA37006E0FC790180EF
:1058430004E0FC79037A007B001214C5024F7674DE
:10585300F4120A528A088B09E9FE1217B3E96006AB
:105863007AFF7BFF8078901AA2E06402706379006C
:105873001258E4EA7001EB604212722AFC74016C64
:105883007022900370E08A828B83A3A3A3A3F08A80
:10589300828B83A3A31258FF74FE6A700374FF6B99
:1058A3006010803A74036C601A74046C70047AFE9E
:1058B30080B088828983E0640270089003BDE0644D
:1058C30002700E12590F7001EB6006AA08AB098033
:1058D3000DAA08AB09900352125A1D122709024F51
:1058E30087AA08AB091258EC221215A3EEF9121578
:1058F3009722EA240BF582EB3400F583125909222F
:10590300850E82850F83E0FAA3E0FB22125917125A
:105913001873EA2290037EE0FCA3E0FDAA08AB091A
:105923002274F7120A52EAFEEBFF1212F7E9700A29
:10593300EEFAEFFB121303E96006EEFAEFFB8004C5
:105943007AFE7BFF023EF474F2120A528A088B0934
:105953008C0A8D0BE9FE7F001217B3E9790060030F
:10596300025A13AA08AB091273B57002E5836017D4
:10597300A3A3A3A3A3E0FA74026A704F9003BDE04C
:1059830064027003025A11AA08AB09900358125A11
:105993001D1227091213098A0C8B0DA80CA90DE8F7
:1059A3007001E96069E82405F582E9126B3EA2E023
:1059B300505C750C01A2E1501C7901AC08AD09AA39
:1059C3000AAB0B1214F5E9700F804374036A703E3F
:1059D300750C028003D2E1F0900371E0650A700454
:1059E300A3E0650B700E7C1EEEF9AA08AB09121436
:1059F300C50F801AA90CAC08AD09AA0AAB0B121487
:105A0300F5E9700A0FEEF9AA08AB09121549EFF987
:105A1300024874EEFAEFFB900354125A2122E0F885
:105A2300A3E0F58388822274E8120A5274F01210FC
:105A33006A8A148B158C088D097428121299E0F563
:105A430010A3E0F5119003FEE07002A3E0601212D0
:105A530073BB7002E5836009A3E070057900025C03
:105A63008FE514241DF516E5153400F51785168208
:105A7300125CAEA3E0F50A88828983125DFEFA8880
:105A8300828983A3A3A3A3E0F9EAFEE9FFAA08ABF3
:105A93000912154FE9FA125CB6E02AF50B530A789E
:105AA300E514240BF50EE5153400F50F7808120FF5
:105AB300DB7D00125CA1121008E9FA74036A609C92
:105AC300EA70407418550A7003025BADE50AD2E030
:105AD300F50AA2E45004D2E1F50AE50AF50D780DC2
:105AE300120FDF125C94121008E97017851082857B
:105AF300118374FFF0A3F0850E82850F831258FF84
:105B0300121F2D851082851183E064FF7004A3E0CA
