:020000040000FA
:060000000212120207A526
:03002B0002273079
:03003300020D219A
:0300430002105355
:03004B00020F1091
:030053000206F7AB
:03005B00020F1F72
:03006300020F2B5E
:03006B00020CF094
:03007B00020D0A69
:10008300020741010101010503010F10FEFF0300F7
:100093000300030003000300030003000300030045
:1000A30005000A00140028004F009E000000311BC9
:1000B300311B311B311BE719E119311B432A0000A6
:1000C30000007F29000000000C0000000C00010A62
:1000D300D007D007F804FF0101003D11000000988C
:1000E30011E80364006400B8010202000020000567
:1000F3000207011E02051E020A03B80B02803E011D
:10010300033200020136BF010A01E0020206303168
:100113003233343536373839414243444546002873
:100123006E756C6C20706F696E74657229003F3F49
:100133003F000000803FF9021550B743BA5100E772
:10014300DB2E0000A04010000000080000000A00A1
:100153000000121231604612125E603DE9687008B9
:10016300F618F618F618F622748067F71201890953
:100173000909748067F72212125E601D1212317032
:1001830005191919801A1210AB701F1210C0C37011
:1001930003E66733191919400718181822080808C5
:1001A30074FFF618F618F618F6221210C06017122C
:1001B3001285702192F012128F7019501720F014CB
:1001C300080808090909E7F61819E7F61819E7F600
:1001D3001819E7F62212128F60E6E869701F080803
:1001E300E62480F608E436F618547FB47F0CE65410
:1001F300806007F6E418F618F622181822E9C6CC30
:1002030008C6CD08C6CE08C6CFC0E0E8C0E0EAC045
:10021300E0EBC0E009E9F809E7FA09E7FBE6F918BA
:10022300E6F8C3EC98ED99EE9AEBC2E7F5F0EFC26E
:10023300E795F0500E600CEBCFFBEACEFAE9CDF96F
:10024300E8CCF8EAA2E7D2E7FAEB33FB13F5F0EEDA
:10025300A2E7D2E7FEEF33FFC5F013A2E730E601D2
:10026300B313C5F0C3C0E0C0F07F00C39BFB605B6A
:100273009418600C401AD0E023F9D0E0F802035838
:100283008AF0E9486003D2F0E4AFF0FAF9F8803B72
:10029300EB30E40D89F0EA6003D2F0E4AFF0F9CA81
:1002A300F8EB30E30D88F0EF6002D2F0AFF0E4CA70
:1002B300C9F8EB54076014FBC3EA13FAE913F9E82E
:1002C30013F8EF135002D2E0FFDBEDD0E0C0E030D3
:1002D300E739C3E49FFFF5F0EC98FC42F0ED99FD9C
:1002E30042F0EE9AFE42F0D0E0F9D0E0F8E5F0609B
:1002F3007AE923F9EE20E742D8028067C3EF33FFA0
:10030300EC33FCED33FDEE33FE80EAEC28FCED39F3
:10031300FDEE3AFED0E023F9D0E0F84002801BC3A3
:10032300EE13FEED13FDEC13FCEF135002D2E0FFCE
:1003330008B800067F7F74FF802EEF3350178CF0D0
:1003430020F00260100CBC000C0DBD00080EBE00B6
:100353000408E860DFE933E813FFEE2313FE4F4D93
:100363004C8008E95480FFE4FEFDFCEE33EF33F4E8
:100373007004FCFD7E80D0E0FBD0E0FAD0E0F8D042
:10038300E0CFC618CEC618CDC618CCC6F9221212B5
:100393005E700418181822121231700D74FFF618CB
:1003A30019F61819F61819F622E7548066F6121290
:1003B3008F700F12128570F014F608F608F608F61F
:1003C30080D1121285700CF608F608768008E64490
:1003D3007F80EC1210C3700C1210AE60BFE6548025
:1003E300F6E480BB1210AE700519191980A5E869EF
:1003F300700C763F18768018F618F6E8F922E6CDE9
:10040300C0E018ECC0E0E633CD33CDD313F6E719E3
:10041300FCE7191933CC33C3947F400ECD9D502490
:1004230008E65480F6E418F6800FF4043D145014E3
:1004330008E6447FF6187680E418F618F6D0E0FC58
:10044300D0E0FD22CCD313CCFD18E4C6CBC0E0181A
:10045300E4C6CAC0E00808ED08C633E613F618E49C
:1004630033C675F003C3CA97CA09CB97CB199C400F
:10047300047D08802EBD000302053A16B6FF05066B
:1004830006081618C3CA33CACB33CB33CA27CA09E3
:10049300CB37CB193CC37D08803E187D0820E75C31
:1004A300C633C6CA33CACB33CB33DDF1D5F0EB3019
:1004B300E77BCA97CA09CB974ACB199C406F4B700D
:1004C30025E620E0218066187D08C3CA97CA09CBB8
:1004D30097CB199CD3C633C6CA33CACB33CB33505D
:1004E300C9DDE7D5F0E1D3E4C636C608C636C6088B
:1004F300C636C608C636C61818188031C3CA97CA86
:1005030009CB97CB199CB34097C633C6CA33CACB22
:1005130033CB33DD34D5F02EC6A2E0C640C8CA279C
:10052300CA09CB37194A70BECB3CB480B90808E678
:100533003308E633601F181818D0E0FAD0E0FBD078
:10054300E0FCD0E0FD22187D08CA27CA09CB37CBCF
:10055300193CD3808013F618E4B67F11F618B6FF62
:100563000EF618C60470D20808768080CAF618F60C
:1005730018F680C50012125E604F1212316012E746
:10058300548066F61210AB7011121285703B090984
:1005930009F4F618F618F618F6221210C0701512A0
:1005A300128F08080860EAE6447FF618768018E49C
:1005B300F618F62212128F60161212857012E4F6E4
:1005C30008F608F608E65480F609090918181822EF
:1005D300EAC0E0EBC0E0ECC0E0EDC0E0E687F0A4E9
:1005E300FBACF008E687F0A42CFCE435F0FA18091C
:1005F300E687F0A42C4B60027401CA35F0FCE433A7
:10060300FB09E687F0D2F7A42CCB35F0FC1908E6FA
:1006130087F0A42BCC35F0FBE433FD0819E687F013
:10062300D2E7A42C4ACB35F0CD3400FC09E687F0A1
:10063300D2E7A42DCC35F0FDE433FA0918E687F0B0
:10064300D2F7A42CCD35F0CA3400FC08E687F0D2EB
:10065300E7D2F7A42ACC35F07A7E20E70B0ACB3316
:10066300CBCD33CDCC33CC33CB3350147004ED30FE
:10067300E00ED2F1E4CD3DCDCC3CCC3B5005DA05C8
:10068300C2F1EB547FC63308E63392F0FBE733093C
:10069300E733C39A502D2B70190C0D4C4D70151860
:1006A30006E608C333700D20F10AA2F013F6E4182E
:1006B300800B4024E4F630F002768018F618F61822
:1006C300F68024D33B14501074FFA2F013F618766F
:1006D30080E418F618F6800FA2F013F618E6330339
:1006E300F618ECF618EDF6D0E0FDD0E0FCD0E0FB18
:1006F300D0E0FA22C0E074F2120AB8E5A7FAE5A145
:10070300FBEA5B5410600812224B53A1EF802AEAE4
:10071300A2E0C0D0EBA2E092F0121160158182F04A
:100723005017906198E0FA9014A2E0C39AA2D265A0
:10073300D0335002EAF053A1FE7F01020B6FC0E0F9
:1007430074F2120AB89061A4E0FA759B00E5915A1D
:10075300540860087591F712228D802AE5915A5446
:100763001060087591EF122293801BEAA2E0C0D0BB
:10077300E591A2E092F0121160158182F05007E03A
:10078300C2E0F01223B39061A3E0FAE5E95A5404FE
:10079300600E12238975E9FB906193E0A2E640F2B3
:1007A3008097C0E074F2120AB89061A5E0FAE5BF41
:1007B3005A5404600653BFFB1223CB02073CC3E425
:1007C30098F8E499F91208028026C3E49AFAE49BA4
:1007D300FBE920E7E9120802E498F8E499F922C357
:1007E300E498F8E499F9120802E498F8E499F9C353
:1007F300E49AFAE49BFB22EB20E7CFE920E7E0B998
:100803000010BB0008E88AF084F8AAF022E4FBC8D1
:10081300FA22EB70227B10C833C8C933C93350079F
:10082300C39AC3DBF280069A50012ADBEAC833F489
:10083300C8C933F4C9FA2275F008E4C833C8C93308
:10084300C933C99AC99B5004C92AC93BD5F0ECFBEB
:10085300C833F4C8E4C9FA2212089B20F01430E725
:100863002B74FFFCFBFA747F8022E4FCFBFA748098
:10087300801AB48008BC00F2BB00EF800F50EBF984
:10088300E4C39AFAE49BFBE49CFCE499C6CC18C647
:10089300CB18C6CA18C6F922E4C9C608CAC608CB0B
:1008A300C6D3330308CCC63392F0C3947F402E944F
:1008B300184019C9B90704CACBCC225025C309CAA9
:1008C30033CACB33CBCC33CC33D9F422F4600DC948
:1008D300CCC313CB13CBCA13CAD9F6CC22E4FCFB8B
:1008E300FA2214FCFBFA22080808EAC0E0EBC0E095
:1008F30086F0E7A4FA180986F0E7A42AFA1809860D
:10090300F0E7A42AFA180986F0E7A42AFA1986F070
:10091300E7A4FBE5F02AFA190886F0E7A42BFBE528
:10092300F03AFA190886F0E7A42BFBE5F03AFA1837
:10093300180986F0E7A4C5F02BFBE43AFA1908E797
:10094300C5F0C6A426F6E5F03BFBE43AFA1886F0B8
:10095300E7A4F6E5F00826F6E43B08F6E43A08F6E1
:10096300D0E0FBD0E0FA22080808E630E7111211C4
:1009730013120982080808C64480C61818182218DA
:100983001818E9799EC608CAC608CBC608CCC6C3E0
:1009930070207996CACBCC7019798ECBCC70137931
:1009A30086CC700EF9802ACA33CACB33CBCC33CC76
:1009B300331930E7F2CCCBCA3350147004EA30E079
:1009C3000DE4CA3ACACB3BCBCC3CCC500209C3E9B9
:1009D30013C6CC182313C6CB18C6CA18C6F922E40B
:1009E300CFC0E0E4CEC0E0E4CDC0E0E4CCC0E0752D
:1009F300F020C3E633F608E633F608E633F608E6F6
:100A030033F6181818EC33FCED33FDEE33FEEF33F9
:100A1300FFC3EC9709ED9709EE9709EF9719191999
:100A2300400FFFEC97FC09ED97FD09EE97FE1919AE
:100A330006D5F0BEECF709EDF709EEF709EFF71964
:100A43001919D0E0FCD0E0FDD0E0FED0E0FF222574
:100A530018C582C0E0E51934FFC583C0E0E518C3BB
:100A6300958224F8F8E4C5A8858319858218C5A85A
:100A7300E8CEF0A3E520F0A37808E608F0A3DEFAB9
:100A8300EFF0A3E58124FAF8E608F0A3E608F0A363
:100A9300E608F0A30808E608F0A3E608F0A315812A
:100AA3001581D0E0FED0E0F8158115811581E8C0ED
:100AB300E0EEC0E022C0D02518C582C0E0E51934BD
:100AC300FFC583C0E0E518C3958224F310AF088502
:100AD30083198582188008858319858218D2AFC847
:100AE300F0A3E9F0A3EAF0A3EBF0A37908E709F098
:100AF300A3D8FAECF0A3EDF0A3EEF0A3EFF0A3D0AC
:100B0300E0F0A3D0E0F0A3D0E0F0A3E520F0A3E56C
:100B1300F0F0A32212127AB90003020B59E49003F6
:100B230001782E79188002F0A3D8FCD9FA901A2EF6
:100B3300AA82AB8390008678D079018015E493A3D1
:100B4300AC82AD838A828B83F0A3AA82AB838C822F
:100B53008D83D8E9D9E77582867583DC7403120C1B
:100B6300A675822B7583277400120CA685198385BD
:100B73001882E0C0E0A3E0F9A3E0FAA3E0FBA378C6
:100B830008E0F608A3DFFAE0FCA3E0FDA3E0FEA380
:100B9300E0FFA3E0C0E0A3E0C0E0A3E0F5D0A3E062
:100BA300F520A3E0A3F5F0E4C5A885831985821891
:100BB300C5A8D082D083D0E0F8D0E03212125E60B4
:100BC3001C121231601712128F70071212857001F6
:100BD300D322C0D01212857006D0D0B322C32233E1
:100BE300D0D0501430E0F6C3E7960809E796080919
:100BF300E7960809E796B32220E0D5E6970809E6C9
:100C0300970809E6970809E697B32212125E601B5C
:100C1300121231601612128F7007121285600CB314
:100C230022C0D01212857005D0D022C32233D0D077
:100C3300501330E0EBC3E7960809E7960809E796F7
:100C43000809E7962220E0E4E6970809E6970809F1
:100C5300E6970809E69722D083D082ECC0E0EDC086
:100C6300E0E493A3FCE493A3FDED4C600D120D7E31
:100C7300EC24FFFCED34FFFD80EFE493A3FCE4934D
:100C8300A3FDED4C600D120EBBEC24FFFCED34FF15
:100C9300FD80EFD0E0FDD0E0FCE493A3C0E0E4935B
:100CA300C0E022C0F0F5F0E59F5407C0E0E59F5493
:100CB300F845F0D0F0F59FE473859FF053F0F8D03A
:100CC300E045F0F59F22D083D082E59F5407C0E032
:100CD300E493C0E0740193C0E07402935407C0F03E
:100CE300F5F0E59F54F845F0D0F0F59F22C0E0748D
:100CF300F2120AB8E589A2E1500312213175890085
:100D0300C2C57F01020B6FC0E074F2120AB8E58A14
:100D1300A2E25003122131758A00C2EB80E4C0E0E5
:100D230074F2120AB8E58BA2E05003122131758BDD
:100D330000C2E880CDD083D082E9C0E0E493A3C3AE
:100D430086F0C5F095F0F908E493A386F0C5F09515
:100D5300F0700BE493A3C3994005E9048002A3E474
:100D630075F002A42582F582E5F03583F583D0E0A2
:100D7300F9E493A3C0E0E493C0E022C0E0C3E493AA
:100D830096087401939618400FE4936670080874EC
:100D93000193661870007019A3A3C3E493960874B3
:100DA30001939618A3A3400DD0E0D0E0D0E0020C4D
:100DB30096A3A3A3A3A3A3D0E022851983851882B6
:100DC300E0A3FEE0A3F5207808E0A3F608DFFAE04D
:100DD300A3FFE0A3C0E0E0A3C0E0E0A3C0E0E0A382
:100DE300C0E0E0A3C0E0E4C5A8858218858319C5E7
:100DF300A8D083D082020CBCD083D082C5F0E49308
:100E0300A3C5F0C395F0F5F0E493A3C395F04005B3
:100E1300E5F0048001E475F002A42582F582E5F093
:100E23003583F583E493A3C0E0E493C0E022740424
:100E3300800474028000CCC0E0EDC0E0E518C39CE0
:100E4300CCAD1950011D10AF068C188D1980068C7E
:100E5300188D19D2AF120F59D0E0FDD0E0FC2274E7
:100E6300028000CCC0E0EDC0E0E518C39CCCAD1916
:100E730050011D10AF068C188D1980068C188D1922
:100E8300D2AF120F37D0E0FDD0E0FC2212125E6029
:100E930025121231602012128F7003021285080886
:100EA30008E76670101819E766700A1819E7667084
:100EB300041819E76622F422C0E0C0F088F0E49336
:100EC3006670080874019366187000A8F0A3A370F5
:100ED3000BD0F0D0E0D0E0D0E0020C96A3A3D0F08A
:100EE300D0E022D083D082CCC0E0E493A36006128A
:100EF3000F7A1470FAE493A360061210801470FA48
:100F0300D0E0FCE493A3C0E0E493C0E022C0E0742B
:100F1300F2120AB812218B7F01020B6FC0E074F248
:100F2300120AB812219180EFC0E074F2120AB812CB
:100F3300219780E3CAC0E0E493A3C582CCC582C5F0
:100F430083CDC583F0A3C582CCC582C583CDC583BC
:100F5300DAE5D0E0CA22CAC0E0E0A3C582CCC582EC
:100F6300C583CDC583F0A3C582CCC582C583CDC55A
:100F730083DAE6D0E0CA22C0E0E493A3D39C501006
:100F8300E493A3C39C400AD0E0D0E0D0E0020F0377
:100F9300A3A3A3D0E022700908080822601618183A
:100FA30018C6C333C608C633C608C633C608C63315
:100FB300C6D5E0EA222518F58210AF08F5184002DD
:100FC30015198008F51840021519D2AF8519832227
:100FD3007404800A74038006740280027401C0E002
:100FE300F404120FB8D0E012126D22BB0102E72203
:100FF300C082C08389828A83BB0003E08002E493BA
:10100300D083D08222C0D0251810AF08F518500223
:1010130005198008F51850020519D2AFD0D0226007
:1010230016080808C6C313C618C613C618C613C6BF
:1010330018C613C6D5E0EA22C3E0C696F608A3E0B5
:10104300C696F608A3E0C696F608A3E0C696F6226F
:10105300C0E074F2120AB8C2C0E5D1A2E450031290
:1010630021C17F01020B6F251810AF08F51840024C
:1010730015198008F51840021519D2AF22C0E0E413
:1010830093A36C7009D0E0D0E0D0E0020F03A3A3D8
:10109300D0E022C3E7960809E7960809E79608090E
:1010A300E796A2D265D03322181818E608460870CE
:1010B3000AE608C3337005E633F422082219191926
:1010C300E7094709700AE709C3337005E733F422D8
:1010D3000922C3E09608A3E09608A3E09608A3E0DC
:1010E30096A2D265D03322E066701008A3E0667042
:1010F3000A08A3E066700408A3E06622C3E096F042
:1011030008A3E096F008A3E096F008A3E096F02287
:10111300181818E4C396F608E496F608E496F60859
:10112300E496F622E026F608A3E036F608A3E036B6
:10113300F608A3E036F622E026F008A3E036F0082E
:10114300A3E036F008A3E036F022E627F60809E626
:1011530037F60809E637F60809E637F622C0E0E86D
:10116300C0E0E58124FCF8E6A2E7D0E0F8D0E02275
:10117300E657F60809E657F60809E657F60809E6BA
:1011830057F622E056F608A3E056F608A3E056F613
:1011930008A3E056F622E056F008A3E056F008A3B1
:1011A300E056F008A3E056F022700422600D18C642
:1011B300C333C608C633C6D5E0F41822E647F6089B
:1011C30009E647F60809E647F60809E647F6226006
:1011D3000D08C6A2E713C618C613C6D5E0F322C688
:1011E300F4C608C6F4C608C6F4C608C6F4C622C3C5
:1011F300E7960809E7960809E7960809E79622C3E0
:10120300E09608A3E09608A3E09608A3E09622756B
:10121300D00075814075180175190300020B176022
:101223000C08C6C313C618C613C6D5E0F422E709D3
:101233004709C3134709336002E733F422E6F00892
:10124300A3E6F008A3E6F008A3E6F022E0F608A37D
:10125300E0F608A3E0F608A3E0F622E6084608C392
:10126300134608336002E633F422CAC0E0E6F0A373
:1012730008DAFAD0E0FA2274F855C74401F5C779C1
:101283000122E7C33319471947194722E6C3331825
:101293004618461846222518F582E43519F58322A7
:1012A300120CC94C3000120CC9873000120CC9C78C
:1012B3003000120CC9E83000120CC9353100120C91
:1012C300C90F3200120CC9C03200120CC9503300CE
:1012D300120CC9403400120CC9833400120CC9A883
:1012E3003400120CC9FE3400120CC9233500120C51
:1012F300C9483600120CC9BC3600120CC9DF3600CF
:10130300120CC9023700120CC92A3700120CC93C4F
:101313003700120CC9463700120CC9CA3700120C29
:10132300C9393800120CC9E23800120CC9EA380076
:10133300120CC9543900120CC9963900120CC9A6F3
:101343003900120CC98E3A00120CC9193B00120C59
:10135300C9793B00120CC9453C00120CC9BC3C00C6
:10136300120CC9F93C00120CC9583D00120CC9A556
:101373003E00120CC9C13E00120CC9233F00120CDF
:10138300C9C03F00120CC9074000120CC9A240009B
:10139300120CC94F4100120CC98D4100120CC9FD3A
:1013A3004100120CC9484200120CC9814200120CC0
:1013B300C9B14300120CC9044500120CC9654500AC
:1013C300120CC9AE4500120CC9D64500120CC959FE
:1013D3004600120CC9D94600120CC9534700120C1F
:1013E300C9784700120CC9894700120CC9FF47008E
:1013F300120CC9A34800120CC9E54800120CC97BA2
:101403004900120CC9A24900120CC9CA4A00120CA5
:10141300C9DD4A00120CC9364B00120CC9774B00C8
:10142300120CC9F04C00120CC9864E00120CC9AC48
:101433004E00120CC95D4F00120CC9B64F00120CBE
:10144300C9A25000120CC9A55200120CC9AF520018
:10145300120CC9B95200120CC9C35200120CC9CDE7
:101463005200120CC9E75200120CC9F15200120CBF
:10147300C9FB5200120CC9055300120CC9265300B4
:10148300120CC9745300120CC97E5300120CC9A26A
:101493005300120CC9C65300120CC9235400120C7A
:1014A300C96E5400120CC98C5400120CC9FC5400B0
:1014B300120CC9395500120CC9805500120CC9E829
:1014C3005500120CC98C5600120CC9595800120C45
:1014D300C97C5800120CC94E5900120CC97459002A
:1014E300120CC9545A00120CC9EC5C00120CC94E00
:1014F3005E00120CC9156000120CC9676000120C63
:10150300C9606100120CC9AD6100120CC9186200F8
:10151300120CC9226200120CC9DE6300120CC90D41
:101523006500120CC96D6500120CC9236600120C0C
:10153300C90B6700120CC9C86800120CC9E7680020
:10154300120CC9436900120CC91B6A00120CC94072
:101553006A00120CC9916A00120CC9736B00120C59
:10156300C9AB6B00120CC9EB6B00120CC94E6C00BB
:10157300120CC96A6D00120CC9CA6D00120CC9B0F5
:101583006E00120CC9B87000120CC9D47000120C92
:10159300C9797200120CC9BF7200120CC99D730085
:1015A300120CC9F77300120CC93F7400120CC9AFB7
:1015B3007400120CC93D7500120CC9C17500120CE0
:1015C300C92D7600120CC9BA8001120CC90C810115
:1015D300120CC9468301120CC9928301120CC9640F
:1015E3008401120CC9DB8401120CC91E8601120C82
:1015F300C96B8801120CC9928901120CC9F99101B6
:10160300120CC9769201120CC9F69401120CC9E2AC
:101613009501120CC9879601120CC9A49701120CEB
:10162300C9D59801120CC9C89901120CC9DF9C01D4
:10163300120CC9E19E01120CC9419F01120CC9F79A
:101643009F01120CC9A8A001120CC9D3A001120C4E
:10165300C974A101120CC958A201120CC933A30108
:10166300120CC9D1A301120CC9FEA301120CC9208B
:10167300A401120CC913A601120CC9F3A601120C82
:10168300C940A701120CC9A1A701120CC963A80183
:10169300120CC998A801120CC9E6A801120CC916AC
:1016A300A901120CC954A901120CC9ACA901120C4D
:1016B300C9B1A901120CC90CAA01120CC934AA019F
:1016C300120CC953AB01120CC9BFAB01120CC929CF
:1016D300AC01120CC9B5AC01120CC9CCAF01120C90
:1016E300C998B001120CC908B201120CC95CB4014B
:1016F300120CC904B501120CC9B9B501120CC947C2
:10170300B701120CC9E4B701120CC92CB801120CB1
:10171300C9C8B901120CC9DCB901120CC9E9B90174
:10172300120CC904BA01120CC910BA01120CC92E49
:10173300BA01120CC9E5BB01120CC91EBC01120C83
:10174300C92BBC01120CC934BC01120CC993BC01D6
:10175300120CC9E9BC01120CC9F4BD01120CC95029
:10176300BE01120CC943BF01120CC987BF01120C81
:10177300C90AC001120CC90BC101120CC9C9C101AC
:10178300120CC968C301120CC93DC401120CC9DE95
:10179300C401120CC96EC501120CC985C501120C16
:1017A300C9BEC501120CC9C8C501120CC9D4C501F3
:1017B300120CC9F2C501120CC936C601120CC98735
:1017C300C601120CC9A8C601120CC9C2C601120C6B
:1017D300C93AC701120CC97BC801120CC9C5C8019B
:1017E300120CC9B8C901120CC9D4C901120CC937EA
:1017F300CA01120CC98CCA01120CC94ACB01120CC2
:10180300C959CC01120CC905CD01120CC9DCCD019B
:10181300120CC948CE01120CC9DCCE01120CC9ACA2
:10182300CF01120CC9DBCF01120CC93AD001120C43
:10183300C9E8D001120CC90ED101120CC986D1011D
:10184300120CC9ABD101120CC9CED101120CC909BA
:10185300D201120CC9E7D301120CC9CAD401120C6C
:10186300C982D501120CC917D701120CC96BD70154
:10187300120CC9AED701120CC91DD801120CC991A3
:10188300D801120CC9EAD801120CC910D901120CE3
:10189300C94BD901120CC977D901120CC9C2D9019C
:1018A300120CC91BDA01120CC997DA01120CC975A3
:1018B300DB01120CC907DD01120CC974DD01120C26
:1018C300C99DDD01120CC903DE01120CC95ADE01E8
:1018D300120CC993DE01120CC9E8DE01120CC90D0A
:1018E300DF01120CC953DF01120CC970DF01120CA6
:1018F300C91AE001120CC97BF803120CC9C6F8031C
:10190300120CC96C8002120CC9A08002120CC97699
:101913008102120CC94A8202120CC9758302120C8D
:10192300C9F98402120CC9778502120CC93E8602DA
:10193300120CC95F8702120CC9D18702120CC9337A
:101943008802120CC9818802120CC98B8802120CFE
:10195300C9C98802120CC9328902120CC9D1890281
:10196300120CC94F8A02120CC9048B02120CC976DD
:101973008B02120CC99C8B02120CC9CC8B02120C69
:10198300C9F98B02120CC99F8C02120CC9AF8C02CD
:10199300120CC9028D02120CC90E8D02120CC91A47
:1019A3008D02120CC9238D02120CC9848D02120CF4
:1019B300C9E48D02120CC9358E02120CC9508E0275
:1019C300120CC9808E02120CC9A18E02120CC9AD71
:1019D3008E02120CC9EE8F02120CC90C9002120C6B
:1019E300C9759002120CC9889002120CC99F90020B
:1019F300120CC9329102120CC9319202120CC92D78
:101A03009302120CC9AF9302120CC9B99302120CC0
:101A1300C91C9402120CC92D9402120CC9709402B1
:101A2300120CC9B79402120CC9ED9402120CC9230B
:101A33009502120CC9419502120CC9659502120C4C
:101A4300C9A69502120CC9999602120CC9DF960217
:101A5300120CC91A9702120CC9799702120CC9A168
:101A63009702120CC9DA9702120CC9E89702120CFA
:101A7300C9499802120CC9869802120CC9C8980267
:101A8300120CC9F99802120CC92D9902120CC9380B
:101A93009902120CC9569902120CC91E9A02120C11
:101AA300C9289A02120CC9679A02120CC97D9A02BC
:101AB300120CC9E79A02120CC9FB9A02120CC9F361
:101AC3009B02120CC9069C02120CC91B9C02120C2D
:101AD300C9BB9C02120CC91F9D02120CC9E29D02D4
:101AE300120CC9ED9D02120CC90C9F02120CC928DD
:101AF3009F02120CC9809F02120CC9B79F02120CDD
:101B0300C9D19F02120CC945A002120CC9D6A0026A
:101B1300120CC91EA102120CC939A302120CC9A3CB
:101B2300A302120CC90EA402120CC967A602120C5E
:101B3300C977A602120CC97AA602120CC986A6029C
:101B4300120CC99AA602120CC9A2A602120CC9D77A
:101B5300A602120CC985A702120CC9F5A702120C22
:101B6300C959A802120CC9F2A802120CC98CA90205
:101B7300120CC9BAA902120CC94AAA02120CC956FC
:101B8300AA02120CC985AA02120CC9A7AA02120C36
:101B9300C9CEAA02120CC934AB02120CC99EAC0204
:101BA300120CC9A1AC02120CC918AD02120CC90463
:101BB300AE02120CC9DCAE02120CC966AF02120CE3
:101BC300C99BB002120CC94DB102120CC986B102F5
:101BD300120CC9B7B102120CC9C0B102120CC9ACC4
:101BE300B202120CC928B302120CC9B8B302120C08
:101BF300C982B402120CC906B502120CC93CB50263
:101C0300120CC985B502120CC9009F03120CC9122C
:101C13009F03120CC9859F03120CC9E42C00120CFC
:101C2300C912A003120CC9CAA103120CC9AEA303A3
:101C3300120CC9A1A603120CC9CFA603120CC9F337
:101C4300A603120CC962A703120CC996A703120CB0
:101C5300C9D3A703120CC90FA803120CC950A803B8
:101C6300120CC9A7F403120CC994C603120CC95D64
:101C7300C703120CC960C703120CC9B2C703120C05
:101C8300C9FFC703120CC935C803120CC928300099
:101C9300120CC93BC803120CC959C803120CC90E54
:101CA300C903120CC990FE02120CC9ABFE02120C3E
:101CB300C9F6FE02120CC940FF02120CC9E3FF026F
:101CC300120CC931E803120CC977E903120CC921BC
:101CD300F803120CC9D0E903120CC9E9E903120C89
:101CE300C929EA03120CC9D8EA03120CC907EB038A
:101CF300120CC9C8D403120CC943D503120CC94E24
:101D0300D503120CC973D503120CC9C6B003120C48
:101D1300C90CB103120CC97CB103120CC9A4B103E1
:101D2300120CC966B203120CC96FB203120CC9C5F7
:101D3300B203120CC9F0B203120CC94FB303120C55
:101D4300C9EEB303120CC92AB403120CC984B40339
:101D5300120CC9DBB403120CC909B503120CC988F0
:101D6300B503120CC9D5B503120CC914B603120C72
:101D7300C948B603120CC95AB603120CC96CB60390
:101D8300120CC98BB603120CC94AB703120CC9F55E
:101D93007E00120CC9DEE003120CC942E103120CEF
:101DA300C966E103120CC96CE203120CC9E5D8023F
:101DB300120CC9CDD902120CC909DA02120CC9BA24
:101DC300DB02120CC9FCDB02120CC9B0DD02120CDF
:101DD300C9F7DD02120CC9D4DE02120CC95FDF029F
:101DE300120CC9F6DF02120CC94AE002120CC98AAE
:101DF300E002120CC947E202120CC9B5E302120C4D
:101E0300C9C7E502120CC9D5E502120CC939E602AD
:101E1300120CC98DE602120CC982E902120CC9CC5C
:101E2300F903120CC9E2F903120CC9F9C203120C2B
:101E3300C911C303120CC9B9C303120CC9FAC303F2
:101E4300120CC917C403120CC93AC403120CC9817A
:101E5300C403120CC9BAC403120CC9EEC403120C96
:101E6300C97CC603120CC9B4F203120CC921F303D3
:101E7300120CC93EF303120CC983F303120CC98F6E
:101E8300F303120CC999F303120CC918F903120CCA
:101E9300C9008003120CC94C8003120CC95481037E
:101EA300120CC9FA8103120CC90F8203120CC9590F
:101EB3008203120CC9AA8203120CC9BD8203120C3D
:101EC300C9008303120CC9148303120CC9F98403D8
:101ED300120CC90F8603120CC94A8603120CC94A95
:101EE3008803120CC9628803120CC9AC8803120C54
:101EF300C9E08803120CC9398903120CC95289033A
:101F0300120CC96F8903120CC9D38903120CC97E41
:101F13008B03120CC9A08B03120CC9D58B03120CB3
:101F2300C9008C03120CC9108C03120CC91C8C033E
:101F3300120CC91F8C03120CC9898C03120CC940E3
:101F43008D03120CC9748D03120CC97E8D03120C00
:101F5300C99B8D03120CC9FD8D03120CC91A8E0384
:101F6300120CC9828E03120CC9BD8E03120CC9CC8C
:101F73008E03120CC9D68E03120CC9B3F303120CD1
:101F8300C9C4F303120CC955F403120CC954E0017C
:101F9300120CC982E001120CC9F1E101120CC97FD4
:101FA300E201120CC9FBE201120CC95EE301120C3F
:101FB300C9A0E301120CC917E401120CC9C2E40160
:101FC300120CC944E501120CC980E501120CC93C8D
:101FD300E901120CC909EB01120CC9D3EB01120C74
:101FE300C9F7EB01120CC9E2ED01120CC954F0015F
:101FF300120CC9E1F001120CC9F2F101120CC9591A
:10200300F501120CC969F501120CC9D3F601120CC2
:10201300C94EF701120CC968F801120CC9E8F9019D
:10202300120CC9258F03120CC9E48F03120CC95873
:102033009003120CC9DC9003120CC9339103120CE8
:10204300C9329203120CC98F9203120CC9A49503CF
:10205300120CC9369603120CC99B9603120CC93A8B
:102063009803120CC9F59803120CC9619903120C59
:10207300C9F59A03120CC9929B03120CC9929C03D3
:10208300120CC9C0F603120CC9C2F603120CC9D54F
:10209300F603120CC9E3E203120CC930E303120C7A
:1020A300C9DFE303120CC945E403120CC9F9DC03CD
:1020B300120CC952DD03120CC9B7EC03120CC9F19F
:1020C300EC03120CC9B5ED03120CC9C3E403120CE3
:1020D300C9D1E403120CC9EBFF01120CC95FF5036C
:1020E300120CC96FF503120CC98DF503120CC9F557
:1020F300F503120CC969F003120CC990F003120C1A
:10210300C919F103120CC980F103120CC9DD9E0336
:10211300120CC984E603120CC9ACE603120CC92BDA
:10212300E703120CC955E703120CC998E703120C15
:10213300C9F1E703120CC999F103120CC9AEF103FB
:10214300120CC9D7F103120CC94DF203120CC96961
:10215300F203120CC97EF203120CC98EF203120CA5
:10216300C958D103120CC966D103120CC9E6D103B5
:10217300120CC9ADD203120CC963D403120CC95992
:10218300EB03120CC994EB03120CC9B8EB03120C4A
:10219300C916EC03120CC978EC03120CC98AFA01B4
:1021A300120CC909FB01120CC9B9FB01120CC92A93
:1021B300FC01120CC92BFD01120CC9D5FE01120C36
:1021C300C934FF01120CC98EFF01120CC997FF011C
:1021D300120CC9A6FF01120CC9B9FF01120CC9CF19
:1021E300FF01120CC9D8FF01120CC9CDF902120C60
:1021F300C91EFA02120CC932FC02120CC96AFC0293
:10220300120CC98FFC02120CC9A8FC02120CC9C122
:10221300FC02120CC9C2FD02120CC951FE02120CBF
:10222300C9C3DE03120CC906DF03120CC917DF038F
:10223300120CC94ADF03120CC980DF03120CC9B6A2
:10224300DF03120CC92FE003120CC96CE003120C5C
:10225300C982D703120CC9AAD703120CC9E7D70343
:10226300120CC9F9D703120CC915D803120CC97D76
:10227300D803120CC986D803120CC9E7D803120C71
:10228300C90BD903120CC9D2D903120CC9DFD90364
:10229300120CC9F0D903120CC9B5F703120CC90209
:1022A300F803120CC934CA03120CC98FCB03120CE6
:1022B300C99CCB03120CC9B2CB03120CC9CFCB03FD
:1022C300120CC9E6CB03120CC9FBCB03120CC97F5A
:1022D300CC03120CC95ECD03120CC9A7CD03120C9B
:1022E300C9B7CD03120CC9FFF503120CC924F603B9
:1022F300120CC94DF603120CC975F603120CC91E54
:10230300DA03120CC937DA03120CC943DA03120CCD
:10231300C957DA03120CC97BDA03120CC987DA0333
:10232300120CC996DA03120CC9A9DA03120CC9FC00
:10233300DA03120CC936DB03120CC966DB03120C79
:10234300C9B5DB03120CC903DC03120CC91BDC0384
:10235300120CC925DC03120CC936DC03120CC97B31
:10236300DC03120CC9D0F803120CC98EA803120C9B
:10237300C9BAA803120CC9D6A803120CC9E9A80349
:10238300120CC9FFA803120CC969A903120CC99C3A
:10239300A903120CC901AD03120CC92AAE03120C16
:1023A300C95AAE03120CC9C3AE03120CC9A7AF03BB
:1023B300120CC9CFAF03120CC9E4AF03120CC9F45A
:1023C300AF03120CC935B003120CC98AB003120C47
:1023D300C99AB003120CC932EF03120CC94DEF03B3
:1023E300120CC976EF03120CC990EF03120CC9B596
:1023F300EF03120CC9D4EF03120CC9EDEF03120C57
:10240300C91CF003120CC937F003120CC95DF903A0
:10241300120CC9C6CD03120CC9CDCD03120CC9DAF7
:10242300CE03120CC90CCF03120CC932CF03120C0A
:10243300C965CF03120CC977CF03120CC9B2CF03FE
:10244300120CC922D003120CC95FD003120CC9AC01
:10245300D003120CC9DAD003120CC9FAD003120C40
:10246300C9FAED03120CC91CEE03120CC92FEF03BA
:10247300120CC9DA9D03120CC9389E03120CC977DA
:102483009E03120CC9B89E03120CC97F7600120C6E
:10249300C9897600120CC9C77600120CC9B8780036
:1024A300120CC9217900120CC9077A00120CC94910
:1024B3007A00120CC97A7A00120CC9027B00120C42
:1024C300C9E87C00120CC9D57D00120CC9707E00CE
:1024D300120CC9AF7E00120CC973B703120CC9A149
:1024E300B703120CC9E5B703120CC946B803120CA3
:1024F300C990B803120CC9B8B803120CC940B90388
:10250300120CC974BA03120CC980BB03120CC99F05
:10251300BB03120CC9E8BB03120CC904BC03120CA5
:10252300C935BC03120CC94CBC03120CC959BC03FA
:10253300120CC976BC03120CC963BD03120CC99AF1
:10254300BD03120CC9A4BD03120CC9B1BE03120C06
:10255300C9BCBE03120CC9CEBE03120CC9D7BE033D
:10256300120CC9E1BE03120CC94ABF03120CC9DD28
:10257300C203120CC99DF903120CC9ECF903120C26
:10258300C928F703120CC951F703120CC9CBE9028E
:10259300120CC9A3EE02120CC9D22C00120CC9B042
:1025A3002C00120CC9912C00120CC95E2C00120CC9
:1025B300C9B3D802120CC995D802120CC9BCD702F0
:1025C300120CC920D702120CC90D3000120CC9D24B
:1025D3002F00120CC9B4D502120CC95CD302120C21
:1025E300C9882F00120CC96B2F00120CC98ED2029E
:1025F300120CC9C3D102120CC98ED102120CC95BD1
:10260300D102120CC93CD102120CC9DCD002120C4B
:10261300C98ED002120CC9D2CF02120CC99ACC02B5
:10262300120CC972CC02120CC917CC02120CC9F4D9
:10263300CB02120CC92FCB02120CC9D7CA02120C3F
:10264300C941C902120CC93EC902120CC93FC802D2
:10265300120CC91FC802120CC96FC702120CC9F1B0
:10266300C502120CC9B8C502120CC92C2F00120CDA
:10267300C9E02E00120CC90E2E00120CC989C50226
:10268300120CC986C502120CC978C502120CC964A2
:10269300C502120CC9742D00120CC951C502120CCB
:1026A300C95BC402120CC9EBC302120CC9B1C30249
:1026B300120CC938C803120CC9032D00120CC959D6
:1026C300C302120CC928C302120CC940C002120C67
:1026D300C9FEBF02120CC9F2BF02120CC965BF02C8
:1026E300120CC9B3BE02120CC952BC02120CC9BCF3
:1026F300B902120CC986B902120CC91DB802120C18
:10270300C9C9B702120CC90DB702120CC9E0B6024F
:10271300120CC932B602120CC905B602120CC9CB8F
:10272300B502120CC9BB9F0300000080FBC2C73275
:10273300E47387000100B21A240002008C1A2500FA
:1027430002008E1A26000200901A27000200921A35
:1027530028000100941A29000100951A840004003E
:10276300961A860001009A1A2A0001009B1A2B0070
:1027730001009C1A2C0001009E1A2D000800ED1187
:102783002E0001009F1A2F000100A01A3000010043
:10279300A11A31000100A21A32000100F511330021
:1027A3000100F61134000100A31A36000100F711ED
:1027B30083000200B01A62001000001263000100DF
:1027C300101264000100EA11650001009D1A6D00FA
:1027D3000100AF1A6E000200EB1143000100A41ABE
:1027E30044000200A51A45000100A71A4600020092
:1027F300A81A47000800F81148000100AA1A490066
:102803000100AB1A4A000200AC1A4B000100AE1AD9
:1028130004000100B31AA1000100B51A370001003A
:10282300B41A000000000000000136360101000167
:102833000201000103010001040106060502000074
:10284300070100340801000F090401010D0100FF15
:102853000E08000017020000190100FF1A01000111
:102863001B0100FE1C0100081D0200001F010001E6
:1028730020010001210200002301000F24020000B7
:102883002601000127010008280200FF2A01000792
:102893002B0102402C0100002D0100012E0100013B
:1028A3002F0100FF30010B1C310800003A01000822
:1028B3003B01000F2F01000003027102300160028F
:1028C300110270020102020202028002100261027E
:1028D3003A00410063027302720262024302000281
:1028E3001302380000020002040212020002000276
:1028F3000002000204020402370037003C024402D3
:102903000002390000020002650200023502810262
:10291300000205028202830200020101710101012A
:1029230001011101010131010101010180011001C6
:1029330061013B00140063017301720162014301F1
:102943000001130106013D013500040112010001DC
:1029530000010001000104010401330133013C01C2
:102963004401320136000001000165010001350018
:10297300810100010501820183010001010371034B
:102983000103010301030103010322030203010302
:10299300100300030003000300030003000300030C
:1029A300420300032403060300030003040312038A
:1029B3002503230325032303040304030003000364
:1029C3000003440300030003230300036503210002
:1029D300350381030003050300030003000303041D
:1029E300710402046004110470040204020401046B
:1029F30002041004610400041404630473047204E5
:102A030062044304000413040604000400040404E1
:102A130012040004000400040004510464000004D0
:102A230000040004440400040004000400046504DA
:102A330000043504810464000504000483040004D5
:102A430003007100300160001100700031022003A7
:102A53005004800010006100000014006300730044
:102A63007200620043000000130006000000000033
:102A73000400120000000000000000000400040035
:102A8300370037003C024400000000000000000053
:102A93006500000035008100000005000000830090
:102AA300000036000100060000000F0000000000D7
:102AB300000000000000000003FFFF00000403FF0C
:102AC300FF0000FFFF0FF4010005C4040320000111
:102AD30000000B000000000000000003010F0000D5
:102AE30047201300E11F010047200200AB1F030032
:102AF300B11F0400B71F0500BD1F0600C91FFFFF5C
:102B030000000103160639160833160B4B16108BFB
:102B130015020916052716070F160CEB150DF715E9
:102B2300FF0000030003000400080010001F003E24
:102B3300007B00F600EC01D703AF075D0FB91E71F0
:102B43003D0000411A711A471A4D1A6B1A5F1A5940
:102B53001A771A7D1A831A8F1A531A3B1A351A03D6
:102B6300EAF5E5D5D5C5B5A59595858575756565ED
:102B730055554545353525251515059C36063A70B9
:102B83003DD9404344AD47174B814EEA5100160FE0
:102B930000000B150B020002220F32000006000199
:102BA30002030405060708090A0B0C0D0E0F311B5F
:102BB300431B491B0B1A4F1B051A111A45193F19C1
:102BC3007B19811975192D19A91BC71BCD1BAF1BA8
:102BD300BB1BB51B0C0E020B040B0A0708000F00EE
:102BE300034948424D181725050200011916181606
:102BF3001615230300303017181921301B1D1F3001
:102C030000383C3E363B3B352B432C3030161819ED
:102C130020231A1C1E309D1B551B5B1B671B611B4E
:102C2300651A891AC11B951A9B1A511957194B1901
:102C330087190005150D091008045D196F1900BEE9
:102C4300040A0E0015000400010309280C0F100CE0
:102C53000A090004000C040810080574F6120A524D
:102C630074FF12106AE4851882851983F08582083F
:102C73008583097808120FDB750801750900780848
:102C8300120FDB1244B31210087401024F5574F68D
:102C9300120A528C088D097808120FDB75080B7520
:102CA30009007808120FDB1244B3024F5574F61271
:102CB3000A528C088D097808120FDB75080B750909
:102CC300007808120FDB1244BE1243A9024F55C00D
:102CD30082C0838A828B83E0D2E7F0121F4B024FBC
:102CE300A0C082C083790012591F90032E12615035
:102CF300C3EA9CEB9D5006123468600109024FA0A1
:102D030074F7120A52EA126006EB1263A9122F61DA
:102D1300AEF075F00BEDA42EFD900330E02CFEA376
:102D2300E03DFFEA2403FCEB3400FD740169600518
:102D330074026970278A828B83A31259298E828F2A
:102D430083A3124975740269701DECFAEDFB121C22
:102D53008DE97013E48E828F83F0800BEE2403FAE7
:102D6300EF3400FB1225C9EEFAEFFB122599023F5F
:102D73001E74F2120A528A088B09EA240BF50CEB33
:102D830012660E79008A828B83E0606F890A890B51
:102D9300805EE50A75F00BA4FAACF075F00BE50B59
:102DA3001231FA7048AE82AF838508828509831297
:102DB30070871232B4A31263AF124F25E5082403C0
:102DC300FCE5093400FDEE24030A0A0AEF3400FB94
:102DD3001225C9850C82850D83E50AF0A3E50B1244
:102DE3005468122599790190032E1268B1122E01AD
:102DF3001231F2E50A9AE50B9B409702489EE50AD9
:102E03002401F50AE50B3400F50B2274F1120A5282
:102E1300EAFEEBFF740F1212991244AB750E018593
:102E23000882F583A385820C85830DEE240BF8EFCE
:102E33003400F9EC7001ED6030EC126006ED1249DC
:102E43006B7901EEFAEFFB1226B9E5087002E5098A
:102E53007003022ED9850C82850D831266137902C5
:102E6300AA08AB091226B9806DEE2403F50AEF1206
:102E73002E09E5087002E5096033126004E50912C2
:102E8300496BE5082403FAE50934001231EA700CB2
:102E9300EEFAEFFB122695E9F50E80B9AA0AAB0B01
:102EA3001231EB70317903EEFAEFFB80B78E828F2C
:102EB30083A3E064FE7004A3E064FF700A0A0A0AB5
:102EC300AB0B1231EB700CEEFAEFFB122695E9F522
:102ED3000E8003750E00A90E7F07020DBD74F71255
:102EE3000A5290032E124975EA7001EB6031EA75BC
:102EF300F00BA4FAACF075F00BEBA42CFBEAFEEBA1
:102F0300FF121DA1900330124975900330E0700247
:102F1300A3E06012EEFCEFFD7900121D178007900D
:102F23000330E4F0A3F0023F1E74F6120A52750850
:102F3300007509007808120FDB90032E122F61AA87
:102F4300F075F00BEDA42AFD7A237B00121E0774A3
:102F530002121008E9FE60031225E70242391263E8
:102F6300D8EC75F00BA4FC2274F7120A527E007F92
:102F730000800AEEFAEFFB1225AB124124122FC692
:102F830040F1023F1E74F7120A527E007F00801642
:102F9300EEF8EFF9122FB1FCA3E039FDEEFAEFFBE7
:102FA30012259F124124122FC640E5023F1EE875E9
:102FB300F00BA4F8AAF075F00BE9A42AF9900330FA
:102FC300E0282290032E1252A1C3EE98EF992274A7
:102FD300F7120A527E007F008028EEF8EFF9E875B9
:102FE300F00BA4F8AAF075F00BE91232AFA2E75088
:102FF3000EC2E7F0AC82AD83EEFAEFFB1225A51209
:103003004124122FC640D3023F1EC082C083EC70FE
:1030130001ED600512248580097C087D007900128A
:103023001D17024FA074F6120A527900EA7001EBE1
:1030330060147C008C08126B62600479017C080CBC
:10304300ECC3940840EE024F5874F7120A5274F31B
:1030530012106AECFEEDFFE4851882851983F07483
:10306300011212991244FC1212BB7403121299AC8E
:1030730082AD83EEFAEFFB1225C9EEFAEFFB121CC9
:103083008D023F1974F7120A5274F312106AECFEA0
:10309300EDFFE4851882851983F0EAFCEBFD7403E8
:1030A30012129912453174011212991263AF124F21
:1030B3002674FE68700374FF6960047901800279E5
:1030C30000023F1974F7120A52EAFEEBFF123115A0
:1030D300701012312064FFFC8A828B83E05CF01253
:1030E30025990247FA74F7120A52EAFEEBFF7508B4
:1030F300008E828F83E06017123115701212312017
:10310300FC8A828B83E05C7006E04CF01225990206
:1031130047FA121C1BE9F5087401650822EE124CEC
:10312300DC1252A1122FB1FAA3E039FB8E828F83F6
:10313300E02274F0120A528A088B09EA2403FEEB98
:103143003400FF7C007D000A0A0AFB1225C9E5084A
:10315300240BF50CE50912660E79008508828509B2
:1031630083A385820A85830BE064FE7004A3E06475
:10317300FF6065890889098054E50875F00BA4FA96
:10318300ACF075F00BE5091231FA603E850A8285D1
:103193000B83127266A3E06C7003A3E06D702BEADD
:1031A3002403F50EEB3400F50F1231E7700BAC0E70
:1031B300AD0FEEFAEFFB1225C9850C82850D831244
:1031C30064E3790190032E1244AB124F2C1231F2B7
:1031D300E5089AE5099B40A18005740D1210087F4C
:1031E30008020DBD0A0A0AFB121C8DE96401229034
:1031F300032E125933C322A42CFB900330E02AFA86
:10320300A3E03BFB8A828B83E0540F2274EF120A04
:10321300528A828B83A385820E85830F126613EAFB
:10322300240BF508EB124F348508821266117510D2
:1032330000EA2403F50CEB3400F50D1231E7706559
:10324300750A00750B008055E50A75F00BA4F8AA02
:10325300F075F00BE50B1232AF540F603DAE82AF49
:1032630083EE2403FCEF3400FDAA0CAB0D12247F84
:10327300E9640170258E828F83A3124CEC850E8244
:10328300850F83E8F0A3E91232B4E50AF0A3E50B56
:10329300F075100190032E1268B1122E0190032EC7
:1032A30012439C40A3A9107F09020DBD12333EE0D7
:1032B300221232B822F08508828509832274F31220
:1032C3000A52EAFEEBFF8E828F83A385820A8583EF
:1032D3000B126613EE2403F508EF124F347C007DC6
:1032E300000A0A0AFB1225C9EEFAEFFB121C1BE9BE
:1032F300F50C7401650C703EEE126006EF12334854
:1033030075F00BA4F8AAF075F00BE912333EA31283
:103313005929850A82850B83124975E82403FEE93E
:103323003400FFEEFAEF1231EA700BEEFCEFFDAA68
:1033330008AB091225C9A90C023FBB122FBDF8A384
:10334300E03902583A124CE11252A1E82274EE120B
:103353000A5274E612106AEAFEEBFFEE240BF50A3A
:10336300EF122E09850A82126611750E0175080087
:10337300750900751000751100E48518828519839D
:10338300F0EE2403FCEF3400FD7403121299AA82B9
:10339300AB831225C98E828F83A385820C85830D0F
:1033A300851882851983AA82AB831212C1E964014D
:1033B3007034740B121299124CEC850A82850B83BC
:1033C300124F267401121299124CEC850C82850D52
:1033D30083E0687003A3E0696055851882851983CB
:1033E300858208858309740D121299E41264D4F856
:1033F300A3E0F9740E121299124F26740D1212994A
:10340300AA82AB831212BBE96401700B740D121212
:10341300998582108583117810120FDBAC08AD09F2
:10342300EEFAEFFB1226777402121008E9F50EEE9E
:10343300FAEFFB1212B5A90E741A0261A5C082C07D
:1034430083780079008003123D4F1231F2E89AE944
:103453009B500DE8FAE9FB12346870EB79008002A7
:103463007901024FA0EA75F00BA4FAACF075F00BEA
:10347300EBA42CFB9003301273EEF583E0540F2280
:10348300C082C083902C47123EB9EC75F012A4FCA5
:10349300AAF075F012EDA42AFD79FF7ACC7B141201
:1034A3001D17024FA074F6120A527E007F007C00A3
:1034B3007D0080348C088D09E50875F012A4F508A9
:1034C300ABF075F012E509A42BF509E50824D0F556
:1034D30082E5093414F583E0FBC3994008EAC39BF2
:1034E3004003124124123B4A123985C3EC9508ED7F
:1034F300950940C0EEFAEFFB024F58C082C08378B3
:103503000079008003123D4F902C471240995009D7
:103513001238C664FF70EE80047A007B00024FA06D
:1035230074F0120A5274F312106A8A0A8B0BECFEBF
:10353300EDFF890CEE7001EF6011EEFAEFFB121351
:103543000F8A088B09EA7001EB70501212E58A08A2
:103553008B09EA7001EB6043740185188285198336
:10356300F0121299E50AF0A3E50BF0EEFCEFFD74FF
:10357300031212991236B5740B121299124CEC12F3
:103583004F1EE4850882850983A3A3A3A3A3A312E3
:1035930063D0AA0AAB0B121885800BE5087002E50D
:1035A30009700302362D7A00E50C6007C3940550B9
:1035B300027A04850882850983126502A3A3A3E521
:1035C3000CF0EA850882850983A3A3A3A3A3F0745F
:1035D30002850882850983A3A3A3A3A3A3A3A3F0BE
:1035E3007401850882850983A3A3A3A3A3A3A3A32B
:1035F300123641A3A3A3F0E5082410F582E50912CE
:1036030063A9E4F0123641F0126004E5091263A9DC
:10361300E4F0908065780C12124FE508240CF582D3
:10362300E5091263A9780C1212401238274005E409
:10363300901A31F012175FAA08AB090231DDA31209
:103643004E670263C274F2120A5274F312106A8A4A
:10365300088B09ECFEEDFF750A00EEFAEFFB12137F
:103663000F8A0C8B0DA80CA90DE87001E9603E8848
:10367300828983E065087004A3E06509602F88826E
:103683008983A3A3A3A3E0C3940550211264DF7429
:1036930001851882851983F01212991264E3EEFCF6
:1036A300EFFD74031212991236B5750A01A90A02C5
:1036B30048991245381212CD2274F6120A52123763
:1036C300207002E5836010A3A3A3A3E06009C39461
:1036D300055004790180027900024F5874F6120AEA
:1036E300521237207002E5836010A3A3A3A3E06006
:1036F30009C394035004790180027900024F58747E
:10370300F6120A521237207002E583600BA3A3A3BB
:10371300A3E07004790180027900024F5812130963
:103723008A828B83E58222C082C083EAFCEBFD7A26
:10373300007B00121315024FA0C082C0837C007D62
:103743000080F074F2120A5274F312106A8A0C8B1E
:103753000D8C0A8D0B7E007F008021123C341212E7
:10376300991237BE60137403121299AC82AD83AA07
:103773000CAB0D12247FE97035124124902C4712B3
:1037830041345030123AFE60F0E50C7002E50D70E2
:10379300CA74FF650A700474FF650B60DC850882D8
:1037A300850983E0650A7004A3E0650B70CBAA0862
:1037B300AB0980047A007B00024899E8F0A3E91280
:1037C300455C1212C7E92274F4120A5274F3121000
:1037D3006A75080012130F8A0A8B0BAE0AAF0BEE41
:1037E3007001EF602A7401851882851983124EA037
:1037F300F8A3E0F9740B1212991245541212AF7C1C
:10380300127D0079FFEEFAEFFB121D177508011206
:10381300382750097401901A31F012175FA9087400
:103823000D024FAE7A0479001212DF902C47124139
:103833003AEA98EB992274F7120A52E9FE74FE6A87
:10384300700374FF6B780079007005804D123D4F53
:10385300902C47123D425042E8FCE9FDEC75F01212
:10386300A4FCAFF075F012EDA42FFDEC24CCFCED1D
:103873003414FD8C828D83A3A3A3A3E064FF60CDE6
:103883008C828D83E06A7003A3E06B70C08008ECC8
:103893006005C39405401C123D4F902C471240997C
:1038A300501A1238C6FCEE70E674016C600574039E
:1038B3006C70E48A828B8312592980047AFE7BFF21
:1038C300023F1EE8FAE9FBEA75F012A4FAACF075C0
:1038D300F012EBA42C123B6922121321024FA0C059
:1038E30082C083790180F274F0120A528A0A8B0B28
:1038F3007A0479011212DF8A0CEA7001EB6040EA64
:10390300C333FAEB33FB121DA18A088B09AE08AF50
:1039130009EE7001EF60237AFE7BFF12132774FE1A
:103923006A700374FF6B601B8508828509831249E3
:1039330075E5082402124F3080E1750C0080047E87
:10394300007F00850A82850B83E50C1254680231DF
:10395300E274F6120A527508007509007808120F0E
:10396300DB123985740378081211AC123AF27B002A
:10397300121E077402121008E9FE600312133902C3
:103983004239902C4712398C22E493F50874019341
:10399300F5092274F6120A5274FE12106A12426C6E
:1039A300024F3974F4120A5274DF12106A7E0085D2
:1039B30018828519838582088583097808120FDBAD
:1039C3007508028E097808120FDB7C007D00124314
:1039D300A7121008E96003023A7C123A83124CE6FC
:1039E300C3EA98EB995003023A7C8077740F121262
:1039F300998582088583097808120FDB7508087595
:103A030009007808120FDB7403780A1211AC7402F0
:103A1300250AFCE4350BFD1243A7121008E9704296
:103A230074021212997401F07411121299124CEC6F
:103A3300740D121299124F267402121299AA82ABB4
:103A4300831212C7E9601B7413121299E0F974050B
:103A5300121299AC82AD83740F1212991259291262
:103A630012EB0E8E8285820A750B00124CE6C3E5BB
:103A73000A98E49950030239EFEEF97421024FAE2C
:103A8300902C47E493FA740193FB2274F6120A52C2
:103A930074FE12106A851882851983E4F0A3F0FE80
:103AA3008033123AFE602B7808120FDB7508087515
:103AB30009007808120FDB74041212991244AB74D4
:103AC3000378081211AC123AF21244B6121008121B
:103AD300449B124129FF902C4712413440C485185E
:103AE300828519838582088583097808024F397492
:103AF300022508FCE43509FD7A2222EEF8EFF9E805
:103B030075F012A4F8AAF075F012E9123C19A3A3F8
:103B1300A3A3E064FF2274F7120A527C007D0080A5
:103B23000419123B4A123B41500D123B53C39405F7
:103B330050F0E970EC80047A007B00023F1E123AD9
:103B430083C3EC9AED9B22EC24010CED3400FD229F
:103B5300ECFAEDFBEA75F012A4FAAEF075F012EB95
:103B6300A42E123B6922FBEA24CCFAEB3414FB8A21
:103B7300828B83026D5F74F3120A5274F312106A1C
:103B8300750A00750B008052E50C1263968E828FC6
:103B93008312655BE0687003A3E06960257401121A
:103BA3001299E0687003A3E0696017EE2402FCEF4A
:103BB3003400FD7403121299AA82AB8312247FE9A5
:103BC3006007EEFAEFFB121891050C902C51E49369
:103BD300FAE50CC39A40B1122E01123C2CE50A9867
:103BE300E50B99502CE50A75F012A4F8AAF075F0CC
:103BF30012E50B123C19E064FF7004A3E064FF605C
:103C0300D6123C341212991237BE60CB750C008069
:103C1300BA740D023FB8A42AF9E824CCF508E934B4
:103C230014F509850882F58322902C47E412413B61
:103C3300227401851882851983124E671252A1746A
:103C43000B2274F6120A5212423E123EB9EC850858
:103C5300F0A4CCAAF08509F0A42AFA8508F0EDA413
:103C63002AFD79FF7AE37B19121D179003337469D8
:103C7300F0A37413F09003357463F0A37413F090FE
:103C83000337748DF0A37413F0900339749FF0A37A
:103C93007413F090033B74A5F0A37413F090033DE9
:103CA30074ABF0A37413F090033F74B1F0A37413D7
:103CB300F0E4900332F0024F58C082C08378007959
:103CC300008003123D4F1240965024E8FAE9FBEAC4
:103CD30075F00EA4FAACF075F00EEBA42CFBEA24FD
:103CE300E3F582EB12474B70DAAA82AB8380047A46
:103CF300007B00024FA074F7120A527A007B00780F
:103D0300007900802FE8FCE9FDEC75F00EA4FCAE11
:103D1300F075F00EEDA42EFDEC24E3F582ED1247D1
:103D23004B600EA3A3A3A3A3E0FCEA2CFAEB34009D
:103D3300FB123D4F902C49123D4240C9023F1EE405
:103D430093FC740193FDC3E89CE99D22E8240108D8
:103D5300E93400F92274EC120A5289108A088B099B
:103D63008C0D8D0C74141212991268B17E007F00B1
:103D73001213C9AA08AB091213CF8A0E8B0F850839
:103D830082850983A3A3A3A3A3A3A3A3E0640170D0
:103D9300077508018E0980058E08850D0974FE6577
:103DA3000E700474FF650F7003023E9C8E0D80023B
:103DB300050D850D12902C491270A85071E50D75F3
:103DC300F00EA424E3FEE5F01241F7651070E1A3C1
:103DD300E0650870DB8E828F83A3A3E0650E700419
:103DE300A3E0650F70CA8E828F83A3A3A3A3E065AC
:103DF3000970BD750D00E50DC3950C4003023E9C93
:103E0300E50DC333F8E433F9E50A28F508E50B3982
:103E1300F509850882126EA8121375E9700C8508DE
:103E230082850983126EAA121381050D80C81213AD
:103E33005D8A128B13AE12AF13EE7001EF605A8ED0
:103E4300828F83E510F0A3E508124F0AA3E50EF075
:103E5300A3E50F124F0AA3A3A3E509F0902C59E49D
:103E630093C3950C5004E493F50C8E828F83A3A324
:103E7300A3A3A3E50CF0850A08850B09750A00784E
:103E830008120FD7E50CC333FCE433FDEE2406FA26
:103E9300EF34001264FB121008EEFAEFFB7F0C0202
:103EA3000DBDC082C083123EB679FF121D17790182
:103EB300024FA0902C45E493FC740193FD2274F708
:103EC300120A52EA7001EB60498A828B83A3A3A38F
:103ED300A3A3A3E5827002E58360377E0080010E11
:103EE3008A828B83A3A3A3A3A3E0FFEEC39F5022E5
:103EF300EEC333F8E433F9EA28F582EB39F583A30B
:103F0300A3A3A3A3A3E06C7003A3E06D70D1790115
:103F1300800279008005740D1210087F01020DBD27
:103F230074F3120A52EA2405F8EB3400F9E8FEE9C7
:103F3300FFEA7001EB606F8E828F83E06073EA2487
:103F43000608EB3400F9E0F50B750A00800B8E824E
:103F53008F83E014F0605A050AE50AC3950B5046B7
:103F6300E50AC333F508E433F509EA2508F508EB58
:103F73003509F50974062508F508E43509F50985B9
:103F83000882F583E06C7003A3E06D60C18508824D
:103F9300850983E0F508A3E01264DDE8240208083C
:103FA300E93400F980B18E828F83E0600479018067
:103FB30002790080031210087F05020DBD74F71209
:103FC3000A52EA7001EB6037127254C0E0902C5928
:103FD300E493FED0E0C39E502688828983E0C333F6
:103FE300FEE433FFEA2EF582EB3FF583A3A3A3A3FD
:103FF300A3A3ECF0A3ED126D6504F07901800279BF
:1040030000023F1E74F2120A5289088C09124143BE
:1040130070051268AD800312411C74FE650A7004BA
:1040230074FF650B70067A007B008064780079006A
:1040330080187401650C700F8C828D83E0650A70A3
:1040430004A3E0650B6049123D4F12409650D7120E
:1040530044E08A828B83E0650870ECA3E0F50CEA08
:104063002402FCEB3400FD8E828F83E0640160C286
:10407300E50C70D38C828D83E0650A7004A3E06540
:104083000B70C48A828B83A3A3A3A3E0650970B7D3
:1040930002489E902C49123A86C3E89AE99B2274FF
:1040A300F2120A52EA2408F8EB124E9764017005E3
:1040B3001268AD800312411C74FE650A700474FF1C
:1040C300650B60527E007F008047EEF8EFF9E875DC
:1040D300F00EA4F8AAF075F00EE9A42AF9E824E397
:1040E300FAE93419FB850882850983E06401701BB2
:1040F3008A828B83A3E0640170148A828B83A3A3D7
:10410300E0650A7004A3E0650B700312136F12419C
:104113002412413140B402489E1213B78A0A8B0B12
:1041230022124129FF22EE24010EEF340022902CAB
:104133004912413A022FCDE493F8740193F9C32253
:10414300EA2408F8EB1265FAE064012274F3120A18
:1041530052890C8A0A8B0B7508007509007E007F53
:1041630000801B124478650C7011AC0AAD0BAA8257
:10417300AB83121375E96003124F2C1241241241D1
:104183003140E0AA08AB09023FBB74F1120A52891D
:104193000D8A0A8B0B8C0E750C00750800750900CF
:1041A3008005050C124F2C902C49123C2FE50898E2
:1041B300E509995038E50875F00EA4F8AAF075F0F2
:1041C3000EE509A42AF9E824E3FEE91241F7650D97
:1041D30070D2AC0AAD0BEEFAEFFB121375E960C4B3
:1041E300E50CC3950E40BBEEFAEFFB80047A007B2F
:1041F30000022EDB3419FF02312F74F6120A5275B6
:1042030008007509007808120FDB12423E1244556C
:10421300E9A42AF975832C758245E49328FCA3E469
:104223009339FD7A417B00121E077402121008E9CC
:10423300FE60031213A5EEF9024F58902C45123974
:104243008C902C492274F6120A5274FE12106A12D0
:10425300426C120FDB7508027509007808120FDB38
:104263007C007D007A41024F4D851882851983E4D5
:10427300F0A31244D485820885830978082274F454
:10428300120A5274E712106A7E007F008518828535
:1042930019838582088583097808120FDB75080264
:1042A3008E097808120FDB7C007D007A411243A946
:1042B300121008E9600302438B8E0A8E0B80587438
:1042C30002121299AC82AD83740D121299125929FC
:1042D3001213BD740A121299E06039741112129903
:1042E3008582088583097808120FDB7412121299EC
:1042F300E0FD7411121299E0FC7404121299AA825F
:10430300AB83740D121299E0F9121369740212103F
:1043130008124124122E0185188285198312439CA9
:104323005066740B121299858208858309780812E6
:104333000FDB902C45120E62902C45124394E885B6
:104343000AF0A4C8AAF0850BF0A42AFA850AF01291
:10435300446A1243A9121008E970B9740A12129937
:10436300E4F0740C121299E070030242C2740A1250
:1043730012997401F0740D121299124CEC7402121A
:104383001299124F260242DEEEFAEFFB7419024F26
:10439300AEE493F8740193F9221252A1C3E50A988B
:1043A300E50B99227A227B00121E1974042274F5FC
:1043B300120A5274F012106A851882851983E4F088
:1043C300A3F0FE805A12447864FF6050858208850A
:1043D3008309750A007808120FD7123EB6740512C6
:1043E3001299AA82AB831264FC121008740212128F
:1043F300998582088583097808120FDB902C451272
:104403000E6274041212991244AB902C4512445557
:1044130012446A1244B612100812449B124129FF37
:1044230012413140A08518828519838582088583CE
:10443300097808120FDB7508027509007808120F56
:10444300DB7C007D007A411244B61210087410021E
:104453004727124394E88508F0A4C8AAF08509F019
:10446300A42AFA8508F022E9A42AF9740228FCE4B4
:1044730039FD7A412212447DE022EEF8EFF9E87526
:10448300F00EA4F8AAF075F00EE9A42AF9E824E3E3
:10449300F582E93419F58322851882851983E0248E
:1044A30001F0A3E03400F022E0F508A3E0F50922CF
:1044B3001244BE7B00121E13740422EA75F00BA48F
:1044C300FAACF075F00BEBA42CFBEAFCEBFD7A23C2
:1044D300221244D822F085188285198322E8FAE94A
:1044E300FBEA75F00EA4FAACF075F00EEBA42CFB0E
:1044F300EA24E3FAEB3419FB22EAF0A3EB12455C5E
:1045030022C082C08374F312106A1246C56402701B
:104513000E12454A1212991245541212BB800CEA2C
:10452300FCEBFD7403121299124531024F951245AB
:10453300381212C122AA82AB831225C9851882853B
:104543001983AA82AB83228A828B831252A17401BC
:1045530022E8F0A3E912455C22124560221244D8F6
:1045630080E074F7120A5274F312106AECFEEDFF46
:104573007404851882851983F0740B121299EAF07A
:10458300A3EB1237C2F508601D74038E828F83A3D9
:10459300A3A3A3A3A3A3A3F0121299AC82AD83EEAA
:1045A300FAEFFB122485A908023F19C082C0837465
:1045B300F312106A7404851882851983F0740B1240
:1045C30012991244FC1212C77401024F9712593305
:1045D300740D2274F6120A5274F312106A900332A5
:1045E300E0706E7404851882851983F0900371124C
:1045F300454E121299124F26121711EAFCEBFD7465
:10460300031212991236B512171D8A088B09A808CE
:10461300A9097401121299E0687003A3E069602B81
:1046230074FE68700374FF69602174011212991299
:104633004F267403121299AA82AB8312172385188B
:1046430082851983AA82AB831212CD74019003323F
:10465300F0740D024F55C082C08374F312106A12B6
:1046630046C5FC74026C701E12454A121299E8F09A
:10467300A3E91262107048851882851983AA82AB58
:10468300831212CD803974036C7011EAFCEBFD7454
:1046930003121299124531E9702580DB74016C70A5
:1046A300128A828B83124CEC740B121299E8F0A3DA
:1046B300E9800B740B12129974FEF0A374FFF002DD
:1046C3004F957404851882851983F08A828B83A39E
:1046D300A3A3A3026D5F74F5120A527800790088D0
:1046E3000888097C007D008003123B4A902C49E432
:1046F30093FE740193FFC3EC9EED9F5021ECFEEDFE
:1047030012472F60E4AE08AF0974012EF508E43FA9
:10471300F509EA6E7002EB6F70CFA882A983E8FAFD
:10472300E9FB80031210087F03020DBDFFEE75F055
:104733000EA4FE85F00A75F00EEFA4250AFFEE2401
:10474300E3F582EF12474B223419F583E064FF222D
:10475300C082C0839003467421F0A37416F09003C3
:1047630048741BF0A37416F090034C744DF0A374BB
:1047730014F0024FA0C082C08390034A7415F0A3C3
:104783007416F0024FA074F7120A52EAFEEBFF9080
:104793000380E0FA74086A601974046A60148E82F4
:1047A3008F83E064017046124CD7125A47E06406C7
:1047B300703B8E828F83A3A3124CEC74FE6870034C
:1047C30074FF696028900371E0687003A3E0697067
:1047D3000BEE2415F582EF126B68600AEEFA1216DF
:1047E300D5E9F508800AEEFA1216DB80F47508C2E3
:1047F300EEFAEFFB121DA7A908023F1E74F2120A7C
:10480300528A088B098A828B83A385820A85830B4C
:104813008A828B83E0F8850A82850B83E028FAE499
:104823003400FB121DA18A0C8B0DAE0CAF0DEE7084
:1048330001EF605C850882850983E0FC7D007900D7
:10484300121D178E828F83A3A31266131217178E5E
:10485300828F83A3A3A3A312497585088285098345
:10486300E0F8EE28F8EF3400F9124CD7125284C066
:10487300E01263A3D0E0F0121729EE240E1263A610
:10488300E9124E63E0C0E0EE24111263A6D0E0F01B
:10489300EEFAEFFB8005740D1210087F06020DBDC2
:1048A30074F4120A5274EB12106A8A088B098C0A88
:1048B3008D0B9003817808121240E9900387124B05
:1048C3006B1212407405121299E9F07404121299D2
:1048D3007401F07407121299E4F0740290038002D9
:1048E3004FAB74F4120A5274EB12106AEAFEEBFF38
:1048F300900342E07002A3E070677A077B00121D09
:10490300A1900342124975900342E07002A3E06054
:104913004C9003421261508F838E827407120F5999
:104923008E828F83780812124F85188285198378B7
:10493300081212408E828F83A3A3A3A3E0C0E07466
:1049430005121299D0E0126D5CC0E0740412129942
:10495300D0E0F07407121299124AB58006791080DC
:104963000279017415024FAE124CE1125933888259
:104973008983EAF0A3EBF022C082C083900342E074
:104983007002A3E06010900342125929121DA790F0
:104993000342E4F0A3F0121645121831024FA0743B
:1049A300F3120A5274EB12106AECFEEDFF7422123A
:1049B3001299780812124F7426121299E0FC742788
:1049C300121299E0FD7428121299E0F50C740F6C21
:1049D3007005740F6D6012901AA2E064027005797D
:1049E300C1024AB0ECC39D40F690038178081212CD
:1049F30040E9900387F0EC900385F0ED900386F097
:104A0300E50C900388F074FF6A700374FF6B701FEA
:104A1300901AB0E064FF7004A3E064FF7005121DF8
:104A230023800C901AB0124E5CE8F0A3E980079043
:104A3300037EEAF0A3EBF0EE7001EF6017EEFAEFFE
:104A4300FB1218F1E96401700BEEFCEFFD7A927B27
:104A530003122485900371E4F0A3F0900374F0A390
:104A6300F0900391F0901AA2E06402700A740F9020
:104A73000385F0900386F07405900380F0740412AC
:104A83001299E4F0900381780812124F85188285F9
:104A930019837808121240900387E0C0E07405126E
:104AA3001299D0E0F07407121299124AB5741502E4
:104AB3003FB8E4124ABA221245601225332290030A
:104AC300CCE0F9121E4F22C082C083900341E070F4
:104AD30003121FDB121411024FA0C082C083900384
:104AE30041E07007E4901A30F080317401901A307D
:104AF300F0900341E064FF60237C41E0C3944150A4
:104B030002E0FCECFAE0C39AF0EC75F0E8A4CCAA5E
:104B1300F075F003A42AFD7A80124B2B7A307B1AAE
:104B2300794112251B024FA07B009003CCE0F912C0
:104B33001E432274F4120A5274EB12106A8A088B11
:104B4300098C0A8D0B7401900380124B6B12124077
:104B53007405121299E9F074041212997403F07433
:104B630007121299E4024FAB1244D4780822124A76
:104B7300BA74152274F4120A5274FC12106AE9858D
:104B83001882851983F0EAFEEBFF90037E126150D1
:104B930012163F8A0A8B0BEA7001EB700579CA0281
:104BA3004CC9EA2409F508EB124F34850882F583D2
:104BB300E064FE7004A3E064FF700579C3024CC98E
:104BC30090037E125929121897E50A240CF582E501
:104BD3000B124E54124E7974021212997402F0742D
:104BE30001121299AA82AB8312179B8A0A8B0BAE0E
:104BF3000AAF0BEE7001EF7003024CC0124CD712D8
:104C03004CEC740688828983F0A3A882A98390035D
:104C13006BE088828983F01258402413124CCE1221
:104C230063C87440F0A3E412529A8E828F83A3A3C5
:104C3300E8F0A3E91268B9E9FE6003024CC2740903
:104C4300900380F0AA08AB09794B124E4E124CEC3C
:104C5300900374124F26900373E0FA851882851926
:104C630083E06A600CE090037312529679E1122597
:104C73001B901A90124CEC901A92E0687003A3E018
:104C830069601A900344124F26901A9212592912FE
:104C93001741901A921261507A01124B2B7A007BC2
:104CA30004124AC1901A921244AB7402780812118A
:104CB300ACAC08AD09FA7B04124B2D80027E10E4E4
:104CC300901132F0EEF97404024FAEF582EF124CFC
:104CD300E1740122EE124CDC22240BF582EF340046
:104CE300F583228518828519831252A12274F11249
:104CF3000A5274E212106A851882851983ECF0A3B4
:104D0300EDF0EAFEEBFF742D121299E0F50E90031D
:104D130080E0FA74046A600574086A700579C20257
:104D23004E46851882851983E0FCEEFA12163F8AF7
:104D3300088B09EA7001EB700579CA024E46EA2432
:104D430009F50AEB126893E064FE7004A3E064FFC4
:104D5300700579C3024E467403900380125296790C
:104D63005012251BAA0AAB0B794B12251B851882FF
:104D7300851983124E5C124F26E5082402F50CE5D3
:104D83000912689D900373124E71900374124F269B
:104D9300E50E90036B124E7974CE550E4480C0E03D
:104DA3007412121299D0E0F0E508240CF582E5099B
:104DB300124E54F0740F1212997402124E7174074A
:104DC300121299E8F0A3E9124EA67410121299E890
:104DD300F0A3E91264D4C0E07405121299D0E0F094
:104DE300741B121299E4124E63A3A3E0900386F09E
:104DF3007A867B037954124E4EA3A3A3E0900385D6
:104E0300F07A857B03794712251B900385E0C394D1
:104E13000F50247405121299E0C0E0740212129923
:104E2300D0E0F074041212997401F0740212129912
:104E3300AA82AB8312253F7405121299AA82AB830F
:104E4300122521741E121008022EDB12251B0232BA
:104E5300B91255E204900391221252A190037E22CB
:104E6300124E6722F0850882850983A3A32212527A
:104E73008CF8A3E0F922F0EEFCEFFD7A927B0312AB
:104E8300248522C082C083EB900388F012162D0282
:104E93004FA0F8EF12509A8882F583E022124F0E4A
:104EA300A3E022124F19024E7474F7120A5274F8D7
:104EB30012106AEAFEEBFF7900900380E064087049
:104EC3004185188285198374FD12661512171174B2
:104ED300021212991249757405121299E4124F0ABB
:104EE300E0C0E07404121299D0E0124F15C0E074D0
:104EF30006121299D0E0F074071212991252951209
:104F0300177D7408023F1B124F0E22F08E828F838F
:104F1300A322F002312F1244D8E0228508828509AA
:104F230083A3A3E8F0A3E9F022E5082401F508E54B
:104F3300093400F50922120FDB75080275090078A0
:104F430008120FDB7C007D007A221244B61210088F
:104F530074021210087F02020DBDC082C083900349
:104F63005274D7F0A37414F09003F874D7F0A374B9
:104F730017F09003567407F0A37415F09003587458
:104F8300D7F0A37414F090035A740DF0A37415F0C2
:104F9300800B740B1212991245D0121008D083D0D3
:104FA30082020CBC74078003124B711210087F0439
:104FB300020DBD74F0120A528A828B83126705EECA
:104FC3007001EF7003025097EA2402F8EB12509A33
:104FD300900312E07002A3E0601388828983E0F9F2
:104FE300EEFAEFFB900312125A47122733EE240610
:104FF300F8EF3400F9880A890BEE2409080808EF52
:105003003400F9880C890D8882F583E06402704BC3
:10501300850A82850B83E0540260528508828509E4
:1050230083E064E96047EE240A08EF127259700ABC
:10503300901AA4E00488828983F0E014F074048554
:105043000C82850D83F0901AA51263BDE8F0A3E9E5
:1050530012726E7001EB7003126D41850C82850D27
:1050630083E0FA74026A600574066A7027850A820F
:10507300850B83E0A2E0501C850882850983E0F953
:10508300EEFAEFFB122629850A82850B83E054FE94
:10509300F0A3E0F00231E23400F9880889092274B0
:1050A300EC120A5274DD12106AEAFEEBFF8C128DC9
:1050B300137437121299780C12124F75100074057D
:1050C300121299AC82AD831225DBEE240BF508EFA7
:1050D300124F347405121299E0A2E55019751001AC
:1050E300AC82AD838508828509831259291226353E
:1050F300E9600302523D7405121299E0A2E65022C0
:105103007406121299E0540370187405121299E090
:10511300540CFA740C6A600A74086A60057511010C
:1051230080037511007405121299E05403FA740296
:105133006A7013AC82AD838508828509831259296D
:105143001225BD02523DEE2406F50AEF122E097414
:10515300016A7037E51160031252737405121299D4
:10516300A882A9837403121299E8F0A3E912529A50
:10517300851882851983125284C0E0740212129931
:10518300D0E012529612270702523DEA6003025200
:105193003D900368E06401700C850A82850B83E00F
:1051A300700302523D7422121299740212529A74BD
:1051B3001A121299124F26E51160087405121299FA
:1051C3001252737405121299E0540C64047073EE56
:1051D300240FF582EF126B68C0E07417121299D096
:1051E300E0F0900314E07002A3E0604E1217178AF8
:1051F300088B09A808A909741A121299E0687003A8
:10520300A3E0697035780C120FD3E510F508780820
:10521300120FDF7812120FDBA911740C121299AC62
:1052230082AD837421121299AA82AB839003141264
:105233005A471227337407121008742312100802F6
:105243003EA0780C120FD37812120FDB90037E125C
:105253000E35A9107422121299AC82AD83740D120B
:105263001299AA82AB8312261D740812100880CAF1
:10527300AC82AD838508828509831259331225D503
:1052830022E8F0A3E912528C22F0850A82850B836F
:10529300E022E412455C221232B81252A122E0024B
:1052A3004E74C082C083121F09024FA0C082C08304
:1052B300121F0F024FA0C082C083121F15024FA0FE
:1052C300C082C083121F1B024FA074F7120A5274CC
:1052D30009121299E0F5087808120FDF121F2774DC
:1052E30001023F1BC082C083121F33024FA0C08242
:1052F300C083121F39024FA0C082C083121F3F0216
:105303004FA074F7120A52EAFEEBFF7401697010A2
:1053130079001215497C1E7900EEFAEFFB1214C5D1
:10532300023F1E74F4120A5274F912106A8A088B2F
:10533300098C0A8D0B741312129912592990115664
:10534300E07002A3E06027E9851882851983F07471
:10535300011212997808121240EAF8EBF974051257
:105363001299124554901156125A47122733024F7D
:10537300A7C082C083121F6F024FA074F7120A5294
:10538300901A33E0F97F00800B1255BB540D640172
:105393007001190F1255785003E970ED023F1E7426
:1053A300F7120A52901A34E0F97F00800B1255BBB2
:1053B300548D64817001190F1255785003E970ED13
:1053C300023F1E74F3120A52890CE975F006A4F821
:1053D300A9F0740C28F508E439F509EA2508FAE47C
:1053E3003509FB121DA18A0A8B0BAE0AAF0BEE70B7
:1053F30001EF6025AC08AD097900121D17124CD7D7
:10540300E50CF0EE2508F8EF3509F98E828F83A3BA
:10541300A3A3A3A3A3A3124F24EEFAEFFB023FBB64
:1054230074F6120A52EAFEEBFF1214A1901A32E04C
:10543300FAE9C39A400990034E1259291214A7EEB0
:105443002402F8EF12509A900350E088828983F087
:10545300900350E0041254681214AD850882850944
:1054630083E002423AF0EEFAEFFB22C082C0837976
:105473000090034E8001091259298A828B83E582A9
:105483007002E58370F0024FA074F7120A52EAFE2D
:10549300EBFFEE7001EF605E90034EE07002A3E05D
:1054A300605490034E125CDA7A007B00800FAA826C
:1054B300AB83125CDAE5827002E5836039EE6582C4
:1054C3007003EF658370E78E828F83124CEC900339
:1054D3004E126150EE6C7002EF6D700590034E80BA
:1054E300048A828B83124F26EEFAEFFB1226D7EE45
:1054F300FAEFFB121DA7023F1EC082C08390034E2A
:10550300E0F8A3E08003ECF8EDF9E87001E9600945
:1055130012614CEC7001ED70ED8A828B83E4F0A391
:10552300F0E87001E9600688828983800390034E66
:10553300124975024FA074F7120A5290034E800469
:105543008A828B831266097001EB60227F008001DF
:105553000F12557850EAEF75F006A4FCADF0EA2C73
:10556300FCEB3DFD74101255CF6970E480047A00A2
:105573007B00023F1E1255DCFCEFC39C2274F71222
:105583000A5278008001081255D8FDE8C39D5025C2
:10559300E875F006A4FEAFF0EA2EFEEB3FFFEE2423
:1055A30010F582EF126B686970DCEE2411F582EF5F
:1055B300126B684CF0023F1EEF75F006A4FCADF0D1
:1055C300EA2CFCEB3DFD74111255CF222CF582E43D
:1055D3003DF583E0221255DC22EA240BF582EB34FD
:1055E30000F583E02274F6120A521215C17A008084
:1055F30010EA126556125679126561F0125832F0AC
:105603000A902C4F1270A140E87A00801E8A087518
:105613000900740378081211AC126B5788828983CE
:10562300125679A3A3A3A3A3A3F00A902C5C127030
:10563300A140DA7A00801A8A087509007403780891
:105643001211ACE508246EF582E5093419126611CE
:105653000A12709E40E1902C4BE49390035CF0128D
:105663005668024F587CE87D037A107B009003CC88
:10567300E0F9121E492212567D22A374FEF0A37490
:10568300FFF0E488828983A32274F0120A5274F52E
:1056930012106A8A088B09890A8C0BE9A2E050145C
:1056A3007508FC7509FFA2E15005D2E4025756D2F2
:1056B300E30257561215A38A0C8B0DA80CA90D9063
:1056C3000371E0687003A3E0697005790002582D47
:1056D300AC0A7902AA08AB0912159DE960EDE50A47
:1056E300F50C780C120FDF79027CFE7DFFAA08AB64
:1056F30009125E48121008E9600302582BE50AC23A
:10570300E5F50A9003BEE0704CE50AA2E640467454
:1057130003121299AC82AD83AA08AB091212A3E952
:10572300702D125939F8EBF9EA7001EB6027E82480
:1057330002FEE93400FF0A0AFB121C8DE96016EE33
:10574300FCEFFD7403121299AA82AB83122485E540
:105753000AD2E5F50A900351E0F50C900371E0F5E8
:105763000EA3E0F50F780E120FDB7D017C00900392
:1057730051E0F9AA0EAB0F1215557402121008E985
:10578300FA900351E004F0EA600302582BE50AA201
:10579300E550047A0E80027A067401121299126897
:1057A300C08A0E8B0FAE0EAF0FEE7001EF60751255
:1057B3005840124CD812454E88828983F07478552C
:1057C3000A125832A3A3E50C126B6CE508F0E50945
:1057D30088828983A3A3A3A3F0E488828983A3A3F4
:1057E300A3A3A3F0E50AA2E550147403121299AC23
:1057F30082AD83E82406FAE93400FB1224858E8205
:105803008F83A3A374FD126615E50B600EC3941E6C
:105813005009EE24131263A6E50BF0EEFAEFFB1228
:1058230013E780067910800279C7740B0231DFA376
:1058330012583722F08001F98882898322EE2417D7
:10584300124CDE7401F0121711EE241A124CDEEA28
:10585300F0A3EBF0EE22C082C0839011F7E0640165
:10586300901AA37006E0FC79018004E0FC79037AC6
:10587300007B001214C5024FA074F4120A528A0866
:105883008B09E9FE1217B3E960067AFF7BFF807884
:10589300901AA2E064027063790012590EEA700153
:1058A300EB6042127254FC74016C7022900370E03E
:1058B3008A828B83A3A3A3A3F08A828B83A3A312DD
:1058C300592974FE6A700374FF6B6010803A740385
:1058D3006C601A74046C70047AFE80B088828983C9
:1058E300E0640270089003BDE06402700E1259393F
:1058F3007001EB6006AA08AB09800DAA08AB0990FA
:105903000352125A47122733024FB1AA08AB0912A6
:105913005916221215A3EEF912159722EA240BF554
:1059230082EB3400F58312593322850E82850F836F
:10593300E0FAA3E0FB22125941121873EA22900302
:105943007EE0FCA3E0FDAA08AB092274F7120A5219
:10595300EAFEEBFF1212F7E9700AEEFAEFFB1213FD
:1059630003E96006EEFAEFFB80047AFE7BFF023F59
:105973001E74F2120A528A088B098C0A8D0BE9FEF7
:105983007F001217B3E979006003025A3DAA08ABFE
:10599300091273DF7002E5836017A3A3A3A3A3E037
:1059A300FA74026A704F9003BDE064027003025AF6
:1059B3003BAA08AB09900358125A47122733121314
:1059C300098A0C8B0DA80CA90DE87001E96069E840
:1059D3002405F582E9126B68A2E0505C750C01A204
:1059E300E1501C7901AC08AD09AA0AAB0B1214F5FE
:1059F300E9700F804374036A703E750C028003D212
:105A0300E1F0900371E0650A7004A3E0650B700E8A
:105A13007C1EEEF9AA08AB091214C50F801AA90C53
:105A2300AC08AD09AA0AAB0B1214F5E9700A0FEE24
:105A3300F9AA08AB09121549EFF902489EEEFAEFED
:105A4300FB900354125A4B22E0F8A3E0F5838882BB
:105A53002274E8120A5274F012106A8A148B158C9D
:105A6300088D097428121299E0F510A3E0F511903E
:105A730003FEE07002A3E060121273E57002E58397
:105A83006009A3E070057900025CB9E514241DF5F3
:105A930016E5153400F517851682125CD8A3E0F5D8
:105AA3000A88828983125E28FA88828983A3A3A342
:105AB300A3E0F9EAFEE9FFAA08AB0912154FE9FAD8
:105AC300125CE0E02AF50B530A78E514240BF50E7B
:105AD300E5153400F50F7808120FDB7D00125CCB5F
:105AE300121008E9FA74036A609CEA70407418554E
:105AF3000A7003025BD7E50AD2E0F50AA2E4500478
:105B0300D2E1F50AE50AF50D780D120FDF125CBE3E
