:020000040000FA
:1000000002002700000080FB120082B900030200FA
:10001000117582E8758300740012003375820375D0
:100020008300740012003375D0007581BF75C7005E
:10003000020008C4C0F0F5F0E5C75430C4C0E0E5E4
:10004000C754CF45F0F5C7D0F0E47385C7F053F03F
:10005000CFD0E0C445F0F5C722D083D082E5C7C435
:100060005403C0E0E493C0E0740193C0E0740293D1
:10007000C45430C0F0F5F0E5C754CF45F0D0F0F5EA
:10008000C722790122120059970000120059BE00C0
:1000900000120059DB000078007900801100000098
:1000A00004C3946440F7E82401F8E93400F9C3E894
:1000B00094E8E994035004740080E602004BC08287
:1000C000C083C290C291C294120085D290D291D2C4
:1000D00094120085D083D08202004B43C9A0E5C9A9
:1000E00043C950E5C902004B43FE13E5FE43F780C8
:1000F000C290C291C2947E00800412008B0EEEC3A7
:10010000940840F653C67FE59EA2E740FA43C9092A
:0E011000E5C9120091120091A2A040FC80F7F8
:0400000500000027D0
:00000001FF
