:020000040000FA
:1000000002002700000080FB120051B9000302002B
:100010001175827375830074001200337582037545
:100020008300740012003375D00075813F759F0006
:10003000020008C09FF59FE473D09F22D083D08236
:10004000C09FE493C0E0740193C0E0740293F59FF5
:100050002279012212003C5A000053F4FCE5F443DB
:10006000FE03E5FEC290C29175E40553C680E5C665
:1000700002003912005478007900A2C150FCC2C1BC
:10008000E82401F8E93400F9741E6870037400690B
:0C00900070E878007900B290B29180DE38
:0400000500000027D0
:00000001FF
