:020000040000FA
:1000000002006000000080FB120090B900030200B3
:100010004AE4900301780279018002F0A3D8FCD968
:10002000FA900302AA82AB83900093787B790180D7
:1000300015E493A3AC82AD838A828B83F0A3AA825A
:10004000AB838C828D83D8E9D9E775827D75831D5A
:1000500074001200727582037583007400120072BE
:1000600075D00075813F751001751103759F0002F1
:100070000008C09FF59FE473D09F22D083D082C038
:100080009FE493C0E0740193C0E0740293F59F2253
:10009000790122B2E2CAD420434332353330B5C4A9
:1000A000B5E7D4B4B5E7D1B9210D0A00252E3166E4
:1000B00056200D0A003333933F00000046000040F5
:1000C0004030313233343536373839414243444594
:1000D0004600286E756C6C20706F696E74657229AD
:1000E000003F3F3F000000803F00000000F9021584
:1000F00050B743BA510000204100E7DB2E0000A0BA
:100100004010000000080000000A00000012007B00
:100110005C1C0012007B811C0012007BA71C0012DB
:10012000007BC01C0012007BCB1C0012007BF41C67
:100130000012007B031E0012007B2C1E0012007BAD
:100140005A0C0012007B321100E066701008A3E028
:1001500066700A08A3E066700408A3E06622C3E79D
:10016000960809E7960809E7960809E796A2D26576
:10017000D03322080808E630E7111209AF12018BCC
:10018000080808C64480C618181822181818E979F3
:100190009EC608CAC608CBC608CCC6C370207996CE
:1001A000CACBCC7019798ECBCC70137986CC700EFB
:1001B000F9802ACA33CACB33CBCC33CC331930E7DE
:1001C000F2CCCBCA3350147004EA30E00DE4CA3AE2
:1001D000CACB3BCBCC3CCC500209C3E913C6CC18EC
:1001E0002313C6CB18C6CA18C6F92212022B20F058
:1001F0001430E72B74FFFCFBFA747F8022E4FCFBD5
:10020000FA7480801AB48008BC00F2BB00EF800F43
:1002100050EBF9E4C39AFAE49BFBE49CFCE499C636
:10022000CC18C6CB18C6CA18C6F922E4C9C608CA73
:10023000C608CBC6D3330308CCC63392F0C3947F31
:10024000402E94184019C9B90704CACBCC225025B6
:10025000C309CA33CACB33CBCC33CC33D9F422F461
:10026000600DC9CCC313CB13CBCA13CAD9F6CC22A9
:10027000E4FCFBFA2214FCFBFA22E6C3331846180E
:1002800046184622E7C33319471947194722181859
:1002900018E6084608700AE608C3337005E633F42A
:1002A000220822191919E7094709700AE709C33317
:1002B0007005E733F4220922E6084608C31346080E
:1002C000336002E633F422E7094709C313470933D1
:1002D0006002E733F4221202B860251202C76020E0
:1002E00012027A7003020284080808E76670101888
:1002F00019E766700A1819E76670041819E766228C
:10030000F4221202B8601C1202C7601712027A703F
:10031000071202847001D322C0D01202847006D06A
:10032000D0B322C32233D0D0501430E0F6C3E796C6
:100330000809E7960809E7960809E796B32220E03E
:10034000D5E6970809E6970809E6970809E697B3FE
:10035000221202B8601B1202C7601612027A7007DE
:10036000120284600CB322C0D01202847005D0D077
:1003700022C32233D0D0501330E0EBC3E7960809F4
:10038000E7960809E7960809E7962220E0E4E69751
:100390000809E6970809E6970809E697220012027D
:1003A000B8604F1202C76012E7548066F612028EE0
:1003B0007011120284703B090909F4F618F618F658
:1003C00018F6221202A3701512027A08080860EAD1
:1003D000E6447FF618768018E4F618F62212027AC0
:1003E00060161202847012E4F608F608F608E65465
:1003F00080F609090918181822EAC0E0EBC0E0EC01
:10040000C0E0EDC0E0E687F0A4FBACF008E687F0C2
:10041000A42CFCE435F0FA1809E687F0A42C4B6014
:10042000027401CA35F0FCE433FB09E687F0D2F729
:10043000A42CCB35F0FC1908E687F0A42BCC35F0C2
:10044000FBE433FD0819E687F0D2E7A42C4ACB354C
:10045000F0CD3400FC09E687F0D2E7A42DCC35F0CE
:10046000FDE433FA0918E687F0D2F7A42CCD35F075
:10047000CA3400FC08E687F0D2E7D2F7A42ACC35CC
:10048000F07A7E20E70B0ACB33CBCD33CDCC33CC07
:1004900033CB3350147004ED30E00ED2F1E4CD3D97
:1004A000CDCC3CCC3B5005DA05C2F1EB547FC633D2
:1004B00008E63392F0FBE73309E733C39A502D2B5C
:1004C00070190C0D4C4D70151806E608C333700DED
:1004D00020F10AA2F013F6E418800B4024E4F63071
:1004E000F002768018F618F618F68024D33B1450E4
:1004F0001074FFA2F013F6187680E418F618F68050
:100500000FA2F013F618E63303F618ECF618EDF622
:10051000D0E0FDD0E0FCD0E0FBD0E0FA221202C730
:1005200060461202B8603DE9687008F618F618F6E1
:1005300018F622748067F71205510909097480675B
:10054000F7221202B8601D1202C77005191919802E
:100550001A12028E701F1202A3C37003E6673319CA
:10056000191940071818182208080874FFF618F619
:1005700018F618F6221202A3601712028470219254
:10058000F012027A7019501720F0140808080909AF
:1005900009E7F61819E7F61819E7F61819E7F62229
:1005A00012027A60E6E869701F0808E62480F608FF
:1005B000E436F618547FB47F0CE654806007F6E406
:1005C00018F618F622181822E9C6CC08C6CD08C6B7
:1005D000CE08C6CFC0E0E8C0E0EAC0E0EBC0E0096A
:1005E000E9F809E7FA09E7FBE6F918E6F8C3EC9839
:1005F000ED99EE9AEBC2E7F5F0EFC2E795F0500EF9
:10060000600CEBCFFBEACEFAE9CDF9E8CCF8EAA230
:10061000E7D2E7FAEB33FB13F5F0EEA2E7D2E7FE01
:10062000EF33FFC5F013A2E730E601B313C5F0C303
:10063000C0E0C0F07F00C39BFB605B9418600C407F
:100640001AD0E023F9D0E0F80207208AF0E94860E8
:1006500003D2F0E4AFF0FAF9F8803BEB30E40D8917
:10066000F0EA6003D2F0E4AFF0F9CAF8EB30E30D42
:1006700088F0EF6002D2F0AFF0E4CAC9F8EB54079B
:100680006014FBC3EA13FAE913F9E813F8EF135007
:1006900002D2E0FFDBEDD0E0C0E030E739C3E49FF9
:1006A000FFF5F0EC98FC42F0ED99FD42F0EE9AFE79
:1006B00042F0D0E0F9D0E0F8E5F0607AE923F9EE15
:1006C00020E742D8028067C3EF33FFEC33FCED3301
:1006D000FDEE33FE80EAEC28FCED39FDEE3AFED06B
:1006E000E023F9D0E0F84002801BC3EE13FEED13C7
:1006F000FDEC13FCEF135002D2E0FF08B800067FB8
:100700007F74FF802EEF3350178CF020F0026010C2
:100710000CBC000C0DBD00080EBE000408E860DF34
:10072000E933E813FFEE2313FE4F4D4C8008E954E4
:1007300080FFE4FEFDFCEE33EF33F47004FCFD7E3D
:1007400080D0E0FBD0E0FAD0E0F8D0E0CFC618CE01
:10075000C618CDC618CCC6F9221202B870041818F3
:1007600018221202C7700D74FFF61819F61819F640
:100770001819F622E7548066F612027A700F1202F8
:100780008470F014F608F608F608F680D112028498
:10079000700CF608F608768008E6447F80EC1202BA
:1007A000A6700C12029160BFE65480F6E480BB1282
:1007B0000291700519191980A5E869700C763F1827
:1007C000768018F618F6E8F922E6CDC0E018ECC0FD
:1007D000E0E633CD33CDD313F6E719FCE71919332F
:1007E000CC33C3947F400ECD9D502408E65480F650
:1007F000E418F6800FF4043D14501408E6447FF624
:10080000187680E418F618F6D0E0FCD0E0FD22CC93
:10081000D313CCFD18E4C6CBC0E018E4C6CAC0E0D0
:100820000808ED08C633E613F618E433C675F0037E
:10083000C3CA97CA09CB97CB199C40047D08802E68
:10084000BD000302090216B6FF050606081618C306
:10085000CA33CACB33CB33CA27CA09CB37CB193CEF
:10086000C37D08803E187D0820E75CC633C6CA33C6
:10087000CACB33CB33DDF1D5F0EB30E77BCA97CA77
:1008800009CB974ACB199C406F4B7025E620E0219D
:100890008066187D08C3CA97CA09CB97CB199CD329
:1008A000C633C6CA33CACB33CB3350C9DDE7D5F024
:1008B000E1D3E4C636C608C636C608C636C608C67C
:1008C00036C61818188031C3CA97CA09CB97CB19F6
:1008D0009CB34097C633C6CA33CACB33CB33DD345F
:1008E000D5F02EC6A2E0C640C8CA27CA09CB371920
:1008F0004A70BECB3CB480B90808E63308E63360E2
:100900001F181818D0E0FAD0E0FBD0E0FCD0E0FDD2
:1009100022187D08CA27CA09CB37CB193CD380805F
:1009200013F618E4B67F11F618B6FF0EF618C604D3
:1009300070D20808768080CAF618F618F680C5E4EA
:10094000CFC0E0E4CEC0E0E4CDC0E0E4CCC0E075D0
:10095000F020C3E633F608E633F608E633F608E699
:1009600033F6181818EC33FCED33FDEE33FEEF339D
:10097000FFC3EC9709ED9709EE9709EF971919193D
:10098000400FFFEC97FC09ED97FD09EE97FE191952
:1009900006D5F0BEECF709EDF709EEF709EFF71908
:1009A0001919D0E0FCD0E0FDD0E0FED0E0FF221825
:1009B0001818E4C396F608E496F608E496F608E4F8
:1009C00096F622E0F608A3E0F608A3E0F608A3E016
:1009D000F622E6F008A3E6F008A3E6F008A3E6F0A6
:1009E00022CAC0E0E6F0A308DAFAD0E0FA22CAC0D0
:1009F000E0E0A3C582CCC582C583CDC583F0A3C585
:100A000082CCC582C583CDC583DAE6D0E0CA22C3D5
:100A1000E498F8E499F9120A508026C3E49AFAE4BB
:100A20009BFBE920E7E9120A50E498F8E499F922DF
:100A3000C3E498F8E499F9120A50E498F8E499F9B3
:100A4000C3E49AFAE49BFB22EB20E7CFE920E7E03E
:100A5000B90010BB0008E88AF084F8AAF022E4FB91
:100A6000C8FA22EB70227B10C833C8C933C933508F
:100A700007C39AC3DBF280069A50012ADBEAC83327
:100A8000F4C8C933F4C9FA2275F008E4C833C8C9F8
:100A900033C933C99AC99B5004C92AC93BD5F0EC64
:100AA000FBC833F4C8E4C9FA22700422600D18C6EA
:100AB000C333C608C633C6D5E0F41822251010AFDC
:100AC00008F510400215118008F51040021511D2EA
:100AD000AF22C0D0251010AF08F5105002051180CC
:100AE00008F51050020511D2AFD0D0222510F582A2
:100AF00010AF08F510400215118008F510400215DE
:100B000011D2AF851183222510F582E43511F583CA
:100B100022E4732510C582C0E0E51134FFC583C00F
:100B2000E0E510C3958224F8F8E4C5A88583118513
:100B30008210C5A8E8CEF0A3E520F0A37808E60867
:100B4000F0A3DEFAEFF0A3E58124FAF8E608F0A3BB
:100B5000E608F0A3E608F0A30808E608F0A3E60814
:100B6000F0A315811581D0E0FED0E0F81581158144
:100B70001581E8C0E0EEC0E022851183851082E097
:100B8000A3FEE0A3F5207808E0A3F608DFFAE0A3CF
:100B9000FFE0A3C0E0E0A3C0E0E0A3C0E0E0A3C0AA
:100BA000E0E0A3C0E0E4C5A8858210858311C5A854
:100BB000D083D082020078740480067402800274AC
:100BC00001C0E0F404120AECD0E01209E122740240
:100BD0008000CCC0E0EDC0E0E510C39CCCAD11506E
:100BE000011D10AF068C108D1180068C108D11D256
:100BF000AF1209EED0E0FDD0E0FC22D083D082CC51
:100C0000C0E0E493A36006120C251470FAE493A3E9
:100C10006006120C441470FAD0E0FCE493A3C0E028
:100C2000E493C0E022C0E0E493A3D39C5010E4938B
:100C3000A3C39C400AD0E0D0E0D0E0020C18A3A3EC
:100C4000A3D0E022C0E0E493A36C7009D0E0D0E030
:100C5000D0E0020C18A3A3D0E02274F0120B13749E
:100C6000FD120ABC7402120B07E9F08A088B098C8A
:100C70000A8D0B7415120B07E0FCA3E0FD851082B2
:100C8000851183E4F0A3F0900354780C1209C37823
:100C900008790C1203025003020D38900358780CA7
:100CA0001209C37808790C1202D66003020D8C7405
:100CB00017120B07E07003020DCE85108285118399
:100CC000C082C0837413120B07121B3ED083D082E4
:100CD0001210C2502C851082851183C3E094FCA3AE
:100CE000E094FFA2D265D03340177402120B07E4E0
:100CF000121BFEF97413120B07C3E098F0A3E099DE
:100D0000F07413120B071211007418120B07E07025
:100D100003020DCB7417120B07E4020DCD90035C98
:100D2000780C1209C37808790C120759851082854E
:100D30001183E0240A121C3B900360780C1209C353
:100D40007808790C12030240D4900364780C1209DD
:100D5000C37808790C1203024003020CAF900364BD
:100D6000780C1209C37808790C120759121C3280CA
:100D7000D890035C780C1209C37808790C12039D93
:100D8000851082851183E024F612110390036878A0
:100D90000C1209C37808790C12035140D490035403
:100DA000780C1209C37808790C1203514003020C25
:100DB000AF900364780C1209C37808790C12039D74
:100DC00085108285118312110080D27401F07402A3
:100DD000120B07E060077A007B00020ECC1210D3E2
:100DE000506D1210F1120B07E0FEA3E0FFEE700150
:100DF000EF70087418120B07E0600B742E8C828D54
:100E000083F0A30CAD837A007B0080091210F112ED
:100E10000B07121100EA24FF1AEB34FFFB85108246
:100E20008511831210B6500C7413120B07E0700278
:100E3000A3E070D885108285118374FFC39EF87477
:100E4000FF9FF91210C25003020F9B7A018089851F
:100E50001082851183121B3EC3E498FAE499FB804B
:100E60006B85080C85090D850A0E850B0F780C1211
:100E700001EBAE0CE50D3395E0F50EF50F780C1295
:100E800001737808790C12051D900364780C12091F
:100E9000C37808790C12039DEE1210E4EAF8EBF91E
:100EA0007401280AE439FBE87001E9701F74131219
:100EB0000B07E07002A3E070087418120B07E060E3
:100EC0000B742E8C828D83F0A30CAD837413120BE4
:100ED000071210B6508B90036C780C1209C3780877
:100EE000790C1203024003020F9B7E01EC24FFF8F1
:100EF000ED34FFF97415120B07E0F508A3E0F509CE
:100F000088828983E0642E6010E02EF0643A7007D6
:100F10007430F07E0180027E00E8FAE9FBEA24FFEB
:100F200018EB34FFF9C3E5089AE5099B40D2EE704F
:100F300001E460677402120B07E06036ECF8ED80A4
:100F40000A1210A1E824FF18E934FFF9C3E5089854
:100F5000E50999501812108EE0642E70E4E824FE22
:100F6000F582E934FFF58312109BF980D7121C3209
:100F7000801E8C828D83A3AC82AD83ECF8ED80065D
:100F800012108E12109BF9C3E50898E5099940F0FC
:100F90007415120B071210CE7431F07417120B0770
:100FA000E07005801A1CAD83EC24FFF582ED34FF60
:100FB000F583E0643060EEE0642E70031CAD837452
:100FC00002120B07E070030210761210E6A3A98349
:100FD0001210D35018742D8C828D83F00CE9FD858E
:100FE0001082851183121B6812110E800A742B8CDB
:100FF000828D83F00CE9FD7E007F00EC240AFCED7D
:101000003400FDEE24010EEF3400FF1210A8120A86
:1010100048EA1210E41210A8120A4812111B7002BA
:10102000A3E070DFC3EE940212108540D6EEFAEF13
:10103000FBC3E49EF8E49FF9EC28F582ED39F583D3
:10104000E0C0E0C3E49AF8E49BF9EC28F8ED39F944
:10105000EE28F8EF39F974F528F58274FF39F58335
:10106000D0E0F0121AEBEE940112108550C3EC247C
:10107000F6FCED34FFFDECFAEDFB7403120AD27FAF
:1010800008020B79C3EF9400A2D265D03322E82482
:10109000FFFAE934FFFB8A828B83221210A118EB3E
:1010A00022E088828983F022851082851183121BB9
:1010B000D67A0A7B0022C3E09AA3E09BA2D265D035
:1010C0003322C3E098A3E099A2D265D03322E01284
:1010D0001B6022851082851183C3A3E09400A2D2F5
:1010E00065D0332224308C828D83F0A3AC82AD8313
:1010F0002274308C828D83F0A3AC82AD8374132272
:10110000E024FFF0A3E034FFF022A3E03400F985EF
:101110001082851183E8F0A3E9F022851082851101
:101120008312112522E8F0A3E9F08510828511834E
:10113000E02274F0120B1374B0120ABC8510828581
:101140001183121BE47418120B07ECF0A3EDF0747A
:101150000F120B07E4F0A380227460120B07121B1E
:101160002E7404120B07E0F97418120B071210CE3C
:10117000120B11740F120B07121AF5F0121B9BFAC7
:10118000121C1D120B07EAF074256A6010E070C98A
:10119000740F120B07121B2E745002107C121B9B33
:1011A00064257019851082851183E02401081211CD
:1011B0000A7460120B07121B2E792580AB740E1275
:1011C0000B07E4F0740D120B07E4F0740C120B071C
:1011D000E4F07405120B07E4F0741E120B07A882EA
:1011E000A9837402120B07800E7405120B07E060CE
:1011F00026851082851183121121121B25121B884E
:10120000FA120BFB000520E9112329122B17122DCE
:101210002012302D1231127405120B07EAF080D122
:10122000740C120B07E00480F4740D80F5740E80CA
:10123000F1121B88642A705B7462120B07121B93F5
:10124000FB8A828B83E0FCA3E0FD740A120B07EC9F
:10125000F0A3EDF0EA24020A0AEB3400FB746212F8
:101260000B07121BDC740A120B071210D9501F74E3
:101270000A120B07121B2EC3E49AFAE49BFB740AB2
:10128000120B07121BE4740C120B07E004F012118E
:101290000F804C740A120B07E4F0A3802F740A121B
:1012A0000B07121B3EE875F00AA4F8AAF075F00AC5
:1012B000E9A42AF9E82508F8E93400F974D028F8F7
:1012C00074FF39F9740A120B07121C42121BFEF547
:1012D000838882E0F50874D02508C3940A40BE7460
:1012E0000C120B07E06007740E120B07E4F0121BE0
:1012F0009B642E600302137E851082851183E02497
:101300000108A3E03400F912111B1210CFE0642A87
:10131000702C7462120B07121BA1F8A3E0F98882EB
:101320008983E0FEA3E0FFE824020808E93400F91D
:101330007462120B07121B7B121C42F080447E0069
:101340007F00121B9BF50874D02508C3940A503205
:10135000EE75F00AA4FEAAF075F00AEFA42AFFEEDB
:101360002508F8EF3400F974D028FE74FF39FF85A2
:101370001082851183E02401F812110A80C47EFFD7
:101380007FFF7A00851082851183121B20851082D1
:10139000851183E0FBA3E0F5838B82E0120BFB0059
:1013A000034CAC1368AD136CAC13B0130A12110FDD
:1013B000121B9BFB121C1D120B07EBF0120BFB0008
:1013C00010009719455318472E1858521563531497
:1013D00064FF15655318664C18672E1869FF156E63
:1013E000F3136F4015705215738C147552157852A3
:1013F00015A3197462120B07121BC9120B071211E5
:1014000015EA6035740F120B07E0FCA3E0FD33957D
:10141000E0FE7406120B07121BAAECF0A3EDF0A37A
:10142000EEF0A3F07462120B07121BB1120B07123D
:101430001B7BE8F0A3E902117B740F120B07121B50
:101440003E7406120B07121B93F5838A82E8F0A301
:10145000E980D07462120B07121BAAE0C0E0741E70
:10146000120B07D0E0F07462120B07121BB1120BC3
:1014700007121B7B121115741F120B07A882A98378
:101480007412120B07E8F0A3E90219BA7462120B86
:1014900007121BC9120B071211157406120B071243
:1014A0001BC9120B07E02402FAA3E03400FB7462AC
:1014B000120B07121BDC7402120B07121115E870D5
:1014C00001E9700C7402120B077441F0A37403F06D
:1014D00012108450047E107F277408120B07E4F06A
:1014E000A380087408120B07121AF5F07402120B8D
:1014F00007121B3E88828983A3AA82AB83740212DF
:101500000B07121BE488828983E0600A7408120BBF
:1015100007121B4240CD7402120B07121B0E7412ED
:10152000120B071211157408120B07121B68F974BD
:1015300012120B07E028F8A3E039F97402021482B2
:10154000740D120B07E0600AEE7001EF70047E016B
:101550007F007462120B07121BC9120B07121C2AA0
:10156000120B07E06470703C7406120B07121BBF6D
:10157000120B07121C05120B07E02402121B721239
:101580000B07121B7B12111590037078081209C308
:10159000741A120B0778081209D27405120B07E4AB
:1015A000F002169CEA60217406120B071210CE7826
:1015B000081209C37414120B0778081209D27406B2
:1015C000120B07E0240480147406120B07121BBFD1
:1015D000120B07121C05120B07E02402121B7212D9
:1015E0000B07121B7B121C2A120B07E0646F70059D
:1015F0009003748096E06475708E900378808C748C
:1016000062120B07121BC9120B07121115EA6018A0
:101610007406120B071210CE780C1209C37406124E
:101620000B07E02404F8801F7406120B07121BA19D
:10163000F50CA3E0F50D3395E0F50EF50F740612E9
:101640000B07E024020808121B73120B07121C126E
:10165000120B07780C1209D290035878081209C3AC
:101660007808790C12015E50217405120B07742D55
:10167000F07414120B0778081209C378081209B223
:101680007414120B0778081209D2900378780812A4
:1016900009C3741A120B0778081209D2744F120B7F
:1016A00007A882A9837402120B0712111574121273
:1016B0000B07121C15120B07C082C08390035878C9
:1016C000081209C3D083D0827808120149600974D6
:1016D00011120B07740180067411120B07E4F0EE6F
:1016E0007001EF7006E070030217A37402120B077B
:1016F000121B52120B07121C15120B07780C120941
:10170000C3741A120B0778081209C3780C790812EF
:10171000093FE5082430F582E5093403F583E0C08C
:10172000E07402120B071210CED0E0F07414120B0A
:1017300007780C1209C3741A120B0778081209C330
:10174000780C790812093F7414120B07780C1209EF
:10175000D27414120B07C082C08390035878081209
:1017600009C3D083D082780812014960030216EBC6
:10177000121084502E740E120B07E06026740512AE
:101780000B07E06004D2F08002C2F0740A120B076B
:10179000121AFE800E7402120B07121BF6120B07B0
:1017A000121B587402120B07121B0E744F120B07F8
:1017B000C082C0837402120B07121B2ED083D0820A
:1017C000E582C39AFAE5839BFBC3EA9EEB121B4BAF
:1017D00040C3740D120B07E070030219BB741112A1
:1017E0000B07E070030219BB7404120B07E0647866
:1017F0006005E06458701E1210A1E824FF18E93457
:10180000FFF97402120B07121BF6120B071210CE0F
:1018100074300219BAE0646F60030219BB740212DB
:101820000B07121B8E643070030219BB80D474083E
:10183000120B077401F0A3E4F07404120B07E02408
:10184000FEF0EE7001EF70147E0180177404120B2D
:1018500007E4F07408120B07E4F0A3F012108450B0
:10186000047E067F007462120B07121BC9120B075D
:101870001211157406120B071210CE780C1209C340
:101880007406120B07E02404121B72120B07121CC1
:1018900012120B07780C1209D2900358780812091B
:1018A000C3780C790812035150227405120B077487
:1018B0002DF07414120B0778081209C3E50BB2E778
:1018C000F50B7414120B0778081209D2740A120B64
:1018D00007121B3E741E120B07E58228F8E58339B8
:1018E000F97402120B07121115740D120B07E0F5B3
:1018F000087808120BBF7409120B07E0F508780886
:10190000120BBF7404120B07120BCE8E088F0978CE
:1019100008120BBB740A120B07E0F9741A120B07BA
:1019200078081209C3AA08AB09AC0AAD0B12013D35
:101930007406120AD27412120B07121BE4740E12F0
:101940000B07E060767405120B07E06004D2F080AC
:1019500002C2F0740A120B07121AFE7412120B075D
:10196000C082C0837402120B07121B3ED083D08248
:10197000E0C398F8A3E099F9C3E89EE9121B4B5025
:101980003A7402120B07121B52120B07121BF612AB
:101990000B07121B5880C4851082851183121B17F8
:1019A00012110E7402120B077450F0A37403F0743A
:1019B00012120B077453F0A37403F07412120B0786
:1019C000C082C0837402120B07121B3ED083D082E8
:1019D000E0C398FEA3E099FF740A120B07121B42A2
:1019E000500A7408120B07E4F0A380327405120B3E
:1019F00007E06004D2F08002C2F0740A120B07E024
:101A0000C39EF8A3E09FF9A2F0E492E0FAE8C39A3B
:101A1000F8E99400F97408120B07E8F0A3E9F074F0
:101A20000C120B07E0702B80197460120B07121B4D
:101A300034120B071210CE120B11740F120B071277
:101A40001C387408120B07121BEA120B071210D96C
:101A500050D77405120B07E060507460120B071228
:101A60001B2E7405120B07E0F97418120B071210E5
:101A7000CE120B11802C7460120B07121B2E7402F5
:101A8000120B07121BA1F97418120B071210CE12B9
:101A90000B117402120B07121B207402120B071297
:101AA0001115740F120B07121C38121AEB12108644
:101AB00050C4740C120B07E0700302117C740812FE
:101AC0000B07121BEA120B071210D9500302117CEC
:101AD0007460120B07121B34120B071210CE120B7C
:101AE00011740F120B07121C3880D2EE24FF1EEF68
:101AF00034FFFFC322E02401F0A3E0340022A2F06F
:101B0000E492E0F8E0C398FEA3E09400FF22121BE9
:101B10001222121B17F922E024FFF8A3E034FF225F
:101B2000E0121B25222401F8A3E03400F922E0FA98
:101B3000A3E0FB22E0FAA3E0FB7920741822121B39
:101B4000D622C3E09EA3E0121B4B229FA2D265D0F7
:101B50003322121B12740222121B5F7430F022E037
:101B6000F8A3E0F583888222121BD6C3E498F8E438
:101B70009922F8A3E03400F9746222121B7F22E05C
:101B8000FAA3E0F5838A8222851082851183121BD5
:101B90007FE022121B7FE0FAA3E0228510828511EC
:101BA00083121BA522121B5FE022121BA5121B60D1
:101BB00022121BA52402F8A3E03400F97462221259
:101BC0001BCFE8FAE9FB741422121BCF7406221211
:101BD0001B5F121BD622E0F8A3E0F922E0FCA3E091
:101BE000F5838C82EAF0A3EBF022E024FFF0A3E07F
:101BF00034FFF0740822E8F0A3E9F0740222121115
:101C000029F8A3E022EAF0A3EBF0A3E4F0A3F07438
:101C10000622121B7FE8F0A3E9F0741422851082DB
:101C2000851183E0240108121C50E8F0A3E9F07448
:101C30000422851082851183E02401F0A3E03400A2
:101C4000F0221211252401F8121C50E8F0A3E92219
:101C5000A3E03400F9851082851183227800790091
:101C6000801100000004C394F040F7E82401F8E973
:101C70003400F9C3E89AE99B5004740080E802003C
:101C800078740169700C53C680E5C643C649E5C641
:101C90008008E9700553C680E5C6E5C6FAE59EFBF7
:101CA000EA6B70F902007875F10075F33C75C2D8E3
:101CB00075C50B43868043C480C2E9D2AF02007869
:101CC00089C1A2E950FCC2E902007874F7120B1333
:101CD000EAFEEBFF80128E828F83E0F912011F8EE5
:101CE000828F83A3AE82AF838E828F83E070E77F83
:101CF00001020B7974F0120B1375B63F43B430E553
:101D0000B443B440E5B4A2E750FAE5BA1313543F24
:101D1000F50875090085BB0A750B007406780A1270
:101D20000AA9E50A4508F508E50B4509F509C3E5E3
:101D3000089400E5099400A2D265D03350067508D6
:101D400000750900E5093395E0F50AF50B780812EE
:101D50000173900324780C1209C37808790C1203DC
:101D60009D900328780C1209C37808790C12075942
:101D7000AA08AB09AC0AAD0B7F08020B7974FF12FD
:101D80000ABC43FE017901120113120119900301EB
:101D9000C082C083851082851183AC82AD83D083DD
:101DA000D08274011209EE7A027B03120125D290CF
:101DB00012012B8A088B098C0A8D0B90032C780C4E
:101DC0001209C37808790C12039D7808120BB77CAE
:101DD0001B7D037404120B07AA82AB8312013774B4
:101DE00004120AD2851082851183AA82AB83120164
:101DF00025C2907A507BC312010D7A507BC3120129
:101E00000D80AB74F7120B138A828B83121E99E933
:101E1000F08A828B83E02401FCA3E03400FD8A82F7
:101E20008B83ECF0A3EDF07F01020B7974F6120BBB
:101E30001374FC120ABC7402120B07EAF0A3EBF055
:101E4000ECFAEDFB740E120B07A882A983851082B1
:101E5000851183E8F0A3E9F08510828511838582DE
:101E6000088583097808120BBB7404120B0785825E
:101E7000088583097808120BBB7C317D0112014370
:101E80007404120AD27402120B07121E99E4F07441
:101E900004120AD27F02020B79E0F8A3E0F58388EE
:021EA00082229C
:040000050000006097
:00000001FF
