:020000040000FA
:030000000200E318
:03001300020721C0
:0300330002064B77
:03003B0002078138
:03006B000205216A
:03007B000205B6C5
:100083000206E000000080FB120113B90003020026
:10009300CDE490030178B579038002F0A3D8FCD9AD
:1000A300FA9005B5AA82AB83900116782479018072
:1000B30015E493A3AC82AD838A828B83F0A3AA82D7
:1000C300AB838C828D83D8E9D9E775829475830ECF
:1000D30074001200F575828675830074001200F5B2
:1000E30075D00075813F751001751103759F00026E
:1000F300008BC09FF59FE473D09F22D083D082C032
:100103009FE493C0E0740193C0E0740293F59F22CF
:10011300790122FF00000000000000000000000041
:10012300000000B00400005A4947424545205445A9
:1001330053540D0A00011200FEE807001200FE8D61
:1001430008001200FEEE08001200FE0D0A00120065
:10015300FE9A0A001200FE320B001200FE420B0050
:100163001200FEF10B001200FE510F001200FED62A
:100173000F001200FE4110001200FE461000120094
:10018300FE0C10001200FE940F001200FEA40F00DC
:100193001200FE050C001200FE340C001200FE39A2
:1001A3000C001200FE4F0C001200FE640C00120043
:1001B300FE790C001200FEA50C001200FEC90C0013
:1001C3001200FEDA0C001200FEE30C001200FEEC3B
:1001D3000C001200FE010D001200FE160D001200AD
:1001E300FE360D001200FE490D001200FE5A0E00ED
:1001F3001200FEDE0E001200FE090F00E49366708B
:10020300130874019366700C0874029366700508F2
:100213007403936622C3E493960874019396087457
:10022300029396087403939622E0F608A3E0F60877
:10023300A3E0F608A3E0F622E6F008A3E6F008A39D
:10024300E6F008A3E6F022CAC0E0E6F0A308DAFA73
:10025300D0E0FA22700422600D18C6C333C608C664
:1002630033C6D5E0F41822C0D0251010AF08F5101E
:10027300500205118008F51050020511D2AFD0D0FD
:10028300222510F58210AF08F510400215118008E1
:10029300F51040021511D2AF851183222510F58286
:1002A300E43511F58322E4732510C582C0E0E5111E
:1002B30034FFC583C0E0E510C3958224F8F8E4C594
:1002C300A8858311858210C5A8E8CEF0A3E520F0A8
:1002D300A37808E608F0A3DEFAEFF0A3E58124FA99
:1002E300F8E608F0A3E608F0A3E608F0A30808E69A
:1002F30008F0A3E608F0A315811581D0E0FED0E055
:10030300F8158115811581E8C0E0EEC0E022851162
:1003130083851082E0A3FEE0A3F5207808E0A3F62E
:1003230008DFFAE0A3FFE0A3C0E0E0A3C0E0E0A39E
:10033300C0E0E0A3C0E0E0A3C0E0E4C5A88582106C
:10034300858311C5A8D083D0820200FBC0D02510BD
:10035300C582C0E0E51134FFC583C0E0E510C39555
:100363008224F310AF08858311858210800885836A
:1003730011858210D2AFC8F0A3E9F0A3EAF0A3EB92
:10038300F0A37908E709F0A3D8FAECF0A3EDF0A302
:10039300EEF0A3EFF0A3D0E0F0A3D0E0F0A3D0E021
:1003A300F0A3E520F0A3E5F0F0A3228511838510E7
:1003B30082E0C0E0A3E0F9A3E0FAA3E0FBA378089E
:1003C300E0F608A3DFFAE0FCA3E0FDA3E0FEA3E070
:1003D300FFA3E0C0E0A3E0C0E0A3E0F5D0A3E0F515
:1003E30020A3E0A3F5F0E4C5A8858311858210C599
:1003F300A8D082D083D0E0F8D0E03274028000C06D
:10040300E0F404120284D0E012024A22D083D082A4
:10041300C5F0E493A3C5F0C395F0F5F0E493A3C34B
:1004230095F04005E5F0048001E475F002A425820F
:10043300F582E5F03583F583E493A3C0E0E493C04C
:10044300E022D083D082ECC0E0EDC0E0EEC0E0EF6C
:10045300C0E0E493A3FCE493A3FDE493A3FEE4933D
:10046300A3FFEF4E4D4C60151204C1EC24FFFCEDCD
:1004730034FFFDEE34FFFEEF34FFFF80E5E493A38A
:10048300FCE493A3FDE493A3FEE493A3FFEF4E4D9B
:100493004C60151204FEEC24FFFCED34FFFDEE343A
:1004A300FFFEEF34FFFF80E5D0E0FFD0E0FED0E0B9
:1004B300FDD0E0FCE493A3C0E0E493C0E022C0E0FD
:1004C300C0F088F0120218A8F040071201FFA8F04C
:1004D300701AA3A3A3A3120218A8F0A3A3A3A34073
:1004E30013D0F0D0E0D0E0D0E00204ABA3A3A3A3E9
:1004F300A3A3A3A3A3A3D0F0D0E022C0E0C0F088BD
:10050300F01201FFA8F0A3A3A3A3700BD0F0D0E0D7
:10051300D0E0D0E00204ABA3A3D0F0D0E022C0E04F
:1005230074F112034FC2C5E58970030205B17E0061
:100533008076750801750900EE7808120257AF0836
:10054300E5895F6062EEF87900E875F002A4C8AA55
:10055300F075F000A42AFA75F002E9A42AF9E82458
:10056300FDF582E93403F583E064007004A3E064DD
:1005730000602EEEF87900E875F002A4C8AAF075C1
:10058300F000A42AFA75F002E9A42AF9E824FDF59B
:1005930082E93403F583E0F8A3E0F583888212024D
:1005A300A9EFF45589F5890EEEC3940840847F02C0
:1005B3000203AEC0E074F112034FC2EBE58A70038D
:1005C3000206467E008076750801750900EE7808FC
:1005D300120257AF08E58A5F6062EEF87900E875AA
:1005E300F002A4C8AAF075F000A42AFA75F002E993
:1005F300A42AF9E8240DF582E93404F583E06400C4
:100603007004A3E06400602EEEF87900E875F00250
:10061300A4C8AAF075F000A42AFA75F002E9A42A86
:10062300F9E8240DF582E93404F583E0F8A3E0F555
:100633008388821202A9EFF4558AF58A0EEEC394D9
:100643000840847F020203AEC0E074F112034FC27C
:10065300E8E58B70030206DB7E0080767508017582
:100663000900EE7808120257AF08E58B5F6062EE6F
:10067300F87900E875F002A4C8AAF075F000A42A7E
:10068300FA75F002E9A42AF9E8241DF582E9340495
:10069300F583E064007004A3E06400602EEEF87953
:1006A30000E875F002A4C8AAF075F000A42AFA7550
:1006B300F002E9A42AF9E8241DF582E93404F5835C
:1006C300E0F8A3E0F58388821202A9EFF4558BF5D5
:1006D3008B0EEEC3940540847F020203AEC0E07428
:1006E300F212034FA2AFE492E0FEC2AFE5E9A2E645
:1006F3005022900427E064007004A3E06400600EBD
:10070300900427E0F8A3E0F58388821202A9759B81
:100713000053E9BFEEA2E092AF7F010203AEC0E057
:10072300C0D0E8C0E0E9C0E0EAC0E0C082C083E531
:10073300C1C0E09004AAE079002429F582E93404D9
:10074300F583D0E0F09004A9E0FA9004AAE06A707F
:1007530006E5959004ABF09004AAE024019004AA66
:10076300F0C39480400674009004AAF0D083D08232
:10077300D0E0FAD0E0F9D0E0F8D0D0D0E032C0E059
:10078300C0D0EAC0E0C008C009C082C08390052C75
:10079300E0FA90052DE06A700B539AFB7401900503
:1007A3002EF08031C2E990052CE0F508740125088C
:1007B30090052CF0750900E50824ACF582E50934B1
:1007C30004F583E0F5C190052CE0C39480400674E2
:1007D3000090052CF0D083D082D009D008D0E0FA65
:1007E300D0D0D0E03274F71202ABE9FEEAF8EBF9AD
:1007F300E8FAE9FB740B2E8A828B83F0900308E0FE
:10080300F8A3E0F5838882A3A3A3A3A3E0600678FB
:10081300617988800478417988E88A828B83A3F0A0
:10082300E98A828B83A3A3F0900301E08A828B83FE
:10083300A3A3A3F0900308E0F8A3E0F5838882A3C1
:10084300A3E0F8A3E0F98A828B83A3A3A3A3E8F030
:10085300A3E9F08A828B83A3A3A3A3A3A3ECF0A3AE
:10086300EDF0900308E0F8A3E0F5838882E0F8A3B5
:10087300E0F98A828B83A3A3A3A3A3A3A3A3E8F092
:10088300A3E9F0790A7F0102031174F21202ABECBF
:10089300FEEDFF8908A908EAFCEBFD7A0A7B031247
:1008A3000139E9FB7A0080348A0A750B00EE250AC8
:1008B300F582EF350BF583E0C0E08B0A750B008AF8
:1008C3000C750D00E50C250AF8E50D350BF9E82448
:1008D3000AF582E93403F583D0E0F00AEAC3950808
:1008E30040C6E5082BF97F0602031174F71202AB29
:1008F3007E7D7F031201CF1201757901EEFAEFFBC2
:100903001201B78E828F83E0C2E7F08E828F83E07D
:10091300640570538E828F83E0F97A7E7B03120124
:10092300B78E828F83A3E0A2E55004D2F08002C287
:10093300F0A2F0E492E09005BDF07881790388821B
:100943008983A3E0A2E74003020A028E828F83A376
:10095300A3A3E0FA900301E06A6003020A027401B0
:10096300900302F0020A028E828F83E024F5900541
:10097300BAF08E828F83E0F97A7E7B031201B78E01
:10098300828F83A3E0A2E55004D2F08002C2F0A2DA
:10099300F0E492E09005BDF08E828F83A3A3A3A31E
:1009A300A3A3A3A3E0F8A3E0F99005B6E8F0A3E9B5
:1009B300F09005BB7487F0A37403F09005BAE0F8D8
:1009C3003395E0F99005BBE028F8A3E039F9888274
:1009D3008983E09005BEF088828983A3E0A2E75073
:1009E300128E828F83A3E054DF64417006740190FA
:1009F30005BFF08E828F83A3A3A3E09005B5F01209
:100A0300017B1201D57F0102031174F41202ABEAD8
:100A1300FEEBFF120193E964017004790180731204
:100A2300017B900308EEF0A3EFF09005BB7400F098
:100A3300A37400F07401900303F09005C1780812C9
:100A4300022C900304780812023B900308E0F8A3F9
:100A5300E0F5838882A3A3A3A3E0F912019F900387
:100A630008E0F8A3E0F5838882E0FAA3E0FB120133
:100A7300A5900308E0F8A3E0F5838882A3A3E0FA36
:100A8300A3E0FB1201AB7A457B011201DB12017576
:100A930079007F0402031174F41202ABEAFEEBFF48
:100AA3008C0A8D0B8908900303E070031201C3E5E0
:100AB30008C394675005850809800375096785098C
:100AC300081201E11201CFA908AC0AAD0BEEFAEF4F
:100AD300FB12013FE9F97A0A7B031201B11201D536
:100AE3001201BDE9900308E0F8A3E0F5838882A32F
:100AF300A3A3A3A3E0601C7400900302F07A4A7BD3
:100B03000212018D900302E06004740080027401FC
:100B1300FE80027E00900303E070031201C9EE70B1
:100B230007900301E02401F0EEF97F04020311C0F2
:100B330082C0839005BFE0F9D083D0820200FB74AA
:100B4300F21202AB8A0A8B0BECFEEDFF740E12025B
:100B53009FE0F508A3E0F50912017B9005BAE0F8E0
:100B63003395E0F9C3E89EE99F500D9005BAE0F58F
:100B73000C3395E0F50D80048E0C8F0D780C120369
:100B8300FE9005BBE0FCA3E0FDAA0AAB0B1201F942
:100B9300740212026AE50864007004E509640060E7
:100BA30026120199E9F50A9005BEE0F83395E0F9BC
:100BB300750B00E8C3950AF8E9950BF9850882855A
:100BC3000983E8F0A3E9F074009005BFF012017502
:100BD3009005BAE0F83395E0F9C3E89EE99F500722
:100BE3009005BAE0F98002EEF97F06020311C08294
:100BF300C0837401900303F01201C3D083D0820237
:100C030000FBC082C083906189E04460F074D5909A
:100C13006190F074099061FAF074159061B2F07408
:100C2300009061AEF01201D57900D083D08202002A
:100C3300FB79490200FBC082C08375F005E9A42457
:100C4300D490618FF0D083D0820200FBC082C08336
:100C5300EA906174F0EB906175F0D083D08202006A
:100C6300FBC082C083EA906172F0EB906173F0D0B5
:100C730083D0820200FB74F61202AB75E1EE75912C
:100C8300FD7C0080138C08750900EA2508F582EBCA
:100C93003509F583E0F5D90CECC39940E87F0202EE
:100CA3000311C082C0838011E5D98A828B83F08AC5
:100CB300828B83A3AA82AB8319E9C3940150E9D041
:100CC30083D0820200FB75E1E9E591A2E150FA7558
:100CD30091FD79000200FB75E1EC75E1E30200FB95
:100CE30075E1EF75E1EC0200FBC082C0839061A364
:100CF300E0C2E6F0539AFED083D0820200FBC082AA
:100D0300C0839061A3E0D2E6F0439A01D083D082FE
:100D13000200FBC082C083A2AFE492E0FCC2AF90AA
:100D23000427EAF0A3EBF0ECA2E092AFD083D082E9
:100D33000200FBC082C083906193E0542270F8D01C
:100D430083D0820200FB74F41202AB8A088B098CF5
:100D53000A8D0B53F1FE43F30CE5F353F2F3E5F283
:100D630075868075C4807808120445000000000C65
:100D7300000000B0040000C00D60090000C80DC0F1
:100D8300120000D00D80250000D80D40380000E08F
:100D93000D004B0000E80D80700000F00D00960080
:100DA30000F80D00E10000000E002C0100080E0009
:100DB300C20100100E00840300180E200E75C23B02
:100DC30075C505805E75C23B75C506805675C23B09
:100DD30075C507804E75C23B75C508804675C2D878
:100DE30075C508803E75C23B75C509803675C2D886
:100DF30075C509802E75C23B75C50A802675C2D894
:100E030075C50A801E75C23B75C50B801675C2D8A1
:100E130075C50B800E75C2D875C50C800675C23BAF
:100E230075C50A75C402438640D2AA75C100740011
:100E33009004A9F074009004AAF0740090052CF0BB
:100E4300740090052DF074009004ABF074009005CD
:100E53002EF07F04020311C082C0839005B1745B3E
:100E6300F0A3741AF074149005B3F09005AF743ABC
:100E7300F0A374ACF074019005B4F07AAF7B051263
:100E8300014BE9640160F4120163D083D082020054
:100E9300FB1201691201EDD290D2911201F3E960C4
:100EA300127903120181790D7CC97D057A157B10B6
:100EB300120151120157E960E279041201817508A8
:100EC3000075090078081203FE7C807D007A2F7B71
:100ED3000512015D740212026A80C0C082C083A23F
:100EE30092500A74019005D7F0790080129005D7CB
:100EF300E070047900800874009005D7F07901D080
:100F030083D0820200FB74F61202AB740A12029FB2
:100F1300E0FEA3E0FFEAF8EBF980188C828D83E012
:100F230088828983F0A3A882A9838C828D83A3AC52
:100F330082AD838E088F0974FF25081E74FF35095F
:100F4300FFE5087002E50970D27F0202031174F411
:100F53001202AB12018753F4FEC29043FE0153F415
:100F6300FDC29143FE0253F4F7C29343FE0853F4C8
:100F7300EFC29443FE109005C5780812022CAA080C
:100F8300AB09AC0AAD0B1201E71201757F04020332
:100F930011C082C083790012016FD083D082020016
:100FA300FBEBC313FBEA13FAEAF8EBF974FF28FA35
:100FB30074FF39FB740068700374006960120000E9
:100FC300000000000000000000000000000080D8C6
:100FD3000200FB748055C6FA53BEFBE59DA2E550A3
:100FE300FAE59DA2E240F400740169700774494A6E
:100FF300F5C68005E970028AC6E5C6FAE59EFBEAF6
:101003006B70F943BE040200FBC082C083E9120483
:101013000F01033A10201027102E10351063900192
:10102300E5908013639002E590800C639008E5904F
:101033008005639010E590D083D0820200FBD2AF8D
:081043000200FBC2AF0200FB3A
:04000005000000E314
:00000001FF
