:020000040000FA
:030000000200E318
:0300130002127B5B
:030033000211A512
:03003B000212DBD3
:0300630002103652
:03006B0002107B05
:03007B000211105F
:1000830002123A00000080FB120113B900030200C0
:10009300CDE490030178B979038002F0A3D8FCD9A9
:1000A300FA9005B9AA82AB83900116787E79018014
:1000B30015E493A3AC82AD838A828B83F0A3AA82D7
:1000C300AB838C828D83D8E9D9E775820875832A3F
:1000D30074001200F575828675830074001200F5B2
:1000E30075D00075813F751001751103759F00026E
:1000F300008BC09FF59FE473D09F22D083D082C032
:100103009FE493C0E0740193C0E0740293F59F22CF
:10011300790122FF00000000000000000000004AF7
:1001230001000000960000BFC9C8BCC6F8B4ABB854
:10013300D0C6F7B5E7D1B9A3BA25642E253032640A
:10014300560D0A0000002041000000000A000000D4
:1001530030313233343536373839414243444546FA
:1001630000286E756C6C20706F696E74657229005F
:100173003F3F3F000000803FF9021550B743BA519B
:1001830000E7DB2E0000A040100000000800000084
:100193001200FE4423001200FEE923001200FE4A6F
:1001A30024001200FE6925001200FEF6250012004D
:1001B300FE8E26001200FE3F2C001200FE522C0081
:1001C3001200FE702C001200FE7B2C001200FECDEC
:1001D3002C001200FE2F2B001200FE3B2B001200FE
:1001E300FEEC2B001200FE0E2D001200FE622D000D
:1001F3001200FE672D001200FE8E2B001200FEB7C8
:100203002B001200FE8B2C001200FE9B2C00120010
:10021300FE8F28001200FEBE28001200FED4280024
:100223001200FEE928001200FEFE28001200FE2A3A
:1002330029001200FE4E29001200FE5F2900120061
:10024300FE6829001200FE7129001200FE862900B3
:100253001200FE9B29001200FEBB29001200FEA221
:1002630026001200FEB327001200FECE2900120062
:10027300FE442D001200FEA22A001200FECB2A002B
:100283001200FE4213001200FE1A1800E0667010FE
:1002930008A3E066700A08A3E066700408A3E0669A
:1002A30022E4936670130874019366700C08740259
:1002B30093667005087403936622C3E7960809E7FB
:1002C300960809E7960809E796A2D265D03322C3B8
:1002D300E493960874019396087402939608740342
:1002E300939622080808E630E711120BA21202FEC9
:1002F300080808C64480C618181822181818E9797F
:100303009EC608CAC608CBC608CCC6C37020799659
:10031300CACBCC7019798ECBCC70137986CC700E86
:10032300F9802ACA33CACB33CBCC33CC331930E769
:10033300F2CCCBCA3350147004EA30E00DE4CA3A6D
:10034300CACB3BCBCC3CCC500209C3E913C6CC1877
:100353002313C6CB18C6CA18C6F92212039E20F06F
:100363001430E72B74FFFCFBFA747F8022E4FCFB60
:10037300FA7480801AB48008BC00F2BB00EF800FCF
:1003830050EBF9E4C39AFAE49BFBE49CFCE499C6C2
:10039300CC18C6CB18C6CA18C6F922E4C9C608CAFF
:1003A300C608CBC6D3330308CCC63392F0C3947FBD
:1003B300402E94184019C9B90704CACBCC22502542
:1003C300C309CA33CACB33CBCC33CC33D9F422F4ED
:1003D300600DC9CCC313CB13CBCA13CAD9F6CC2235
:1003E300E4FCFBFA2214FCFBFA22E6C3331846189A
:1003F30046184622E7C333194719471947221818E5
:1004030018E6084608700AE608C3337005E633F4B5
:10041300220822191919E7094709700AE709C333A2
:100423007005E733F4220922E6084608C313460899
:10043300336002E633F422E7094709C3134709335C
:100443006002E733F42212042B602512043A602081
:100453001203ED70030203F7080808E7667010182B
:1004630019E766700A1819E76670041819E7662217
:10047300F42212042B601C12043A60171203ED706D
:10048300071203F77001D322C0D01203F77006D00E
:10049300D0B322C32233D0D0501430E0F6C3E79652
:1004A3000809E7960809E7960809E796B32220E0CA
:1004B300D5E6970809E6970809E6970809E697B38A
:1004C3002212042B601B12043A60161203ED70070C
:1004D3001203F7600CB322C0D01203F77005D0D01B
:1004E30022C32233D0D0501330E0EBC3E796080980
:1004F300E7960809E7960809E7962220E0E4E697DD
:100503000809E6970809E6970809E6972200120406
:100513002B604F12043A6012E7548066F61204010E
:1005230070111203F7703B090909F4F618F618F66F
:1005330018F62212041670151203ED08080860EA73
:10054300E6447FF618768018E4F618F6221203EDD7
:1005530060161203F77012E4F608F608F608E6547C
:1005630080F609090918181822EAC0E0EBC0E0EC8C
:10057300C0E0EDC0E0E687F0A4FBACF008E687F04E
:10058300A42CFCE435F0FA1809E687F0A42C4B60A0
:10059300027401CA35F0FCE433FB09E687F0D2F7B5
:1005A300A42CCB35F0FC1908E687F0A42BCC35F04E
:1005B300FBE433FD0819E687F0D2E7A42C4ACB35D8
:1005C300F0CD3400FC09E687F0D2E7A42DCC35F05A
:1005D300FDE433FA0918E687F0D2F7A42CCD35F001
:1005E300CA3400FC08E687F0D2E7D2F7A42ACC3558
:1005F300F07A7E20E70B0ACB33CBCD33CDCC33CC93
:1006030033CB3350147004ED30E00ED2F1E4CD3D22
:10061300CDCC3CCC3B5005DA05C2F1EB547FC6335D
:1006230008E63392F0FBE73309E733C39A502D2BE7
:1006330070190C0D4C4D70151806E608C333700D78
:1006430020F10AA2F013F6E418800B4024E4F630FC
:10065300F002768018F618F618F68024D33B14506F
:100663001074FFA2F013F6187680E418F618F680DB
:100673000FA2F013F618E63303F618ECF618EDF6AE
:10068300D0E0FDD0E0FCD0E0FBD0E0FA2212043A47
:10069300604612042B603DE9687008F618F618F6F8
:1006A30018F622748067F71206C409090974806773
:1006B300F72212042B601D12043A700519191980D0
:1006C3001A120401701F120416C37003E66733196C
:1006D300191940071818182208080874FFF618F6A5
:1006E30018F618F62212041660171203F7702192F7
:1006F300F01203ED7019501720F0140808080909C7
:1007030009E7F61819E7F61819E7F61819E7F622B4
:100713001203ED60E6E869701F0808E62480F60816
:10072300E436F618547FB47F0CE654806007F6E491
:1007330018F618F622181822E9C6CC08C6CD08C642
:10074300CE08C6CFC0E0E8C0E0EAC0E0EBC0E009F5
:10075300E9F809E7FA09E7FBE6F918E6F8C3EC98C4
:10076300ED99EE9AEBC2E7F5F0EFC2E795F0500E84
:10077300600CEBCFFBEACEFAE9CDF9E8CCF8EAA2BC
:10078300E7D2E7FAEB33FB13F5F0EEA2E7D2E7FE8D
:10079300EF33FFC5F013A2E730E601B313C5F0C38F
:1007A300C0E0C0F07F00C39BFB605B9418600C400B
:1007B3001AD0E023F9D0E0F80208938AF0E9486000
:1007C30003D2F0E4AFF0FAF9F8803BEB30E40D89A3
:1007D300F0EA6003D2F0E4AFF0F9CAF8EB30E30DCE
:1007E30088F0EF6002D2F0AFF0E4CAC9F8EB540727
:1007F3006014FBC3EA13FAE913F9E813F8EF135093
:1008030002D2E0FFDBEDD0E0C0E030E739C3E49F84
:10081300FFF5F0EC98FC42F0ED99FD42F0EE9AFE04
:1008230042F0D0E0F9D0E0F8E5F0607AE923F9EEA0
:1008330020E742D8028067C3EF33FFEC33FCED338C
:10084300FDEE33FE80EAEC28FCED39FDEE3AFED0F6
:10085300E023F9D0E0F84002801BC3EE13FEED1352
:10086300FDEC13FCEF135002D2E0FF08B800067F43
:100873007F74FF802EEF3350178CF020F00260104E
:100883000CBC000C0DBD00080EBE000408E860DFC0
:10089300E933E813FFEE2313FE4F4D4C8008E95470
:1008A30080FFE4FEFDFCEE33EF33F47004FCFD7EC9
:1008B30080D0E0FBD0E0FAD0E0F8D0E0CFC618CE8D
:1008C300C618CDC618CCC6F92212042B700418180A
:1008D300182212043A700D74FFF61819F61819F657
:1008E3001819F622E7548066F61203ED700F12030F
:1008F300F770F014F608F608F608F680D11203F73D
:10090300700CF608F608768008E6447F80EC120443
:1009130019700C12040460BFE65480F6E480BB1225
:100923000404700519191980A5E869700C763F183D
:10093300768018F618F6E8F922E6CDC0E018ECC088
:10094300E0E633CD33CDD313F6E719FCE7191933BA
:10095300CC33C3947F400ECD9D502408E65480F6DB
:10096300E418F6800FF4043D14501408E6447FF6AF
:10097300187680E418F618F6D0E0FCD0E0FD22CC1F
:10098300D313CCFD18E4C6CBC0E018E4C6CAC0E05C
:100993000808ED08C633E613F618E433C675F0030A
:1009A300C3CA97CA09CB97CB199C40047D08802EF4
:1009B300BD0003020A7516B6FF050606081618C31E
:1009C300CA33CACB33CB33CA27CA09CB37CB193C7B
:1009D300C37D08803E187D0820E75CC633C6CA3352
:1009E300CACB33CB33DDF1D5F0EB30E77BCA97CA03
:1009F30009CB974ACB199C406F4B7025E620E02129
:100A03008066187D08C3CA97CA09CB97CB199CD3B4
:100A1300C633C6CA33CACB33CB3350C9DDE7D5F0AF
:100A2300E1D3E4C636C608C636C608C636C608C607
:100A330036C61818188031C3CA97CA09CB97CB1981
:100A43009CB34097C633C6CA33CACB33CB33DD34EA
:100A5300D5F02EC6A2E0C640C8CA27CA09CB3719AB
:100A63004A70BECB3CB480B90808E63308E633606D
:100A73001F181818D0E0FAD0E0FBD0E0FCD0E0FD5E
:100A830022187D08CA27CA09CB37CB193CD38080EB
:100A930013F618E4B67F11F618B6FF0EF618C6045F
:100AA30070D20808768080CAF618F618F680C50852
:100AB3000808EAC0E0EBC0E086F0E7A4FA1809866C
:100AC300F0E7A42AFA180986F0E7A42AFA18098697
:100AD300F0E7A42AFA1986F0E7A4FBE5F02AFA194D
:100AE3000886F0E7A42BFBE5F03AFA190886F0E74D
:100AF300A42BFBE5F03AFA18180986F0E7A4C5F031
:100B03002BFBE43AFA1908E7C5F0C6A426F6E5F08C
:100B13003BFBE43AFA1886F0E7A4F6E5F00826F67C
:100B2300E43B08F6E43A08F6D0E0FBD0E0FA22E42E
:100B3300CFC0E0E4CEC0E0E4CDC0E0E4CCC0E075DB
:100B4300F020C3E633F608E633F608E633F608E6A4
:100B530033F6181818EC33FCED33FDEE33FEEF33A8
:100B6300FFC3EC9709ED9709EE9709EF9719191948
:100B7300400FFFEC97FC09ED97FD09EE97FE19195D
:100B830006D5F0BEECF709EDF709EEF709EFF71913
:100B93001919D0E0FCD0E0FDD0E0FED0E0FF221830
:100BA3001818E4C396F608E496F608E496F608E403
:100BB30096F6226016080808C6C313C618C613C6DD
:100BC30018C613C618C613C6D5E0EA22E647F608C8
:100BD30009E647F60809E647F60809E647F622E07C
:100BE300F608A3E0F608A3E0F608A3E0F622E6F091
:100BF30008A3E6F008A3E6F008A3E6F022CAC0E0E3
:100C0300E6F0A308DAFAD0E0FA22CAC0E0E0A3C50E
:100C130082CCC582C583CDC583F0A3C582CCC582F2
:100C2300C583CDC583DAE6D0E0CA22C3E498F8E4ED
:100C330099F9120C6F8026C3E49AFAE49BFBE9202E
:100C4300E7E9120C6FE498F8E499F922C3E498F801
:100C5300E499F9120C6FE498F8E499F9C3E49AFA69
:100C6300E49BFB22EB20E7CFE920E7E0B90010BBD0
:100C73000008E88AF084F8AAF022E4FBC8FA22EB21
:100C830070227B10C833C8C933C9335007C39AC312
:100C9300DBF280069A50012ADBEAC833F4C8C93371
:100CA300F4C9FA2275F008E4C833C8C933C933C993
:100CB3009AC99B5004C92AC93BD5F0ECFBC833F44D
:100CC300C8E4C9FA22700422600D18C6C333C608EB
:100CD300C633C6D5E0F41822251010AF08F510402E
:100CE3000215118008F51040021511D2AF22C0D0B1
:100CF300251010AF08F510500205118008F51050AB
:100D0300020511D2AFD0D0222510F58210AF08F51D
:100D130010400215118008F51040021511D2AF855D
:100D23001183222510F582E43511F58322E473251E
:100D330010C582C0E0E51134FFC583C0E0E510C3F0
:100D4300958224F8F8E4C5A8858311858210C5A887
:100D5300E8CEF0A3E520F0A37808E608F0A3DEFAD6
:100D6300EFF0A3E58124FAF8E608F0A3E608F0A380
:100D7300E608F0A30808E608F0A3E608F0A3158147
:100D83001581D0E0FED0E0F8158115811581E8C00A
:100D9300E0EEC0E022851183851082E0A3FEE0A38C
:100DA300F5207808E0A3F608DFFAE0A3FFE0A3C08C
:100DB300E0E0A3C0E0E0A3C0E0E0A3C0E0E0A3C0A4
:100DC300E0E4C5A8858210858311C5A8D083D082AD
:100DD3000200FBC0D02510C582C0E0E51134FFC579
:100DE30083C0E0E510C3958224F310AF0885831117
:100DF3008582108008858311858210D2AFC8F0A345
:100E0300E9F0A3EAF0A3EBF0A37908E709F0A3D88C
:100E1300FAECF0A3EDF0A3EEF0A3EFF0A3D0E0F033
:100E2300A3D0E0F0A3D0E0F0A3E520F0A3E5F0F039
:100E3300A322851183851082E0C0E0A3E0F9A3E03B
:100E4300FAA3E0FBA37808E0F608A3DFFAE0FCA32B
:100E5300E0FDA3E0FEA3E0FFA3E0C0E0A3E0C0E069
:100E6300A3E0F5D0A3E0F520A3E0A3F5F0E4C5A843
:100E7300858311858210C5A8D082D083D0E0F8D0B5
:100E8300E032740280027401C0E0F404120D0BD04E
:100E9300E0120C002274028000CCC0E0EDC0E0E55B
:100EA30010C39CCCAD1150011D10AF068C108D11D9
:100EB30080068C108D11D2AF120C0DD0E0FDD0E066
:100EC300FC22D083D082C5F0E493A3C5F0C395F090
:100ED300F5F0E493A3C395F04005E5F0048001E445
:100EE30075F002A42582F582E5F03583F583E4935A
:100EF300A3C0E0E493C0E022D083D082CCC0E0E47E
:100F030093A36006120F251470FAE493A3600612EC
:100F13000F441470FAD0E0FCE493A3C0E0E493C060
:100F2300E022C0E0E493A3D39C5010E493A3C39CBA
:100F3300400AD0E0D0E0D0E0020F18A3A3A3D0E092
:100F430022C0E0E493A36C7009D0E0D0E0D0E002CB
:100F53000F18A3A3D0E022D083D082ECC0E0EDC071
:100F6300E0EEC0E0EFC0E0E493A3FCE493A3FDE470
:100F730093A3FEE493A3FFEF4E4D4C6015120FD6DF
:100F8300EC24FFFCED34FFFDEE34FFFEEF34FFFFF6
:100F930080E5E493A3FCE493A3FDE493A3FEE4932D
:100FA300A3FFEF4E4D4C6015121013EC24FFFCED24
:100FB30034FFFDEE34FFFEEF34FFFF80E5D0E0FFAA
:100FC300D0E0FED0E0FDD0E0FCE493A3C0E0E493E6
:100FD300C0E022C0E0C0F088F01202D2A8F04007BF
:100FE3001202A4A8F0701AA3A3A3A31202D2A8F01A
:100FF300A3A3A3A34013D0F0D0E0D0E0D0E0020F2E
:10100300C0A3A3A3A3A3A3A3A3A3A3D0F0D0E0222D
:10101300C0E0C0F088F01202A4A8F0A3A3A3A370B9
:101023000BD0F0D0E0D0E0D0E0020FC0A3A3D0F00B
:10103300D0E022C0E074F2120DD6C2DBC2C490032A
:10104300FEE02401F0A3E03400F09003FEE064A18D
:101053007004A3E0640770159003FE7400F0A3749A
:1010630000F074019003FDF01201C3800674009038
:1010730003FDF07F01020E35C0E074F1120DD6C2FC
:10108300C5E589700302110B7E0080767508017532
:101093000900EE7808120CC8AF08E5895F6062EEBC
:1010A300F87900E875F002A4C8AAF075F000A42A44
:1010B300FA75F002E9A42AF9E82400F582E9340478
:1010C300F583E064007004A3E06400602EEEF87919
:1010D30000E875F002A4C8AAF075F000A42AFA7516
:1010E300F002E9A42AF9E82400F582E93404F5833F
:1010F300E0F8A3E0F5838882120D30EFF45589F50B
:10110300890EEEC3940840847F02020E35C0E0745A
:10111300F1120DD6C2EBE58A70030211A07E0080A6
:1011230076750801750900EE7808120CC8AF08E55A
:101133008A5F6062EEF87900E875F002A4C8AAF04D
:1011430075F000A42AFA75F002E9A42AF9E824103C
:10115300F582E93404F583E064007004A3E06400DD
:10116300602EEEF87900E875F002A4C8AAF075F0D5
:1011730000A42AFA75F002E9A42AF9E82410F582FA
:10118300E93404F583E0F8A3E0F5838882120D3097
:10119300EFF4558AF58A0EEEC3940840847F020269
:1011A3000E35C0E074F1120DD6C2E8E58B70030270
:1011B30012357E008076750801750900EE780812F5
:1011C3000CC8AF08E58B5F6062EEF87900E875F054
:1011D30002A4C8AAF075F000A42AFA75F002E9A4E3
:1011E3002AF9E82420F582E93404F583E0640070E9
:1011F30004A3E06400602EEEF87900E875F002A421
:10120300C8AAF075F000A42AFA75F002E9A42AF935
:10121300E82420F582E93404F583E0F8A3E0F583BC
:101223008882120D30EFF4558BF58B0EEEC39405C7
:1012330040847F02020E35C0E074F2120DD6A2AFD5
:10124300E492E0FEC2AFE5E9A2E6502290042AE070
:1012530064007004A3E06400600E90042AE0F8A325
:10126300E0F5838882120D30759B0053E9BFEEA22F
:10127300E092AF7F01020E35C0E0C0D0E8C0E0E9E4
:10128300C0E0EAC0E0C082C083E5C1C0E09004AD25
:10129300E07900242CF582E93404F583D0E0F09062
:1012A30004ACE0FA9004ADE06A7006E5959004AEF4
:1012B300F09004ADE024019004ADF0C394804006A7
:1012C30074009004ADF0D083D082D0E0FAD0E0F97E
:1012D300D0E0F8D0D0D0E032C0E0C0D0EAC0E0C067
:1012E30008C009C082C08390052FE0FA900530E062
:1012F3006A700B539AFB7401900531F08031C2E997
:1013030090052FE0F5087401250890052FF0750965
:1013130000E50824AFF582E5093404F583E0F5C15F
:1013230090052FE0C394804006740090052FF0D001
:1013330083D082D009D008D0E0FAD0D0D0E0327484
:10134300F0120D3274FD120CDB7402120D26E9F05B
:101353008A088B098C0A8D0B7415120D26E0FCA3E9
:10136300E0FD851082851183E4F0A3F090061A78DE
:101373000C120BE27808790C120475500302142046
:101383009005EE780C120BE27808790C1204496090
:10139300030214747417120D26E070030214B68549
:1013A3001082851183C082C0837413120D2612220A
:1013B30026D083D0821217AA502C851082851183E0
:1013C300C3E094FCA3E094FFA2D265D0334017742A
:1013D30002120D26E41222E6F97413120D26C3E05D
:1013E30098F0A3E099F07413120D261217E87418FD
:1013F300120D26E070030214B37417120D26E402D3
:1014030014B590061E780C120BE27808790C1208BA
:10141300CC851082851183E0240A122323900622AF
:10142300780C120BE27808790C12047540D49005FD
:10143300EA780C120BE27808790C12047540030267
:1014430013979005EA780C120BE27808790C1208CE
:10145300CC12231A80D890061E780C120BE278085F
:10146300790C120510851082851183E024F612177A
:10147300EB900626780C120BE27808790C1204C460
:1014830040D490061A780C120BE27808790C1204F7
:10149300C440030213979005EA780C120BE2780814
:1014A300790C1205108510828511831217E880D2FA
:1014B3007401F07402120D26E060077A007B0002CB
:1014C30015B41217BB506D1217D9120D26E0FEA3E7
:1014D300E0FFEE7001EF70087418120D26E0600B48
:1014E300742E8C828D83F0A30CAD837A007B0080F5
:1014F300091217D9120D261217E8EA24FF1AEB3442
:10150300FFFB85108285118312179E500C741312F2
:101513000D26E07002A3E070D885108285118374D4
:10152300FFC39EF874FF9FF91217AA500302168394
:101533007A018089851082851183122226C3E4985B
:10154300FAE499FB806B85080C85090D850A0E85E5
:101553000B0F780C12035EAE0CE50D3395E0F50E20
:10156300F50F780C1202E67808790C1206909005B4
:10157300EA780C120BE27808790C120510EE1217B8
:10158300CCEAF8EBF97401280AE439FBE87001E9C5
:10159300701F7413120D26E07002A3E07008741814
:1015A300120D26E0600B742E8C828D83F0A30CAD9C
:1015B300837413120D2612179E508B90062A780CF3
:1015C300120BE27808790C12047540030216837E2D
:1015D30001EC24FFF8ED34FFF97415120D26E0F544
:1015E30008A3E0F50988828983E0642E6010E02E69
:1015F300F0643A70077430F07E0180027E00E8FAEE
:10160300E9FBEA24FF18EB34FFF9C3E5089AE5097F
:101613009B40D2EE7001E460677402120D26E06015
:1016230036ECF8ED800A121789E824FF18E934FF35
:10163300F9C3E50898E509995018121776E0642E66
:1016430070E4E824FEF582E934FFF583121783F989
:1016530080D712231A801E8C828D83A3AC82AD8324
:10166300ECF8ED8006121776121783F9C3E5089894
:10167300E5099940F07415120D261217B67431F06E
:101683007417120D26E07005801A1CAD83EC24FF3D
:10169300F582ED34FFF583E0643060EEE0642E7094
:1016A300031CAD837402120D26E0700302175E1251
:1016B30017CEA3A9831217BB5018742D8C828D8368
:1016C300F00CE9FD8510828511831222501217F662
:1016D300800A742B8C828D83F00CE9FD7E007F00E1
:1016E300EC240AFCED3400FDEE24010EEF3400FF80
:1016F300121790120C67EA1217CC121790120C678C
:101703001218037002A3E070DFC3EE940212176D88
:1017130040D6EEFAEFFBC3E49EF8E49FF9EC28F51C
:1017230082ED39F583E0C0E0C3E49AF8E49BF9EC79
:1017330028F8ED39F9EE28F8EF39F974F528F58230
:1017430074FF39F583D0E0F01221D3EE9401121720
:101753006D50C3EC24F6FCED34FFFDECFAEDFB74A5
:1017630003120CF17F08020D98C3EF9400A2D26517
:10177300D03322E824FFFAE934FFFB8A828B8322E9
:1017830012178918EB22E088828983F02285108260
:101793008511831222BE7A0A7B0022C3E09AA3E05A
:1017A3009BA2D265D03322C3E098A3E099A2D2656D
:1017B300D03322E012224822851082851183C3A3ED
:1017C300E09400A2D265D0332224308C828D83F042
:1017D300A3AC82AD832274308C828D83F0A3AC8260
:1017E300AD83741322E024FFF0A3E034FFF022A3BF
:1017F300E03400F9851082851183E8F0A3E9F02233
:1018030085108285118312180D22E8F0A3E9F08573
:101813001082851183E02274F0120D3274B0120C21
:10182300DB8510828511831222CC7418120D26ECED
:10183300F0A3EDF0740F120D26E4F0A38022746080
:10184300120D261222167404120D26E0F9741812D2
:101853000D261217B6120D30740F120D261221DD4C
:10186300F0122283FA122305120D26EAF074256A78
:101873006010E070C9740F120D2612221674500204
:10188300176412228364257019851082851183E001
:101893002401081217F27460120D261222167925FC
:1018A30080AB740E120D26E4F0740D120D26E4F0D5
:1018B300740C120D26E4F07405120D26E4F0741E68
:1018C300120D26A882A9837402120D26800E7405B8
:1018D300120D26E0602685108285118312180912E5
:1018E300220D122270FA120EFB000520D1182311CB
:1018F300192BFF182D081930151919197405120D14
:1019030026EAF080D1740C120D26E00480F4740DE5
:1019130080F5740E80F1122270642A705B74621277
:101923000D2612227BFB8A828B83E0FCA3E0FD74ED
:101933000A120D26ECF0A3EDF0EA24020A0AEB34B6
:1019430000FB7462120D261222C4740A120D2612B1
:1019530017C1501F740A120D26122216C3E49AFAF5
:10196300E49BFB740A120D261222CC740C120D2672
:10197300E004F01217F7804C740A120D26E4F0A36A
:10198300802F740A120D26122226E875F00AA4F895
:10199300AAF075F00AE9A42AF9E82508F8E9340061
:1019A300F974D028F874FF39F9740A120D2612233A
:1019B3002A1222E6F5838882E0F50874D02508C34D
:1019C300940A40BE740C120D26E06007740E120DCB
:1019D30026E4F0122283642E6003021A66851082C5
:1019E300851183E0240108A3E03400F912180312DF
:1019F30017B7E0642A702C7462120D26122289F83C
:101A0300A3E0F988828983E0FEA3E0FFE8240208CB
:101A130008E93400F97462120D2612226312232A94
:101A2300F080447E007F00122283F50874D02508DD
:101A3300C3940A5032EE75F00AA4FEAAF075F00AB8
:101A4300EFA42AFFEE2508F8EF3400F974D028FE3E
:101A530074FF39FF851082851183E02401F8121782
:101A6300F280C47EFF7FFF7A008510828511831286
:101A73002208851082851183E0FBA3E0F5838B8226
:101A8300E0120EFB00034C941A68951A6C941A9892
:101A93001A0A1217F7122283FB122305120D26EBE3
:101AA300F0120EFB0010007F20453B1F47161F5806
:101AB3003A1C633B1B64E71C653B1F66341F6716B8
:101AC3001F69E71C6EDB1A6F281C703A1C73741BAA
:101AD300753A1C783A1C8B207462120D261222B1BF
:101AE300120D261217FDEA6035740F120D26E0FC65
:101AF300A3E0FD3395E0FE7406120D26122292EC4C
:101B0300F0A3EDF0A3EEF0A3F07462120D261222FF
:101B130099120D26122263E8F0A3E9021863740FE9
:101B2300120D261222267406120D2612227BF5832D
:101B33008A82E8F0A3E980D07462120D2612229201
:101B4300E0C0E0741E120D26D0E0F07462120D2680
:101B5300122299120D261222631217FD741F120D01
:101B630026A882A9837412120D26E8F0A3E90220A5
:101B7300A27462120D261222B1120D261217FD74E1
:101B830006120D261222B1120D26E02402FAA3E05A
:101B93003400FB7462120D261222C47402120D2645
:101BA3001217FDE87001E9700C7402120D26740718
:101BB300F0A37406F012176C50047E107F2774088C
:101BC300120D26E4F0A380087408120D261221DDFD
:101BD300F07402120D2612222688828983A3AA8218
:101BE300AB837402120D261222CC88828983E060B3
:101BF3000A7408120D2612222A40CD7402120D26F1
:101C03001221F67412120D261217FD7408120D26F6
:101C1300122250F97412120D26E028F8A3E039F9C4
:101C23007402021B6A740D120D26E0600AEE700145
:101C3300EF70047E017F007462120D261222B1122E
:101C43000D26122312120D26E06470703C740612E6
:101C53000D261222A7120D261222ED120D26E024C4
:101C63000212225A120D261222631217FD90062E1B
:101C73007808120BE2741A120D267808120BF1740D
:101C830005120D26E4F0021D84EA60217406120D8C
:101C9300261217B67808120BE27414120D26780870
:101CA300120BF17406120D26E0240480147406123C
:101CB3000D261222A7120D261222ED120D26E02464
:101CC3000212225A120D26122263122312120D2619
:101CD300E0646F70059006328096E06475708E90B4
:101CE30005F2808C7462120D261222B1120D261297
:101CF30017FDEA60187406120D261217B6780C1237
:101D03000BE27406120D26E02404F8801F740612F9
:101D13000D26122289F50CA3E0F50D3395E0F50E9F
:101D2300F50F7406120D26E02402080812225B1236
:101D33000D261222FA120D26780C120BF19005EEE5
:101D43007808120BE27808790C1202BD5021740551
:101D5300120D26742DF07414120D267808120BE25E
:101D63007808120BA57414120D267808120BF19043
:101D730005F27808120BE2741A120D267808120B7A
:101D8300F1744F120D26A882A9837402120D261234
:101D930017FD7412120D261222FD120D26C082C0E9
:101DA300839005EE7808120BE2D083D08278081274
:101DB300028F60097411120D2674018006741112CA
:101DC3000D26E4F0EE7001EF7006E07003021E8B47
:101DD3007402120D2612223A120D261222FD120D42
:101DE30026780C120BE2741A120D267808120BE2F5
:101DF300780C7908120B32E50824F6F582E50934EC
:101E030005F583E0C0E07402120D261217B6D0E088
:101E1300F07414120D26780C120BE2741A120D26AC
:101E23007808120BE2780C7908120B327414120D35
:101E330026780C120BF17414120D26C082C0839005
:101E430005EE7808120BE2D083D082780812028F55
:101E53006003021DD312176C502E740E120D26E070
:101E630060267405120D26E06004D2F08002C2F0F1
:101E7300740A120D261221E6800E7402120D261228
:101E830022DE120D261222407402120D261221F6B2
:101E9300744F120D26C082C0837402120D261222C3
:101EA30016D083D082E582C39AFAE5839BFBC3EA0B
:101EB3009EEB12223340C3740D120D26E070030211
:101EC30020A37411120D26E070030220A3740412E0
:101ED3000D26E064786005E06458701E121789E8E7
:101EE30024FF18E934FFF97402120D261222DE12C0
:101EF3000D261217B674300220A2E0646F6003024D
:101F030020A37402120D261222766430700302207D
:101F1300A380D47408120D267401F0A3E4F07404B2
:101F2300120D26E024FEF0EE7001EF70147E0180A6
:101F3300177404120D26E4F07408120D26E4F0A3BE
:101F4300F012176C50047E067F007462120D261285
:101F530022B1120D261217FD7406120D261217B6A2
:101F6300780C120BE27406120D26E0240412225A96
:101F7300120D261222FA120D26780C120BF190057F
:101F8300EE7808120BE2780C79081204C45022741C
:101F930005120D26742DF07414120D267808120BF9
:101FA300E2E50BB2E7F50B7414120D267808120B59
:101FB300F1740A120D26122226741E120D26E582D2
:101FC30028F8E58339F97402120D261217FD740DF2
:101FD300120D26E0F5087808120E897409120D26F1
:101FE300E0F5087808120E897404120D26120E9873
:101FF3008E088F097808120E85740A120D26E0F9EF
:10200300741A120D267808120BE2AA08AB09AC0A5F
:10201300AD0B1202837406120CF17412120D261208
:1020230022CC740E120D26E060767405120D26E0A4
:102033006004D2F08002C2F0740A120D261221E667
:102043007412120D26C082C0837402120D2612224E
:1020530026D083D082E0C398F8A3E099F9C3E89E21
:10206300E9122233503A7402120D2612223A120D4B
:10207300261222DE120D2612224080C4851082858C
:1020830011831221FF1217F67402120D267416F033
:10209300A37406F07412120D267419F0A37406F0DB
:1020A3007412120D26C082C0837402120D261222EE
:1020B30026D083D082E0C398FEA3E099FF740A126E
:1020C3000D2612222A500A7408120D26E4F0A3806A
:1020D300327405120D26E06004D2F08002C2F0745F
:1020E3000A120D26E0C39EF8A3E09FF9A2F0E49242
:1020F300E0FAE8C39AF8E99400F97408120D26E8A7
:10210300F0A3E9F0740C120D26E0702B80197460B3
:10211300120D2612221C120D261217B6120D307440
:102123000F120D261223207408120D261222D2122A
:102133000D261217C150D77405120D26E060507496
:1021430060120D261222167405120D26E0F974187A
:10215300120D261217B6120D30802C7460120D2644
:102163001222167402120D26122289F97418120D06
:10217300261217B6120D307402120D26122208749D
:1021830002120D261217FD740F120D2612232012B0
:1021930021D312176E50C4740C120D26E070030283
:1021A30018647408120D261222D2120D261217C1BA
:1021B30050030218647460120D2612221C120D269D
:1021C3001217B6120D30740F120D2612232080D26F
:1021D300EE24FF1EEF34FFFFC322E02401F0A3E04F
:1021E300340022A2F0E492E0F8E0C398FEA3E09466
:1021F30000FF221221FA221221FFF922E024FFF824
:10220300A3E034FF22E012220D222401F8A3E034DC
:1022130000F922E0FAA3E0FB22E0FAA3E0FB792035
:102223007418221222BE22C3E09EA3E0122233229C
:102233009FA2D265D033221221FA740222122247BE
:102243007430F022E0F8A3E0F5838882221222BEE4
:10225300C3E498F8E49922F8A3E03400F974622205
:1022630012226722E0FAA3E0F5838A822285108294
:10227300851183122267E022122267E0FAA3E0228B
:1022830085108285118312228D22122247E02212A9
:10229300228D1222482212228D2402F8A3E0340058
:1022A300F97462221222B7E8FAE9FB7414221222AB
:1022B300B77406221222471222BE22E0F8A3E0F9E5
:1022C30022E0FCA3E0F5838C82EAF0A3EBF022E0AA
:1022D30024FFF0A3E034FFF0740822E8F0A3E9F050
:1022E300740222121811F8A3E022EAF0A3EBF0A380
:1022F300E4F0A3F0740622122267E8F0A3E9F07475
:102303001422851082851183E0240108122338E802
:10231300F0A3E9F0740422851082851183E024017F
:10232300F0A3E03400F02212180D2401F812233830
:10233300E8F0A3E922A3E03400F985108285118334
:102343002274F7120D32E9FEEAF8EBF9E8FAE9FB39
:10235300740B2E8A828B83F0900308E0F8A3E0F5D8
:10236300838882A3A3A3A3A3E0600678617988800E
:102373000478417988E88A828B83A3F0E98A828B87
:1023830083A3A3F0900301E08A828B83A3A3A3F02A
:10239300900308E0F8A3E0F5838882A3A3E0F8A301
:1023A300E0F98A828B83A3A3A3A3E8F0A3E9F08ACD
:1023B300828B83A3A3A3A3A3A3ECF0A3EDF09003C9
:1023C30008E0F8A3E0F5838882E0F8A3E0F98A82C5
:1023D3008B83A3A3A3A3A3A3A3A3E8F0A3E9F07907
:1023E3000A7F01020D9874F2120D32ECFEEDFF89A3
:1023F30008A908EAFCEBFD7A0A7B03120193E9FBC7
:102403007A0080348A0A750B00EE250AF582EF35CF
:102413000BF583E0C0E08B0A750B008A0C750D0089
:10242300E50C250AF8E50D350BF9E8240AF582E9F0
:102433003403F583D0E0F00AEAC3950840C6E50803
:102443002BF97F06020D9874F7120D327E7D7F0300
:102453001202471201ED7901EEFAEFFB12022F8E01
:10246300828F83E0C2E7F08E828F83E0640570532E
:102473008E828F83E0F97A7E7B0312022F8E828F06
:1024830083A3E0A2E55004D2F08002C2F0A2F0E4FC
:1024930092E09005C1F07881790388828983A3E073
:1024A300A2E7400302255E8E828F83A3A3A3E0FAF3
:1024B300900301E06A600302255E7401900302F059
:1024C30002255E8E828F83E024F59005BEF08E8216
:1024D3008F83E0F97A7E7B0312022F8E828F83A390
:1024E300E0A2E55004D2F08002C2F0A2F0E492E050
:1024F3009005C1F08E828F83A3A3A3A3A3A3A3A359
:10250300E0F8A3E0F99005BAE8F0A3E9F09005BF7D
:102513007487F0A37403F09005BEE0F83395E0F9F7
:102523009005BFE028F8A3E039F988828983E09019
:1025330005C2F088828983A3E0A2E750128E828FBE
:1025430083A3E054DF6441700674019005C3F08EE9
:10255300828F83A3A3A3E09005B9F01201F31202C3
:102563004D7F01020D9874F4120D32EAFEEBFF1257
:102573000211E964017004790180731201F390037D
:1025830008EEF0A3EFF09005BF7400F0A37400F021
:102593007401900303F09005EE7808120BE29003A8
:1025A300047808120BF1900308E0F8A3E0F58388A0
:1025B30082A3A3A3A3E0F9120217900308E0F8A3F0
:1025C300E0F5838882E0FAA3E0FB12021D90030882
:1025D300E0F8A3E0F5838882A3A3E0FAA3E0FB126B
:1025E30002237A9F7B011202531201ED79007F04CB
:1025F300020D9874F4120D32EAFEEBFF8C0A8D0B78
:102603008908900303E0700312023BE508C3946753
:102613005005850809800375096785090812025961
:10262300120247A908AC0AAD0BEEFAEFFB120199AF
:10263300E9F97A0A7B0312022912024D120235E9E3
:10264300900308E0F8A3E0F5838882A3A3A3A3A3E0
:10265300E0601C7400900302F07A4A7B0212020BC2
:10266300900302E06004740080027401FE80027E25
:1026730000900303E07003120241EE700790030120
:10268300E02401F0EEF97F04020D98C082C0837448
:1026930001900303F012023BD083D0820200FB744B
:1026A300F4120D328A088B098C0A8D0B53F1FE4309
:1026B300F30CE5F353F2F3E5F275868075C4807885
:1026C30008120F5A000000000C000000B0040000C4
:1026D3001927600900002127C0120000292780253F
:1026E30000003127403800003927004B0000412704
:1026F30080700000492700960000512700E1000088
:102703005927002C0100612700C2010069270084BA
:1027130003007127792775C23B75C505805E75C2B5
:102723003B75C506805675C23B75C507804E75C29D
:102733003B75C508804675C2D875C508803E75C20D
:102743003B75C509803675C2D875C509802E75C21B
:102753003B75C50A802675C2D875C50A801E75C229
:102763003B75C50B801675C2D875C50B800E75C237
:10277300D875C50C800675C23B75C50A75C402437E
:102783008640D2AA75C10074009004ACF074009026
:1027930004ADF0740090052FF07400900530F074D0
:1027A300009004AEF07400900531F07F04020D98A0
:1027B30074F7120D32900530E0C0E090052FE0FE73
:1027C300D0E0C39E501F90052FE0F87900900530AC
:1027D300E0FE7F00E8C39EF8E99FF974FF28F874D0
:1027E300FF39F98036900530E0F87900C3E498F8B2
:1027F300E499F990052FE07F0028F8EF39F9747F09
:1028030028F8740039F9C3E89CE99D5004D2F0809C
:1028130002C2F0A2F0E492E0F87900740068700359
:1028230074006960067A007B00805C780079008020
:1028330012900530E02401F0439A04E82401F8E9FA
:102843003400F9C3E89CE99D50398A828B83E0C048
:10285300E0900530E07F0024AFF582EF3404F58388
:10286300D0E0F08A828B83A3AA82AB8374009005A5
:1028730031F0900530E0C3947F40B674009005308A
:10288300F080B5E8FAE9FB7F01020D98C082C083AE
:10289300906189E04460F074D5906190F074099080
:1028A30061FAF074159061B2F074009061AEF012A9
:1028B300024D7900D083D0820200FBC082C08375B1
:1028C300F005E9A424D490618FF0D083D082020074
:1028D300FBC082C083EA906174F0EB906175F0D025
:1028E30083D0820200FBC082C083EA906172F0EB66
:1028F300906173F0D083D0820200FB74F6120D3224
:1029030075E1EE7591FD7C0080138C08750900EA72
:102913002508F582EB3509F583E0F5D90CECC3996D
:1029230040E87F02020D98C082C0838011E5D98AF6
:10293300828B83F08A828B83A3AA82AB8319E9C338
:10294300940150E9D083D0820200FB75E1E9E5915F
:10295300A2E150FA7591FD79000200FB75E1EC7577
:10296300E1E30200FB75E1EF75E1EC0200FBC082DD
:10297300C0839061A3E0C2E6F0539AFED083D08275
:102983000200FBC082C0839061A3E0D2E6F0439AC9
:1029930001D083D0820200FBC082C083A2AFE49245
:1029A300E0FCC2AF90042AEAF0A3EBF0ECA2E092C1
:1029B300AFD083D0820200FBC082C083906193E0DA
:1029C300542270F8D083D0820200FBC082C083906F
:1029D30005B47479F0A37413F074149005B6F090F1
:1029E30005B274EFF0A374ACF074019005B7F07AFC
:1029F300B27B051201A5E9640160F41201B1D08331
:102A0300D0820200FB1201E112026B79011201F97B
:102A130079021201F91201B71201BD1201C9E9903D
:102A230005B8F09005B8E0640170F01201DB8A0884
:102A33008B09AC08AD09ECF8EDF97A647B00120C54
:102A43006F8A088B097808120E85ECF8EDF97A6421
:102A53007B00120C6F880889097808120E857CCDDB
:102A63007D057A327B051201CF7404120CF17903D0
:102A73001201FF7A327B05120271EAF97C327D057D
:102A83007A347B121201AB7A327B05120271EAFCB3
:102A9300EBFD7A327B051202651201BD022A1E7418
:102AA300F7120D328A828B83122B26E9F08A828BEE
:102AB30083E02401FCA3E03400FD8A828B83ECF0E5
:102AC300A3EDF07F01020D9874F6120D3274FE121D
:102AD3000CDB851082851183EAF0A3EBF0ECFAEDB1
:102AE300FB740C120D26E0F508A3E0F50978081233
:102AF3000E857402120D26858208858309780812D3
:102B03000E857C777D021202897404120CF1851004
:102B130082851183122B26E4F07402120CF17F02DA
:102B2300020D98E0F8A3E0F58388822243F2014383
:102B3300F30153FDFE0200FB74F0120D321201D5B6
:102B4300C28D75B690A28D50FCE5BBF508E4F5097E
:102B5300F50AE4C508C509C50AF50B85BA0CE4F501
:102B63000DF50EF50F7808790C120BCF9005C5788B
:102B73000C120BE27808790C120AB2740F7808125F
:102B83000BB6AA08AB097F08020D98C082C083E97F
:102B9300120EC50103B02BA22BA62BAA2BAE2BD250
:102BA30090800AD2918006D2938002D294D083D0AF
:102BB300820200FBC082C083E9120EC50103E52B2C
:102BC300CB2BD22BD92BE02B639001E590801363A1
:102BD3009002E590800C639008E590800563901067
:102BE300E590D083D0820200FB74F4120D321202FE
:102BF3000553F4FEC29043FE0153F4FDC29143FE1C
:102C03000253F4F7C29343FE0853F4EFC29443FE16
:102C13001053F5FEC2A043FF0153F47FC29743FE56
:102C2300809005C97808120BE2AA08AB09AC0AAD7B
:102C33000B12025F1201ED7F04020D9843EBE0E5F6
:102C4300EB53EBEF53EBF743EB04C2BC0200FBC0C7
:102C530082C08343EB0853EBFCE5EB43EB10D2BCA0
:102C630074009003FDF0D083D0820200FB53EBF796
:102C730053EBEFC2BC0200FBC082C0839003FDE0B4
:102C8300F9D083D0820200FBC082C0837900120195
:102C9300E7D083D0820200FBEBC313FBEA13FAEA0B
:102CA300F8EBF974FF28FA74FF39FB7400687003BA
:102CB30074006960120000000000000000000000C2
:102CC300000000000080D80200FB74F6120D32747D
:102CD300FE120CDB740C120D26A882A983851082C8
:102CE300851183E8F0A3E9F085108285118385823D
:102CF300088583097808120E8512027D7402120C6E
:102D0300F17402120CF17F02020D98748055C6FA19
:102D130053BEFBE59DA2E550FAE59DA2E240F40017
:102D2300740169700774494AF5C68005E970028A1F
:102D3300C6E5C6FAE59EFBEA6B70F943BE040200E2
:102D4300FBC082C0838A828B838001A3E070FCE591
:102D530082C39AFAE5839BFBD083D0820200FBD225
:092D6300AF0200FBC2AF0200FB4D
:04000005000000E314
:00000001FF
