:020000040000FA
:060000000211B00207A985
:03002B0002263377
:03004300021001A7
:03004B00020E8220
:030053000206FBA7
:03005B00020E9101
:03006300020E9DED
:10008300020745010101010503010F10FEFF0300F3
:100093000300030003000300030003000300030045
:1000A30005000A00140028004F009E000000881A73
:1000B300881A881A881A3E193819881ABE27000028
:1000C30000004629000000000C0000000C00010A9B
:1000D300D007D00701F504FF01010038110000002B
:1000E3009311E80364006400B801020200000200F7
:1000F300050207011E02051E020A03B80B02803E19
:1001030001033200020181460A01E0020206303196
:100113003233343536373839414243444546002873
:100123006E756C6C20706F696E74657229003F3F49
:100133003F000000803FF9021550B743BA51000059
:10014300204100E7DB2E0000A04010000000080063
:1001530000000A0000001211CF60461211FC603D3E
:10016300E9687008F618F618F618F622748067F72F
:1001730012018D090909748067F7221211FC601DB1
:100183001211CF7005191919801A121044701F1219
:100193001083C37003E66733191919400718181839
:1001A3002208080874FFF618F618F618F62212103B
:1001B300836017121244702192F012123A70195090
:1001C3001720F014080808090909E7F61819E7F6D3
:1001D3001819E7F61819E7F62212123A60E6E869E9
:1001E300701F0808E62480F608E436F618547FB436
:1001F3007F0CE654806007F6E418F618F622181808
:1002030022E9C6CC08C6CD08C6CE08C6CFC0E0E8F2
:10021300C0E0EAC0E0EBC0E009E9F809E7FA09E762
:10022300FBE6F918E6F8C3EC98ED99EE9AEBC2E712
:10023300F5F0EFC2E795F0500E600CEBCFFBEACE82
:10024300FAE9CDF9E8CCF8EAA2E7D2E7FAEB33FB17
:1002530013F5F0EEA2E7D2E7FEEF33FFC5F013A2EA
:10026300E730E601B313C5F0C3C0E0C0F07F00C3BD
:100273009BFB605B9418600C401AD0E023F9D0E03C
:10028300F802035C8AF0E9486003D2F0E4AFF0FAC5
:10029300F9F8803BEB30E40D89F0EA6003D2F0E437
:1002A300AFF0F9CAF8EB30E30D88F0EF6002D2F05B
:1002B300AFF0E4CAC9F8EB54076014FBC3EA13FABE
:1002C300E913F9E813F8EF135002D2E0FFDBEDD0A6
:1002D300E0C0E030E739C3E49FFFF5F0EC98FC425F
:1002E300F0ED99FD42F0EE9AFE42F0D0E0F9D0E055
:1002F300F8E5F0607AE923F9EE20E742D802806757
:10030300C3EF33FFEC33FCED33FDEE33FE80EAEC59
:1003130028FCED39FDEE3AFED0E023F9D0E0F840B9
:1003230002801BC3EE13FEED13FDEC13FCEF135021
:1003330002D2E0FF08B800067F7F74FF802EEF3300
:1003430050178CF020F00260100CBC000C0DBD00A7
:10035300080EBE000408E860DFE933E813FFEE236C
:1003630013FE4F4D4C8008E95480FFE4FEFDFCEE84
:1003730033EF33F47004FCFD7E80D0E0FBD0E0FA71
:10038300D0E0F8D0E0CFC618CEC618CDC618CCC67C
:10039300F9221211FC7004181818221211CF700DD3
:1003A30074FFF61819F61819F61819F622E754808F
:1003B30066F612123A700F12124470F014F608F631
:1003C30008F608F680D1121244700CF608F6087687
:1003D3008008E6447F80EC121086700C1210476090
:1003E300BFE65480F6E480BB121047700519191953
:1003F30080A5E869700C763F18768018F618F6E841
:10040300F922E6CDC0E018ECC0E0E633CD33CDD31E
:1004130013F6E719FCE7191933CC33C3947F400E65
:10042300CD9D502408E65480F6E418F6800FF404BA
:100433003D14501408E6447FF6187680E418F61845
:10044300F6D0E0FCD0E0FD22CCD313CCFD18E4C6FB
:10045300CBC0E018E4C6CAC0E00808ED08C633E61E
:1004630013F618E433C675F003C3CA97CA09CB97CA
:10047300CB199C40047D08802EBD000302053E1667
:10048300B6FF050606081618C3CA33CACB33CB33E7
:10049300CA27CA09CB37CB193CC37D08803E187DD8
:1004A3000820E75CC633C6CA33CACB33CB33DDF18E
:1004B300D5F0EB30E77BCA97CA09CB974ACB199C97
:1004C300406F4B7025E620E0218066187D08C3CA83
:1004D30097CA09CB97CB199CD3C633C6CA33CACBA9
:1004E30033CB3350C9DDE7D5F0E1D3E4C636C608D4
:1004F300C636C608C636C608C636C61818188031AA
:10050300C3CA97CA09CB97CB199CB34097C633C6C6
:10051300CA33CACB33CB33DD34D5F02EC6A2E0C603
:1005230040C8CA27CA09CB37194A70BECB3CB4802E
:10053300B90808E63308E633601F181818D0E0FA44
:10054300D0E0FBD0E0FCD0E0FD22187D08CA27CA2A
:1005530009CB37CB193CD3808013F618E4B67F114F
:10056300F618B6FF0EF618C60470D2080876808017
:10057300CAF618F618F680C5001211FC604F121166
:10058300CF6012E7548066F61210447011121244C1
:10059300703B090909F4F618F618F618F62212103A
:1005A30083701512123A08080860EAE6447FF618C9
:1005B300768018E4F618F62212123A6016121244E4
:1005C3007012E4F608F608F608E65480F6090909FD
:1005D30018181822EAC0E0EBC0E0ECC0E0EDC0E080
:1005E300E687F0A4FBACF008E687F0A42CFCE43526
:1005F300F0FA1809E687F0A42C4B60027401CA359F
:10060300F0FCE433FB09E687F0D2F7A42CCB35F0FA
:10061300FC1908E687F0A42BCC35F0FBE433FD0886
:1006230019E687F0D2E7A42C4ACB35F0CD3400FC91
:1006330009E687F0D2E7A42DCC35F0FDE433FA09BF
:1006430018E687F0D2F7A42CCD35F0CA3400FC08A5
:10065300E687F0D2E7D2F7A42ACC35F07A7E20E7FA
:100663000B0ACB33CBCD33CDCC33CC33CB3350147C
:100673007004ED30E00ED2F1E4CD3DCDCC3CCC3B6B
:100683005005DA05C2F1EB547FC63308E63392F026
:10069300FBE73309E733C39A502D2B70190C0D4C2C
:1006A3004D70151806E608C333700D20F10AA2F049
:1006B30013F6E418800B4024E4F630F00276801839
:1006C300F618F618F68024D33B14501074FFA2F0EA
:1006D30013F6187680E418F618F6800FA2F013F6D6
:1006E30018E63303F618ECF618EDF6D0E0FDD0E08B
:1006F300FCD0E0FBD0E0FA22C0E074F2120ABCE5C1
:10070300A7FAE5A1FBEA5B5410600812217E53A10E
:10071300EF802AEAA2E0C0D0EBA2E092F012110E21
:10072300158182F05017906198E0FA90169BE0C310
:100733009AA2D265D0335002EAF053A1FE7F0102A0
:100743000B73C0E074F2120ABC9061A4E0FA759BCB
:1007530000E5915A540860087591F71221C0802A68
:10076300E5915A541060087591EF1221C6801BEA77
:10077300A2E0C0D0E591A2E092F012110E158182A1
:10078300F05007E0C2E0F01222E69061A3E0FAE540
:10079300E95A5404600E1222BC75E9FB906193E0A0
:1007A300A2E640F28097C0E074F2120ABC9061A501
:1007B300E0FAE5BF5A5404600653BFFB1222FE025F
:1007C3000740C3E498F8E499F91208068026C3E4C5
:1007D3009AFAE49BFBE920E7E9120806E498F8E4B7
:1007E30099F922C3E498F8E499F9120806E498F811
:1007F300E499F9C3E49AFAE49BFB22EB20E7CFE9FF
:1008030020E7E0B90010BB0008E88AF084F8AAF0FA
:1008130022E4FBC8FA22EB70227B10C833C8C93329
:10082300C9335007C39AC3DBF280069A50012ADB0F
:10083300EAC833F4C8C933F4C9FA2275F008E4C826
:1008430033C8C933C933C99AC99B5004C92AC93BA0
:10085300D5F0ECFBC833F4C8E4C9FA2212089F2090
:10086300F01430E72B74FFFCFBFA747F8022E4FC66
:10087300FBFA7480801AB48008BC00F2BB00EF80DE
:100883000F50EBF9E4C39AFAE49BFBE49CFCE49974
:10089300C6CC18C6CB18C6CA18C6F922E4C9C608FE
:1008A300CAC608CBC6D3330308CCC63392F0C3946D
:1008B3007F402E94184019C9B90704CACBCC2250E3
:1008C30025C309CA33CACB33CBCC33CC33D9F422B7
:1008D300F4600DC9CCC313CB13CBCA13CAD9F6CC5E
:1008E30022E4FCFBFA2214FCFBFA22080808EAC003
:1008F300E0EBC0E086F0E7A4FA180986F0E7A42A43
:10090300FA180986F0E7A42AFA180986F0E7A42A58
:10091300FA1986F0E7A4FBE5F02AFA190886F0E74E
:10092300A42BFBE5F03AFA190886F0E7A42BFBE5C4
:10093300F03AFA18180986F0E7A4C5F02BFBE43A5D
:10094300FA1908E7C5F0C6A426F6E5F03BFBE43A3E
:10095300FA1886F0E7A4F6E5F00826F6E43B08F675
:10096300E43A08F6D0E0FBD0E0FA22080808E630C3
:10097300E7111210C1120986080808C64480C61878
:10098300181822181818E9799EC608CAC608CBC6D3
:1009930008CCC6C370207996CACBCC7019798ECB9C
:1009A300CC70137986CC700EF9802ACA33CACB3344
:1009B300CBCC33CC331930E7F2CCCBCA33501470E1
:1009C30004EA30E00DE4CA3ACACB3BCBCC3CCC5072
:1009D3000209C3E913C6CC182313C6CB18C6CA1819
:1009E300C6F922E4CFC0E0E4CEC0E0E4CDC0E0E449
:1009F300CCC0E075F020C3E633F608E633F608E62C
:100A030033F608E633F6181818EC33FCED33FDEE35
:100A130033FEEF33FFC3EC9709ED9709EE9709EF28
:100A230097191919400FFFEC97FC09ED97FD09EE93
:100A330097FE191906D5F0BEECF709EDF709EEF7A5
:100A430009EFF7191919D0E0FCD0E0FDD0E0FED092
:100A5300E0FF222518C582C0E0E51934FFC583C035
:100A6300E0E518C3958224F8F8E4C5A885831985C1
:100A73008218C5A8E8CEF0A3E520F0A37808E6081D
:100A8300F0A3DEFAEFF0A3E58124FAF8E608F0A379
:100A9300E608F0A3E608F0A30808E608F0A3E608D2
:100AA300F0A315811581D0E0FED0E0F81581158102
:100AB3001581E8C0E0EEC0E022C0D02518C582C091
:100AC300E0E51934FFC583C0E0E518C3958224F33C
:100AD30010AF08858319858218800885831985825C
:100AE30018D2AFC8F0A3E9F0A3EAF0A3EBF0A3791F
:100AF30008E709F0A3D8FAECF0A3EDF0A3EEF0A316
:100B0300EFF0A3D0E0F0A3D0E0F0A3D0E0F0A3E5B2
:100B130020F0A3E5F0F0A322121225B90003020B83
:100B23005DE490030178CB79198002F0A3D8FCD956
:100B3300FA901BCBAA82AB8390008678D47901808C
:100B430015E493A3AC82AD838A828B83F0A3AA823C
:100B5300AB838C828D83D8E9D9E775829C7583FD3D
:100B63007402120F4875822E7583267400120F4883
:100B7300851983851882E0C0E0A3E0F9A3E0FAA316
:100B8300E0FBA37808E0F608A3DFFAE0FCA3E0FDAE
:100B9300A3E0FEA3E0FFA3E0C0E0A3E0C0E0A3E086
:100BA300F5D0A3E0F520A3E0A3F5F0E4C5A8858381
:100BB30019858218C5A8D082D083D0E0F8D0E0325E
:100BC3001211FC601C1211CF601712123A70071237
:100BD30012447001D322C0D01212447006D0D0B395
:100BE30022C32233D0D0501430E0F6C3E79608096D
:100BF300E7960809E7960809E796B32220E0D5E6C9
:100C0300970809E6970809E6970809E697B32212B9
:100C130011FC601B1211CF601612123A70071212E8
:100C230044600CB322C0D01212447005D0D022C34A
:100C33002233D0D0501330E0EBC3E7960809E79690
:100C43000809E7960809E7962220E0E4E6970809F1
:100C5300E6970809E6970809E69722D083D082EC45
:100C6300C0E0EDC0E0E493A3FCE493A3FDED4C608E
:100C73000D120CF0EC24FFFCED34FFFD80EFE49348
:100C8300A3FCE493A3FDED4C600D120E2DEC24FFA9
:100C9300FCED34FFFD80EFD0E0FDD0E0FCE493A356
:100CA300C0E0E493C0E022D083D082E9C0E0E493C3
:100CB300A3C386F0C5F095F0F908E493A386F0C5C5
:100CC300F095F0700BE493A3C3994005E904800207
:100CD300A3E475F002A42582F582E5F03583F5835C
:100CE300D0E0F9E493A3C0E0E493C0E022C0E0C302
:100CF300E49396087401939618400FE49366700882
:100D030008740193661870007019A3A3C3E4939643
:100D1300087401939618A3A3400DD0E0D0E0D0E06F
:100D2300020C9AA3A3A3A3A3A3D0E02285198385CE
:100D33001882E0A3FEE0A3F5207808E0A3F608DF1D
:100D4300FAE0A3FFE0A3C0E0E0A3C0E0E0A3C0E0BB
:100D5300E0A3C0E0E0A3C0E0E4C5A88582188583D2
:100D630019C5A8D083D082020F4ED083D082C5F09C
:100D7300E493A3C5F0C395F0F5F0E493A3C395F012
:100D83004005E5F0048001E475F002A42582F582B4
:100D9300E5F03583F583E493A3C0E0E493C0E02258
:100DA3007404800474028000CCC0E0EDC0E0E51858
:100DB300C39CCCAD1950011D10AF068C188D198042
:100DC300068C188D19D2AF120ECBD0E0FDD0E0FC0B
:100DD3002274028000CCC0E0EDC0E0E518C39CCCD7
:100DE300AD1950011D10AF068C188D1980068C1893
:100DF3008D19D2AF120EA9D0E0FDD0E0FC22121162
:100E0300FC60251211CF602012123A7003021244C3
:100E1300080808E76670101819E766700A1819E7DA
:100E23006670041819E76622F422C0E0C0F088F067
:100E3300E4936670080874019366187000A8F0A321
:100E4300A3700BD0F0D0E0D0E0D0E0020C9AA3A3C3
:100E5300D0F0D0E022D083D082CCC0E0E493A36072
:100E630006120F0B1470FAE493A3600612102E14EB
:100E730070FAD0E0FCE493A3C0E0E493C0E022C0A6
:100E8300E074F2120ABC1220BE7F01020B73C0E0B1
:100E930074F2120ABC1220C480EFC0E074F2120A8A
:100EA300BC1220CA80E3CAC0E0E493A3C582CCC5C8
:100EB30082C583CDC583F0A3C582CCC582C583CD4E
:100EC300C583DAE5D0E0CA22CAC0E0E0A3C582CC7C
:100ED300C582C583CDC583F0A3C582CCC582C58336
:100EE300CDC583DAE6D0E0CA22700908080822607B
:100EF30016181818C6C333C608C633C608C633C681
:100F030008C633C6D5E0EA22C0E0E493A3D39C50DD
:100F130010E493A3C39C400AD0E0D0E0D0E0020EDB
:100F230075A3A3A3D0E022C5822518C582C5833546
:100F33001910AF07F5198582188007F519858218EE
:100F4300D2AFC58322C09FF59FE473D09F22D08385
:100F5300D082C09FE493C0E0740193C0E074029315
:100F6300F59F227404800A7403800674028002745D
:100F730001C0E0F404120F81D0E012120B222518F5
:100F8300F58210AF08F518400215198008F51840CE
:100F9300021519D2AF85198322BB0102E722C08251
:100FA300C08389828A83BB0003E08002E493D083F9
:100FB300D08222C0D0251810AF08F51850020519A9
:100FC3008008F51850020519D2AFD0D02260160858
:100FD3000808C6C313C618C613C618C613C618C650
:100FE30013C6D5E0EA22C3E0C696F608A3E0C69688
:100FF300F608A3E0C696F608A3E0C696F622C0E07C
:1010030074F2120ABCC2C0E5D1A2E450031220F468
:101013007F01020B73251810AF08F518400215194C
:101023008008F51840021519D2AF22C0E0E493A35B
:101033006C7009D0E0D0E0D0E0020E75A3A3D0E03D
:1010430022181818E6084608700AE608C333700524
:10105300E633F4220822C3E7960809E7960809E76E
:10106300960809E796A2D265D03322E0667010088D
:10107300A3E066700A08A3E066700408A3E0662292
:10108300191919E7094709700AE709C3337005E716
:1010930033F4220922C3E09608A3E09608A3E0965E
:1010A30008A3E096A2D265D03322C3E096F008A34A
:1010B300E096F008A3E096F008A3E096F022181853
:1010C30018E4C396F608E496F608E496F608E49660
:1010D300F622E026F608A3E036F608A3E036F60883
:1010E300A3E036F622E026F008A3E036F008A3E0FA
:1010F30036F008A3E036F022E627F60809E637F6CD
:101103000809E637F60809E637F622C0E0E8C0E04A
:10111300E58124FCF8E6A2E7D0E0F8D0E022E65728
:10112300F60809E657F60809E657F60809E657F6FA
:1011330022E056F608A3E056F608A3E056F608A305
:10114300E056F622E647F60809E647F60809E647B9
:10115300F60809E647F622700422600D18C6C33369
:10116300C608C633C6D5E0F41822E056F008A3E05B
:1011730056F008A3E056F008A3E056F022C6F4C6E2
:1011830008C6F4C608C6F4C608C6F4C622C3E09669
:1011930008A3E09608A3E09608A3E09622C3E79687
:1011A3000809E7960809E7960809E7962275D0002B
:1011B30075814075180175190300020B1B600C083B
:1011C300C6C313C618C613C6D5E0F422E7094709F8
:1011D300C3134709336002E733F422E6F008A3E6BA
:1011E300F008A3E6F008A3E6F022E0F608A3E0F691
:1011F30008A3E0F608A3E0F622E6084608C3134670
:1012030008336002E633F422CAC0E0E6F0A308DA4A
:10121300FAD0E0FA22C5822518C582C5833519C5DF
:10122300832274F855C74401F5C77901222518F5BF
:1012330082E43519F58322E6C33318461846184667
:1012430022E7C33319471947194722120F514D2F6C
:1012530000120F51882F00120F51C52F00120F518A
:10126300E62F00120F51323000120F510C310012D1
:101273000F51BD3100120F514D3200120F513D334A
:1012830000120F51803300120F51A53300120F517A
:10129300F73300120F511C3400120F514335001263
:1012A3000F51B73500120F51DA3500120F510236C4
:1012B30000120F51143600120F511E3600120F5137
:1012C300A23600120F51113700120F51BA37001214
:1012D3000F51C23700120F512C3800120F516E38C4
:1012E30000120F517E3800120F51663900120F5150
:1012F300F13900120F51543A00120F51263B0012DC
:101303000F519D3B00120F51DA3B00120F51413C2C
:1013130000120F518E3D00120F51AA3D00120F51C2
:10132300033E00120F51A03E00120F51F03E001277
:101333000F518B3F00120F51384000120F5176406E
:1013430000120F51E64000120F51314100120F51AC
:101353006A4100120F519A4200120F51ED430012DD
:101363000F514E4400120F51974400120F51BF44C6
:1013730000120F51424500120F51C24500120F5186
:10138300354600120F515A4600120F516B46001298
:101393000F51E14600120F51854700120F51C74705
:1013A30000120F514D4800120F51744800120F5193
:1013B3009C4900120F51AF4900120F51084A001205
:1013C3000F51494A00120F51D14B00120F51674D73
:1013D30000120F51964D00120F51434E00120F5140
:1013E3009C4E00120F51884F00120F518B51001267
:1013F3000F51955100120F519F5100120F51A951D6
:1014030000120F51B35100120F51CD5100120F5161
:10141300D75100120F51E15100120F51EB5100123D
:101423000F510C5200120F515A5200120F516452B5
:1014330000120F51885200120F51AC5200120F517B
:101443000B5300120F51565300120F5174530012D5
:101453000F51E45300120F51215400120F516854DD
:1014630000120F51D05400120F51425500120F5168
:10147300765600120F51995600120F515C57001205
:101483000F51825700120F51625800120F51C35A65
:1014930000120F512A5C00120F51ED5D00120F5123
:1014A3003F5E00120F51225F00120F516F5F001257
:1014B3000F51DA5F00120F51E45F00120F51036204
:1014C30000120F51286200120F51796200120F515E
:1014D3007A6300120F51B26300120F51F2630012CC
:1014E3000F51556400120F516E6500120F51CE65F6
:1014F30000120F51B46600120F51BA6800120F5157
:10150300D66800120F517B6A00120F51C16A001294
:101513000F519F6B00120F51096C00120F513A6C5F
:1015230000120F51766C00120F51046D00120F510F
:10153300076D00120F51736D00120F513A810112A2
:101543000F518C8101120F51C38301120F510F846C
:1015530001120F51D18401120F51488501120F510D
:10156300708601120F51AD8801120F514489011287
:101573000F51E48F01120F516A9001120F51E7923C
:1015830001120F51CB9301120F51709401120F519D
:10159300899501120F51BA9601120F51AD9701129D
:1015A3000F51DE9A01120F51A19C01120F51019D9F
:1015B30001120F51B79D01120F51649E01120F5179
:1015C3008F9E01120F511C9F01120F5109A001128E
:1015D3000F51DDA001120F517BA101120F51A8A1E0
:1015E30001120F51CAA101120F51C3A301120F51CE
:1015F3009EA401120F51EBA401120F514CA501122D
:101603000F510EA601120F5143A601120F5191A6BD
:1016130001120F51C1A601120F51FFA601120F5162
:1016230057A701120F515CA701120F51B7A701125F
:101633000F51DFA701120F51FEA801120F516AA922
:1016430001120F51D4A901120F515DAA01120F51BA
:101653007CAC01120F515AAD01120F51C9AE0112E8
:101663000F515BB001120F51EBB001120F51F2B1E8
:1016730001120F517BB201120F51C2B201120F516D
:1016830039B401120F514DB401120F5167B4011255
:101693000F5182B401120F518EB401120F51ACB429
:1016A30001120F5163B601120F519CB601120F5173
:1016B300A9B601120F51B2B601120F511EB7011292
:1016C3000F5174B701120F517FB801120F51DBB8DC
:1016D30001120F51CEB901120F5112BA01120F515B
:1016E30095BA01120F5199BB01120F5155BC01124A
:1016F3000F51D0BD01120F51AABE01120F5141BFAC
:1017030001120F51D3BF01120F51EABF01120F5142
:101713000EC001120F5118C001120F5124C0011243
:101723000F5142C001120F5186C001120F51D7C091
:1017330001120F51F8C001120F5135C201120F519E
:1017430081C201120F5178C301120F51A0C30112BC
:101753000F5102C401120F517BC401120F518CC5EA
:1017630001120F5138C601120F5125C701120F5133
:1017730089C701120F5120C801120F51F0C801127D
:101783000F511FC901120F517EC901120F512CCAEB
:1017930001120F5152CA01120F51CACA01120F513D
:1017A300EFCA01120F5112CB01120F514DCB01128F
:1017B3000F512BCD01120F5118CE01120F51D0CE64
:1017C30001120F5167D001120F51BBD001120F51FB
:1017D300DAD001120F5149D101120F51BDD10112BB
:1017E3000F5116D201120F513CD201120F5177D271
:1017F30001120F51A3D201120F51EED201120F5158
:1018030047D301120F51C3D301120F51A7D40112B1
:101813000F5114D501120F513DD501120F51A3D50C
:1018230001120F51F8D501120F5132D601120F5187
:1018330087D601120F51ACD601120F51F2D6011205
:101843000F510FD701120F51B9D701120F5128E6CB
:1018530003120F5173E603120F516C8002120F51E2
:10186300A08002120F51768102120F514A82021296
:101873000F51758302120F51F98402120F517785AC
:1018830002120F513E8602120F515F8702120F514F
:10189300D18702120F51338802120F51818802122D
:1018A3000F518B8802120F51C98802120F513289CE
:1018B30002120F51D18902120F514F8A02120F5196
:1018C300048B02120F51768B02120F519C8B021262
:1018D3000F51CC8B02120F51F98B02120F519F8CB7
:1018E30002120F51AF8C02120F51028D02120F51CF
:1018F3000E8D02120F511A8D02120F51238D0212F7
:101903000F51848D02120F51E48D02120F51358E47
:1019130002120F51508E02120F51808E02120F517C
:10192300A18E02120F51AD8E02120F51EE8F0212D1
:101933000F510C9002120F51759002120F518890A3
:1019430002120F519F9002120F51329102120F5146
:10195300319202120F512D9302120F51AF930212C3
:101963000F51B99302120F511C9402120F512D946F
:1019730002120F51709402120F51B79402120F51B9
:10198300ED9402120F51239502120F514195021249
:101993000F51659502120F51A69502120F51999698
:1019A30002120F51DF9602120F511A9702120F51B2
:1019B300799702120F51A19702120F51DA9702126F
:1019C3000F51E89702120F51499802120F5186984E
:1019D30002120F51C89802120F51F99802120F51B7
:1019E3002D9902120F51389902120F515699021272
:1019F3000F511E9A02120F51289A02120F51679A21
:101A030002120F517D9A02120F51E79A02120F51DF
:101A1300FB9A02120F51F39B02120F51069C021202
:101A23000F511B9C02120F51BB9C02120F511F9DA1
:101A330002120F51E29D02120F51ED9D02120F513E
:101A43000C9F02120F51289F02120F51809F021206
:101A53000F51B79F02120F51D19F02120F5145A090
:101A630002120F51D6A002120F511EA102120F51E2
:101A730039A302120F51A3A302120F510EA4021293
:101A83000F5167A602120F5177A602120F517AA6C1
:101A930002120F5186A602120F519AA602120F517B
:101AA300A2A602120F51D7A602120F5185A7021246
:101AB3000F51F5A702120F5159A802120F51F2A8A4
:101AC30002120F518CA902120F51BAA902120F511F
:101AD3004AAA02120F5156AA02120F5185AA0212E4
:101AE3000F51A7AA02120F51CEAA02120F5134AB03
:101AF30002120F519EAC02120F51A1AC02120F51F0
:101B030018AD02120F5104AE02120F51DCAE0212D5
:101B13000F5166AF02120F519BB002120F514DB11C
:101B230002120F5186B102120F51B7B102120F51B7
:101B3300C0B102120F51ACB202120F5128B30212FC
:101B43000F51B8B302120F5182B402120F5106B5EE
:101B530002120F513CB502120F5185B502120F51FB
:101B6300008003120F51128003120F51858003125C
:101B73000F51D22B00120F51128103120F51CA823F
:101B830003120F51AE8403120F51292F00120F516C
:101B9300CF8703120F51F38703120F516288031289
:101BA3000F51968803120F51D38803120F510F89D7
:101BB30003120F51508903120F510DB003120F512D
:101BC3002FB003120F5140B003120F5151B0031243
:101BD3000F51A8B003120F51FBB003120F5158B1AC
:101BE30003120F51892E00120F518DB303120F519F
:101BF300EFE403120F51D6FA01120F51F8FB011251
:101C03000F5143FC01120F5196FC01120F51E0FCDE
:101C130001120F5112FD01120F5115FD01120F5147
:101C230018FD01120F517AFD01120F51D5FE011259
:101C33000F51BBFF01120F5198D803120F51B3D8A4
:101C430003120F51FED803120F5148D903120F513B
:101C5300EBD903120F5170D503120F51B6D60312ED
:101C63000F51CEE503120F510FD703120F5128D78F
:101C730003120F5168D703120F5117D803120F51D4
:101C830046D803120F51E5C503120F5160C6031264
:101C93000F516BC603120F5190C603120F51009FD1
:101CA30003120F51469F03120F51B69F03120F5198
:101CB300DE9F03120F51A0A003120F51A9A003121C
:101CC3000F51FFA003120F512AA103120F5189A133
:101CD30003120F5128A203120F5164A203120F51D2
:101CE300BEA203120F5115A303120F5143A30312F4
:101CF3000F51C2A303120F510FA403120F514EA48D
:101D030003120F5182A403120F5194A403120F5113
:101D1300A6A403120F51C5A403120F5184A50312E5
:101D23000F51C5DD03120F51BECF03120F5122D045
:101D330003120F5146D003120F514CD103120F510E
:101D4300C66D00120F51AE6E00120F51EA6E0012F3
:101D53000F519B7000120F51DD7000120F519172E1
:101D630000120F51D87200120F51B57300120F51A8
:101D7300407400120F51D77400120F512B750012CB
:101D83000F516B7500120F51287700120F5196787F
:101D930000120F51A87A00120F51B67A00120F5198
:101DA3001A7B00120F516E7B00120F51637E0012DB
:101DB3000F51D9FF01120F51EFFF01120F51AFB7AE
:101DC30003120F51C7B703120F516FB803120F510C
:101DD300B0B803120F51CDB803120F51F0B803126C
:101DE3000F5137B903120F5170B903120F51A4B930
:101DF30003120F5132BB03120F51BAE003120F51FA
:101E03002EE103120F5173E103120F5184E1031208
:101E13000F518EE103120F5176E403120F5103E0C9
:101E230002120F514CE002120F5154E102120F51F2
:101E33000EE202120F5123E202120F516DE202125F
:101E43000F51BEE202120F51D1E202120F5114E3FD
:101E530002120F51F9E402120F510FE602120F5151
:101E63004AE602120F5154E802120F516CE80212B3
:101E73000F51ADE802120F51E1E802120F5141E98F
:101E830002120F515AE902120F5177E902120F5150
:101E9300DBE902120F5186EB02120F51A8EB02127B
:101EA3000F51DDEB02120F5108EC02120F5118EC27
:101EB30002120F5124EC02120F518EEC02120F5139
:101EC30045ED02120F5179ED02120F5183ED02120B
:101ED3000F51A0ED02120F5102EE02120F511FEE2D
:101EE30002120F5187EE02120F51C2EE02120F516E
:101EF300D1EE02120F51C6DF03120F51D7DF0312C7
:101F03000F5168E003120F51CBB502120F51F9B50F
:101F130002120F5168B702120F51F6B702120F5196
:101F230072B802120F51D5B802120F5117B902122B
:101F33000F518EB902120F5139BA02120F51BBBAA7
:101F430002120F51F7BA02120F51B3BE02120F5110
:101F530080C002120F514AC102120F516EC1021208
:101F63000F5159C302120F51CBC502120F5158C65C
:101F730002120F5169C702120F51D0CA02120F5138
:101F8300E0CA02120F514ACC02120F51C5CC021201
:101F93000F51DFCD02120F515FCF02120F51E7EE47
:101FA30002120F51A6EF02120F511AF002120F5133
:101FB3009EF002120F51F5F002120F51F4F10212CA
:101FC3000F5151F202120F5166F502120F51F8F53B
:101FD30002120F515DF602120F51FCF702120F515C
:101FE300B7F802120F5123F902120F51B7FA021276
:101FF3000F5154FB02120F5154FC02120F51FAE21B
:1020030003120F51FCE203120F510FE303120F519E
:10201300C3D103120F5110D203120F51BFD20312B7
:102023000F5125D303120F5119FE02120F5172FEE5
:1020330002120F5143E203120F518FE203120F51A9
:10204300A3D303120F51B1D303120F51E47F001234
:102053000F51EFE303120F51FFE303120F5117E484
:1020630003120F5168E403120F5195DC03120F5151
:10207300BCDC03120F5145DD03120F51ACDD03121B
:102083000F51DD9E03120F51F77F00120F51FA7F9C
:1020930000120F5175C203120F5183C203120F5165
:1020A30003C303120F51CAC303120F5180C5031296
:1020B3000F5100DA03120F513BDA03120F515FDAAB
:1020C30003120F51BDDA03120F511FDB03120F511D
:1020D300ADA503120F512CA603120F51DCA6031258
:1020E3000F515DA703120F516DA803120F5111AACF
:1020F30003120F517AAA03120F51E8AA03120F51C8
:10210300F6AA03120F5105AB03120F5118AB0312BA
:102113000F512EAB03120F5137AB03120F514AABC2
:1021230003120F519BAB03120F51AFAD03120F51AB
:10213300E7AD03120F510CAE03120F5125AE03127C
:102143000F513EAE03120F513FAF03120F51CEAFEB
:1021530003120F51A3CD03120F51E6CD03120F51FA
:10216300F7CD03120F512ACE03120F5160CE031283
:102173000F5196CE03120F510FCF03120F514CCFB5
:1021830003120F519FC803120F51C7C803120F51F7
:1021930004C903120F5116C903120F5132C9031296
:1021A3000F519AC903120F51A3C903120F5104CA45
:1021B30003120F5128CA03120F51EFCA03120F5112
:1021C300FCCA03120F510DCB03120F5162E5031228
:1021D3000F51AFE503120F5151BB03120F51ACBCAA
:1021E30003120F51B9BC03120F51CFBC03120F518D
:1021F300ECBC03120F5103BD03120F5118BD0312A0
:102203000F519CBD03120F517BBE03120F51C4BE6D
:1022130003120F51D4BE03120F51A8E103120F5141
:10222300CDE103120F51F6E103120F511EE2031227
:102233000F513BCB03120F5154CB03120F5160CB01
:1022430003120F5174CB03120F5198CB03120F518A
:10225300A4CB03120F51B3CB03120F51C6CB0312FE
:102263000F5119CC03120F5153CC03120F5183CCCE
:1022730003120F51D2CC03120F5120CD03120F5171
:1022830038CD03120F5142CD03120F5153CD031218
:102293000F5198CD03120F517DE603120F51D192C6
:1022A30003120F51FD9203120F51199303120F5191
:1022B3002C9303120F51429303120F51AC93031249
:1022C3000F51DF9303120F51449703120F516D986F
:1022D30003120F519D9803120F51069903120F51C8
:1022E300EA9903120F51129A03120F51279A0312FC
:1022F3000F51379A03120F51789A03120F51CD9A47
:1023030003120F51DD9A03120F515EDB03120F51BB
:1023130079DB03120F51A2DB03120F51BCDB031253
:102323000F51E1DB03120F5100DC03120F5119DCD3
:1023330003120F5148DC03120F5163DC03120F51D8
:10234300C5E603120F51E3BE03120F51EABE031297
:102353000F51F7BF03120F5129C003120F514FC082
:1023630003120F5182C003120F5194C003120F5175
:10237300CFC003120F513FC103120F517CC103128F
:102383000F51C9C103120F51F7C103120F5117C2E5
:1023930003120F51AC7E00120F51CE7E00120F516B
:1023A300E17F00120F51C6DE03120F5124DF031227
:1023B3000F5163DF03120F51A4DF03120F518E89F4
:1023C30003120F51988903120F51DB8903120F5126
:1023D300CC8B03120F511B8C03120F51018D03126F
:1023E3000F51438D03120F51748D03120F51018E40
:1023F30003120F51E19003120F51CE9103120F51AB
:102403004C9203120F518B9203120F51099B03122B
:102413000F51289B03120F51719B03120F518D9B78
:1024230003120F51BE9B03120F51D59B03120F5181
:10243300E29B03120F51FF9B03120F51EC9C0312FB
:102443000F51239D03120F512D9D03120F513A9EDD
:1024530003120F51459E03120F51579E03120F5142
:10246300609E03120F516A9E03120F5100B40312B0
:102473000F5193B703120F5105E703120F5134E7BE
:1024830003120F5162E303120F518BE303120F5137
:1024930001D002120F51D9D402120F51B02B0012E6
:1024A3000F51912B00120F515E2B00120F51A4FA02
:1024B30001120F5186FA01120F51A4F901120F51A3
:1024C30008F901120F5194F701120F510E2F001248
:1024D3000F51A18703120F5140F501120F5172F4EE
:1024E30001120F516C2E00120F512D2E00120F519D
:1024F3009CF301120F5167F301120F5134F30112D0
:102503000F5115F301120F51B5F201120F5167F27A
:1025130001120F51ABF101120F5169EE01120F516C
:1025230041EE01120F51E6ED01120F51C3ED0112FD
:102533000F511DED01120F51C5EC01120F5122EB8A
:1025430001120F511FEB01120F512EEA01120F510D
:102553000EEA01120F515EE901120F51E0E7011279
:102563000F51A7E701120F5178E701120F51E12D27
:1025730000120F510F2D00120F51742C00120F5126
:1025830075E701120F5167E701120F5153E701126B
:102593000F51032C00120F5146E701120F5169E648
:1025A30001120F51F5E501120F51BBE501120F5155
:1025B30063E501120F51D32E00120F51A2B1031282
:1025C3000F51E42B00120F5132E501120F5164E257
:1025D30001120F5122E201120F5116E201120F51A3
:1025E30089E101120F51D7E001120F5176DE01127A
:1025F3000F51E0DB01120F51AADB01120F5148DA30
:1026030001120F51F4D901120F512DD901120F519B
:1026130000D901120F515AD801120F512DD80112AE
:102623000F51F3D701120F51BB800300000080FB51
:10263300C2C732E473870001000C12240002002A8F
:102643001C250002002C1C260002002E1C27000261
:1026530000301C28000100321C29000100331C84B7
:10266300000400341C86000100381C2A00010039D4
:102673001C2B0001003A1C2C0001003C1C2D0008FF
:1026830000E8112E0001003D1C2F0001003E1C300C
:102693000001003F1C31000100401C32000100F02A
:1026A3001133000100F11134000100411C36000117
:1026B30000F211830002004E1C62001000FB116344
:1026C3000001000B1264000100E511650001003BED
:1026D3001C6D0001004D1C6E000200E61143000159
:1026E30000421C44000200431C45000100451C46F7
:1026F300000200461C47000800F31148000100488F
:102703001C49000100491C4A0002004A1C4B0001FD
:10271300004C1C04000100501CA1000100521C3796
:10272300000100511C0000000000000001363601CA
:102733000100010201000103010001040106060575
:10274300020000070100340801000F090401010D14
:102753000100FF0E08000017020000190100FF1A14
:102763000100011B0100FE1C0100081D0200001FE7
:1027730001000120010001210200002301000F24B8
:102783000200002601000127010008280200FF2A99
:102793000100072B0102402C0100002D0100012E36
:1027A3000100012F0100FF30010B1C310800003A2A
:1027B3000100083B01000F2F0100000300710030EE
:1027C30001600011007000310220035004800010EA
:1027D3000061000000140063007300720062004394
:1027E30000000013000600000000000400120000B7
:1027F3000000000000000004000400370037003C24
:1028030002440000000000000000006500000035E5
:102813000081000000050000008300000001017139
:1028230001010101011101010131010101010180D6
:1028330001100161013B0014006301730172016225
:102843000143010001130106013D0135000401129A
:1028530001000100010001000104010401330133FF
:10286300013C014401320136000001000165010011
:10287300013500810100010501820183010001038B
:1028830004710402046004110470040204020401CC
:102893000402041004610400041404630473047246
:1028A3000462044304000413040604000400040443
:1028B3000412040004000400040004510464000032
:1028C300040004000444040004000400040004653C
:1028D3000400043504810464000504000483040037
:1028E300040302710230016002110270020102024C
:1028F3000202028002100261023A00410063027385
:102903000272026202430200021302380000020054
:102913000204021202000200020002000204020486
:1029230002370037003C0244020002390000020073
:10293300026502000235028102000205028202835F
:1029430002000201037103010301030103010301F7
:102953000322030203010310030003000300030027
:1029630003000300030003420300032403060300E0
:102973000300030403120325032303250323030492
:1029830003040300030003000344030003000323C1
:1029930003000365032100350381030003050300DE
:1029A300030003000336000100060000000F0000CF
:1029B300000000000000000000000003FFFF000013
:1029C3000403FFFF0000FFFF0FF4010005C404032D
:1029D30020000100000B00000000000000000301C4
:1029E3000F0000C21F13005C1F0100C21F0200265C
:1029F3001F03002C1F0400321F0500381F0600446C
:102A03001FFFFF000001781506AE1508A8150BC0BF
:102A130015100015027E15059C150784150C60150D
:102A23000D6C15FF000003000300040008001000F4
:102A33001F003E007B00F600EC01D703AF075D0FDC
:102A4300B91E713D000003EAF5E5D5D5C5B5A595D9
:102A53009585857575656555554545353525251523
:102A630015059819C8199E19A419C219B619B019D0
:102A7300CE19D419DA19E619AA1992198C199C36A8
:102A8300063A703DD9404344AD47174B814EEA5156
:102A930000160F00000B150B020002220F3200007C
:102AA30006000102030405060708090A0B0C0D0EB4
:102AB3000F881A9A1AA01A6219A61A5C1968199C27
:102AC300189618D218D818CC188418001B1E1B246B
:102AD3001B061B121B0C1B0C0E020B040B0A070814
:102AE300000F303016181920231A1C1E300001194C
:102AF300161816161523030000383C3E363B3B35AB
:102B03002B432C00034948424D181725050230304A
:102B130017181921301B1D1F30BC19E019181BECA5
:102B230019F219F41AAC1AB21ABE1AB81AA818AEC6
:102B330018A218DE180005150D09100804B418C6EC
:102B43001800BE040A0E0015000400010309280F33
:102B5300100A0900000C040810080574F6120A563E
:102B630074FF121018E4851882851983F085820892
:102B73008583097808120F6E7508017509007808B6
:102B8300120F6E12439C120FB67401024E3B74F681
:102B9300120A568C088D097808120F6E75080B758A
:102BA30009007808120F6E12439C024E3B74F61212
:102BB3000A568C088D097808120F6E75080B750973
:102BC300007808120F6E1243A7124292024E3BC0C6
:102BD30082C0838A828B83E0D2E7F0121ECC024E3E
:102BE30086C082C083790012574890032E125DDDA0
:102BF300C3EA9CEB9D5006123365600109024E86C1
:102C030074F7120A56EA125DD4EB1261D3122E62E4
:102C1300AEF075F00BEDA42EFD900330E02CFEA377
:102C2300E03DFFEA2403FCEB3400FD740169600519
:102C330074026970278A828B83A31257528E828F04
:102C430083A3124BCB740269701DECFAEDFB121BCC
:102C53008AE97013E48E828F83F0800BEE2403FAEB
:102C6300EF3400FB1224CCEEFAEFFB121B72023E90
:102C7300EB74F2120A568A088B09EA240BF50CEB63
:102C83001261B879008A828B83E06070890A890BAC
:102C9300805FE50A75F00BA4FAACF075F00BE50B59
:102CA3001230F77049AE82AF83850882850983129B
:102CB30068891231B1A3126156A3124D8AE5082423
:102CC30003FCE5093400FDEE24030A0A0AEF34008D
:102CD300FB1224CC850C82850D83E50AF0A3E50B5A
:102CE300125350121B72790190032E125DE5122DBF
:102CF300021230EFE50A9AE50B9B4096024780E506
:102D03000A2401F50AE50B3400F50B2274F1120ACB
:102D130056EAFEEBFF740F121230124394750E0144
:102D2300850882F583A385820C85830DEE240BF839
:102D3300EF3400F9EC7001ED6030EC125DD4ED126C
:102D43004BC17901EEFAEFFB122592E5087002E51B
:102D5300097003022DDA850C82850D831261BD791A
:102D630002AA08AB09122592806DEE2403F50AEF3F
:102D7300122D0AE5087002E5096033125DD2E509F8
:102D8300124BC1E5082403FAE50934001230E77059
:102D93000CEEFAEFFB12257AE9F50E80B9AA0AAB1D
:102DA3000B1230E870317903EEFAEFFB80B78E82B5
:102DB3008F83A3E064FE7004A3E064FF700A0A0A31
:102DC3000AAB0B1230E8700CEEFAEFFB12257AE92E
:102DD300F50E8003750E00A90E7F07020D2F74F701
:102DE300120A5690032E124BCBEA7001EB6031EAC4
:102DF30075F00BA4FAACF075F00BEBA42CFBEAFE18
:102E0300EBFF121D34900330124BCB900330E07074
:102E130002A3E06012EEFCEFFD7900121CAA80070A
:102E2300900330E4F0A3F0023EEB74F6120A5675F9
:102E330008007509007808120F6E90032E122E6297
:102E4300AAF075F00BEDA42AFD7A237B00121D9ADC
:102E53007402120FB6E9FE60031224E40241221247
:102E6300617AEC75F00BA4FC2274F7120A567E000B
:102E73007F00800AEEFAEFFB1224A812400D122EF7
:102E8300C740F1023EEB74F7120A567E007F0080C2
:102E930016EEF8EFF9122EB2FCA3E039FDEEFAEFCD
:102EA300FB12249C12400D122EC740E5023EEBE8B4
:102EB30075F00BA4F8AAF075F00BE9A42AF99003B6
:102EC30030E0282290032E125187C3EE98EF992207
:102ED30074F7120A567E007F008028EEF8EFF9E8B7
:102EE30075F00BA4F8AAF075F00BE91231ACA2E768
:102EF300500EC2E7F0AC82AD83EEFAEFFB1224A2D0
:102F030012400D122EC740D3023EEBC082C083ECA9
:102F13007001ED60051223B880097C087D007900FB
:102F2300121CAA024E8674F6120A567900EA700140
:102F3300EB60147C008C0812635D600479017C08EB
:102F43000CECC3940840EE024E3E74F7120A56741A
:102F5300F3121018ECFEEDFFE4851882851983F057
:102F630074011212301243E5121266740312123006
:102F7300AC82AD83EEFAEFFB1224CCEEFAEFFB1238
:102F83001B8A023EE674F7120A5674F3121018EC09
:102F9300FEEDFFE4851882851983F0EAFCEBFD74EE
:102FA3000312123012441A7401121230124D877434
:102FB300FE68700374FF696004790180027900027E
:102FC3003EE674F7120A56EAFEEBFF123013701056
:102FD30012301E64FFFC8A828B83E05CF0121B724A
:102FE3000246DC74F7120A56EAFEEBFF7508008E00
:102FF300828F83E06017123013701212301EFC8A26
:10300300828B83E05C7006E04CF0121B720246DC9C
:103013001225C2E9F5087401650822124BB6125154
:1030230087122EB2FAA3E039FB8E828F83E02274DB
:10303300F0120A568A088B09EA2403FEEB3400FFD8
:103043007C007D000A0A0AFB1224CCE508240BF558
:103053000CE5091261B87900850882850983A38587
:10306300820A85830BE064FE7004A3E064FF60655D
:10307300890889098054E50875F00BA4FAACF0754A
:10308300F00BE5091230F7603E850A82850B831247
:103093006A68A3E06C7003A3E06D702BEA2403F568
:1030A3000EEB3400F50F1230E4700BAC0EAD0FEEE7
:1030B300FAEFFB1224CC850C82850D8312618F7984
:1030C3000190032E124394124E121230EFE5089A28
:1030D300E5099B40A18005740D120FB67F08020D10
:1030E3002F0A0A0AFB121B8AE964012290032E129B
:1030F3005756C322A42CFB900330E02AFAA3E03BEB
:10310300FB8A828B83E0540F2274EF120A568A8261
:103113008B83A385820E85830F1261BDEA240BF591
:1031230008EB124E1A8508821261BB751000EA245F
:1031330003F50CEB3400F50D1230E47065750A00ED
:10314300750B008055E50A75F00BA4F8AAF075F02D
:103153000BE50B1231AC540F603DAE82AF83EE240E
:1031630003FCEF3400FDAA0CAB0D1223B2E964019A
:1031730070258E828F83A3124E0E850E82850F8358
:10318300E8F0A3E91231B1E50AF0A3E50BF07510FD
:103193000190032E125DE5122D0290032E1242853B
:1031A30040A3A9107F09020D2F12323BE0221231F6
:1031B300B522F08508828509832274F3120A56EA40
:1031C300FEEBFF8E828F83A385820A85830B1261B8
:1031D300BDEE2403F508EF124E1A7C007D000A0AA7
:1031E3000AFB1224CCEEFAEFFB1225C2E9F50C74AC
:1031F30001650C703EEE125DD4EF12324575F00B93
:10320300A4F8AAF075F00BE912323BA312575285CA
:103213000A82850B83124BCBE82403FEE93400FFBB
:10322300EEFAEF1230E7700BEEFCEFFDAA08AB09E4
:103233001224CCA90C023E9B122EBEF8A3E0390245
:103243005AB1124BBC125187E82274EE120A56741B
:10325300E6121018EAFEEBFFEE240BF50AEF122D2F
:103263000A850A821261BB750E0175080075090093
:10327300751000751100E4851882851983F0EE241A
:1032830003FCEF3400FD7403121230AA82AB8312E5
:1032930024CC8E828F83A385820C85830D8518822F
:1032A300851983AA82AB8312126CE96401703474AA
:1032B3000B121230124E0E850A82850B83124D8A31
:1032C3007401121230124E0E850C82850D83E06854
:1032D3007003A3E069605585188285198385820888
:1032E300858309740D121230E4126180F8A3E0F9AA
:1032F300740E121230124D8A740D121230AA82AB60
:1033030083121266E96401700B740D121230858208
:10331300108583117810120F6EAC08AD09EEFAEF29
:10332300FB1225747402120FB6E9F50EEEFAEFFBE9
:10333300121260A90E741A025F67C082C0837800FC
:1033430079008003123C381230EFE89AE99B500D64
:10335300E8FAE9FB12336570EB7900800279010228
:103363004E86EA75F00BA4FAACF075F00BEBA42CC7
:10337300FB900330126C00F583E0540F22C082C02F
:1033830083902B4A123DA2EC75F012A4FCAAF075AF
:10339300F012EDA42AFD79FF7AC57B16121CAA024E
:1033A3004E8674F6120A567E007F007C007D0080F4
:1033B300348C088D09E50875F012A4F508ABF07597
:1033C300F012E509A42BF509E50824C9F582E509FE
:1033D3003416F583E0FBC3994008EAC39B4003120C
:1033E300400D123A2212385DC3EC9508ED95094061
:1033F300C0026BF9C082C083780079008003123C5D
:1034030038902B4A123F82500912379E64FF70EEA8
:1034130080047A007B00024E8674F0120A5674F31D
:103423001210188A0A8B0BECFEEDFF890CEE70016B
:10343300EF6011EEFAEFFB1212B48A088B09EA70FF
:1034430001EB70521212908A088B09EA7001EB604B
:10345300457401851882851983F0121230E50AF04C
:10346300A3E50BF0EEFCEFFD74031212301235B03E
:10347300740B121230123B0FA3A3124D8AE485087A
:1034830082850983A3A3A3A3A3A3126172AA0AAB90
:103493000B1217E2800BE5087002E5097003023591
:1034A300287A00E50C6007C3940550027A04850866
:1034B3008285098312619EA3A3A3E50CF0EA850824
:1034C30082850983A3A3A3A3A3F07402850882853D
:1034D3000983A3A3A3A3A3A3A3A3F07401850882D1
:1034E300850983A3A3A3A3A3A3A3A312353CA3A3E7
:1034F300A3F0E5082410F582E5091261D3E4F01284
:10350300353CF0125DD2E5091261D3E4F0908121DC
:10351300780C1211EDE508240CF582E5091261D34C
:10352300780C1211DE1236FF4005E4901BCEF01228
:1035330016CEAA08AB090230DAA3124D48025C008A
:1035430074F2120A5674F31210188A088B09ECFEEF
:10355300EDFF750A00EEFAEFFB1212B48A0C8B0D25
:10356300A80CA90DE87001E9603E88828983E065B3
:10357300087004A3E06509602F88828983A3A3A34D
:10358300A3E0C39405502112618B740185188285D1
:103593001983F012123012618FEEFCEFFD740312E7
:1035A30012301235B0750A01A90A02477B12442171
:1035B3001212782274F6120A561235F87002E58355
:1035C3006010A3A3A3A3E06009C394055004790189
:1035D30080027900024E3E74F6120A561235F870D4
:1035E30002E583600BA3A3A3A3E070047901800227
:1035F3007900024E3E1212AE8A828B83E58222C08C
:1036030082C083EAFCEBFD7A007B001212BA024E01
:1036130086C082C0837C007D0080F074F2120A565B
:1036230074F31210188A0C8B0D8C0A8D0B7E007F9D
:10363300008021123B151212301236966013740368
:10364300121230AC82AD83AA0CAB0D1223B2E97017
:103653003512400D902B4A12401D50301239D6605E
:10366300F0E50C7002E50D70CA74FF650A7004740E
:10367300FF650B60DC850882850983E0650A7004B9
:10368300A3E0650B70CBAA08AB0980047A007B002A
:1036930002477BE8F0A3E9124445121272E922744F
:1036A300F4120A5674F31210187508001212B48A31
:1036B3000A8B0BAE0AAF0BEE7001EF602A74018523
:1036C3001882851983124D81F8A3E0F9740B121245
:1036D3003012443D12125A7C127D0079FFEEFAEF4C
:1036E300FB121CAA7508011236FF50097401901BC6
:1036F300CEF01216CEA908740D024E947A04790006
:1037030012128A902B4A124023EA98EB992274F7FB
:10371300120A56E9FE74FE6A700374FF6B7800792F
:10372300007005804D123C38902B4A123C235042C6
:10373300E8FCE9FDEC75F012A4FCAFF075F012EDB6
:10374300A42FFDEC24C5FCED3416FD8C828D83A3E0
:10375300A3A3A3E064FF60CD8C828D83E06A700332
:10376300A3E06B70C08008EC6005C39405401C1295
:103773003C38902B4A123F82501A12379EFCEE704F
:10378300E674016C600574036C70E48A828B8312A7
:10379300575280047AFE7BFF023EEBE8FAE9FBEA2C
:1037A30075F012A4FAACF075F012EBA42C123A41A6
:1037B300221212C6024E86C082C083790180F2743F
:1037C300F0120A568A0A8B0B7A04790112128A8A3A
:1037D3000CEA7001EB6040EAC333FAEB33FB121DD2
:1037E300348A088B09AE08AF09EE7001EF60237AC3
:1037F300FE7BFF1212CC74FE6A700374FF6B601BB6
:10380300850882850983124BCBE5082402124E16E4
:1038130080E1750C0080047E007F00850A82850BA1
:1038230083E50C1253500230DF74F6120A56750802
:10383300007509007808120F6E12385D740378085A
:1038430012115A1239CA7B00121D9A7402120FB652
:10385300E9FE60031212DE024122902B4A12386401
:1038630022E493F508740193F5092274F6120A56BB
:1038730074FE121018124155024E1F74F4120A56A8
:1038830074DF1210187E00851882851983858208DB
:103893008583097808120F6E7508028E097808125D
:1038A3000F6E7C007D00124290120FB6E960030296
:1038B300395412395B124E08C3EA98EB995003024C
:1038C30039548077740F1212308582088583097802
:1038D30008120F6E7508087509007808120F6E74C8
:1038E30003780A12115A7402250AFCE4350BFD12FF
:1038F3004290120FB6E9704274021212307401F052
:103903007411121230124E0E740D121230124D8AAF
:103913007402121230AA82AB83121272E9601B7412
:1039230013121230E0F97405121230AC82AD8374B5
:103933000F1212301257521212960E8E8285820A7D
:10394300750B00124E08C3E50A98E4995003023838
:10395300C7EEF97421024E94902B4AE493FA740152
:1039630093FB2274F6120A5674FE121018851882FD
:10397300851983E4F0A3F0FE80331239D6602B78E7
:1039830008120F6E7508087509007808120F6E7417
:10399300041212301243947403780812115A123924
:1039A300CA12439F120FB6124384124012FF902B88
:1039B3004A12401D40C48518828519838582088573
:1039C30083097808024E1F74022508FCE43509FDBB
:1039D3007A2222EEF8EFF9E875F012A4F8AAF0754E
:1039E300F012E9123AF4A3A3A3A3E064FF2274F74D
:1039F300120A567C007D00800419123A22123A19E9
:103A0300500D123A2BC3940550F0E970EC80047A00
:103A1300007B00023EEB12395BC3EC9AED9B22EC78
:103A230024010CED3400FD22ECFAEDFBEA75F012F3
:103A3300A4FAAEF075F012EBA42E123A4122FBEA7F
:103A430024C5FAEB3416FB8A828B83A3A3A3A3E0DA
:103A53002274F3120A5674F3121018750A00750BC8
:103A6300008052E50C1261498E828F83123B0FE076
:103A7300687003A3E06960257401121230E0687076
:103A830003A3E0696017EE2402FCEF3400FD740326
:103A9300121230AA82AB831223B2E96007EEFAEF67
:103AA300FB1217EE050C902B53E493FAE50CC39A23
:103AB30040B1122D02123B07E50A98E50B99502CF1
:103AC300E50A75F012A4F8AAF075F012E50B123AA4
:103AD300F4E064FF7004A3E064FF60D6123B1512A8
:103AE300123012369660CB750C0080BA740D023E0C
:103AF30098A42AF9E824C5F508E93416F5098508D8
:103B030082F58322902B4AE4124024221251870229
:103B130031B67401851882851983124D4812518775
:103B2300740B2274F6120A56124127123DA2EC8539
:103B330008F0A4CCAAF08509F0A42AFA8508F0EDD0
:103B4300A42AFD79FF7A7C7B1B121CAA9003337491
:103B53000EF0A37413F09003357408F0A37413F0FC
:103B63009003377432F0A37413F09003397444F064
:103B7300A37413F090033B744AF0A37413F09003FF
:103B83003D7450F0A37413F090033F7456F0A37484
:103B930013F0E4900332F0024E3EC082C0837800FB
:103BA30079008003123C38123F7F5024E8FAE9FB86
:103BB300EA75F00EA4FAACF075F00EEBA42CFBEA58
:103BC300247CF582EB12462D70DAAA82AB83800443
:103BD3007A007B00024E8674F7120A567A007B0045
:103BE30078007900802FE8FCE9FDEC75F00EA4FC69
:103BF300AEF075F00EEDA42EFDEC247CF582ED12F3
:103C0300462D600EA3A3A3A3A3E0FCEA2CFAEB3496
:103C130000FB123C38902B4C123C2340C9023EEB74
:103C2300E493FC740193FDC3E89CE99D22120FB653
:103C33007F03020D2FE8240108E93400F92274EC14
:103C4300120A5689108A088B098C0D8D0C74141274
:103C53001230125DE57E007F0012136EAA08AB09D5
:103C63001213748A0E8B0F850882850983A3A3A37D
:103C7300A3A3A3A3A3E0640170077508018E0980C1
:103C8300058E08850D0974FE650E700474FF650FBB
:103C93007003023D858E0D8002050D850D12902B5C
:103CA3004C1268AA5071E50D75F00EA4247CFEE554
:103CB300F01240E0651070E1A3E0650870DB8E82CE
:103CC3008F83A3A3E0650E7004A3E0650F70CA8E13
:103CD300828F83A3A3A3A3E0650970BD750D00E5DF
:103CE3000DC3950C4003023D85E50DC333F8E43362
:103CF300F9E50A28F508E50B39F509850882126606
:103D0300AC12131AE9700C8508828509831266AE1A
:103D1300121326050D80C81213028A128B13AE12DA
:103D2300AF13EE7001EF605A8E828F83E510F0A31C
:103D3300E508124DF4A3E50EF0A3E50F124DF4A32D
:103D4300A3A3E509F0902B59E493C3950C5004E425
:103D530093F50C8E828F83A3A3A3A3A3E50CF08515
:103D63000A08850B09750A007808120F6AE50CC367
:103D730033FCE433FDEE2406FAEF340012619712AC
:103D83000FB6EEFAEFFB7F0C020D2FC082C0831239
:103D93003D9F79FF121CAA7901024E86902B48E4BD
:103DA30093FC740193FD2274F7120A56EA7001EB37
:103DB30060498A828B83A3A3A3A3A3A3E582700292
:103DC300E58360377E0080010E8A828B83A3A3A3E1
:103DD300A3A3E0FFEEC39F5022EEC333F8E433F90D
:103DE300EA28F582EB39F583A3A3A3A3A3A3E06C8D
:103DF3007003A3E06D70D1790180027900023EEB7C
:103E030074F3120A56EA2405F8EB3400F9E8FEE9E4
:103E1300FFEA7001EB606F8E828F83E06073EA24A8
:103E23000608EB3400F9E0F50B750A00800B8E826F
:103E33008F83E014F0605A050AE50AC3950B5046D8
:103E4300E50AC333F508E433F509EA2508F508EB79
:103E53003509F50974062508F508E43509F50985DA
:103E63000882F583E06C7003A3E06D60C18508826E
:103E7300850983E0F508A3E0126189E824020808B4
:103E8300E93400F980B18E828F83E0600479018088
:103E93000279008003120FB67F05020D2F74F7120B
:103EA3000A56EA7001EB6037126A56C0E0902B594C
:103EB300E493FED0E0C39E502688828983E0C33317
:103EC300FEE433FFEA2EF582EB3FF583A3A3A3A31E
:103ED300A3A3ECF0A3ED12656904F07901800279E4
:103EE300008005740D120FB67F01020D2F74F212BC
:103EF3000A5689088C0912402C7005125DE1800373
:103F030012400574FE650A700474FF650B70067A2F
:103F1300007B0080647800790080187401650C7060
:103F23000F8C828D83E0650A7004A3E0650B604902
:103F3300123C38123F7F50D71243C98A828B83E0E9
:103F4300650870ECA3E0F50CEA2402FCEB3400FDF9
:103F53008E828F83E0640160C2E50C70D38C828D06
:103F630083E0650A7004A3E0650B70C48A828B83C7
:103F7300A3A3A3A3E0650970B7024780902B4C125B
:103F8300395EC3E89AE99B2274F2120A56EA2408BE
:103F9300F8EB124D7864017005125DE18003124065
:103FA3000574FE650A700474FF650B60527E007F22
:103FB300008047EEF8EFF9E875F00EA4F8AAF07563
:103FC300F00EE9A42AF9E8247CFAE9341BFB8508FE
:103FD30082850983E06401701B8A828B83A3E0647A
:103FE3000170148A828B83A3A3E0650A7004A3E0A3
:103FF300650B700312131412400D12401A40B402E1
:10400300478012135C8A0A8B0B22124012FF22EEA6
:1040130024010EEF340022902B4C124023022ECEAB
:10402300E493F8740193F9C322EA2408F8EB1261CC
:10403300A9E064012274F3120A56890C8A0A8B0BD5
:104043007508007509007E007F00801B12436165BF
:104053000C7011AC0AAD0BAA82AB8312131AE96080
:1040630003124E1212400D12401A40E0AA08AB0987
:10407300023E9B74F1120A56890D8A0A8B0B8C0E31
:10408300750C007508007509008005050C124E12A9
:10409300902B4C123B0AE50898E509995038E5083E
:1040A30075F00EA4F8AAF075F00EE509A42AF9E854
:1040B300247CFEE91240E0650D70D2AC0AAD0BEE34
:1040C300FAEFFB12131AE960C4E50CC3950E40BB6B
:1040D300EEFAEFFB80047A007B00022DDC341BFF39
:1040E30002302C74F6120A56750800750900780818
:1040F300120F6E12412712433EE9A42AF975832B4E
:10410300758248E49328FCA3E49339FD7A417B004C
:10411300121D9A7402120FB6E9FE600312134AEEDF
:10412300F9024E3E902B48123864902B4C2274F6C1
:10413300120A5674FE121018124155120F6E7508AA
:10414300027509007808120F6E7C007D007A410227
:104153004E33851882851983E4F0A31243BD85820B
:104163000885830978082274F4120A5674E712103A
:10417300187E007F008518828519838582088583D0
:10418300097808120F6E7508028E097808120F6EEF
:104193007C007D007A41124292120FB6E96003025D
:1041A30042748E0A8E0B80587402121230AC82ADA8
:1041B30083740D121230125752121362740A1212C0
:1041C30030E06039741112123085820885830978D2
:1041D30008120F6E7412121230E0FD7411121230B5
:1041E300E0FC7404121230AA82AB83740D121230F5
:1041F300E0F912130E7402120FB612400D122D02C3
:104203008518828519831242855066740B12123009
:104213008582088583097808120F6E902B48120D4A
:10422300D4902B4812427DE8850AF0A4C8AAF085F1
:104233000BF0A42AFA850AF0124353124292120F8A
:10424300B6E970B9740A121230E4F0740C12123029
:10425300E070030241AB740A1212307401F0740D62
:10426300121230124E0E7402121230124D8A024193
:10427300C7EEFAEFFB7419024E94E493F8740193BA
:10428300F922125187C3E50A98E50B99227A227B1A
:1042930000121DAC74042274F5120A5674F0121045
:1042A30018851882851983E4F0A3F0FE805A12431F
:1042B3006164FF6050858208858309750A00780868
:1042C300120F6A123D9F7405121230AA82AB831239
:1042D3006198120FB6740212123085820885830921
:1042E3007808120F6E902B48120DD47404121230FA
:1042F300124394902B4812433E12435312439F128E
:104303000FB6124384124012FF12401A40A08518C0
:10431300828519838582088583097808120F6E7553
:1043230008027509007808120F6E7C007D007A413F
:1043330012439F120FB67410023C3012427DE8857F
:1043430008F0A4C8AAF08509F0A42AFA8508F02287
:10435300E9A42AF9740228FCE439FD7A41221243C4
:1043630066E022EEF8EFF9E875F00EA4F8AAF0750E
:10437300F00EE9A42AF9E8247CF582E9341BF583DD
:1043830022851882851983E02401F0A3E03400F02C
:1043930022E0F508A3E0F509221243A77B00121DD2
:1043A300A6740422EA75F00BA4FAACF075F00BEBDB
:1043B300A42CFBEAFCEBFD7A23221243C122F085F5
:1043C300188285198322E8FAE9FBEA75F00EA4FA4C
:1043D300ACF075F00EEBA42CFBEA247CFAEB341B57
:1043E300FB22EAF0A3EB12444522C082C08374F39C
:1043F3001210181245AE6402700E124433121230BA
:1044030012443D121266800CEAFCEBFD7403121297
:104413003012441A024E7B12442112126C22AA82D9
:10442300AB831224CC851882851983AA82AB83229D
:104433008A828B83125187740122E8F0A3E9124424
:104443004522124449221243C180E074F7120A56EE
:1044530074F3121018ECFEEDFF74048518828519AD
:1044630083F0740B121230EAF0A3EB12369AF508BC
:10447300601D74038E828F83A3A3A3A3A3A3A3A30B
:10448300F0121230AC82AD83EEFAEFFB1223B8A91F
:1044930008023EE6C082C08374F3121018740485C8
:1044A3001882851983F0740B1212301243E512122D
:1044B300727401024E7D125756740D2274F6120A5D
:1044C3005674F3121018900332E0706E740485185A
:1044D30082851983F0900371124437121230124D02
:1044E3008A121680EAFCEBFD74031212301235B007
:1044F30012168C8A088B09A808A9097401121230B4
:10450300E0687003A3E069602B74FE68700374FFB6
:104513006960217401121230124D8A740312123031
:10452300AA82AB83121692851882851983AA82AB5D
:10453300831212787401900332F0740D024E3BC063
:1045430082C08374F31210181245AEFC74026C70AF
:104553001E124433121230E8F0A3E9125FD27048FE
:10456300851882851983AA82AB83121278803974E5
:10457300036C7011EAFCEBFD740312123012441A3F
:10458300E9702580DB74016C70128A828B83124E72
:104593000E740B121230E8F0A3E9800B740B1212A5
:1045A3003074FEF0A374FFF0024E7B74048518820E
:1045B300851983F08A828B83A3A3A3A3023A4E7443
:1045C300F5120A5678007900880888097C007D0076
:1045D3008003123A22902B4CE493FE740193FFC3A1
:1045E300EC9EED9F5021ECFEED12461160E4AE0807
:1045F300AF0974012EF508E43FF509EA6E7002EB8A
:104603006F70CFA882A983E8FAE9FB023C33FFEE7F
:1046130075F00EA4FE85F00A75F00EEFA4250AFFCF
:10462300EE247CF582EF12462D22341BF583E064E1
:10463300FF22C082C0839003467496F0A37415F0E2
:104643009003487490F0A37415F090034C74F2F047
:10465300A37413F0024E86C082C08390034A748A07
:10466300F0A37415F0024E8674F7120A56EAFEEBB5
:10467300FF900380E0FA74086A601974046A601496
:104683008E828F83E064017046124BB2125855E05C
:104693006406703B8E828F83A3A3124E0E74FE6852
:1046A300700374FF696028900371E0687003A3E0EE
:1046B30069700BEE2415F582EF126363600AEEFA5C
:1046C30012164AE9F508800AEEFA12165080F475BC
:1046D30008C2EEFAEFFB121D3AA908023EEB74F290
:1046E300120A568A088B098A828B83A385820A85DC
:1046F300830B8A828B83E0F8850A82850B83E0280B
:10470300FAE43400FB121D348A0C8B0DAE0CAF0D92
:10471300EE7001EF605C850882850983E0FC7D0013
:104723007900121CAA8E828F83A3A31261BD121675
:10473300868E828F83A3A3A3A3124BCB8508828586
:104743000983E0F8EE28F8EF3400F9124BB2125166
:104753006AC0E01261CDD0E0F0121698EE240E127A
:1047630061D0E9124D44E0C0E0EE24111261D0D0D3
:10477300E0F0EEFAEFFB8005740D120FB67F060230
:104783000D2F74F4120A5674EB1210188A088B0951
:104793008C0A8D0B90038178081211DEE990038750
:1047A300124A3D1211DE7405121230E9F07404123C
:1047B30012307401F07407121230E4F074029003A3
:1047C30080024E9174F4120A5674EB121018EAFE2A
:1047D300EBFF900342E07002A3E070677A077B006F
:1047E300121D34900342124BCB900342E07002A39C
:1047F300E0604C900342125DDD8F838E827407125A
:104803000ECB8E828F8378081211ED85188285195D
:104813008378081211DE8E828F83A3A3A3A3E0C043
:10482300E07405121230D0E0126563C0E074041224
:104833001230D0E0F07407121230124987800679E3
:1048430010800279017415024E94C082C0839003D4
:1048530042E07002A3E06010900342125752121D0F
:104863003A900342E4F0A3F01215BA12178E024EE7
:104873008674F3120A5674EB121018ECFEEDFF74F3
:104883002212123078081211ED7426121230E0FC55
:104893007427121230E0FD7428121230E0F50C7404
:1048A3000F6C7005740F6D6012901C40E064027011
:1048B3000579C1024982ECC39D40F69003817808D3
:1048C3001211DEE9900387F0EC900385F0ED90037D
:1048D30086F0E50C900388F074FF6A700374FF6B35
:1048E300701F901C4EE064FF7004A3E064FF70052A
:1048F300121CB6800C901C4E124D3DE8F0A3E980CB
:104903000790037EEAF0A3EBF0EE7001EF6017EE81
:10491300FAEFFB121848E96401700BEEFCEFFD7A25
:10492300927B031223B8900371E4F0A3F090037415
:10493300F0A3F0900391F0901C40E06402700A74BD
:104943000F900385F0900386F07405900380F07454
:1049530004121230E4F090038178081211ED8518E7
:104963008285198378081211DE900387E0C0E07412
:1049730005121230D0E0F074071212301249877416
:1049830015023E98E412498C22124449122436221D
:104993009003CCE0F9121DE222C082C08390034150
:1049A300E07003121F561213B6024E86C082C083F4
:1049B300900341E07007E4901BCDF08031740190C7
:1049C3001BCDF0900341E064FF60237C41E0C3947E
:1049D300415002E0FCECFAE0C39AF0EC75F0E8A475
:1049E300CCAAF075F003A42AFD7A801249FD7ACD92
:1049F3007B1B794112241E024E867B009003CCE080
:104A0300F9121DD62274F4120A5674EB1210188A86
:104A1300088B098C0A8D0B7401900380124A3D1296
:104A230011DE7405121230E9F074041212307403AB
:104A3300F07407121230E4024E911243BD7808223B
:104A430012498C74152274F4120A5674FC1210184D
:104A5300E9851882851983F0EAFEEBFF90037E1245
:104A63005DDD1215B48A0A8B0BEA7001EB700579D0
:104A7300CA024BADEA2409F508EB124E1A850882E7
:104A8300F583E064FE7004A3E064FF700579C3025C
:104A93004BAD90037E1257521217F4E50A240CF51E
:104AA30082E50B124D35124D5A7402121230740204
:104AB300F07401121230AA82AB8312170A8A0A8B8E
:104AC3000BAE0AAF0BEE7001EF7003024BA4124B57
:104AD300B2124E0E740688828983F0A3A882A9833A
:104AE30090036BE088828983F0EE2417F582EF123E
:104AF300565EEE241A1261D0124BCBEE24131261D0
:104B0300D0740112616A7440F0A3E41251808E8262
:104B13008F83A3A3E8F0A3E91261F3E9FE60030224
:104B23004BA67409900380F0AA08AB09794B124D88
:104B33002F124E0E900374124D8A900373E0FA8580
:104B43001882851983E06A600CE090037312517C2C
:104B530079E112241E901C2E124E0E901C30E06838
:104B63007003A3E069601A900344124D8A901C30CD
:104B73001257521216B0901C30125DDD7A011249A1
:104B8300FD7A007B04124993901C30124394740203
:104B9300780812115AAC08AD09FA7B041249FF8058
:104BA300027E10E490112FF0EEF97404024E941279
:104BB3004BB622EE240BF582EF3400F58322124B21
:104BC300BC12575688828983EAF0A3EBF02274F172
:104BD300120A5674E2121018851882851983ECF0B4
:104BE300A3EDF0EAFEEBFF742D121230E0F50E9008
:104BF3000380E0FA74046A600574086A700579C278
:104C0300024D27851882851983E0FCEEFA1215B44C
:104C13008A088B09EA7001EB700579CA024D27EA0D
:104C23002409F50AEB1261E2E064FE7004A3E06478
:104C3300FF700579C3024D27740390038012517CE2
:104C4300795012241EAA0AAB0B794B12241E851825
:104C530082851983124D3D124D8AE5082402F50C15
:104C6300E5091261EC900373124D52900374124DD7
:104C73008AE50E90036B124D5A74CE550E4480C0D4
:104C8300E07412121230D0E0F0E508240CF582E54E
:104C930009124D35F0740F1212307402124D527412
:104CA30007121230E8F0A3E9124D9074101212307B
:104CB300E8F0A3E9126180C0E07405121230D0E07D
:104CC300F0741B121230E4124D44A3A3E090038648
:104CD300F07A867B037954124D2FA3A3A3E09003AC
:104CE30085F07A857B03794712241E900385E0C300
:104CF300940F50247405121230E0C0E074021212B3
:104D030030D0E0F074041212307401F07402121205
:104D130030AA82AB831224427405121230AA82ABEA
:104D230083122424741E120FB6022DDC12241E02D9
:104D330031B61254CA049003912212518790037E14
:104D430022124D4822F0850882850983A3A32212EB
:104D53005172F8A3E0F922F0EEFCEFFD7A927B03A7
:104D63001223B822C082C083EB900388F01215A2ED
:104D7300024E86F8EF124F808882F583E022124DAF
:104D8300F8A3E02212615AE8F0A3E9F022124E03DD
:104D9300024D5574F7120A5674F8121018EAFEEB16
:104DA300FF7900900380E0640870418518828519BB
:104DB3008374FD1261BF1216807402121230124BFB
:104DC300CB7405121230E4124DF4E0C0E074041207
:104DD3001230D0E0124DFFC0E07406121230D0E062
:104DE300F0740712123012517B1216EC7408023E53
:104DF300E8124DF822F08E828F83A322F002302C2A
:104E03001243C1E02285188285198312518722E556
:104E1300082401F508E5093400F50922120F6E751F
:104E230008027509007808120F6E7C007D007A2253
:104E330012439F120FB67402120FB67F02020D2F98
:104E4300C082C083900352747CF0A37414F0900367
:104E5300EF743AF0A37417F090035674ACF0A37494
:104E630014F0900358747CF0A37414F090035A74F4
:104E7300B2F0A37414F0800B740B1212301244B905
:104E8300120FB6D083D082020F4E74078003124AEA
:104E930043120FB67F04020D2F74F0120A568A8252
:104EA3008B831261D7EE7001EF7003024F7DEA240A
:104EB30002F8EB124F80900312E07002A3E060133C
:104EC30088828983E0F9EEFAEFFB900312125855BA
:104ED300122636EE2406F8EF3400F9880A890BEE21
:104EE3002409080808EF3400F9880C890D8882F535
:104EF30083E06402704B850A82850B83E054026071
:104F030052850882850983E064E96047EE240A0834
:104F1300EF126A5B700A901C42E00488828983F076
:104F2300E014F07404850C82850D83F0901C431209
:104F33006164E8F0A3E9126A707001EB7003126513
:104F430048850C82850D83E0FA74026A6005740655
:104F53006A7027850A82850B83E0A2E0501C8508CE
:104F630082850983E0F9EEFAEFFB122526850A8292
:104F7300850B83E054FEF0A3E0F00230DF3400F948
:104F8300880889092274EC120A5674DD121018EA93
:104F9300FEEBFF8C128D137437121230780C121142
:104FA300ED7510007405121230AC82AD831224D853
:104FB300EE240BF508EF124E1A7405121230E0A21C
:104FC300E55019751001AC82AD838508828509838C
:104FD300125752122532E96003025123740512124B
:104FE30030E0A2E650227406121230E05403701827
:104FF3007405121230E0540CFA740C6A600A7408D7
:105003006A60057511018003751100740512123071
:10501300E05403FA74026A7013AC82AD838508828C
:105023008509831257521224BA025123EE2406F53E
:105033000AEF122D0A74016A7037E51160031251E9
:10504300597405121230A882A9837403121230E82E
:10505300F0A3E912518085188285198312516AC021
:10506300E07402121230D0E012517C12260A02516F
:1050730023EA6003025123900368E06401700C8506
:105083000A82850B83E070030251237422121230CB
:105093007402125180741A121230124D8AE5116093
:1050A3000874051212301251597405121230E0546B
:1050B3000C64047073EE240FF582EF126363C0E097
:1050C3007417121230D0E0F0900314E07002A3E0E2
:1050D300604E1216868A088B09A808A909741A1249
:1050E3001230E0687003A3E0697035780C120F6624
:1050F300E510F5087808120F727812120F6EA911D5
:10510300740C121230AC82AD837421121230AA8255
:10511300AB839003141258551226367407120FB638
:105123007423120FB6023D89780C120F667812129F
:105133000F6E90037E120DA7A9107422121230ACC9
:1051430082AD83740D121230AA82AB8312251A74B6
:1051530008120FB680CAAC82AD83850882850983A5
:105163001257561224C622E8F0A3E912517222F014
:10517300850A82850B83E022E4124445221231B56D
:1051830012518722E0024D55C082C083121E900245
:105193004E86C082C083121E96024E86C082C08392
:1051A300121E9C024E86C082C083121EA2024E862D
:1051B30074F7120A567409121230E0F508780812CF
:1051C3000F72121EAE7401023EE8C082C083121E2B
:1051D300B4024E86C082C083121EBA024E86C082BB
:1051E300C083121EC0024E8674F7120A56EAFEEB03
:1051F300FF740169701079001214BE7C1E7900EEF1
:10520300FAEFFB12146A023EEB74F4120A5674F9B5
:105213001210188A088B098C0A8D0B741312123022
:10522300125752901151E07002A3E06027E98518EC
:1052330082851983F0740112123078081211DEEAA4
:10524300F8EBF9740512123012443D9011511258C3
:1052530055122636024E8DC082C083121EF0024EB6
:105263008674F7120A56901BD0E0F97F00800B1268
:1052730054A3540D64017001190F1254605003E9D3
:1052830070ED023EEB74F7120A56901BD1E0F97FE2
:1052930000800B1254A3548D64817001190F1254B2
:1052A300605003E970ED023EEB74F3120A56890C69
:1052B300E975F006A4F8A9F0740C28F508E439F5AB
:1052C30009EA2508FAE43509FB121D348A0A8B0B17
:1052D300AE0AAF0BEE7001EF6027AC08AD097900A1
:1052E300121CAA124BB2E50CF0EE2508F8EF3509B3
:1052F300F98E828F83A3A3A3A3A3A3A3A3A3124D76
:105303008AEEFAEFFB023E9B74F6120A56EAFEEBB4
:10531300FF121446901BCFE0FAE9C39A40099003A9
:105323004E12575212144CEE2402F8EF124F809093
:105333000350E088828983F0900350E004125350B5
:10534300121452850882850983E0024123F0EEFAA4
:10535300EFFB22C082C083790090034E80010912C3
:1053630057528A828B83E5827002E58370F0024E86
:105373008674F7120A56EAFEEBFFEE7001EF605EE9
:1053830090034EE07002A3E0605490034E125AACB7
:105393007A007B00800FAA82AB83125AACE582703D
:1053A30002E5836039EE65827003EF658370E78EF3
:1053B300828F83124E0E90034E125DDDEE6C7002EF
:1053C300EF6D700590034E80048A828B83124D8AA1
:1053D300EEFAEFFB1225DAEEFAEFFB121D3A023E6C
:1053E300EBC082C08390034EE0F8A3E08003ECF8A7
:1053F300EDF9E87001E96009125DD9EC7001ED7017
:10540300ED8A828B83E4F0A3F0E87001E9600688FB
:10541300828983800390034E124BCB024E8674F72E
:10542300120A5690034E80048A828B831261B370F2
:1054330001EB60227F0080010F12546050EAEF7588
:10544300F006A4FCADF0EA2CFCEB3DFD7410125405
:10545300B76970E480047A007B00023EEB1254C407
:10546300FCEFC39C2274F7120A56780080010812DD
:1054730054C0FDE8C39D5025E875F006A4FEAFF0C7
:10548300EA2EFEEB3FFFEE2410F582EF1263636911
:1054930070DCEE2411F582EF1263634CF0023EEBF5
:1054A300EF75F006A4FCADF0EA2CFCEB3DFD7411A6
:1054B3001254B7222CF582E43DF583E0221254C442
:1054C30022EA240BF582EB3400F583E02274F61212
:1054D3000A561215367A00801B8A08750900740370
:1054E300780812115A126342125F0EA3A3A3A3A357
:1054F300A3A3F00A902B5C1268A340DD7A00801A04
:105503008A087509007403780812115AE5082407FC
:10551300F582E509341B1261BB0A1268A040E190D1
:105523002B4EE49390035CF0125531024E3E7CE81F
:105533007D037A107B009003CCE0F9121DDC22740A
:10554300F0120A5674FD121018EAFEEBFF89088C5C
:10555300091215188A0A8B0BA80AA90B900371E08C
:10556300687003A3E06970057900025653AC0879AB
:1055730002EEFAEFFB121512E960EDE508F50A7881
:105583000A120F72125C1A120FB6E9600302565127
:10559300E508C2E5F508900351E0F50C900371129C
:1055A3005DE5780A120F6E7D017C00900351E0F9EE
:1055B300AA0AAB0B1214CA7402120FB6E9FA9003CB
:1055C30051E004F0EA600302565174011212307480
:1055D300061261FAEA7001EB6070125658E50A246C
:1055E3001AF582E50B1261D3124BCBE50A125DD497
:1055F300E50B1261D312443788828983F07478559E
:1056030008126367A3A3E50CF0EE88828983A3A342
:10561300A3F0EF88828983A3A3A3A3F0E4888289FC
:1056230083A312566874FD1261BFE5096013C39426
:105633001E500EE50A2413F582E50B1261D3E5092A
:10564300F0AA0AAB0B12138C80067910800279C77B
:1056530074030230DCEA2417F582EB124BBC7401AD
:10566300F012168022A3A3A3A3F0850A82850B83DD
:10567300A3A322C082C0839011F2E06401901C4175
:105683007006E0FC79018004E0FC79037A007B007A
:1056930012146A024E8674F4120A568A088B09E9B8
:1056A300FE121722E960077AFF7BFF025734901C32
:1056B30040E06402706E7900125737EA7001EB60C4
:1056C30042126A56FC74016C7022900370E08A8265
:1056D3008B83A3A3A3A3F08A828B83A3A312575222
:1056E30074FE6A700374FF6B6010804574036C6012
:1056F3001A74046C70047AFE80AF88828983E06434
:105703000270089003BDE06402701990037E125D7D
:10571300DDAA08AB091217D0EA7001EB6006AA08EC
:10572300AB09800DAA08AB099003521258551226F3
:1057330036024E97AA08AB0912573F22121518EEEC
:10574300F912150C22EA240BF582EB3400F58312CF
:10575300575622E0FAA3E0FB2274F7120A56EAFE38
:10576300EBFF1212A2E9700AEEFAEFFB1212A8E99C
:105773006006EEFAEFFB80047AFE7BFF023EEB74D9
:10578300F2120A568A088B098C0A8D0BE9FE7F00F8
:10579300121722E97900600302584BAA08AB0912D9
:1057A3006BDD7002E5836017A3A3A3A3A3E0FA74E0
:1057B300026A704F9003BDE064027003025849AA65
:1057C30008AB099003581258551226361212AE8AA6
:1057D3000C8B0DA80CA90DE87001E96069E824059C
:1057E300F582E9126363A2E0505C750C01A2E150FB
:1057F3001C7901AC08AD09AA0AAB0B12149AE97023
:105803000F804374036A703E750C028003D2E1F08B
:10581300900371E0650A7004A3E0650B700E7C1EB3
:10582300EEF9AA08AB0912146A0F801AA90CAC0886
:10583300AD09AA0AAB0B12149AE9700A0FEEF9AA82
:1058430008AB091214BEEFF9024780EEFAEFFB90A2
:10585300035412585922E0F8A3E0F5838882227496
:10586300E8120A5674F01210188A148B158C088DDE
:10587300097428121230E0F510A3E0F5119003F536
:10588300E07002A3E06012126BE37002E58360092B
:10589300A3E070057900025A92E514241DF516E57C
:1058A300153400F517851682125AAAA3E0F50C8861
:1058B300828983A3A3E0F50B88828983A3A3A3E052
:1058C300FA88828983A3A3A3A3E0F9EAFEE9FFAAE6
:1058D30008AB091214C4E9FA125AB7E02AF50A53BD
:1058E3000C78E514240BF50EE5153400F50F780854
:1058F300120F6E7D00125A97120FB6E9FA74036AFB
:105903006092EA704290036AE0601EE50CF50D7840
:105913000D120F727901AC08AD09850E82850F83D4
:10592300125752125C24120FB6E50CF50D780D12C6
:105933000F72125C1A120FB6E9700C851082851172
:105943008374FFF0A38049851082851183E064FF8F
:105953007004A3E064FF60399003BDE06402700348
:10596300025897850E82850F83E0FAA3E0125851FF
:10597300122636EA65087003EB650960030258973F
:1059830012584E122636851082851183EAF0A3EB56
:10599300F07808120F6E7D01125A97120FB6A90CF8
:1059A300EEFAEFFB1215188A088B09A808A90990CB
:1059B3000371E0687003A3E0696003025A89EEFA99
:1059C300EFFB1235F87002E5836023A3A3A3A3E0E2
:1059D300FA74016A600574026A7013851882851966
:1059E30083AC82AD83EEFAEFFB12124E80141216D3
:1059F30080EAFCEBFD851882851983AA82AB8312AA
:105A030023B8851482851583A3A3A3A3A3A3A3A368
:105A1300E06401701AE5142415F582E5151261D3CB
:105A2300125DDD7408121230AA82AB831223B8858B
:105A33001682851783125855A3E04430F508780879
:105A4300120F727401121230858208858309780857
:105A5300120F6E740B121230858208858309780841
:105A6300120F6EE50BF5087808120F727900EEFC41
:105A7300EFFD850E82850F8312575212149474061C
:105A8300120FB6025897125AB7E50AF01216987415
:105A930010026881AC0AA90B850E82850F83125709
:105AA300561214CA740222F5831251878001F988B1
:105AB30082898322851682851783125859025C00D6
:105AC30074EE120A5674F01210188A108B11EA241D
:105AD3001DF50EEB3400F50F850E82125AAAA3A30F
:105AE300E0F50C88828983125BF5E0FBECFEEBFFAB
:105AF30088828983A3A3125BF5A3A3E0FAE4CAFB1C
:105B0300ECF508EBF50988828983A3A3A3A3A3A3D8
:105B1300A3E0F50A88828983A3E05478F50BA2E415
:105B23005016E82408FCE93400FD7408121230AA68
