:020000040000FA
:060000000211AD0207A68B
:03002B000225C4E7
:03004300020FFEAB
:03004B00020E7F23
:030053000206F8AA
:03005B00020E8E04
:03006300020E9AF0
:10008300020742010101010503010F10FEFF0300F6
:100093000300030003000300030003000300030045
:1000A30005000A00140028004F009E000000011AFA
:1000B300011A011A011AB718B118011AD72800003A
:1000C30000001328000000000C0000000C00010ACF
:1000D300D007580801EF04FF0101003211000000AE
:1000E3008D11E80364006400B801020200000200FD
:1000F300050207011E02051E020A03B80B02803E19
:100103000103320002018146010A01E002020630C6
:10011300313233343536373839414243444546006A
:10012300286E756C6C20706F696E74657229003F60
:100133003F3F000000803FF9021550B743BA51001A
:10014300E7DB2E0000A04010000000080000000ABA
:100153000000001211CC60461211F9603DE968708D
:1001630008F618F618F618F622748067F712018A53
:10017300090909748067F7221211F9601D1211CC65
:100183007005191919801A121041701F121080C3BB
:100193007003E6673319191940071818182208085D
:1001A3000874FFF618F618F618F622121080601776
:1001B300121241702192F01212377019501720F069
:1001C30014080808090909E7F61819E7F61819E7E2
:1001D300F61819E7F62212123760E6E869701F086D
:1001E30008E62480F608E436F618547FB47F0CE65C
:1001F30054806007F6E418F618F622181822E9C6A8
:10020300CC08C6CD08C6CE08C6CFC0E0E8C0E0EA39
:10021300C0E0EBC0E009E9F809E7FA09E7FBE6F912
:1002230018E6F8C3EC98ED99EE9AEBC2E7F5F0EF18
:10023300C2E795F0500E600CEBCFFBEACEFAE9CDA6
:10024300F9E8CCF8EAA2E7D2E7FAEB33FB13F5F0CF
:10025300EEA2E7D2E7FEEF33FFC5F013A2E730E6E5
:1002630001B313C5F0C3C0E0C0F07F00C39BFB60C4
:100273005B9418600C401AD0E023F9D0E0F8020335
:10028300598AF0E9486003D2F0E4AFF0FAF9F88054
:100293003BEB30E40D89F0EA6003D2F0E4AFF0F910
:1002A300CAF8EB30E30D88F0EF6002D2F0AFF0E470
:1002B300CAC9F8EB54076014FBC3EA13FAE913F94C
:1002C300E813F8EF135002D2E0FFDBEDD0E0C0E01B
:1002D30030E739C3E49FFFF5F0EC98FC42F0ED9969
:1002E300FD42F0EE9AFE42F0D0E0F9D0E0F8E5F0FE
:1002F300607AE923F9EE20E742D8028067C3EF333F
:10030300FFEC33FCED33FDEE33FE80EAEC28FCED2D
:1003130039FDEE3AFED0E023F9D0E0F84002801B2D
:10032300C3EE13FEED13FDEC13FCEF135002D2E00A
:10033300FF08B800067F7F74FF802EEF3350178CC1
:10034300F020F00260100CBC000C0DBD00080EBEC6
:10035300000408E860DFE933E813FFEE2313FE4FE0
:100363004D4C8008E95480FFE4FEFDFCEE33EF338F
:10037300F47004FCFD7E80D0E0FBD0E0FAD0E0F81E
:10038300D0E0CFC618CEC618CDC618CCC6F92212F7
:1003930011F97004181818221211CC700D74FFF69D
:1003A3001819F61819F61819F622E7548066F6128A
:1003B3001237700F12124170F014F608F608F6089F
:1003C300F680D1121241700CF608F608768008E622
:1003D300447F80EC121083700C12104460BFE6540B
:1003E30080F6E480BB121044700519191980A5E842
:1003F30069700C763F18768018F618F6E8F922E64D
:10040300CDC0E018ECC0E0E633CD33CDD313F6E72F
:1004130019FCE7191933CC33C3947F400ECD9D509B
:100423002408E65480F6E418F6800FF4043D1450D3
:100433001408E6447FF6187680E418F618F6D0E040
:10044300FCD0E0FD22CCD313CCFD18E4C6CBC0E036
:1004530018E4C6CAC0E00808ED08C633E613F61868
:10046300E433C675F003C3CA97CA09CB97CB199C6B
:1004730040047D08802EBD000302053B16B6FF0530
:100483000606081618C3CA33CACB33CB33CA27CAE6
:1004930009CB37CB193CC37D08803E187D0820E784
:1004A3005CC633C6CA33CACB33CB33DDF1D5F0EBED
:1004B30030E77BCA97CA09CB974ACB199C406F4B4D
:1004C3007025E620E0218066187D08C3CA97CA0913
:1004D300CB97CB199CD3C633C6CA33CACB33CB33E2
:1004E30050C9DDE7D5F0E1D3E4C636C608C636C643
:1004F30008C636C608C636C61818188031C3CA9748
:10050300CA09CB97CB199CB34097C633C6CA33CA23
:10051300CB33CB33DD34D5F02EC6A2E0C640C8CAF8
:1005230027CA09CB37194A70BECB3CB480B9080837
:10053300E63308E633601F181818D0E0FAD0E0FB62
:10054300D0E0FCD0E0FD22187D08CA27CA09CB37CA
:10055300CB193CD3808013F618E4B67F11F618B696
:10056300FF0EF618C60470D20808768080CAF61803
:10057300F618F680C5001211F9604F1211CC601203
:10058300E7548066F61210417011121241703B0954
:100593000909F4F618F618F618F6221210807015E9
:1005A30012123708080860EAE6447FF618768018C6
:1005B300E4F618F62212123760161212417012E492
:1005C300F608F608F608E65480F60909091818181B
:1005D30022EAC0E0EBC0E0ECC0E0EDC0E0E687F06B
:1005E300A4FBACF008E687F0A42CFCE435F0FA1881
:1005F30009E687F0A42C4B60027401CA35F0FCE4D1
:1006030033FB09E687F0D2F7A42CCB35F0FC1908AD
:10061300E687F0A42BCC35F0FBE433FD0819E6871D
:10062300F0D2E7A42C4ACB35F0CD3400FC09E687A1
:10063300F0D2E7A42DCC35F0FDE433FA0918E687B0
:10064300F0D2F7A42CCD35F0CA3400FC08E687F0CD
:10065300D2E7D2F7A42ACC35F07A7E20E70B0ACB77
:1006630033CBCD33CDCC33CC33CB3350147004EDFB
:1006730030E00ED2F1E4CD3DCDCC3CCC3B5005DA9D
:1006830005C2F1EB547FC63308E63392F0FBE73340
:1006930009E733C39A502D2B70190C0D4C4D70156F
:1006A3001806E608C333700D20F10AA2F013F6E42E
:1006B30018800B4024E4F630F002768018F618F622
:1006C30018F68024D33B14501074FFA2F013F618CD
:1006D3007680E418F618F6800FA2F013F618E633C6
:1006E30003F618ECF618EDF6D0E0FDD0E0FCD0E010
:1006F300FBD0E0FA22C0E074F2120AB9E5A7FAE5EA
:10070300A1FBEA5B541060081220D353A1EF802AA7
:10071300EAA2E0C0D0EBA2E092F012110B158182A5
:10072300F05017906198E0FA901694E0C39AA2D221
:1007330065D0335002EAF053A1FE7F01020B70C073
:10074300E074F2120AB99061A4E0FA759B00E59196
:100753005A540860087591F7122115802AE5915AB9
:10076300541060087591EF12211B801BEAA2E0C0B0
:10077300D0E591A2E092F012110B158182F050079F
:10078300E0C2E0F012223B9061A3E0FAE5E95A549B
:1007930004600E12221175E9FB906193E0A2E6401A
:1007A300F28097C0E074F2120AB99061A5E0FAE50D
:1007B300BF5A5404600653BFFB12225302073DC3C2
:1007C300E498F8E499F91208038026C3E49AFAE45A
:1007D3009BFBE920E7E9120803E498F8E499F9227E
:1007E300C3E498F8E499F9120803E498F8E499F952
:1007F300C3E49AFAE49BFB22EB20E7CFE920E7E08E
:10080300B90010BB0008E88AF084F8AAF022E4FBE0
:10081300C8FA22EB70227B10C833C8C933C93350DE
:1008230007C39AC3DBF280069A50012ADBEAC83376
:10083300F4C8C933F4C9FA2275F008E4C833C8C947
:1008430033C933C99AC99B5004C92AC93BD5F0ECB3
:10085300FBC833F4C8E4C9FA2212089C20F0143010
:10086300E72B74FFFCFBFA747F8022E4FCFBFA7431
:1008730080801AB48008BC00F2BB00EF800F50EBFD
:10088300F9E4C39AFAE49BFBE49CFCE499C6CC1814
:10089300C6CB18C6CA18C6F922E4C9C608CAC60810
:1008A300CBC6D3330308CCC63392F0C3947F402E18
:1008B30094184019C9B90704CACBCC225025C309DF
:1008C300CA33CACB33CBCC33CC33D9F422F4600D47
:1008D300C9CCC313CB13CBCA13CAD9F6CC22E4FCBD
:1008E300FBFA2214FCFBFA22080808EAC0E0EBC07A
:1008F300E086F0E7A4FA180986F0E7A42AFA1809B3
:1009030086F0E7A42AFA180986F0E7A42AFA1986DA
:10091300F0E7A4FBE5F02AFA190886F0E7A42BFB1D
:10092300E5F03AFA190886F0E7A42BFBE5F03AFA6A
:1009330018180986F0E7A4C5F02BFBE43AFA190866
:10094300E7C5F0C6A426F6E5F03BFBE43AFA1886C1
:10095300F0E7A4F6E5F00826F6E43B08F6E43A08E7
:10096300F6D0E0FBD0E0FA22080808E630E71112DF
:1009730010BE120983080808C64480C61818182236
:10098300181818E9799EC608CAC608CBC608CCC68B
:10099300C370207996CACBCC7019798ECBCC7013E7
:1009A3007986CC700EF9802ACA33CACB33CBCC33C9
:1009B300CC331930E7F2CCCBCA3350147004EA308D
:1009C300E00DE4CA3ACACB3BCBCC3CCC500209C3C2
:1009D300E913C6CC182313C6CB18C6CA18C6F92206
:1009E300E4CFC0E0E4CEC0E0E4CDC0E0E4CCC0E0BE
:1009F30075F020C3E633F608E633F608E633F60867
:100A0300E633F6181818EC33FCED33FDEE33FEEF46
:100A130033FFC3EC9709ED9709EE9709EF9719197F
:100A230019400FFFEC97FC09ED97FD09EE97FE19AE
:100A33001906D5F0BEECF709EDF709EEF709EFF764
:100A4300191919D0E0FCD0E0FDD0E0FED0E0FF2280
:100A53002518C582C0E0E51934FFC583C0E0E51859
:100A6300C3958224F8F8E4C5A8858319858218C53F
:100A7300A8E8CEF0A3E520F0A37808E608F0A3DE0B
:100A8300FAEFF0A3E58124FAF8E608F0A3E608F00C
:100A9300A3E608F0A30808E608F0A3E608F0A31508
:100AA300811581D0E0FED0E0F8158115811581E82C
:100AB300C0E0EEC0E022C0D02518C582C0E0E51931
:100AC30034FFC583C0E0E518C3958224F310AF0853
:100AD3008583198582188008858319858218D2AF8A
:100AE300C8F0A3E9F0A3EAF0A3EBF0A37908E709C0
:100AF300F0A3D8FAECF0A3EDF0A3EEF0A3EFF0A38C
:100B0300D0E0F0A3D0E0F0A3D0E0F0A3E520F0A381
:100B1300E5F0F0A322121222B90003020B5AE4906B
:100B2300030178CA79198002F0A3D8FCD9FA901B83
:100B3300CAAA82AB8390008678D179018015E493A9
:100B4300A3AC82AD838A828B83F0A3AA82AB838C0E
:100B5300828D83D8E9D9E77582577583C5740312EB
:100B63000F457582BF7583257400120F4585198360
:100B7300851882E0C0E0A3E0F9A3E0FAA3E0FBA3B9
:100B83007808E0F608A3DFFAE0FCA3E0FDA3E0FEAB
:100B9300A3E0FFA3E0C0E0A3E0C0E0A3E0F5D0A39F
:100BA300E0F520A3E0A3F5F0E4C5A88583198582C9
:100BB30018C5A8D082D083D0E0F8D0E0321211F962
:100BC300601C1211CC601712123770071212417099
:100BD30001D322C0D01212417006D0D0B322C32257
:100BE30033D0D0501430E0F6C3E7960809E79608EF
:100BF30009E7960809E796B32220E0D5E6970809A6
:100C0300E6970809E6970809E697B3221211F960F7
:100C13001B1211CC60161212377007121241600CAE
:100C2300B322C0D01212417005D0D022C32233D0D8
:100C3300D0501330E0EBC3E7960809E7960809E7BD
:100C4300960809E7962220E0E4E6970809E6970864
:100C530009E6970809E69722D083D082ECC0E0ED3D
:100C6300C0E0E493A3FCE493A3FDED4C600D120CF0
:100C7300EDEC24FFFCED34FFFD80EFE493A3FCE4F3
:100C830093A3FDED4C600D120E2AEC24FFFCED3412
:100C9300FFFD80EFD0E0FDD0E0FCE493A3C0E0E4EF
:100CA30093C0E022D083D082E9C0E0E493A3C3865B
:100CB300F0C5F095F0F908E493A386F0C5F095F03C
:100CC300700BE493A3C3994005E9048002A3E47580
:100CD300F002A42582F582E5F03583F583D0E0F9AF
:100CE300E493A3C0E0E493C0E022C0E0C3E493969E
:100CF300087401939618400FE49366700808740112
:100D030093661870007019A3A3C3E4939608740143
:100D1300939618A3A3400DD0E0D0E0D0E0020C9747
:100D2300A3A3A3A3A3A3D0E022851983851882E0FC
:100D3300A3FEE0A3F5207808E0A3F608DFFAE0A31A
:100D4300FFE0A3C0E0E0A3C0E0E0A3C0E0E0A3C0F5
:100D5300E0E0A3C0E0E4C5A8858218858319C5A88F
:100D6300D083D082020F4BD083D082C5F0E493A30B
:100D7300C5F0C395F0F5F0E493A3C395F04005E502
:100D8300F0048001E475F002A42582F582E5F035D4
:100D930083F583E493A3C0E0E493C0E0227404806A
:100DA3000474028000CCC0E0EDC0E0E518C39CCC25
:100DB300AD1950011D10AF068C188D1980068C18C3
:100DC3008D19D2AF120EC8D0E0FDD0E0FC22740220
:100DD3008000CCC0E0EDC0E0E518C39CCCAD195059
:100DE300011D10AF068C188D1980068C188D19D231
:100DF300AF120EA6D0E0FDD0E0FC221211F960255F
:100E03001211CC6020121237700302124108080835
:100E1300E76670101819E766700A1819E766700418
:100E23001819E76622F422C0E0C0F088F0E4936664
:100E330070080874019366187000A8F0A3A3700BE0
:100E4300D0F0D0E0D0E0D0E0020C97A3A3D0F0D054
:100E5300E022D083D082CCC0E0E493A36006120FDB
:100E6300081470FAE493A3600612102B1470FAD0DE
:100E7300E0FCE493A3C0E0E493C0E022C0E074F29A
:100E8300120AB91220137F01020B70C0E074F21230
:100E93000AB912201980EFC0E074F2120AB91220C5
:100EA3001F80E3CAC0E0E493A3C582CCC582C58397
:100EB300CDC583F0A3C582CCC582C583CDC583DAF6
:100EC300E5D0E0CA22CAC0E0E0A3C582CCC582C592
:100ED30083CDC583F0A3C582CCC582C583CDC5832D
:100EE300DAE6D0E0CA22700908080822601618184A
:100EF30018C6C333C608C633C608C633C608C633C6
:100F0300C6D5E0EA22C0E0E493A3D39C5010E49357
:100F1300A3C39C400AD0E0D0E0D0E0020E72A3A3AA
:100F2300A3D0E022C5822518C582C583351910AF29
:100F330007F5198582188007F519858218D2AFC580
:100F43008322C09FF59FE473D09F22D083D082C0B9
:100F53009FE493C0E0740193C0E0740293F59F2271
:100F63007404800A74038006740280027401C0E072
:100F7300F404120F7ED0E0121208222518F5821015
:100F8300AF08F518400215198008F5184002151925
:100F9300D2AF85198322BB0102E722C082C08389B5
:100FA300828A83BB0003E08002E493D083D0822251
:100FB300C0D0251810AF08F518500205198008F5A0
:100FC3001850020519D2AFD0D0226016080808C6FF
:100FD300C313C618C613C618C613C618C613C6D578
:100FE300E0EA22C3E0C696F608A3E0C696F608A395
:100FF300E0C696F608A3E0C696F622C0E074F212A5
:101003000AB9C2C0E5D1A2E450031220497F01020C
:101013000B70251810AF08F518400215198008F554
:101023001840021519D2AF22C0E0E493A36C7009F3
:10103300D0E0D0E0D0E0020E72A3A3D0E0221818D3
:1010430018E6084608700AE608C3337005E633F469
:10105300220822C3E7960809E7960809E7960809D4
:10106300E796A2D265D03322E066701008A3E0664B
:10107300700A08A3E066700408A3E0662219191930
:10108300E7094709700AE709C3337005E733F42218
:101093000922C3E09608A3E09608A3E09608A3E01C
:1010A30096A2D265D03322C3E096F008A3E096F06F
:1010B30008A3E096F008A3E096F022181818E4C3FA
:1010C30096F608E496F608E496F608E496F622E027
:1010D30026F608A3E036F608A3E036F608A3E036C2
:1010E300F622E026F008A3E036F008A3E036F00885
:1010F300A3E036F022E627F60809E637F60809E604
:1011030037F60809E637F622C0E0E8C0E0E58124B7
:10111300FCF8E6A2E7D0E0F8D0E022E657F60809AB
:10112300E657F60809E657F60809E657F622E056A9
:10113300F608A3E056F608A3E056F608A3E056F631
:1011430022E647F60809E647F60809E647F60809DE
:10115300E647F622700422600D18C6C333C608C6DC
:1011630033C6D5E0F41822E056F008A3E056F008A1
:10117300A3E056F008A3E056F022C6F4C608C6F46E
:10118300C608C6F4C608C6F4C622C3E09608A3E0A0
:101193009608A3E09608A3E09622C3E7960809E71A
:1011A300960809E7960809E7962275D000758140ED
:1011B30075180175190300020B18600C08C6C313D8
:1011C300C618C613C6D5E0F422E7094709C3134777
:1011D30009336002E733F422E6F008A3E6F008A33C
:1011E300E6F008A3E6F022E0F608A3E0F608A3E0A1
:1011F300F608A3E0F622E6084608C3134608336060
:1012030002E633F422CAC0E0E6F0A308DAFAD0E03B
:10121300FA22C5822518C582C5833519C583227470
:10122300F855C74401F5C77901222518F582E4353D
:1012330019F58322E6C33318461846184622E7C336
:101243003319471947194722120F4ED78A01120F34
:101253004EFA8A01120F4E228B01120F4E348B016C
:10126300120F4E3E8B01120F4EC28B01120F4E31E5
:101273008C01120F4EDA8C01120F4EE28C01120F09
:101283004E838D01120F4EE68D01120F4EB88E0163
:10129300120F4E2F8F01120F4E6C8F01120F4ED370
:1012A3008F01120F4E209101120F4E3C9101120F2C
:1012B3004E959101120F4E329201120F4E829201FE
:1012C300120F4E1D9301120F4ECA9301120F4E08B7
:1012D3009401120F4E789401120F4EC39401120F12
:1012E3004EFC9401120F4E2A9601120F4E64970181
:1012F300120F4EC59701120F4E0E9801120F4E3664
:101303009801120F4EB99801120F4E399901120F1D
:101313004EAC9901120F4ED19901120F4EE2990171
:10132300120F4E589A01120F4EFC9A01120F4E3EA5
:101333009B01120F4EC49B01120F4EEB9B01120F28
:101343004E139D01120F4E269D01120F4E7F9D01DC
:10135300120F4EC09D01120F4E489F01120F4EDE19
:10136300A001120F4E0DA101120F4EA0A101120FE9
:101373004EF9A101120F4EE5A201120F4EE8A4018E
:10138300120F4EF2A401120F4EFCA401120F4E06CF
:10139300A501120F4E10A501120F4E2AA501120F1F
:1013A3004E34A501120F4E3EA501120F4E48A50162
:1013B300120F4E69A501120F4EB7A501120F4EC1B0
:1013C300A501120F4EE5A501120F4E09A601120F3A
:1013D3004E68A601120F4EB3A601120F4ED1A601FD
:1013E300120F4E41A701120F4E7EA701120F4EC5D9
:1013F300A701120F4E2DA801120F4E9FA801120F25
:101403004ED3A901120F4EF6A901120F4EB9AA012C
:10141300120F4EDFAA01120F4EBFAB01120F4E2067
:10142300AE01120F4E87AF01120F4E4AB101120FD8
:101433004E9CB101120F4E7FB201120F4ECCB2017E
:10144300120F4E37B301120F4E41B301120F4E600C
:10145300B501120F4E85B501120F4ED6B501120F0D
:101463004ED7B601120F4E0FB701120F4E4FB701F1
:10147300120F4EB2B701120F4ECBB801120F4E2B03
:10148300B901120F4E11BA01120F4E17BC01120F00
:101493004E33BC01120F4ED8BD01120F4E1EBE01BA
:1014A300120F4EFCBE01120F4E66BF01120F4E9774
:1014B300BF01120F4ED3BF01120F4E61C001120FB5
:1014C3004E64C001120F4ED0C001120F4EEE2A001F
:1014D300120F4E402B00120F4E772D00120F4EC3EA
:1014E3002D00120F4E852E00120F4EFC2E00120FF0
:1014F3004E243000120F4E613200120F4EF83200AC
:10150300120F4E983900120F4E1E3A00120F4E9BC7
:101513003C00120F4E7F3D00120F4E243E00120F6F
:101523004E3D3F00120F4E6E4000120F4E614100C0
:10153300120F4E924400120F4E554600120F4EB535
:101543004600120F4E6B4700120F4E184800120F41
:101553004E434800120F4ED04800120F4EBD4900B3
:10156300120F4E914A00120F4E2F4B00120F4E5C7A
:101573004B00120F4E7E4B00120F4E774D00120F91
:101583004E524E00120F4E9F4E00120F4E004F0050
:10159300120F4EC24F00120F4EF74F00120F4E455F
:1015A3005000120F4E755000120F4EB35000120F21
:1015B3004E0B5100120F4E105100120F4E6B510083
:1015C300120F4E935100120F4EB25200120F4E1EC5
:1015D3005300120F4E885300120F4E115400120F76
:1015E3004E305600120F4E0E5700120F4E7D58000C
:1015F300120F4E0F5A00120F4E9F5A00120F4EA693
:101603005B00120F4E2F5C00120F4E765C00120F20
:101613004EED5D00120F4E015E00120F4E1B5E0079
:10162300120F4E365E00120F4E425E00120F4E60D6
:101633005E00120F4E176000120F4E506000120F23
:101643004E5D6000120F4EAC6000120F4E9F6100A2
:10165300120F4EE36100120F4E666200120F4E6AC4
:101663006300120F4E266400120F4EA16500120F85
:101673004E7B6600120F4E126700120F4EA46700D6
:10168300120F4EBB6700120F4EDF6700120F4EE9B9
:101693006700120F4EF56700120F4E136800120F0A
:1016A3004E576800120F4EA86800120F4EC968000B
:1016B300120F4E066A00120F4E526A00120F4E4965
:1016C3006B00120F4E716B00120F4ED36B00120F93
:1016D3004E4C6C00120F4E5D6D00120F4E096E00E2
:1016E300120F4EF66E00120F4E5A6F00120F4EF18C
:1016F3006F00120F4EC17000120F4EF07000120FE8
:101703004E4F7100120F4EFD7100120F4E237200E7
:10171300120F4E9B7200120F4EC07200120F4EE357
:101723007200120F4E1E7300120F4EFC7400120F44
:101733004EE97500120F4EA17600120F4E38780055
:10174300120F4E8C7800120F4EAB7800120F4E1A08
:101753007900120F4E8E7900120F4EE77900120FA7
:101763004E0D7A00120F4E487A00120F4E747A0013
:10177300120F4EBF7A00120F4E187B00120F4E94B9
:101783007B00120F4E787C00120F4EE57C00120F87
:101793004E0E7D00120F4E747D00120F4EC97D0058
:1017A300120F4E037E00120F4E587E00120F4E7D15
:1017B3007E00120F4EC37E00120F4EE07E00120F0A
:1017C3004E8A7F00120F4E4EE103120F4E99E10332
:1017D300120F4E8FC101120F4EC3C101120F4E994A
:1017E300C201120F4E6DC301120F4E98C401120FA6
:1017F3004E1CC601120F4E9AC601120F4E61C7014D
:10180300120F4E82C801120F4EF4C801120F4E562A
:10181300C901120F4EA4C901120F4EAEC901120F16
:101823004EECC901120F4E55CA01120F4EF4CA01F4
:10183300120F4E72CB01120F4E27CC01120F4E998D
:10184300CC01120F4EBFCC01120F4EEFCC01120F81
:101853004E1CCD01120F4EC2CD01120F4ED2CD013F
:10186300120F4E25CE01120F4E31CE01120F4E3DF7
:10187300CE01120F4E46CE01120F4EA7CE01120F0C
:101883004E07CF01120F4E58CF01120F4E73CF01E7
:10189300120F4EA3CF01120F4EC4CF01120F4ED021
:1018A300CF01120F4E11D101120F4E2FD101120F82
:1018B3004E98D101120F4EABD101120F4EC2D1017E
:1018C300120F4E55D201120F4E54D301120F4E5028
:1018D300D401120F4ED2D401120F4EDCD401120FD9
:1018E3004E3FD501120F4E50D501120F4E93D50125
:1018F300120F4EDAD501120F4E10D601120F4E46BB
:10190300D601120F4E64D601120F4E88D601120F64
:101913004EC9D601120F4EBCD701120F4E02D80189
:10192300120F4E3DD801120F4E9CD801120F4EC418
:10193300D801120F4EFDD801120F4E0BD901120F11
:101943004E6CD901120F4EA9D901120F4EEBD901DA
:10195300120F4E1CDA01120F4E50DA01120F4E5BBA
:10196300DA01120F4E79DA01120F4E41DB01120F29
:101973004E4BDB01120F4E8ADB01120F4EA0DB012F
:10198300120F4E0ADC01120F4E1EDC01120F4E160F
:10199300DD01120F4E29DD01120F4E3EDD01120F44
:1019A3004EDEDD01120F4E42DE01120F4E05DF0146
:1019B300120F4E10DF01120F4E2FE001120F4E4B8C
:1019C300E001120F4EA3E001120F4EDAE001120FF5
:1019D3004EF4E001120F4E68E101120F4EF9E101DE
:1019E300120F4E41E201120F4E5CE401120F4EC67C
:1019F300E401120F4E31E501120F4E8AE701120F77
:101A03004E9AE701120F4E9DE701120F4EA9E7010F
:101A1300120F4EBDE701120F4EC5E701120F4EFA2A
:101A2300E701120F4EA8E801120F4E18E901120F39
:101A33004E7CE901120F4E15EA01120F4EAFEA0177
:101A4300120F4EDDEA01120F4E6DEB01120F4E79AC
:101A5300EB01120F4EA8EB01120F4ECAEB01120F4E
:101A63004EF1EB01120F4E57EC01120F4EC1ED0177
:101A7300120F4EC4ED01120F4E3BEE01120F4E2713
:101A8300EF01120F4EFFEF01120F4E89F001120FFB
:101A93004EBEF101120F4E70F201120F4EA9F20168
:101AA300120F4EDAF201120F4EE3F201120F4ECF74
:101AB300F301120F4E4BF401120F4EDBF401120F20
:101AC3004EA5F501120F4E29F601120F4E5FF601D6
:101AD300120F4EA8F601120F4E008003120F4E1282
:101AE3008003120F4E858003120F4EBB8003120F2B
:101AF3004E128103120F4ECA8203120F4EAE84039D
:101B0300120F4EA18703120F4ECF8703120F4EF30E
:101B13008703120F4E628803120F4E968803120F2B
:101B23004ED38803120F4E0F8903120F4E508903B1
:101B3300120F4E9B9A03120F4EE58401120F4ECEE5
:101B43009A03120F4EDF9A03120F4E369B03120FA6
:101B53004E638A01120F4EE69B03120F4E309C0315
:101B6300120F4E1B9E03120F4E6FE003120F4E0017
:101B73009F03120F4EFD9F03120F4E00A003120F7F
:101B83004E3FA003120F4E8BA003120F4EBDA003B6
:101B9300120F4EC0A003120F4EC3A003120F4E9C90
:101BA300A103120F4E89A303120F4EC58801120F12
:101BB3004EAED203120F4EF9D203120F4E43D3038C
:101BC300120F4EE6D303120F4E6BCF03120F4EB11B
:101BD300D003120F4E98FF01120F4E0AD103120FBA
:101BE3004E23D103120F4E63D103120F4E12D203B1
:101BF300120F4E41D203120F4E99BD03120F4E1412
:101C0300BE03120F4E1FBE03120F4E44BE03120F2C
:101C13004E8E8903120F4ED48903120F4E448A034A
:101C2300120F4E6C8A03120F4E2E8B03120F4E3778
:101C33008B03120F4E8D8B03120F4EB88B03120FB3
:101C43004E178C03120F4EB68C03120F4EF28C03F9
:101C5300120F4E4C8D03120F4EA38D03120F4ED154
:101C63008D03120F4E508E03120F4E9D8E03120FD3
:101C73004EDC8E03120F4E108F03120F4E228F0372
:101C8300120F4E348F03120F4E538F03120F4E1247
:101C93009003120F4EF8D803120F4EB9C903120F57
:101CA3004E1DCA03120F4E41CA03120F4E47CB03F8
:101CB300120F4ED1B902120F4EB9BA02120F4EF5DE
:101CC300BA02120F4EA6BC02120F4EE8BC02120F4C
:101CD3004E9CBE02120F4EE3BE02120F4EC0BF0255
:101CE300120F4E4BC002120F4EE2C002120F4E36BD
:101CF300C102120F4E76C102120F4E33C302120FEE
:101D03004EA1C402120F4EB3C602120F4EC1C60239
:101D1300120F4E25C702120F4E79C702120F4E6ED5
:101D2300CA02120F4EA3E103120F4EB9E103120FC1
:101D33004E63AF03120F4E7BAF03120F4E23B0035C
:101D4300120F4E64B003120F4E81B003120F4EA454
:101D5300B003120F4EEBB003120F4E24B103120F58
:101D63004E58B103120F4EE6B203120F4EEDDB03D2
:101D7300120F4E61DC03120F4EA6DC03120F4EB797
:101D8300DC03120F4EC1DC03120F4EF6DF03120FFA
:101D93004E6EE902120F4EB7E902120F4EB8EA0275
:101DA300120F4E45EB02120F4E8FEB02120F4EE055
:101DB300EB02120F4EC5ED02120F4EDBEE02120FB5
:101DC3004E16EF02120F4E16F102120F4E31F102B0
:101DD300120F4E72F102120F4EAEF102120F4E07A6
:101DE300F202120F4E20F202120F4E3DF202120FB8
:101DF3004EA1F202120F4E4CF402120F4E6EF40279
:101E0300120F4EA3F402120F4ECBF402120F4ED850
:101E1300F402120F4EDDF402120F4E47F502120FB9
:101E23004EFEF502120F4E32F602120F4E3CF60230
:101E3300120F4E3FF602120F4EA1F602120F4EBEC4
:101E4300F602120F4E26F702120F4E61F702120F1F
:101E53004E64F702120F4EF9DA03120F4E0ADB0338
:101E6300120F4E9BDB03120F4E9B9F02120F4EC9A4
:101E73009F02120F4E38A102120F4EC6A102120F7B
:101E83004E42A202120F4EA5A202120F4EE7A20269
:101E9300120F4E5EA302120F4E09A402120F4E8BB5
:101EA300A402120F4EC7A402120F4E83A802120FF0
:101EB3004E50AA02120F4E1AAB02120F4E3EAB0245
:101EC300120F4E29AD02120F4E9BAF02120F4E2876
:101ED300B002120F4E39B102120F4EA0B402120F0C
:101EE3004EB0B402120F4E1AB602120F4E95B6023E
:101EF300120F4EAFB702120F4E2FB902120F4EB987
:101F0300DA02120F4E78DB02120F4EECDB02120FD5
:101F13004E70DC02120F4EC7DC02120F4EC6DD02FA
:101F2300120F4E23DE02120F4E38E102120F4ECA79
:101F3300E102120F4E2FE202120F4ECEE302120FF6
:101F43004E89E402120F4EF5E402120F4E89E602A7
:101F5300120F4E26E702120F4E26E802120F4EEF23
:101F6300E103120F4EF1E103120F4EBECB03120F2A
:101F73004E0BCC03120F4EBACC03120F4E20CD03DF
:101F8300120F4ED4C503120F4E2DC603120F4E511E
:101F9300DE03120F4E9DDE03120F4E9ECD03120F72
:101FA3004EACCD03120F4EF6E103120F4E6FDF035B
:101FB300120F4E7FDF03120F4E97DF03120F4EE80F
:101FC300DF03120F4EC8D703120F4EEFD703120FC2
:101FD3004E78D803120F4EDFD803120F4EDD9E0347
:101FE300120F4EF37F00120F4E29BA03120F4E3712
:101FF300BA03120F4EB7BA03120F4E7EBB03120F72
:102003004E34BD03120F4EFBD303120F4E36D403CF
:10201300120F4E5AD403120F4EB8D403120F4E1A96
:10202300D503120F4E3B9003120F4EBA9003120FBB
:102033004E6A9103120F4EEB9103120F4EFB920364
:10204300120F4E9F9403120F4E089503120F4E76F4
:102053009503120F4E849503120F4E939503120F9F
:102063004EA69503120F4EBC9503120F4EC5950352
:10207300120F4ED89503120F4E299603120F4E3DA1
:102083009803120F4E759803120F4E9A9803120F6E
:102093004EB39803120F4ECC9803120F4ECD9903F3
:1020A300120F4E5C9A03120F4E9EC703120F4EE19E
:1020B300C703120F4EF2C703120F4E25C803120FA8
:1020C3004E5BC803120F4E91C803120F4E0AC90389
:1020D300120F4E47C903120F4E53C003120F4E7B0C
:1020E300C003120F4EB8C003120F4ECAC003120F23
:1020F3004EE6C003120F4E4EC103120F4E57C103DB
:10210300120F4EB8C103120F4EDCC103120F4EA3C0
:10211300C203120F4EB0C203120F4EC1C203120FFD
:102123004EE2E003120F4E2FE103120F4E05B303ED
:10213300120F4E60B403120F4E6DB403120F4E8391
:10214300B403120F4EA0B403120F4EB7B403120F11
:102153004ECCB403120F4E50B503120F4E2FB603DD
:10216300120F4E78B603120F4E88B603120F4EB6F7
:10217300DD03120F4EDBDD03120F4E04DE03120FDD
:102183004E2CDE03120F4EEFC203120F4E08C30391
:10219300120F4E14C303120F4E28C303120F4E4CDB
:1021A300C303120F4E58C303120F4E67C303120F1C
:1021B3004E7AC303120F4ECDC303120F4E07C4034F
:1021C300120F4E37C403120F4E86C403120F4ED4A0
:1021D300C403120F4EECC403120F4EF6C403120FC6
:1021E3004E07C503120F4E4CC503120F4EB2FF022A
:1021F300120F4E7AF702120F4EA6F702120F4EC2BB
:10220300F702120F4ED5F702120F4EEBF702120F21
:102213004E55F802120F4E88F802120F4EEDFB02D4
:10222300120F4E16FD02120F4E46FD02120F4EAF55
:10223300FD02120F4E93FE02120F4EBBFE02120F4F
:102243004ED0FE02120F4EE0FE02120F4E21FF028D
:10225300120F4E76FF02120F4E86FF02120F4E919F
:10226300D603120F4EACD603120F4ED5D603120F60
:102273004EEFD603120F4E14D703120F4E33D7036C
:10228300120F4E4CD703120F4E7BD703120F4E96ED
:10229300D703120F4E8E9E03120F4E97B603120FE3
:1022A3004E9EB603120F4EABB703120F4EDDB703AC
:1022B300120F4E03B803120F4E36B803120F4E48D7
:1022C300B803120F4E83B803120F4EF3B803120F65
:1022D3004E30B903120F4E7DB903120F4EABB90343
:1022E300120F4ECBB903120F4E59D503120F4E7B6B
:1022F300D503120F4E8ED603120F4EF9D903120FC8
:102303004E57DA03120F4E96DA03120F4ED7DA0343
:10231300120F4EEEF601120F4EF8F601120F4E3B5E
:10232300F701120F4E2CF901120F4E12FA01120F80
:102333004E54FA01120F4E85FA01120F4E12FB0191
:10234300120F4E9EFD01120F4E95FE01120F4E13FA
:10235300FF01120F4E52FF01120F4EDBDC03120F6F
:102363004EEADC03120F4EA7A303120F4ED5A303AD
:10237300120F4E19A403120F4E7AA403120F4EC468
:10238300A403120F4EECA403120F4E74A503120FF5
:102393004EAEA603120F4E7DA703120F4EEAA703FC
:1023A300120F4E09A803120F4E52A803120F4E6EBE
:1023B300A803120F4E9FA803120F4EB6A803120FC5
:1023C3004EC3A803120F4EE0A803120F4ECDA9036C
:1023D300120F4E04AA03120F4E0EAA03120F4E1B26
:1023E300AB03120F4E26AB03120F4E38AB03120F83
:1023F3004E41AB03120F4E4BAB03120F4EB4AB0364
:10240300120F4E47AF03120F4EC47F00120F4EC37D
:10241300E103120F4EE2DE03120F4E0BDF03120F26
:102423004EB7CA02120F4E8FCF02120F4EA884016D
:10243300120F4E6D8401120F4E498401120F4E2E5E
:102443008401120F4EBE8301120F4EEC8201120F54
:102453004E518201120F4EE08101120F4E3C890151
:10246300120F4E899B03120F4EC18101120F4EAF03
:102473008101120F4EA08801120F4E5D8801120FC9
:102483004E709F02120F4E529F02120F4E7E9E02FB
:10249300120F4EE29D02120F4E6E9C02120F4E1A45
:1024A3009A02120F4EB59902120F4E6E9602120F38
:1024B3004E469602120F4EEB9502120F4EC895022E
:1024C300120F4E229502120F4ECA9402120F4E277C
:1024D3009302120F4E249302120F4E339202120FE5
:1024E3004E139202120F4E639102120F4EE58F02AA
:1024F300120F4EAC8F02120F4E7D8F02120F4E6DD4
:102503008701120F4EDD8601120F4E2C8601120F2A
:102513004E7A8F02120F4E6C8F02120F4E588F029B
:10252300120F4E528501120F4E4B8F02120F4E7334
:102533008E02120F4EFF8D02120F4EC58D02120F27
:102543004E6D8D02120F4E178901120F4E93D20357
:10255300120F4E068501120F4E3C8D02120F4E6E66
:102563008A02120F4E2C8A02120F4E208A02120F79
:102573004E938902120F4EE18802120F4E8086029B
:10258300120F4EEA8302120F4EB48302120F4E5201
:102593008202120F4E018202120F4E3A8102120F73
:1025A3004E0D8102120F4E678002120F4E3A8002C7
:1025B300120F4E008002120F4EBD9A0300000080DE
:1025C300FBC2C732E473870001004F1C24000200E2
:1025D300291C250002002B1C260002002D1C2700AD
:1025E30002002F1C28000100311C29000100321CAD
:1025F30084000400331C86000100371C2A000100FC
:10260300381C2B000100391C2C0001003B1C2D0041
:102613000800E2112E0001003C1C2F0001003D1CAC
:10262300300001003E1C310001003F1C320001005C
:10263300EA1133000100EB1134000100401C3600A5
:102643000100EC11830002004D1C62001000F51123
:1026530063000100051264000100DF116500010041
:102663003A1C6D0001004C1C6E000200E011430097
:102673000100411C44000200421C45000100441CAF
:1026830046000200451C47000800ED114800010008
:10269300471C49000100481C4A000200491C4B002A
:1026A30001004B1C04000100501CA1000100521C3E
:1026B30037000100511C0000000000000001363605
:1026C30001010001020100010301000104010606EA
:1026D30005020000070100340801000F090401018D
:1026E3000D0100FF0E08000017020000190100FF92
:1026F3001A0100011B0100FE1C0100081D0200005D
:102703001F01000120010001210200002301000F2D
:10271300240200002601000127010008280200FF0F
:102723002A0100072B0102402C0100002D010001AA
:102733002E0100012F0100FF30010B1C31080000A6
:102743003A0100083B01000F2F0100000302710250
:1027530030016002110270020102020202028002D1
:10276300100261023A0041006302730272026202C4
:1027730043020002130238000002000204021202A4
:1027830000020002000200020402040237003700C4
:102793003C0244020002390000020002650200020A
:1027A3003502810200020502820283020002010156
:1027B3007101010101011101010131010101010156
:1027C3008001100161013B00140063017301720178
:1027D300620143010001130106013D0135000401BB
:1027E3001201000100010001000104010401330191
:1027F30033013C014401320136000001000165014F
:1028030000013500810100010501820183010001FE
:102813000103710301030103010301030103220304
:10282300020301031003000300030003000300037A
:102833000003000342030003240306030003000311
:1028430004031203250323032503230304030403BF
:1028530000030003000344030003000323030003F6
:10286300650321003503810300030503000300030F
:1028730000030304710402046004110470040204DD
:102883000204010402041004610400041404630438
:102893007304720462044304000413040604000472
:1028A300000404041204000400040004000451049E
:1028B3006400000400040004440400040004000451
:1028C3000004650400043504810464000504000465
:1028D30083040004030071003001600011007000E4
:1028E3003102200350048000100061000000140036
:1028F30063007300720062004300000013000600CF
:1029030000000000040012000000000000000000AE
:1029130004000400370037003C02440000000000BC
:102923000000000065000000350081000000050084
:1029330000008300000036000100060000000F00C5
:1029430000000000000000000000000003FFFF0083
:10295300000403FFFF0000FFFF0FF4010005C404A0
:102963000320000100000B00000000000000000332
:10297300010F0000231F1300BD1E0100231F0200CF
:10298300871E03008D1E0400931E0500991E06007A
:10299300A51EFFFF0000010915063F150839150B99
:1029A3005115109114020F15052D150715150CF16E
:1029B300140DFD14FF0000030003000400080010C1
:1029C300001F003E007B00F600EC01D703AF075D5C
:1029D3000FB91E713D000003EAF5E5D5D5C5B5A5D0
:1029E3009595858575756565555545453535252514
:1029F3001515051119411917191D193B192F1929F6
:102A03001947194D1953195F1923190B1905199CE6
:102A130036063A703DD9404344AD47174B814EEAE1
:102A23005100160F00000B150B020002220F32009B
:102A33000006000102030405060708090A0B0C0D32
:102A43000E0F011A131A191ADB181F1AD518E118D9
:102A5300791A971A9D1A7F1A8B1A851A15180F1847
:102A63004B1851184518FD170C0E020B040B0A07DF
:102A730008000F00034948424D18172505020001BD
:102A8300191618161615230300303017181921309C
:102A93001B1D1F3000383C3E363B3B352B432C304F
:102AA3003016181920231A1C1E3035195919911A7A
:102AB30065196B196D1A251A2B1A371A311A211831
:102AC30027181B1857180005150D0910080400BE18
:102AD300040A2D183F180E000400150001030928ED
:102AE3000C100A0900000504080F08C082C083E91E
:102AF3009003CCF0E4900380F01222E99003DFE42A
:102B0300F0A3F09003CDF0A3F01217431224751233
:102B130013F51222EF900342E4F0A3F09003F3E0E5
:102B23007002A3E060099003F31260701225C7904E
:102B33002AECE493FA79021223DF02531774F21298
:102B43000A53EAFEEBFF74805FF9E47001E9606108
:102B53009003CCE0F9121C418A088B09EA7001EB5F
:102B630060467B0080010BEB75F003A42499F8E524
:102B7300F03429F988828983E493FA74FF6A602127
:102B8300850882850983E06A70DCAA08AB0988821C
:102B93008983A3E493C0E0740193F583D082122563
:102BA300C7AA08AB09121C35EEFA74806FFB022D1D
:102BB3006974105FF9E47001E9601D1215CF8A088A
:102BC3008B09EA7001EB600A1214FDAA08AB091223
:102BD3001C35EEFA741080D4EE54207003022CB628
:102BE300750C00124FB47001EB70107C027D007AFB
:102BF300207B009003CCE0F9121D4F7C0079047A0E
:102C0300007B001215998A088B09800D7401888254
:102C13008983F0850A08850B09E5087002E50960D8
:102C23006D7C007904AA08AB091215998A0A8B0BEB
:102C3300750C01E508240412780C24FFF0A3E0349A
:102C4300FF127C417002A3E070C9E5082409F8E58E
:102C5300093400F9850882850983A3A3A3A3A3A349
:102C6300A3A3A3A3E0640170A3850882850983A3BA
:102C7300A3A3A3A3A3E05404709274068882898358
:102C8300F07AB7850882850983122E7A808512151A
:102C9300697C0079017A007B00121599EA7001EBD7
:102CA3007009E50C70057A20122D6C74206EFAEF12
:102CB300022BB0EE54106007121431741080EEEE44
:102CC30054406007121479744080E2EE5480600728
:102CD300121341748080D674015FF9E47001E960D6
:102CE3001A9003F5E07002A3E060099003F5126007
:102CF300701225C7EEFA7401022BAF74085FF9E472
:102D03007001E9602D1214019011EAE06401701B57
:102D13009011EBE06015FC75F0E8A4CCAAF075F017
:102D230003A42AFD7A007B08122EF3EEFA7408023C
:102D33002BAF74025FF9E47001E9600A12170DEE1C
:102D4300FA7402022BAF74045FF9E47001E96012B4
:102D53001263FC125D697901123D75EEFA74040287
:102D63002BAF7A007B00023A097B009003CCE0F999
:102D7300121D552274F7120A5374E1121015EAFE5C
:102D8300EBFFEE7001EF6033851882851983AC8207
:102D9300AD831215F9740612122DE0601E7417121A
:102DA300122DE0FD740112122DE0FCEEFAEFFB7917
:102DB30000122487E9600479A48002790002525C3E
:102DC30074F6120A53EAFEEBFF8E828F83A3A3A34A
:102DD300A3A3A3E0544060178E828F831260701206
:102DE300657460067AFF7BFF8024122E6E80159037
:102DF300036BE0A2E1500A7900122E6E12140780D1
:102E03000312161D74FE6A700374FF6B60458E8295
:102E13008F8312607012659012169BE98E828F83E6
:102E23006006122E67E48005122E677401F07CD9C8
:102E33007D148E828F83125E171223D9E9F50870F1
:102E430015EE7001EF60097901EEFAEFFB121575CB
:102E53000260667508CDAA088E828F83122E7AE9E6
:102E630060DF80ECE0240D125867228E828F83127C
:102E73006789FAA3E0FB22E0240C1252ADF9121485
:102E8300E52274F6120A53E9FEEAFF7A0F7B001279
:102E93001C2FEA7001EB6019740C8A828B83F0EEAD
:102EA300A3A3F0EF8A828B83A3F012625D79008083
:102EB30034EEF912159F8A088B09A808A909E8704E
:102EC30001E9601F740688828983A3A3A3A3A3A334
:102ED300A31275DAA3A3A3A3A3E0F912148BEEF94B
:102EE30012157B7910026086EAFCEBFD7A017B0008
:102EF3009003CCE0F9121D492274EE120A53EAFE44
:102F0300EBFF8C088D09890E741212122DE0F51057
:102F1300A3E0F511851082F583E4F0A3F012300CE1
:102F2300EE241DF8EF3400F9880C890D88821230E5
:102F330019601F850A82850B831232F27014850A89
:102F430082850B831256E7851082851183125D6992
:102F53008003750E00850C82850D83126785120D23
:102F63006A010907307C2F962F9F2FAA2F0730CE97
:102F73002F0730DE2FF72F00307810120F6BAC08BD
:102F8300AD09EEFAEFFB1214197402120FB3E9F54F
:102F93000E8071EEFAEFFB12141F8068A90EEEFA91
:102FA300EFFB1216CB80E7127C5164027056E50EDC
:102FB3007010850A82850B83126C467003A3E06947
:102FC3007042EEFAEFFB12166B8039127C516402E9
:102FD3007032EEFAEFFB12165380299003F7E0707C
:102FE30002A3E0601FEEFAEFFB9003F7126070128A
:102FF30025C78010EEFAEFFB1216D78007EEFAEF23
:10300300FB1216E3A90E024D60EE2409F8EF34001B
:10301300F9880A890B22F583126789F912167DE96B
:103023002274ED120A5374DE121015EAFEEBFFEE62
:1030330024021259E2F912159F8A088B09EA7001DA
:10304300EB7003023110EE240CF50CEF1249A9EAE0
:103053002409F50AEB1274DBEA2406F50EEB1239A8
:103063000F8E828F83A3AE82AF83E064F16017E09B
:1030730064CD6012E0641A600DE064E96008E06406
:10308300E16003023191850E82850F83A3E054082A
:10309300F9E47001E9700302311D7405850A828524
:1030A3000B83F09003FBE07002A3E060099003FB45
:1030B3001260701225C79003FDE07002A3E0603434
:1030C30090036BE0A2E1502C850882850983127876
:1030D3001FA3A3A3A3A3A3A3A312526612392DEA8A
:1030E3007001EB600F8E828F83E0F99003FD126015
:1030F300701225C7850A82850B83E064027003740E
:1031030006F0851082851183E0F912157B1215698B
:103113007422120FB37F0B020D2C7900121575E97F
:10312300606C90036BE0A2E15058850882850983A7
:10313300126FDC7002A3E06049740312122D126F48
:10314300C38E828F83E064E97018123252120F6FBC
:103153008E828F83E0F5127812120F6F12444F1292
:103163000FB3740C12122D125E1712606A1265905F
:103173007900740E12122D125612740C12122D12A3
:103183003926850E82850F8312561C0230A58E8246
:103193008F83E0C0E0740212122DD0E012395D1269
:1031A3006351124429127C57851882851983AA8298
:1031B300AB83700512137180031216778E828F838F
:1031C300E064F16034E064CD602FE0641A602AE0CB
:1031D30064E16025E064F06020740212122DE0FCCB
:1031E30074B76C6014123252120F6FECF51278122E
:1031F300120F6F12444F120FB390036BE0A2E14022
:10320300030230F7850A82850B83E06402702A8506
:103213000E82850F83E05404601F12606A12657486
:10322300701312606A74FFF0A3F07405850A828537
:103233000B83023104740380F38E828F83E064E98D
:1032430060030230F7AA08AB091216E90230F785CA
:10325300088285098312679275120178122274F528
:10326300120A538A088B09750A00EA24091253F2D9
:10327300FEE9FF8E828F831232F27003750A018E8C
:10328300828F83125C6D7003A3E06B7006E50AD234
:10329300E1F50AE5082402FEE5093400FFE50A60CA
:1032A300138E828F83E07006E50AD2E58004E50A77
:1032B300D2E6F50A12169BE964017006E50AD2E02C
:1032C300F50A8E828F83E06017E508241DF582E5F9
:1032D30009340012301964016006E50AC2E0F50AF8
:1032E300E50AA2E14004D2E7F50AA90A026B351206
:1032F300657864022274E8120A5374DC121015EA2A
:10330300FEEBFF740312122D126362751400751520
:1033130000740512122DAC82AD838E828F83A3A31A
:10332300A3126561125E171215F9EE241B1256E102
:10333300741212122D125D69740B12122DE06022A9
:10334300741C12122DE0FD740612122DE0FC8E8205
:103353008F83A3A3125E177901122487E960030206
:103363003902740512122DAA82AB831214F7E9F500
:1033730008740B12122DE0700E900368E06008E9E8
:10338300A2E14003023902EE2412F516EF3400F5F0
:1033930017EE242A1274D8EE242C123917123F3652
:1033A300E0687003A3E069701C7509007809120FC7
:1033B3006F7809120F6FEE242E12391E123939124B
:1033C300445F120FB3740812122DE0FA90036EE0FB
:1033D3006A6003023902740B12122DE07003023487
:1033E3007B12393912392D8A0A8B0BA80AA90BE8EB
:1033F3007001E9700302351F740612122D1239345D
:10340300FAA3E03400FB740D2AF582E43BF583E074
:10341300FAE82404F50AE91274DBE82403F582E9E7
:10342300127C576A600DEAF090815E780C1211EA03
:103433001239827904740612122D123934FCA3E076
:1034430034008C82F583A3AA82AB83121C238A0CDB
:103453008B0D8C0E8D0F850A82850B8378101211CC
:10346300EA7810790C12119D50030239029081669B
:10347300780C1210D2123982EE242412390CEE2465
:1034830030F50CEF1249A9EE242F1274D890036B78
:10349300E0A2E150030235B6900380E0FA74046AB7
:1034A300600874096A6003023902E508A2E5400373
:1034B300023565123969C0E0740112122DD0E01291
:1034C3004489C0E0740212122DD0E0F07416121277
:1034D3002DE064017020741012122D123951700303
:1034E300A3E0697011740E12122D1232F270077478
:1034F3001612122DE4F0850E82850F83120DA0742F
:103503000412122DAC82AD83740912122DAA82AB60
:10351300831213777404120FB30239029003C5E0C8
:103523006401600302347B742212122D12678564D6
:10353300067009E508A2E6500302347B74121212E6
:103543002DE064FF7004A3E064FF7003023902EE10
:10355300FCEFFD740512122DAA82AB831215030230
:103563003902A2E64003023902742212122D1239E3
:1035730049701C741C12122DE064026003023902AC
:10358300740512122DAA82AB8312166B02390274D0
:10359300076A6003023902741C12122DE06404608E
:1035A30003023902740512122DAA82AB8312165F2D
:1035B300023902741612122DE0601D8E828F83A3CE
:1035C300A312447B14125B79A312447BC0E07416EC
:1035D30012122DD0E0F07006E508C2E7F50890035B
:1035E30080E0FA74046A600574096A7061740E12EB
:1035F300122D125C6D7003A3E06B601712169BE92A
:103603006402600F740A12122DE054036401600314
:10361300023902740712122DE0701B123969C0E0DF
:10362300740112122DD0E0124489C0E07402121208
:103633002DD0E00234F8742212122D12394970038E
:1036430002357674076A600302390202359A7509F6
:103653000074615508700302376AE508A2E05070F0
:10366300851682851783125612740512122DAA82AB
:10367300AB8312147FE97055121629E9F509741604
:1036830012122DE0700F741012122D1239517003A3
:10369300A3E069603BA90985168285178312561238
:1036A300740512122DAA82AB83121485E960137478
:1036B3000E12122D126BCD12122D125D69751404A8
:1036C300800EE508C2E5F508750900800353089FDD
:1036D300E508A2E5503C123969C0E0740112122DCD
:1036E300D0E0124489C0E0740212122DD0E0F085BC
:1036F3000E82850F83120DA0740412122DAC82ADBD
:1037030083740912122DAA82AB83121377740412E5
:103713000FB3E508A2E64003023829740312122D01
:1037230085820A85830B780A120F6BA90985168295
:10373300851783125612740712122DAA82AB8312B5
:1037430014EB7402120FB3E9F509700302382974FC
:103753002212122D12678564016003023829741046
:103763004514F514023829740712122DE064017010
:103773003B742212122D1267856405702F74031295
:10378300122D8582088583097808120F6B790085CD
:103793001682851783125612740712122DAA82AB52
:1037A300831214EB7402120FB3023902741612124D
:1037B3002DE0700302355212156FE96003023902DE
:1037C300740E12122D126BCD12122D125D6978092F
:1037D300120F6F741E12122DAC82AD83740F12126E
:1037E3002D125E17740A12122DE0F91214AF740130
:1037F300120FB3E9600F7514208E828F83A3A31277
:103803006785543FF07900741012122D125612740A
:103813000E12122D123926E9600674204514F51490
:10382300121629E9F509740312122DE064FE7004DF
:10383300A3E064FF7003750900E508A2E7400302F3
:103843003902E5097003023902740312122D123989
:10385300517003A3E069700B741D12122DE0700305
:103863000235528E828F83A3A3A3A3E0FA7B0012B7
:103873001CA78A0A8B0BEA7001EB70030239028ED4
:10388300828F83A3A3E0F50CA3E0F50D750E0078FA
:103893000C120F678E828F83A3A3A3A3E0FC7D008A
:1038A300124A7A120FB3740712122DE0851882851B
:1038B3001983F0740112122DE4F0A312395D85828D
:1038C3000C85830D780C120F6B7814120F6BE509BE
:1038D300F5087808120F6F8E828F83A3A3A3A3E04A
:1038E300F9740812122D125612AA0AAB0B1215E71D
:1038F3007405120FB3E96007AA0AAB0B121CAD746F
:1039030024120FB37F10020D2CF50EEF3400F50FC8
:1039130022EE240BF582EF12783322F582EF126444
:1039230020F9221252A9121413221252A912177348
:1039330022126F272A22850A82850B8312540B8554
:10394300168285178322126789FA74046A22125633
:10395300F9851682851783E0682212396122F08582
:10396300188285198322EE242E12641D8518828500
:10397300198312397922F0850A82850B83E0228527
:103983000A82850B83E50CF0A3E50DF0A3E50EF0A9
:10399300A3E50FF02274F2120A53EAFEEBFF8C0840
:1039A3008D0912300C79008882F583125E17121488
:1039B3009D8A828B83E5827002E583603AA3A3A389
:1039C300A3A3A3E05418602FE508241BF582E5099F
:1039D30012391A120DA4E5082412F582E5091239E9
:1039E3001A120DA4EE241812391E123A0E1214BB29
:1039F3007404120FB380087900123A0E12142B804C
:103A0300057403120FB37F06020D2C850A82850B02
:103A13008312540BEE240B1252A22274EE120A5399
:103A230074EA1210158A0C8B0DEA2402F50EEB12C0
:103A3300390F0A0AFB12125D8A088B09AE08AF0917
:103A4300750901850C82850D83A3E0F508750A01CC
:103A5300AC0EAD0F851882851983AA82AB8312231E
:103A63000D740812122D126362740A12122D74025D
:103A7300F0741312122DE4F0E50C240AF50CE50D95
:103A83001249A9901BCCE07010EE7001EF700AE5AB
:103A93000870067509C3023BF4900380E064086074
:103AA300067509C2023BF0850C82850D83E0A2E115
:103AB300500EA2E35005750A04800C750A038007B3
:103AC300A2E35003750A02EE7001EF60648E828FE9
:103AD30083A3A3A3A3E0FA74046A600574036A7062
:103AE3000C7404650A601C7403650A601674026A28
:103AF300600574016A70207402650A6006740165CA
:103B03000A700F8E828F8312476512122D125D6920
:103B1300801F74026A600574016A700A8E828F8343
:103B23001248C61225C7AA0EAB0F1212697E007F78
:103B330000740812122DE064FE7004A3E064FF70A9
:103B43003812247BE97032E50860179003BDE06406
:103B530002700F901BD312476512122DE8F0A3E9F0
:103B63008016850C82850D83E05402F91214377494
:103B73000812122DEAF0A3EBF0740812122D123C76
:103B830094700374FF6B70057509C78060E508F5D1
:103B93000B780B120F6F850C82850D83E0F9AC0E49
:103BA300AD0F1213957401120FB3E97040A90AAC5B
:103BB3000EAD0F740812122D123D6E8A108B11AECA
:103BC30010AF11EE7001EF601C74026508700BEE0C
:103BD3002405127C5454FB4408F0740A12122DE499
:103BE300F0F5098008740812122D126362E508705B
:103BF3000F851882851983AA82AB831223BB801099
:103C0300FCA90A851882851983AA82AB83121659E7
:103C1300E9FAEE7001EF603EEE2405F8EF3400F9A7
:103C2300E508601288828983E0D2E6F074026508B1
:103C33007004E0D2E5F0850C82850D83E0A2E650A6
:103C43000888828983E0D2E7F08E828F83A3A3A3BF
:103C5300A3A3A3E004F0E5097003EA602FFC7D0051
:103C63007A017B101222F5EE7001EF6007AA0EAB0A
:103C73000F121269740812122D123C94700374FF10
:103C83006B600990035A1260701225C77416024DB7
:103C93005D1252A974FE6A2274F6120A5374F71263
:103CA30010158A088B09900380E0FA74036A600D8B
:103CB30074016A600874096A6003023D6B850882B7
:103CC3008B83A3AE82AF83E06003023D507C007D13
:103CD300007A027B001222F5E5082402124D6512D8
:103CE3006A3D125D6979531223AF7900123D7590D5
:103CF3000380E06409600990037E125E1712176D5A
:103D030074011260A37404900380F0740112122DE5
:103D1300AA82AB83794A1223A9740112122DAC82B1
:103D2300AD837A767B0312230D7900740112122D71
:103D3300AC82AD83900374123D6E90036BE0A2E3FB
:103D43005004D2F08002C2F012608B8018FC7D0018
:103D53007A037B101222F58E828F83E0F9123D7570
:103D6300E4900380F012154B0260811252A91224D1
:103D73005D2290037E1252A912138F22C082C08348
:103D8300900342E07002A3E07041900380E0120EC2
:103D930055000301A13D05B03D06BF3DCE3D900357
:103DA3004AE07002A3E0607690034A806B9003467A
:103DB300E07002A3E06067900346805C900348E0F4
:103DC3007002A3E06058900348804D900342E07076
:103DD30002A3E06009124478FC74016C702379003B
:103DE3009003CD800909EA126D50EB12391A125073
:103DF300407001EB70EF9003CD125E1712137D80BC
:103E03001D74026C700512170180139003F9E070A2
:103E130002A3E060099003F91260701225C70253F0
:103E23001774F4120A5374FB1210158A088B097A5B
:103E33000F7B00121C2F8A0A8B0BAE0AAF0BEE709E
:103E430001EF7003023F3174028E828F83126B3B4A
:103E530079501223A9850882850983A38582088561
:103E63008309E06003023F1A90037E1275D3700347
:103E730074FF69602F74FE68700374FF69602585A1
:103E83001882851983E0687003A3E069601674EAF9
:103E930085088285098312463D7A7E7B0379501219
:103EA30023AF8073851882851983123F36125D69AB
:103EB3007A717B0379531223A9900371125D637A9C
:103EC300747B03794B1223A97A737B0379E1122361
:103ED300A9900385E0C3940F5022900373E0C0E0E0
:103EE300740212122DD0E0F0740412122D7401F03A
:103EF300740212122DAA82AB831223D3750A00789F
:103F03000A120F6F780A120F6F901C55E0F9124BCB
:103F13002012445F120FB385088285098312443B44
:103F2300F07403900380F0EEFAEFFB12625D740508
:103F33000253801256F990037E2274F4120A5374CA
:103F4300EB121015EA1253ECFAE9FB8A828B8378A1
:103F5300081211EA780812117D9003817808121172
:103F63006A7F7F7E7F7C00750801750900750A00F2
:103F7300750B00EC7808120EE99003817808121192
:103F83003190815E780812106B602A7D009003CD1A
:103F9300801288828983A3A3E06C70010D126D4F98
:103FA300E912391A1250AE7001E970E6EDC39F5061
:103FB30004EDFFECFE0CECC3941B40AB8A828B83B5
:103FC30078081211EA90815E780812106B604590B0
:103FD300038178081211DB8A828B8378081211EA35
:103FE30085188285198378081211DB740412122D47
:103FF3007401F0900387E0C0E0740512122DD0E045
:10400300F0740712122D124159805B1213B99003F9
:104013007E1265909003CD1250AE7001E96022903C
:10402300037E127149E06A7003A3E06B700A888211
:104033008983A3A3E06E60D3126D4FE912391A800E
:10404300D6EE900373F0121533E9601AE4900380FF
:10405300F090034CE07002A3E0600B79C490034C32
:104063001260701225C7741502538074F0120A533C
:1040730074EB1210158A828B83A3A3A3A3A3A3A318
:10408300A3A312678E7C00750C01750D00750E00DD
:10409300750F00EC780C120EE9850C08850D098567
:1040A3000E0A850F0B900381780812113190815EFF
:1040B300780812106B6025901BD2E0C0E08C08EAF0
:1040C3002508F582EB127C57FDD0E0C39D500D7897
:1040D3000C12117D900381780C12116A0CECC394BD
:1040E3001B40A490038178081211EA90815E78083E
:1040F30012106B603985188285198378081211DBD9
:10410300740412122D7401F0740712122D7401F04D
:10411300900387E0C0E0740512122DD0E0F074071D
:1041230012122D1241597406900380F08023E490FB
:104133000380F0FCFD7A047B101222F590034CE01F
:104143007002A3E0600B79C490034C1260701225D7
:10415300C774150277F2E4126B3F1223C72274EC83
:10416300120A5374ED1210158A828B83A3124440F2
:10417300EA24081253F2FEE9FF851882851983ACFD
:1041830082AD838E828F83124468A3A3A3A3125E9E
:104193001712155D851882851983E070768E828FDC
:1041A30083E0C3940B406C850882850983A3A3A392
:1041B300A3A3A3A3A3E064027059900380E0FAE5EC
:1041C300082410F510E5093400F511E50824091257
:1041D30049A574026A604174066A603C900342E038
:1041E3007002A3E060071244786401605474086AA3
:1041F300600574046A701C740212122DE0F97407CE
:1042030012122DAC82AD83850C82850D83125E174D
:104213001215637413026EBF900342E07002A3E0B1
:10422300701F750A00780A120F6F780A120F6F85D4
:104233001082851183124432124D6D12445F120FA6
:10424300B39003CD1278869003CD126EB7E50824A0
:104253000DF50EE50912390F80318E828F83E0F858
:10426300A3124432E0687003A3E06970128E828F58
:1042730083A3A3E0FA850E82850F83E06A606B8EC9
:104283000A8F0BEE126D50EF127883EE7001EF7010
:10429300C97A187B00121CA78A128B13AE12AF13B4
:1042A300EE7001EF70030242167C18127A6A1263F1
:1042B30059EE240C12391774FFF0E508240B127819
:1042C3000C124420127C40C4124420A3A3F0900398
:1042D300CDE07002A3E070059003CD800AE50A12D9
:1042E3006D50E50B12391A127295740112122D12C8
:1042F300444AA3F0740212122D12444AF0850E822E
:10430300850F8312443BA3124489124417125B8422
:10431300240DFAEF3400FB740212122DE0640160E5
:104323000E740712122DAC82AD8312230D80097C0B
:10433300087D0079FF121C1D741212122DE0C0E0DB
:10434300EE2415123917D0E0124480FC901C55E07E
:10435300C39C400302421612442912391AA3E054A3
:1043630080F9E47001E97009901129E070030242B9
:10437300167D00EE240CF8EF3400F9EE240BFAEF6F
:104383003400FB9003BDE06402701D8A828B83E0DE
:10439300F50AC39C500D740512122DE0C394054019
:1043A3001B801AE50A6C7015740512122DE0C0E02B
:1043B30088828983E0FCD0E0C39C50010D74041211
:1043C300122DE06020ED601D850882850983126B44
:1043D30065ECF0A3ED1244808A828B83F07405129E
:1043E300122D125623740612122DE0600D74018EE5
:1043F300828F83A3A3A3A3A3A3F0740412122DE0BB
:10440300700302421674018E828F83A3A3A3A3A316
:10441300F0024216F8A3E0F98E828F8322540F8EA6
:10442300828F83A3A322E508240BF582E50922E00A
:10443300F9850C82850D83221249A1A322A3A3E04F
:10444300F508A3E0F509221249A18021850C828594
:104453000D831244681254078A828B831252A91265
:10446300162F740222E0F98A828B838002A3A3A30E
:10447300A3A3A3A322900342125877E022F085104E
:1044830082851183E022F0850C82850D83E02274FE
:10449300F6120A5374C9121015900380E064086081
:1044A30062900391E0F824BCF582E43416F583E0CE
:1044B300FA900362F0E824BDF582E43416F583E054
:1044C300FB900360F07508FF7509FFEA7808121185
:1044D30057E508F4FCE509F4FD3395E0FE90038904
:1044E3001246327508FF7509FFEBC39A780812115B
:1044F30057E508F4FCE509F4FD3395E0FE90038DE0
:10450300124632E412609979041223AF900391E0CA
:104513007009741E12122D74018006741E12122D5E
:10452300E4F0740F851882851983F0901BD1126B08
:104533003B79461223AF740112122DE4F0901C381C
:10454300E0C0E0740212122DD0E0F090036EE0C0E0
:10455300E0740312122DD0E0F0740412122DE4F073
:10456300740512122DE4F0740712122DE4F0900377
:1045730091E0FAC3940F7406500612122DEA8005D7
:1045830012122D740FF07C927D03740812122DAA5F
:1045930082AB8312230D7C037D0079FF741012120A
:1045A3002DAA82AB83121C1D9003CBE0C0E07413D1
:1045B30012122DD0E012619912122D126188121677
:1045C30047900385E0C0E0741C12122DD0E0F090F8
:1045D3000386E0C0E0741D12122DD0E0F090037347
:1045E300E0C0E0741A12122DD0E0F090037E125650
:1045F300E7741812122D125D69742012122DE4F063
:10460300900388E0C0E0741F12122DD0E0F07434E0
:1046130012122DE4F0742912122DE412463D741483
:1046230012122DAA82AB831223CD7437026083EC5E
:10463300F0A3EDF0A3EEF0A3F022F07A717B0379FF
:1046430053124648221223AF7A747B03794B122309
:10465300AF22C082C0838A828B83A3E06007E49089
:104663000380F0804A7408900380F0900391E07017
:104673001F90034CE07002A3E0600B790090034CA1
:104683001260701225C790037E1256127A05801AA3
:1046930079001213899003711256127A067B001265
:1046A30022F59003741256127A047B001222F5024B
:1046B300531774F4120A5374EA121015EA2402FE13
:1046C300EB3400FF0A0AFB12125D8A088B09EA70B9
:1046D30001EB70030247608A828B83A3A3A3A3E049
:1046E300FA74016A600F74026A600A74036A6005EF
:1046F30074046A7068EEFCEFFD85188285198312D5
:1047030066FB12476512122D125D69740A12122D8F
:104713007401F0741312122D126B3A1223C1890A19
:10472300AC0A7D007A077B001222F5850882850991
:1047330083A3A3A3A3A3E0C2E0F074018508828549
:104743000983A3A3A3A3A3A3A3A3A3F0740285082C
:1047530082850983A3A3A3A3A3A3A3A3F07416022F
:1047630053801256F974082274F0120A5374F81223
:1047730010158A0C8B0D8C0A8D0B890E851882857A
:104783001983AC82AD837583817582407408120EE0
:10479300C8F50FAC0CAD0D851882851983AA82ABC1
:1047A30083126F557003750F019003CD8030AC0CED
:1047B300AD0DEE240DFAEF3400127B90601A8508DC
:1047C30082850983E0650E700F8E828F83E0650A10
:1047D3007004A3E0650B6036EE24161239171251EC
:1047E300047001EF6028EE2402F508EF3400F509A8
:1047F300E50F70BA8E828F83E0650A7004A3E065CB
:104803000B70D5850882850983E0650E70CAEEFAC0
:10481300EFFB0277F074F7120A539003CDE0FAA38B
:10482300E0800CEA2416127880121CADEEFAEFFB3E
:10483300EA7001EB70ED9003CDE4F0A3F002526156
:1048430074F4120A538A088B09EA240BFEEB340032
:10485300FFEA2413F582EB127C5764037009EEFA26
:10486300EFFB12125D800CE0640270548E828F8322
:10487300127818EA7001EB6047EA2406F8EB12306D
:1048830011850882850983A3E07007E48882898300
:10489300802D64F16005E064E1701A88828983E009
:1048A300640170118A828B831248C61225C7EEFAFF
:1048B300EFFB121269850A82850B83E0600214F014
:1048C3000253831252A990035A1260742274F11294
:1048D3000A538A088B09ECFEEDFF890A8A828B83CF
:1048E300126EEC8A828B831249A0F0EEF8EFF9A3E3
:1048F3000EAF838A828B83A3A3E0C454F0FA888229
:104903008983E04A1249B31249A11249AEE0333315
:1049130054FCFA8E828F83E04A1249AEA3E033330C
:104923003354F8FA8E828F83E04AF008EFF9A30E2E
:10493300AF838508828B83A3A3A3A3A3A3E0A2E0F1
:10494300E492E013135480FA88828983E04AF0E505
:10495300082407F50CEB1249A9750E00780C120F09
:10496300677C081259CB120FB3126ED6E508240FD9
:104973001249A5780C120F677C031259CB120FB39F
:10498300E50AC3940F4011E5082412F582E50912E4
:10499300391A12443BA3A3F07F07020D2CA3E002B4
:1049A300441BF50CE5093400F50D221249B3A3228B
:1049B300F08508828B83A3A3A32274F1120A53EA1E
:1049C300FEEBFF890A8C088D098E828F83E08C822F
:1049D3008D83125B79AE82AF83E0125C1F124A8C27
:1049E300C4125C1F124A80E054038C828D83124AE6
:1049F3008AA2E2E492E08C828D83124A8913131314
:104A0300541F125C1FA3124A89A2E7E492E08C822E
:104A13008D83A3A3A3A3124A808E0C8F0D750E0062
:104A2300780C120F677C087D00E5082407124A748E
:104A3300120FB3126ED68E0C8F0D780C120F677C8B
:104A4300037D00E508240F124A74120FB3E508240E
:104A530012F8E5093400F9E50AC3940F400A8E827F
:104A63008F83A3A3A3E08001E488828983F00249B2
:104A73009BFAE5093400FB121C11740322A3A31251
:104A83005B7D0EAF8322A3A3A3A3F0026E0374F492
:104A9300120A5374F9121015EAFEEBFF900342E079
:104AA3007002A3E0601012447864027009EEFAEF1A
:104AB300FB1216FB806290037EE06E7003A3E06F2F
:104AC300705674016960097A927B03126F557048BE
:104AD3007A007B02124FB87001EB703C900381782F
:104AE300081211EA85188285198378081211DB9060
:104AF3000387E0C0E0740412122DD0E0F0740512B5
:104B0300122D7401F0740612122D7402126B3B12F3
:104B1300132FE96098121335740702538090037EB4
:104B230012540B90037422E0F902531774F6120A1D
:104B3300539003DEE0701F7C0079017A007B001242
:104B43001599EA7001EB600E8A828B83E07002A3F1
:104B5300E060031214DF026086C082C083124F98A4
:104B6300401079FF121593E9FA902AE3E493C39A6C
:104B7300500479018002790002531774EE120A532C
:104B83008A088B09890D750E00EA2408F50AEB12D1
:104B93005605E0F912159F8A108B11AE10AF1175EF
:104BA3000C01EE7001EF6003024C33850882850926
:104BB30083A3A312562AF9850882850983125E17F7
:104BC3001215878A0A8B0BAE0AAF0BEE7001EF70DA
:104BD30003024D568E828F83A3A3A3A3E4F0A3F015
:104BE300E508240B124D65E0C0E0123914D0E0F063
:104BF3001216A7EE240C126589750E01EE2406F831
:104C0300EF124FA7E0547FF0A3E054FC124E4D5433
:104C1300046003024CC5901C31125A98740778083B
:104C23001211578A828B83E04508F0A3E04509F00F
:104C3300EE2406F8EF1253F4FCE9FD8C828D831207
:104C43005E1774805AF50874035BF50974077808D6
:104C53001211BDE508F510EE24041274D8EE2409F0
:104C6300F508EF3400F509E50D60607402850882EC
:104C7300850983124A8D240D125863E0A2E2500F76
:104C830090036C1256E7850A82850B83125D69E5F2
:104C9300107003024D23747F5AFA74FC5BFB74FF9C
:104CA3002510F51074FF3400F511740778101211F4
:104CB30057E5104AF8E5114BF98C828D83125D6933
:104CC300805EE04480F0A3E0024C32E5107005758D
:104CD3000C00804CEA54206015121C298A10747F42
:104CE3005510F8745F28850A82850B83801BEA546C
:104CF30010600E121C298A10740F5510F8740F805F
:104D0300E4850A82850B837401F0A3E4F0740485BF
:104D13000882850983124FAF7001EB700312604361
:104D23007401650E7030850A82850B83124D6DE028
:104D3300F9EEFAEFFB12158DE9601BEE240C123924
:104D4300171250407001EB6003121CADEEFAEFFB3B
:104D5300121CAD750C00A90C8003120FB37F0A025D
:104D63000D2CFAE509340002570812540B8508820A
:104D73008509832274F6120A5374F71210157E0004
:104D830012159FEA7001EB7003024E488A828B83EF
:104D9300A3A3A3A3A3A3A3A3A3E064066003024E58
:104DA300488A828B83A3A3A3A3A3A3A3E0FF8A823E
:104DB3008B83125871E0C0E0740812122DD0E012F8
:104DC3004E4DF8A3E0F5838882126675125D691271
:104DD30015BD74085FF9E47001E960678518828581
:104DE30019831256127A007B00121581EA7001EBC7
:104DF300705190037E1253F91223EB7C007D007AED
:104E0300007B0080288E828F83126406E064FF702B
:104E130004A3E064FF602C90037E125612122079E3
:104E2300E9641A601E7C007D00EEFAEFFB12158127
:104E33008A088B09AE08AF09EE7001EF70C77900DD
:104E43001223F17E01EEF9026081125705E022740C
:104E5300F7120A53EA7001EB70059003DF80068AAC
:104E6300828B83A3A31250407001EB60288A828B4C
:104E730083A3A3A3A3A3A3A3E05408F9E47001E9C4
:104E830060DDEC7001ED60111267816C7003A3E0CB
:104E93006D70CC80047A007B0002526174F2120AB6
:104EA30053EAFEEBFF890A8C088D097A0E7B001208
:104EB3001CA7EA7001EB603BE48A828B83A3A3A364
:104EC300A3A3A3A3A3124EF9E50A12527612634FCA
:104ED3008A828B83A3A3A3A3E4F0124EF9A3A3F0C6
:104EE300127291EA240CF582EB127C28A31256FF6E
:104EF300F0A3F0023A09A312527A02447374F51232
:104F03000A53EAFEEBFF890A8C088D09EE7001EF64
:104F130060567401650A70147901121593E9FA90C9
:104F23002AEBE493C39A500F791180667404650ADF
:104F33007030124F9840F18E828F83A3A3A3A3A353
:104F4300A3A3A3A3E50A125B8B127D5CE4F0A3F099
:104F53009003DFE07002A3E09003DF60241256E7C2
:104F6300800A7402650A60CF79C18026E8240208AA
:104F730008E9124FA71250AE7001E970EF8A828BD5
:104F830083EEF0A3EF124FAF7001EB700312604397
:104F93007900026B357904121593E9FA902AE9E452
:104FA30093C39A221253F4FAE9025708F0124FB44A
:104FB300227A207B009003CCE0F9121D5BEA22C029
:104FC30082C083E9FC79009003DF801D8A828B8392
:104FD300A3A3A3A3A3A3A3A3A3E06C600574FF6C83
:104FE3007001098A828B83A3A31250407001EB7076
:104FF300DB02531774F7120A53EA7001EB70059042
:1050030003DF80068A828B83A3A31250407001EBD7
:1050130060248A828B83A3A3A3A3A3A3A3A3A3E054
:105023006970E1EC60148A828B83E0240D126DFDBC
:10503300A2E240D080047A007B000252611252A99E
:10504300EA22C082C0839003DF80068A828B83A317
:10505300A31250407001EB60128A828B83A3A3A337
:10506300A3A3A3A3A3E06970E280047A007B0002F8
:105073005317C082C0839003DF800688828983A38D
:10508300A31250AE7001E9601B88828983E0FCA300
:10509300E0F5838C82E06A7003A3E06B70DDE8FACD
:1050A300E9FB80047A007B000253171256F9E822C9
:1050B30074F1120A538A0A8B0B8C0C8D0D75080040
:1050C300750900EA7001EB60319003DF80068E8280
:1050D3008F83A3A31251047001EF601EAC0CAD0DBE
:1050E300EEFAEFFB850A82850B831225C7E964017B
:1050F30070DCEEF8EFF988088909AA08AB090249C0
:105103009BE0FEA3E0FFEE227900020F4B74F7123F
:105113000A539003DF1256E77C007D008007E8FC0A
:10512300E9FD1256E7E87001E9603AE82402F582E6
:10513300E912391AEA687002EB6970E2125E17909D
:1051430003DF127886E86E7002E96F70099003DF5F
:10515300EAF0A3EB800EEAF8EBF98C828D83A3A32C
:10516300E8F0A3E9F002526174F7120A53EAFEEB86
:10517300FFEE7001EF60161215B7125280EA70014C
:10518300EB6003121CADEEFAEFFB121CAD02526191
:1051930074F7120A53126781FCA3E0FD9003DF1238
:1051A30056E77508007E00803388828983A3A3A312
:1051B300A3A3A3A3A3A3E0640570180E8882898325
:1051C300E0FFA3E0F5838F82E06C7003A3E06D70D2
:1051D30002050888828983A3A31256E7E87001E9D0
:1051E30070C7EA2404F8EB3400F9902AE0E493FC56
:1051F300E508C39C500B902AE1E493FCEEC39C406A
:105203000B888289837401F0A3E4800A90036C12F3
:105213005266ECF0A3EDF074058A828B83A3A3A3FB
:10522300A3A3A3125273A3A3E0F0A3E04408124E76
:105233004DFAA3E0FB8A828B83E064FF7004A3E052
:1052430064FF600E90037E1256121223E5E9641A7E
:10525300700579011223F18005741F120FB37F01CA
:10526300020D2C12540B80033400F98882898322A7
:10527300A3A3A312527A221257050244738E828F7C
:1052830083E0241C1252ADFAA3E0FB121CAD8E8204
:105293008F831252A9121CADEE240C1252A222F5D6
:1052A30082EF3400F583E0022E7512586BE022C0C2
:1052B30082C083EAFCEBFDEC7001ED70047905809C
:1052C3004CEC24FBF582ED34FFF583E07002A3E0A0
:1052D3007011EC24FFF8ED34FFF988828983E064D0
:1052E300FF6005121C3580D59003CC125623902AFB
:1052F300E5E493F97AE17B03121C65E96401700B21
:105303007A007B101260477900800279048005746B
:1053130002120FB3D083D082020F4B74F4120A53DC
:10532300A2AFE492E0F508C2AF9003E1125104701A
:1053330001EF603DEE24FBF582EF34FFF583E0706F
:1053430002A3E07A007B109003CC600512604A80D0
:1053530005E0F9121C71750A00750B00780A120F2B
:105363006BEEFCEFFD7AE17B03121C5F7402120FFC
:10537300B3E508A2E092AFEEFAEFFB8003120FB39E
:105383007F04020D2C74F7120A5374E1121015EA0C
:105393002413F582EB127C57C0E0741112122DD046
:1053A300E01256F2740912122D1256EB1253ECFC52
:1053B300E9FD8C828D831256E7740B12122D12565F
:1053C300EB2414F582EB127C57C0E0741212122DF9
:1053D300D0E0F0EA240EF582EB1239218C828D8322
:1053E3001253F912148502525C24041253F222F868
:1053F300EB3400F9E82212540B851882851983AA2D
:1054030082AB8322A3A3A3A3E0FCA3E0FD2274EE5B
:10541300120A5374FC121015EAFEEBFF12156FE922
:1054230060057911025600EE2412F510EF3400F5F1
:1054330011EE2402F50AEF1256051265746008E4B2
:10544300851082851183F0EE24131259D4700374EE
:105453001EF0EE2411F8EF12655970199011DFE078
:10546300600D900368E0700D8E828F83E07006E418
:1054730088828983F0EE2414080808EF12780F70ED
:105483000C90035D12562390035DE004F0EE240FAD
:10549300F508EF3400F509EE240B12390C90036B79
:1054A300E0A2E1504F850A82850B83126574604444
:1054B3008E828F83E0600B850E82850F8312301BF3
:1054C3006032850882850983E05440601A850C8226
:1054D300850D83E06401700F850882850983E0549C
:1054E300FBF0A3E0F0800DEEFAEFFB1215D5E970A7
:1054F300030254258E828F83E06401701A850E8225
:10550300850F831267856402700D85088285098380
:10551300E04440F0A3E0F0850882850983E054402D
:10552300705790036BE0A2E1504F750C00780C129A
:105533000F6FEE2406FCEF3400FD850A82850B8392
:10554300125E17851082851183E0F91214AF74017E
:10555300120FB3E9600CE4851082851183F01256B3
:1055630016F079008E828F8312562AFAA3E0FB127B
:105573001413E96004125616F0851882851983AC5A
:1055830082AD83EEFAEFFB1215ED8A0C8B0D850AC3
:1055930082850B83125612EA7001EB605C8E828F58
:1055A30083E0C0E0740112122DD0E0F074021212F5
:1055B3002D127295740112122D85820A85830B7840
:1055C3000A120F6B850882850983120DA4EE240E3F
:1055D300127C54F5087808120F6F740512122DE02F
:1055E300F91215E77405120FB3E9FE74106E700B10
:1055F300AA0CAB0D121CAD80027E10EEF9740402EE
:105603004D5D3400F50B850A82F583221278301242
:10561300540B22850882850983E04420F0A3E0220D
:10562300E088828983F02212540702397AC082C04B
:105633008374DE1210158A828B83A3A3A3A312564D
:10564300E7740E12122DE8F0A3E91256F2740C124D
:10565300122D1256EB240DF582EB127C57C0E07429
:105663001A12122DD0E0F0EA240BF582EB1256E465
:10567300742012122D1256EB2415F582EB127C576F
:10568300C0E0740812122DD0E0F0EA241CF582EB7E
:105693001256E4741212122D125D6974FF8518827A
:1056A300851983F0740112122D74FFF07402121223
:1056B3002D74FFF090815E120DA0740412122DACB4
:1056C30082AD83740712122DAA82AB8312137774EF
:1056D30004120FB379007422025314EE240BF582E3
:1056E300EF1278331256F922E8F0A3E9F0EA221216
:1056F30056FF1256F922E0F8A3E0F922125705A348
:10570300A322F08001FB8A828B832274EC120A535A
:1057130074F01210158A128B13ECFEEDFF890F74CF
:105723002412122DE0F50C742512122D124442742A
:105733002712122D126EB7750D107A1E7B00121CE4
:10574300A7740212122D126590740212122DE070CA
:1057530002A3E0700302585C750E00EEFAEFFB1231
:1057630012578A828B83E5827002E583601CA3A3B0
:10577300A3A3E0FA74016A600574036A700CE50878
:105783005440700674044509F50974045509F9E495
:105793007001E96003750E01851882851983AA8259
:1057A300AB837950125E0E740212122D125871A33C
:1057B300126590740212122DE0240B1258637402C6
:1057C300F012122D1258717402F012122D12607021
:1057D300127295740212122D12677AE50FF0740299
:1057E30012122DE0240C125863E50CF0740212120D
:1057F3002DE0241C125863E512F0A3E513F074089E
:1058030012122D126351740A12122DE50CF0850A3F
:1058130082850B83C082C083740D12122DAC82ADBE
:1058230083D083D0827403120EC8A90E740212129D
:105833002DAA82AB83121575E964017011E50E6020
:1058430008A90C12159F1215C3750D00800B740265
:1058530012122D125E17121CADA90D7410026EBF29
:105863001258672212586B22F8A3E002526B1258A7
:1058730077A3A32212607802447174EA120A53EAEE
:10588300FEEBFF8C088D098E828F83A385820A85A8
:10589300830B7408F0EE24161259D4600974108532
:1058A3000A82850B83F0EE24171259E2600A850AF7
:1058B30082850B83E02408F0EE2411F8EF12780FB1
:1058C3006005750E0E8003750E00EE240DF514EFC2
:1058D3003400F515850A82850B83E08514828515CE
:1058E30083FAE02A250E8C828D83127C416013900B
:1058F3000369E0F9122481E9FA850882850983E0C6
:105903002AF0850882850983E0FAC39475400975F6
:1059130008007509000259C27B001271F77001EB90
:1059230070030259C2EEFAEFFB1215F3EA850882FF
:10593300850983126591EE2402F812640C1259FA58
:10594300F0EE2404080812640CA3A31259FAA3A3CB
:10595300F0EE24131259F0F0EE24141259F0A3F0D0
:105963007A08850C82850D83E0600FEE24181256A9
:105973000FE5082408126EAD7A1085108285118315
:10598300E0600FEE241A12560F8A0CE508250C125C
:105993006EADEE240B127C54F510A3E0F5117512D5
:1059A300007810120F67851482851583E0FC7D0053
:1059B300125D51E50E28FAE4391259D0120FB3AA39
:1059C30008AB097F0E020D2C7D00EEFAEFFB024AB5
:1059D3007AF50CEF3400F50D850C82F583E022F5A2
:1059E30010EF3400F511851082F583E02212783030
:1059F300125A04A3A3A322A3A31275CFA3125A047A
:105A030022E0850882850983A3A3A32274F6120AE0
:105A1300538A828B83E0FC90036E125A9874027847
:105A230008121157E5084CFCAD09EA2412125A92E8
:105A330074067808121157E5084CFCE5094DFDEA98
:105A43002411125A9274097808121157E5094DFD71
:105A5300EA2416125A92740B7808121157E5094D6D
:105A6300FDEA2417125A92740C7808121157E509AB
:105A73004DFD8A828B83A3A3A3A3A3A3125A987475
:105A83000A7808121157ECFAE5094DFB026086F516
:105A930082EB127833E0F5087509002274F2120ADA
:105AA300538A088B09ECFEEDFFE98E828F83F01297
:105AB3005DA2C0E0EE2411123917D0E0125D9DC043
:105AC300E0EE2412123917D0E0125B79A882A98381
:105AD300125D6F6010E5082408FAE5093400FBEE57
:105AE3002413125B978E828F83A3A3A3A3A3A3A3E1
:105AF300A3E0601588828983E0FAE5082AFAE509BC
:105B03003400FBEE2415125B97EE2419127C25EE6C
:105B1300241B127C25127C40F50AF50CE508250CA4
:105B2300F8E5093400F9EE241DFAEF3400FBEAFC32
