:020000040000FA
:1000000002002700000080FB120051B9000302002B
:10001000117582DE758300740012003375820375DA
:100020008300740012003375D00075813F759F0006
:10003000020008C09FF59FE473D09F22D083D08236
:10004000C09FE493C0E0740193C0E0740293F59FF5
:100050002279012212003C6C000012003C91000049
:1000600012003CA2000012003CB8000078007900A9
:10007000801100000004C394F040F7E82401F8E97F
:100080003400F9C3E89AE99B5004740080E8020048
:100090003953F4E7E5F443FE18E5FEC293C2940237
:1000A0000039C082C083B293B2947A307B7512005B
:1000B00054D083D082020039740169700C53C68019
:1000C000E5C643C649E5C68008E9700553C680E524
:1000D000C6E5C6FAE59EFBEA6B70F902003912002C
:1000E0005A79011200667E007F00800B120060EEDC
:1000F0002401FEEF3400FFC3EE9408EF9400A2D277
:1001000065D03340E779001200667E007F00C3EEC1
:100110009408EF9400A2D265D03350C5120060EE6F
:090120002401FEEF3400FF80E52C
:0400000500000027D0
:00000001FF
