:020000040000FA
:0300000002007289
:10004B000200A500000080FB12009CB90003020017
:10005B005C7582EB758300740012007E75824E75A1
:10006B008300740012007E75D00075813F759F0070
:10007B00020053C09FF59FE473D09F22D083D082A0
:10008B00C09FE493C0E0740193C0E0740293F59FAA
:10009B0022790122120087BD0000C0E0C0D0C2AFA0
:1000AB00E5AFA2E25005B29353AFFBD2AFD0D0D0A5
:1000BB00E03253F4F743FE08C29343F14043F4019B
:1000CB0043FE0143E734E5E775DA2475DBF475DEAF
:1000DB00D475DF3075E40EC2DED2B9D2AF02008424
:0500EB0012009F80FEE1
:040000050000007285
:00000001FF
