:020000040000FA
:030000000200E318
:0300130002127D59
:030033000211A710
:03003B000212DDD1
:0300630002103850
:03006B0002107D03
:03007B000211125D
:1000830002123C00000080FB120113B900030200BE
:10009300CDE490030178B979038002F0A3D8FCD9A9
:1000A300FA9005B9AA82AB83900116788079018012
:1000B30015E493A3AC82AD838A828B83F0A3AA82D7
:1000C300AB838C828D83D8E9D9E775820A75832A3D
:1000D30074001200F575828675830074001200F5B2
:1000E30075D00075813F751001751103759F00026E
:1000F300008BC09FF59FE473D09F22D083D082C032
:100103009FE493C0E0740193C0E0740293F59F22CF
:10011300790122FF00000000000000000000004AF7
:1001230001000000960000D2BBD1F5BBAFCCBCB43C
:10013300ABB8D0C6F7B5E7D1B9A3BA25642E25303D
:100143003264560D0A0000002041000000000A003E
:100153000000303132333435363738394142434485
:10016300454600286E756C6C20706F696E746572FD
:1001730029003F3F3F000000803FF9021550B7437D
:10018300BA5100E7DB2E0000A04010000000080079
:1001930000001200FE4623001200FEEB23001200B3
:1001A300FE4C24001200FE6B25001200FEF8250011
:1001B3001200FE9026001200FEEE2B001200FE013C
:1001C3002C001200FE1F2C001200FE2A2C0012002D
:1001D300FEBF2C001200FE312B001200FE3D2B004F
:1001E3001200FE3A2C001200FE002D001200FE54F5
:1001F3002D001200FE592D001200FE902B0012005C
:10020300FEB92B001200FE7D2C001200FE8D2C0087
:100213001200FE9128001200FEC028001200FED634
:1002230028001200FEEB28001200FE002900120035
:10023300FE2C29001200FE5029001200FE61290045
:100243001200FE6A29001200FE7329001200FE88C4
:1002530029001200FE9D29001200FEBD2900120094
:10026300FEA426001200FEB527001200FED02900CE
:100273001200FE362D001200FEA42A001200FECD4D
:100283002A001200FE4413001200FE1C1800E06650
:10029300701008A3E066700A08A3E066700408A360
:1002A300E06622E4936670130874019366700C0889
:1002B300740293667005087403936622C3E7960875
:1002C30009E7960809E7960809E796A2D265D033AD
:1002D30022C3E493960874019396087402939608D4
:1002E3007403939622080808E630E711120BA41250
:1002F3000300080808C64480C618181822181818DE
:10030300E9799EC608CAC608CBC608CCC6C3702006
:100313007996CACBCC7019798ECBCC70137986CCF5
:10032300700EF9802ACA33CACB33CBCC33CC331902
:1003330030E7F2CCCBCA3350147004EA30E00DE45A
:10034300CA3ACACB3BCBCC3CCC500209C3E913C657
:10035300CC182313C6CB18C6CA18C6F9221203A099
:1003630020F01430E72B74FFFCFBFA747F8022E447
:10037300FCFBFA7480801AB48008BC00F2BB00EF67
:10038300800F50EBF9E4C39AFAE49BFBE49CFCE492
:1003930099C6CC18C6CB18C6CA18C6F922E4C9C672
:1003A30008CAC608CBC6D3330308CCC63392F0C3FE
:1003B300947F402E94184019C9B90704CACBCC22A4
:1003C3005025C309CA33CACB33CBCC33CC33D9F48E
:1003D30022F4600DC9CCC313CB13CBCA13CAD9F60D
:1003E300CC22E4FCFBFA2214FCFBFA22E6C333180A
:1003F300461846184622E7C33319471947194722B7
:10040300181818E6084608700AE608C3337005E6AC
:1004130033F4220822191919E7094709700AE70971
:10042300C3337005E733F4220922E6084608C313F1
:100433004608336002E633F422E7094709C313474A
:1004430009336002E733F42212042D602512043CC1
:1004530060201203EF70030203F9080808E76670CF
:10046300101819E766700A1819E76670041819E777
:100473006622F42212042D601C12043C601712033E
:10048300EF70071203F97001D322C0D01203F97081
:1004930006D0D0B322C32233D0D0501430E0F6C3F9
:1004A300E7960809E7960809E7960809E796B3224D
:1004B30020E0D5E6970809E6970809E6970809E6D4
:1004C30097B32212042D601B12043C60161203EF33
:1004D30070071203F9600CB322C0D01203F9700540
:1004E300D0D022C32233D0D0501330E0EBC3E796F1
:1004F3000809E7960809E7960809E7962220E0E449
:10050300E6970809E6970809E6970809E69722009F
:1005130012042D604F12043C6012E7548066F612F9
:10052300040370111203F9703B090909F4F618F674
:1005330018F618F62212041870151203EF080808AB
:1005430060EAE6447FF618768018E4F618F622127D
:1005530003EF60161203F97012E4F608F608F608C2
:10056300E65480F609090918181822EAC0E0EBC01E
:10057300E0ECC0E0EDC0E0E687F0A4FBACF008E6F9
:1005830087F0A42CFCE435F0FA1809E687F0A42CD4
:100593004B60027401CA35F0FCE433FB09E687F0D3
:1005A300D2F7A42CCB35F0FC1908E687F0A42BCCAA
:1005B30035F0FBE433FD0819E687F0D2E7A42C4AB3
:1005C300CB35F0CD3400FC09E687F0D2E7A42DCC7F
:1005D30035F0FDE433FA0918E687F0D2F7A42CCD01
:1005E30035F0CA3400FC08E687F0D2E7D2F7A42A34
:1005F300CC35F07A7E20E70B0ACB33CBCD33CDCC91
:1006030033CC33CB3350147004ED30E00ED2F1E42D
:10061300CD3DCDCC3CCC3B5005DA05C2F1EB547F4C
:10062300C63308E63392F0FBE73309E733C39A5046
:100633002D2B70190C0D4C4D70151806E608C3339D
:10064300700D20F10AA2F013F6E418800B4024E4A5
:10065300F630F002768018F618F618F68024D33BAD
:1006630014501074FFA2F013F6187680E418F618ED
:10067300F6800FA2F013F618E63303F618ECF6181B
:10068300EDF6D0E0FDD0E0FCD0E0FBD0E0FA2212A2
:10069300043C604612042D603DE9687008F618F6C4
:1006A30018F618F622748067F71206C6090909744A
:1006B3008067F72212042D601D12043C700519197E
:1006C30019801A120403701F120418C37003E6671B
:1006D3003319191940071818182208080874FFF667
:1006E30018F618F618F62212041860171203F97098
:1006F3002192F01203EF7019501720F01408080824
:10070300090909E7F61819E7F61819E7F61819E7BA
:10071300F6221203EF60E6E869701F0808E62480FA
:10072300F608E436F618547FB47F0CE6548060076D
:10073300F6E418F618F622181822E9C6CC08C6CD36
:1007430008C6CE08C6CFC0E0E8C0E0EAC0E0EBC010
:10075300E009E9F809E7FA09E7FBE6F918E6F8C35F
:10076300EC98ED99EE9AEBC2E7F5F0EFC2E795F05E
:10077300500E600CEBCFFBEACEFAE9CDF9E8CCF8EA
:10078300EAA2E7D2E7FAEB33FB13F5F0EEA2E7D2E6
:10079300E7FEEF33FFC5F013A2E730E601B313C55D
:1007A300F0C3C0E0C0F07F00C39BFB605B941860A4
:1007B3000C401AD0E023F9D0E0F80208958AF0E95A
:1007C300486003D2F0E4AFF0FAF9F8803BEB30E491
:1007D3000D89F0EA6003D2F0E4AFF0F9CAF8EB3028
:1007E300E30D88F0EF6002D2F0AFF0E4CAC9F8EB92
:1007F30054076014FBC3EA13FAE913F9E813F8EF9B
:10080300135002D2E0FFDBEDD0E0C0E030E739C3A4
:10081300E49FFFF5F0EC98FC42F0ED99FD42F0EE19
:100823009AFE42F0D0E0F9D0E0F8E5F0607AE923EF
:10083300F9EE20E742D8028067C3EF33FFEC33FCC5
:10084300ED33FDEE33FE80EAEC28FCED39FDEE3AA4
:10085300FED0E023F9D0E0F84002801BC3EE13FE84
:10086300ED13FDEC13FCEF135002D2E0FF08B800C8
:10087300067F7F74FF802EEF3350178CF020F00239
:1008830060100CBC000C0DBD00080EBE000408E88F
:1008930060DFE933E813FFEE2313FE4F4D4C80086E
:1008A300E95480FFE4FEFDFCEE33EF33F47004FC07
:1008B300FD7E80D0E0FBD0E0FAD0E0F8D0E0CFC6F8
:1008C30018CEC618CDC618CCC6F92212042D700452
:1008D3001818182212043C700D74FFF61819F61834
:1008E30019F61819F622E7548066F61203EF700F13
:1008F3001203F970F014F608F608F608F680D11220
:1009030003F9700CF608F608768008E6447F80EC5D
:1009130012041B700C12040660BFE65480F6E480D8
:10092300BB120406700519191980A5E869700C76C5
:100933003F18768018F618F6E8F922E6CDC0E018DD
:10094300ECC0E0E633CD33CDD313F6E719FCE7195A
:100953001933CC33C3947F400ECD9D502408E65405
:1009630080F6E418F6800FF4043D14501408E644AE
:100973007FF6187680E418F618F6D0E0FCD0E0FD98
:1009830022CCD313CCFD18E4C6CBC0E018E4C6CA0E
:10099300C0E00808ED08C633E613F618E433C6755D
:1009A300F003C3CA97CA09CB97CB199C40047D08AF
:1009B300802EBD0003020A7716B6FF050606081649
:1009C30018C3CA33CACB33CB33CA27CA09CB37CBF5
:1009D300193CC37D08803E187D0820E75CC633C6FA
:1009E300CA33CACB33CB33DDF1D5F0EB30E77BCA67
:1009F30097CA09CB974ACB199C406F4B7025E620C9
:100A0300E0218066187D08C3CA97CA09CB97CB1922
:100A13009CD3C633C6CA33CACB33CB3350C9DDE705
:100A2300D5F0E1D3E4C636C608C636C608C636C610
:100A330008C636C61818188031C3CA97CA09CB9797
:100A4300CB199CB34097C633C6CA33CACB33CB3317
:100A5300DD34D5F02EC6A2E0C640C8CA27CA09CBEA
:100A630037194A70BECB3CB480B90808E63308E6B0
:100A730033601F181818D0E0FAD0E0FBD0E0FCD0A8
:100A8300E0FD22187D08CA27CA09CB37CB193CD30E
:100A9300808013F618E4B67F11F618B6FF0EF61829
:100AA300C60470D20808768080CAF618F618F68055
:100AB300C5080808EAC0E0EBC0E086F0E7A4FA182E
:100AC3000986F0E7A42AFA180986F0E7A42AFA1897
:100AD3000986F0E7A42AFA1986F0E7A4FBE5F02AD1
:100AE300FA190886F0E7A42BFBE5F03AFA19088611
:100AF300F0E7A42BFBE5F03AFA18180986F0E7A40F
:100B0300C5F02BFBE43AFA1908E7C5F0C6A426F6AC
:100B1300E5F03BFBE43AFA1886F0E7A4F6E5F008C3
:100B230026F6E43B08F6E43A08F6D0E0FBD0E0FA18
:100B330022E4CFC0E0E4CEC0E0E4CDC0E0E4CCC02A
:100B4300E075F020C3E633F608E633F608E633F63D
:100B530008E633F6181818EC33FCED33FDEE33FEDC
:100B6300EF33FFC3EC9709ED9709EE9709EF971958
:100B73001919400FFFEC97FC09ED97FD09EE97FE5D
:100B8300191906D5F0BEECF709EDF709EEF709EFF1
:100B9300F7191919D0E0FCD0E0FDD0E0FED0E0FF5A
:100BA30022181818E4C396F608E496F608E496F6B5
:100BB30008E496F6226016080808C6C313C618C6CA
:100BC30013C618C613C618C613C6D5E0EA22E647ED
:100BD300F60809E647F60809E647F60809E647F680
:100BE30022E0F608A3E0F608A3E0F608A3E0F62265
:100BF300E6F008A3E6F008A3E6F008A3E6F022CAAD
:100C0300C0E0E6F0A308DAFAD0E0FA22CAC0E0E0D6
:100C1300A3C582CCC582C583CDC583F0A3C582CCD1
:100C2300C582C583CDC583DAE6D0E0CA22C3E49882
:100C3300F8E499F9120C718026C3E49AFAE49BFB59
:100C4300E920E7E9120C71E498F8E499F922C3E486
:100C530098F8E499F9120C71E498F8E499F9C3E46B
:100C63009AFAE49BFB22EB20E7CFE920E7E0B90007
:100C730010BB0008E88AF084F8AAF022E4FBC8FA63
:100C830022EB70227B10C833C8C933C9335007C362
:100C93009AC3DBF280069A50012ADBEAC833F4C810
:100CA300C933F4C9FA2275F008E4C833C8C933C993
:100CB30033C99AC99B5004C92AC93BD5F0ECFBC878
:100CC30033F4C8E4C9FA22700422600D18C6C33392
:100CD300C608C633C6D5E0F41822251010AF08F5B0
:100CE30010400215118008F51040021511D2AF22F1
:100CF300C0D0251010AF08F510500205118008F57B
:100D03001050020511D2AFD0D0222510F58210AFBA
:100D130008F510400215118008F51040021511D294
:100D2300AF851183222510F582E43511F58322E482
:100D3300732510C582C0E0E51134FFC583C0E0E52B
:100D430010C3958224F8F8E4C5A885831185821021
:100D5300C5A8E8CEF0A3E520F0A37808E608F0A341
:100D6300DEFAEFF0A3E58124FAF8E608F0A3E6083B
:100D7300F0A3E608F0A30808E608F0A3E608F0A34A
:100D830015811581D0E0FED0E0F81581158115811C
:100D9300E8C0E0EEC0E022851183851082E0A3FE67
:100DA300E0A3F5207808E0A3F608DFFAE0A3FFE06C
:100DB300A3C0E0E0A3C0E0E0A3C0E0E0A3C0E0E0A4
:100DC300A3C0E0E4C5A8858210858311C5A8D0839C
:100DD300D0820200FBC0D02510C582C0E0E51134EB
:100DE300FFC583C0E0E510C3958224F310AF0885E7
:100DF30083118582108008858311858210D2AFC844
:100E0300F0A3E9F0A3EAF0A3EBF0A37908E709F074
:100E1300A3D8FAECF0A3EDF0A3EEF0A3EFF0A3D088
:100E2300E0F0A3D0E0F0A3D0E0F0A3E520F0A3E549
:100E3300F0F0A322851183851082E0C0E0A3E0F9DE
:100E4300A3E0FAA3E0FBA37808E0F608A3DFFAE047
:100E5300FCA3E0FDA3E0FEA3E0FFA3E0C0E0A3E06A
:100E6300C0E0A3E0F5D0A3E0F520A3E0A3F5F0E410
:100E7300C5A8858311858210C5A8D082D083D0E010
:100E8300F8D0E032740280027401C0E0F404120D61
:100E93000DD0E0120C022274028000CCC0E0EDC041
:100EA300E0E510C39CCCAD1150011D10AF068C10B2
:100EB3008D1180068C108D11D2AF120C0FD0E0FD76
:100EC300D0E0FC22D083D082C5F0E493A3C5F0C365
:100ED30095F0F5F0E493A3C395F04005E5F00480A5
:100EE30001E475F002A42582F582E5F03583F583EC
:100EF300E493A3C0E0E493C0E022D083D082CCC0CB
:100F0300E0E493A36006120F271470FAE493A3603E
:100F130006120F461470FAD0E0FCE493A3C0E0E499
:100F230093C0E022C0E0E493A3D39C5010E493A3C6
:100F3300C39C400AD0E0D0E0D0E0020F1AA3A3A3E1
:100F4300D0E022C0E0E493A36C7009D0E0D0E0D0FD
:100F5300E0020F1AA3A3D0E022D083D082ECC0E03A
:100F6300EDC0E0EEC0E0EFC0E0E493A3FCE493A3A4
:100F7300FDE493A3FEE493A3FFEF4E4D4C601512E3
:100F83000FD8EC24FFFCED34FFFDEE34FFFEEF340D
:100F9300FFFF80E5E493A3FCE493A3FDE493A3FEA6
:100FA300E493A3FFEF4E4D4C6015121015EC24FF94
:100FB300FCED34FFFDEE34FFFEEF34FFFF80E5D0A0
:100FC300E0FFD0E0FED0E0FDD0E0FCE493A3C0E07E
:100FD300E493C0E022C0E0C0F088F01202D4A8F08D
:100FE30040071202A6A8F0701AA3A3A3A31202D467
:100FF300A8F0A3A3A3A34013D0F0D0E0D0E0D0E0A7
:10100300020FC2A3A3A3A3A3A3A3A3A3A3D0F0D01C
:10101300E022C0E0C0F088F01202A6A8F0A3A3A3C8
:10102300A3700BD0F0D0E0D0E0D0E0020FC2A3A3B6
:10103300D0F0D0E022C0E074F2120DD8C2DBC2C4FB
:101043009003FEE02401F0A3E03400F09003FEE0FF
:1010530064A17004A3E0640770159003FE7400F0AC
:10106300A37400F074019003FDF01201C5800674AF
:10107300009003FDF07F01020E37C0E074F1120D02
:10108300D8C2C5E589700302110D7E00807675080C
:1010930001750900EE7808120CCAAF08E5895F6094
:1010A30062EEF87900E875F002A4C8AAF075F000C2
:1010B300A42AFA75F002E9A42AF9E82400F582E9E2
:1010C3003404F583E064007004A3E06400602EEE52
:1010D300F87900E875F002A4C8AAF075F000A42A14
:1010E300FA75F002E9A42AF9E82400F582E9340448
:1010F300F583E0F8A3E0F5838882120D32EFF4550F
:1011030089F5890EEEC3940840847F02020E37C02E
:10111300E074F1120DD8C2EBE58A70030211A27ECE
:10112300008076750801750900EE7808120CCAAFC5
:1011330008E58A5F6062EEF87900E875F002A4C8FA
:10114300AAF075F000A42AFA75F002E9A42AF9E8D6
:101153002410F582E93404F583E064007004A3E00D
:101163006400602EEEF87900E875F002A4C8AAF0D6
:1011730075F000A42AFA75F002E9A42AF9E824100C
:10118300F582E93404F583E0F8A3E0F5838882125D
:101193000D32EFF4558AF58A0EEEC3940840847F2E
:1011A30002020E37C0E074F1120DD8C2E8E58B706D
:1011B300030212377E008076750801750900EE7808
:1011C30008120CCAAF08E58B5F6062EEF87900E89D
:1011D30075F002A4C8AAF075F000A42AFA75F0020B
:1011E300E9A42AF9E82420F582E93404F583E064CC
:1011F300007004A3E06400602EEEF87900E875F057
:1012030002A4C8AAF075F000A42AFA75F002E9A4B2
:101213002AF9E82420F582E93404F583E0F8A3E011
:10122300F5838882120D32EFF4558BF58B0EEEC3E6
:10123300940540847F02020E37C0E074F2120DD889
:10124300A2AFE492E0FEC2AFE5E9A2E65022900429
:101253002AE064007004A3E06400600E90042AE0B6
:10126300F8A3E0F5838882120D32759B0053E9BF22
:10127300EEA2E092AF7F01020E37C0E0C0D0E8C01B
:10128300E0E9C0E0EAC0E0C082C083E5C1C0E0900D
:1012930004ADE07900242CF582E93404F583D0E031
:1012A300F09004ACE0FA9004ADE06A7006E5959026
:1012B30004AEF09004ADE024019004ADF0C394803B
:1012C300400674009004ADF0D083D082D0E0FAD011
:1012D300E0F9D0E0F8D0D0D0E032C0E0C0D0EAC02E
:1012E300E0C008C009C082C08390052FE0FA9005D2
:1012F30030E06A700B539AFB7401900531F0803132
:10130300C2E990052FE0F5087401250890052FF038
:10131300750900E50824AFF582E5093404F583E097
:10132300F5C190052FE0C394804006740090052F0B
:10133300F0D083D082D009D008D0E0FAD0D0D0E06A
:101343003274F0120D3474FD120CDD7402120D2888
:10135300E9F08A088B098C0A8D0B7415120D28E0AD
:10136300FCA3E0FD851082851183E4F0A3F09006D1
:101373001C780C120BE47808790C120477500302E2
:1013830014229005F0780C120BE47808790C1204FF
:101393004B60030214767417120D28E070030214D5
:1013A300B8851082851183C082C0837413120D28FF
:1013B300122228D083D0821217AC502C851082853C
:1013C3001183C3E094FCA3E094FFA2D265D0334021
:1013D300177402120D28E41222E8F97413120D286F
:1013E300C3E098F0A3E099F07413120D281217EAE2
:1013F3007418120D28E070030214B57417120D2827
:10140300E40214B7900620780C120BE47808790CE8
:101413001208CE851082851183E0240A12232590B9
:101423000624780C120BE47808790C12047740D464
:101433009005EC780C120BE47808790C12047740D1
:10144300030213999005EC780C120BE47808790CDD
:101453001208CE12231C80D8900620780C120BE4BD
:101463007808790C120512851082851183E024F621
:101473001217ED900628780C120BE47808790C12F9
:1014830004C640D490061C780C120BE47808790C3F
:101493001204C640030213999005EC780C120BE476
:1014A3007808790C1205128510828511831217EAC8
:1014B30080D27401F07402120D28E060077A007B79
:1014C300000215B61217BD506D1217DB120D28E07E
:1014D300FEA3E0FFEE7001EF70087418120D28E010
:1014E300600B742E8C828D83F0A30CAD837A007B0A
:1014F3000080091217DB120D281217EAEA24FF1ADB
:10150300EB34FFFB8510828511831217A0500C74F6
:1015130013120D28E07002A3E070D88510828511A4
:101523008374FFC39EF874FF9FF91217AC50030234
:1015330016857A018089851082851183122228C33A
:10154300E498FAE499FB806B85080C85090D850AFC
:101553000E850B0F780C120360AE0CE50D3395E08E
:10156300F50EF50F780C1202E87808790C12069242
:101573009005EC780C120BE47808790C120512EE46
:101583001217CEEAF8EBF97401280AE439FBE87084
:1015930001E9701F7413120D28E07002A3E07008B4
:1015A3007418120D28E0600B742E8C828D83F0A3C7
:1015B3000CAD837413120D281217A0508B90062CB8
:1015C300780C120BE47808790C12047740030216A6
:1015D300857E01EC24FFF8ED34FFF97415120D2814
:1015E300E0F508A3E0F50988828983E0642E6010A2
:1015F300E02EF0643A70077430F07E0180027E00C2
:10160300E8FAE9FBEA24FF18EB34FFF9C3E5089A8B
:10161300E5099B40D2EE7001E460677402120D2865
:10162300E06036ECF8ED800A12178BE824FF18E926
:1016330034FFF9C3E50898E509995018121778E0C3
:10164300642E70E4E824FEF582E934FFF583121773
:1016530085F980D712231C801E8C828D83A3AC82D4
:10166300AD83ECF8ED8006121778121785F9C3E500
:101673000898E5099940F07415120D281217B874EB
:1016830031F07417120D28E07005801A1CAD83EC3D
:1016930024FFF582ED34FFF583E0643060EEE0640F
:1016A3002E70031CAD837402120D28E07003021721
:1016B300601217D0A3A9831217BD5018742D8C8202
:1016C3008D83F00CE9FD851082851183122252125D
:1016D30017F8800A742B8C828D83F00CE9FD7E0051
:1016E3007F00EC240AFCED3400FDEE24010EEF3400
:1016F30000FF121792120C69EA1217CE12179212F8
:101703000C691218057002A3E070DFC3EE94021295
:10171300176F40D6EEFAEFFBC3E49EF8E49FF9ECB3
:1017230028F582ED39F583E0C0E0C3E49AF8E49B41
:10173300F9EC28F8ED39F9EE28F8EF39F974F528C2
:10174300F58274FF39F583D0E0F01221D5EE9401D0
:1017530012176F50C3EC24F6FCED34FFFDECFAEDE9
:10176300FB7403120CF37F08020D9AC3EF9400A2DB
:10177300D265D03322E824FFFAE934FFFB8A828B57
:10178300832212178B18EB22E088828983F022854B
:1017930010828511831222C07A0A7B0022C3E09A49
:1017A300A3E09BA2D265D03322C3E098A3E099A221
:1017B300D265D03322E012224A228510828511831A
:1017C300C3A3E09400A2D265D0332224308C828D4F
:1017D30083F0A3AC82AD832274308C828D83F0A31B
:1017E300AC82AD83741322E024FFF0A3E034FFF056
:1017F30022A3E03400F9851082851183E8F0A3E980
:10180300F02285108285118312180F22E8F0A3E9D4
:10181300F0851082851183E02274F0120D3474B0C8
:10182300120CDD8510828511831222CE7418120DDD
:1018330028ECF0A3EDF0740F120D28E4F0A380223E
:101843007460120D281222187404120D28E0F97422
:1018530018120D281217B8120D32740F120D281218
:1018630021DFF0122285FA122307120D28EAF07401
:10187300256A6010E070C9740F120D2812221874C3
:10188300500217661222856425701985108285110E
:1018930083E02401081217F47460120D2812221831
:1018A300792580AB740E120D28E4F0740D120D2807
:1018B300E4F0740C120D28E4F07405120D28E4F022
:1018C300741E120D28A882A9837402120D28800E9B
:1018D3007405120D28E06026851082851183121885
:1018E3000B12220F122272FA120EFD000520D318DA
:1018F3002313192B01192D0A193017191B197405F4
:10190300120D28EAF080D1740C120D28E00480F443
:10191300740D80F5740E80F1122272642A705B7468
:1019230062120D2812227DFB8A828B83E0FCA3E0E6
:10193300FD740A120D28ECF0A3EDF0EA24020A0A62
:10194300EB3400FB7462120D281222C6740A120DC6
:10195300281217C3501F740A120D28122218C3E449
:101963009AFAE49BFB740A120D281222CE740C120D
:101973000D28E004F01217F9804C740A120D28E4C4
:10198300F0A3802F740A120D28122228E875F00A9A
:10199300A4F8AAF075F00AE9A42AF9E82508F8E9F9
:1019A3003400F974D028F874FF39F9740A120D2839
:1019B30012232C1222E8F5838882E0F50874D025DF
:1019C30008C3940A40BE740C120D28E06007740E1D
:1019D300120D28E4F0122285642E6003021A688532
:1019E3001082851183E0240108A3E03400F9121862
:1019F300051217B9E0642A702C7462120D281222A2
:101A03008BF8A3E0F988828983E0FEA3E0FFE82452
:101A1300020808E93400F97462120D2812226512D3
:101A2300232CF080447E007F00122285F50874D0B9
:101A33002508C3940A5032EE75F00AA4FEAAF07585
:101A4300F00AEFA42AFFEE2508F8EF3400F974D06A
:101A530028FE74FF39FF851082851183E02401F885
:101A63001217F480C47EFF7FFF7A008510828511F0
:101A73008312220A851082851183E0FBA3E0F5839C
:101A83008B82E0120EFD00034C961A68971A6C962F
:101A93001A9A1A0A1217F9122285FB122307120D3A
:101AA30028EBF0120EFD0010008120453D1F471862
:101AB3001F583C1C633D1B64E91C653D1F66361FB4
:101AC30067181F69E91C6EDD1A6F2A1C703C1C73B2
:101AD300761B753C1C783C1C8D207462120D2812F9
:101AE30022B3120D281217FFEA6035740F120D2866
:101AF300E0FCA3E0FD3395E0FE7406120D281222EC
:101B030094ECF0A3EDF0A3EEF0A3F07462120D28B1
:101B130012229B120D28122265E8F0A3E902186530
:101B2300740F120D281222287406120D2812227D1A
:101B3300F5838A82E8F0A3E980D07462120D28123B
:101B43002294E0C0E0741E120D28D0E0F0746212FB
:101B53000D2812229B120D281222651217FF741FE3
:101B6300120D28A882A9837412120D28E8F0A3E9A4
:101B73000220A47462120D281222B3120D28121728
:101B8300FF7406120D281222B3120D28E02402FA64
:101B9300A3E03400FB7462120D281222C6740212F1
:101BA3000D281217FFE87001E9700C7402120D285A
:101BB3007409F0A37406F012176E50047E107F2789
:101BC3007408120D28E4F0A380087408120D28127B
:101BD30021DFF07402120D2812222888828983A340
:101BE300AA82AB837402120D281222CE88828983C3
:101BF300E0600A7408120D2812222C40CD740212E0
:101C03000D281221F87412120D281217FF740812EE
:101C13000D28122252F97412120D28E028F8A3E0BD
:101C230039F97402021B6C740D120D28E0600AEE80
:101C33007001EF70047E017F007462120D2812227E
:101C4300B3120D28122314120D28E06470703C7433
:101C530006120D281222A9120D281222EF120D28A6
:101C6300E0240212225C120D281222651217FF9043
:101C730006307808120BE4741A120D287808120B38
:101C8300F37405120D28E4F0021D86EA6021740640
:101C9300120D281217B87808120BE47414120D28C9
:101CA3007808120BF37406120D28E02404801474D0
:101CB30006120D281222A9120D281222EF120D2846
:101CC300E0240212225C120D281222651223141240
:101CD3000D28E0646F70059006348096E06475709B
:101CE3008E9005F4808C7462120D281222B3120DAB
:101CF300281217FFEA60187406120D281217B87815
:101D03000C120BE47406120D28E02404F8801F74EF
:101D130006120D2812228BF50CA3E0F50D3395E086
:101D2300F50EF50F7406120D28E02402080812229E
:101D33005D120D281222FC120D28780C120BF39061
:101D430005F07808120BE47808790C1202BF5021D1
:101D53007405120D28742DF07414120D28780812CE
:101D63000BE47808120BA77414120D287808120BD1
:101D7300F39005F47808120BE4741A120D2878080E
:101D8300120BF3744F120D28A882A9837402120D4B
:101D9300281217FF7412120D281222FF120D28C0E9
:101DA30082C0839005F07808120BE4D083D0827848
:101DB3000812029160097411120D287401800674CF
:101DC30011120D28E4F0EE7001EF7006E0700302CB
:101DD3001E8D7402120D2812223C120D281222FFAE
:101DE300120D28780C120BE4741A120D28780812BD
:101DF3000BE4780C7908120B34E50824F8F582E536
:101E0300093405F583E0C0E07402120D281217B8F7
:101E1300D0E0F07414120D28780C120BE4741A122B
:101E23000D287808120BE4780C7908120B3474141B
:101E3300120D28780C120BF37414120D28C082C0F3
:101E4300839005F07808120BE4D083D082780812CF
:101E530002916003021DD512176E502E740E120DDF
:101E630028E060267405120D28E06004D2F0800299
:101E7300C2F0740A120D281221E8800E7402120DAA
:101E8300281222E0120D281222427402120D281287
:101E930021F8744F120D28C082C0837402120D28DA
:101EA300122218D083D082E582C39AFAE5839BFB82
:101EB300C3EA9EEB12223540C3740D120D28E07065
:101EC300030220A57411120D28E070030220A574EB
:101ED30004120D28E064786005E06458701E121740
:101EE3008BE824FF18E934FFF97402120D2812223B
:101EF300E0120D281217B874300220A4E0646F605A
:101F0300030220A57402120D281222786430700394
:101F13000220A580D47408120D287401F0A3E4F004
:101F23007404120D28E024FEF0EE7001EF70147EAD
:101F33000180177404120D28E4F07408120D28E4CC
:101F4300F0A3F012176E50047E067F007462120D28
:101F5300281222B3120D281217FF7406120D28122D
:101F630017B8780C120BE47406120D28E02404123F
:101F7300225C120D281222FC120D28780C120BF38E
:101F83009005F07808120BE4780C79081204C65017
:101F9300227405120D28742DF07414120D2878087C
:101FA300120BE4E50BB2E7F50B7414120D28780855
:101FB300120BF3740A120D28122228741E120D2814
:101FC300E58228F8E58339F97402120D281217FF08
:101FD300740D120D28E0F5087808120E8B7409129F
:101FE3000D28E0F5087808120E8B7404120D2812E0
:101FF3000E9A8E088F097808120E87740A120D281C
:10200300E0F9741A120D287808120BE4AA08AB0938
:10201300AC0AAD0B1202857406120CF37412120D86
:10202300281222CE740E120D28E060767405120D6C
:1020330028E06004D2F08002C2F0740A120D281264
:1020430021E87412120D28C082C0837402120D2875
:10205300122228D083D082E0C398F8A3E099F9C371
:10206300E89EE9122235503A7402120D2812223CDE
:10207300120D281222E0120D2812224280C485106C
:10208300828511831222011217F87402120D28742B
:1020930018F0A37406F07412120D28741BF0A374C5
:1020A30006F07412120D28C082C0837402120D2828
:1020B300122228D083D082E0C398FEA3E099FF7454
:1020C3000A120D2812222C500A7408120D28E4F06B
:1020D300A380327405120D28E06004D2F08002C29E
:1020E300F0740A120D28E0C39EF8A3E09FF9A2F052
:1020F300E492E0FAE8C39AF8E99400F97408120D3F
:1021030028E8F0A3E9F0740C120D28E0702B801975
:102113007460120D2812221E120D281217B8120D08
:1021230032740F120D281223227408120D28122262
:10213300D4120D281217C350D77405120D28E0606E
:10214300507460120D281222187405120D28E0F93C
:102153007418120D281217B8120D32802C746012E5
:102163000D281222187402120D2812228BF97418EA
:10217300120D281217B8120D327402120D281222F2
:102183000A7402120D281217FF740F120D2812235E
:10219300221221D512177050C4740C120D28E0704E
:1021A300030218667408120D281222D4120D281285
:1021B30017C350030218667460120D2812221E12F0
:1021C3000D281217B8120D32740F120D2812232284
:1021D30080D2EE24FF1EEF34FFFFC322E02401F080
:1021E300A3E0340022A2F0E492E0F8E0C398FEA357
:1021F300E09400FF221221FC22122201F922E024A2
:10220300FFF8A3E034FF22E012220F222401F8A3F7
:10221300E03400F922E0FAA3E0FB22E0FAA3E0FBBA
:1022230079207418221222C022C3E09EA3E0122256
:1022330035229FA2D265D033221221FC74022212CE
:1022430022497430F022E0F8A3E0F5838882221259
:1022530022C0C3E498F8E49922F8A3E03400F974A7
:10226300622212226922E0FAA3E0F5838A822285A0
:102273001082851183122269E022122269E0FAA3F7
:10228300E02285108285118312228F22122249E0D7
:102293002212228F12224A2212228F2402F8A3E052
:1022A3003400F97462221222B9E8FAE9FB741422A9
:1022B3001222B97406221222491222C022E0F8A384
:1022C300E0F922E0FCA3E0F5838C82EAF0A3EBF0D3
:1022D30022E024FFF0A3E034FFF0740822E8F0A327
:1022E300E9F0740222121813F8A3E022EAF0A3EB38
:1022F300F0A3E4F0A3F0740622122269E8F0A3E944
:10230300F0741422851082851183E02401081223BE
:102313003AE8F0A3E9F0740422851082851183E082
:102323002401F0A3E03400F02212180F2401F81264
:10233300233AE8F0A3E922A3E03400F9851082856B
:1023430011832274F7120D34E9FEEAF8EBF9E8FA87
:10235300E9FB740B2E8A828B83F0900308E0F8A3C9
:10236300E0F5838882A3A3A3A3A3E0600678617941
:1023730088800478417988E88A828B83A3F0E98A8C
:10238300828B83A3A3F0900301E08A828B83A3A3B0
:10239300A3F0900308E0F8A3E0F5838882A3A3E009
:1023A300F8A3E0F98A828B83A3A3A3A3E8F0A3E9AC
:1023B300F08A828B83A3A3A3A3A3A3ECF0A3EDF0E2
:1023C300900308E0F8A3E0F5838882E0F8A3E0F93E
:1023D3008A828B83A3A3A3A3A3A3A3A3E8F0A3E964
:1023E300F0790A7F01020D9A74F2120D34ECFEEDBE
:1023F300FF8908A908EAFCEBFD7A0A7B0312019521
:10240300E9FB7A0080348A0A750B00EE250AF5820F
:10241300EF350BF583E0C0E08B0A750B008A0C7572
:102423000D00E50C250AF8E50D350BF9E8240AF54E
:1024330082E93403F583D0E0F00AEAC3950840C685
:10244300E5082BF97F06020D9A74F7120D347E7D91
:102453007F031202491201EF7901EEFAEFFB120238
:10246300318E828F83E0C2E7F08E828F83E0640532
:1024730070538E828F83E0F97A7E7B031202318E52
:10248300828F83A3E0A2E55004D2F08002C2F0A2BF
:10249300F0E492E09005C1F0788179038882898322
:1024A300A3E0A2E740030225608E828F83A3A3A348
:1024B300E0FA900301E06A6003022560740190036F
:1024C30002F00225608E828F83E024F59005BEF032
:1024D3008E828F83E0F97A7E7B031202318E828FA4
:1024E30083A3E0A2E55004D2F08002C2F0A2F0E49C
:1024F30092E09005C1F08E828F83A3A3A3A3A3A32D
:10250300A3A3E0F8A3E0F99005BAE8F0A3E9F090FB
:1025130005BF7487F0A37403F09005BEE0F833950C
:10252300E0F99005BFE028F8A3E039F988828983B0
:10253300E09005C2F088828983A3E0A2E750128E5F
:10254300828F83A3E054DF6441700674019005C356
:10255300F08E828F83A3A3A3E09005B9F01201F557
:1025630012024F7F01020D9A74F4120D34EAFEEB4E
:10257300FF120213E964017004790180731201F5FB
:10258300900308EEF0A3EFF09005BF7400F0A3747E
:1025930000F07401900303F09005F07808120BE447
:1025A3009003047808120BF3900308E0F8A3E0F516
:1025B300838882A3A3A3A3E0F9120219900308E07E
:1025C300F8A3E0F5838882E0FAA3E0FB12021F90F0
:1025D3000308E0F8A3E0F5838882A3A3E0FAA3E06D
:1025E300FB1202257AA17B011202551201EF790039
:1025F3007F04020D9A74F4120D34EAFEEBFF8C0A89
:102603008D0B8908900303E0700312023DE508C3B4
:1026130094675005850809800375096785090812C1
:10262300025B120249A908AC0AAD0BEEFAEFFB12EA
:10263300019BE9F97A0A7B0312022B12024F120261
:1026430037E9900308E0F8A3E0F5838882A3A3A306
:10265300A3A3E0601C7400900302F07A4A7B021289
:10266300020D900302E06004740080027401FE8096
:10267300027E00900303E07003120243EE700790A2
:102683000301E02401F0EEF97F04020D9AC082C039
:10269300837401900303F012023DD083D0820200C1
:1026A300FB74F4120D348A088B098C0A8D0B53F1D9
:1026B300FE43F30CE5F353F2F3E5F275868075C43C
:1026C300807808120F5C000000000C000000B004CA
:1026D30000001B27600900002327C01200002B27DE
:1026E300802500003327403800003B27004B0000C3
:1026F3004327807000004B2700960000532700E11A
:1027030000005B27002C0100632700C201006B2738
:102713000084030073277B2775C23B75C505805E64
:1027230075C23B75C506805675C23B75C507804E9D
:1027330075C23B75C508804675C2D875C508803E0D
:1027430075C23B75C509803675C2D875C509802E1B
:1027530075C23B75C50A802675C2D875C50A801E29
:1027630075C23B75C50B801675C2D875C50B800E37
:1027730075C2D875C50C800675C23B75C50A75C48C
:1027830002438640D2AA75C10074009004ACF07471
:10279300009004ADF0740090052FF07400900530A4
:1027A300F074009004AEF07400900531F07F0402E1
:1027B3000D9A74F7120D34900530E0C0E090052FA8
:1027C300E0FED0E0C39E501F90052FE0F879009003
:1027D3000530E0FE7F00E8C39EF8E99FF974FF2807
:1027E300F874FF39F98036900530E0F87900C3E4D6
:1027F30098F8E499F990052FE07F0028F8EF39F96C
:10280300747F28F8740039F9C3E89CE99D5004D219
:10281300F08002C2F0A2F0E492E0F879007400685C
:10282300700374006960067A007B00805C7800792D
:10283300008012900530E02401F0439A04E824015B
:10284300F8E93400F9C3E89CE99D50398A828B8307
:10285300E0C0E0900530E07F0024AFF582EF340460
:10286300F583D0E0F08A828B83A3AA82AB837400C2
:10287300900531F0900530E0C3947F40B67400902A
:102883000530F080B5E8FAE9FB7F01020D9AC082BA
:10289300C083906189E04460F074D5906190F074D6
:1028A300099061FAF074159061B2F074009061AE12
:1028B300F012024F7900D083D0820200FBC082C0A5
:1028C3008375F005E9A424D490618FF0D083D0827E
:1028D3000200FBC082C083EA906174F0EB906175E3
:1028E300F0D083D0820200FBC082C083EA90617281
:1028F300F0EB906173F0D083D0820200FB74F61288
:102903000D3475E1EE7591FD7C0080138C0875091B
:1029130000EA2508F582EB3509F583E0F5D90CECDF
:10292300C39940E87F02020D9AC082C0838011E5FB
:10293300D98A828B83F08A828B83A3AA82AB831981
:10294300E9C3940150E9D083D0820200FB75E1E929
:10295300E591A2E150FA7591FD79000200FB75E162
:10296300EC75E1E30200FB75E1EF75E1EC0200FBBE
:10297300C082C0839061A3E0C2E6F0539AFED08385
:10298300D0820200FBC082C0839061A3E0D2E6F054
:10299300439A01D083D0820200FBC082C083A2AFDE
:1029A300E492E0FCC2AF90042AEAF0A3EBF0ECA2BD
:1029B300E092AFD083D0820200FBC082C0839061DB
:1029C30093E0542270F8D083D0820200FBC082C00F
:1029D300839005B47479F0A37413F074149005B65E
:1029E300F09005B274EFF0A374ACF074019005B7E6
:1029F300F07AB27B051201A7E9640160F41201B316
:102A0300D083D0820200FB1201E312026D7901121E
:102A130001FB79021201FB1201B91201BF1201CBB2
:102A2300E99005B8F09005B8E0640170F01201DD9B
:102A33008A088B09AC08AD09ECF8EDF97A647B00E0
:102A4300120C718A088B097808120E87ECF8EDF9DD
:102A53007A647B00120C71880889097808120E8742
:102A63007CCD7D057A327B051201D17404120CF3FF
:102A730079031202017A327B05120273EAF97C327E
:102A83007D057A347B121201AD7A327B0512027313
:102A9300EAFCEBFD7A327B051202671201BF022AC0
:102AA3002074F7120D348A828B83122B28E9F08A63
:102AB300828B83E02401FCA3E03400FD8A828B83B4
:102AC300ECF0A3EDF07F01020D9A74F6120D34744D
:102AD300FE120CDD851082851183EAF0A3EBF0EC86
:102AE300FAEDFB740C120D28E0F508A3E0F5097864
:102AF30008120E877402120D2885820885830978CF
:102B030008120E877C797D0212028B7404120CF377
:102B1300851082851183122B28E4F07402120CF3C2
:102B23007F02020D9AE0F8A3E0F58388822243F244
:102B33000143F30153FDFE0200FB74F0120D341246
:102B430001D7C28D75B690A28D50FCE5BBF508E4A4
:102B5300F509F50AE4C508C509C50AF50B85BA0CDC
:102B6300E4F50DF50EF50F7808790C120BD19005ED
:102B7300C5780C120BE47808790C120AB4740F7838
:102B830008120BB8AA08AB097F08020D9AC082C0CD
:102B930083E9120EC70103B22BA42BA82BAC2BB0D5
:102BA3002BD290800AD2918006D2938002D294D005
:102BB30083D0820200FBC082C083E9120EC70103E7
:102BC300E72BCD2BD42BDB2BE22B639001E59080FD
:102BD30013639002E590800C639008E59080056391
:102BE3009010E590D083D0820200FB43EBE0E5EB4D
:102BF30053EBEF53EBF743EB04C2BC0200FBC08281
:102C0300C08343EB0853EBFCE5EB43EB10D2BC74FE
:102C1300009003FDF0D083D0820200FB53EBF75307
:102C2300EBEFC2BC0200FBC082C0839003FDE0F95E
:102C3300D083D0820200FB74F4120D3412020753C6
:102C4300F4FEC29043FE0153F4FDC29143FE0253CE
:102C5300F4F7C29343FE0853F4EFC29443FE10907B
:102C630005C97808120BE4AA08AB09AC0AAD0B122C
:102C730002611201EF7F04020D9AC082C0837900C2
:102C83001201E9D083D0820200FBEBC313FBEA13EA
:102C9300FAEAF8EBF974FF28FA74FF39FB74006859
:102CA300700374006960120000000000000000005F
:102CB3000000000000000080D80200FB74F6120D33
:102CC3003474FE120CDD740C120D28A882A98385BE
:102CD3001082851183E8F0A3E9F0851082851183C2
:102CE3008582088583097808120E8712027F740291
:102CF300120CF37402120CF37F02020D9A748055C6
:102D0300C6FA53BEFBE59DA2E550FAE59DA2E2405B
:102D1300F400740169700774494AF5C68005E970C7
:102D2300028AC6E5C6FAE59EFBEA6B70F943BE0468
:102D33000200FBC082C0838A828B838001A3E07080
:102D4300FCE582C39AFAE5839BFBD083D082020021
:0B2D5300FBD2AF0200FBC2AF0200FB8E
:04000005000000E314
:00000001FF
