:020000040000FA
:030000000200E318
:030013000212795D
:030033000211A314
:03003B000212D9D5
:0300630002103454
:03006B0002107907
:03007B0002110E61
:1000830002123800000080FB120113B900030200C2
:10009300CDE490030178B979038002F0A3D8FCD9A9
:1000A300FA9005B9AA82AB83900116787C79018016
:1000B30015E493A3AC82AD838A828B83F0A3AA82D7
:1000C300AB838C828D83D8E9D9E775820675832A41
:1000D30074001200F575828675830074001200F5B2
:1000E30075D00075813F751001751103759F00026E
:1000F300008BC09FF59FE473D09F22D083D082C032
:100103009FE493C0E0740193C0E0740293F59F22CF
:10011300790122FF00000000000000000000004AF7
:1001230001000000960000B9E2D5D5B4ABB8D0C643
:10013300F7B5E7D1B9A3BA25642E25303264560D3D
:100143000A0000002041000000000A0000003031D6
:100153003233343536373839414243444546002833
:100163006E756C6C20706F696E74657229003F3F09
:100173003F000000803FF9021550B743BA5100E732
:10018300DB2E0000A0401000000008000000120059
:10019300FE4223001200FEE723001200FE48240063
:1001A3001200FE6725001200FEF425001200FE8CEB
:1001B30026001200FEEA2B001200FEFD2B001200A7
:1001C300FE1B2C001200FE262C001200FEBB2C008E
:1001D3001200FE2D2B001200FE392B001200FE36FA
:1001E3002C001200FEFC2C001200FE502D00120009
:1001F300FE552D001200FE8C2B001200FEB52B00C5
:100203001200FE792C001200FE892C001200FE8DD4
:1002130028001200FEBC28001200FED228001200A3
:10022300FEE728001200FEFC28001200FE28290029
:100233001200FE4C29001200FE5D29001200FE662A
:1002430029001200FE6F29001200FE84290012000B
:10025300FE9929001200FEB929001200FEA0260013
:100263001200FEB127001200FECC29001200FE325C
:100273002D001200FEA02A001200FEC92A0012005F
:10028300FE4013001200FE181800E066701008A369
:10029300E066700A08A3E066700408A3E06622E43F
:1002A300936670130874019366700C087402936666
:1002B3007005087403936622C3E7960809E7960856
:1002C30009E7960809E796A2D265D03322C3E493DF
:1002D3009608740193960874029396087403939690
:1002E30022080808E630E711120BA01202FC0808E6
:1002F30008C64480C618181822181818E9799EC62B
:1003030008CAC608CBC608CCC6C370207996CACB28
:10031300CC7019798ECBCC70137986CC700EF980A2
:100323002ACA33CACB33CBCC33CC331930E7F2CC24
:10033300CBCA3350147004EA30E00DE4CA3ACACB96
:100343003BCBCC3CCC500209C3E913C6CC182313D6
:10035300C6CB18C6CA18C6F92212039C20F0143063
:10036300E72B74FFFCFBFA747F8022E4FCFBFA7436
:1003730080801AB48008BC00F2BB00EF800F50EB02
:10038300F9E4C39AFAE49BFBE49CFCE499C6CC1819
:10039300C6CB18C6CA18C6F922E4C9C608CAC60815
:1003A300CBC6D3330308CCC63392F0C3947F402E1D
:1003B30094184019C9B90704CACBCC225025C309E4
:1003C300CA33CACB33CBCC33CC33D9F422F4600D4C
:1003D300C9CCC313CB13CBCA13CAD9F6CC22E4FCC2
:1003E300FBFA2214FCFBFA22E6C33318461846181C
:1003F3004622E7C33319471947194722181818E645
:10040300084608700AE608C3337005E633F4220889
:1004130022191919E7094709700AE709C333700557
:10042300E733F4220922E6084608C313460833607B
:1004330002E633F422E7094709C31347093360028D
:10044300E733F422120429602512043860201203D2
:10045300EB70030203F5080808E76670101819E744
:1004630066700A1819E76670041819E76622F42201
:10047300120429601C12043860171203EB70071270
:1004830003F57001D322C0D01203F57006D0D0B3A8
:1004930022C32233D0D0501430E0F6C3E7960809C4
:1004A300E7960809E7960809E796B32220E0D5E620
:1004B300970809E6970809E6970809E697B3221211
:1004C3000429601B12043860161203EB7007120331
:1004D300F5600CB322C0D01203F57005D0D022C34F
:1004E3002233D0D0501330E0EBC3E7960809E796E8
:1004F3000809E7960809E7962220E0E4E697080949
:10050300E6970809E6970809E6972200120429608E
:100513004F1204386012E7548066F61203FF70111D
:100523001203F5703B090909F4F618F618F618F6E4
:100533002212041470151203EB08080860EAE6445B
:100543007FF618768018E4F618F6221203EB60168D
:100553001203F57012E4F608F608F608E65480F67E
:1005630009090918181822EAC0E0EBC0E0ECC0E062
:10057300EDC0E0E687F0A4FBACF008E687F0A42C1E
:10058300FCE435F0FA1809E687F0A42C4B600274FA
:1005930001CA35F0FCE433FB09E687F0D2F7A42C5B
:1005A300CB35F0FC1908E687F0A42BCC35F0FBE43F
:1005B30033FD0819E687F0D2E7A42C4ACB35F0CDFA
:1005C3003400FC09E687F0D2E7A42DCC35F0FDE436
:1005D30033FA0918E687F0D2F7A42CCD35F0CA34E4
:1005E30000FC08E687F0D2E7D2F7A42ACC35F07AEC
:1005F3007E20E70B0ACB33CBCD33CDCC33CC33CBFF
:100603003350147004ED30E00ED2F1E4CD3DCDCC87
:100613003CCC3B5005DA05C2F1EB547FC63308E608
:100623003392F0FBE73309E733C39A502D2B70194C
:100633000C0D4C4D70151806E608C333700D20F1F0
:100643000AA2F013F6E418800B4024E4F630F0021B
:10065300768018F618F618F68024D33B14501074DD
:10066300FFA2F013F6187680E418F618F6800FA2AE
:10067300F013F618E63303F618ECF618EDF6D0E0AF
:10068300FDD0E0FCD0E0FBD0E0FA22120438604653
:10069300120429603DE9687008F618F618F618F692
:1006A30022748067F71206C2090909748067F7226A
:1006B300120429601D1204387005191919801A12C1
:1006C30003FF701F120414C37003E667331919196B
:1006D30040071818182208080874FFF618F618F6C9
:1006E30018F62212041460171203F5702192F01207
:1006F30003EB7019501720F014080808090909E7DB
:10070300F61819E7F61819E7F61819E7F62212038F
:10071300EB60E6E869701F0808E62480F608E43613
:10072300F618547FB47F0CE654806007F6E418F69D
:1007330018F622181822E9C6CC08C6CD08C6CE087A
:10074300C6CFC0E0E8C0E0EAC0E0EBC0E009E9F8EA
:1007530009E7FA09E7FBE6F918E6F8C3EC98ED991F
:10076300EE9AEBC2E7F5F0EFC2E795F0500E600C9E
:10077300EBCFFBEACEFAE9CDF9E8CCF8EAA2E7D26F
:10078300E7FAEB33FB13F5F0EEA2E7D2E7FEEF3324
:10079300FFC5F013A2E730E601B313C5F0C3C0E011
:1007A300C0F07F00C39BFB605B9418600C401AD0C1
:1007B300E023F9D0E0F80208918AF0E9486003D217
:1007C300F0E4AFF0FAF9F8803BEB30E40D89F0EA9E
:1007D3006003D2F0E4AFF0F9CAF8EB30E30D88F030
:1007E300EF6002D2F0AFF0E4CAC9F8EB540760142B
:1007F300FBC3EA13FAE913F9E813F8EF135002D233
:10080300E0FFDBEDD0E0C0E030E739C3E49FFFF564
:10081300F0EC98FC42F0ED99FD42F0EE9AFE42F0C6
:10082300D0E0F9D0E0F8E5F0607AE923F9EE20E7CB
:1008330042D8028067C3EF33FFEC33FCED33FDEEA8
:1008430033FE80EAEC28FCED39FDEE3AFED0E023DE
:10085300F9D0E0F84002801BC3EE13FEED13FDEC6C
:1008630013FCEF135002D2E0FF08B800067F7F7439
:10087300FF802EEF3350178CF020F00260100CBC79
:10088300000C0DBD00080EBE000408E860DFE9336C
:10089300E813FFEE2313FE4F4D4C8008E95480FF0D
:1008A300E4FEFDFCEE33EF33F47004FCFD7E80D0F8
:1008B300E0FBD0E0FAD0E0F8D0E0CFC618CEC618FF
:1008C300CDC618CCC6F922120429700418181822B0
:1008D300120438700D74FFF61819F61819F6181962
:1008E300F622E7548066F61203EB700F1203F570DD
:1008F300F014F608F608F608F680D11203F5700C2A
:10090300F608F608768008E6447F80EC1204177038
:100913000C12040260BFE65480F6E480BB120402AA
:10092300700519191980A5E869700C763F1876804F
:1009330018F618F6E8F922E6CDC0E018ECC0E0E6B8
:1009430033CD33CDD313F6E719FCE7191933CC3381
:10095300C3947F400ECD9D502408E65480F6E418DE
:10096300F6800FF4043D14501408E6447FF618761D
:1009730080E418F618F6D0E0FCD0E0FD22CCD313C7
:10098300CCFD18E4C6CBC0E018E4C6CAC0E0080832
:10099300ED08C633E613F618E433C675F003C3CA8D
:1009A30097CA09CB97CB199C40047D08802EBD00C4
:1009B30003020A7316B6FF050606081618C3CA33E0
:1009C300CACB33CB33CA27CA09CB37CB193CC37D38
:1009D30008803E187D0820E75CC633C6CA33CACBFD
:1009E30033CB33DDF1D5F0EB30E77BCA97CA09CBC4
:1009F300974ACB199C406F4B7025E620E021806617
:100A0300187D08C3CA97CA09CB97CB199CD3C633A1
:100A1300C6CA33CACB33CB3350C9DDE7D5F0E1D3F4
:100A2300E4C636C608C636C608C636C608C636C6BF
:100A33001818188031C3CA97CA09CB97CB199CB32E
:100A43004097C633C6CA33CACB33CB33DD34D5F074
:100A53002EC6A2E0C640C8CA27CA09CB37194A70B6
:100A6300BECB3CB480B90808E63308E633601F18F0
:100A73001818D0E0FAD0E0FBD0E0FCD0E0FD22185B
:100A83007D08CA27CA09CB37CB193CD3808013F61C
:100A930018E4B67F11F618B6FF0EF618C60470D226
:100AA3000808768080CAF618F618F680C508080884
:100AB300EAC0E0EBC0E086F0E7A4FA180986F0E7A5
:100AC300A42AFA180986F0E7A42AFA180986F0E797
:100AD300A42AFA1986F0E7A4FBE5F02AFA19088696
:100AE300F0E7A42BFBE5F03AFA190886F0E7A42B0C
:100AF300FBE5F03AFA18180986F0E7A4C5F02BFBDA
:100B0300E43AFA1908E7C5F0C6A426F6E5F03BFB7C
:100B1300E43AFA1886F0E7A4F6E5F00826F6E43B93
:100B230008F6E43A08F6D0E0FBD0E0FA22E4CFC0BE
:100B3300E0E4CEC0E0E4CDC0E0E4CCC0E075F0205A
:100B4300C3E633F608E633F608E633F608E633F68B
:100B5300181818EC33FCED33FDEE33FEEF33FFC30F
:100B6300EC9709ED9709EE9709EF97191919400FBB
:100B7300FFEC97FC09ED97FD09EE97FE191906D5D1
:100B8300F0BEECF709EDF709EEF709EFF7191919BC
:100B9300D0E0FCD0E0FDD0E0FED0E0FF2218181832
:100BA300E4C396F608E496F608E496F608E496F6A7
:100BB300226016080808C6C313C618C613C618C68B
:100BC30013C618C613C6D5E0EA22E647F60809E6B7
:100BD30047F60809E647F60809E647F622E0F6086D
:100BE300A3E0F608A3E0F608A3E0F622E6F008A3E4
:100BF300E6F008A3E6F008A3E6F022CAC0E0E6F0B8
:100C0300A308DAFAD0E0FA22CAC0E0E0A3C582CC96
:100C1300C582C583CDC583F0A3C582CCC582C583F8
:100C2300CDC583DAE6D0E0CA22C3E498F8E499F9A3
:100C3300120C6D8026C3E49AFAE49BFBE920E7E9F2
:100C4300120C6DE498F8E499F922C3E498F8E49956
:100C5300F9120C6DE498F8E499F9C3E49AFAE49B69
:100C6300FB22EB20E7CFE920E7E0B90010BB000847
:100C7300E88AF084F8AAF022E4FBC8FA22EB702297
:100C83007B10C833C8C933C9335007C39AC3DBF2D7
:100C930080069A50012ADBEAC833F4C8C933F4C981
:100CA300FA2275F008E4C833C8C933C933C99AC9ED
:100CB3009B5004C92AC93BD5F0ECFBC833F4C8E404
:100CC300C9FA22700422600D18C6C333C608C6339E
:100CD300C6D5E0F41822251010AF08F51040021510
:100CE300118008F51040021511D2AF22C0D0251093
:100CF30010AF08F510500205118008F510500205D9
:100D030011D2AFD0D0222510F58210AF08F51040D4
:100D13000215118008F51040021511D2AF85118319
:100D2300222510F582E43511F58322E4732510C5DD
:100D330082C0E0E51134FFC583C0E0E510C39582AE
:100D430024F8F8E4C5A8858311858210C5A8E8CEE8
:100D5300F0A3E520F0A37808E608F0A3DEFAEFF0AD
:100D6300A3E58124FAF8E608F0A3E608F0A3E60871
:100D7300F0A30808E608F0A3E608F0A3158115819F
:100D8300D0E0FED0E0F8158115811581E8C0E0EED2
:100D9300C0E022851183851082E0A3FEE0A3F52045
:100DA3007808E0A3F608DFFAE0A3FFE0A3C0E0E0E1
:100DB300A3C0E0E0A3C0E0E0A3C0E0E0A3C0E0E4A0
:100DC300C5A8858210858311C5A8D083D08202006F
:100DD300FBC0D02510C582C0E0E51134FFC583C038
:100DE300E0E510C3958224F310AF08858311858253
:100DF300108008858311858210D2AFC8F0A3E9F073
:100E0300A3EAF0A3EBF0A37908E709F0A3D8FAEC7F
:100E1300F0A3EDF0A3EEF0A3EFF0A3D0E0F0A3D0A6
:100E2300E0F0A3D0E0F0A3E520F0A3E5F0F0A322E7
:100E3300851183851082E0C0E0A3E0F9A3E0FAA363
:100E4300E0FBA37808E0F608A3DFFAE0FCA3E0FDEB
:100E5300A3E0FEA3E0FFA3E0C0E0A3E0C0E0A3E0C3
:100E6300F5D0A3E0F520A3E0A3F5F0E4C5A88583BE
:100E730011858210C5A8D082D083D0E0F8D0E032AB
:100E8300740280027401C0E0F404120D09D0E01270
:100E93000BFE2274028000CCC0E0EDC0E0E510C37D
:100EA3009CCCAD1150011D10AF068C108D11800626
:100EB3008C108D11D2AF120C0BD0E0FDD0E0FC22D0
:100EC300D083D082C5F0E493A3C5F0C395F0F5F0C9
:100ED300E493A3C395F04005E5F0048001E475F0C5
:100EE30002A42582F582E5F03583F583E493A3C05C
:100EF300E0E493C0E022D083D082CCC0E0E493A3AB
:100F03006006120F231470FAE493A36006120F42D3
:100F13001470FAD0E0FCE493A3C0E0E493C0E022B1
:100F2300C0E0E493A3D39C5010E493A3C39C400A72
:100F3300D0E0D0E0D0E0020F16A3A3A3D0E022C0FC
:100F4300E0E493A36C7009D0E0D0E0D0E0020F1688
:100F5300A3A3D0E022D083D082ECC0E0EDC0E0EECA
:100F6300C0E0EFC0E0E493A3FCE493A3FDE493A308
:100F7300FEE493A3FFEF4E4D4C6015120FD4EC2407
:100F8300FFFCED34FFFDEE34FFFEEF34FFFF80E5A1
:100F9300E493A3FCE493A3FDE493A3FEE493A3FFF0
:100FA300EF4E4D4C6015121011EC24FFFCED34FF95
:100FB300FDEE34FFFEEF34FFFF80E5D0E0FFD0E02D
:100FC300FED0E0FDD0E0FCE493A3C0E0E493C0E0F6
:100FD30022C0E0C0F088F01202D0A8F0400712024D
:100FE300A2A8F0701AA3A3A3A31202D0A8F0A3A3EC
:100FF300A3A34013D0F0D0E0D0E0D0E0020FBEA313
:10100300A3A3A3A3A3A3A3A3A3D0F0D0E022C0E0F0
:10101300C0F088F01202A2A8F0A3A3A3A3700BD080
:10102300F0D0E0D0E0D0E0020FBEA3A3D0F0D0E038
:1010330022C0E074F2120DD4C2DBC2C49003FEE0FE
:101043002401F0A3E03400F09003FEE064A17004F7
:10105300A3E0640770159003FE7400F0A37400F01E
:1010630074019003FDF01201C1800674009003FD2A
:10107300F07F01020E33C0E074F1120DD4C2C5E556
:101083008970030211097E008076750801750900D5
:10109300EE7808120CC6AF08E5895F6062EEF87956
:1010A30000E875F002A4C8AAF075F000A42AFA7546
:1010B300F002E9A42AF9E82400F582E93404F5836F
:1010C300E064007004A3E06400602EEEF87900E8A9
:1010D30075F002A4C8AAF075F000A42AFA75F0020C
:1010E300E9A42AF9E82400F582E93404F583E0F859
:1010F300A3E0F5838882120D2EEFF45589F5890E4E
:10110300EEC3940840847F02020E33C0E074F112F0
:101113000DD4C2EBE58A700302119E7E00807675C2
:101123000801750900EE7808120CC6AF08E58A5F5E
:101133006062EEF87900E875F002A4C8AAF075F0D1
:1011430000A42AFA75F002E9A42AF9E82410F5822A
:10115300E93404F583E064007004A3E06400602EC6
:10116300EEF87900E875F002A4C8AAF075F000A4BF
:101173002AFA75F002E9A42AF9E82410F582E93481
:1011830004F583E0F8A3E0F5838882120D2EEFF4D3
:10119300558AF58A0EEEC3940840847F02020E330B
:1011A300C0E074F1120DD4C2E8E58B700302123370
:1011B3007E008076750801750900EE7808120CC66A
:1011C300AF08E58B5F6062EEF87900E875F002A482
:1011D300C8AAF075F000A42AFA75F002E9A42AF966
:1011E300E82420F582E93404F583E064007004A365
:1011F300E06400602EEEF87900E875F002A4C8AA56
:10120300F075F000A42AFA75F002E9A42AF9E8249B
:1012130020F582E93404F583E0F8A3E0F5838882BE
:10122300120D2EEFF4558BF58B0EEEC3940540840F
:101233007F02020E33C0E074F2120DD4A2AFE49227
:10124300E0FEC2AFE5E9A2E6502290042AE0640082
:101253007004A3E06400600E90042AE0F8A3E0F5B4
:10126300838882120D2E759B0053E9BFEEA2E09294
:10127300AF7F01020E33C0E0C0D0E8C0E0E9C0E0B8
:10128300EAC0E0C082C083E5C1C0E09004ADE0796C
:1012930000242CF582E93404F583D0E0F09004AC0B
:1012A300E0FA9004ADE06A7006E5959004AEF09024
:1012B30004ADE024019004ADF0C3948040067400B3
:1012C3009004ADF0D083D082D0E0FAD0E0F9D0E042
:1012D300F8D0D0D0E032C0E0C0D0EAC0E0C008C04F
:1012E30009C082C08390052FE0FA900530E06A7050
:1012F3000B539AFB7401900531F08031C2E99005DC
:101303002FE0F5087401250890052FF0750900E515
:101313000824AFF582E5093404F583E0F5C19005AF
:101323002FE0C394804006740090052FF0D083D043
:1013330082D009D008D0E0FAD0D0D0E03274F012D5
:101343000D3074FD120CD97402120D24E9F08A08D1
:101353008B098C0A8D0B7415120D24E0FCA3E0FDA0
:10136300851082851183E4F0A3F0900618780C129F
:101373000BE07808790C120473500302141E9005D5
:10138300EC780C120BE07808790C12044760030226
:1013930014727417120D24E070030214B4851082C2
:1013A300851183C082C0837413120D24122224D0AA
:1013B30083D0821217A8502C851082851183C3E035
:1013C30094FCA3E094FFA2D265D0334017740212B9
:1013D3000D24E41222E4F97413120D24C3E098F0EF
:1013E300A3E099F07413120D241217E67418120D6A
:1013F30024E070030214B17417120D24E40214B331
:1014030090061C780C120BE07808790C1208CA8538
:101413001082851183E0240A122321900620780C80
:10142300120BE07808790C12047340D49005E87825
:101433000C120BE07808790C120473400302139525
:101443009005E8780C120BE07808790C1208CA12A0
:10145300231880D890061C780C120BE07808790CBE
:1014630012050E851082851183E024F61217E99088
:101473000624780C120BE07808790C1204C240D4CD
:10148300900618780C120BE07808790C1204C2400D
:10149300030213959005E8780C120BE07808790C99
:1014A30012050E8510828511831217E680D274010E
:1014B300F07402120D24E060077A007B000215B27B
:1014C3001217B9506D1217D7120D24E0FEA3E0FFD7
:1014D300EE7001EF70087418120D24E0600B742E87
:1014E3008C828D83F0A30CAD837A007B008009127C
:1014F30017D7120D241217E6EA24FF1AEB34FFFB69
:1015030085108285118312179C500C7413120D24BD
:10151300E07002A3E070D885108285118374FFC345
:101523009EF874FF9FF91217A850030216817A01DF
:101533008089851082851183122224C3E498FAE4FA
:1015430099FB806B85080C85090D850A0E850B0FA9
:10155300780C12035CAE0CE50D3395E0F50EF50F38
:10156300780C1202E47808790C12068E9005E8785C
:101573000C120BE07808790C12050EEE1217CAEA6A
:10158300F8EBF97401280AE439FBE87001E9701FEC
:101593007413120D24E07002A3E070087418120D86
:1015A30024E0600B742E8C828D83F0A30CAD8374C6
:1015B30013120D2412179C508B900628780C120BD3
:1015C300E07808790C12047340030216817E01EC63
:1015D30024FFF8ED34FFF97415120D24E0F508A388
:1015E300E0F50988828983E0642E6010E02EF064C0
:1015F3003A70077430F07E0180027E00E8FAE9FB5E
:10160300EA24FF18EB34FFF9C3E5089AE5099B4088
:10161300D2EE7001E460677402120D24E06036ECD0
:10162300F8ED800A121787E824FF18E934FFF9C39D
:10163300E50898E509995018121774E0642E70E4D0
:10164300E824FEF582E934FFF583121781F980D788
:10165300122318801E8C828D83A3AC82AD83ECF899
:10166300ED8006121774121781F9C3E50898E5098E
:101673009940F07415120D241217B47431F07417D5
:10168300120D24E07005801A1CAD83EC24FFF58253
:10169300ED34FFF583E0643060EEE0642E70031CEC
:1016A300AD837402120D24E0700302175C1217CC91
:1016B300A3A9831217B95018742D8C828D83F00C53
:1016C300E9FD85108285118312224E1217F4800AD8
:1016D300742B8C828D83F00CE9FD7E007F00EC245B
:1016E3000AFCED3400FDEE24010EEF3400FF121767
:1016F3008E120C65EA1217CA12178E120C65121895
:10170300017002A3E070DFC3EE940212176B40D6A0
:10171300EEFAEFFBC3E49EF8E49FF9EC28F582EDC3
:1017230039F583E0C0E0C3E49AF8E49BF9EC28F8C8
:10173300ED39F9EE28F8EF39F974F528F58274FFDD
:1017430039F583D0E0F01221D1EE940112176B50DA
:10175300C3EC24F6FCED34FFFDECFAEDFB7403124D
:101763000CEF7F08020D96C3EF9400A2D265D0332D
:1017730022E824FFFAE934FFFB8A828B83221217C3
:101783008718EB22E088828983F0228510828511F5
:10179300831222BC7A0A7B0022C3E09AA3E09BA2B5
:1017A300D265D03322C3E098A3E099A2D265D033A7
:1017B30022E012224622851082851183C3A3E0947E
:1017C30000A2D265D0332224308C828D83F0A3AC67
:1017D30082AD832274308C828D83F0A3AC82AD837F
:1017E300741322E024FFF0A3E034FFF022A3E034DB
:1017F30000F9851082851183E8F0A3E9F0228510B2
:101803008285118312180B22E8F0A3E9F085108278
:10181300851183E02274F0120D3074B0120CD98557
:1018230010828511831222CA7418120D24ECF0A3BE
:10183300EDF0740F120D24E4F0A380227460120DF6
:10184300241222147404120D24E0F97418120D24C6
:101853001217B4120D2E740F120D241221DBF01285
:101863002281FA122303120D24EAF074256A601010
:10187300E070C9740F120D241222147450021762FF
:1018830012228164257019851082851183E0240159
:10189300081217F07460120D24122214792580ABFC
:1018A300740E120D24E4F0740D120D24E4F0740C84
:1018B300120D24E4F07405120D24E4F0741E120DCD
:1018C30024A882A9837402120D24800E7405120DBC
:1018D30024E0602685108285118312180712220BDB
:1018E30012226EFA120EF9000520CF18230F192BBE
:1018F300FD182D061930131917197405120D24EA52
:10190300F080D1740C120D24E00480F4740D80F582
:10191300740E80F112226E642A705B7462120D24BD
:10192300122279FB8A828B83E0FCA3E0FD740A1206
:101933000D24ECF0A3EDF0EA24020A0AEB3400FBD9
:101943007462120D241222C2740A120D241217BFDC
:10195300501F740A120D24122214C3E49AFAE49B52
:10196300FB740A120D241222CA740C120D24E00413
:10197300F01217F5804C740A120D24E4F0A3802FA3
:10198300740A120D24122224E875F00AA4F8AAF0AE
:1019930075F00AE9A42AF9E82508F8E93400F9748E
:1019A300D028F874FF39F9740A120D24122328126F
:1019B30022E4F5838882E0F50874D02508C3940AED
:1019C30040BE740C120D24E06007740E120D24E463
:1019D300F0122281642E6003021A6485108285113D
:1019E30083E0240108A3E03400F91218011217B5AB
:1019F300E0642A702C7462120D24122287F8A3E08B
:101A0300F988828983E0FEA3E0FFE824020808E95D
:101A13003400F97462120D24122261122328F0801B
:101A2300447E007F00122281F50874D02508C394F8
:101A33000A5032EE75F00AA4FEAAF075F00AEFA47C
:101A43002AFFEE2508F8EF3400F974D028FE74FF5E
:101A530039FF851082851183E02401F81217F08085
:101A6300C47EFF7FFF7A00851082851183122206D0
:101A7300851082851183E0FBA3E0F5838B82E0125E
:101A83000EF900034C921A68931A6C921A961A0A6A
:101A93001217F5122281FB122303120D24EBF0120D
:101AA3000EF90010007D2045391F47141F58381CBC
:101AB30063391B64E51C65391F66321F67141F6990
:101AC300E51C6ED91A6F261C70381C73721B75388F
:101AD3001C78381C89207462120D241222AF120D57
:101AE300241217FBEA6035740F120D24E0FCA3E007
:101AF300FD3395E0FE7406120D24122290ECF0A340
:101B0300EDF0A3EEF0A3F07462120D2412229712EB
:101B13000D24122261E8F0A3E9021861740F120D7B
:101B2300241222247406120D24122279F5838A8248
:101B3300E8F0A3E980D07462120D24122290E0C071
:101B4300E0741E120D24D0E0F07462120D241222F0
:101B530097120D241222611217FB741F120D24A871
:101B630082A9837412120D24E8F0A3E90220A07461
:101B730062120D241222AF120D241217FB740612E7
:101B83000D241222AF120D24E02402FAA3E0340044
:101B9300FB7462120D241222C27402120D24121756
:101BA300FBE87001E9700C7402120D247405F0A3B4
:101BB3007406F012176A50047E107F277408120D02
:101BC30024E4F0A380087408120D241221DBF074BE
:101BD30002120D2412222488828983A3AA82AB8352
:101BE3007402120D241222CA88828983E0600A7467
:101BF30008120D2412222840CD7402120D24122142
:101C0300F47412120D241217FB7408120D241222FD
:101C13004EF97412120D24E028F8A3E039F9740286
:101C2300021B68740D120D24E0600AEE7001EF7060
:101C3300047E017F007462120D241222AF120D2460
:101C4300122310120D24E06470703C7406120D24EC
:101C53001222A5120D241222EB120D24E0240212EB
:101C63002258120D241222611217FB90062C7808B9
:101C7300120BE0741A120D247808120BEF7405127C
:101C83000D24E4F0021D82EA60217406120D241271
:101C930017B47808120BE07414120D247808120B91
:101CA300EF7406120D24E0240480147406120D242C
:101CB3001222A5120D241222EB120D24E02402128B
:101CC3002258120D24122261122310120D24E064F3
:101CD3006F70059006308096E06475708E9005F005
:101CE300808C7462120D241222AF120D241217FB82
:101CF300EA60187406120D241217B4780C120BE064
:101D03007406120D24E02404F8801F7406120D24B7
:101D1300122287F50CA3E0F50D3395E0F50EF50FD0
:101D23007406120D24E024020808122259120D240D
:101D33001222F8120D24780C120BEF9005EC7808A0
:101D4300120BE07808790C1202BB50217405120DB6
:101D530024742DF07414120D247808120BE0780803
:101D6300120BA37414120D247808120BEF9005F0D4
:101D73007808120BE0741A120D247808120BEF7412
:101D83004F120D24A882A9837402120D241217FB8B
:101D93007412120D241222FB120D24C082C08390F0
:101DA30005EC7808120BE0D083D082780812028DFC
:101DB30060097411120D24740180067411120D242C
:101DC300E4F0EE7001EF7006E07003021E89740206
:101DD300120D24122238120D241222FB120D247824
:101DE3000C120BE0741A120D247808120BE0780C15
:101DF3007908120B30E50824F4F582E5093405F57A
:101E030083E0C0E07402120D241217B4D0E0F07422
:101E130014120D24780C120BE0741A120D24780896
:101E2300120BE0780C7908120B307414120D24781D
:101E33000C120BEF7414120D24C082C0839005ECB6
:101E43007808120BE0D083D082780812028D6003E9
:101E5300021DD112176A502E740E120D24E0602653
:101E63007405120D24E06004D2F08002C2F0740AFB
:101E7300120D241221E4800E7402120D241222DCAE
:101E8300120D2412223E7402120D241221F4744FF7
:101E9300120D24C082C0837402120D24122214D0A6
:101EA30083D082E582C39AFAE5839BFBC3EA9EEB68
:101EB30012223140C3740D120D24E070030220A1DD
:101EC3007411120D24E070030220A17404120D2476
:101ED300E064786005E06458701E121787E824FFF9
:101EE30018E934FFF97402120D241222DC120D24B6
:101EF3001217B474300220A0E0646F60030220A1C3
:101F03007402120D24122274643070030220A18023
:101F1300D47408120D247401F0A3E4F07404120DB8
:101F230024E024FEF0EE7001EF70147E018017743C
:101F330004120D24E4F07408120D24E4F0A3F0124B
:101F4300176A50047E067F007462120D241222AFBA
:101F5300120D241217FB7406120D241217B4780CF9
:101F6300120BE07406120D24E02404122258120D01
:101F7300241222F8120D24780C120BEF9005EC7842
:101F830008120BE0780C79081204C250227405126F
:101F93000D24742DF07414120D247808120BE0E54F
:101FA3000BB2E7F50B7414120D247808120BEF74BF
:101FB3000A120D24122224741E120D24E58228F81D
:101FC300E58339F97402120D241217FB740D120DF7
:101FD30024E0F5087808120E877409120D24E0F541
:101FE300087808120E877404120D24120E968E08B8
:101FF3008F097808120E83740A120D24E0F9741AFB
:10200300120D247808120BE0AA08AB09AC0AAD0B39
:102013001202817406120CEF7412120D241222CADA
:10202300740E120D24E060767405120D24E0600432
:10203300D2F08002C2F0740A120D241221E4741249
:10204300120D24C082C0837402120D24122224D0E4
:1020530083D082E0C398F8A3E099F9C3E89EE9121C
:102063002231503A7402120D24122238120D241216
:1020730022DC120D2412223E80C485108285118336
:102083001221FD1217F47402120D247414F0A374B8
:1020930006F07412120D247417F0A37406F0741270
:1020A300120D24C082C0837402120D24122224D084
:1020B30083D082E0C398FEA3E099FF740A120D2433
:1020C300122228500A7408120D24E4F0A3803274FB
:1020D30005120D24E06004D2F08002C2F0740A12EB
:1020E3000D24E0C39EF8A3E09FF9A2F0E492E0FA86
:1020F300E8C39AF8E99400F97408120D24E8F0A3F0
:10210300E9F0740C120D24E0702B80197460120D29
:102113002412221A120D241217B4120D2E740F1248
:102123000D2412231E7408120D241222D0120D2422
:102133001217BF50D77405120D24E060507460125B
:102143000D241222147405120D24E0F97418120DD3
:10215300241217B4120D2E802C7460120D24122237
:10216300147402120D24122287F97418120D24120A
:1021730017B4120D2E7402120D24122206740212C9
:102183000D241217FB740F120D2412231E1221D1DA
:1021930012176C50C4740C120D24E0700302186201
:1021A3007408120D241222D0120D241217BF5003EB
:1021B3000218627460120D2412221A120D241217CF
:1021C300B4120D2E740F120D2412231E80D2EE248E
:1021D300FF1EEF34FFFFC322E02401F0A3E034002D
:1021E30022A2F0E492E0F8E0C398FEA3E09400FF9B
:1021F300221221F8221221FDF922E024FFF8A3E0A4
:1022030034FF22E012220B222401F8A3E03400F968
:1022130022E0FAA3E0FB22E0FAA3E0FB79207418A2
:10222300221222BC22C3E09EA3E0122231229FA2EB
:10223300D265D033221221F874022212224574305F
:10224300F022E0F8A3E0F5838882221222BCC3E4E3
:1022530098F8E49922F8A3E03400F9746222122278
:102263006522E0FAA3E0F5838A8222851082851134
:1022730083122265E022122265E0FAA3E022851090
:102283008285118312228B22122245E02212228B95
:102293001222462212228B2402F8A3E03400F9749E
:1022A30062221222B5E8FAE9FB7414221222B574F1
:1022B30006221222451222BC22E0F8A3E0F922E012
:1022C300FCA3E0F5838C82EAF0A3EBF022E024FF89
:1022D300F0A3E034FFF0740822E8F0A3E9F07402FD
:1022E3002212180FF8A3E022EAF0A3EBF0A3E4F024
:1022F300A3F0740622122265E8F0A3E9F074142215
:10230300851082851183E0240108122336E8F0A3A7
:10231300E9F0740422851082851183E02401F0A37F
:10232300E03400F02212180B2401F8122336E8F0EF
:10233300A3E922A3E03400F9851082851183227476
:10234300F7120D30E9FEEAF8EBF9E8FAE9FB740B52
:102353002E8A828B83F0900308E0F8A3E0F583884C
:1023630082A3A3A3A3A3E06006786179888004789D
:10237300417988E88A828B83A3F0E98A828B83A3DD
:10238300A3F0900301E08A828B83A3A3A3F09003BD
:1023930008E0F8A3E0F5838882A3A3E0F8A3E0F9BB
:1023A3008A828B83A3A3A3A3E8F0A3E9F08A828B99
:1023B30083A3A3A3A3A3A3ECF0A3EDF0900308E0EE
:1023C300F8A3E0F5838882E0F8A3E0F98A828B839F
:1023D300A3A3A3A3A3A3A3A3E8F0A3E9F0790A7F8C
:1023E30001020D9674F2120D30ECFEEDFF8908A97F
:1023F30008EAFCEBFD7A0A7B03120191E9FB7A0000
:1024030080348A0A750B00EE250AF582EF350BF549
:1024130083E0C0E08B0A750B008A0C750D00E50C98
:10242300250AF8E50D350BF9E8240AF582E93403AA
:10243300F583D0E0F00AEAC3950840C6E5082BF916
:102443007F06020D9674F7120D307E7D7F03120214
:10245300451201EB7901EEFAEFFB12022D8E828F0A
:1024630083E0C2E7F08E828F83E0640570538E822F
:102473008F83E0F97A7E7B0312022D8E828F83A3F2
:10248300E0A2E55004D2F08002C2F0A2F0E492E0B0
:102493009005C1F07881790388828983A3E0A2E75C
:1024A300400302255C8E828F83A3A3A3E0FA9003EB
:1024B30001E06A600302255C7401900302F00225C7
:1024C3005C8E828F83E024F59005BEF08E828F832D
:1024D300E0F97A7E7B0312022D8E828F83A3E0A222
:1024E300E55004D2F08002C2F0A2F0E492E090053D
:1024F300C1F08E828F83A3A3A3A3A3A3A3A3E0F816
:10250300A3E0F99005BAE8F0A3E9F09005BF74875A
:10251300F0A37403F09005BEE0F83395E0F990055D
:10252300BFE028F8A3E039F988828983E09005C2E7
:10253300F088828983A3E0A2E750128E828F83A35F
:10254300E054DF6441700674019005C3F08E828FFE
:1025530083A3A3A3E09005B9F01201F112024B7F0C
:1025630001020D9674F4120D30EAFEEBFF12020F16
:10257300E964017004790180731201F1900308EE9C
:10258300F0A3EFF09005BF7400F0A37400F07401A2
:10259300900303F09005EC7808120BE090030478A5
:1025A30008120BEF900308E0F8A3E0F5838882A3F9
:1025B300A3A3A3E0F9120215900308E0F8A3E0F542
:1025C300838882E0FAA3E0FB12021B900308E0F881
:1025D300A3E0F5838882A3A3E0FAA3E0FB12022120
:1025E3007A9D7B011202511201EB79007F04020DE7
:1025F3009674F4120D30EAFEEBFF8C0A8D0B8908FA
:10260300900303E07003120239E508C39467500591
:1026130085080980037509678509081202571202A4
:1026230045A908AC0AAD0BEEFAEFFB120197E9F9E5
:102633007A0A7B0312022712024B120233E9900338
:1026430008E0F8A3E0F5838882A3A3A3A3A3E06033
:102653001C7400900302F07A4A7B02120209900371
:1026630002E06004740080027401FE80027E009028
:102673000303E0700312023FEE7007900301E024AE
:1026830001F0EEF97F04020D96C082C083740190BD
:102693000303F0120239D083D0820200FB74F412D8
:1026A3000D308A088B098C0A8D0B53F1FE43F30C12
:1026B300E5F353F2F3E5F275868075C4807808126A
:1026C3000F58000000000C000000B00400001727A2
:1026D300600900001F27C012000027278025000083
:1026E3002F27403800003727004B00003F2780701A
:1026F30000004727009600004F2700E100005727FE
:10270300002C01005F2700C201006727008403003B
:102713006F27772775C23B75C505805E75C23B750C
:10272300C506805675C23B75C507804E75C23B759D
:10273300C508804675C2D875C508803E75C23B750D
:10274300C509803675C2D875C509802E75C23B751B
:10275300C50A802675C2D875C50A801E75C23B7529
:10276300C50B801675C2D875C50B800E75C2D8759A
:10277300C50C800675C23B75C50A75C40243864005
:10278300D2AA75C10074009004ACF074009004AD3B
:10279300F0740090052FF07400900530F0740090F1
:1027A30004AEF07400900531F07F04020D9674F7C7
:1027B300120D30900530E0C0E090052FE0FED0E030
:1027C300C39E501F90052FE0F87900900530E0FE7E
:1027D3007F00E8C39EF8E99FF974FF28F874FF3976
:1027E300F98036900530E0F87900C3E498F8E4996D
:1027F300F990052FE07F0028F8EF39F9747F28F866
:10280300740039F9C3E89CE99D5004D2F08002C2F8
:10281300F0A2F0E492E0F8790074006870037400A9
:102823006960067A007B00805C78007900801290F2
:102833000530E02401F0439A04E82401F8E9340068
:10284300F9C3E89CE99D50398A828B83E0C0E0900C
:102853000530E07F0024AFF582EF3404F583D0E048
:10286300F08A828B83A3AA82AB837400900531F034
:10287300900530E0C3947F40B67400900530F0803B
:10288300B5E8FAE9FB7F01020D96C082C08390612F
:1028930089E04460F074D5906190F074099061FA16
:1028A300F074159061B2F074009061AEF012024BB7
:1028B3007900D083D0820200FBC082C08375F0050B
:1028C300E9A424D490618FF0D083D0820200FBC0AE
:1028D30082C083EA906174F0EB906175F0D083D08D
:1028E300820200FBC082C083EA906172F0EB9061C8
:1028F30073F0D083D0820200FB74F6120D3075E1C1
:10290300EE7591FD7C0080138C08750900EA25089B
:10291300F582EB3509F583E0F5D90CECC39940E872
:102923007F02020D96C082C0838011E5D98A828B13
:1029330083F08A828B83A3AA82AB8319E9C39401B0
:1029430050E9D083D0820200FB75E1E9E591A2E171
:1029530050FA7591FD79000200FB75E1EC75E1E336
:102963000200FB75E1EF75E1EC0200FBC082C0835E
:102973009061A3E0C2E6F0539AFED083D0820200B6
:10298300FBC082C0839061A3E0D2E6F0439A01D0FA
:1029930083D0820200FBC082C083A2AFE492E0FC3A
:1029A300C2AF90042AEAF0A3EBF0ECA2E092AFD01E
:1029B30083D0820200FBC082C083906193E05422E3
:1029C30070F8D083D0820200FBC082C0839005B42C
:1029D3007479F0A37413F074149005B6F09005B2F3
:1029E30074EFF0A374ACF074019005B7F07AB27B86
:1029F300051201A3E9640160F41201AFD083D08210
:102A03000200FB1201DF12026979011201F7790258
:102A13001201F71201B51201BB1201C7E99005B803
:102A2300F09005B8E0640170F01201D98A088B09AF
:102A3300AC08AD09ECF8EDF97A647B00120C6D8AF1
:102A4300088B097808120E83ECF8EDF97A647B00A1
:102A5300120C6D880889097808120E837CCD7D05D8
:102A63007A327B051201CD7404120CEF7903120143
:102A7300FD7A327B0512026FEAF97C327D057A34E6
:102A83007B121201A97A327B0512026FEAFCEBFD7D
:102A93007A327B051202631201BB022A1C74F712FD
:102AA3000D308A828B83122B24E9F08A828B83E098
:102AB3002401FCA3E03400FD8A828B83ECF0A3EDB8
:102AC300F07F01020D9674F6120D3074FE120CD9CC
:102AD300851082851183EAF0A3EBF0ECFAEDFB7429
:102AE3000C120D24E0F508A3E0F5097808120E8313
:102AF3007402120D248582088583097808120E83D7
:102B03007C757D021202877404120CEF8510828596
:102B13001183122B24E4F07402120CEF7F02020DD6
:102B230096E0F8A3E0F58388822243F20143F301A0
:102B330053FDFE0200FB74F0120D301201D3C28D5F
:102B430075B690A28D50FCE5BBF508E4F509F50ACE
:102B5300E4C508C509C50AF50B85BA0CE4F50DF5FE
:102B63000EF50F7808790C120BCD9005C5780C1271
:102B73000BE07808790C120AB0740F7808120BB4C2
:102B8300AA08AB097F08020D96C082C083E9120E22
:102B9300C30103AE2BA02BA42BA82BAC2BD290806C
:102BA3000AD2918006D2938002D294D083D082023B
:102BB30000FBC082C083E9120EC30103E32BC92BC0
:102BC300D02BD72BDE2B639001E59080136390020B
:102BD300E590800C639008E5908005639010E59084
:102BE300D083D0820200FB43EBE0E5EB53EBEF53E2
:102BF300EBF743EB04C2BC0200FBC082C08343EB90
:102C03000853EBFCE5EB43EB10D2BC74009003FDDF
:102C1300F0D083D0820200FB53EBF753EBEFC2BC3F
:102C23000200FBC082C0839003FDE0F9D083D08211
:102C33000200FB74F4120D3012020353F4FEC2902F
:102C430043FE0153F4FDC29143FE0253F4F7C293D2
:102C530043FE0853F4EFC29443FE109005C978086D
:102C6300120BE0AA08AB09AC0AAD0B12025D12010C
:102C7300EB7F04020D96C082C08379001201E5D078
:102C830083D0820200FBEBC313FBEA13FAEAF8EBEF
:102C9300F974FF28FA74FF39FB7400687003740039
:102CA3006960120000000000000000000000000046
:102CB30000000080D80200FB74F6120D3074FE127F
:102CC3000CD9740C120D24A882A983851082851156
:102CD30083E8F0A3E9F08510828511838582088556
:102CE30083097808120E8312027B7402120CEF74AC
:102CF30002120CEF7F02020D96748055C6FA53BE82
:102D0300FBE59DA2E550FAE59DA2E240F4007401C3
:102D130069700774494AF5C68005E970028AC6E5F9
:102D2300C6FAE59EFBEA6B70F943BE040200FBC0E2
:102D330082C0838A828B838001A3E070FCE582C317
:102D43009AFAE5839BFBD083D0820200FBD2AF02C9
:072D530000FBC2AF0200FB10
:04000005000000E314
:00000001FF
